{
	"Fall-2023/24_Composition.sol": {
		"Book": {
			"abi": [
				{
					"inputs": [],
					"name": "getPageTextSize",
					"outputs": [
						{
							"internalType": "uint256",
							"name": "",
							"type": "uint256"
						}
					],
					"stateMutability": "view",
					"type": "function"
				},
				{
					"inputs": [],
					"name": "page",
					"outputs": [
						{
							"internalType": "contract Page",
							"name": "",
							"type": "address"
						}
					],
					"stateMutability": "view",
					"type": "function"
				},
				{
					"inputs": [],
					"name": "page_number",
					"outputs": [
						{
							"internalType": "uint256",
							"name": "",
							"type": "uint256"
						}
					],
					"stateMutability": "view",
					"type": "function"
				}
			],
			"devdoc": {
				"kind": "dev",
				"methods": {},
				"version": 1
			},
			"evm": {
				"assembly": "    /* \"Fall-2023/24_Composition.sol\":467:761  contract Book... */\n  mstore(0x40, 0x80)\n    /* \"Fall-2023/24_Composition.sol\":521:522  1 */\n  0x01\n    /* \"Fall-2023/24_Composition.sol\":524:526  12 */\n  0x0c\n    /* \"Fall-2023/24_Composition.sol\":512:527  new Page(1, 12) */\n  mload(0x40)\n  tag_1\n  swap1\n  tag_2\n  jump\t// in\ntag_1:\n  tag_3\n  swap3\n  swap2\n  swap1\n  tag_4\n  jump\t// in\ntag_3:\n  mload(0x40)\n  dup1\n  swap2\n  sub\n  swap1\n  0x00\n  create\n  dup1\n  iszero\n  dup1\n  iszero\n  tag_5\n  jumpi\n  returndatasize\n  0x00\n  dup1\n  returndatacopy\n  revert(0x00, returndatasize)\ntag_5:\n  pop\n    /* \"Fall-2023/24_Composition.sol\":493:527  Page public page = new Page(1, 12) */\n  0x00\n  dup1\n  0x0100\n  exp\n  dup2\n  sload\n  dup2\n  0xffffffffffffffffffffffffffffffffffffffff\n  mul\n  not\n  and\n  swap1\n  dup4\n  0xffffffffffffffffffffffffffffffffffffffff\n  and\n  mul\n  or\n  swap1\n  sstore\n  pop\n    /* \"Fall-2023/24_Composition.sol\":560:564  page */\n  0x00\n  dup1\n  sload\n  swap1\n  0x0100\n  exp\n  swap1\n  div\n  0xffffffffffffffffffffffffffffffffffffffff\n  and\n    /* \"Fall-2023/24_Composition.sol\":560:574  page.getNumber */\n  0xffffffffffffffffffffffffffffffffffffffff\n  and\n  0xf2c9ecd8\n    /* \"Fall-2023/24_Composition.sol\":560:576  page.getNumber() */\n  mload(0x40)\n  dup2\n  0xffffffff\n  and\n  0xe0\n  shl\n  dup2\n  mstore\n  0x04\n  add\n  0x20\n  mload(0x40)\n  dup1\n  dup4\n  sub\n  dup2\n  dup7\n  gas\n  staticcall\n  iszero\n  dup1\n  iszero\n  tag_7\n  jumpi\n  returndatasize\n  0x00\n  dup1\n  returndatacopy\n  revert(0x00, returndatasize)\ntag_7:\n  pop\n  pop\n  pop\n  pop\n  mload(0x40)\n  returndatasize\n  not(0x1f)\n  0x1f\n  dup3\n  add\n  and\n  dup3\n  add\n  dup1\n  0x40\n  mstore\n  pop\n  dup2\n  add\n  swap1\n  tag_8\n  swap2\n  swap1\n  tag_9\n  jump\t// in\ntag_8:\n    /* \"Fall-2023/24_Composition.sol\":534:576  uint public page_number = page.getNumber() */\n  0x01\n  sstore\n    /* \"Fall-2023/24_Composition.sol\":467:761  contract Book... */\n  callvalue\n  dup1\n  iszero\n  tag_10\n  jumpi\n  0x00\n  dup1\n  revert\ntag_10:\n  pop\n  jump(tag_11)\ntag_2:\n  dataSize(sub_1)\n  dup1\n  dataOffset(sub_1)\n  dup4\n  codecopy\n  add\n  swap1\n  jump\t// out\n    /* \"#utility.yul\":7:92   */\ntag_12:\n    /* \"#utility.yul\":52:59   */\n  0x00\n    /* \"#utility.yul\":81:86   */\n  dup2\n    /* \"#utility.yul\":70:86   */\n  swap1\n  pop\n    /* \"#utility.yul\":7:92   */\n  swap2\n  swap1\n  pop\n  jump\t// out\n    /* \"#utility.yul\":98:175   */\ntag_13:\n    /* \"#utility.yul\":135:142   */\n  0x00\n    /* \"#utility.yul\":164:169   */\n  dup2\n    /* \"#utility.yul\":153:169   */\n  swap1\n  pop\n    /* \"#utility.yul\":98:175   */\n  swap2\n  swap1\n  pop\n  jump\t// out\n    /* \"#utility.yul\":181:241   */\ntag_14:\n    /* \"#utility.yul\":209:212   */\n  0x00\n    /* \"#utility.yul\":230:235   */\n  dup2\n    /* \"#utility.yul\":223:235   */\n  swap1\n  pop\n    /* \"#utility.yul\":181:241   */\n  swap2\n  swap1\n  pop\n  jump\t// out\n    /* \"#utility.yul\":247:405   */\ntag_15:\n    /* \"#utility.yul\":305:314   */\n  0x00\n    /* \"#utility.yul\":338:399   */\n  tag_30\n    /* \"#utility.yul\":356:398   */\n  tag_31\n    /* \"#utility.yul\":365:397   */\n  tag_32\n    /* \"#utility.yul\":391:396   */\n  dup5\n    /* \"#utility.yul\":365:397   */\n  tag_12\n  jump\t// in\ntag_32:\n    /* \"#utility.yul\":356:398   */\n  tag_14\n  jump\t// in\ntag_31:\n    /* \"#utility.yul\":338:399   */\n  tag_13\n  jump\t// in\ntag_30:\n    /* \"#utility.yul\":325:399   */\n  swap1\n  pop\n    /* \"#utility.yul\":247:405   */\n  swap2\n  swap1\n  pop\n  jump\t// out\n    /* \"#utility.yul\":411:558   */\ntag_16:\n    /* \"#utility.yul\":506:551   */\n  tag_34\n    /* \"#utility.yul\":545:550   */\n  dup2\n    /* \"#utility.yul\":506:551   */\n  tag_15\n  jump\t// in\ntag_34:\n    /* \"#utility.yul\":501:504   */\n  dup3\n    /* \"#utility.yul\":494:552   */\n  mstore\n    /* \"#utility.yul\":411:558   */\n  pop\n  pop\n  jump\t// out\n    /* \"#utility.yul\":564:650   */\ntag_17:\n    /* \"#utility.yul\":610:617   */\n  0x00\n    /* \"#utility.yul\":639:644   */\n  dup2\n    /* \"#utility.yul\":628:644   */\n  swap1\n  pop\n    /* \"#utility.yul\":564:650   */\n  swap2\n  swap1\n  pop\n  jump\t// out\n    /* \"#utility.yul\":656:816   */\ntag_18:\n    /* \"#utility.yul\":715:724   */\n  0x00\n    /* \"#utility.yul\":748:810   */\n  tag_37\n    /* \"#utility.yul\":766:809   */\n  tag_38\n    /* \"#utility.yul\":775:808   */\n  tag_39\n    /* \"#utility.yul\":802:807   */\n  dup5\n    /* \"#utility.yul\":775:808   */\n  tag_17\n  jump\t// in\ntag_39:\n    /* \"#utility.yul\":766:809   */\n  tag_14\n  jump\t// in\ntag_38:\n    /* \"#utility.yul\":748:810   */\n  tag_13\n  jump\t// in\ntag_37:\n    /* \"#utility.yul\":735:810   */\n  swap1\n  pop\n    /* \"#utility.yul\":656:816   */\n  swap2\n  swap1\n  pop\n  jump\t// out\n    /* \"#utility.yul\":822:971   */\ntag_19:\n    /* \"#utility.yul\":918:964   */\n  tag_41\n    /* \"#utility.yul\":958:963   */\n  dup2\n    /* \"#utility.yul\":918:964   */\n  tag_18\n  jump\t// in\ntag_41:\n    /* \"#utility.yul\":913:916   */\n  dup3\n    /* \"#utility.yul\":906:965   */\n  mstore\n    /* \"#utility.yul\":822:971   */\n  pop\n  pop\n  jump\t// out\n    /* \"#utility.yul\":977:1343   */\ntag_4:\n    /* \"#utility.yul\":1115:1119   */\n  0x00\n    /* \"#utility.yul\":1153:1155   */\n  0x40\n    /* \"#utility.yul\":1142:1151   */\n  dup3\n    /* \"#utility.yul\":1138:1156   */\n  add\n    /* \"#utility.yul\":1130:1156   */\n  swap1\n  pop\n    /* \"#utility.yul\":1166:1245   */\n  tag_43\n    /* \"#utility.yul\":1242:1243   */\n  0x00\n    /* \"#utility.yul\":1231:1240   */\n  dup4\n    /* \"#utility.yul\":1227:1244   */\n  add\n    /* \"#utility.yul\":1218:1224   */\n  dup6\n    /* \"#utility.yul\":1166:1245   */\n  tag_16\n  jump\t// in\ntag_43:\n    /* \"#utility.yul\":1255:1336   */\n  tag_44\n    /* \"#utility.yul\":1332:1334   */\n  0x20\n    /* \"#utility.yul\":1321:1330   */\n  dup4\n    /* \"#utility.yul\":1317:1335   */\n  add\n    /* \"#utility.yul\":1308:1314   */\n  dup5\n    /* \"#utility.yul\":1255:1336   */\n  tag_19\n  jump\t// in\ntag_44:\n    /* \"#utility.yul\":977:1343   */\n  swap4\n  swap3\n  pop\n  pop\n  pop\n  jump\t// out\n    /* \"#utility.yul\":1430:1547   */\ntag_21:\n    /* \"#utility.yul\":1539:1540   */\n  0x00\n    /* \"#utility.yul\":1536:1537   */\n  dup1\n    /* \"#utility.yul\":1529:1541   */\n  revert\n    /* \"#utility.yul\":1676:1798   */\ntag_23:\n    /* \"#utility.yul\":1749:1773   */\n  tag_49\n    /* \"#utility.yul\":1767:1772   */\n  dup2\n    /* \"#utility.yul\":1749:1773   */\n  tag_13\n  jump\t// in\ntag_49:\n    /* \"#utility.yul\":1742:1747   */\n  dup2\n    /* \"#utility.yul\":1739:1774   */\n  eq\n    /* \"#utility.yul\":1729:1792   */\n  tag_50\n  jumpi\n    /* \"#utility.yul\":1788:1789   */\n  0x00\n    /* \"#utility.yul\":1785:1786   */\n  dup1\n    /* \"#utility.yul\":1778:1790   */\n  revert\n    /* \"#utility.yul\":1729:1792   */\ntag_50:\n    /* \"#utility.yul\":1676:1798   */\n  pop\n  jump\t// out\n    /* \"#utility.yul\":1804:1947   */\ntag_24:\n    /* \"#utility.yul\":1861:1866   */\n  0x00\n    /* \"#utility.yul\":1892:1898   */\n  dup2\n    /* \"#utility.yul\":1886:1899   */\n  mload\n    /* \"#utility.yul\":1877:1899   */\n  swap1\n  pop\n    /* \"#utility.yul\":1908:1941   */\n  tag_52\n    /* \"#utility.yul\":1935:1940   */\n  dup2\n    /* \"#utility.yul\":1908:1941   */\n  tag_23\n  jump\t// in\ntag_52:\n    /* \"#utility.yul\":1804:1947   */\n  swap3\n  swap2\n  pop\n  pop\n  jump\t// out\n    /* \"#utility.yul\":1953:2304   */\ntag_9:\n    /* \"#utility.yul\":2023:2029   */\n  0x00\n    /* \"#utility.yul\":2072:2074   */\n  0x20\n    /* \"#utility.yul\":2060:2069   */\n  dup3\n    /* \"#utility.yul\":2051:2058   */\n  dup5\n    /* \"#utility.yul\":2047:2070   */\n  sub\n    /* \"#utility.yul\":2043:2075   */\n  slt\n    /* \"#utility.yul\":2040:2159   */\n  iszero\n  tag_54\n  jumpi\n    /* \"#utility.yul\":2078:2157   */\n  tag_55\n  tag_21\n  jump\t// in\ntag_55:\n    /* \"#utility.yul\":2040:2159   */\ntag_54:\n    /* \"#utility.yul\":2198:2199   */\n  0x00\n    /* \"#utility.yul\":2223:2287   */\n  tag_56\n    /* \"#utility.yul\":2279:2286   */\n  dup5\n    /* \"#utility.yul\":2270:2276   */\n  dup3\n    /* \"#utility.yul\":2259:2268   */\n  dup6\n    /* \"#utility.yul\":2255:2277   */\n  add\n    /* \"#utility.yul\":2223:2287   */\n  tag_24\n  jump\t// in\ntag_56:\n    /* \"#utility.yul\":2213:2287   */\n  swap2\n  pop\n    /* \"#utility.yul\":2169:2297   */\n  pop\n    /* \"#utility.yul\":1953:2304   */\n  swap3\n  swap2\n  pop\n  pop\n  jump\t// out\n    /* \"Fall-2023/24_Composition.sol\":467:761  contract Book... */\ntag_11:\n  dataSize(sub_0)\n  dup1\n  dataOffset(sub_0)\n  0x00\n  codecopy\n  0x00\n  return\nstop\n\nsub_0: assembly {\n        /* \"Fall-2023/24_Composition.sol\":467:761  contract Book... */\n      mstore(0x40, 0x80)\n      callvalue\n      dup1\n      iszero\n      tag_1\n      jumpi\n      0x00\n      dup1\n      revert\n    tag_1:\n      pop\n      jumpi(tag_2, lt(calldatasize, 0x04))\n      shr(0xe0, calldataload(0x00))\n      dup1\n      0x08fa70c3\n      eq\n      tag_3\n      jumpi\n      dup1\n      0x0df813b9\n      eq\n      tag_4\n      jumpi\n      dup1\n      0x42ab4acb\n      eq\n      tag_5\n      jumpi\n    tag_2:\n      0x00\n      dup1\n      revert\n        /* \"Fall-2023/24_Composition.sol\":585:758  function getPageTextSize() view public returns(uint){... */\n    tag_3:\n      tag_6\n      tag_7\n      jump\t// in\n    tag_6:\n      mload(0x40)\n      tag_8\n      swap2\n      swap1\n      tag_9\n      jump\t// in\n    tag_8:\n      mload(0x40)\n      dup1\n      swap2\n      sub\n      swap1\n      return\n        /* \"Fall-2023/24_Composition.sol\":493:527  Page public page = new Page(1, 12) */\n    tag_4:\n      tag_10\n      tag_11\n      jump\t// in\n    tag_10:\n      mload(0x40)\n      tag_12\n      swap2\n      swap1\n      tag_13\n      jump\t// in\n    tag_12:\n      mload(0x40)\n      dup1\n      swap2\n      sub\n      swap1\n      return\n        /* \"Fall-2023/24_Composition.sol\":534:576  uint public page_number = page.getNumber() */\n    tag_5:\n      tag_14\n      tag_15\n      jump\t// in\n    tag_14:\n      mload(0x40)\n      tag_16\n      swap2\n      swap1\n      tag_9\n      jump\t// in\n    tag_16:\n      mload(0x40)\n      dup1\n      swap2\n      sub\n      swap1\n      return\n        /* \"Fall-2023/24_Composition.sol\":585:758  function getPageTextSize() view public returns(uint){... */\n    tag_7:\n        /* \"Fall-2023/24_Composition.sol\":632:636  uint */\n      0x00\n        /* \"Fall-2023/24_Composition.sol\":655:659  page */\n      dup1\n      0x00\n      swap1\n      sload\n      swap1\n      0x0100\n      exp\n      swap1\n      div\n      0xffffffffffffffffffffffffffffffffffffffff\n      and\n        /* \"Fall-2023/24_Composition.sol\":655:669  page.text_size */\n      0xffffffffffffffffffffffffffffffffffffffff\n      and\n      0x1c1bea94\n        /* \"Fall-2023/24_Composition.sol\":655:671  page.text_size() */\n      mload(0x40)\n      dup2\n      0xffffffff\n      and\n      0xe0\n      shl\n      dup2\n      mstore\n      0x04\n      add\n      0x20\n      mload(0x40)\n      dup1\n      dup4\n      sub\n      dup2\n      dup7\n      gas\n      staticcall\n      iszero\n      dup1\n      iszero\n      tag_19\n      jumpi\n      returndatasize\n      0x00\n      dup1\n      returndatacopy\n      revert(0x00, returndatasize)\n    tag_19:\n      pop\n      pop\n      pop\n      pop\n      mload(0x40)\n      returndatasize\n      not(0x1f)\n      0x1f\n      dup3\n      add\n      and\n      dup3\n      add\n      dup1\n      0x40\n      mstore\n      pop\n      dup2\n      add\n      swap1\n      tag_20\n      swap2\n      swap1\n      tag_21\n      jump\t// in\n    tag_20:\n        /* \"Fall-2023/24_Composition.sol\":648:671  return page.text_size() */\n      swap1\n      pop\n        /* \"Fall-2023/24_Composition.sol\":585:758  function getPageTextSize() view public returns(uint){... */\n      swap1\n      jump\t// out\n        /* \"Fall-2023/24_Composition.sol\":493:527  Page public page = new Page(1, 12) */\n    tag_11:\n      0x00\n      dup1\n      sload\n      swap1\n      0x0100\n      exp\n      swap1\n      div\n      0xffffffffffffffffffffffffffffffffffffffff\n      and\n      dup2\n      jump\t// out\n        /* \"Fall-2023/24_Composition.sol\":534:576  uint public page_number = page.getNumber() */\n    tag_15:\n      sload(0x01)\n      dup2\n      jump\t// out\n        /* \"#utility.yul\":7:84   */\n    tag_22:\n        /* \"#utility.yul\":44:51   */\n      0x00\n        /* \"#utility.yul\":73:78   */\n      dup2\n        /* \"#utility.yul\":62:78   */\n      swap1\n      pop\n        /* \"#utility.yul\":7:84   */\n      swap2\n      swap1\n      pop\n      jump\t// out\n        /* \"#utility.yul\":90:208   */\n    tag_23:\n        /* \"#utility.yul\":177:201   */\n      tag_38\n        /* \"#utility.yul\":195:200   */\n      dup2\n        /* \"#utility.yul\":177:201   */\n      tag_22\n      jump\t// in\n    tag_38:\n        /* \"#utility.yul\":172:175   */\n      dup3\n        /* \"#utility.yul\":165:202   */\n      mstore\n        /* \"#utility.yul\":90:208   */\n      pop\n      pop\n      jump\t// out\n        /* \"#utility.yul\":214:436   */\n    tag_9:\n        /* \"#utility.yul\":307:311   */\n      0x00\n        /* \"#utility.yul\":345:347   */\n      0x20\n        /* \"#utility.yul\":334:343   */\n      dup3\n        /* \"#utility.yul\":330:348   */\n      add\n        /* \"#utility.yul\":322:348   */\n      swap1\n      pop\n        /* \"#utility.yul\":358:429   */\n      tag_40\n        /* \"#utility.yul\":426:427   */\n      0x00\n        /* \"#utility.yul\":415:424   */\n      dup4\n        /* \"#utility.yul\":411:428   */\n      add\n        /* \"#utility.yul\":402:408   */\n      dup5\n        /* \"#utility.yul\":358:429   */\n      tag_23\n      jump\t// in\n    tag_40:\n        /* \"#utility.yul\":214:436   */\n      swap3\n      swap2\n      pop\n      pop\n      jump\t// out\n        /* \"#utility.yul\":442:568   */\n    tag_24:\n        /* \"#utility.yul\":479:486   */\n      0x00\n        /* \"#utility.yul\":519:561   */\n      0xffffffffffffffffffffffffffffffffffffffff\n        /* \"#utility.yul\":512:517   */\n      dup3\n        /* \"#utility.yul\":508:562   */\n      and\n        /* \"#utility.yul\":497:562   */\n      swap1\n      pop\n        /* \"#utility.yul\":442:568   */\n      swap2\n      swap1\n      pop\n      jump\t// out\n        /* \"#utility.yul\":574:634   */\n    tag_25:\n        /* \"#utility.yul\":602:605   */\n      0x00\n        /* \"#utility.yul\":623:628   */\n      dup2\n        /* \"#utility.yul\":616:628   */\n      swap1\n      pop\n        /* \"#utility.yul\":574:634   */\n      swap2\n      swap1\n      pop\n      jump\t// out\n        /* \"#utility.yul\":640:782   */\n    tag_26:\n        /* \"#utility.yul\":690:699   */\n      0x00\n        /* \"#utility.yul\":723:776   */\n      tag_44\n        /* \"#utility.yul\":741:775   */\n      tag_45\n        /* \"#utility.yul\":750:774   */\n      tag_46\n        /* \"#utility.yul\":768:773   */\n      dup5\n        /* \"#utility.yul\":750:774   */\n      tag_24\n      jump\t// in\n    tag_46:\n        /* \"#utility.yul\":741:775   */\n      tag_25\n      jump\t// in\n    tag_45:\n        /* \"#utility.yul\":723:776   */\n      tag_24\n      jump\t// in\n    tag_44:\n        /* \"#utility.yul\":710:776   */\n      swap1\n      pop\n        /* \"#utility.yul\":640:782   */\n      swap2\n      swap1\n      pop\n      jump\t// out\n        /* \"#utility.yul\":788:914   */\n    tag_27:\n        /* \"#utility.yul\":838:847   */\n      0x00\n        /* \"#utility.yul\":871:908   */\n      tag_48\n        /* \"#utility.yul\":902:907   */\n      dup3\n        /* \"#utility.yul\":871:908   */\n      tag_26\n      jump\t// in\n    tag_48:\n        /* \"#utility.yul\":858:908   */\n      swap1\n      pop\n        /* \"#utility.yul\":788:914   */\n      swap2\n      swap1\n      pop\n      jump\t// out\n        /* \"#utility.yul\":920:1057   */\n    tag_28:\n        /* \"#utility.yul\":981:990   */\n      0x00\n        /* \"#utility.yul\":1014:1051   */\n      tag_50\n        /* \"#utility.yul\":1045:1050   */\n      dup3\n        /* \"#utility.yul\":1014:1051   */\n      tag_27\n      jump\t// in\n    tag_50:\n        /* \"#utility.yul\":1001:1051   */\n      swap1\n      pop\n        /* \"#utility.yul\":920:1057   */\n      swap2\n      swap1\n      pop\n      jump\t// out\n        /* \"#utility.yul\":1063:1216   */\n    tag_29:\n        /* \"#utility.yul\":1161:1209   */\n      tag_52\n        /* \"#utility.yul\":1203:1208   */\n      dup2\n        /* \"#utility.yul\":1161:1209   */\n      tag_28\n      jump\t// in\n    tag_52:\n        /* \"#utility.yul\":1156:1159   */\n      dup3\n        /* \"#utility.yul\":1149:1210   */\n      mstore\n        /* \"#utility.yul\":1063:1216   */\n      pop\n      pop\n      jump\t// out\n        /* \"#utility.yul\":1222:1466   */\n    tag_13:\n        /* \"#utility.yul\":1326:1330   */\n      0x00\n        /* \"#utility.yul\":1364:1366   */\n      0x20\n        /* \"#utility.yul\":1353:1362   */\n      dup3\n        /* \"#utility.yul\":1349:1367   */\n      add\n        /* \"#utility.yul\":1341:1367   */\n      swap1\n      pop\n        /* \"#utility.yul\":1377:1459   */\n      tag_54\n        /* \"#utility.yul\":1456:1457   */\n      0x00\n        /* \"#utility.yul\":1445:1454   */\n      dup4\n        /* \"#utility.yul\":1441:1458   */\n      add\n        /* \"#utility.yul\":1432:1438   */\n      dup5\n        /* \"#utility.yul\":1377:1459   */\n      tag_29\n      jump\t// in\n    tag_54:\n        /* \"#utility.yul\":1222:1466   */\n      swap3\n      swap2\n      pop\n      pop\n      jump\t// out\n        /* \"#utility.yul\":1553:1670   */\n    tag_31:\n        /* \"#utility.yul\":1662:1663   */\n      0x00\n        /* \"#utility.yul\":1659:1660   */\n      dup1\n        /* \"#utility.yul\":1652:1664   */\n      revert\n        /* \"#utility.yul\":1799:1921   */\n    tag_33:\n        /* \"#utility.yul\":1872:1896   */\n      tag_59\n        /* \"#utility.yul\":1890:1895   */\n      dup2\n        /* \"#utility.yul\":1872:1896   */\n      tag_22\n      jump\t// in\n    tag_59:\n        /* \"#utility.yul\":1865:1870   */\n      dup2\n        /* \"#utility.yul\":1862:1897   */\n      eq\n        /* \"#utility.yul\":1852:1915   */\n      tag_60\n      jumpi\n        /* \"#utility.yul\":1911:1912   */\n      0x00\n        /* \"#utility.yul\":1908:1909   */\n      dup1\n        /* \"#utility.yul\":1901:1913   */\n      revert\n        /* \"#utility.yul\":1852:1915   */\n    tag_60:\n        /* \"#utility.yul\":1799:1921   */\n      pop\n      jump\t// out\n        /* \"#utility.yul\":1927:2070   */\n    tag_34:\n        /* \"#utility.yul\":1984:1989   */\n      0x00\n        /* \"#utility.yul\":2015:2021   */\n      dup2\n        /* \"#utility.yul\":2009:2022   */\n      mload\n        /* \"#utility.yul\":2000:2022   */\n      swap1\n      pop\n        /* \"#utility.yul\":2031:2064   */\n      tag_62\n        /* \"#utility.yul\":2058:2063   */\n      dup2\n        /* \"#utility.yul\":2031:2064   */\n      tag_33\n      jump\t// in\n    tag_62:\n        /* \"#utility.yul\":1927:2070   */\n      swap3\n      swap2\n      pop\n      pop\n      jump\t// out\n        /* \"#utility.yul\":2076:2427   */\n    tag_21:\n        /* \"#utility.yul\":2146:2152   */\n      0x00\n        /* \"#utility.yul\":2195:2197   */\n      0x20\n        /* \"#utility.yul\":2183:2192   */\n      dup3\n        /* \"#utility.yul\":2174:2181   */\n      dup5\n        /* \"#utility.yul\":2170:2193   */\n      sub\n        /* \"#utility.yul\":2166:2198   */\n      slt\n        /* \"#utility.yul\":2163:2282   */\n      iszero\n      tag_64\n      jumpi\n        /* \"#utility.yul\":2201:2280   */\n      tag_65\n      tag_31\n      jump\t// in\n    tag_65:\n        /* \"#utility.yul\":2163:2282   */\n    tag_64:\n        /* \"#utility.yul\":2321:2322   */\n      0x00\n        /* \"#utility.yul\":2346:2410   */\n      tag_66\n        /* \"#utility.yul\":2402:2409   */\n      dup5\n        /* \"#utility.yul\":2393:2399   */\n      dup3\n        /* \"#utility.yul\":2382:2391   */\n      dup6\n        /* \"#utility.yul\":2378:2400   */\n      add\n        /* \"#utility.yul\":2346:2410   */\n      tag_34\n      jump\t// in\n    tag_66:\n        /* \"#utility.yul\":2336:2410   */\n      swap2\n      pop\n        /* \"#utility.yul\":2292:2420   */\n      pop\n        /* \"#utility.yul\":2076:2427   */\n      swap3\n      swap2\n      pop\n      pop\n      jump\t// out\n\n    auxdata: 0xa2646970667358221220e8a4a49e8c849864c861b421af28cbfc58840c0829e0df9a29c5df8fbd4034bd64736f6c63430008120033\n}\n\nsub_1: assembly {\n        /* \"Fall-2023/24_Composition.sol\":75:463  contract Page... */\n      mstore(0x40, 0x80)\n        /* \"Fall-2023/24_Composition.sol\":139:141  10 */\n      0x0a\n        /* \"Fall-2023/24_Composition.sol\":115:141  uint public text_size = 10 */\n      0x01\n      sstore\n        /* \"Fall-2023/24_Composition.sol\":154:270  constructor(uint _number, uint _text_size)... */\n      callvalue\n      dup1\n      iszero\n      tag_1\n      jumpi\n      0x00\n      dup1\n      revert\n    tag_1:\n      pop\n      mload(0x40)\n      sub(codesize, bytecodeSize)\n      dup1\n      bytecodeSize\n      dup4\n      codecopy\n      dup2\n      dup2\n      add\n      0x40\n      mstore\n      dup2\n      add\n      swap1\n      tag_2\n      swap2\n      swap1\n      tag_3\n      jump\t// in\n    tag_2:\n        /* \"Fall-2023/24_Composition.sol\":222:229  _number */\n      dup2\n        /* \"Fall-2023/24_Composition.sol\":213:219  number */\n      0x00\n        /* \"Fall-2023/24_Composition.sol\":213:229  number = _number */\n      dup2\n      swap1\n      sstore\n      pop\n        /* \"Fall-2023/24_Composition.sol\":252:262  _text_size */\n      dup1\n        /* \"Fall-2023/24_Composition.sol\":240:249  text_size */\n      0x01\n        /* \"Fall-2023/24_Composition.sol\":240:262  text_size = _text_size */\n      dup2\n      swap1\n      sstore\n      pop\n        /* \"Fall-2023/24_Composition.sol\":154:270  constructor(uint _number, uint _text_size)... */\n      pop\n      pop\n        /* \"Fall-2023/24_Composition.sol\":75:463  contract Page... */\n      jump(tag_6)\n        /* \"#utility.yul\":88:205   */\n    tag_8:\n        /* \"#utility.yul\":197:198   */\n      0x00\n        /* \"#utility.yul\":194:195   */\n      dup1\n        /* \"#utility.yul\":187:199   */\n      revert\n        /* \"#utility.yul\":334:411   */\n    tag_10:\n        /* \"#utility.yul\":371:378   */\n      0x00\n        /* \"#utility.yul\":400:405   */\n      dup2\n        /* \"#utility.yul\":389:405   */\n      swap1\n      pop\n        /* \"#utility.yul\":334:411   */\n      swap2\n      swap1\n      pop\n      jump\t// out\n        /* \"#utility.yul\":417:539   */\n    tag_11:\n        /* \"#utility.yul\":490:514   */\n      tag_19\n        /* \"#utility.yul\":508:513   */\n      dup2\n        /* \"#utility.yul\":490:514   */\n      tag_10\n      jump\t// in\n    tag_19:\n        /* \"#utility.yul\":483:488   */\n      dup2\n        /* \"#utility.yul\":480:515   */\n      eq\n        /* \"#utility.yul\":470:533   */\n      tag_20\n      jumpi\n        /* \"#utility.yul\":529:530   */\n      0x00\n        /* \"#utility.yul\":526:527   */\n      dup1\n        /* \"#utility.yul\":519:531   */\n      revert\n        /* \"#utility.yul\":470:533   */\n    tag_20:\n        /* \"#utility.yul\":417:539   */\n      pop\n      jump\t// out\n        /* \"#utility.yul\":545:688   */\n    tag_12:\n        /* \"#utility.yul\":602:607   */\n      0x00\n        /* \"#utility.yul\":633:639   */\n      dup2\n        /* \"#utility.yul\":627:640   */\n      mload\n        /* \"#utility.yul\":618:640   */\n      swap1\n      pop\n        /* \"#utility.yul\":649:682   */\n      tag_22\n        /* \"#utility.yul\":676:681   */\n      dup2\n        /* \"#utility.yul\":649:682   */\n      tag_11\n      jump\t// in\n    tag_22:\n        /* \"#utility.yul\":545:688   */\n      swap3\n      swap2\n      pop\n      pop\n      jump\t// out\n        /* \"#utility.yul\":694:1201   */\n    tag_3:\n        /* \"#utility.yul\":773:779   */\n      0x00\n        /* \"#utility.yul\":781:787   */\n      dup1\n        /* \"#utility.yul\":830:832   */\n      0x40\n        /* \"#utility.yul\":818:827   */\n      dup4\n        /* \"#utility.yul\":809:816   */\n      dup6\n        /* \"#utility.yul\":805:828   */\n      sub\n        /* \"#utility.yul\":801:833   */\n      slt\n        /* \"#utility.yul\":798:917   */\n      iszero\n      tag_24\n      jumpi\n        /* \"#utility.yul\":836:915   */\n      tag_25\n      tag_8\n      jump\t// in\n    tag_25:\n        /* \"#utility.yul\":798:917   */\n    tag_24:\n        /* \"#utility.yul\":956:957   */\n      0x00\n        /* \"#utility.yul\":981:1045   */\n      tag_26\n        /* \"#utility.yul\":1037:1044   */\n      dup6\n        /* \"#utility.yul\":1028:1034   */\n      dup3\n        /* \"#utility.yul\":1017:1026   */\n      dup7\n        /* \"#utility.yul\":1013:1035   */\n      add\n        /* \"#utility.yul\":981:1045   */\n      tag_12\n      jump\t// in\n    tag_26:\n        /* \"#utility.yul\":971:1045   */\n      swap3\n      pop\n        /* \"#utility.yul\":927:1055   */\n      pop\n        /* \"#utility.yul\":1094:1096   */\n      0x20\n        /* \"#utility.yul\":1120:1184   */\n      tag_27\n        /* \"#utility.yul\":1176:1183   */\n      dup6\n        /* \"#utility.yul\":1167:1173   */\n      dup3\n        /* \"#utility.yul\":1156:1165   */\n      dup7\n        /* \"#utility.yul\":1152:1174   */\n      add\n        /* \"#utility.yul\":1120:1184   */\n      tag_12\n      jump\t// in\n    tag_27:\n        /* \"#utility.yul\":1110:1184   */\n      swap2\n      pop\n        /* \"#utility.yul\":1065:1194   */\n      pop\n        /* \"#utility.yul\":694:1201   */\n      swap3\n      pop\n      swap3\n      swap1\n      pop\n      jump\t// out\n        /* \"Fall-2023/24_Composition.sol\":75:463  contract Page... */\n    tag_6:\n      dataSize(sub_0)\n      dup1\n      dataOffset(sub_0)\n      0x00\n      codecopy\n      0x00\n      return\n    stop\n\n    sub_0: assembly {\n            /* \"Fall-2023/24_Composition.sol\":75:463  contract Page... */\n          mstore(0x40, 0x80)\n          callvalue\n          dup1\n          iszero\n          tag_1\n          jumpi\n          0x00\n          dup1\n          revert\n        tag_1:\n          pop\n          jumpi(tag_2, lt(calldatasize, 0x04))\n          shr(0xe0, calldataload(0x00))\n          dup1\n          0x1c1bea94\n          eq\n          tag_3\n          jumpi\n          dup1\n          0x3fb5c1cb\n          eq\n          tag_4\n          jumpi\n          dup1\n          0xf2c9ecd8\n          eq\n          tag_5\n          jumpi\n        tag_2:\n          0x00\n          dup1\n          revert\n            /* \"Fall-2023/24_Composition.sol\":115:141  uint public text_size = 10 */\n        tag_3:\n          tag_6\n          tag_7\n          jump\t// in\n        tag_6:\n          mload(0x40)\n          tag_8\n          swap2\n          swap1\n          tag_9\n          jump\t// in\n        tag_8:\n          mload(0x40)\n          dup1\n          swap2\n          sub\n          swap1\n          return\n            /* \"Fall-2023/24_Composition.sol\":278:366  function setNumber(uint _number) public virtual... */\n        tag_4:\n          tag_10\n          0x04\n          dup1\n          calldatasize\n          sub\n          dup2\n          add\n          swap1\n          tag_11\n          swap2\n          swap1\n          tag_12\n          jump\t// in\n        tag_11:\n          tag_13\n          jump\t// in\n        tag_10:\n          stop\n            /* \"Fall-2023/24_Composition.sol\":374:458  function getNumber() public view returns(uint)... */\n        tag_5:\n          tag_14\n          tag_15\n          jump\t// in\n        tag_14:\n          mload(0x40)\n          tag_16\n          swap2\n          swap1\n          tag_9\n          jump\t// in\n        tag_16:\n          mload(0x40)\n          dup1\n          swap2\n          sub\n          swap1\n          return\n            /* \"Fall-2023/24_Composition.sol\":115:141  uint public text_size = 10 */\n        tag_7:\n          sload(0x01)\n          dup2\n          jump\t// out\n            /* \"Fall-2023/24_Composition.sol\":278:366  function setNumber(uint _number) public virtual... */\n        tag_13:\n            /* \"Fall-2023/24_Composition.sol\":351:358  _number */\n          dup1\n            /* \"Fall-2023/24_Composition.sol\":342:348  number */\n          0x00\n            /* \"Fall-2023/24_Composition.sol\":342:358  number = _number */\n          dup2\n          swap1\n          sstore\n          pop\n            /* \"Fall-2023/24_Composition.sol\":278:366  function setNumber(uint _number) public virtual... */\n          pop\n          jump\t// out\n            /* \"Fall-2023/24_Composition.sol\":374:458  function getNumber() public view returns(uint)... */\n        tag_15:\n            /* \"Fall-2023/24_Composition.sol\":415:419  uint */\n          0x00\n            /* \"Fall-2023/24_Composition.sol\":444:450  number */\n          dup1\n          sload\n            /* \"Fall-2023/24_Composition.sol\":437:450  return number */\n          swap1\n          pop\n            /* \"Fall-2023/24_Composition.sol\":374:458  function getNumber() public view returns(uint)... */\n          swap1\n          jump\t// out\n            /* \"#utility.yul\":7:84   */\n        tag_19:\n            /* \"#utility.yul\":44:51   */\n          0x00\n            /* \"#utility.yul\":73:78   */\n          dup2\n            /* \"#utility.yul\":62:78   */\n          swap1\n          pop\n            /* \"#utility.yul\":7:84   */\n          swap2\n          swap1\n          pop\n          jump\t// out\n            /* \"#utility.yul\":90:208   */\n        tag_20:\n            /* \"#utility.yul\":177:201   */\n          tag_29\n            /* \"#utility.yul\":195:200   */\n          dup2\n            /* \"#utility.yul\":177:201   */\n          tag_19\n          jump\t// in\n        tag_29:\n            /* \"#utility.yul\":172:175   */\n          dup3\n            /* \"#utility.yul\":165:202   */\n          mstore\n            /* \"#utility.yul\":90:208   */\n          pop\n          pop\n          jump\t// out\n            /* \"#utility.yul\":214:436   */\n        tag_9:\n            /* \"#utility.yul\":307:311   */\n          0x00\n            /* \"#utility.yul\":345:347   */\n          0x20\n            /* \"#utility.yul\":334:343   */\n          dup3\n            /* \"#utility.yul\":330:348   */\n          add\n            /* \"#utility.yul\":322:348   */\n          swap1\n          pop\n            /* \"#utility.yul\":358:429   */\n          tag_31\n            /* \"#utility.yul\":426:427   */\n          0x00\n            /* \"#utility.yul\":415:424   */\n          dup4\n            /* \"#utility.yul\":411:428   */\n          add\n            /* \"#utility.yul\":402:408   */\n          dup5\n            /* \"#utility.yul\":358:429   */\n          tag_20\n          jump\t// in\n        tag_31:\n            /* \"#utility.yul\":214:436   */\n          swap3\n          swap2\n          pop\n          pop\n          jump\t// out\n            /* \"#utility.yul\":523:640   */\n        tag_22:\n            /* \"#utility.yul\":632:633   */\n          0x00\n            /* \"#utility.yul\":629:630   */\n          dup1\n            /* \"#utility.yul\":622:634   */\n          revert\n            /* \"#utility.yul\":769:891   */\n        tag_24:\n            /* \"#utility.yul\":842:866   */\n          tag_36\n            /* \"#utility.yul\":860:865   */\n          dup2\n            /* \"#utility.yul\":842:866   */\n          tag_19\n          jump\t// in\n        tag_36:\n            /* \"#utility.yul\":835:840   */\n          dup2\n            /* \"#utility.yul\":832:867   */\n          eq\n            /* \"#utility.yul\":822:885   */\n          tag_37\n          jumpi\n            /* \"#utility.yul\":881:882   */\n          0x00\n            /* \"#utility.yul\":878:879   */\n          dup1\n            /* \"#utility.yul\":871:883   */\n          revert\n            /* \"#utility.yul\":822:885   */\n        tag_37:\n            /* \"#utility.yul\":769:891   */\n          pop\n          jump\t// out\n            /* \"#utility.yul\":897:1036   */\n        tag_25:\n            /* \"#utility.yul\":943:948   */\n          0x00\n            /* \"#utility.yul\":981:987   */\n          dup2\n            /* \"#utility.yul\":968:988   */\n          calldataload\n            /* \"#utility.yul\":959:988   */\n          swap1\n          pop\n            /* \"#utility.yul\":997:1030   */\n          tag_39\n            /* \"#utility.yul\":1024:1029   */\n          dup2\n            /* \"#utility.yul\":997:1030   */\n          tag_24\n          jump\t// in\n        tag_39:\n            /* \"#utility.yul\":897:1036   */\n          swap3\n          swap2\n          pop\n          pop\n          jump\t// out\n            /* \"#utility.yul\":1042:1371   */\n        tag_12:\n            /* \"#utility.yul\":1101:1107   */\n          0x00\n            /* \"#utility.yul\":1150:1152   */\n          0x20\n            /* \"#utility.yul\":1138:1147   */\n          dup3\n            /* \"#utility.yul\":1129:1136   */\n          dup5\n            /* \"#utility.yul\":1125:1148   */\n          sub\n            /* \"#utility.yul\":1121:1153   */\n          slt\n            /* \"#utility.yul\":1118:1237   */\n          iszero\n          tag_41\n          jumpi\n            /* \"#utility.yul\":1156:1235   */\n          tag_42\n          tag_22\n          jump\t// in\n        tag_42:\n            /* \"#utility.yul\":1118:1237   */\n        tag_41:\n            /* \"#utility.yul\":1276:1277   */\n          0x00\n            /* \"#utility.yul\":1301:1354   */\n          tag_43\n            /* \"#utility.yul\":1346:1353   */\n          dup5\n            /* \"#utility.yul\":1337:1343   */\n          dup3\n            /* \"#utility.yul\":1326:1335   */\n          dup6\n            /* \"#utility.yul\":1322:1344   */\n          add\n            /* \"#utility.yul\":1301:1354   */\n          tag_25\n          jump\t// in\n        tag_43:\n            /* \"#utility.yul\":1291:1354   */\n          swap2\n          pop\n            /* \"#utility.yul\":1247:1364   */\n          pop\n            /* \"#utility.yul\":1042:1371   */\n          swap3\n          swap2\n          pop\n          pop\n          jump\t// out\n\n        auxdata: 0xa264697066735822122033c5f1b4ee6b5da56aa1afdf95b2e58fa5376ba36d81620b44711c282f58aa5964736f6c63430008120033\n    }\n}\n",
				"bytecode": {
					"linkReferences": {},
					"object": "60806040526001600c6040516100149061011f565b61001f9291906101b6565b604051809103906000f08015801561003b573d6000803e3d6000fd5b506000806101000a81548173ffffffffffffffffffffffffffffffffffffffff021916908373ffffffffffffffffffffffffffffffffffffffff16021790555060008054906101000a900473ffffffffffffffffffffffffffffffffffffffff1673ffffffffffffffffffffffffffffffffffffffff1663f2c9ecd86040518163ffffffff1660e01b8152600401602060405180830381865afa1580156100e6573d6000803e3d6000fd5b505050506040513d601f19601f8201168201806040525081019061010a9190610210565b60015534801561011957600080fd5b5061023d565b6102558061050f83390190565b6000819050919050565b6000819050919050565b6000819050919050565b600061016561016061015b8461012c565b610140565b610136565b9050919050565b6101758161014a565b82525050565b6000819050919050565b60006101a061019b6101968461017b565b610140565b610136565b9050919050565b6101b081610185565b82525050565b60006040820190506101cb600083018561016c565b6101d860208301846101a7565b9392505050565b600080fd5b6101ed81610136565b81146101f857600080fd5b50565b60008151905061020a816101e4565b92915050565b600060208284031215610226576102256101df565b5b6000610234848285016101fb565b91505092915050565b6102c38061024c6000396000f3fe608060405234801561001057600080fd5b50600436106100415760003560e01c806308fa70c3146100465780630df813b91461006457806342ab4acb14610082575b600080fd5b61004e6100a0565b60405161005b919061017a565b60405180910390f35b61006c610137565b6040516100799190610214565b60405180910390f35b61008a61015b565b604051610097919061017a565b60405180910390f35b60008060009054906101000a900473ffffffffffffffffffffffffffffffffffffffff1673ffffffffffffffffffffffffffffffffffffffff16631c1bea946040518163ffffffff1660e01b8152600401602060405180830381865afa15801561010e573d6000803e3d6000fd5b505050506040513d601f19601f820116820180604052508101906101329190610260565b905090565b60008054906101000a900473ffffffffffffffffffffffffffffffffffffffff1681565b60015481565b6000819050919050565b61017481610161565b82525050565b600060208201905061018f600083018461016b565b92915050565b600073ffffffffffffffffffffffffffffffffffffffff82169050919050565b6000819050919050565b60006101da6101d56101d084610195565b6101b5565b610195565b9050919050565b60006101ec826101bf565b9050919050565b60006101fe826101e1565b9050919050565b61020e816101f3565b82525050565b60006020820190506102296000830184610205565b92915050565b600080fd5b61023d81610161565b811461024857600080fd5b50565b60008151905061025a81610234565b92915050565b6000602082840312156102765761027561022f565b5b60006102848482850161024b565b9150509291505056fea2646970667358221220e8a4a49e8c849864c861b421af28cbfc58840c0829e0df9a29c5df8fbd4034bd64736f6c634300081200336080604052600a60015534801561001557600080fd5b5060405161025538038061025583398181016040528101906100379190610087565b816000819055508060018190555050506100c7565b600080fd5b6000819050919050565b61006481610051565b811461006f57600080fd5b50565b6000815190506100818161005b565b92915050565b6000806040838503121561009e5761009d61004c565b5b60006100ac85828601610072565b92505060206100bd85828601610072565b9150509250929050565b61017f806100d66000396000f3fe608060405234801561001057600080fd5b50600436106100415760003560e01c80631c1bea94146100465780633fb5c1cb14610064578063f2c9ecd814610080575b600080fd5b61004e61009e565b60405161005b91906100d0565b60405180910390f35b61007e6004803603810190610079919061011c565b6100a4565b005b6100886100ae565b60405161009591906100d0565b60405180910390f35b60015481565b8060008190555050565b60008054905090565b6000819050919050565b6100ca816100b7565b82525050565b60006020820190506100e560008301846100c1565b92915050565b600080fd5b6100f9816100b7565b811461010457600080fd5b50565b600081359050610116816100f0565b92915050565b600060208284031215610132576101316100eb565b5b600061014084828501610107565b9150509291505056fea264697066735822122033c5f1b4ee6b5da56aa1afdf95b2e58fa5376ba36d81620b44711c282f58aa5964736f6c63430008120033",
					"opcodes": "PUSH1 0x80 PUSH1 0x40 MSTORE PUSH1 0x1 PUSH1 0xC PUSH1 0x40 MLOAD PUSH2 0x14 SWAP1 PUSH2 0x11F JUMP JUMPDEST PUSH2 0x1F SWAP3 SWAP2 SWAP1 PUSH2 0x1B6 JUMP JUMPDEST PUSH1 0x40 MLOAD DUP1 SWAP2 SUB SWAP1 PUSH1 0x0 CREATE DUP1 ISZERO DUP1 ISZERO PUSH2 0x3B JUMPI RETURNDATASIZE PUSH1 0x0 DUP1 RETURNDATACOPY RETURNDATASIZE PUSH1 0x0 REVERT JUMPDEST POP PUSH1 0x0 DUP1 PUSH2 0x100 EXP DUP2 SLOAD DUP2 PUSH20 0xFFFFFFFFFFFFFFFFFFFFFFFFFFFFFFFFFFFFFFFF MUL NOT AND SWAP1 DUP4 PUSH20 0xFFFFFFFFFFFFFFFFFFFFFFFFFFFFFFFFFFFFFFFF AND MUL OR SWAP1 SSTORE POP PUSH1 0x0 DUP1 SLOAD SWAP1 PUSH2 0x100 EXP SWAP1 DIV PUSH20 0xFFFFFFFFFFFFFFFFFFFFFFFFFFFFFFFFFFFFFFFF AND PUSH20 0xFFFFFFFFFFFFFFFFFFFFFFFFFFFFFFFFFFFFFFFF AND PUSH4 0xF2C9ECD8 PUSH1 0x40 MLOAD DUP2 PUSH4 0xFFFFFFFF AND PUSH1 0xE0 SHL DUP2 MSTORE PUSH1 0x4 ADD PUSH1 0x20 PUSH1 0x40 MLOAD DUP1 DUP4 SUB DUP2 DUP7 GAS STATICCALL ISZERO DUP1 ISZERO PUSH2 0xE6 JUMPI RETURNDATASIZE PUSH1 0x0 DUP1 RETURNDATACOPY RETURNDATASIZE PUSH1 0x0 REVERT JUMPDEST POP POP POP POP PUSH1 0x40 MLOAD RETURNDATASIZE PUSH1 0x1F NOT PUSH1 0x1F DUP3 ADD AND DUP3 ADD DUP1 PUSH1 0x40 MSTORE POP DUP2 ADD SWAP1 PUSH2 0x10A SWAP2 SWAP1 PUSH2 0x210 JUMP JUMPDEST PUSH1 0x1 SSTORE CALLVALUE DUP1 ISZERO PUSH2 0x119 JUMPI PUSH1 0x0 DUP1 REVERT JUMPDEST POP PUSH2 0x23D JUMP JUMPDEST PUSH2 0x255 DUP1 PUSH2 0x50F DUP4 CODECOPY ADD SWAP1 JUMP JUMPDEST PUSH1 0x0 DUP2 SWAP1 POP SWAP2 SWAP1 POP JUMP JUMPDEST PUSH1 0x0 DUP2 SWAP1 POP SWAP2 SWAP1 POP JUMP JUMPDEST PUSH1 0x0 DUP2 SWAP1 POP SWAP2 SWAP1 POP JUMP JUMPDEST PUSH1 0x0 PUSH2 0x165 PUSH2 0x160 PUSH2 0x15B DUP5 PUSH2 0x12C JUMP JUMPDEST PUSH2 0x140 JUMP JUMPDEST PUSH2 0x136 JUMP JUMPDEST SWAP1 POP SWAP2 SWAP1 POP JUMP JUMPDEST PUSH2 0x175 DUP2 PUSH2 0x14A JUMP JUMPDEST DUP3 MSTORE POP POP JUMP JUMPDEST PUSH1 0x0 DUP2 SWAP1 POP SWAP2 SWAP1 POP JUMP JUMPDEST PUSH1 0x0 PUSH2 0x1A0 PUSH2 0x19B PUSH2 0x196 DUP5 PUSH2 0x17B JUMP JUMPDEST PUSH2 0x140 JUMP JUMPDEST PUSH2 0x136 JUMP JUMPDEST SWAP1 POP SWAP2 SWAP1 POP JUMP JUMPDEST PUSH2 0x1B0 DUP2 PUSH2 0x185 JUMP JUMPDEST DUP3 MSTORE POP POP JUMP JUMPDEST PUSH1 0x0 PUSH1 0x40 DUP3 ADD SWAP1 POP PUSH2 0x1CB PUSH1 0x0 DUP4 ADD DUP6 PUSH2 0x16C JUMP JUMPDEST PUSH2 0x1D8 PUSH1 0x20 DUP4 ADD DUP5 PUSH2 0x1A7 JUMP JUMPDEST SWAP4 SWAP3 POP POP POP JUMP JUMPDEST PUSH1 0x0 DUP1 REVERT JUMPDEST PUSH2 0x1ED DUP2 PUSH2 0x136 JUMP JUMPDEST DUP2 EQ PUSH2 0x1F8 JUMPI PUSH1 0x0 DUP1 REVERT JUMPDEST POP JUMP JUMPDEST PUSH1 0x0 DUP2 MLOAD SWAP1 POP PUSH2 0x20A DUP2 PUSH2 0x1E4 JUMP JUMPDEST SWAP3 SWAP2 POP POP JUMP JUMPDEST PUSH1 0x0 PUSH1 0x20 DUP3 DUP5 SUB SLT ISZERO PUSH2 0x226 JUMPI PUSH2 0x225 PUSH2 0x1DF JUMP JUMPDEST JUMPDEST PUSH1 0x0 PUSH2 0x234 DUP5 DUP3 DUP6 ADD PUSH2 0x1FB JUMP JUMPDEST SWAP2 POP POP SWAP3 SWAP2 POP POP JUMP JUMPDEST PUSH2 0x2C3 DUP1 PUSH2 0x24C PUSH1 0x0 CODECOPY PUSH1 0x0 RETURN INVALID PUSH1 0x80 PUSH1 0x40 MSTORE CALLVALUE DUP1 ISZERO PUSH2 0x10 JUMPI PUSH1 0x0 DUP1 REVERT JUMPDEST POP PUSH1 0x4 CALLDATASIZE LT PUSH2 0x41 JUMPI PUSH1 0x0 CALLDATALOAD PUSH1 0xE0 SHR DUP1 PUSH4 0x8FA70C3 EQ PUSH2 0x46 JUMPI DUP1 PUSH4 0xDF813B9 EQ PUSH2 0x64 JUMPI DUP1 PUSH4 0x42AB4ACB EQ PUSH2 0x82 JUMPI JUMPDEST PUSH1 0x0 DUP1 REVERT JUMPDEST PUSH2 0x4E PUSH2 0xA0 JUMP JUMPDEST PUSH1 0x40 MLOAD PUSH2 0x5B SWAP2 SWAP1 PUSH2 0x17A JUMP JUMPDEST PUSH1 0x40 MLOAD DUP1 SWAP2 SUB SWAP1 RETURN JUMPDEST PUSH2 0x6C PUSH2 0x137 JUMP JUMPDEST PUSH1 0x40 MLOAD PUSH2 0x79 SWAP2 SWAP1 PUSH2 0x214 JUMP JUMPDEST PUSH1 0x40 MLOAD DUP1 SWAP2 SUB SWAP1 RETURN JUMPDEST PUSH2 0x8A PUSH2 0x15B JUMP JUMPDEST PUSH1 0x40 MLOAD PUSH2 0x97 SWAP2 SWAP1 PUSH2 0x17A JUMP JUMPDEST PUSH1 0x40 MLOAD DUP1 SWAP2 SUB SWAP1 RETURN JUMPDEST PUSH1 0x0 DUP1 PUSH1 0x0 SWAP1 SLOAD SWAP1 PUSH2 0x100 EXP SWAP1 DIV PUSH20 0xFFFFFFFFFFFFFFFFFFFFFFFFFFFFFFFFFFFFFFFF AND PUSH20 0xFFFFFFFFFFFFFFFFFFFFFFFFFFFFFFFFFFFFFFFF AND PUSH4 0x1C1BEA94 PUSH1 0x40 MLOAD DUP2 PUSH4 0xFFFFFFFF AND PUSH1 0xE0 SHL DUP2 MSTORE PUSH1 0x4 ADD PUSH1 0x20 PUSH1 0x40 MLOAD DUP1 DUP4 SUB DUP2 DUP7 GAS STATICCALL ISZERO DUP1 ISZERO PUSH2 0x10E JUMPI RETURNDATASIZE PUSH1 0x0 DUP1 RETURNDATACOPY RETURNDATASIZE PUSH1 0x0 REVERT JUMPDEST POP POP POP POP PUSH1 0x40 MLOAD RETURNDATASIZE PUSH1 0x1F NOT PUSH1 0x1F DUP3 ADD AND DUP3 ADD DUP1 PUSH1 0x40 MSTORE POP DUP2 ADD SWAP1 PUSH2 0x132 SWAP2 SWAP1 PUSH2 0x260 JUMP JUMPDEST SWAP1 POP SWAP1 JUMP JUMPDEST PUSH1 0x0 DUP1 SLOAD SWAP1 PUSH2 0x100 EXP SWAP1 DIV PUSH20 0xFFFFFFFFFFFFFFFFFFFFFFFFFFFFFFFFFFFFFFFF AND DUP2 JUMP JUMPDEST PUSH1 0x1 SLOAD DUP2 JUMP JUMPDEST PUSH1 0x0 DUP2 SWAP1 POP SWAP2 SWAP1 POP JUMP JUMPDEST PUSH2 0x174 DUP2 PUSH2 0x161 JUMP JUMPDEST DUP3 MSTORE POP POP JUMP JUMPDEST PUSH1 0x0 PUSH1 0x20 DUP3 ADD SWAP1 POP PUSH2 0x18F PUSH1 0x0 DUP4 ADD DUP5 PUSH2 0x16B JUMP JUMPDEST SWAP3 SWAP2 POP POP JUMP JUMPDEST PUSH1 0x0 PUSH20 0xFFFFFFFFFFFFFFFFFFFFFFFFFFFFFFFFFFFFFFFF DUP3 AND SWAP1 POP SWAP2 SWAP1 POP JUMP JUMPDEST PUSH1 0x0 DUP2 SWAP1 POP SWAP2 SWAP1 POP JUMP JUMPDEST PUSH1 0x0 PUSH2 0x1DA PUSH2 0x1D5 PUSH2 0x1D0 DUP5 PUSH2 0x195 JUMP JUMPDEST PUSH2 0x1B5 JUMP JUMPDEST PUSH2 0x195 JUMP JUMPDEST SWAP1 POP SWAP2 SWAP1 POP JUMP JUMPDEST PUSH1 0x0 PUSH2 0x1EC DUP3 PUSH2 0x1BF JUMP JUMPDEST SWAP1 POP SWAP2 SWAP1 POP JUMP JUMPDEST PUSH1 0x0 PUSH2 0x1FE DUP3 PUSH2 0x1E1 JUMP JUMPDEST SWAP1 POP SWAP2 SWAP1 POP JUMP JUMPDEST PUSH2 0x20E DUP2 PUSH2 0x1F3 JUMP JUMPDEST DUP3 MSTORE POP POP JUMP JUMPDEST PUSH1 0x0 PUSH1 0x20 DUP3 ADD SWAP1 POP PUSH2 0x229 PUSH1 0x0 DUP4 ADD DUP5 PUSH2 0x205 JUMP JUMPDEST SWAP3 SWAP2 POP POP JUMP JUMPDEST PUSH1 0x0 DUP1 REVERT JUMPDEST PUSH2 0x23D DUP2 PUSH2 0x161 JUMP JUMPDEST DUP2 EQ PUSH2 0x248 JUMPI PUSH1 0x0 DUP1 REVERT JUMPDEST POP JUMP JUMPDEST PUSH1 0x0 DUP2 MLOAD SWAP1 POP PUSH2 0x25A DUP2 PUSH2 0x234 JUMP JUMPDEST SWAP3 SWAP2 POP POP JUMP JUMPDEST PUSH1 0x0 PUSH1 0x20 DUP3 DUP5 SUB SLT ISZERO PUSH2 0x276 JUMPI PUSH2 0x275 PUSH2 0x22F JUMP JUMPDEST JUMPDEST PUSH1 0x0 PUSH2 0x284 DUP5 DUP3 DUP6 ADD PUSH2 0x24B JUMP JUMPDEST SWAP2 POP POP SWAP3 SWAP2 POP POP JUMP INVALID LOG2 PUSH5 0x6970667358 0x22 SLT KECCAK256 0xE8 LOG4 LOG4 SWAP15 DUP13 DUP5 SWAP9 PUSH5 0xC861B421AF 0x28 0xCB 0xFC PC DUP5 0xC ADDMOD 0x29 0xE0 0xDF SWAP11 0x29 0xC5 0xDF DUP16 0xBD BLOCKHASH CALLVALUE 0xBD PUSH5 0x736F6C6343 STOP ADDMOD SLT STOP CALLER PUSH1 0x80 PUSH1 0x40 MSTORE PUSH1 0xA PUSH1 0x1 SSTORE CALLVALUE DUP1 ISZERO PUSH2 0x15 JUMPI PUSH1 0x0 DUP1 REVERT JUMPDEST POP PUSH1 0x40 MLOAD PUSH2 0x255 CODESIZE SUB DUP1 PUSH2 0x255 DUP4 CODECOPY DUP2 DUP2 ADD PUSH1 0x40 MSTORE DUP2 ADD SWAP1 PUSH2 0x37 SWAP2 SWAP1 PUSH2 0x87 JUMP JUMPDEST DUP2 PUSH1 0x0 DUP2 SWAP1 SSTORE POP DUP1 PUSH1 0x1 DUP2 SWAP1 SSTORE POP POP POP PUSH2 0xC7 JUMP JUMPDEST PUSH1 0x0 DUP1 REVERT JUMPDEST PUSH1 0x0 DUP2 SWAP1 POP SWAP2 SWAP1 POP JUMP JUMPDEST PUSH2 0x64 DUP2 PUSH2 0x51 JUMP JUMPDEST DUP2 EQ PUSH2 0x6F JUMPI PUSH1 0x0 DUP1 REVERT JUMPDEST POP JUMP JUMPDEST PUSH1 0x0 DUP2 MLOAD SWAP1 POP PUSH2 0x81 DUP2 PUSH2 0x5B JUMP JUMPDEST SWAP3 SWAP2 POP POP JUMP JUMPDEST PUSH1 0x0 DUP1 PUSH1 0x40 DUP4 DUP6 SUB SLT ISZERO PUSH2 0x9E JUMPI PUSH2 0x9D PUSH2 0x4C JUMP JUMPDEST JUMPDEST PUSH1 0x0 PUSH2 0xAC DUP6 DUP3 DUP7 ADD PUSH2 0x72 JUMP JUMPDEST SWAP3 POP POP PUSH1 0x20 PUSH2 0xBD DUP6 DUP3 DUP7 ADD PUSH2 0x72 JUMP JUMPDEST SWAP2 POP POP SWAP3 POP SWAP3 SWAP1 POP JUMP JUMPDEST PUSH2 0x17F DUP1 PUSH2 0xD6 PUSH1 0x0 CODECOPY PUSH1 0x0 RETURN INVALID PUSH1 0x80 PUSH1 0x40 MSTORE CALLVALUE DUP1 ISZERO PUSH2 0x10 JUMPI PUSH1 0x0 DUP1 REVERT JUMPDEST POP PUSH1 0x4 CALLDATASIZE LT PUSH2 0x41 JUMPI PUSH1 0x0 CALLDATALOAD PUSH1 0xE0 SHR DUP1 PUSH4 0x1C1BEA94 EQ PUSH2 0x46 JUMPI DUP1 PUSH4 0x3FB5C1CB EQ PUSH2 0x64 JUMPI DUP1 PUSH4 0xF2C9ECD8 EQ PUSH2 0x80 JUMPI JUMPDEST PUSH1 0x0 DUP1 REVERT JUMPDEST PUSH2 0x4E PUSH2 0x9E JUMP JUMPDEST PUSH1 0x40 MLOAD PUSH2 0x5B SWAP2 SWAP1 PUSH2 0xD0 JUMP JUMPDEST PUSH1 0x40 MLOAD DUP1 SWAP2 SUB SWAP1 RETURN JUMPDEST PUSH2 0x7E PUSH1 0x4 DUP1 CALLDATASIZE SUB DUP2 ADD SWAP1 PUSH2 0x79 SWAP2 SWAP1 PUSH2 0x11C JUMP JUMPDEST PUSH2 0xA4 JUMP JUMPDEST STOP JUMPDEST PUSH2 0x88 PUSH2 0xAE JUMP JUMPDEST PUSH1 0x40 MLOAD PUSH2 0x95 SWAP2 SWAP1 PUSH2 0xD0 JUMP JUMPDEST PUSH1 0x40 MLOAD DUP1 SWAP2 SUB SWAP1 RETURN JUMPDEST PUSH1 0x1 SLOAD DUP2 JUMP JUMPDEST DUP1 PUSH1 0x0 DUP2 SWAP1 SSTORE POP POP JUMP JUMPDEST PUSH1 0x0 DUP1 SLOAD SWAP1 POP SWAP1 JUMP JUMPDEST PUSH1 0x0 DUP2 SWAP1 POP SWAP2 SWAP1 POP JUMP JUMPDEST PUSH2 0xCA DUP2 PUSH2 0xB7 JUMP JUMPDEST DUP3 MSTORE POP POP JUMP JUMPDEST PUSH1 0x0 PUSH1 0x20 DUP3 ADD SWAP1 POP PUSH2 0xE5 PUSH1 0x0 DUP4 ADD DUP5 PUSH2 0xC1 JUMP JUMPDEST SWAP3 SWAP2 POP POP JUMP JUMPDEST PUSH1 0x0 DUP1 REVERT JUMPDEST PUSH2 0xF9 DUP2 PUSH2 0xB7 JUMP JUMPDEST DUP2 EQ PUSH2 0x104 JUMPI PUSH1 0x0 DUP1 REVERT JUMPDEST POP JUMP JUMPDEST PUSH1 0x0 DUP2 CALLDATALOAD SWAP1 POP PUSH2 0x116 DUP2 PUSH2 0xF0 JUMP JUMPDEST SWAP3 SWAP2 POP POP JUMP JUMPDEST PUSH1 0x0 PUSH1 0x20 DUP3 DUP5 SUB SLT ISZERO PUSH2 0x132 JUMPI PUSH2 0x131 PUSH2 0xEB JUMP JUMPDEST JUMPDEST PUSH1 0x0 PUSH2 0x140 DUP5 DUP3 DUP6 ADD PUSH2 0x107 JUMP JUMPDEST SWAP2 POP POP SWAP3 SWAP2 POP POP JUMP INVALID LOG2 PUSH5 0x6970667358 0x22 SLT KECCAK256 CALLER 0xC5 CALL 0xB4 0xEE PUSH12 0x5DA56AA1AFDF95B2E58FA537 PUSH12 0xA36D81620B44711C282F58AA MSIZE PUSH5 0x736F6C6343 STOP ADDMOD SLT STOP CALLER "
				},
				"gasEstimates": {
					"creation": {
						"codeDepositCost": "141400",
						"executionCost": "infinite",
						"totalCost": "infinite"
					},
					"external": {
						"getPageTextSize()": "infinite",
						"page()": "infinite",
						"page_number()": "2451"
					}
				},
				"methodIdentifiers": {
					"getPageTextSize()": "08fa70c3",
					"page()": "0df813b9",
					"page_number()": "42ab4acb"
				}
			},
			"storageLayout": {
				"storage": [
					{
						"astId": 50,
						"contract": "Fall-2023/24_Composition.sol:Book",
						"label": "page",
						"offset": 0,
						"slot": "0",
						"type": "t_contract(Page)41"
					},
					{
						"astId": 55,
						"contract": "Fall-2023/24_Composition.sol:Book",
						"label": "page_number",
						"offset": 0,
						"slot": "1",
						"type": "t_uint256"
					}
				],
				"types": {
					"t_contract(Page)41": {
						"encoding": "inplace",
						"label": "contract Page",
						"numberOfBytes": "20"
					},
					"t_uint256": {
						"encoding": "inplace",
						"label": "uint256",
						"numberOfBytes": "32"
					}
				}
			},
			"userdoc": {
				"kind": "user",
				"methods": {},
				"version": 1
			}
		}
	}
}