{
	"Fall-2023/28_Visibility.sol": {
		"Outside": {
			"abi": [
				{
					"inputs": [],
					"name": "f1",
					"outputs": [
						{
							"internalType": "uint256",
							"name": "",
							"type": "uint256"
						}
					],
					"stateMutability": "view",
					"type": "function"
				},
				{
					"inputs": [],
					"name": "f2",
					"outputs": [
						{
							"internalType": "uint256",
							"name": "",
							"type": "uint256"
						}
					],
					"stateMutability": "view",
					"type": "function"
				}
			],
			"devdoc": {
				"kind": "dev",
				"methods": {},
				"version": 1
			},
			"evm": {
				"assembly": "    /* \"Fall-2023/28_Visibility.sol\":733:1021  contract Outside... */\n  mstore(0x40, 0x80)\n    /* \"Fall-2023/28_Visibility.sol\":770:780  new Base() */\n  mload(0x40)\n  tag_1\n  swap1\n  tag_2\n  jump\t// in\ntag_1:\n  mload(0x40)\n  dup1\n  swap2\n  sub\n  swap1\n  0x00\n  create\n  dup1\n  iszero\n  dup1\n  iszero\n  tag_3\n  jumpi\n  returndatasize\n  0x00\n  dup1\n  returndatacopy\n  revert(0x00, returndatasize)\ntag_3:\n  pop\n    /* \"Fall-2023/28_Visibility.sol\":758:780  Base base = new Base() */\n  0x00\n  dup1\n  0x0100\n  exp\n  dup2\n  sload\n  dup2\n  0xffffffffffffffffffffffffffffffffffffffff\n  mul\n  not\n  and\n  swap1\n  dup4\n  0xffffffffffffffffffffffffffffffffffffffff\n  and\n  mul\n  or\n  swap1\n  sstore\n  pop\n    /* \"Fall-2023/28_Visibility.sol\":804:808  base */\n  0x00\n  dup1\n  sload\n  swap1\n  0x0100\n  exp\n  swap1\n  div\n  0xffffffffffffffffffffffffffffffffffffffff\n  and\n    /* \"Fall-2023/28_Visibility.sol\":804:811  base.f1 */\n  0xffffffffffffffffffffffffffffffffffffffff\n  and\n  0xc27fc305\n    /* \"Fall-2023/28_Visibility.sol\":804:813  base.f1() */\n  mload(0x40)\n  dup2\n  0xffffffff\n  and\n  0xe0\n  shl\n  dup2\n  mstore\n  0x04\n  add\n  0x20\n  mload(0x40)\n  dup1\n  dup4\n  sub\n  dup2\n  dup7\n  gas\n  staticcall\n  iszero\n  dup1\n  iszero\n  tag_5\n  jumpi\n  returndatasize\n  0x00\n  dup1\n  returndatacopy\n  revert(0x00, returndatasize)\ntag_5:\n  pop\n  pop\n  pop\n  pop\n  mload(0x40)\n  returndatasize\n  not(0x1f)\n  0x1f\n  dup3\n  add\n  and\n  dup3\n  add\n  dup1\n  0x40\n  mstore\n  pop\n  dup2\n  add\n  swap1\n  tag_6\n  swap2\n  swap1\n  tag_7\n  jump\t// in\ntag_6:\n    /* \"Fall-2023/28_Visibility.sol\":787:813  uint public f1 = base.f1() */\n  0x01\n  sstore\n    /* \"Fall-2023/28_Visibility.sol\":860:864  base */\n  0x00\n  dup1\n  sload\n  swap1\n  0x0100\n  exp\n  swap1\n  div\n  0xffffffffffffffffffffffffffffffffffffffff\n  and\n    /* \"Fall-2023/28_Visibility.sol\":860:867  base.f2 */\n  0xffffffffffffffffffffffffffffffffffffffff\n  and\n  0x9942ec6f\n    /* \"Fall-2023/28_Visibility.sol\":860:869  base.f2() */\n  mload(0x40)\n  dup2\n  0xffffffff\n  and\n  0xe0\n  shl\n  dup2\n  mstore\n  0x04\n  add\n  0x20\n  mload(0x40)\n  dup1\n  dup4\n  sub\n  dup2\n  dup7\n  gas\n  staticcall\n  iszero\n  dup1\n  iszero\n  tag_9\n  jumpi\n  returndatasize\n  0x00\n  dup1\n  returndatacopy\n  revert(0x00, returndatasize)\ntag_9:\n  pop\n  pop\n  pop\n  pop\n  mload(0x40)\n  returndatasize\n  not(0x1f)\n  0x1f\n  dup3\n  add\n  and\n  dup3\n  add\n  dup1\n  0x40\n  mstore\n  pop\n  dup2\n  add\n  swap1\n  tag_10\n  swap2\n  swap1\n  tag_7\n  jump\t// in\ntag_10:\n    /* \"Fall-2023/28_Visibility.sol\":843:869  uint public f2 = base.f2() */\n  0x02\n  sstore\n    /* \"Fall-2023/28_Visibility.sol\":733:1021  contract Outside... */\n  callvalue\n  dup1\n  iszero\n  tag_11\n  jumpi\n  0x00\n  dup1\n  revert\ntag_11:\n  pop\n  jump(tag_12)\ntag_2:\n  dataSize(sub_1)\n  dup1\n  dataOffset(sub_1)\n  dup4\n  codecopy\n  add\n  swap1\n  jump\t// out\n    /* \"#utility.yul\":88:205   */\ntag_14:\n    /* \"#utility.yul\":197:198   */\n  0x00\n    /* \"#utility.yul\":194:195   */\n  dup1\n    /* \"#utility.yul\":187:199   */\n  revert\n    /* \"#utility.yul\":334:411   */\ntag_16:\n    /* \"#utility.yul\":371:378   */\n  0x00\n    /* \"#utility.yul\":400:405   */\n  dup2\n    /* \"#utility.yul\":389:405   */\n  swap1\n  pop\n    /* \"#utility.yul\":334:411   */\n  swap2\n  swap1\n  pop\n  jump\t// out\n    /* \"#utility.yul\":417:539   */\ntag_17:\n    /* \"#utility.yul\":490:514   */\n  tag_25\n    /* \"#utility.yul\":508:513   */\n  dup2\n    /* \"#utility.yul\":490:514   */\n  tag_16\n  jump\t// in\ntag_25:\n    /* \"#utility.yul\":483:488   */\n  dup2\n    /* \"#utility.yul\":480:515   */\n  eq\n    /* \"#utility.yul\":470:533   */\n  tag_26\n  jumpi\n    /* \"#utility.yul\":529:530   */\n  0x00\n    /* \"#utility.yul\":526:527   */\n  dup1\n    /* \"#utility.yul\":519:531   */\n  revert\n    /* \"#utility.yul\":470:533   */\ntag_26:\n    /* \"#utility.yul\":417:539   */\n  pop\n  jump\t// out\n    /* \"#utility.yul\":545:688   */\ntag_18:\n    /* \"#utility.yul\":602:607   */\n  0x00\n    /* \"#utility.yul\":633:639   */\n  dup2\n    /* \"#utility.yul\":627:640   */\n  mload\n    /* \"#utility.yul\":618:640   */\n  swap1\n  pop\n    /* \"#utility.yul\":649:682   */\n  tag_28\n    /* \"#utility.yul\":676:681   */\n  dup2\n    /* \"#utility.yul\":649:682   */\n  tag_17\n  jump\t// in\ntag_28:\n    /* \"#utility.yul\":545:688   */\n  swap3\n  swap2\n  pop\n  pop\n  jump\t// out\n    /* \"#utility.yul\":694:1045   */\ntag_7:\n    /* \"#utility.yul\":764:770   */\n  0x00\n    /* \"#utility.yul\":813:815   */\n  0x20\n    /* \"#utility.yul\":801:810   */\n  dup3\n    /* \"#utility.yul\":792:799   */\n  dup5\n    /* \"#utility.yul\":788:811   */\n  sub\n    /* \"#utility.yul\":784:816   */\n  slt\n    /* \"#utility.yul\":781:900   */\n  iszero\n  tag_30\n  jumpi\n    /* \"#utility.yul\":819:898   */\n  tag_31\n  tag_14\n  jump\t// in\ntag_31:\n    /* \"#utility.yul\":781:900   */\ntag_30:\n    /* \"#utility.yul\":939:940   */\n  0x00\n    /* \"#utility.yul\":964:1028   */\n  tag_32\n    /* \"#utility.yul\":1020:1027   */\n  dup5\n    /* \"#utility.yul\":1011:1017   */\n  dup3\n    /* \"#utility.yul\":1000:1009   */\n  dup6\n    /* \"#utility.yul\":996:1018   */\n  add\n    /* \"#utility.yul\":964:1028   */\n  tag_18\n  jump\t// in\ntag_32:\n    /* \"#utility.yul\":954:1028   */\n  swap2\n  pop\n    /* \"#utility.yul\":910:1038   */\n  pop\n    /* \"#utility.yul\":694:1045   */\n  swap3\n  swap2\n  pop\n  pop\n  jump\t// out\n    /* \"Fall-2023/28_Visibility.sol\":733:1021  contract Outside... */\ntag_12:\n  dataSize(sub_0)\n  dup1\n  dataOffset(sub_0)\n  0x00\n  codecopy\n  0x00\n  return\nstop\n\nsub_0: assembly {\n        /* \"Fall-2023/28_Visibility.sol\":733:1021  contract Outside... */\n      mstore(0x40, 0x80)\n      callvalue\n      dup1\n      iszero\n      tag_1\n      jumpi\n      0x00\n      dup1\n      revert\n    tag_1:\n      pop\n      jumpi(tag_2, lt(calldatasize, 0x04))\n      shr(0xe0, calldataload(0x00))\n      dup1\n      0x9942ec6f\n      eq\n      tag_3\n      jumpi\n      dup1\n      0xc27fc305\n      eq\n      tag_4\n      jumpi\n    tag_2:\n      0x00\n      dup1\n      revert\n        /* \"Fall-2023/28_Visibility.sol\":843:869  uint public f2 = base.f2() */\n    tag_3:\n      tag_5\n      tag_6\n      jump\t// in\n    tag_5:\n      mload(0x40)\n      tag_7\n      swap2\n      swap1\n      tag_8\n      jump\t// in\n    tag_7:\n      mload(0x40)\n      dup1\n      swap2\n      sub\n      swap1\n      return\n        /* \"Fall-2023/28_Visibility.sol\":787:813  uint public f1 = base.f1() */\n    tag_4:\n      tag_9\n      tag_10\n      jump\t// in\n    tag_9:\n      mload(0x40)\n      tag_11\n      swap2\n      swap1\n      tag_8\n      jump\t// in\n    tag_11:\n      mload(0x40)\n      dup1\n      swap2\n      sub\n      swap1\n      return\n        /* \"Fall-2023/28_Visibility.sol\":843:869  uint public f2 = base.f2() */\n    tag_6:\n      sload(0x02)\n      dup2\n      jump\t// out\n        /* \"Fall-2023/28_Visibility.sol\":787:813  uint public f1 = base.f1() */\n    tag_10:\n      sload(0x01)\n      dup2\n      jump\t// out\n        /* \"#utility.yul\":7:84   */\n    tag_12:\n        /* \"#utility.yul\":44:51   */\n      0x00\n        /* \"#utility.yul\":73:78   */\n      dup2\n        /* \"#utility.yul\":62:78   */\n      swap1\n      pop\n        /* \"#utility.yul\":7:84   */\n      swap2\n      swap1\n      pop\n      jump\t// out\n        /* \"#utility.yul\":90:208   */\n    tag_13:\n        /* \"#utility.yul\":177:201   */\n      tag_17\n        /* \"#utility.yul\":195:200   */\n      dup2\n        /* \"#utility.yul\":177:201   */\n      tag_12\n      jump\t// in\n    tag_17:\n        /* \"#utility.yul\":172:175   */\n      dup3\n        /* \"#utility.yul\":165:202   */\n      mstore\n        /* \"#utility.yul\":90:208   */\n      pop\n      pop\n      jump\t// out\n        /* \"#utility.yul\":214:436   */\n    tag_8:\n        /* \"#utility.yul\":307:311   */\n      0x00\n        /* \"#utility.yul\":345:347   */\n      0x20\n        /* \"#utility.yul\":334:343   */\n      dup3\n        /* \"#utility.yul\":330:348   */\n      add\n        /* \"#utility.yul\":322:348   */\n      swap1\n      pop\n        /* \"#utility.yul\":358:429   */\n      tag_19\n        /* \"#utility.yul\":426:427   */\n      0x00\n        /* \"#utility.yul\":415:424   */\n      dup4\n        /* \"#utility.yul\":411:428   */\n      add\n        /* \"#utility.yul\":402:408   */\n      dup5\n        /* \"#utility.yul\":358:429   */\n      tag_13\n      jump\t// in\n    tag_19:\n        /* \"#utility.yul\":214:436   */\n      swap3\n      swap2\n      pop\n      pop\n      jump\t// out\n\n    auxdata: 0xa26469706673582212201578bf402348da74e624f9a6b2cd2351b220547174b19857beae9395f5cda49664736f6c63430008120033\n}\n\nsub_1: assembly {\n        /* \"Fall-2023/28_Visibility.sol\":73:410  contract Base ... */\n      mstore(0x40, 0x80)\n      callvalue\n      dup1\n      iszero\n      tag_1\n      jumpi\n      0x00\n      dup1\n      revert\n    tag_1:\n      pop\n      dataSize(sub_0)\n      dup1\n      dataOffset(sub_0)\n      0x00\n      codecopy\n      0x00\n      return\n    stop\n\n    sub_0: assembly {\n            /* \"Fall-2023/28_Visibility.sol\":73:410  contract Base ... */\n          mstore(0x40, 0x80)\n          callvalue\n          dup1\n          iszero\n          tag_1\n          jumpi\n          0x00\n          dup1\n          revert\n        tag_1:\n          pop\n          jumpi(tag_2, lt(calldatasize, 0x04))\n          shr(0xe0, calldataload(0x00))\n          dup1\n          0x9942ec6f\n          eq\n          tag_3\n          jumpi\n          dup1\n          0xc27fc305\n          eq\n          tag_4\n          jumpi\n        tag_2:\n          0x00\n          dup1\n          revert\n            /* \"Fall-2023/28_Visibility.sol\":174:248  function f2() external pure returns(uint)... */\n        tag_3:\n          tag_5\n          tag_6\n          jump\t// in\n        tag_5:\n          mload(0x40)\n          tag_7\n          swap2\n          swap1\n          tag_8\n          jump\t// in\n        tag_7:\n          mload(0x40)\n          dup1\n          swap2\n          sub\n          swap1\n          return\n            /* \"Fall-2023/28_Visibility.sol\":96:168  function f1() public pure returns(uint)... */\n        tag_4:\n          tag_9\n          tag_10\n          jump\t// in\n        tag_9:\n          mload(0x40)\n          tag_11\n          swap2\n          swap1\n          tag_8\n          jump\t// in\n        tag_11:\n          mload(0x40)\n          dup1\n          swap2\n          sub\n          swap1\n          return\n            /* \"Fall-2023/28_Visibility.sol\":174:248  function f2() external pure returns(uint)... */\n        tag_6:\n            /* \"Fall-2023/28_Visibility.sol\":210:214  uint */\n          0x00\n            /* \"Fall-2023/28_Visibility.sol\":239:240  2 */\n          0x02\n            /* \"Fall-2023/28_Visibility.sol\":232:240  return 2 */\n          swap1\n          pop\n            /* \"Fall-2023/28_Visibility.sol\":174:248  function f2() external pure returns(uint)... */\n          swap1\n          jump\t// out\n            /* \"Fall-2023/28_Visibility.sol\":96:168  function f1() public pure returns(uint)... */\n        tag_10:\n            /* \"Fall-2023/28_Visibility.sol\":130:134  uint */\n          0x00\n            /* \"Fall-2023/28_Visibility.sol\":159:160  1 */\n          0x01\n            /* \"Fall-2023/28_Visibility.sol\":152:160  return 1 */\n          swap1\n          pop\n            /* \"Fall-2023/28_Visibility.sol\":96:168  function f1() public pure returns(uint)... */\n          swap1\n          jump\t// out\n            /* \"#utility.yul\":7:84   */\n        tag_14:\n            /* \"#utility.yul\":44:51   */\n          0x00\n            /* \"#utility.yul\":73:78   */\n          dup2\n            /* \"#utility.yul\":62:78   */\n          swap1\n          pop\n            /* \"#utility.yul\":7:84   */\n          swap2\n          swap1\n          pop\n          jump\t// out\n            /* \"#utility.yul\":90:208   */\n        tag_15:\n            /* \"#utility.yul\":177:201   */\n          tag_19\n            /* \"#utility.yul\":195:200   */\n          dup2\n            /* \"#utility.yul\":177:201   */\n          tag_14\n          jump\t// in\n        tag_19:\n            /* \"#utility.yul\":172:175   */\n          dup3\n            /* \"#utility.yul\":165:202   */\n          mstore\n            /* \"#utility.yul\":90:208   */\n          pop\n          pop\n          jump\t// out\n            /* \"#utility.yul\":214:436   */\n        tag_8:\n            /* \"#utility.yul\":307:311   */\n          0x00\n            /* \"#utility.yul\":345:347   */\n          0x20\n            /* \"#utility.yul\":334:343   */\n          dup3\n            /* \"#utility.yul\":330:348   */\n          add\n            /* \"#utility.yul\":322:348   */\n          swap1\n          pop\n            /* \"#utility.yul\":358:429   */\n          tag_21\n            /* \"#utility.yul\":426:427   */\n          0x00\n            /* \"#utility.yul\":415:424   */\n          dup4\n            /* \"#utility.yul\":411:428   */\n          add\n            /* \"#utility.yul\":402:408   */\n          dup5\n            /* \"#utility.yul\":358:429   */\n          tag_15\n          jump\t// in\n        tag_21:\n            /* \"#utility.yul\":214:436   */\n          swap3\n          swap2\n          pop\n          pop\n          jump\t// out\n\n        auxdata: 0xa2646970667358221220747677ac86618980f5108893470651714570e76cd93743870844b2461b09e1b164736f6c63430008120033\n    }\n}\n",
				"bytecode": {
					"linkReferences": {},
					"object": "6080604052604051610010906101a2565b604051809103906000f08015801561002c573d6000803e3d6000fd5b506000806101000a81548173ffffffffffffffffffffffffffffffffffffffff021916908373ffffffffffffffffffffffffffffffffffffffff16021790555060008054906101000a900473ffffffffffffffffffffffffffffffffffffffff1673ffffffffffffffffffffffffffffffffffffffff1663c27fc3056040518163ffffffff1660e01b8152600401602060405180830381865afa1580156100d7573d6000803e3d6000fd5b505050506040513d601f19601f820116820180604052508101906100fb91906101ea565b60015560008054906101000a900473ffffffffffffffffffffffffffffffffffffffff1673ffffffffffffffffffffffffffffffffffffffff16639942ec6f6040518163ffffffff1660e01b8152600401602060405180830381865afa158015610169573d6000803e3d6000fd5b505050506040513d601f19601f8201168201806040525081019061018d91906101ea565b60025534801561019c57600080fd5b50610217565b6101028061030283390190565b600080fd5b6000819050919050565b6101c7816101b4565b81146101d257600080fd5b50565b6000815190506101e4816101be565b92915050565b600060208284031215610200576101ff6101af565b5b600061020e848285016101d5565b91505092915050565b60dd806102256000396000f3fe6080604052348015600f57600080fd5b506004361060325760003560e01c80639942ec6f146037578063c27fc305146051575b600080fd5b603d606b565b60405160489190608e565b60405180910390f35b60576071565b60405160629190608e565b60405180910390f35b60025481565b60015481565b6000819050919050565b6088816077565b82525050565b600060208201905060a160008301846081565b9291505056fea26469706673582212201578bf402348da74e624f9a6b2cd2351b220547174b19857beae9395f5cda49664736f6c63430008120033608060405234801561001057600080fd5b5060e38061001f6000396000f3fe6080604052348015600f57600080fd5b506004361060325760003560e01c80639942ec6f146037578063c27fc305146051575b600080fd5b603d606b565b604051604891906094565b60405180910390f35b60576074565b604051606291906094565b60405180910390f35b60006002905090565b60006001905090565b6000819050919050565b608e81607d565b82525050565b600060208201905060a760008301846087565b9291505056fea2646970667358221220747677ac86618980f5108893470651714570e76cd93743870844b2461b09e1b164736f6c63430008120033",
					"opcodes": "PUSH1 0x80 PUSH1 0x40 MSTORE PUSH1 0x40 MLOAD PUSH2 0x10 SWAP1 PUSH2 0x1A2 JUMP JUMPDEST PUSH1 0x40 MLOAD DUP1 SWAP2 SUB SWAP1 PUSH1 0x0 CREATE DUP1 ISZERO DUP1 ISZERO PUSH2 0x2C JUMPI RETURNDATASIZE PUSH1 0x0 DUP1 RETURNDATACOPY RETURNDATASIZE PUSH1 0x0 REVERT JUMPDEST POP PUSH1 0x0 DUP1 PUSH2 0x100 EXP DUP2 SLOAD DUP2 PUSH20 0xFFFFFFFFFFFFFFFFFFFFFFFFFFFFFFFFFFFFFFFF MUL NOT AND SWAP1 DUP4 PUSH20 0xFFFFFFFFFFFFFFFFFFFFFFFFFFFFFFFFFFFFFFFF AND MUL OR SWAP1 SSTORE POP PUSH1 0x0 DUP1 SLOAD SWAP1 PUSH2 0x100 EXP SWAP1 DIV PUSH20 0xFFFFFFFFFFFFFFFFFFFFFFFFFFFFFFFFFFFFFFFF AND PUSH20 0xFFFFFFFFFFFFFFFFFFFFFFFFFFFFFFFFFFFFFFFF AND PUSH4 0xC27FC305 PUSH1 0x40 MLOAD DUP2 PUSH4 0xFFFFFFFF AND PUSH1 0xE0 SHL DUP2 MSTORE PUSH1 0x4 ADD PUSH1 0x20 PUSH1 0x40 MLOAD DUP1 DUP4 SUB DUP2 DUP7 GAS STATICCALL ISZERO DUP1 ISZERO PUSH2 0xD7 JUMPI RETURNDATASIZE PUSH1 0x0 DUP1 RETURNDATACOPY RETURNDATASIZE PUSH1 0x0 REVERT JUMPDEST POP POP POP POP PUSH1 0x40 MLOAD RETURNDATASIZE PUSH1 0x1F NOT PUSH1 0x1F DUP3 ADD AND DUP3 ADD DUP1 PUSH1 0x40 MSTORE POP DUP2 ADD SWAP1 PUSH2 0xFB SWAP2 SWAP1 PUSH2 0x1EA JUMP JUMPDEST PUSH1 0x1 SSTORE PUSH1 0x0 DUP1 SLOAD SWAP1 PUSH2 0x100 EXP SWAP1 DIV PUSH20 0xFFFFFFFFFFFFFFFFFFFFFFFFFFFFFFFFFFFFFFFF AND PUSH20 0xFFFFFFFFFFFFFFFFFFFFFFFFFFFFFFFFFFFFFFFF AND PUSH4 0x9942EC6F PUSH1 0x40 MLOAD DUP2 PUSH4 0xFFFFFFFF AND PUSH1 0xE0 SHL DUP2 MSTORE PUSH1 0x4 ADD PUSH1 0x20 PUSH1 0x40 MLOAD DUP1 DUP4 SUB DUP2 DUP7 GAS STATICCALL ISZERO DUP1 ISZERO PUSH2 0x169 JUMPI RETURNDATASIZE PUSH1 0x0 DUP1 RETURNDATACOPY RETURNDATASIZE PUSH1 0x0 REVERT JUMPDEST POP POP POP POP PUSH1 0x40 MLOAD RETURNDATASIZE PUSH1 0x1F NOT PUSH1 0x1F DUP3 ADD AND DUP3 ADD DUP1 PUSH1 0x40 MSTORE POP DUP2 ADD SWAP1 PUSH2 0x18D SWAP2 SWAP1 PUSH2 0x1EA JUMP JUMPDEST PUSH1 0x2 SSTORE CALLVALUE DUP1 ISZERO PUSH2 0x19C JUMPI PUSH1 0x0 DUP1 REVERT JUMPDEST POP PUSH2 0x217 JUMP JUMPDEST PUSH2 0x102 DUP1 PUSH2 0x302 DUP4 CODECOPY ADD SWAP1 JUMP JUMPDEST PUSH1 0x0 DUP1 REVERT JUMPDEST PUSH1 0x0 DUP2 SWAP1 POP SWAP2 SWAP1 POP JUMP JUMPDEST PUSH2 0x1C7 DUP2 PUSH2 0x1B4 JUMP JUMPDEST DUP2 EQ PUSH2 0x1D2 JUMPI PUSH1 0x0 DUP1 REVERT JUMPDEST POP JUMP JUMPDEST PUSH1 0x0 DUP2 MLOAD SWAP1 POP PUSH2 0x1E4 DUP2 PUSH2 0x1BE JUMP JUMPDEST SWAP3 SWAP2 POP POP JUMP JUMPDEST PUSH1 0x0 PUSH1 0x20 DUP3 DUP5 SUB SLT ISZERO PUSH2 0x200 JUMPI PUSH2 0x1FF PUSH2 0x1AF JUMP JUMPDEST JUMPDEST PUSH1 0x0 PUSH2 0x20E DUP5 DUP3 DUP6 ADD PUSH2 0x1D5 JUMP JUMPDEST SWAP2 POP POP SWAP3 SWAP2 POP POP JUMP JUMPDEST PUSH1 0xDD DUP1 PUSH2 0x225 PUSH1 0x0 CODECOPY PUSH1 0x0 RETURN INVALID PUSH1 0x80 PUSH1 0x40 MSTORE CALLVALUE DUP1 ISZERO PUSH1 0xF JUMPI PUSH1 0x0 DUP1 REVERT JUMPDEST POP PUSH1 0x4 CALLDATASIZE LT PUSH1 0x32 JUMPI PUSH1 0x0 CALLDATALOAD PUSH1 0xE0 SHR DUP1 PUSH4 0x9942EC6F EQ PUSH1 0x37 JUMPI DUP1 PUSH4 0xC27FC305 EQ PUSH1 0x51 JUMPI JUMPDEST PUSH1 0x0 DUP1 REVERT JUMPDEST PUSH1 0x3D PUSH1 0x6B JUMP JUMPDEST PUSH1 0x40 MLOAD PUSH1 0x48 SWAP2 SWAP1 PUSH1 0x8E JUMP JUMPDEST PUSH1 0x40 MLOAD DUP1 SWAP2 SUB SWAP1 RETURN JUMPDEST PUSH1 0x57 PUSH1 0x71 JUMP JUMPDEST PUSH1 0x40 MLOAD PUSH1 0x62 SWAP2 SWAP1 PUSH1 0x8E JUMP JUMPDEST PUSH1 0x40 MLOAD DUP1 SWAP2 SUB SWAP1 RETURN JUMPDEST PUSH1 0x2 SLOAD DUP2 JUMP JUMPDEST PUSH1 0x1 SLOAD DUP2 JUMP JUMPDEST PUSH1 0x0 DUP2 SWAP1 POP SWAP2 SWAP1 POP JUMP JUMPDEST PUSH1 0x88 DUP2 PUSH1 0x77 JUMP JUMPDEST DUP3 MSTORE POP POP JUMP JUMPDEST PUSH1 0x0 PUSH1 0x20 DUP3 ADD SWAP1 POP PUSH1 0xA1 PUSH1 0x0 DUP4 ADD DUP5 PUSH1 0x81 JUMP JUMPDEST SWAP3 SWAP2 POP POP JUMP INVALID LOG2 PUSH5 0x6970667358 0x22 SLT KECCAK256 ISZERO PUSH25 0xBF402348DA74E624F9A6B2CD2351B220547174B19857BEAE93 SWAP6 CREATE2 0xCD LOG4 SWAP7 PUSH5 0x736F6C6343 STOP ADDMOD SLT STOP CALLER PUSH1 0x80 PUSH1 0x40 MSTORE CALLVALUE DUP1 ISZERO PUSH2 0x10 JUMPI PUSH1 0x0 DUP1 REVERT JUMPDEST POP PUSH1 0xE3 DUP1 PUSH2 0x1F PUSH1 0x0 CODECOPY PUSH1 0x0 RETURN INVALID PUSH1 0x80 PUSH1 0x40 MSTORE CALLVALUE DUP1 ISZERO PUSH1 0xF JUMPI PUSH1 0x0 DUP1 REVERT JUMPDEST POP PUSH1 0x4 CALLDATASIZE LT PUSH1 0x32 JUMPI PUSH1 0x0 CALLDATALOAD PUSH1 0xE0 SHR DUP1 PUSH4 0x9942EC6F EQ PUSH1 0x37 JUMPI DUP1 PUSH4 0xC27FC305 EQ PUSH1 0x51 JUMPI JUMPDEST PUSH1 0x0 DUP1 REVERT JUMPDEST PUSH1 0x3D PUSH1 0x6B JUMP JUMPDEST PUSH1 0x40 MLOAD PUSH1 0x48 SWAP2 SWAP1 PUSH1 0x94 JUMP JUMPDEST PUSH1 0x40 MLOAD DUP1 SWAP2 SUB SWAP1 RETURN JUMPDEST PUSH1 0x57 PUSH1 0x74 JUMP JUMPDEST PUSH1 0x40 MLOAD PUSH1 0x62 SWAP2 SWAP1 PUSH1 0x94 JUMP JUMPDEST PUSH1 0x40 MLOAD DUP1 SWAP2 SUB SWAP1 RETURN JUMPDEST PUSH1 0x0 PUSH1 0x2 SWAP1 POP SWAP1 JUMP JUMPDEST PUSH1 0x0 PUSH1 0x1 SWAP1 POP SWAP1 JUMP JUMPDEST PUSH1 0x0 DUP2 SWAP1 POP SWAP2 SWAP1 POP JUMP JUMPDEST PUSH1 0x8E DUP2 PUSH1 0x7D JUMP JUMPDEST DUP3 MSTORE POP POP JUMP JUMPDEST PUSH1 0x0 PUSH1 0x20 DUP3 ADD SWAP1 POP PUSH1 0xA7 PUSH1 0x0 DUP4 ADD DUP5 PUSH1 0x87 JUMP JUMPDEST SWAP3 SWAP2 POP POP JUMP INVALID LOG2 PUSH5 0x6970667358 0x22 SLT KECCAK256 PUSH21 0x7677AC86618980F5108893470651714570E76CD937 NUMBER DUP8 ADDMOD PREVRANDAO 0xB2 CHAINID SHL MULMOD 0xE1 0xB1 PUSH5 0x736F6C6343 STOP ADDMOD SLT STOP CALLER "
				},
				"gasEstimates": {
					"creation": {
						"codeDepositCost": "44200",
						"executionCost": "infinite",
						"totalCost": "infinite"
					},
					"external": {
						"f1()": "2429",
						"f2()": "2407"
					}
				},
				"methodIdentifiers": {
					"f1()": "c27fc305",
					"f2()": "9942ec6f"
				}
			},
			"storageLayout": {
				"storage": [
					{
						"astId": 64,
						"contract": "Fall-2023/28_Visibility.sol:Outside",
						"label": "base",
						"offset": 0,
						"slot": "0",
						"type": "t_contract(Base)34"
					},
					{
						"astId": 69,
						"contract": "Fall-2023/28_Visibility.sol:Outside",
						"label": "f1",
						"offset": 0,
						"slot": "1",
						"type": "t_uint256"
					},
					{
						"astId": 74,
						"contract": "Fall-2023/28_Visibility.sol:Outside",
						"label": "f2",
						"offset": 0,
						"slot": "2",
						"type": "t_uint256"
					}
				],
				"types": {
					"t_contract(Base)34": {
						"encoding": "inplace",
						"label": "contract Base",
						"numberOfBytes": "20"
					},
					"t_uint256": {
						"encoding": "inplace",
						"label": "uint256",
						"numberOfBytes": "32"
					}
				}
			},
			"userdoc": {
				"kind": "user",
				"methods": {},
				"version": 1
			}
		}
	}
}