{
	"Fall-2023/28_Visibility.sol": {
		"Sub": {
			"abi": [
				{
					"inputs": [],
					"name": "f1",
					"outputs": [
						{
							"internalType": "uint256",
							"name": "",
							"type": "uint256"
						}
					],
					"stateMutability": "pure",
					"type": "function"
				},
				{
					"inputs": [],
					"name": "f2",
					"outputs": [
						{
							"internalType": "uint256",
							"name": "",
							"type": "uint256"
						}
					],
					"stateMutability": "pure",
					"type": "function"
				},
				{
					"inputs": [],
					"name": "getValue",
					"outputs": [
						{
							"internalType": "uint256",
							"name": "",
							"type": "uint256"
						}
					],
					"stateMutability": "pure",
					"type": "function"
				}
			],
			"devdoc": {
				"kind": "dev",
				"methods": {},
				"version": 1
			},
			"evm": {
				"assembly": "    /* \"Fall-2023/28_Visibility.sol\":414:729  contract Sub is Base... */\n  mstore(0x40, 0x80)\n  callvalue\n  dup1\n  iszero\n  tag_1\n  jumpi\n  0x00\n  dup1\n  revert\ntag_1:\n  pop\n  dataSize(sub_0)\n  dup1\n  dataOffset(sub_0)\n  0x00\n  codecopy\n  0x00\n  return\nstop\n\nsub_0: assembly {\n        /* \"Fall-2023/28_Visibility.sol\":414:729  contract Sub is Base... */\n      mstore(0x40, 0x80)\n      callvalue\n      dup1\n      iszero\n      tag_1\n      jumpi\n      0x00\n      dup1\n      revert\n    tag_1:\n      pop\n      jumpi(tag_2, lt(calldatasize, 0x04))\n      shr(0xe0, calldataload(0x00))\n      dup1\n      0x20965255\n      eq\n      tag_3\n      jumpi\n      dup1\n      0x9942ec6f\n      eq\n      tag_4\n      jumpi\n      dup1\n      0xc27fc305\n      eq\n      tag_5\n      jumpi\n    tag_2:\n      0x00\n      dup1\n      revert\n        /* \"Fall-2023/28_Visibility.sol\":443:726  function getValue() public pure returns(uint){... */\n    tag_3:\n      tag_6\n      tag_7\n      jump\t// in\n    tag_6:\n      mload(0x40)\n      tag_8\n      swap2\n      swap1\n      tag_9\n      jump\t// in\n    tag_8:\n      mload(0x40)\n      dup1\n      swap2\n      sub\n      swap1\n      return\n        /* \"Fall-2023/28_Visibility.sol\":174:248  function f2() external pure returns(uint)... */\n    tag_4:\n      tag_10\n      tag_11\n      jump\t// in\n    tag_10:\n      mload(0x40)\n      tag_12\n      swap2\n      swap1\n      tag_9\n      jump\t// in\n    tag_12:\n      mload(0x40)\n      dup1\n      swap2\n      sub\n      swap1\n      return\n        /* \"Fall-2023/28_Visibility.sol\":96:168  function f1() public pure returns(uint)... */\n    tag_5:\n      tag_13\n      tag_14\n      jump\t// in\n    tag_13:\n      mload(0x40)\n      tag_15\n      swap2\n      swap1\n      tag_9\n      jump\t// in\n    tag_15:\n      mload(0x40)\n      dup1\n      swap2\n      sub\n      swap1\n      return\n        /* \"Fall-2023/28_Visibility.sol\":443:726  function getValue() public pure returns(uint){... */\n    tag_7:\n        /* \"Fall-2023/28_Visibility.sol\":483:487  uint */\n      0x00\n        /* \"Fall-2023/28_Visibility.sol\":499:506  uint v1 */\n      dup1\n        /* \"Fall-2023/28_Visibility.sol\":509:513  f1() */\n      tag_17\n        /* \"Fall-2023/28_Visibility.sol\":509:511  f1 */\n      tag_14\n        /* \"Fall-2023/28_Visibility.sol\":509:513  f1() */\n      jump\t// in\n    tag_17:\n        /* \"Fall-2023/28_Visibility.sol\":499:513  uint v1 = f1() */\n      swap1\n      pop\n        /* \"Fall-2023/28_Visibility.sol\":601:608  uint v3 */\n      0x00\n        /* \"Fall-2023/28_Visibility.sol\":611:615  f3() */\n      tag_18\n        /* \"Fall-2023/28_Visibility.sol\":611:613  f3 */\n      tag_19\n        /* \"Fall-2023/28_Visibility.sol\":611:615  f3() */\n      jump\t// in\n    tag_18:\n        /* \"Fall-2023/28_Visibility.sol\":601:615  uint v3 = f3() */\n      swap1\n      pop\n        /* \"Fall-2023/28_Visibility.sol\":716:718  v3 */\n      dup1\n        /* \"Fall-2023/28_Visibility.sol\":711:713  v1 */\n      dup3\n        /* \"Fall-2023/28_Visibility.sol\":711:718  v1 + v3 */\n      tag_20\n      swap2\n      swap1\n      tag_21\n      jump\t// in\n    tag_20:\n        /* \"Fall-2023/28_Visibility.sol\":704:718  return v1 + v3 */\n      swap3\n      pop\n      pop\n      pop\n        /* \"Fall-2023/28_Visibility.sol\":443:726  function getValue() public pure returns(uint){... */\n      swap1\n      jump\t// out\n        /* \"Fall-2023/28_Visibility.sol\":174:248  function f2() external pure returns(uint)... */\n    tag_11:\n        /* \"Fall-2023/28_Visibility.sol\":210:214  uint */\n      0x00\n        /* \"Fall-2023/28_Visibility.sol\":239:240  2 */\n      0x02\n        /* \"Fall-2023/28_Visibility.sol\":232:240  return 2 */\n      swap1\n      pop\n        /* \"Fall-2023/28_Visibility.sol\":174:248  function f2() external pure returns(uint)... */\n      swap1\n      jump\t// out\n        /* \"Fall-2023/28_Visibility.sol\":96:168  function f1() public pure returns(uint)... */\n    tag_14:\n        /* \"Fall-2023/28_Visibility.sol\":130:134  uint */\n      0x00\n        /* \"Fall-2023/28_Visibility.sol\":159:160  1 */\n      0x01\n        /* \"Fall-2023/28_Visibility.sol\":152:160  return 1 */\n      swap1\n      pop\n        /* \"Fall-2023/28_Visibility.sol\":96:168  function f1() public pure returns(uint)... */\n      swap1\n      jump\t// out\n        /* \"Fall-2023/28_Visibility.sol\":254:328  function f3() internal pure returns(uint)... */\n    tag_19:\n        /* \"Fall-2023/28_Visibility.sol\":290:294  uint */\n      0x00\n        /* \"Fall-2023/28_Visibility.sol\":319:320  3 */\n      0x03\n        /* \"Fall-2023/28_Visibility.sol\":312:320  return 3 */\n      swap1\n      pop\n        /* \"Fall-2023/28_Visibility.sol\":254:328  function f3() internal pure returns(uint)... */\n      swap1\n      jump\t// out\n        /* \"#utility.yul\":7:84   */\n    tag_25:\n        /* \"#utility.yul\":44:51   */\n      0x00\n        /* \"#utility.yul\":73:78   */\n      dup2\n        /* \"#utility.yul\":62:78   */\n      swap1\n      pop\n        /* \"#utility.yul\":7:84   */\n      swap2\n      swap1\n      pop\n      jump\t// out\n        /* \"#utility.yul\":90:208   */\n    tag_26:\n        /* \"#utility.yul\":177:201   */\n      tag_31\n        /* \"#utility.yul\":195:200   */\n      dup2\n        /* \"#utility.yul\":177:201   */\n      tag_25\n      jump\t// in\n    tag_31:\n        /* \"#utility.yul\":172:175   */\n      dup3\n        /* \"#utility.yul\":165:202   */\n      mstore\n        /* \"#utility.yul\":90:208   */\n      pop\n      pop\n      jump\t// out\n        /* \"#utility.yul\":214:436   */\n    tag_9:\n        /* \"#utility.yul\":307:311   */\n      0x00\n        /* \"#utility.yul\":345:347   */\n      0x20\n        /* \"#utility.yul\":334:343   */\n      dup3\n        /* \"#utility.yul\":330:348   */\n      add\n        /* \"#utility.yul\":322:348   */\n      swap1\n      pop\n        /* \"#utility.yul\":358:429   */\n      tag_33\n        /* \"#utility.yul\":426:427   */\n      0x00\n        /* \"#utility.yul\":415:424   */\n      dup4\n        /* \"#utility.yul\":411:428   */\n      add\n        /* \"#utility.yul\":402:408   */\n      dup5\n        /* \"#utility.yul\":358:429   */\n      tag_26\n      jump\t// in\n    tag_33:\n        /* \"#utility.yul\":214:436   */\n      swap3\n      swap2\n      pop\n      pop\n      jump\t// out\n        /* \"#utility.yul\":442:622   */\n    tag_27:\n        /* \"#utility.yul\":490:567   */\n      0x4e487b7100000000000000000000000000000000000000000000000000000000\n        /* \"#utility.yul\":487:488   */\n      0x00\n        /* \"#utility.yul\":480:568   */\n      mstore\n        /* \"#utility.yul\":587:591   */\n      0x11\n        /* \"#utility.yul\":584:585   */\n      0x04\n        /* \"#utility.yul\":577:592   */\n      mstore\n        /* \"#utility.yul\":611:615   */\n      0x24\n        /* \"#utility.yul\":608:609   */\n      0x00\n        /* \"#utility.yul\":601:616   */\n      revert\n        /* \"#utility.yul\":628:819   */\n    tag_21:\n        /* \"#utility.yul\":668:671   */\n      0x00\n        /* \"#utility.yul\":687:707   */\n      tag_36\n        /* \"#utility.yul\":705:706   */\n      dup3\n        /* \"#utility.yul\":687:707   */\n      tag_25\n      jump\t// in\n    tag_36:\n        /* \"#utility.yul\":682:707   */\n      swap2\n      pop\n        /* \"#utility.yul\":721:741   */\n      tag_37\n        /* \"#utility.yul\":739:740   */\n      dup4\n        /* \"#utility.yul\":721:741   */\n      tag_25\n      jump\t// in\n    tag_37:\n        /* \"#utility.yul\":716:741   */\n      swap3\n      pop\n        /* \"#utility.yul\":764:765   */\n      dup3\n        /* \"#utility.yul\":761:762   */\n      dup3\n        /* \"#utility.yul\":757:766   */\n      add\n        /* \"#utility.yul\":750:766   */\n      swap1\n      pop\n        /* \"#utility.yul\":785:788   */\n      dup1\n        /* \"#utility.yul\":782:783   */\n      dup3\n        /* \"#utility.yul\":779:789   */\n      gt\n        /* \"#utility.yul\":776:812   */\n      iszero\n      tag_38\n      jumpi\n        /* \"#utility.yul\":792:810   */\n      tag_39\n      tag_27\n      jump\t// in\n    tag_39:\n        /* \"#utility.yul\":776:812   */\n    tag_38:\n        /* \"#utility.yul\":628:819   */\n      swap3\n      swap2\n      pop\n      pop\n      jump\t// out\n\n    auxdata: 0xa2646970667358221220be8dc9c336c5a56cab7dded03409811998fda2b46c61f1333b92f59ac04fc41564736f6c63430008120033\n}\n",
				"bytecode": {
					"linkReferences": {},
					"object": "608060405234801561001057600080fd5b506101b4806100206000396000f3fe608060405234801561001057600080fd5b50600436106100415760003560e01c806320965255146100465780639942ec6f14610064578063c27fc30514610082575b600080fd5b61004e6100a0565b60405161005b9190610100565b60405180910390f35b61006c6100cc565b6040516100799190610100565b60405180910390f35b61008a6100d5565b6040516100979190610100565b60405180910390f35b6000806100ab6100d5565b905060006100b76100de565b905080826100c5919061014a565b9250505090565b60006002905090565b60006001905090565b60006003905090565b6000819050919050565b6100fa816100e7565b82525050565b600060208201905061011560008301846100f1565b92915050565b7f4e487b7100000000000000000000000000000000000000000000000000000000600052601160045260246000fd5b6000610155826100e7565b9150610160836100e7565b92508282019050808211156101785761017761011b565b5b9291505056fea2646970667358221220be8dc9c336c5a56cab7dded03409811998fda2b46c61f1333b92f59ac04fc41564736f6c63430008120033",
					"opcodes": "PUSH1 0x80 PUSH1 0x40 MSTORE CALLVALUE DUP1 ISZERO PUSH2 0x10 JUMPI PUSH1 0x0 DUP1 REVERT JUMPDEST POP PUSH2 0x1B4 DUP1 PUSH2 0x20 PUSH1 0x0 CODECOPY PUSH1 0x0 RETURN INVALID PUSH1 0x80 PUSH1 0x40 MSTORE CALLVALUE DUP1 ISZERO PUSH2 0x10 JUMPI PUSH1 0x0 DUP1 REVERT JUMPDEST POP PUSH1 0x4 CALLDATASIZE LT PUSH2 0x41 JUMPI PUSH1 0x0 CALLDATALOAD PUSH1 0xE0 SHR DUP1 PUSH4 0x20965255 EQ PUSH2 0x46 JUMPI DUP1 PUSH4 0x9942EC6F EQ PUSH2 0x64 JUMPI DUP1 PUSH4 0xC27FC305 EQ PUSH2 0x82 JUMPI JUMPDEST PUSH1 0x0 DUP1 REVERT JUMPDEST PUSH2 0x4E PUSH2 0xA0 JUMP JUMPDEST PUSH1 0x40 MLOAD PUSH2 0x5B SWAP2 SWAP1 PUSH2 0x100 JUMP JUMPDEST PUSH1 0x40 MLOAD DUP1 SWAP2 SUB SWAP1 RETURN JUMPDEST PUSH2 0x6C PUSH2 0xCC JUMP JUMPDEST PUSH1 0x40 MLOAD PUSH2 0x79 SWAP2 SWAP1 PUSH2 0x100 JUMP JUMPDEST PUSH1 0x40 MLOAD DUP1 SWAP2 SUB SWAP1 RETURN JUMPDEST PUSH2 0x8A PUSH2 0xD5 JUMP JUMPDEST PUSH1 0x40 MLOAD PUSH2 0x97 SWAP2 SWAP1 PUSH2 0x100 JUMP JUMPDEST PUSH1 0x40 MLOAD DUP1 SWAP2 SUB SWAP1 RETURN JUMPDEST PUSH1 0x0 DUP1 PUSH2 0xAB PUSH2 0xD5 JUMP JUMPDEST SWAP1 POP PUSH1 0x0 PUSH2 0xB7 PUSH2 0xDE JUMP JUMPDEST SWAP1 POP DUP1 DUP3 PUSH2 0xC5 SWAP2 SWAP1 PUSH2 0x14A JUMP JUMPDEST SWAP3 POP POP POP SWAP1 JUMP JUMPDEST PUSH1 0x0 PUSH1 0x2 SWAP1 POP SWAP1 JUMP JUMPDEST PUSH1 0x0 PUSH1 0x1 SWAP1 POP SWAP1 JUMP JUMPDEST PUSH1 0x0 PUSH1 0x3 SWAP1 POP SWAP1 JUMP JUMPDEST PUSH1 0x0 DUP2 SWAP1 POP SWAP2 SWAP1 POP JUMP JUMPDEST PUSH2 0xFA DUP2 PUSH2 0xE7 JUMP JUMPDEST DUP3 MSTORE POP POP JUMP JUMPDEST PUSH1 0x0 PUSH1 0x20 DUP3 ADD SWAP1 POP PUSH2 0x115 PUSH1 0x0 DUP4 ADD DUP5 PUSH2 0xF1 JUMP JUMPDEST SWAP3 SWAP2 POP POP JUMP JUMPDEST PUSH32 0x4E487B7100000000000000000000000000000000000000000000000000000000 PUSH1 0x0 MSTORE PUSH1 0x11 PUSH1 0x4 MSTORE PUSH1 0x24 PUSH1 0x0 REVERT JUMPDEST PUSH1 0x0 PUSH2 0x155 DUP3 PUSH2 0xE7 JUMP JUMPDEST SWAP2 POP PUSH2 0x160 DUP4 PUSH2 0xE7 JUMP JUMPDEST SWAP3 POP DUP3 DUP3 ADD SWAP1 POP DUP1 DUP3 GT ISZERO PUSH2 0x178 JUMPI PUSH2 0x177 PUSH2 0x11B JUMP JUMPDEST JUMPDEST SWAP3 SWAP2 POP POP JUMP INVALID LOG2 PUSH5 0x6970667358 0x22 SLT KECCAK256 0xBE DUP14 0xC9 0xC3 CALLDATASIZE 0xC5 0xA5 PUSH13 0xAB7DDED03409811998FDA2B46C PUSH2 0xF133 EXTCODESIZE SWAP3 CREATE2 SWAP11 0xC0 0x4F 0xC4 ISZERO PUSH5 0x736F6C6343 STOP ADDMOD SLT STOP CALLER "
				},
				"gasEstimates": {
					"creation": {
						"codeDepositCost": "87200",
						"executionCost": "135",
						"totalCost": "87335"
					},
					"external": {
						"f1()": "359",
						"f2()": "337",
						"getValue()": "infinite"
					}
				},
				"methodIdentifiers": {
					"f1()": "c27fc305",
					"f2()": "9942ec6f",
					"getValue()": "20965255"
				}
			},
			"storageLayout": {
				"storage": [],
				"types": null
			},
			"userdoc": {
				"kind": "user",
				"methods": {},
				"version": 1
			}
		}
	}
}