{
	"Fall-2023/Copy_Class08.sol": {
		"B": {
			"abi": [
				{
					"inputs": [],
					"name": "b",
					"outputs": [
						{
							"internalType": "uint256",
							"name": "",
							"type": "uint256"
						}
					],
					"stateMutability": "view",
					"type": "function"
				}
			],
			"devdoc": {
				"kind": "dev",
				"methods": {},
				"version": 1
			},
			"evm": {
				"assembly": "    /* \"Fall-2023/Copy_Class08.sol\":240:309  contract B... */\n  mstore(0x40, 0x80)\n    /* \"Fall-2023/Copy_Class08.sol\":267:274  new A() */\n  mload(0x40)\n  tag_1\n  swap1\n  tag_2\n  jump\t// in\ntag_1:\n  mload(0x40)\n  dup1\n  swap2\n  sub\n  swap1\n  0x00\n  create\n  dup1\n  iszero\n  dup1\n  iszero\n  tag_3\n  jumpi\n  returndatasize\n  0x00\n  dup1\n  returndatacopy\n  revert(0x00, returndatasize)\ntag_3:\n  pop\n    /* \"Fall-2023/Copy_Class08.sol\":259:274  A obj = new A() */\n  0x00\n  dup1\n  0x0100\n  exp\n  dup2\n  sload\n  dup2\n  0xffffffffffffffffffffffffffffffffffffffff\n  mul\n  not\n  and\n  swap1\n  dup4\n  0xffffffffffffffffffffffffffffffffffffffff\n  and\n  mul\n  or\n  swap1\n  sstore\n  pop\n    /* \"Fall-2023/Copy_Class08.sol\":297:300  obj */\n  0x00\n  dup1\n  sload\n  swap1\n  0x0100\n  exp\n  swap1\n  div\n  0xffffffffffffffffffffffffffffffffffffffff\n  and\n    /* \"Fall-2023/Copy_Class08.sol\":297:303  obj.f1 */\n  0xffffffffffffffffffffffffffffffffffffffff\n  and\n  0xc27fc305\n    /* \"Fall-2023/Copy_Class08.sol\":297:305  obj.f1() */\n  mload(0x40)\n  dup2\n  0xffffffff\n  and\n  0xe0\n  shl\n  dup2\n  mstore\n  0x04\n  add\n  0x20\n  mload(0x40)\n  dup1\n  dup4\n  sub\n  dup2\n  dup7\n  gas\n  staticcall\n  iszero\n  dup1\n  iszero\n  tag_5\n  jumpi\n  returndatasize\n  0x00\n  dup1\n  returndatacopy\n  revert(0x00, returndatasize)\ntag_5:\n  pop\n  pop\n  pop\n  pop\n  mload(0x40)\n  returndatasize\n  not(0x1f)\n  0x1f\n  dup3\n  add\n  and\n  dup3\n  add\n  dup1\n  0x40\n  mstore\n  pop\n  dup2\n  add\n  swap1\n  tag_6\n  swap2\n  swap1\n  tag_7\n  jump\t// in\ntag_6:\n    /* \"Fall-2023/Copy_Class08.sol\":281:305  uint public b = obj.f1() */\n  0x01\n  sstore\n    /* \"Fall-2023/Copy_Class08.sol\":240:309  contract B... */\n  callvalue\n  dup1\n  iszero\n  tag_8\n  jumpi\n  0x00\n  dup1\n  revert\ntag_8:\n  pop\n  jump(tag_9)\ntag_2:\n  dataSize(sub_1)\n  dup1\n  dataOffset(sub_1)\n  dup4\n  codecopy\n  add\n  swap1\n  jump\t// out\n    /* \"#utility.yul\":88:205   */\ntag_11:\n    /* \"#utility.yul\":197:198   */\n  0x00\n    /* \"#utility.yul\":194:195   */\n  dup1\n    /* \"#utility.yul\":187:199   */\n  revert\n    /* \"#utility.yul\":334:411   */\ntag_13:\n    /* \"#utility.yul\":371:378   */\n  0x00\n    /* \"#utility.yul\":400:405   */\n  dup2\n    /* \"#utility.yul\":389:405   */\n  swap1\n  pop\n    /* \"#utility.yul\":334:411   */\n  swap2\n  swap1\n  pop\n  jump\t// out\n    /* \"#utility.yul\":417:539   */\ntag_14:\n    /* \"#utility.yul\":490:514   */\n  tag_22\n    /* \"#utility.yul\":508:513   */\n  dup2\n    /* \"#utility.yul\":490:514   */\n  tag_13\n  jump\t// in\ntag_22:\n    /* \"#utility.yul\":483:488   */\n  dup2\n    /* \"#utility.yul\":480:515   */\n  eq\n    /* \"#utility.yul\":470:533   */\n  tag_23\n  jumpi\n    /* \"#utility.yul\":529:530   */\n  0x00\n    /* \"#utility.yul\":526:527   */\n  dup1\n    /* \"#utility.yul\":519:531   */\n  revert\n    /* \"#utility.yul\":470:533   */\ntag_23:\n    /* \"#utility.yul\":417:539   */\n  pop\n  jump\t// out\n    /* \"#utility.yul\":545:688   */\ntag_15:\n    /* \"#utility.yul\":602:607   */\n  0x00\n    /* \"#utility.yul\":633:639   */\n  dup2\n    /* \"#utility.yul\":627:640   */\n  mload\n    /* \"#utility.yul\":618:640   */\n  swap1\n  pop\n    /* \"#utility.yul\":649:682   */\n  tag_25\n    /* \"#utility.yul\":676:681   */\n  dup2\n    /* \"#utility.yul\":649:682   */\n  tag_14\n  jump\t// in\ntag_25:\n    /* \"#utility.yul\":545:688   */\n  swap3\n  swap2\n  pop\n  pop\n  jump\t// out\n    /* \"#utility.yul\":694:1045   */\ntag_7:\n    /* \"#utility.yul\":764:770   */\n  0x00\n    /* \"#utility.yul\":813:815   */\n  0x20\n    /* \"#utility.yul\":801:810   */\n  dup3\n    /* \"#utility.yul\":792:799   */\n  dup5\n    /* \"#utility.yul\":788:811   */\n  sub\n    /* \"#utility.yul\":784:816   */\n  slt\n    /* \"#utility.yul\":781:900   */\n  iszero\n  tag_27\n  jumpi\n    /* \"#utility.yul\":819:898   */\n  tag_28\n  tag_11\n  jump\t// in\ntag_28:\n    /* \"#utility.yul\":781:900   */\ntag_27:\n    /* \"#utility.yul\":939:940   */\n  0x00\n    /* \"#utility.yul\":964:1028   */\n  tag_29\n    /* \"#utility.yul\":1020:1027   */\n  dup5\n    /* \"#utility.yul\":1011:1017   */\n  dup3\n    /* \"#utility.yul\":1000:1009   */\n  dup6\n    /* \"#utility.yul\":996:1018   */\n  add\n    /* \"#utility.yul\":964:1028   */\n  tag_15\n  jump\t// in\ntag_29:\n    /* \"#utility.yul\":954:1028   */\n  swap2\n  pop\n    /* \"#utility.yul\":910:1038   */\n  pop\n    /* \"#utility.yul\":694:1045   */\n  swap3\n  swap2\n  pop\n  pop\n  jump\t// out\n    /* \"Fall-2023/Copy_Class08.sol\":240:309  contract B... */\ntag_9:\n  dataSize(sub_0)\n  dup1\n  dataOffset(sub_0)\n  0x00\n  codecopy\n  0x00\n  return\nstop\n\nsub_0: assembly {\n        /* \"Fall-2023/Copy_Class08.sol\":240:309  contract B... */\n      mstore(0x40, 0x80)\n      callvalue\n      dup1\n      iszero\n      tag_1\n      jumpi\n      0x00\n      dup1\n      revert\n    tag_1:\n      pop\n      jumpi(tag_2, lt(calldatasize, 0x04))\n      shr(0xe0, calldataload(0x00))\n      dup1\n      0x4df7e3d0\n      eq\n      tag_3\n      jumpi\n    tag_2:\n      0x00\n      dup1\n      revert\n        /* \"Fall-2023/Copy_Class08.sol\":281:305  uint public b = obj.f1() */\n    tag_3:\n      tag_4\n      tag_5\n      jump\t// in\n    tag_4:\n      mload(0x40)\n      tag_6\n      swap2\n      swap1\n      tag_7\n      jump\t// in\n    tag_6:\n      mload(0x40)\n      dup1\n      swap2\n      sub\n      swap1\n      return\n    tag_5:\n      sload(0x01)\n      dup2\n      jump\t// out\n        /* \"#utility.yul\":7:84   */\n    tag_8:\n        /* \"#utility.yul\":44:51   */\n      0x00\n        /* \"#utility.yul\":73:78   */\n      dup2\n        /* \"#utility.yul\":62:78   */\n      swap1\n      pop\n        /* \"#utility.yul\":7:84   */\n      swap2\n      swap1\n      pop\n      jump\t// out\n        /* \"#utility.yul\":90:208   */\n    tag_9:\n        /* \"#utility.yul\":177:201   */\n      tag_13\n        /* \"#utility.yul\":195:200   */\n      dup2\n        /* \"#utility.yul\":177:201   */\n      tag_8\n      jump\t// in\n    tag_13:\n        /* \"#utility.yul\":172:175   */\n      dup3\n        /* \"#utility.yul\":165:202   */\n      mstore\n        /* \"#utility.yul\":90:208   */\n      pop\n      pop\n      jump\t// out\n        /* \"#utility.yul\":214:436   */\n    tag_7:\n        /* \"#utility.yul\":307:311   */\n      0x00\n        /* \"#utility.yul\":345:347   */\n      0x20\n        /* \"#utility.yul\":334:343   */\n      dup3\n        /* \"#utility.yul\":330:348   */\n      add\n        /* \"#utility.yul\":322:348   */\n      swap1\n      pop\n        /* \"#utility.yul\":358:429   */\n      tag_15\n        /* \"#utility.yul\":426:427   */\n      0x00\n        /* \"#utility.yul\":415:424   */\n      dup4\n        /* \"#utility.yul\":411:428   */\n      add\n        /* \"#utility.yul\":402:408   */\n      dup5\n        /* \"#utility.yul\":358:429   */\n      tag_9\n      jump\t// in\n    tag_15:\n        /* \"#utility.yul\":214:436   */\n      swap3\n      swap2\n      pop\n      pop\n      jump\t// out\n\n    auxdata: 0xa26469706673582212202859a605ebab2f6ec1bef65e207a34e8788065c61d9b8c020ae9895b638e918364736f6c63430008120033\n}\n\nsub_1: assembly {\n        /* \"Fall-2023/Copy_Class08.sol\":71:238  contract A... */\n      mstore(0x40, 0x80)\n        /* \"Fall-2023/Copy_Class08.sol\":112:155  constructor()... */\n      callvalue\n      dup1\n      iszero\n      tag_1\n      jumpi\n      0x00\n      dup1\n      revert\n    tag_1:\n      pop\n        /* \"Fall-2023/Copy_Class08.sol\":146:147  5 */\n      0x05\n        /* \"Fall-2023/Copy_Class08.sol\":142:143  a */\n      0x00\n        /* \"Fall-2023/Copy_Class08.sol\":142:147  a = 5 */\n      dup2\n      swap1\n      sstore\n      pop\n        /* \"Fall-2023/Copy_Class08.sol\":71:238  contract A... */\n      dataSize(sub_0)\n      dup1\n      dataOffset(sub_0)\n      0x00\n      codecopy\n      0x00\n      return\n    stop\n\n    sub_0: assembly {\n            /* \"Fall-2023/Copy_Class08.sol\":71:238  contract A... */\n          mstore(0x40, 0x80)\n          callvalue\n          dup1\n          iszero\n          tag_1\n          jumpi\n          0x00\n          dup1\n          revert\n        tag_1:\n          pop\n          jumpi(tag_2, lt(calldatasize, 0x04))\n          shr(0xe0, calldataload(0x00))\n          dup1\n          0x0dbe671f\n          eq\n          tag_3\n          jumpi\n          dup1\n          0xc27fc305\n          eq\n          tag_4\n          jumpi\n        tag_2:\n          0x00\n          dup1\n          revert\n            /* \"Fall-2023/Copy_Class08.sol\":90:103  uint public a */\n        tag_3:\n          tag_5\n          tag_6\n          jump\t// in\n        tag_5:\n          mload(0x40)\n          tag_7\n          swap2\n          swap1\n          tag_8\n          jump\t// in\n        tag_7:\n          mload(0x40)\n          dup1\n          swap2\n          sub\n          swap1\n          return\n            /* \"Fall-2023/Copy_Class08.sol\":163:235  function f1() public view returns(uint)... */\n        tag_4:\n          tag_9\n          tag_10\n          jump\t// in\n        tag_9:\n          mload(0x40)\n          tag_11\n          swap2\n          swap1\n          tag_8\n          jump\t// in\n        tag_11:\n          mload(0x40)\n          dup1\n          swap2\n          sub\n          swap1\n          return\n            /* \"Fall-2023/Copy_Class08.sol\":90:103  uint public a */\n        tag_6:\n          sload(0x00)\n          dup2\n          jump\t// out\n            /* \"Fall-2023/Copy_Class08.sol\":163:235  function f1() public view returns(uint)... */\n        tag_10:\n            /* \"Fall-2023/Copy_Class08.sol\":197:201  uint */\n          0x00\n            /* \"Fall-2023/Copy_Class08.sol\":226:227  a */\n          dup1\n          sload\n            /* \"Fall-2023/Copy_Class08.sol\":219:227  return a */\n          swap1\n          pop\n            /* \"Fall-2023/Copy_Class08.sol\":163:235  function f1() public view returns(uint)... */\n          swap1\n          jump\t// out\n            /* \"#utility.yul\":7:84   */\n        tag_13:\n            /* \"#utility.yul\":44:51   */\n          0x00\n            /* \"#utility.yul\":73:78   */\n          dup2\n            /* \"#utility.yul\":62:78   */\n          swap1\n          pop\n            /* \"#utility.yul\":7:84   */\n          swap2\n          swap1\n          pop\n          jump\t// out\n            /* \"#utility.yul\":90:208   */\n        tag_14:\n            /* \"#utility.yul\":177:201   */\n          tag_18\n            /* \"#utility.yul\":195:200   */\n          dup2\n            /* \"#utility.yul\":177:201   */\n          tag_13\n          jump\t// in\n        tag_18:\n            /* \"#utility.yul\":172:175   */\n          dup3\n            /* \"#utility.yul\":165:202   */\n          mstore\n            /* \"#utility.yul\":90:208   */\n          pop\n          pop\n          jump\t// out\n            /* \"#utility.yul\":214:436   */\n        tag_8:\n            /* \"#utility.yul\":307:311   */\n          0x00\n            /* \"#utility.yul\":345:347   */\n          0x20\n            /* \"#utility.yul\":334:343   */\n          dup3\n            /* \"#utility.yul\":330:348   */\n          add\n            /* \"#utility.yul\":322:348   */\n          swap1\n          pop\n            /* \"#utility.yul\":358:429   */\n          tag_20\n            /* \"#utility.yul\":426:427   */\n          0x00\n            /* \"#utility.yul\":415:424   */\n          dup4\n            /* \"#utility.yul\":411:428   */\n          add\n            /* \"#utility.yul\":402:408   */\n          dup5\n            /* \"#utility.yul\":358:429   */\n          tag_14\n          jump\t// in\n        tag_20:\n            /* \"#utility.yul\":214:436   */\n          swap3\n          swap2\n          pop\n          pop\n          jump\t// out\n\n        auxdata: 0xa26469706673582212200aae01f213b7dbff969fafa587a28250c955b2349aac1fc25fda6604b5f59a8364736f6c63430008120033\n    }\n}\n",
				"bytecode": {
					"linkReferences": {},
					"object": "608060405260405161001090610110565b604051809103906000f08015801561002c573d6000803e3d6000fd5b506000806101000a81548173ffffffffffffffffffffffffffffffffffffffff021916908373ffffffffffffffffffffffffffffffffffffffff16021790555060008054906101000a900473ffffffffffffffffffffffffffffffffffffffff1673ffffffffffffffffffffffffffffffffffffffff1663c27fc3056040518163ffffffff1660e01b8152600401602060405180830381865afa1580156100d7573d6000803e3d6000fd5b505050506040513d601f19601f820116820180604052508101906100fb9190610158565b60015534801561010a57600080fd5b50610185565b6101078061024683390190565b600080fd5b6000819050919050565b61013581610122565b811461014057600080fd5b50565b6000815190506101528161012c565b92915050565b60006020828403121561016e5761016d61011d565b5b600061017c84828501610143565b91505092915050565b60b3806101936000396000f3fe6080604052348015600f57600080fd5b506004361060285760003560e01c80634df7e3d014602d575b600080fd5b60336047565b604051603e91906064565b60405180910390f35b60015481565b6000819050919050565b605e81604d565b82525050565b6000602082019050607760008301846057565b9291505056fea26469706673582212202859a605ebab2f6ec1bef65e207a34e8788065c61d9b8c020ae9895b638e918364736f6c63430008120033608060405234801561001057600080fd5b50600560008190555060e0806100276000396000f3fe6080604052348015600f57600080fd5b506004361060325760003560e01c80630dbe671f146037578063c27fc305146051575b600080fd5b603d606b565b604051604891906091565b60405180910390f35b60576071565b604051606291906091565b60405180910390f35b60005481565b60008054905090565b6000819050919050565b608b81607a565b82525050565b600060208201905060a460008301846084565b9291505056fea26469706673582212200aae01f213b7dbff969fafa587a28250c955b2349aac1fc25fda6604b5f59a8364736f6c63430008120033",
					"opcodes": "PUSH1 0x80 PUSH1 0x40 MSTORE PUSH1 0x40 MLOAD PUSH2 0x10 SWAP1 PUSH2 0x110 JUMP JUMPDEST PUSH1 0x40 MLOAD DUP1 SWAP2 SUB SWAP1 PUSH1 0x0 CREATE DUP1 ISZERO DUP1 ISZERO PUSH2 0x2C JUMPI RETURNDATASIZE PUSH1 0x0 DUP1 RETURNDATACOPY RETURNDATASIZE PUSH1 0x0 REVERT JUMPDEST POP PUSH1 0x0 DUP1 PUSH2 0x100 EXP DUP2 SLOAD DUP2 PUSH20 0xFFFFFFFFFFFFFFFFFFFFFFFFFFFFFFFFFFFFFFFF MUL NOT AND SWAP1 DUP4 PUSH20 0xFFFFFFFFFFFFFFFFFFFFFFFFFFFFFFFFFFFFFFFF AND MUL OR SWAP1 SSTORE POP PUSH1 0x0 DUP1 SLOAD SWAP1 PUSH2 0x100 EXP SWAP1 DIV PUSH20 0xFFFFFFFFFFFFFFFFFFFFFFFFFFFFFFFFFFFFFFFF AND PUSH20 0xFFFFFFFFFFFFFFFFFFFFFFFFFFFFFFFFFFFFFFFF AND PUSH4 0xC27FC305 PUSH1 0x40 MLOAD DUP2 PUSH4 0xFFFFFFFF AND PUSH1 0xE0 SHL DUP2 MSTORE PUSH1 0x4 ADD PUSH1 0x20 PUSH1 0x40 MLOAD DUP1 DUP4 SUB DUP2 DUP7 GAS STATICCALL ISZERO DUP1 ISZERO PUSH2 0xD7 JUMPI RETURNDATASIZE PUSH1 0x0 DUP1 RETURNDATACOPY RETURNDATASIZE PUSH1 0x0 REVERT JUMPDEST POP POP POP POP PUSH1 0x40 MLOAD RETURNDATASIZE PUSH1 0x1F NOT PUSH1 0x1F DUP3 ADD AND DUP3 ADD DUP1 PUSH1 0x40 MSTORE POP DUP2 ADD SWAP1 PUSH2 0xFB SWAP2 SWAP1 PUSH2 0x158 JUMP JUMPDEST PUSH1 0x1 SSTORE CALLVALUE DUP1 ISZERO PUSH2 0x10A JUMPI PUSH1 0x0 DUP1 REVERT JUMPDEST POP PUSH2 0x185 JUMP JUMPDEST PUSH2 0x107 DUP1 PUSH2 0x246 DUP4 CODECOPY ADD SWAP1 JUMP JUMPDEST PUSH1 0x0 DUP1 REVERT JUMPDEST PUSH1 0x0 DUP2 SWAP1 POP SWAP2 SWAP1 POP JUMP JUMPDEST PUSH2 0x135 DUP2 PUSH2 0x122 JUMP JUMPDEST DUP2 EQ PUSH2 0x140 JUMPI PUSH1 0x0 DUP1 REVERT JUMPDEST POP JUMP JUMPDEST PUSH1 0x0 DUP2 MLOAD SWAP1 POP PUSH2 0x152 DUP2 PUSH2 0x12C JUMP JUMPDEST SWAP3 SWAP2 POP POP JUMP JUMPDEST PUSH1 0x0 PUSH1 0x20 DUP3 DUP5 SUB SLT ISZERO PUSH2 0x16E JUMPI PUSH2 0x16D PUSH2 0x11D JUMP JUMPDEST JUMPDEST PUSH1 0x0 PUSH2 0x17C DUP5 DUP3 DUP6 ADD PUSH2 0x143 JUMP JUMPDEST SWAP2 POP POP SWAP3 SWAP2 POP POP JUMP JUMPDEST PUSH1 0xB3 DUP1 PUSH2 0x193 PUSH1 0x0 CODECOPY PUSH1 0x0 RETURN INVALID PUSH1 0x80 PUSH1 0x40 MSTORE CALLVALUE DUP1 ISZERO PUSH1 0xF JUMPI PUSH1 0x0 DUP1 REVERT JUMPDEST POP PUSH1 0x4 CALLDATASIZE LT PUSH1 0x28 JUMPI PUSH1 0x0 CALLDATALOAD PUSH1 0xE0 SHR DUP1 PUSH4 0x4DF7E3D0 EQ PUSH1 0x2D JUMPI JUMPDEST PUSH1 0x0 DUP1 REVERT JUMPDEST PUSH1 0x33 PUSH1 0x47 JUMP JUMPDEST PUSH1 0x40 MLOAD PUSH1 0x3E SWAP2 SWAP1 PUSH1 0x64 JUMP JUMPDEST PUSH1 0x40 MLOAD DUP1 SWAP2 SUB SWAP1 RETURN JUMPDEST PUSH1 0x1 SLOAD DUP2 JUMP JUMPDEST PUSH1 0x0 DUP2 SWAP1 POP SWAP2 SWAP1 POP JUMP JUMPDEST PUSH1 0x5E DUP2 PUSH1 0x4D JUMP JUMPDEST DUP3 MSTORE POP POP JUMP JUMPDEST PUSH1 0x0 PUSH1 0x20 DUP3 ADD SWAP1 POP PUSH1 0x77 PUSH1 0x0 DUP4 ADD DUP5 PUSH1 0x57 JUMP JUMPDEST SWAP3 SWAP2 POP POP JUMP INVALID LOG2 PUSH5 0x6970667358 0x22 SLT KECCAK256 0x28 MSIZE 0xA6 SDIV 0xEB 0xAB 0x2F PUSH15 0xC1BEF65E207A34E8788065C61D9B8C MUL EXP 0xE9 DUP10 JUMPDEST PUSH4 0x8E918364 PUSH20 0x6F6C634300081200336080604052348015610010 JUMPI PUSH1 0x0 DUP1 REVERT JUMPDEST POP PUSH1 0x5 PUSH1 0x0 DUP2 SWAP1 SSTORE POP PUSH1 0xE0 DUP1 PUSH2 0x27 PUSH1 0x0 CODECOPY PUSH1 0x0 RETURN INVALID PUSH1 0x80 PUSH1 0x40 MSTORE CALLVALUE DUP1 ISZERO PUSH1 0xF JUMPI PUSH1 0x0 DUP1 REVERT JUMPDEST POP PUSH1 0x4 CALLDATASIZE LT PUSH1 0x32 JUMPI PUSH1 0x0 CALLDATALOAD PUSH1 0xE0 SHR DUP1 PUSH4 0xDBE671F EQ PUSH1 0x37 JUMPI DUP1 PUSH4 0xC27FC305 EQ PUSH1 0x51 JUMPI JUMPDEST PUSH1 0x0 DUP1 REVERT JUMPDEST PUSH1 0x3D PUSH1 0x6B JUMP JUMPDEST PUSH1 0x40 MLOAD PUSH1 0x48 SWAP2 SWAP1 PUSH1 0x91 JUMP JUMPDEST PUSH1 0x40 MLOAD DUP1 SWAP2 SUB SWAP1 RETURN JUMPDEST PUSH1 0x57 PUSH1 0x71 JUMP JUMPDEST PUSH1 0x40 MLOAD PUSH1 0x62 SWAP2 SWAP1 PUSH1 0x91 JUMP JUMPDEST PUSH1 0x40 MLOAD DUP1 SWAP2 SUB SWAP1 RETURN JUMPDEST PUSH1 0x0 SLOAD DUP2 JUMP JUMPDEST PUSH1 0x0 DUP1 SLOAD SWAP1 POP SWAP1 JUMP JUMPDEST PUSH1 0x0 DUP2 SWAP1 POP SWAP2 SWAP1 POP JUMP JUMPDEST PUSH1 0x8B DUP2 PUSH1 0x7A JUMP JUMPDEST DUP3 MSTORE POP POP JUMP JUMPDEST PUSH1 0x0 PUSH1 0x20 DUP3 ADD SWAP1 POP PUSH1 0xA4 PUSH1 0x0 DUP4 ADD DUP5 PUSH1 0x84 JUMP JUMPDEST SWAP3 SWAP2 POP POP JUMP INVALID LOG2 PUSH5 0x6970667358 0x22 SLT KECCAK256 EXP 0xAE ADD CALLCODE SGT 0xB7 0xDB SELFDESTRUCT SWAP7 SWAP16 0xAF 0xA5 DUP8 LOG2 DUP3 POP 0xC9 SSTORE 0xB2 CALLVALUE SWAP11 0xAC 0x1F 0xC2 0x5F 0xDA PUSH7 0x4B5F59A836473 PUSH16 0x6C634300081200330000000000000000 "
				},
				"gasEstimates": {
					"creation": {
						"codeDepositCost": "35800",
						"executionCost": "infinite",
						"totalCost": "infinite"
					},
					"external": {
						"b()": "2407"
					}
				},
				"methodIdentifiers": {
					"b()": "4df7e3d0"
				}
			},
			"storageLayout": {
				"storage": [
					{
						"astId": 27,
						"contract": "Fall-2023/Copy_Class08.sol:B",
						"label": "obj",
						"offset": 0,
						"slot": "0",
						"type": "t_contract(A)20"
					},
					{
						"astId": 32,
						"contract": "Fall-2023/Copy_Class08.sol:B",
						"label": "b",
						"offset": 0,
						"slot": "1",
						"type": "t_uint256"
					}
				],
				"types": {
					"t_contract(A)20": {
						"encoding": "inplace",
						"label": "contract A",
						"numberOfBytes": "20"
					},
					"t_uint256": {
						"encoding": "inplace",
						"label": "uint256",
						"numberOfBytes": "32"
					}
				}
			},
			"userdoc": {
				"kind": "user",
				"methods": {},
				"version": 1
			}
		}
	}
}