{
	"Fall-2023/Copy_Class08.sol": {
		"A": {
			"abi": [
				{
					"inputs": [],
					"stateMutability": "nonpayable",
					"type": "constructor"
				},
				{
					"inputs": [],
					"name": "a",
					"outputs": [
						{
							"internalType": "uint256",
							"name": "",
							"type": "uint256"
						}
					],
					"stateMutability": "view",
					"type": "function"
				},
				{
					"inputs": [],
					"name": "f1",
					"outputs": [
						{
							"internalType": "uint256",
							"name": "",
							"type": "uint256"
						}
					],
					"stateMutability": "view",
					"type": "function"
				}
			],
			"devdoc": {
				"kind": "dev",
				"methods": {},
				"version": 1
			},
			"evm": {
				"assembly": "    /* \"Fall-2023/Copy_Class08.sol\":71:238  contract A... */\n  mstore(0x40, 0x80)\n    /* \"Fall-2023/Copy_Class08.sol\":112:155  constructor()... */\n  callvalue\n  dup1\n  iszero\n  tag_1\n  jumpi\n  0x00\n  dup1\n  revert\ntag_1:\n  pop\n    /* \"Fall-2023/Copy_Class08.sol\":146:147  5 */\n  0x05\n    /* \"Fall-2023/Copy_Class08.sol\":142:143  a */\n  0x00\n    /* \"Fall-2023/Copy_Class08.sol\":142:147  a = 5 */\n  dup2\n  swap1\n  sstore\n  pop\n    /* \"Fall-2023/Copy_Class08.sol\":71:238  contract A... */\n  dataSize(sub_0)\n  dup1\n  dataOffset(sub_0)\n  0x00\n  codecopy\n  0x00\n  return\nstop\n\nsub_0: assembly {\n        /* \"Fall-2023/Copy_Class08.sol\":71:238  contract A... */\n      mstore(0x40, 0x80)\n      callvalue\n      dup1\n      iszero\n      tag_1\n      jumpi\n      0x00\n      dup1\n      revert\n    tag_1:\n      pop\n      jumpi(tag_2, lt(calldatasize, 0x04))\n      shr(0xe0, calldataload(0x00))\n      dup1\n      0x0dbe671f\n      eq\n      tag_3\n      jumpi\n      dup1\n      0xc27fc305\n      eq\n      tag_4\n      jumpi\n    tag_2:\n      0x00\n      dup1\n      revert\n        /* \"Fall-2023/Copy_Class08.sol\":90:103  uint public a */\n    tag_3:\n      tag_5\n      tag_6\n      jump\t// in\n    tag_5:\n      mload(0x40)\n      tag_7\n      swap2\n      swap1\n      tag_8\n      jump\t// in\n    tag_7:\n      mload(0x40)\n      dup1\n      swap2\n      sub\n      swap1\n      return\n        /* \"Fall-2023/Copy_Class08.sol\":163:235  function f1() public view returns(uint)... */\n    tag_4:\n      tag_9\n      tag_10\n      jump\t// in\n    tag_9:\n      mload(0x40)\n      tag_11\n      swap2\n      swap1\n      tag_8\n      jump\t// in\n    tag_11:\n      mload(0x40)\n      dup1\n      swap2\n      sub\n      swap1\n      return\n        /* \"Fall-2023/Copy_Class08.sol\":90:103  uint public a */\n    tag_6:\n      sload(0x00)\n      dup2\n      jump\t// out\n        /* \"Fall-2023/Copy_Class08.sol\":163:235  function f1() public view returns(uint)... */\n    tag_10:\n        /* \"Fall-2023/Copy_Class08.sol\":197:201  uint */\n      0x00\n        /* \"Fall-2023/Copy_Class08.sol\":226:227  a */\n      dup1\n      sload\n        /* \"Fall-2023/Copy_Class08.sol\":219:227  return a */\n      swap1\n      pop\n        /* \"Fall-2023/Copy_Class08.sol\":163:235  function f1() public view returns(uint)... */\n      swap1\n      jump\t// out\n        /* \"#utility.yul\":7:84   */\n    tag_13:\n        /* \"#utility.yul\":44:51   */\n      0x00\n        /* \"#utility.yul\":73:78   */\n      dup2\n        /* \"#utility.yul\":62:78   */\n      swap1\n      pop\n        /* \"#utility.yul\":7:84   */\n      swap2\n      swap1\n      pop\n      jump\t// out\n        /* \"#utility.yul\":90:208   */\n    tag_14:\n        /* \"#utility.yul\":177:201   */\n      tag_18\n        /* \"#utility.yul\":195:200   */\n      dup2\n        /* \"#utility.yul\":177:201   */\n      tag_13\n      jump\t// in\n    tag_18:\n        /* \"#utility.yul\":172:175   */\n      dup3\n        /* \"#utility.yul\":165:202   */\n      mstore\n        /* \"#utility.yul\":90:208   */\n      pop\n      pop\n      jump\t// out\n        /* \"#utility.yul\":214:436   */\n    tag_8:\n        /* \"#utility.yul\":307:311   */\n      0x00\n        /* \"#utility.yul\":345:347   */\n      0x20\n        /* \"#utility.yul\":334:343   */\n      dup3\n        /* \"#utility.yul\":330:348   */\n      add\n        /* \"#utility.yul\":322:348   */\n      swap1\n      pop\n        /* \"#utility.yul\":358:429   */\n      tag_20\n        /* \"#utility.yul\":426:427   */\n      0x00\n        /* \"#utility.yul\":415:424   */\n      dup4\n        /* \"#utility.yul\":411:428   */\n      add\n        /* \"#utility.yul\":402:408   */\n      dup5\n        /* \"#utility.yul\":358:429   */\n      tag_14\n      jump\t// in\n    tag_20:\n        /* \"#utility.yul\":214:436   */\n      swap3\n      swap2\n      pop\n      pop\n      jump\t// out\n\n    auxdata: 0xa26469706673582212200aae01f213b7dbff969fafa587a28250c955b2349aac1fc25fda6604b5f59a8364736f6c63430008120033\n}\n",
				"bytecode": {
					"linkReferences": {},
					"object": "608060405234801561001057600080fd5b50600560008190555060e0806100276000396000f3fe6080604052348015600f57600080fd5b506004361060325760003560e01c80630dbe671f146037578063c27fc305146051575b600080fd5b603d606b565b604051604891906091565b60405180910390f35b60576071565b604051606291906091565b60405180910390f35b60005481565b60008054905090565b6000819050919050565b608b81607a565b82525050565b600060208201905060a460008301846084565b9291505056fea26469706673582212200aae01f213b7dbff969fafa587a28250c955b2349aac1fc25fda6604b5f59a8364736f6c63430008120033",
					"opcodes": "PUSH1 0x80 PUSH1 0x40 MSTORE CALLVALUE DUP1 ISZERO PUSH2 0x10 JUMPI PUSH1 0x0 DUP1 REVERT JUMPDEST POP PUSH1 0x5 PUSH1 0x0 DUP2 SWAP1 SSTORE POP PUSH1 0xE0 DUP1 PUSH2 0x27 PUSH1 0x0 CODECOPY PUSH1 0x0 RETURN INVALID PUSH1 0x80 PUSH1 0x40 MSTORE CALLVALUE DUP1 ISZERO PUSH1 0xF JUMPI PUSH1 0x0 DUP1 REVERT JUMPDEST POP PUSH1 0x4 CALLDATASIZE LT PUSH1 0x32 JUMPI PUSH1 0x0 CALLDATALOAD PUSH1 0xE0 SHR DUP1 PUSH4 0xDBE671F EQ PUSH1 0x37 JUMPI DUP1 PUSH4 0xC27FC305 EQ PUSH1 0x51 JUMPI JUMPDEST PUSH1 0x0 DUP1 REVERT JUMPDEST PUSH1 0x3D PUSH1 0x6B JUMP JUMPDEST PUSH1 0x40 MLOAD PUSH1 0x48 SWAP2 SWAP1 PUSH1 0x91 JUMP JUMPDEST PUSH1 0x40 MLOAD DUP1 SWAP2 SUB SWAP1 RETURN JUMPDEST PUSH1 0x57 PUSH1 0x71 JUMP JUMPDEST PUSH1 0x40 MLOAD PUSH1 0x62 SWAP2 SWAP1 PUSH1 0x91 JUMP JUMPDEST PUSH1 0x40 MLOAD DUP1 SWAP2 SUB SWAP1 RETURN JUMPDEST PUSH1 0x0 SLOAD DUP2 JUMP JUMPDEST PUSH1 0x0 DUP1 SLOAD SWAP1 POP SWAP1 JUMP JUMPDEST PUSH1 0x0 DUP2 SWAP1 POP SWAP2 SWAP1 POP JUMP JUMPDEST PUSH1 0x8B DUP2 PUSH1 0x7A JUMP JUMPDEST DUP3 MSTORE POP POP JUMP JUMPDEST PUSH1 0x0 PUSH1 0x20 DUP3 ADD SWAP1 POP PUSH1 0xA4 PUSH1 0x0 DUP4 ADD DUP5 PUSH1 0x84 JUMP JUMPDEST SWAP3 SWAP2 POP POP JUMP INVALID LOG2 PUSH5 0x6970667358 0x22 SLT KECCAK256 EXP 0xAE ADD CALLCODE SGT 0xB7 0xDB SELFDESTRUCT SWAP7 SWAP16 0xAF 0xA5 DUP8 LOG2 DUP3 POP 0xC9 SSTORE 0xB2 CALLVALUE SWAP11 0xAC 0x1F 0xC2 0x5F 0xDA PUSH7 0x4B5F59A836473 PUSH16 0x6C634300081200330000000000000000 "
				},
				"gasEstimates": {
					"creation": {
						"codeDepositCost": "44800",
						"executionCost": "22207",
						"totalCost": "67007"
					},
					"external": {
						"a()": "2407",
						"f1()": "2437"
					}
				},
				"methodIdentifiers": {
					"a()": "0dbe671f",
					"f1()": "c27fc305"
				}
			},
			"storageLayout": {
				"storage": [
					{
						"astId": 3,
						"contract": "Fall-2023/Copy_Class08.sol:A",
						"label": "a",
						"offset": 0,
						"slot": "0",
						"type": "t_uint256"
					}
				],
				"types": {
					"t_uint256": {
						"encoding": "inplace",
						"label": "uint256",
						"numberOfBytes": "32"
					}
				}
			},
			"userdoc": {
				"kind": "user",
				"methods": {},
				"version": 1
			}
		}
	}
}