{
	"Fall-2023/11_ByteArray_Bytes2.sol": {
		"ByteArray": {
			"abi": [
				{
					"inputs": [],
					"name": "getDynamicLength",
					"outputs": [
						{
							"internalType": "uint256",
							"name": "",
							"type": "uint256"
						}
					],
					"stateMutability": "view",
					"type": "function"
				},
				{
					"inputs": [],
					"name": "getStaticLength",
					"outputs": [
						{
							"internalType": "uint256",
							"name": "",
							"type": "uint256"
						}
					],
					"stateMutability": "view",
					"type": "function"
				},
				{
					"inputs": [
						{
							"internalType": "uint256",
							"name": "index",
							"type": "uint256"
						}
					],
					"name": "getValueDynamic",
					"outputs": [
						{
							"internalType": "bytes2",
							"name": "",
							"type": "bytes2"
						}
					],
					"stateMutability": "view",
					"type": "function"
				},
				{
					"inputs": [
						{
							"internalType": "uint256",
							"name": "index",
							"type": "uint256"
						}
					],
					"name": "getValueStatic",
					"outputs": [
						{
							"internalType": "bytes2",
							"name": "",
							"type": "bytes2"
						}
					],
					"stateMutability": "view",
					"type": "function"
				},
				{
					"inputs": [
						{
							"internalType": "bytes2",
							"name": "_b2",
							"type": "bytes2"
						}
					],
					"name": "setValueDynamic",
					"outputs": [],
					"stateMutability": "nonpayable",
					"type": "function"
				},
				{
					"inputs": [
						{
							"internalType": "bytes1",
							"name": "_b1",
							"type": "bytes1"
						}
					],
					"name": "setValueDynamicOne",
					"outputs": [],
					"stateMutability": "nonpayable",
					"type": "function"
				},
				{
					"inputs": [
						{
							"internalType": "uint256",
							"name": "index",
							"type": "uint256"
						},
						{
							"internalType": "bytes2",
							"name": "_b2",
							"type": "bytes2"
						}
					],
					"name": "setValueStatic",
					"outputs": [],
					"stateMutability": "nonpayable",
					"type": "function"
				},
				{
					"inputs": [
						{
							"internalType": "uint256",
							"name": "index",
							"type": "uint256"
						},
						{
							"internalType": "bytes1",
							"name": "_b1",
							"type": "bytes1"
						}
					],
					"name": "setValueStaticOne",
					"outputs": [],
					"stateMutability": "nonpayable",
					"type": "function"
				}
			],
			"devdoc": {
				"kind": "dev",
				"methods": {},
				"version": 1
			},
			"evm": {
				"assembly": "    /* \"Fall-2023/11_ByteArray_Bytes2.sol\":92:972  contract ByteArray... */\n  mstore(0x40, 0x80)\n  callvalue\n  dup1\n  iszero\n  tag_1\n  jumpi\n  0x00\n  dup1\n  revert\ntag_1:\n  pop\n  dataSize(sub_0)\n  dup1\n  dataOffset(sub_0)\n  0x00\n  codecopy\n  0x00\n  return\nstop\n\nsub_0: assembly {\n        /* \"Fall-2023/11_ByteArray_Bytes2.sol\":92:972  contract ByteArray... */\n      mstore(0x40, 0x80)\n      callvalue\n      dup1\n      iszero\n      tag_1\n      jumpi\n      0x00\n      dup1\n      revert\n    tag_1:\n      pop\n      jumpi(tag_2, lt(calldatasize, 0x04))\n      shr(0xe0, calldataload(0x00))\n      dup1\n      0x7c54d48e\n      gt\n      tag_11\n      jumpi\n      dup1\n      0x7c54d48e\n      eq\n      tag_7\n      jumpi\n      dup1\n      0x8199140e\n      eq\n      tag_8\n      jumpi\n      dup1\n      0xe35bb29e\n      eq\n      tag_9\n      jumpi\n      dup1\n      0xea27b65b\n      eq\n      tag_10\n      jumpi\n      jump(tag_2)\n    tag_11:\n      dup1\n      0x030aef6c\n      eq\n      tag_3\n      jumpi\n      dup1\n      0x14d2360c\n      eq\n      tag_4\n      jumpi\n      dup1\n      0x1bcc1be8\n      eq\n      tag_5\n      jumpi\n      dup1\n      0x6aaa2b7e\n      eq\n      tag_6\n      jumpi\n    tag_2:\n      0x00\n      dup1\n      revert\n        /* \"Fall-2023/11_ByteArray_Bytes2.sol\":583:667  function setValueDynamicOne(bytes1 _b1) public {... */\n    tag_3:\n      tag_12\n      0x04\n      dup1\n      calldatasize\n      sub\n      dup2\n      add\n      swap1\n      tag_13\n      swap2\n      swap1\n      tag_14\n      jump\t// in\n    tag_13:\n      tag_15\n      jump\t// in\n    tag_12:\n      stop\n        /* \"Fall-2023/11_ByteArray_Bytes2.sol\":483:575  function getStaticLength() public view returns(uint){... */\n    tag_4:\n      tag_16\n      tag_17\n      jump\t// in\n    tag_16:\n      mload(0x40)\n      tag_18\n      swap2\n      swap1\n      tag_19\n      jump\t// in\n    tag_18:\n      mload(0x40)\n      dup1\n      swap2\n      sub\n      swap1\n      return\n        /* \"Fall-2023/11_ByteArray_Bytes2.sol\":673:754  function setValueDynamic(bytes2 _b2) public {... */\n    tag_5:\n      tag_20\n      0x04\n      dup1\n      calldatasize\n      sub\n      dup2\n      add\n      swap1\n      tag_21\n      swap2\n      swap1\n      tag_22\n      jump\t// in\n    tag_21:\n      tag_23\n      jump\t// in\n    tag_20:\n      stop\n        /* \"Fall-2023/11_ByteArray_Bytes2.sol\":374:477  function getValueStatic(uint index) public view returns(bytes2){... */\n    tag_6:\n      tag_24\n      0x04\n      dup1\n      calldatasize\n      sub\n      dup2\n      add\n      swap1\n      tag_25\n      swap2\n      swap1\n      tag_26\n      jump\t// in\n    tag_25:\n      tag_27\n      jump\t// in\n    tag_24:\n      mload(0x40)\n      tag_28\n      swap2\n      swap1\n      tag_29\n      jump\t// in\n    tag_28:\n      mload(0x40)\n      dup1\n      swap2\n      sub\n      swap1\n      return\n        /* \"Fall-2023/11_ByteArray_Bytes2.sol\":171:268  function setValueStaticOne(uint index, bytes1 _b1) public {... */\n    tag_7:\n      tag_30\n      0x04\n      dup1\n      calldatasize\n      sub\n      dup2\n      add\n      swap1\n      tag_31\n      swap2\n      swap1\n      tag_32\n      jump\t// in\n    tag_31:\n      tag_33\n      jump\t// in\n    tag_30:\n      stop\n        /* \"Fall-2023/11_ByteArray_Bytes2.sol\":760:865  function getValueDynamic(uint index) public view returns(bytes2){... */\n    tag_8:\n      tag_34\n      0x04\n      dup1\n      calldatasize\n      sub\n      dup2\n      add\n      swap1\n      tag_35\n      swap2\n      swap1\n      tag_26\n      jump\t// in\n    tag_35:\n      tag_36\n      jump\t// in\n    tag_34:\n      mload(0x40)\n      tag_37\n      swap2\n      swap1\n      tag_29\n      jump\t// in\n    tag_37:\n      mload(0x40)\n      dup1\n      swap2\n      sub\n      swap1\n      return\n        /* \"Fall-2023/11_ByteArray_Bytes2.sol\":274:368  function setValueStatic(uint index, bytes2 _b2) public {... */\n    tag_9:\n      tag_38\n      0x04\n      dup1\n      calldatasize\n      sub\n      dup2\n      add\n      swap1\n      tag_39\n      swap2\n      swap1\n      tag_40\n      jump\t// in\n    tag_39:\n      tag_41\n      jump\t// in\n    tag_38:\n      stop\n        /* \"Fall-2023/11_ByteArray_Bytes2.sol\":873:967  function getDynamicLength() public view returns(uint){... */\n    tag_10:\n      tag_42\n      tag_43\n      jump\t// in\n    tag_42:\n      mload(0x40)\n      tag_44\n      swap2\n      swap1\n      tag_19\n      jump\t// in\n    tag_44:\n      mload(0x40)\n      dup1\n      swap2\n      sub\n      swap1\n      return\n        /* \"Fall-2023/11_ByteArray_Bytes2.sol\":583:667  function setValueDynamicOne(bytes1 _b1) public {... */\n    tag_15:\n        /* \"Fall-2023/11_ByteArray_Bytes2.sol\":641:649  bDynamic */\n      0x00\n        /* \"Fall-2023/11_ByteArray_Bytes2.sol\":655:658  _b1 */\n      dup2\n        /* \"Fall-2023/11_ByteArray_Bytes2.sol\":641:659  bDynamic.push(_b1) */\n      swap1\n      dup1\n      0x01\n      dup2\n      sload\n      add\n      dup1\n      dup3\n      sstore\n      dup1\n      swap2\n      pop\n      pop\n      0x01\n      swap1\n      sub\n      swap1\n      0x00\n      mstore\n      keccak256(0x00, 0x20)\n      swap1\n      0x10\n      swap2\n      dup3\n      dup3\n      div\n      add\n      swap2\n      swap1\n      mod\n      0x02\n      mul\n      swap1\n      swap2\n      not(0xffffffffffffffffffffffffffffffffffffffffffffffffffffffffffffff)\n      and\n      swap1\n      swap2\n      swap1\n      swap2\n      0x0100\n      exp\n      dup2\n      sload\n      dup2\n      0xffff\n      mul\n      not\n      and\n      swap1\n      dup4\n      0xf0\n      shr\n      mul\n      or\n      swap1\n      sstore\n      pop\n        /* \"Fall-2023/11_ByteArray_Bytes2.sol\":583:667  function setValueDynamicOne(bytes1 _b1) public {... */\n      pop\n      jump\t// out\n        /* \"Fall-2023/11_ByteArray_Bytes2.sol\":483:575  function getStaticLength() public view returns(uint){... */\n    tag_17:\n        /* \"Fall-2023/11_ByteArray_Bytes2.sol\":530:534  uint */\n      0x00\n        /* \"Fall-2023/11_ByteArray_Bytes2.sol\":553:567  bStatic.length */\n      0x03\n        /* \"Fall-2023/11_ByteArray_Bytes2.sol\":546:567  return bStatic.length */\n      swap1\n      pop\n        /* \"Fall-2023/11_ByteArray_Bytes2.sol\":483:575  function getStaticLength() public view returns(uint){... */\n      swap1\n      jump\t// out\n        /* \"Fall-2023/11_ByteArray_Bytes2.sol\":673:754  function setValueDynamic(bytes2 _b2) public {... */\n    tag_23:\n        /* \"Fall-2023/11_ByteArray_Bytes2.sol\":728:736  bDynamic */\n      0x00\n        /* \"Fall-2023/11_ByteArray_Bytes2.sol\":742:745  _b2 */\n      dup2\n        /* \"Fall-2023/11_ByteArray_Bytes2.sol\":728:746  bDynamic.push(_b2) */\n      swap1\n      dup1\n      0x01\n      dup2\n      sload\n      add\n      dup1\n      dup3\n      sstore\n      dup1\n      swap2\n      pop\n      pop\n      0x01\n      swap1\n      sub\n      swap1\n      0x00\n      mstore\n      keccak256(0x00, 0x20)\n      swap1\n      0x10\n      swap2\n      dup3\n      dup3\n      div\n      add\n      swap2\n      swap1\n      mod\n      0x02\n      mul\n      swap1\n      swap2\n      swap1\n      swap2\n      swap1\n      swap2\n      0x0100\n      exp\n      dup2\n      sload\n      dup2\n      0xffff\n      mul\n      not\n      and\n      swap1\n      dup4\n      0xf0\n      shr\n      mul\n      or\n      swap1\n      sstore\n      pop\n        /* \"Fall-2023/11_ByteArray_Bytes2.sol\":673:754  function setValueDynamic(bytes2 _b2) public {... */\n      pop\n      jump\t// out\n        /* \"Fall-2023/11_ByteArray_Bytes2.sol\":374:477  function getValueStatic(uint index) public view returns(bytes2){... */\n    tag_27:\n        /* \"Fall-2023/11_ByteArray_Bytes2.sol\":430:436  bytes2 */\n      0x00\n        /* \"Fall-2023/11_ByteArray_Bytes2.sol\":455:462  bStatic */\n      0x01\n        /* \"Fall-2023/11_ByteArray_Bytes2.sol\":463:468  index */\n      dup3\n        /* \"Fall-2023/11_ByteArray_Bytes2.sol\":455:469  bStatic[index] */\n      0x03\n      dup2\n      lt\n      tag_51\n      jumpi\n      tag_52\n      tag_53\n      jump\t// in\n    tag_52:\n    tag_51:\n      0x10\n      swap2\n      dup3\n      dup3\n      div\n      add\n      swap2\n      swap1\n      mod\n      0x02\n      mul\n      swap1\n      sload\n      swap1\n      0x0100\n      exp\n      swap1\n      div\n      0xf0\n      shl\n        /* \"Fall-2023/11_ByteArray_Bytes2.sol\":448:469  return bStatic[index] */\n      swap1\n      pop\n        /* \"Fall-2023/11_ByteArray_Bytes2.sol\":374:477  function getValueStatic(uint index) public view returns(bytes2){... */\n      swap2\n      swap1\n      pop\n      jump\t// out\n        /* \"Fall-2023/11_ByteArray_Bytes2.sol\":171:268  function setValueStaticOne(uint index, bytes1 _b1) public {... */\n    tag_33:\n        /* \"Fall-2023/11_ByteArray_Bytes2.sol\":257:260  _b1 */\n      dup1\n        /* \"Fall-2023/11_ByteArray_Bytes2.sol\":240:260  bStatic[index] = _b1 */\n      not(0xffffffffffffffffffffffffffffffffffffffffffffffffffffffffffffff)\n      and\n        /* \"Fall-2023/11_ByteArray_Bytes2.sol\":240:247  bStatic */\n      0x01\n        /* \"Fall-2023/11_ByteArray_Bytes2.sol\":248:253  index */\n      dup4\n        /* \"Fall-2023/11_ByteArray_Bytes2.sol\":240:254  bStatic[index] */\n      0x03\n      dup2\n      lt\n      tag_56\n      jumpi\n      tag_57\n      tag_53\n      jump\t// in\n    tag_57:\n    tag_56:\n      0x10\n      swap2\n      dup3\n      dup3\n      div\n      add\n      swap2\n      swap1\n      mod\n      0x02\n      mul\n        /* \"Fall-2023/11_ByteArray_Bytes2.sol\":240:260  bStatic[index] = _b1 */\n      0x0100\n      exp\n      dup2\n      sload\n      dup2\n      0xffff\n      mul\n      not\n      and\n      swap1\n      dup4\n      0xf0\n      shr\n      mul\n      or\n      swap1\n      sstore\n      pop\n        /* \"Fall-2023/11_ByteArray_Bytes2.sol\":171:268  function setValueStaticOne(uint index, bytes1 _b1) public {... */\n      pop\n      pop\n      jump\t// out\n        /* \"Fall-2023/11_ByteArray_Bytes2.sol\":760:865  function getValueDynamic(uint index) public view returns(bytes2){... */\n    tag_36:\n        /* \"Fall-2023/11_ByteArray_Bytes2.sol\":817:823  bytes2 */\n      0x00\n        /* \"Fall-2023/11_ByteArray_Bytes2.sol\":842:850  bDynamic */\n      dup1\n        /* \"Fall-2023/11_ByteArray_Bytes2.sol\":851:856  index */\n      dup3\n        /* \"Fall-2023/11_ByteArray_Bytes2.sol\":842:857  bDynamic[index] */\n      dup2\n      sload\n      dup2\n      lt\n      tag_60\n      jumpi\n      tag_61\n      tag_53\n      jump\t// in\n    tag_61:\n    tag_60:\n      swap1\n      0x00\n      mstore\n      keccak256(0x00, 0x20)\n      swap1\n      0x10\n      swap2\n      dup3\n      dup3\n      div\n      add\n      swap2\n      swap1\n      mod\n      0x02\n      mul\n      swap1\n      sload\n      swap1\n      0x0100\n      exp\n      swap1\n      div\n      0xf0\n      shl\n        /* \"Fall-2023/11_ByteArray_Bytes2.sol\":835:857  return bDynamic[index] */\n      swap1\n      pop\n        /* \"Fall-2023/11_ByteArray_Bytes2.sol\":760:865  function getValueDynamic(uint index) public view returns(bytes2){... */\n      swap2\n      swap1\n      pop\n      jump\t// out\n        /* \"Fall-2023/11_ByteArray_Bytes2.sol\":274:368  function setValueStatic(uint index, bytes2 _b2) public {... */\n    tag_41:\n        /* \"Fall-2023/11_ByteArray_Bytes2.sol\":357:360  _b2 */\n      dup1\n        /* \"Fall-2023/11_ByteArray_Bytes2.sol\":340:347  bStatic */\n      0x01\n        /* \"Fall-2023/11_ByteArray_Bytes2.sol\":348:353  index */\n      dup4\n        /* \"Fall-2023/11_ByteArray_Bytes2.sol\":340:354  bStatic[index] */\n      0x03\n      dup2\n      lt\n      tag_64\n      jumpi\n      tag_65\n      tag_53\n      jump\t// in\n    tag_65:\n    tag_64:\n      0x10\n      swap2\n      dup3\n      dup3\n      div\n      add\n      swap2\n      swap1\n      mod\n      0x02\n      mul\n        /* \"Fall-2023/11_ByteArray_Bytes2.sol\":340:360  bStatic[index] = _b2 */\n      0x0100\n      exp\n      dup2\n      sload\n      dup2\n      0xffff\n      mul\n      not\n      and\n      swap1\n      dup4\n      0xf0\n      shr\n      mul\n      or\n      swap1\n      sstore\n      pop\n        /* \"Fall-2023/11_ByteArray_Bytes2.sol\":274:368  function setValueStatic(uint index, bytes2 _b2) public {... */\n      pop\n      pop\n      jump\t// out\n        /* \"Fall-2023/11_ByteArray_Bytes2.sol\":873:967  function getDynamicLength() public view returns(uint){... */\n    tag_43:\n        /* \"Fall-2023/11_ByteArray_Bytes2.sol\":921:925  uint */\n      0x00\n        /* \"Fall-2023/11_ByteArray_Bytes2.sol\":944:952  bDynamic */\n      dup1\n        /* \"Fall-2023/11_ByteArray_Bytes2.sol\":944:959  bDynamic.length */\n      dup1\n      sload\n      swap1\n      pop\n        /* \"Fall-2023/11_ByteArray_Bytes2.sol\":937:959  return bDynamic.length */\n      swap1\n      pop\n        /* \"Fall-2023/11_ByteArray_Bytes2.sol\":873:967  function getDynamicLength() public view returns(uint){... */\n      swap1\n      jump\t// out\n        /* \"#utility.yul\":88:205   */\n    tag_69:\n        /* \"#utility.yul\":197:198   */\n      0x00\n        /* \"#utility.yul\":194:195   */\n      dup1\n        /* \"#utility.yul\":187:199   */\n      revert\n        /* \"#utility.yul\":334:483   */\n    tag_71:\n        /* \"#utility.yul\":370:377   */\n      0x00\n        /* \"#utility.yul\":410:476   */\n      0xff00000000000000000000000000000000000000000000000000000000000000\n        /* \"#utility.yul\":403:408   */\n      dup3\n        /* \"#utility.yul\":399:477   */\n      and\n        /* \"#utility.yul\":388:477   */\n      swap1\n      pop\n        /* \"#utility.yul\":334:483   */\n      swap2\n      swap1\n      pop\n      jump\t// out\n        /* \"#utility.yul\":489:609   */\n    tag_72:\n        /* \"#utility.yul\":561:584   */\n      tag_88\n        /* \"#utility.yul\":578:583   */\n      dup2\n        /* \"#utility.yul\":561:584   */\n      tag_71\n      jump\t// in\n    tag_88:\n        /* \"#utility.yul\":554:559   */\n      dup2\n        /* \"#utility.yul\":551:585   */\n      eq\n        /* \"#utility.yul\":541:603   */\n      tag_89\n      jumpi\n        /* \"#utility.yul\":599:600   */\n      0x00\n        /* \"#utility.yul\":596:597   */\n      dup1\n        /* \"#utility.yul\":589:601   */\n      revert\n        /* \"#utility.yul\":541:603   */\n    tag_89:\n        /* \"#utility.yul\":489:609   */\n      pop\n      jump\t// out\n        /* \"#utility.yul\":615:752   */\n    tag_73:\n        /* \"#utility.yul\":660:665   */\n      0x00\n        /* \"#utility.yul\":698:704   */\n      dup2\n        /* \"#utility.yul\":685:705   */\n      calldataload\n        /* \"#utility.yul\":676:705   */\n      swap1\n      pop\n        /* \"#utility.yul\":714:746   */\n      tag_91\n        /* \"#utility.yul\":740:745   */\n      dup2\n        /* \"#utility.yul\":714:746   */\n      tag_72\n      jump\t// in\n    tag_91:\n        /* \"#utility.yul\":615:752   */\n      swap3\n      swap2\n      pop\n      pop\n      jump\t// out\n        /* \"#utility.yul\":758:1085   */\n    tag_14:\n        /* \"#utility.yul\":816:822   */\n      0x00\n        /* \"#utility.yul\":865:867   */\n      0x20\n        /* \"#utility.yul\":853:862   */\n      dup3\n        /* \"#utility.yul\":844:851   */\n      dup5\n        /* \"#utility.yul\":840:863   */\n      sub\n        /* \"#utility.yul\":836:868   */\n      slt\n        /* \"#utility.yul\":833:952   */\n      iszero\n      tag_93\n      jumpi\n        /* \"#utility.yul\":871:950   */\n      tag_94\n      tag_69\n      jump\t// in\n    tag_94:\n        /* \"#utility.yul\":833:952   */\n    tag_93:\n        /* \"#utility.yul\":991:992   */\n      0x00\n        /* \"#utility.yul\":1016:1068   */\n      tag_95\n        /* \"#utility.yul\":1060:1067   */\n      dup5\n        /* \"#utility.yul\":1051:1057   */\n      dup3\n        /* \"#utility.yul\":1040:1049   */\n      dup6\n        /* \"#utility.yul\":1036:1058   */\n      add\n        /* \"#utility.yul\":1016:1068   */\n      tag_73\n      jump\t// in\n    tag_95:\n        /* \"#utility.yul\":1006:1068   */\n      swap2\n      pop\n        /* \"#utility.yul\":962:1078   */\n      pop\n        /* \"#utility.yul\":758:1085   */\n      swap3\n      swap2\n      pop\n      pop\n      jump\t// out\n        /* \"#utility.yul\":1091:1168   */\n    tag_74:\n        /* \"#utility.yul\":1128:1135   */\n      0x00\n        /* \"#utility.yul\":1157:1162   */\n      dup2\n        /* \"#utility.yul\":1146:1162   */\n      swap1\n      pop\n        /* \"#utility.yul\":1091:1168   */\n      swap2\n      swap1\n      pop\n      jump\t// out\n        /* \"#utility.yul\":1174:1292   */\n    tag_75:\n        /* \"#utility.yul\":1261:1285   */\n      tag_98\n        /* \"#utility.yul\":1279:1284   */\n      dup2\n        /* \"#utility.yul\":1261:1285   */\n      tag_74\n      jump\t// in\n    tag_98:\n        /* \"#utility.yul\":1256:1259   */\n      dup3\n        /* \"#utility.yul\":1249:1286   */\n      mstore\n        /* \"#utility.yul\":1174:1292   */\n      pop\n      pop\n      jump\t// out\n        /* \"#utility.yul\":1298:1520   */\n    tag_19:\n        /* \"#utility.yul\":1391:1395   */\n      0x00\n        /* \"#utility.yul\":1429:1431   */\n      0x20\n        /* \"#utility.yul\":1418:1427   */\n      dup3\n        /* \"#utility.yul\":1414:1432   */\n      add\n        /* \"#utility.yul\":1406:1432   */\n      swap1\n      pop\n        /* \"#utility.yul\":1442:1513   */\n      tag_100\n        /* \"#utility.yul\":1510:1511   */\n      0x00\n        /* \"#utility.yul\":1499:1508   */\n      dup4\n        /* \"#utility.yul\":1495:1512   */\n      add\n        /* \"#utility.yul\":1486:1492   */\n      dup5\n        /* \"#utility.yul\":1442:1513   */\n      tag_75\n      jump\t// in\n    tag_100:\n        /* \"#utility.yul\":1298:1520   */\n      swap3\n      swap2\n      pop\n      pop\n      jump\t// out\n        /* \"#utility.yul\":1526:1675   */\n    tag_76:\n        /* \"#utility.yul\":1562:1569   */\n      0x00\n        /* \"#utility.yul\":1602:1668   */\n      0xffff000000000000000000000000000000000000000000000000000000000000\n        /* \"#utility.yul\":1595:1600   */\n      dup3\n        /* \"#utility.yul\":1591:1669   */\n      and\n        /* \"#utility.yul\":1580:1669   */\n      swap1\n      pop\n        /* \"#utility.yul\":1526:1675   */\n      swap2\n      swap1\n      pop\n      jump\t// out\n        /* \"#utility.yul\":1681:1801   */\n    tag_77:\n        /* \"#utility.yul\":1753:1776   */\n      tag_103\n        /* \"#utility.yul\":1770:1775   */\n      dup2\n        /* \"#utility.yul\":1753:1776   */\n      tag_76\n      jump\t// in\n    tag_103:\n        /* \"#utility.yul\":1746:1751   */\n      dup2\n        /* \"#utility.yul\":1743:1777   */\n      eq\n        /* \"#utility.yul\":1733:1795   */\n      tag_104\n      jumpi\n        /* \"#utility.yul\":1791:1792   */\n      0x00\n        /* \"#utility.yul\":1788:1789   */\n      dup1\n        /* \"#utility.yul\":1781:1793   */\n      revert\n        /* \"#utility.yul\":1733:1795   */\n    tag_104:\n        /* \"#utility.yul\":1681:1801   */\n      pop\n      jump\t// out\n        /* \"#utility.yul\":1807:1944   */\n    tag_78:\n        /* \"#utility.yul\":1852:1857   */\n      0x00\n        /* \"#utility.yul\":1890:1896   */\n      dup2\n        /* \"#utility.yul\":1877:1897   */\n      calldataload\n        /* \"#utility.yul\":1868:1897   */\n      swap1\n      pop\n        /* \"#utility.yul\":1906:1938   */\n      tag_106\n        /* \"#utility.yul\":1932:1937   */\n      dup2\n        /* \"#utility.yul\":1906:1938   */\n      tag_77\n      jump\t// in\n    tag_106:\n        /* \"#utility.yul\":1807:1944   */\n      swap3\n      swap2\n      pop\n      pop\n      jump\t// out\n        /* \"#utility.yul\":1950:2277   */\n    tag_22:\n        /* \"#utility.yul\":2008:2014   */\n      0x00\n        /* \"#utility.yul\":2057:2059   */\n      0x20\n        /* \"#utility.yul\":2045:2054   */\n      dup3\n        /* \"#utility.yul\":2036:2043   */\n      dup5\n        /* \"#utility.yul\":2032:2055   */\n      sub\n        /* \"#utility.yul\":2028:2060   */\n      slt\n        /* \"#utility.yul\":2025:2144   */\n      iszero\n      tag_108\n      jumpi\n        /* \"#utility.yul\":2063:2142   */\n      tag_109\n      tag_69\n      jump\t// in\n    tag_109:\n        /* \"#utility.yul\":2025:2144   */\n    tag_108:\n        /* \"#utility.yul\":2183:2184   */\n      0x00\n        /* \"#utility.yul\":2208:2260   */\n      tag_110\n        /* \"#utility.yul\":2252:2259   */\n      dup5\n        /* \"#utility.yul\":2243:2249   */\n      dup3\n        /* \"#utility.yul\":2232:2241   */\n      dup6\n        /* \"#utility.yul\":2228:2250   */\n      add\n        /* \"#utility.yul\":2208:2260   */\n      tag_78\n      jump\t// in\n    tag_110:\n        /* \"#utility.yul\":2198:2260   */\n      swap2\n      pop\n        /* \"#utility.yul\":2154:2270   */\n      pop\n        /* \"#utility.yul\":1950:2277   */\n      swap3\n      swap2\n      pop\n      pop\n      jump\t// out\n        /* \"#utility.yul\":2283:2405   */\n    tag_79:\n        /* \"#utility.yul\":2356:2380   */\n      tag_112\n        /* \"#utility.yul\":2374:2379   */\n      dup2\n        /* \"#utility.yul\":2356:2380   */\n      tag_74\n      jump\t// in\n    tag_112:\n        /* \"#utility.yul\":2349:2354   */\n      dup2\n        /* \"#utility.yul\":2346:2381   */\n      eq\n        /* \"#utility.yul\":2336:2399   */\n      tag_113\n      jumpi\n        /* \"#utility.yul\":2395:2396   */\n      0x00\n        /* \"#utility.yul\":2392:2393   */\n      dup1\n        /* \"#utility.yul\":2385:2397   */\n      revert\n        /* \"#utility.yul\":2336:2399   */\n    tag_113:\n        /* \"#utility.yul\":2283:2405   */\n      pop\n      jump\t// out\n        /* \"#utility.yul\":2411:2550   */\n    tag_80:\n        /* \"#utility.yul\":2457:2462   */\n      0x00\n        /* \"#utility.yul\":2495:2501   */\n      dup2\n        /* \"#utility.yul\":2482:2502   */\n      calldataload\n        /* \"#utility.yul\":2473:2502   */\n      swap1\n      pop\n        /* \"#utility.yul\":2511:2544   */\n      tag_115\n        /* \"#utility.yul\":2538:2543   */\n      dup2\n        /* \"#utility.yul\":2511:2544   */\n      tag_79\n      jump\t// in\n    tag_115:\n        /* \"#utility.yul\":2411:2550   */\n      swap3\n      swap2\n      pop\n      pop\n      jump\t// out\n        /* \"#utility.yul\":2556:2885   */\n    tag_26:\n        /* \"#utility.yul\":2615:2621   */\n      0x00\n        /* \"#utility.yul\":2664:2666   */\n      0x20\n        /* \"#utility.yul\":2652:2661   */\n      dup3\n        /* \"#utility.yul\":2643:2650   */\n      dup5\n        /* \"#utility.yul\":2639:2662   */\n      sub\n        /* \"#utility.yul\":2635:2667   */\n      slt\n        /* \"#utility.yul\":2632:2751   */\n      iszero\n      tag_117\n      jumpi\n        /* \"#utility.yul\":2670:2749   */\n      tag_118\n      tag_69\n      jump\t// in\n    tag_118:\n        /* \"#utility.yul\":2632:2751   */\n    tag_117:\n        /* \"#utility.yul\":2790:2791   */\n      0x00\n        /* \"#utility.yul\":2815:2868   */\n      tag_119\n        /* \"#utility.yul\":2860:2867   */\n      dup5\n        /* \"#utility.yul\":2851:2857   */\n      dup3\n        /* \"#utility.yul\":2840:2849   */\n      dup6\n        /* \"#utility.yul\":2836:2858   */\n      add\n        /* \"#utility.yul\":2815:2868   */\n      tag_80\n      jump\t// in\n    tag_119:\n        /* \"#utility.yul\":2805:2868   */\n      swap2\n      pop\n        /* \"#utility.yul\":2761:2878   */\n      pop\n        /* \"#utility.yul\":2556:2885   */\n      swap3\n      swap2\n      pop\n      pop\n      jump\t// out\n        /* \"#utility.yul\":2891:3006   */\n    tag_81:\n        /* \"#utility.yul\":2976:2999   */\n      tag_121\n        /* \"#utility.yul\":2993:2998   */\n      dup2\n        /* \"#utility.yul\":2976:2999   */\n      tag_76\n      jump\t// in\n    tag_121:\n        /* \"#utility.yul\":2971:2974   */\n      dup3\n        /* \"#utility.yul\":2964:3000   */\n      mstore\n        /* \"#utility.yul\":2891:3006   */\n      pop\n      pop\n      jump\t// out\n        /* \"#utility.yul\":3012:3230   */\n    tag_29:\n        /* \"#utility.yul\":3103:3107   */\n      0x00\n        /* \"#utility.yul\":3141:3143   */\n      0x20\n        /* \"#utility.yul\":3130:3139   */\n      dup3\n        /* \"#utility.yul\":3126:3144   */\n      add\n        /* \"#utility.yul\":3118:3144   */\n      swap1\n      pop\n        /* \"#utility.yul\":3154:3223   */\n      tag_123\n        /* \"#utility.yul\":3220:3221   */\n      0x00\n        /* \"#utility.yul\":3209:3218   */\n      dup4\n        /* \"#utility.yul\":3205:3222   */\n      add\n        /* \"#utility.yul\":3196:3202   */\n      dup5\n        /* \"#utility.yul\":3154:3223   */\n      tag_81\n      jump\t// in\n    tag_123:\n        /* \"#utility.yul\":3012:3230   */\n      swap3\n      swap2\n      pop\n      pop\n      jump\t// out\n        /* \"#utility.yul\":3236:3708   */\n    tag_32:\n        /* \"#utility.yul\":3303:3309   */\n      0x00\n        /* \"#utility.yul\":3311:3317   */\n      dup1\n        /* \"#utility.yul\":3360:3362   */\n      0x40\n        /* \"#utility.yul\":3348:3357   */\n      dup4\n        /* \"#utility.yul\":3339:3346   */\n      dup6\n        /* \"#utility.yul\":3335:3358   */\n      sub\n        /* \"#utility.yul\":3331:3363   */\n      slt\n        /* \"#utility.yul\":3328:3447   */\n      iszero\n      tag_125\n      jumpi\n        /* \"#utility.yul\":3366:3445   */\n      tag_126\n      tag_69\n      jump\t// in\n    tag_126:\n        /* \"#utility.yul\":3328:3447   */\n    tag_125:\n        /* \"#utility.yul\":3486:3487   */\n      0x00\n        /* \"#utility.yul\":3511:3564   */\n      tag_127\n        /* \"#utility.yul\":3556:3563   */\n      dup6\n        /* \"#utility.yul\":3547:3553   */\n      dup3\n        /* \"#utility.yul\":3536:3545   */\n      dup7\n        /* \"#utility.yul\":3532:3554   */\n      add\n        /* \"#utility.yul\":3511:3564   */\n      tag_80\n      jump\t// in\n    tag_127:\n        /* \"#utility.yul\":3501:3564   */\n      swap3\n      pop\n        /* \"#utility.yul\":3457:3574   */\n      pop\n        /* \"#utility.yul\":3613:3615   */\n      0x20\n        /* \"#utility.yul\":3639:3691   */\n      tag_128\n        /* \"#utility.yul\":3683:3690   */\n      dup6\n        /* \"#utility.yul\":3674:3680   */\n      dup3\n        /* \"#utility.yul\":3663:3672   */\n      dup7\n        /* \"#utility.yul\":3659:3681   */\n      add\n        /* \"#utility.yul\":3639:3691   */\n      tag_73\n      jump\t// in\n    tag_128:\n        /* \"#utility.yul\":3629:3691   */\n      swap2\n      pop\n        /* \"#utility.yul\":3584:3701   */\n      pop\n        /* \"#utility.yul\":3236:3708   */\n      swap3\n      pop\n      swap3\n      swap1\n      pop\n      jump\t// out\n        /* \"#utility.yul\":3714:4186   */\n    tag_40:\n        /* \"#utility.yul\":3781:3787   */\n      0x00\n        /* \"#utility.yul\":3789:3795   */\n      dup1\n        /* \"#utility.yul\":3838:3840   */\n      0x40\n        /* \"#utility.yul\":3826:3835   */\n      dup4\n        /* \"#utility.yul\":3817:3824   */\n      dup6\n        /* \"#utility.yul\":3813:3836   */\n      sub\n        /* \"#utility.yul\":3809:3841   */\n      slt\n        /* \"#utility.yul\":3806:3925   */\n      iszero\n      tag_130\n      jumpi\n        /* \"#utility.yul\":3844:3923   */\n      tag_131\n      tag_69\n      jump\t// in\n    tag_131:\n        /* \"#utility.yul\":3806:3925   */\n    tag_130:\n        /* \"#utility.yul\":3964:3965   */\n      0x00\n        /* \"#utility.yul\":3989:4042   */\n      tag_132\n        /* \"#utility.yul\":4034:4041   */\n      dup6\n        /* \"#utility.yul\":4025:4031   */\n      dup3\n        /* \"#utility.yul\":4014:4023   */\n      dup7\n        /* \"#utility.yul\":4010:4032   */\n      add\n        /* \"#utility.yul\":3989:4042   */\n      tag_80\n      jump\t// in\n    tag_132:\n        /* \"#utility.yul\":3979:4042   */\n      swap3\n      pop\n        /* \"#utility.yul\":3935:4052   */\n      pop\n        /* \"#utility.yul\":4091:4093   */\n      0x20\n        /* \"#utility.yul\":4117:4169   */\n      tag_133\n        /* \"#utility.yul\":4161:4168   */\n      dup6\n        /* \"#utility.yul\":4152:4158   */\n      dup3\n        /* \"#utility.yul\":4141:4150   */\n      dup7\n        /* \"#utility.yul\":4137:4159   */\n      add\n        /* \"#utility.yul\":4117:4169   */\n      tag_78\n      jump\t// in\n    tag_133:\n        /* \"#utility.yul\":4107:4169   */\n      swap2\n      pop\n        /* \"#utility.yul\":4062:4179   */\n      pop\n        /* \"#utility.yul\":3714:4186   */\n      swap3\n      pop\n      swap3\n      swap1\n      pop\n      jump\t// out\n        /* \"#utility.yul\":4192:4372   */\n    tag_53:\n        /* \"#utility.yul\":4240:4317   */\n      0x4e487b7100000000000000000000000000000000000000000000000000000000\n        /* \"#utility.yul\":4237:4238   */\n      0x00\n        /* \"#utility.yul\":4230:4318   */\n      mstore\n        /* \"#utility.yul\":4337:4341   */\n      0x32\n        /* \"#utility.yul\":4334:4335   */\n      0x04\n        /* \"#utility.yul\":4327:4342   */\n      mstore\n        /* \"#utility.yul\":4361:4365   */\n      0x24\n        /* \"#utility.yul\":4358:4359   */\n      0x00\n        /* \"#utility.yul\":4351:4366   */\n      revert\n\n    auxdata: 0xa26469706673582212204b7fe5dc4ac8c4f0e3a37431bceff65b15ff394e09d7011f173244978d8fcf8b64736f6c63430008120033\n}\n",
				"bytecode": {
					"linkReferences": {},
					"object": "608060405234801561001057600080fd5b50610624806100206000396000f3fe608060405234801561001057600080fd5b50600436106100885760003560e01c80637c54d48e1161005b5780637c54d48e146101135780638199140e1461012f578063e35bb29e1461015f578063ea27b65b1461017b57610088565b8063030aef6c1461008d57806314d2360c146100a95780631bcc1be8146100c75780636aaa2b7e146100e3575b600080fd5b6100a760048036038101906100a291906103d6565b610199565b005b6100b1610207565b6040516100be919061041c565b60405180910390f35b6100e160048036038101906100dc919061048f565b610210565b005b6100fd60048036038101906100f891906104e8565b61025c565b60405161010a9190610524565b60405180910390f35b61012d6004803603810190610128919061053f565b610292565b005b610149600480360381019061014491906104e8565b6102f1565b6040516101569190610524565b60405180910390f35b6101796004803603810190610174919061057f565b610330565b005b61018361036d565b604051610190919061041c565b60405180910390f35b600081908060018154018082558091505060019003906000526020600020906010918282040191900660020290917effffffffffffffffffffffffffffffffffffffffffffffffffffffffffffff1916909190916101000a81548161ffff021916908360f01c021790555050565b60006003905090565b60008190806001815401808255809150506001900390600052602060002090601091828204019190066002029091909190916101000a81548161ffff021916908360f01c021790555050565b600060018260038110610272576102716105bf565b5b601091828204019190066002029054906101000a900460f01b9050919050565b807effffffffffffffffffffffffffffffffffffffffffffffffffffffffffffff1916600183600381106102c9576102c86105bf565b5b601091828204019190066002026101000a81548161ffff021916908360f01c02179055505050565b6000808281548110610306576103056105bf565b5b90600052602060002090601091828204019190066002029054906101000a900460f01b9050919050565b8060018360038110610345576103446105bf565b5b601091828204019190066002026101000a81548161ffff021916908360f01c02179055505050565b60008080549050905090565b600080fd5b60007fff0000000000000000000000000000000000000000000000000000000000000082169050919050565b6103b38161037e565b81146103be57600080fd5b50565b6000813590506103d0816103aa565b92915050565b6000602082840312156103ec576103eb610379565b5b60006103fa848285016103c1565b91505092915050565b6000819050919050565b61041681610403565b82525050565b6000602082019050610431600083018461040d565b92915050565b60007fffff00000000000000000000000000000000000000000000000000000000000082169050919050565b61046c81610437565b811461047757600080fd5b50565b60008135905061048981610463565b92915050565b6000602082840312156104a5576104a4610379565b5b60006104b38482850161047a565b91505092915050565b6104c581610403565b81146104d057600080fd5b50565b6000813590506104e2816104bc565b92915050565b6000602082840312156104fe576104fd610379565b5b600061050c848285016104d3565b91505092915050565b61051e81610437565b82525050565b60006020820190506105396000830184610515565b92915050565b6000806040838503121561055657610555610379565b5b6000610564858286016104d3565b9250506020610575858286016103c1565b9150509250929050565b6000806040838503121561059657610595610379565b5b60006105a4858286016104d3565b92505060206105b58582860161047a565b9150509250929050565b7f4e487b7100000000000000000000000000000000000000000000000000000000600052603260045260246000fdfea26469706673582212204b7fe5dc4ac8c4f0e3a37431bceff65b15ff394e09d7011f173244978d8fcf8b64736f6c63430008120033",
					"opcodes": "PUSH1 0x80 PUSH1 0x40 MSTORE CALLVALUE DUP1 ISZERO PUSH2 0x10 JUMPI PUSH1 0x0 DUP1 REVERT JUMPDEST POP PUSH2 0x624 DUP1 PUSH2 0x20 PUSH1 0x0 CODECOPY PUSH1 0x0 RETURN INVALID PUSH1 0x80 PUSH1 0x40 MSTORE CALLVALUE DUP1 ISZERO PUSH2 0x10 JUMPI PUSH1 0x0 DUP1 REVERT JUMPDEST POP PUSH1 0x4 CALLDATASIZE LT PUSH2 0x88 JUMPI PUSH1 0x0 CALLDATALOAD PUSH1 0xE0 SHR DUP1 PUSH4 0x7C54D48E GT PUSH2 0x5B JUMPI DUP1 PUSH4 0x7C54D48E EQ PUSH2 0x113 JUMPI DUP1 PUSH4 0x8199140E EQ PUSH2 0x12F JUMPI DUP1 PUSH4 0xE35BB29E EQ PUSH2 0x15F JUMPI DUP1 PUSH4 0xEA27B65B EQ PUSH2 0x17B JUMPI PUSH2 0x88 JUMP JUMPDEST DUP1 PUSH4 0x30AEF6C EQ PUSH2 0x8D JUMPI DUP1 PUSH4 0x14D2360C EQ PUSH2 0xA9 JUMPI DUP1 PUSH4 0x1BCC1BE8 EQ PUSH2 0xC7 JUMPI DUP1 PUSH4 0x6AAA2B7E EQ PUSH2 0xE3 JUMPI JUMPDEST PUSH1 0x0 DUP1 REVERT JUMPDEST PUSH2 0xA7 PUSH1 0x4 DUP1 CALLDATASIZE SUB DUP2 ADD SWAP1 PUSH2 0xA2 SWAP2 SWAP1 PUSH2 0x3D6 JUMP JUMPDEST PUSH2 0x199 JUMP JUMPDEST STOP JUMPDEST PUSH2 0xB1 PUSH2 0x207 JUMP JUMPDEST PUSH1 0x40 MLOAD PUSH2 0xBE SWAP2 SWAP1 PUSH2 0x41C JUMP JUMPDEST PUSH1 0x40 MLOAD DUP1 SWAP2 SUB SWAP1 RETURN JUMPDEST PUSH2 0xE1 PUSH1 0x4 DUP1 CALLDATASIZE SUB DUP2 ADD SWAP1 PUSH2 0xDC SWAP2 SWAP1 PUSH2 0x48F JUMP JUMPDEST PUSH2 0x210 JUMP JUMPDEST STOP JUMPDEST PUSH2 0xFD PUSH1 0x4 DUP1 CALLDATASIZE SUB DUP2 ADD SWAP1 PUSH2 0xF8 SWAP2 SWAP1 PUSH2 0x4E8 JUMP JUMPDEST PUSH2 0x25C JUMP JUMPDEST PUSH1 0x40 MLOAD PUSH2 0x10A SWAP2 SWAP1 PUSH2 0x524 JUMP JUMPDEST PUSH1 0x40 MLOAD DUP1 SWAP2 SUB SWAP1 RETURN JUMPDEST PUSH2 0x12D PUSH1 0x4 DUP1 CALLDATASIZE SUB DUP2 ADD SWAP1 PUSH2 0x128 SWAP2 SWAP1 PUSH2 0x53F JUMP JUMPDEST PUSH2 0x292 JUMP JUMPDEST STOP JUMPDEST PUSH2 0x149 PUSH1 0x4 DUP1 CALLDATASIZE SUB DUP2 ADD SWAP1 PUSH2 0x144 SWAP2 SWAP1 PUSH2 0x4E8 JUMP JUMPDEST PUSH2 0x2F1 JUMP JUMPDEST PUSH1 0x40 MLOAD PUSH2 0x156 SWAP2 SWAP1 PUSH2 0x524 JUMP JUMPDEST PUSH1 0x40 MLOAD DUP1 SWAP2 SUB SWAP1 RETURN JUMPDEST PUSH2 0x179 PUSH1 0x4 DUP1 CALLDATASIZE SUB DUP2 ADD SWAP1 PUSH2 0x174 SWAP2 SWAP1 PUSH2 0x57F JUMP JUMPDEST PUSH2 0x330 JUMP JUMPDEST STOP JUMPDEST PUSH2 0x183 PUSH2 0x36D JUMP JUMPDEST PUSH1 0x40 MLOAD PUSH2 0x190 SWAP2 SWAP1 PUSH2 0x41C JUMP JUMPDEST PUSH1 0x40 MLOAD DUP1 SWAP2 SUB SWAP1 RETURN JUMPDEST PUSH1 0x0 DUP2 SWAP1 DUP1 PUSH1 0x1 DUP2 SLOAD ADD DUP1 DUP3 SSTORE DUP1 SWAP2 POP POP PUSH1 0x1 SWAP1 SUB SWAP1 PUSH1 0x0 MSTORE PUSH1 0x20 PUSH1 0x0 KECCAK256 SWAP1 PUSH1 0x10 SWAP2 DUP3 DUP3 DIV ADD SWAP2 SWAP1 MOD PUSH1 0x2 MUL SWAP1 SWAP2 PUSH31 0xFFFFFFFFFFFFFFFFFFFFFFFFFFFFFFFFFFFFFFFFFFFFFFFFFFFFFFFFFFFFFF NOT AND SWAP1 SWAP2 SWAP1 SWAP2 PUSH2 0x100 EXP DUP2 SLOAD DUP2 PUSH2 0xFFFF MUL NOT AND SWAP1 DUP4 PUSH1 0xF0 SHR MUL OR SWAP1 SSTORE POP POP JUMP JUMPDEST PUSH1 0x0 PUSH1 0x3 SWAP1 POP SWAP1 JUMP JUMPDEST PUSH1 0x0 DUP2 SWAP1 DUP1 PUSH1 0x1 DUP2 SLOAD ADD DUP1 DUP3 SSTORE DUP1 SWAP2 POP POP PUSH1 0x1 SWAP1 SUB SWAP1 PUSH1 0x0 MSTORE PUSH1 0x20 PUSH1 0x0 KECCAK256 SWAP1 PUSH1 0x10 SWAP2 DUP3 DUP3 DIV ADD SWAP2 SWAP1 MOD PUSH1 0x2 MUL SWAP1 SWAP2 SWAP1 SWAP2 SWAP1 SWAP2 PUSH2 0x100 EXP DUP2 SLOAD DUP2 PUSH2 0xFFFF MUL NOT AND SWAP1 DUP4 PUSH1 0xF0 SHR MUL OR SWAP1 SSTORE POP POP JUMP JUMPDEST PUSH1 0x0 PUSH1 0x1 DUP3 PUSH1 0x3 DUP2 LT PUSH2 0x272 JUMPI PUSH2 0x271 PUSH2 0x5BF JUMP JUMPDEST JUMPDEST PUSH1 0x10 SWAP2 DUP3 DUP3 DIV ADD SWAP2 SWAP1 MOD PUSH1 0x2 MUL SWAP1 SLOAD SWAP1 PUSH2 0x100 EXP SWAP1 DIV PUSH1 0xF0 SHL SWAP1 POP SWAP2 SWAP1 POP JUMP JUMPDEST DUP1 PUSH31 0xFFFFFFFFFFFFFFFFFFFFFFFFFFFFFFFFFFFFFFFFFFFFFFFFFFFFFFFFFFFFFF NOT AND PUSH1 0x1 DUP4 PUSH1 0x3 DUP2 LT PUSH2 0x2C9 JUMPI PUSH2 0x2C8 PUSH2 0x5BF JUMP JUMPDEST JUMPDEST PUSH1 0x10 SWAP2 DUP3 DUP3 DIV ADD SWAP2 SWAP1 MOD PUSH1 0x2 MUL PUSH2 0x100 EXP DUP2 SLOAD DUP2 PUSH2 0xFFFF MUL NOT AND SWAP1 DUP4 PUSH1 0xF0 SHR MUL OR SWAP1 SSTORE POP POP POP JUMP JUMPDEST PUSH1 0x0 DUP1 DUP3 DUP2 SLOAD DUP2 LT PUSH2 0x306 JUMPI PUSH2 0x305 PUSH2 0x5BF JUMP JUMPDEST JUMPDEST SWAP1 PUSH1 0x0 MSTORE PUSH1 0x20 PUSH1 0x0 KECCAK256 SWAP1 PUSH1 0x10 SWAP2 DUP3 DUP3 DIV ADD SWAP2 SWAP1 MOD PUSH1 0x2 MUL SWAP1 SLOAD SWAP1 PUSH2 0x100 EXP SWAP1 DIV PUSH1 0xF0 SHL SWAP1 POP SWAP2 SWAP1 POP JUMP JUMPDEST DUP1 PUSH1 0x1 DUP4 PUSH1 0x3 DUP2 LT PUSH2 0x345 JUMPI PUSH2 0x344 PUSH2 0x5BF JUMP JUMPDEST JUMPDEST PUSH1 0x10 SWAP2 DUP3 DUP3 DIV ADD SWAP2 SWAP1 MOD PUSH1 0x2 MUL PUSH2 0x100 EXP DUP2 SLOAD DUP2 PUSH2 0xFFFF MUL NOT AND SWAP1 DUP4 PUSH1 0xF0 SHR MUL OR SWAP1 SSTORE POP POP POP JUMP JUMPDEST PUSH1 0x0 DUP1 DUP1 SLOAD SWAP1 POP SWAP1 POP SWAP1 JUMP JUMPDEST PUSH1 0x0 DUP1 REVERT JUMPDEST PUSH1 0x0 PUSH32 0xFF00000000000000000000000000000000000000000000000000000000000000 DUP3 AND SWAP1 POP SWAP2 SWAP1 POP JUMP JUMPDEST PUSH2 0x3B3 DUP2 PUSH2 0x37E JUMP JUMPDEST DUP2 EQ PUSH2 0x3BE JUMPI PUSH1 0x0 DUP1 REVERT JUMPDEST POP JUMP JUMPDEST PUSH1 0x0 DUP2 CALLDATALOAD SWAP1 POP PUSH2 0x3D0 DUP2 PUSH2 0x3AA JUMP JUMPDEST SWAP3 SWAP2 POP POP JUMP JUMPDEST PUSH1 0x0 PUSH1 0x20 DUP3 DUP5 SUB SLT ISZERO PUSH2 0x3EC JUMPI PUSH2 0x3EB PUSH2 0x379 JUMP JUMPDEST JUMPDEST PUSH1 0x0 PUSH2 0x3FA DUP5 DUP3 DUP6 ADD PUSH2 0x3C1 JUMP JUMPDEST SWAP2 POP POP SWAP3 SWAP2 POP POP JUMP JUMPDEST PUSH1 0x0 DUP2 SWAP1 POP SWAP2 SWAP1 POP JUMP JUMPDEST PUSH2 0x416 DUP2 PUSH2 0x403 JUMP JUMPDEST DUP3 MSTORE POP POP JUMP JUMPDEST PUSH1 0x0 PUSH1 0x20 DUP3 ADD SWAP1 POP PUSH2 0x431 PUSH1 0x0 DUP4 ADD DUP5 PUSH2 0x40D JUMP JUMPDEST SWAP3 SWAP2 POP POP JUMP JUMPDEST PUSH1 0x0 PUSH32 0xFFFF000000000000000000000000000000000000000000000000000000000000 DUP3 AND SWAP1 POP SWAP2 SWAP1 POP JUMP JUMPDEST PUSH2 0x46C DUP2 PUSH2 0x437 JUMP JUMPDEST DUP2 EQ PUSH2 0x477 JUMPI PUSH1 0x0 DUP1 REVERT JUMPDEST POP JUMP JUMPDEST PUSH1 0x0 DUP2 CALLDATALOAD SWAP1 POP PUSH2 0x489 DUP2 PUSH2 0x463 JUMP JUMPDEST SWAP3 SWAP2 POP POP JUMP JUMPDEST PUSH1 0x0 PUSH1 0x20 DUP3 DUP5 SUB SLT ISZERO PUSH2 0x4A5 JUMPI PUSH2 0x4A4 PUSH2 0x379 JUMP JUMPDEST JUMPDEST PUSH1 0x0 PUSH2 0x4B3 DUP5 DUP3 DUP6 ADD PUSH2 0x47A JUMP JUMPDEST SWAP2 POP POP SWAP3 SWAP2 POP POP JUMP JUMPDEST PUSH2 0x4C5 DUP2 PUSH2 0x403 JUMP JUMPDEST DUP2 EQ PUSH2 0x4D0 JUMPI PUSH1 0x0 DUP1 REVERT JUMPDEST POP JUMP JUMPDEST PUSH1 0x0 DUP2 CALLDATALOAD SWAP1 POP PUSH2 0x4E2 DUP2 PUSH2 0x4BC JUMP JUMPDEST SWAP3 SWAP2 POP POP JUMP JUMPDEST PUSH1 0x0 PUSH1 0x20 DUP3 DUP5 SUB SLT ISZERO PUSH2 0x4FE JUMPI PUSH2 0x4FD PUSH2 0x379 JUMP JUMPDEST JUMPDEST PUSH1 0x0 PUSH2 0x50C DUP5 DUP3 DUP6 ADD PUSH2 0x4D3 JUMP JUMPDEST SWAP2 POP POP SWAP3 SWAP2 POP POP JUMP JUMPDEST PUSH2 0x51E DUP2 PUSH2 0x437 JUMP JUMPDEST DUP3 MSTORE POP POP JUMP JUMPDEST PUSH1 0x0 PUSH1 0x20 DUP3 ADD SWAP1 POP PUSH2 0x539 PUSH1 0x0 DUP4 ADD DUP5 PUSH2 0x515 JUMP JUMPDEST SWAP3 SWAP2 POP POP JUMP JUMPDEST PUSH1 0x0 DUP1 PUSH1 0x40 DUP4 DUP6 SUB SLT ISZERO PUSH2 0x556 JUMPI PUSH2 0x555 PUSH2 0x379 JUMP JUMPDEST JUMPDEST PUSH1 0x0 PUSH2 0x564 DUP6 DUP3 DUP7 ADD PUSH2 0x4D3 JUMP JUMPDEST SWAP3 POP POP PUSH1 0x20 PUSH2 0x575 DUP6 DUP3 DUP7 ADD PUSH2 0x3C1 JUMP JUMPDEST SWAP2 POP POP SWAP3 POP SWAP3 SWAP1 POP JUMP JUMPDEST PUSH1 0x0 DUP1 PUSH1 0x40 DUP4 DUP6 SUB SLT ISZERO PUSH2 0x596 JUMPI PUSH2 0x595 PUSH2 0x379 JUMP JUMPDEST JUMPDEST PUSH1 0x0 PUSH2 0x5A4 DUP6 DUP3 DUP7 ADD PUSH2 0x4D3 JUMP JUMPDEST SWAP3 POP POP PUSH1 0x20 PUSH2 0x5B5 DUP6 DUP3 DUP7 ADD PUSH2 0x47A JUMP JUMPDEST SWAP2 POP POP SWAP3 POP SWAP3 SWAP1 POP JUMP JUMPDEST PUSH32 0x4E487B7100000000000000000000000000000000000000000000000000000000 PUSH1 0x0 MSTORE PUSH1 0x32 PUSH1 0x4 MSTORE PUSH1 0x24 PUSH1 0x0 REVERT INVALID LOG2 PUSH5 0x6970667358 0x22 SLT KECCAK256 0x4B PUSH32 0xE5DC4AC8C4F0E3A37431BCEFF65B15FF394E09D7011F173244978D8FCF8B6473 PUSH16 0x6C634300081200330000000000000000 "
				},
				"gasEstimates": {
					"creation": {
						"codeDepositCost": "314400",
						"executionCost": "355",
						"totalCost": "314755"
					},
					"external": {
						"getDynamicLength()": "2511",
						"getStaticLength()": "360",
						"getValueDynamic(uint256)": "6582",
						"getValueStatic(uint256)": "4473",
						"setValueDynamic(bytes2)": "50672",
						"setValueDynamicOne(bytes1)": "50637",
						"setValueStatic(uint256,bytes2)": "26558",
						"setValueStaticOne(uint256,bytes1)": "26523"
					}
				},
				"methodIdentifiers": {
					"getDynamicLength()": "ea27b65b",
					"getStaticLength()": "14d2360c",
					"getValueDynamic(uint256)": "8199140e",
					"getValueStatic(uint256)": "6aaa2b7e",
					"setValueDynamic(bytes2)": "1bcc1be8",
					"setValueDynamicOne(bytes1)": "030aef6c",
					"setValueStatic(uint256,bytes2)": "e35bb29e",
					"setValueStaticOne(uint256,bytes1)": "7c54d48e"
				}
			},
			"storageLayout": {
				"storage": [
					{
						"astId": 4,
						"contract": "Fall-2023/11_ByteArray_Bytes2.sol:ByteArray",
						"label": "bDynamic",
						"offset": 0,
						"slot": "0",
						"type": "t_array(t_bytes2)dyn_storage"
					},
					{
						"astId": 8,
						"contract": "Fall-2023/11_ByteArray_Bytes2.sol:ByteArray",
						"label": "bStatic",
						"offset": 0,
						"slot": "1",
						"type": "t_array(t_bytes2)3_storage"
					}
				],
				"types": {
					"t_array(t_bytes2)3_storage": {
						"base": "t_bytes2",
						"encoding": "inplace",
						"label": "bytes2[3]",
						"numberOfBytes": "32"
					},
					"t_array(t_bytes2)dyn_storage": {
						"base": "t_bytes2",
						"encoding": "dynamic_array",
						"label": "bytes2[]",
						"numberOfBytes": "32"
					},
					"t_bytes2": {
						"encoding": "inplace",
						"label": "bytes2",
						"numberOfBytes": "2"
					}
				}
			},
			"userdoc": {
				"kind": "user",
				"methods": {},
				"version": 1
			}
		}
	}
}