{
	"Fall-2023/07_FixedArray.sol": {
		"FixedArray": {
			"abi": [
				{
					"inputs": [],
					"name": "getFixedArray",
					"outputs": [
						{
							"internalType": "uint256[3]",
							"name": "",
							"type": "uint256[3]"
						}
					],
					"stateMutability": "pure",
					"type": "function"
				},
				{
					"inputs": [],
					"name": "getFixedMultipleArrays",
					"outputs": [
						{
							"internalType": "uint256[3]",
							"name": "",
							"type": "uint256[3]"
						},
						{
							"internalType": "uint256[3]",
							"name": "",
							"type": "uint256[3]"
						}
					],
					"stateMutability": "pure",
					"type": "function"
				},
				{
					"inputs": [],
					"name": "getLength",
					"outputs": [
						{
							"internalType": "uint256",
							"name": "",
							"type": "uint256"
						}
					],
					"stateMutability": "view",
					"type": "function"
				},
				{
					"inputs": [
						{
							"internalType": "uint256",
							"name": "index",
							"type": "uint256"
						}
					],
					"name": "getValueAt",
					"outputs": [
						{
							"internalType": "uint256",
							"name": "",
							"type": "uint256"
						}
					],
					"stateMutability": "view",
					"type": "function"
				},
				{
					"inputs": [],
					"name": "getValues",
					"outputs": [
						{
							"internalType": "uint256[5]",
							"name": "",
							"type": "uint256[5]"
						}
					],
					"stateMutability": "view",
					"type": "function"
				},
				{
					"inputs": [
						{
							"internalType": "uint256",
							"name": "index",
							"type": "uint256"
						},
						{
							"internalType": "uint256",
							"name": "value",
							"type": "uint256"
						}
					],
					"name": "setValue",
					"outputs": [],
					"stateMutability": "nonpayable",
					"type": "function"
				},
				{
					"inputs": [
						{
							"internalType": "uint256[3]",
							"name": "values",
							"type": "uint256[3]"
						}
					],
					"name": "setValues",
					"outputs": [],
					"stateMutability": "nonpayable",
					"type": "function"
				}
			],
			"devdoc": {
				"kind": "dev",
				"methods": {},
				"version": 1
			},
			"evm": {
				"assembly": "    /* \"Fall-2023/07_FixedArray.sol\":92:1779  contract FixedArray... */\n  mstore(0x40, 0x80)\n  callvalue\n  dup1\n  iszero\n  tag_1\n  jumpi\n  0x00\n  dup1\n  revert\ntag_1:\n  pop\n  dataSize(sub_0)\n  dup1\n  dataOffset(sub_0)\n  0x00\n  codecopy\n  0x00\n  return\nstop\n\nsub_0: assembly {\n        /* \"Fall-2023/07_FixedArray.sol\":92:1779  contract FixedArray... */\n      mstore(0x40, 0x80)\n      callvalue\n      dup1\n      iszero\n      tag_1\n      jumpi\n      0x00\n      dup1\n      revert\n    tag_1:\n      pop\n      jumpi(tag_2, lt(calldatasize, 0x04))\n      shr(0xe0, calldataload(0x00))\n      dup1\n      0xa692574c\n      gt\n      tag_10\n      jumpi\n      dup1\n      0xa692574c\n      eq\n      tag_6\n      jumpi\n      dup1\n      0xbc6b888b\n      eq\n      tag_7\n      jumpi\n      dup1\n      0xbe1c766b\n      eq\n      tag_8\n      jumpi\n      dup1\n      0xe0cb6a9a\n      eq\n      tag_9\n      jumpi\n      jump(tag_2)\n    tag_10:\n      dup1\n      0x19eb4a90\n      eq\n      tag_3\n      jumpi\n      dup1\n      0x7b8d56e3\n      eq\n      tag_4\n      jumpi\n      dup1\n      0x89e5ec80\n      eq\n      tag_5\n      jumpi\n    tag_2:\n      0x00\n      dup1\n      revert\n        /* \"Fall-2023/07_FixedArray.sol\":442:534  function getValues() public view returns(uint[5] memory) ... */\n    tag_3:\n      tag_11\n      tag_12\n      jump\t// in\n    tag_11:\n      mload(0x40)\n      tag_13\n      swap2\n      swap1\n      tag_14\n      jump\t// in\n    tag_13:\n      mload(0x40)\n      dup1\n      swap2\n      sub\n      swap1\n      return\n        /* \"Fall-2023/07_FixedArray.sol\":140:231  function setValue(uint index, uint value) public... */\n    tag_4:\n      tag_15\n      0x04\n      dup1\n      calldatasize\n      sub\n      dup2\n      add\n      swap1\n      tag_16\n      swap2\n      swap1\n      tag_17\n      jump\t// in\n    tag_16:\n      tag_18\n      jump\t// in\n    tag_15:\n      stop\n        /* \"Fall-2023/07_FixedArray.sol\":542:747  function setValues(uint[3] memory values) public // Pass array in argument, enter [4,5,6] from interface... */\n    tag_5:\n      tag_19\n      0x04\n      dup1\n      calldatasize\n      sub\n      dup2\n      add\n      swap1\n      tag_20\n      swap2\n      swap1\n      tag_21\n      jump\t// in\n    tag_20:\n      tag_22\n      jump\t// in\n    tag_19:\n      stop\n        /* \"Fall-2023/07_FixedArray.sol\":1175:1776  function getFixedMultipleArrays() public pure returns (uint[3] memory, uint[3] memory) {... */\n    tag_6:\n      tag_23\n      tag_24\n      jump\t// in\n    tag_23:\n      mload(0x40)\n      tag_25\n      swap3\n      swap2\n      swap1\n      tag_26\n      jump\t// in\n    tag_25:\n      mload(0x40)\n      dup1\n      swap2\n      sub\n      swap1\n      return\n        /* \"Fall-2023/07_FixedArray.sol\":239:338  function getValueAt(uint index) public view returns(uint)... */\n    tag_7:\n      tag_27\n      0x04\n      dup1\n      calldatasize\n      sub\n      dup2\n      add\n      swap1\n      tag_28\n      swap2\n      swap1\n      tag_29\n      jump\t// in\n    tag_28:\n      tag_30\n      jump\t// in\n    tag_27:\n      mload(0x40)\n      tag_31\n      swap2\n      swap1\n      tag_32\n      jump\t// in\n    tag_31:\n      mload(0x40)\n      dup1\n      swap2\n      sub\n      swap1\n      return\n        /* \"Fall-2023/07_FixedArray.sol\":346:434  function getLength() public view returns(uint)... */\n    tag_8:\n      tag_33\n      tag_34\n      jump\t// in\n    tag_33:\n      mload(0x40)\n      tag_35\n      swap2\n      swap1\n      tag_32\n      jump\t// in\n    tag_35:\n      mload(0x40)\n      dup1\n      swap2\n      sub\n      swap1\n      return\n        /* \"Fall-2023/07_FixedArray.sol\":755:1167  function getFixedArray() public pure returns (uint[3] memory) {... */\n    tag_9:\n      tag_36\n      tag_37\n      jump\t// in\n    tag_36:\n      mload(0x40)\n      tag_38\n      swap2\n      swap1\n      tag_39\n      jump\t// in\n    tag_38:\n      mload(0x40)\n      dup1\n      swap2\n      sub\n      swap1\n      return\n        /* \"Fall-2023/07_FixedArray.sol\":442:534  function getValues() public view returns(uint[5] memory) ... */\n    tag_12:\n        /* \"Fall-2023/07_FixedArray.sol\":483:497  uint[5] memory */\n      tag_40\n      tag_41\n      jump\t// in\n    tag_40:\n        /* \"Fall-2023/07_FixedArray.sol\":523:526  arr */\n      0x00\n        /* \"Fall-2023/07_FixedArray.sol\":516:526  return arr */\n      0x05\n      dup1\n      0x20\n      mul\n      mload(0x40)\n      swap1\n      dup2\n      add\n      0x40\n      mstore\n      dup1\n      swap3\n      swap2\n      swap1\n      dup3\n      0x05\n      dup1\n      iszero\n      tag_43\n      jumpi\n      0x20\n      mul\n      dup3\n      add\n      swap2\n    tag_44:\n      dup2\n      sload\n      dup2\n      mstore\n      0x20\n      add\n      swap1\n      0x01\n      add\n      swap1\n      dup1\n      dup4\n      gt\n      tag_44\n      jumpi\n    tag_43:\n      pop\n      pop\n      pop\n      pop\n      pop\n      swap1\n      pop\n        /* \"Fall-2023/07_FixedArray.sol\":442:534  function getValues() public view returns(uint[5] memory) ... */\n      swap1\n      jump\t// out\n        /* \"Fall-2023/07_FixedArray.sol\":140:231  function setValue(uint index, uint value) public... */\n    tag_18:\n        /* \"Fall-2023/07_FixedArray.sol\":218:223  value */\n      dup1\n        /* \"Fall-2023/07_FixedArray.sol\":205:208  arr */\n      0x00\n        /* \"Fall-2023/07_FixedArray.sol\":209:214  index */\n      dup4\n        /* \"Fall-2023/07_FixedArray.sol\":205:215  arr[index] */\n      0x05\n      dup2\n      lt\n      tag_46\n      jumpi\n      tag_47\n      tag_48\n      jump\t// in\n    tag_47:\n    tag_46:\n      add\n        /* \"Fall-2023/07_FixedArray.sol\":205:223  arr[index] = value */\n      dup2\n      swap1\n      sstore\n      pop\n        /* \"Fall-2023/07_FixedArray.sol\":140:231  function setValue(uint index, uint value) public... */\n      pop\n      pop\n      jump\t// out\n        /* \"Fall-2023/07_FixedArray.sol\":542:747  function setValues(uint[3] memory values) public // Pass array in argument, enter [4,5,6] from interface... */\n    tag_22:\n        /* \"Fall-2023/07_FixedArray.sol\":672:678  values */\n      dup1\n        /* \"Fall-2023/07_FixedArray.sol\":679:680  0 */\n      0x00\n        /* \"Fall-2023/07_FixedArray.sol\":672:681  values[0] */\n      0x03\n      dup2\n      lt\n      tag_51\n      jumpi\n      tag_52\n      tag_48\n      jump\t// in\n    tag_52:\n    tag_51:\n      0x20\n      mul\n      add\n      mload\n        /* \"Fall-2023/07_FixedArray.sol\":663:666  arr */\n      0x00\n        /* \"Fall-2023/07_FixedArray.sol\":667:668  0 */\n      dup1\n        /* \"Fall-2023/07_FixedArray.sol\":663:669  arr[0] */\n      0x05\n      dup2\n      lt\n      tag_53\n      jumpi\n      tag_54\n      tag_48\n      jump\t// in\n    tag_54:\n    tag_53:\n      add\n        /* \"Fall-2023/07_FixedArray.sol\":663:681  arr[0] = values[0] */\n      dup2\n      swap1\n      sstore\n      pop\n        /* \"Fall-2023/07_FixedArray.sol\":701:707  values */\n      dup1\n        /* \"Fall-2023/07_FixedArray.sol\":708:709  1 */\n      0x01\n        /* \"Fall-2023/07_FixedArray.sol\":701:710  values[1] */\n      0x03\n      dup2\n      lt\n      tag_56\n      jumpi\n      tag_57\n      tag_48\n      jump\t// in\n    tag_57:\n    tag_56:\n      0x20\n      mul\n      add\n      mload\n        /* \"Fall-2023/07_FixedArray.sol\":692:695  arr */\n      0x00\n        /* \"Fall-2023/07_FixedArray.sol\":696:697  1 */\n      0x01\n        /* \"Fall-2023/07_FixedArray.sol\":692:698  arr[1] */\n      0x05\n      dup2\n      lt\n      tag_58\n      jumpi\n      tag_59\n      tag_48\n      jump\t// in\n    tag_59:\n    tag_58:\n      add\n        /* \"Fall-2023/07_FixedArray.sol\":692:710  arr[1] = values[1] */\n      dup2\n      swap1\n      sstore\n      pop\n        /* \"Fall-2023/07_FixedArray.sol\":730:736  values */\n      dup1\n        /* \"Fall-2023/07_FixedArray.sol\":737:738  2 */\n      0x02\n        /* \"Fall-2023/07_FixedArray.sol\":730:739  values[2] */\n      0x03\n      dup2\n      lt\n      tag_61\n      jumpi\n      tag_62\n      tag_48\n      jump\t// in\n    tag_62:\n    tag_61:\n      0x20\n      mul\n      add\n      mload\n        /* \"Fall-2023/07_FixedArray.sol\":721:724  arr */\n      0x00\n        /* \"Fall-2023/07_FixedArray.sol\":725:726  4 */\n      0x04\n        /* \"Fall-2023/07_FixedArray.sol\":721:727  arr[4] */\n      0x05\n      dup2\n      lt\n      tag_63\n      jumpi\n      tag_64\n      tag_48\n      jump\t// in\n    tag_64:\n    tag_63:\n      add\n        /* \"Fall-2023/07_FixedArray.sol\":721:739  arr[4] = values[2] */\n      dup2\n      swap1\n      sstore\n      pop\n        /* \"Fall-2023/07_FixedArray.sol\":542:747  function setValues(uint[3] memory values) public // Pass array in argument, enter [4,5,6] from interface... */\n      pop\n      jump\t// out\n        /* \"Fall-2023/07_FixedArray.sol\":1175:1776  function getFixedMultipleArrays() public pure returns (uint[3] memory, uint[3] memory) {... */\n    tag_24:\n        /* \"Fall-2023/07_FixedArray.sol\":1230:1244  uint[3] memory */\n      tag_66\n      tag_67\n      jump\t// in\n    tag_66:\n        /* \"Fall-2023/07_FixedArray.sol\":1246:1260  uint[3] memory */\n      tag_68\n      tag_67\n      jump\t// in\n    tag_68:\n        /* \"Fall-2023/07_FixedArray.sol\":1383:1408  uint[3] memory fixedArray */\n      0x00\n        /* \"Fall-2023/07_FixedArray.sol\":1383:1438  uint[3] memory fixedArray = [uint(1), uint(2), uint(3)] */\n      mload(0x40)\n      dup1\n      0x60\n      add\n      0x40\n      mstore\n      dup1\n        /* \"Fall-2023/07_FixedArray.sol\":1417:1418  1 */\n      0x01\n        /* \"Fall-2023/07_FixedArray.sol\":1383:1438  uint[3] memory fixedArray = [uint(1), uint(2), uint(3)] */\n      dup2\n      mstore\n      0x20\n      add\n        /* \"Fall-2023/07_FixedArray.sol\":1426:1427  2 */\n      0x02\n        /* \"Fall-2023/07_FixedArray.sol\":1383:1438  uint[3] memory fixedArray = [uint(1), uint(2), uint(3)] */\n      dup2\n      mstore\n      0x20\n      add\n        /* \"Fall-2023/07_FixedArray.sol\":1435:1436  3 */\n      0x03\n        /* \"Fall-2023/07_FixedArray.sol\":1383:1438  uint[3] memory fixedArray = [uint(1), uint(2), uint(3)] */\n      dup2\n      mstore\n      pop\n      swap1\n      pop\n        /* \"Fall-2023/07_FixedArray.sol\":1586:1605  uint[3] memory fix2 */\n      0x00\n        /* \"Fall-2023/07_FixedArray.sol\":1608:1618  fixedArray */\n      dup2\n        /* \"Fall-2023/07_FixedArray.sol\":1586:1618  uint[3] memory fix2 = fixedArray */\n      swap1\n      pop\n        /* \"Fall-2023/07_FixedArray.sol\":1700:1702  99 */\n      0x63\n        /* \"Fall-2023/07_FixedArray.sol\":1690:1694  fix2 */\n      dup2\n        /* \"Fall-2023/07_FixedArray.sol\":1695:1696  2 */\n      0x02\n        /* \"Fall-2023/07_FixedArray.sol\":1690:1697  fix2[2] */\n      0x03\n      dup2\n      lt\n      tag_70\n      jumpi\n      tag_71\n      tag_48\n      jump\t// in\n    tag_71:\n    tag_70:\n      0x20\n      mul\n      add\n        /* \"Fall-2023/07_FixedArray.sol\":1690:1702  fix2[2] = 99 */\n      dup2\n      dup2\n      mstore\n      pop\n      pop\n        /* \"Fall-2023/07_FixedArray.sol\":1751:1761  fixedArray */\n      dup2\n        /* \"Fall-2023/07_FixedArray.sol\":1763:1767  fix2 */\n      dup2\n        /* \"Fall-2023/07_FixedArray.sol\":1743:1768  return (fixedArray, fix2) */\n      swap4\n      pop\n      swap4\n      pop\n      pop\n      pop\n        /* \"Fall-2023/07_FixedArray.sol\":1175:1776  function getFixedMultipleArrays() public pure returns (uint[3] memory, uint[3] memory) {... */\n      swap1\n      swap2\n      jump\t// out\n        /* \"Fall-2023/07_FixedArray.sol\":239:338  function getValueAt(uint index) public view returns(uint)... */\n    tag_30:\n        /* \"Fall-2023/07_FixedArray.sol\":291:295  uint */\n      0x00\n        /* \"Fall-2023/07_FixedArray.sol\":320:323  arr */\n      dup1\n        /* \"Fall-2023/07_FixedArray.sol\":324:329  index */\n      dup3\n        /* \"Fall-2023/07_FixedArray.sol\":320:330  arr[index] */\n      0x05\n      dup2\n      lt\n      tag_73\n      jumpi\n      tag_74\n      tag_48\n      jump\t// in\n    tag_74:\n    tag_73:\n      add\n      sload\n        /* \"Fall-2023/07_FixedArray.sol\":313:330  return arr[index] */\n      swap1\n      pop\n        /* \"Fall-2023/07_FixedArray.sol\":239:338  function getValueAt(uint index) public view returns(uint)... */\n      swap2\n      swap1\n      pop\n      jump\t// out\n        /* \"Fall-2023/07_FixedArray.sol\":346:434  function getLength() public view returns(uint)... */\n    tag_34:\n        /* \"Fall-2023/07_FixedArray.sol\":387:391  uint */\n      0x00\n        /* \"Fall-2023/07_FixedArray.sol\":416:426  arr.length */\n      0x05\n        /* \"Fall-2023/07_FixedArray.sol\":409:426  return arr.length */\n      swap1\n      pop\n        /* \"Fall-2023/07_FixedArray.sol\":346:434  function getLength() public view returns(uint)... */\n      swap1\n      jump\t// out\n        /* \"Fall-2023/07_FixedArray.sol\":755:1167  function getFixedArray() public pure returns (uint[3] memory) {... */\n    tag_37:\n        /* \"Fall-2023/07_FixedArray.sol\":801:815  uint[3] memory */\n      tag_77\n      tag_67\n      jump\t// in\n    tag_77:\n        /* \"Fall-2023/07_FixedArray.sol\":938:963  uint[3] memory fixedArray */\n      0x00\n        /* \"Fall-2023/07_FixedArray.sol\":938:993  uint[3] memory fixedArray = [uint(1), uint(2), uint(3)] */\n      mload(0x40)\n      dup1\n      0x60\n      add\n      0x40\n      mstore\n      dup1\n        /* \"Fall-2023/07_FixedArray.sol\":972:973  1 */\n      0x01\n        /* \"Fall-2023/07_FixedArray.sol\":938:993  uint[3] memory fixedArray = [uint(1), uint(2), uint(3)] */\n      dup2\n      mstore\n      0x20\n      add\n        /* \"Fall-2023/07_FixedArray.sol\":981:982  2 */\n      0x02\n        /* \"Fall-2023/07_FixedArray.sol\":938:993  uint[3] memory fixedArray = [uint(1), uint(2), uint(3)] */\n      dup2\n      mstore\n      0x20\n      add\n        /* \"Fall-2023/07_FixedArray.sol\":990:991  3 */\n      0x03\n        /* \"Fall-2023/07_FixedArray.sol\":938:993  uint[3] memory fixedArray = [uint(1), uint(2), uint(3)] */\n      dup2\n      mstore\n      pop\n      swap1\n      pop\n        /* \"Fall-2023/07_FixedArray.sol\":1146:1156  fixedArray */\n      dup1\n        /* \"Fall-2023/07_FixedArray.sol\":1139:1156  return fixedArray */\n      swap2\n      pop\n      pop\n        /* \"Fall-2023/07_FixedArray.sol\":755:1167  function getFixedArray() public pure returns (uint[3] memory) {... */\n      swap1\n      jump\t// out\n    tag_41:\n      mload(0x40)\n      dup1\n      0xa0\n      add\n      0x40\n      mstore\n      dup1\n      0x05\n      swap1\n      0x20\n      dup3\n      mul\n      dup1\n      calldatasize\n      dup4\n      calldatacopy\n      dup1\n      dup3\n      add\n      swap2\n      pop\n      pop\n      swap1\n      pop\n      pop\n      swap1\n      jump\t// out\n    tag_67:\n      mload(0x40)\n      dup1\n      0x60\n      add\n      0x40\n      mstore\n      dup1\n      0x03\n      swap1\n      0x20\n      dup3\n      mul\n      dup1\n      calldatasize\n      dup4\n      calldatacopy\n      dup1\n      dup3\n      add\n      swap2\n      pop\n      pop\n      swap1\n      pop\n      pop\n      swap1\n      jump\t// out\n        /* \"#utility.yul\":7:111   */\n    tag_79:\n        /* \"#utility.yul\":72:78   */\n      0x00\n        /* \"#utility.yul\":100:104   */\n      0x05\n        /* \"#utility.yul\":90:104   */\n      swap1\n      pop\n        /* \"#utility.yul\":7:111   */\n      swap2\n      swap1\n      pop\n      jump\t// out\n        /* \"#utility.yul\":117:260   */\n    tag_80:\n        /* \"#utility.yul\":214:225   */\n      0x00\n        /* \"#utility.yul\":251:254   */\n      dup2\n        /* \"#utility.yul\":236:254   */\n      swap1\n      pop\n        /* \"#utility.yul\":117:260   */\n      swap3\n      swap2\n      pop\n      pop\n      jump\t// out\n        /* \"#utility.yul\":266:364   */\n    tag_81:\n        /* \"#utility.yul\":331:335   */\n      0x00\n        /* \"#utility.yul\":354:357   */\n      dup2\n        /* \"#utility.yul\":346:357   */\n      swap1\n      pop\n        /* \"#utility.yul\":266:364   */\n      swap2\n      swap1\n      pop\n      jump\t// out\n        /* \"#utility.yul\":370:447   */\n    tag_82:\n        /* \"#utility.yul\":407:414   */\n      0x00\n        /* \"#utility.yul\":436:441   */\n      dup2\n        /* \"#utility.yul\":425:441   */\n      swap1\n      pop\n        /* \"#utility.yul\":370:447   */\n      swap2\n      swap1\n      pop\n      jump\t// out\n        /* \"#utility.yul\":453:561   */\n    tag_83:\n        /* \"#utility.yul\":530:554   */\n      tag_113\n        /* \"#utility.yul\":548:553   */\n      dup2\n        /* \"#utility.yul\":530:554   */\n      tag_82\n      jump\t// in\n    tag_113:\n        /* \"#utility.yul\":525:528   */\n      dup3\n        /* \"#utility.yul\":518:555   */\n      mstore\n        /* \"#utility.yul\":453:561   */\n      pop\n      pop\n      jump\t// out\n        /* \"#utility.yul\":567:746   */\n    tag_84:\n        /* \"#utility.yul\":636:646   */\n      0x00\n        /* \"#utility.yul\":657:703   */\n      tag_115\n        /* \"#utility.yul\":699:702   */\n      dup4\n        /* \"#utility.yul\":691:697   */\n      dup4\n        /* \"#utility.yul\":657:703   */\n      tag_83\n      jump\t// in\n    tag_115:\n        /* \"#utility.yul\":735:739   */\n      0x20\n        /* \"#utility.yul\":730:733   */\n      dup4\n        /* \"#utility.yul\":726:740   */\n      add\n        /* \"#utility.yul\":712:740   */\n      swap1\n      pop\n        /* \"#utility.yul\":567:746   */\n      swap3\n      swap2\n      pop\n      pop\n      jump\t// out\n        /* \"#utility.yul\":752:863   */\n    tag_85:\n        /* \"#utility.yul\":820:824   */\n      0x00\n        /* \"#utility.yul\":852:856   */\n      0x20\n        /* \"#utility.yul\":847:850   */\n      dup3\n        /* \"#utility.yul\":843:857   */\n      add\n        /* \"#utility.yul\":835:857   */\n      swap1\n      pop\n        /* \"#utility.yul\":752:863   */\n      swap2\n      swap1\n      pop\n      jump\t// out\n        /* \"#utility.yul\":901:1595   */\n    tag_86:\n        /* \"#utility.yul\":1037:1089   */\n      tag_118\n        /* \"#utility.yul\":1083:1088   */\n      dup2\n        /* \"#utility.yul\":1037:1089   */\n      tag_79\n      jump\t// in\n    tag_118:\n        /* \"#utility.yul\":1105:1189   */\n      tag_119\n        /* \"#utility.yul\":1182:1188   */\n      dup2\n        /* \"#utility.yul\":1177:1180   */\n      dup5\n        /* \"#utility.yul\":1105:1189   */\n      tag_80\n      jump\t// in\n    tag_119:\n        /* \"#utility.yul\":1098:1189   */\n      swap3\n      pop\n        /* \"#utility.yul\":1213:1267   */\n      tag_120\n        /* \"#utility.yul\":1261:1266   */\n      dup3\n        /* \"#utility.yul\":1213:1267   */\n      tag_81\n      jump\t// in\n    tag_120:\n        /* \"#utility.yul\":1290:1297   */\n      dup1\n        /* \"#utility.yul\":1321:1322   */\n      0x00\n        /* \"#utility.yul\":1306:1588   */\n    tag_121:\n        /* \"#utility.yul\":1331:1337   */\n      dup4\n        /* \"#utility.yul\":1328:1329   */\n      dup2\n        /* \"#utility.yul\":1325:1338   */\n      lt\n        /* \"#utility.yul\":1306:1588   */\n      iszero\n      tag_123\n      jumpi\n        /* \"#utility.yul\":1407:1413   */\n      dup2\n        /* \"#utility.yul\":1401:1414   */\n      mload\n        /* \"#utility.yul\":1434:1497   */\n      tag_124\n        /* \"#utility.yul\":1493:1496   */\n      dup8\n        /* \"#utility.yul\":1478:1491   */\n      dup3\n        /* \"#utility.yul\":1434:1497   */\n      tag_84\n      jump\t// in\n    tag_124:\n        /* \"#utility.yul\":1427:1497   */\n      swap7\n      pop\n        /* \"#utility.yul\":1520:1578   */\n      tag_125\n        /* \"#utility.yul\":1571:1577   */\n      dup4\n        /* \"#utility.yul\":1520:1578   */\n      tag_85\n      jump\t// in\n    tag_125:\n        /* \"#utility.yul\":1510:1578   */\n      swap3\n      pop\n        /* \"#utility.yul\":1366:1588   */\n      pop\n        /* \"#utility.yul\":1353:1354   */\n      0x01\n        /* \"#utility.yul\":1350:1351   */\n      dup2\n        /* \"#utility.yul\":1346:1355   */\n      add\n        /* \"#utility.yul\":1341:1355   */\n      swap1\n      pop\n        /* \"#utility.yul\":1306:1588   */\n      jump(tag_121)\n    tag_123:\n        /* \"#utility.yul\":1310:1324   */\n      pop\n        /* \"#utility.yul\":1013:1595   */\n      pop\n      pop\n      pop\n        /* \"#utility.yul\":901:1595   */\n      pop\n      pop\n      jump\t// out\n        /* \"#utility.yul\":1601:1916   */\n    tag_14:\n        /* \"#utility.yul\":1740:1744   */\n      0x00\n        /* \"#utility.yul\":1778:1781   */\n      0xa0\n        /* \"#utility.yul\":1767:1776   */\n      dup3\n        /* \"#utility.yul\":1763:1782   */\n      add\n        /* \"#utility.yul\":1755:1782   */\n      swap1\n      pop\n        /* \"#utility.yul\":1792:1909   */\n      tag_127\n        /* \"#utility.yul\":1906:1907   */\n      0x00\n        /* \"#utility.yul\":1895:1904   */\n      dup4\n        /* \"#utility.yul\":1891:1908   */\n      add\n        /* \"#utility.yul\":1882:1888   */\n      dup5\n        /* \"#utility.yul\":1792:1909   */\n      tag_86\n      jump\t// in\n    tag_127:\n        /* \"#utility.yul\":1601:1916   */\n      swap3\n      swap2\n      pop\n      pop\n      jump\t// out\n        /* \"#utility.yul\":1922:1997   */\n    tag_87:\n        /* \"#utility.yul\":1955:1961   */\n      0x00\n        /* \"#utility.yul\":1988:1990   */\n      0x40\n        /* \"#utility.yul\":1982:1991   */\n      mload\n        /* \"#utility.yul\":1972:1991   */\n      swap1\n      pop\n        /* \"#utility.yul\":1922:1997   */\n      swap1\n      jump\t// out\n        /* \"#utility.yul\":2003:2120   */\n    tag_88:\n        /* \"#utility.yul\":2112:2113   */\n      0x00\n        /* \"#utility.yul\":2109:2110   */\n      dup1\n        /* \"#utility.yul\":2102:2114   */\n      revert\n        /* \"#utility.yul\":2249:2371   */\n    tag_90:\n        /* \"#utility.yul\":2322:2346   */\n      tag_132\n        /* \"#utility.yul\":2340:2345   */\n      dup2\n        /* \"#utility.yul\":2322:2346   */\n      tag_82\n      jump\t// in\n    tag_132:\n        /* \"#utility.yul\":2315:2320   */\n      dup2\n        /* \"#utility.yul\":2312:2347   */\n      eq\n        /* \"#utility.yul\":2302:2365   */\n      tag_133\n      jumpi\n        /* \"#utility.yul\":2361:2362   */\n      0x00\n        /* \"#utility.yul\":2358:2359   */\n      dup1\n        /* \"#utility.yul\":2351:2363   */\n      revert\n        /* \"#utility.yul\":2302:2365   */\n    tag_133:\n        /* \"#utility.yul\":2249:2371   */\n      pop\n      jump\t// out\n        /* \"#utility.yul\":2377:2516   */\n    tag_91:\n        /* \"#utility.yul\":2423:2428   */\n      0x00\n        /* \"#utility.yul\":2461:2467   */\n      dup2\n        /* \"#utility.yul\":2448:2468   */\n      calldataload\n        /* \"#utility.yul\":2439:2468   */\n      swap1\n      pop\n        /* \"#utility.yul\":2477:2510   */\n      tag_135\n        /* \"#utility.yul\":2504:2509   */\n      dup2\n        /* \"#utility.yul\":2477:2510   */\n      tag_90\n      jump\t// in\n    tag_135:\n        /* \"#utility.yul\":2377:2516   */\n      swap3\n      swap2\n      pop\n      pop\n      jump\t// out\n        /* \"#utility.yul\":2522:2996   */\n    tag_17:\n        /* \"#utility.yul\":2590:2596   */\n      0x00\n        /* \"#utility.yul\":2598:2604   */\n      dup1\n        /* \"#utility.yul\":2647:2649   */\n      0x40\n        /* \"#utility.yul\":2635:2644   */\n      dup4\n        /* \"#utility.yul\":2626:2633   */\n      dup6\n        /* \"#utility.yul\":2622:2645   */\n      sub\n        /* \"#utility.yul\":2618:2650   */\n      slt\n        /* \"#utility.yul\":2615:2734   */\n      iszero\n      tag_137\n      jumpi\n        /* \"#utility.yul\":2653:2732   */\n      tag_138\n      tag_88\n      jump\t// in\n    tag_138:\n        /* \"#utility.yul\":2615:2734   */\n    tag_137:\n        /* \"#utility.yul\":2773:2774   */\n      0x00\n        /* \"#utility.yul\":2798:2851   */\n      tag_139\n        /* \"#utility.yul\":2843:2850   */\n      dup6\n        /* \"#utility.yul\":2834:2840   */\n      dup3\n        /* \"#utility.yul\":2823:2832   */\n      dup7\n        /* \"#utility.yul\":2819:2841   */\n      add\n        /* \"#utility.yul\":2798:2851   */\n      tag_91\n      jump\t// in\n    tag_139:\n        /* \"#utility.yul\":2788:2851   */\n      swap3\n      pop\n        /* \"#utility.yul\":2744:2861   */\n      pop\n        /* \"#utility.yul\":2900:2902   */\n      0x20\n        /* \"#utility.yul\":2926:2979   */\n      tag_140\n        /* \"#utility.yul\":2971:2978   */\n      dup6\n        /* \"#utility.yul\":2962:2968   */\n      dup3\n        /* \"#utility.yul\":2951:2960   */\n      dup7\n        /* \"#utility.yul\":2947:2969   */\n      add\n        /* \"#utility.yul\":2926:2979   */\n      tag_91\n      jump\t// in\n    tag_140:\n        /* \"#utility.yul\":2916:2979   */\n      swap2\n      pop\n        /* \"#utility.yul\":2871:2989   */\n      pop\n        /* \"#utility.yul\":2522:2996   */\n      swap3\n      pop\n      swap3\n      swap1\n      pop\n      jump\t// out\n        /* \"#utility.yul\":3002:3119   */\n    tag_92:\n        /* \"#utility.yul\":3111:3112   */\n      0x00\n        /* \"#utility.yul\":3108:3109   */\n      dup1\n        /* \"#utility.yul\":3101:3113   */\n      revert\n        /* \"#utility.yul\":3125:3227   */\n    tag_93:\n        /* \"#utility.yul\":3166:3172   */\n      0x00\n        /* \"#utility.yul\":3217:3219   */\n      0x1f\n        /* \"#utility.yul\":3213:3220   */\n      not\n        /* \"#utility.yul\":3208:3210   */\n      0x1f\n        /* \"#utility.yul\":3201:3206   */\n      dup4\n        /* \"#utility.yul\":3197:3211   */\n      add\n        /* \"#utility.yul\":3193:3221   */\n      and\n        /* \"#utility.yul\":3183:3221   */\n      swap1\n      pop\n        /* \"#utility.yul\":3125:3227   */\n      swap2\n      swap1\n      pop\n      jump\t// out\n        /* \"#utility.yul\":3233:3413   */\n    tag_94:\n        /* \"#utility.yul\":3281:3358   */\n      0x4e487b7100000000000000000000000000000000000000000000000000000000\n        /* \"#utility.yul\":3278:3279   */\n      0x00\n        /* \"#utility.yul\":3271:3359   */\n      mstore\n        /* \"#utility.yul\":3378:3382   */\n      0x41\n        /* \"#utility.yul\":3375:3376   */\n      0x04\n        /* \"#utility.yul\":3368:3383   */\n      mstore\n        /* \"#utility.yul\":3402:3406   */\n      0x24\n        /* \"#utility.yul\":3399:3400   */\n      0x00\n        /* \"#utility.yul\":3392:3407   */\n      revert\n        /* \"#utility.yul\":3419:3700   */\n    tag_95:\n        /* \"#utility.yul\":3502:3529   */\n      tag_145\n        /* \"#utility.yul\":3524:3528   */\n      dup3\n        /* \"#utility.yul\":3502:3529   */\n      tag_93\n      jump\t// in\n    tag_145:\n        /* \"#utility.yul\":3494:3500   */\n      dup2\n        /* \"#utility.yul\":3490:3530   */\n      add\n        /* \"#utility.yul\":3632:3638   */\n      dup2\n        /* \"#utility.yul\":3620:3630   */\n      dup2\n        /* \"#utility.yul\":3617:3639   */\n      lt\n        /* \"#utility.yul\":3596:3614   */\n      0xffffffffffffffff\n        /* \"#utility.yul\":3584:3594   */\n      dup3\n        /* \"#utility.yul\":3581:3615   */\n      gt\n        /* \"#utility.yul\":3578:3640   */\n      or\n        /* \"#utility.yul\":3575:3663   */\n      iszero\n      tag_146\n      jumpi\n        /* \"#utility.yul\":3643:3661   */\n      tag_147\n      tag_94\n      jump\t// in\n    tag_147:\n        /* \"#utility.yul\":3575:3663   */\n    tag_146:\n        /* \"#utility.yul\":3683:3693   */\n      dup1\n        /* \"#utility.yul\":3679:3681   */\n      0x40\n        /* \"#utility.yul\":3672:3694   */\n      mstore\n        /* \"#utility.yul\":3462:3700   */\n      pop\n        /* \"#utility.yul\":3419:3700   */\n      pop\n      pop\n      jump\t// out\n        /* \"#utility.yul\":3706:3835   */\n    tag_96:\n        /* \"#utility.yul\":3740:3746   */\n      0x00\n        /* \"#utility.yul\":3767:3787   */\n      tag_149\n      tag_87\n      jump\t// in\n    tag_149:\n        /* \"#utility.yul\":3757:3787   */\n      swap1\n      pop\n        /* \"#utility.yul\":3796:3829   */\n      tag_150\n        /* \"#utility.yul\":3824:3828   */\n      dup3\n        /* \"#utility.yul\":3816:3822   */\n      dup3\n        /* \"#utility.yul\":3796:3829   */\n      tag_95\n      jump\t// in\n    tag_150:\n        /* \"#utility.yul\":3706:3835   */\n      swap2\n      swap1\n      pop\n      jump\t// out\n        /* \"#utility.yul\":3841:4090   */\n    tag_97:\n        /* \"#utility.yul\":3916:3920   */\n      0x00\n        /* \"#utility.yul\":4006:4024   */\n      0xffffffffffffffff\n        /* \"#utility.yul\":3998:4004   */\n      dup3\n        /* \"#utility.yul\":3995:4025   */\n      gt\n        /* \"#utility.yul\":3992:4048   */\n      iszero\n      tag_152\n      jumpi\n        /* \"#utility.yul\":4028:4046   */\n      tag_153\n      tag_94\n      jump\t// in\n    tag_153:\n        /* \"#utility.yul\":3992:4048   */\n    tag_152:\n        /* \"#utility.yul\":4078:4082   */\n      0x20\n        /* \"#utility.yul\":4070:4076   */\n      dup3\n        /* \"#utility.yul\":4066:4083   */\n      mul\n        /* \"#utility.yul\":4058:4083   */\n      swap1\n      pop\n        /* \"#utility.yul\":3841:4090   */\n      swap2\n      swap1\n      pop\n      jump\t// out\n        /* \"#utility.yul\":4096:4213   */\n    tag_98:\n        /* \"#utility.yul\":4205:4206   */\n      0x00\n        /* \"#utility.yul\":4202:4203   */\n      dup1\n        /* \"#utility.yul\":4195:4207   */\n      revert\n        /* \"#utility.yul\":4237:4880   */\n    tag_99:\n        /* \"#utility.yul\":4331:4336   */\n      0x00\n        /* \"#utility.yul\":4356:4435   */\n      tag_156\n        /* \"#utility.yul\":4372:4434   */\n      tag_157\n        /* \"#utility.yul\":4427:4433   */\n      dup5\n        /* \"#utility.yul\":4372:4434   */\n      tag_97\n      jump\t// in\n    tag_157:\n        /* \"#utility.yul\":4356:4435   */\n      tag_96\n      jump\t// in\n    tag_156:\n        /* \"#utility.yul\":4347:4435   */\n      swap1\n      pop\n        /* \"#utility.yul\":4455:4460   */\n      dup1\n        /* \"#utility.yul\":4508:4512   */\n      0x20\n        /* \"#utility.yul\":4500:4506   */\n      dup5\n        /* \"#utility.yul\":4496:4513   */\n      mul\n        /* \"#utility.yul\":4488:4494   */\n      dup4\n        /* \"#utility.yul\":4484:4514   */\n      add\n        /* \"#utility.yul\":4537:4540   */\n      dup6\n        /* \"#utility.yul\":4529:4535   */\n      dup2\n        /* \"#utility.yul\":4526:4541   */\n      gt\n        /* \"#utility.yul\":4523:4645   */\n      iszero\n      tag_158\n      jumpi\n        /* \"#utility.yul\":4556:4635   */\n      tag_159\n      tag_98\n      jump\t// in\n    tag_159:\n        /* \"#utility.yul\":4523:4645   */\n    tag_158:\n        /* \"#utility.yul\":4671:4677   */\n      dup4\n        /* \"#utility.yul\":4654:4874   */\n    tag_160:\n        /* \"#utility.yul\":4688:4694   */\n      dup2\n        /* \"#utility.yul\":4683:4686   */\n      dup2\n        /* \"#utility.yul\":4680:4695   */\n      lt\n        /* \"#utility.yul\":4654:4874   */\n      iszero\n      tag_162\n      jumpi\n        /* \"#utility.yul\":4763:4766   */\n      dup1\n        /* \"#utility.yul\":4792:4829   */\n      tag_163\n        /* \"#utility.yul\":4825:4828   */\n      dup9\n        /* \"#utility.yul\":4813:4823   */\n      dup3\n        /* \"#utility.yul\":4792:4829   */\n      tag_91\n      jump\t// in\n    tag_163:\n        /* \"#utility.yul\":4787:4790   */\n      dup5\n        /* \"#utility.yul\":4780:4830   */\n      mstore\n        /* \"#utility.yul\":4859:4863   */\n      0x20\n        /* \"#utility.yul\":4854:4857   */\n      dup5\n        /* \"#utility.yul\":4850:4864   */\n      add\n        /* \"#utility.yul\":4843:4864   */\n      swap4\n      pop\n        /* \"#utility.yul\":4730:4874   */\n      pop\n        /* \"#utility.yul\":4714:4718   */\n      0x20\n        /* \"#utility.yul\":4709:4712   */\n      dup2\n        /* \"#utility.yul\":4705:4719   */\n      add\n        /* \"#utility.yul\":4698:4719   */\n      swap1\n      pop\n        /* \"#utility.yul\":4654:4874   */\n      jump(tag_160)\n    tag_162:\n        /* \"#utility.yul\":4658:4679   */\n      pop\n        /* \"#utility.yul\":4337:4880   */\n      pop\n      pop\n        /* \"#utility.yul\":4237:4880   */\n      swap4\n      swap3\n      pop\n      pop\n      pop\n      jump\t// out\n        /* \"#utility.yul\":4904:5243   */\n    tag_100:\n        /* \"#utility.yul\":4973:4978   */\n      0x00\n        /* \"#utility.yul\":5022:5025   */\n      dup3\n        /* \"#utility.yul\":5015:5019   */\n      0x1f\n        /* \"#utility.yul\":5007:5013   */\n      dup4\n        /* \"#utility.yul\":5003:5020   */\n      add\n        /* \"#utility.yul\":4999:5026   */\n      slt\n        /* \"#utility.yul\":4989:5111   */\n      tag_165\n      jumpi\n        /* \"#utility.yul\":5030:5109   */\n      tag_166\n      tag_92\n      jump\t// in\n    tag_166:\n        /* \"#utility.yul\":4989:5111   */\n    tag_165:\n        /* \"#utility.yul\":5134:5138   */\n      0x03\n        /* \"#utility.yul\":5156:5237   */\n      tag_167\n        /* \"#utility.yul\":5233:5236   */\n      dup5\n        /* \"#utility.yul\":5225:5231   */\n      dup3\n        /* \"#utility.yul\":5217:5223   */\n      dup6\n        /* \"#utility.yul\":5156:5237   */\n      tag_99\n      jump\t// in\n    tag_167:\n        /* \"#utility.yul\":5147:5237   */\n      swap2\n      pop\n        /* \"#utility.yul\":4979:5243   */\n      pop\n        /* \"#utility.yul\":4904:5243   */\n      swap3\n      swap2\n      pop\n      pop\n      jump\t// out\n        /* \"#utility.yul\":5249:5624   */\n    tag_21:\n        /* \"#utility.yul\":5331:5337   */\n      0x00\n        /* \"#utility.yul\":5380:5382   */\n      0x60\n        /* \"#utility.yul\":5368:5377   */\n      dup3\n        /* \"#utility.yul\":5359:5366   */\n      dup5\n        /* \"#utility.yul\":5355:5378   */\n      sub\n        /* \"#utility.yul\":5351:5383   */\n      slt\n        /* \"#utility.yul\":5348:5467   */\n      iszero\n      tag_169\n      jumpi\n        /* \"#utility.yul\":5386:5465   */\n      tag_170\n      tag_88\n      jump\t// in\n    tag_170:\n        /* \"#utility.yul\":5348:5467   */\n    tag_169:\n        /* \"#utility.yul\":5506:5507   */\n      0x00\n        /* \"#utility.yul\":5531:5607   */\n      tag_171\n        /* \"#utility.yul\":5599:5606   */\n      dup5\n        /* \"#utility.yul\":5590:5596   */\n      dup3\n        /* \"#utility.yul\":5579:5588   */\n      dup6\n        /* \"#utility.yul\":5575:5597   */\n      add\n        /* \"#utility.yul\":5531:5607   */\n      tag_100\n      jump\t// in\n    tag_171:\n        /* \"#utility.yul\":5521:5607   */\n      swap2\n      pop\n        /* \"#utility.yul\":5477:5617   */\n      pop\n        /* \"#utility.yul\":5249:5624   */\n      swap3\n      swap2\n      pop\n      pop\n      jump\t// out\n        /* \"#utility.yul\":5630:5734   */\n    tag_101:\n        /* \"#utility.yul\":5695:5701   */\n      0x00\n        /* \"#utility.yul\":5723:5727   */\n      0x03\n        /* \"#utility.yul\":5713:5727   */\n      swap1\n      pop\n        /* \"#utility.yul\":5630:5734   */\n      swap2\n      swap1\n      pop\n      jump\t// out\n        /* \"#utility.yul\":5740:5883   */\n    tag_102:\n        /* \"#utility.yul\":5837:5848   */\n      0x00\n        /* \"#utility.yul\":5874:5877   */\n      dup2\n        /* \"#utility.yul\":5859:5877   */\n      swap1\n      pop\n        /* \"#utility.yul\":5740:5883   */\n      swap3\n      swap2\n      pop\n      pop\n      jump\t// out\n        /* \"#utility.yul\":5889:5987   */\n    tag_103:\n        /* \"#utility.yul\":5954:5958   */\n      0x00\n        /* \"#utility.yul\":5977:5980   */\n      dup2\n        /* \"#utility.yul\":5969:5980   */\n      swap1\n      pop\n        /* \"#utility.yul\":5889:5987   */\n      swap2\n      swap1\n      pop\n      jump\t// out\n        /* \"#utility.yul\":5993:6104   */\n    tag_104:\n        /* \"#utility.yul\":6061:6065   */\n      0x00\n        /* \"#utility.yul\":6093:6097   */\n      0x20\n        /* \"#utility.yul\":6088:6091   */\n      dup3\n        /* \"#utility.yul\":6084:6098   */\n      add\n        /* \"#utility.yul\":6076:6098   */\n      swap1\n      pop\n        /* \"#utility.yul\":5993:6104   */\n      swap2\n      swap1\n      pop\n      jump\t// out\n        /* \"#utility.yul\":6142:6836   */\n    tag_105:\n        /* \"#utility.yul\":6278:6330   */\n      tag_177\n        /* \"#utility.yul\":6324:6329   */\n      dup2\n        /* \"#utility.yul\":6278:6330   */\n      tag_101\n      jump\t// in\n    tag_177:\n        /* \"#utility.yul\":6346:6430   */\n      tag_178\n        /* \"#utility.yul\":6423:6429   */\n      dup2\n        /* \"#utility.yul\":6418:6421   */\n      dup5\n        /* \"#utility.yul\":6346:6430   */\n      tag_102\n      jump\t// in\n    tag_178:\n        /* \"#utility.yul\":6339:6430   */\n      swap3\n      pop\n        /* \"#utility.yul\":6454:6508   */\n      tag_179\n        /* \"#utility.yul\":6502:6507   */\n      dup3\n        /* \"#utility.yul\":6454:6508   */\n      tag_103\n      jump\t// in\n    tag_179:\n        /* \"#utility.yul\":6531:6538   */\n      dup1\n        /* \"#utility.yul\":6562:6563   */\n      0x00\n        /* \"#utility.yul\":6547:6829   */\n    tag_180:\n        /* \"#utility.yul\":6572:6578   */\n      dup4\n        /* \"#utility.yul\":6569:6570   */\n      dup2\n        /* \"#utility.yul\":6566:6579   */\n      lt\n        /* \"#utility.yul\":6547:6829   */\n      iszero\n      tag_182\n      jumpi\n        /* \"#utility.yul\":6648:6654   */\n      dup2\n        /* \"#utility.yul\":6642:6655   */\n      mload\n        /* \"#utility.yul\":6675:6738   */\n      tag_183\n        /* \"#utility.yul\":6734:6737   */\n      dup8\n        /* \"#utility.yul\":6719:6732   */\n      dup3\n        /* \"#utility.yul\":6675:6738   */\n      tag_84\n      jump\t// in\n    tag_183:\n        /* \"#utility.yul\":6668:6738   */\n      swap7\n      pop\n        /* \"#utility.yul\":6761:6819   */\n      tag_184\n        /* \"#utility.yul\":6812:6818   */\n      dup4\n        /* \"#utility.yul\":6761:6819   */\n      tag_104\n      jump\t// in\n    tag_184:\n        /* \"#utility.yul\":6751:6819   */\n      swap3\n      pop\n        /* \"#utility.yul\":6607:6829   */\n      pop\n        /* \"#utility.yul\":6594:6595   */\n      0x01\n        /* \"#utility.yul\":6591:6592   */\n      dup2\n        /* \"#utility.yul\":6587:6596   */\n      add\n        /* \"#utility.yul\":6582:6596   */\n      swap1\n      pop\n        /* \"#utility.yul\":6547:6829   */\n      jump(tag_180)\n    tag_182:\n        /* \"#utility.yul\":6551:6565   */\n      pop\n        /* \"#utility.yul\":6254:6836   */\n      pop\n      pop\n      pop\n        /* \"#utility.yul\":6142:6836   */\n      pop\n      pop\n      jump\t// out\n        /* \"#utility.yul\":6842:7359   */\n    tag_26:\n        /* \"#utility.yul\":7055:7059   */\n      0x00\n        /* \"#utility.yul\":7093:7096   */\n      0xc0\n        /* \"#utility.yul\":7082:7091   */\n      dup3\n        /* \"#utility.yul\":7078:7097   */\n      add\n        /* \"#utility.yul\":7070:7097   */\n      swap1\n      pop\n        /* \"#utility.yul\":7107:7224   */\n      tag_186\n        /* \"#utility.yul\":7221:7222   */\n      0x00\n        /* \"#utility.yul\":7210:7219   */\n      dup4\n        /* \"#utility.yul\":7206:7223   */\n      add\n        /* \"#utility.yul\":7197:7203   */\n      dup6\n        /* \"#utility.yul\":7107:7224   */\n      tag_105\n      jump\t// in\n    tag_186:\n        /* \"#utility.yul\":7234:7352   */\n      tag_187\n        /* \"#utility.yul\":7348:7350   */\n      0x60\n        /* \"#utility.yul\":7337:7346   */\n      dup4\n        /* \"#utility.yul\":7333:7351   */\n      add\n        /* \"#utility.yul\":7324:7330   */\n      dup5\n        /* \"#utility.yul\":7234:7352   */\n      tag_105\n      jump\t// in\n    tag_187:\n        /* \"#utility.yul\":6842:7359   */\n      swap4\n      swap3\n      pop\n      pop\n      pop\n      jump\t// out\n        /* \"#utility.yul\":7365:7694   */\n    tag_29:\n        /* \"#utility.yul\":7424:7430   */\n      0x00\n        /* \"#utility.yul\":7473:7475   */\n      0x20\n        /* \"#utility.yul\":7461:7470   */\n      dup3\n        /* \"#utility.yul\":7452:7459   */\n      dup5\n        /* \"#utility.yul\":7448:7471   */\n      sub\n        /* \"#utility.yul\":7444:7476   */\n      slt\n        /* \"#utility.yul\":7441:7560   */\n      iszero\n      tag_189\n      jumpi\n        /* \"#utility.yul\":7479:7558   */\n      tag_190\n      tag_88\n      jump\t// in\n    tag_190:\n        /* \"#utility.yul\":7441:7560   */\n    tag_189:\n        /* \"#utility.yul\":7599:7600   */\n      0x00\n        /* \"#utility.yul\":7624:7677   */\n      tag_191\n        /* \"#utility.yul\":7669:7676   */\n      dup5\n        /* \"#utility.yul\":7660:7666   */\n      dup3\n        /* \"#utility.yul\":7649:7658   */\n      dup6\n        /* \"#utility.yul\":7645:7667   */\n      add\n        /* \"#utility.yul\":7624:7677   */\n      tag_91\n      jump\t// in\n    tag_191:\n        /* \"#utility.yul\":7614:7677   */\n      swap2\n      pop\n        /* \"#utility.yul\":7570:7687   */\n      pop\n        /* \"#utility.yul\":7365:7694   */\n      swap3\n      swap2\n      pop\n      pop\n      jump\t// out\n        /* \"#utility.yul\":7700:7818   */\n    tag_106:\n        /* \"#utility.yul\":7787:7811   */\n      tag_193\n        /* \"#utility.yul\":7805:7810   */\n      dup2\n        /* \"#utility.yul\":7787:7811   */\n      tag_82\n      jump\t// in\n    tag_193:\n        /* \"#utility.yul\":7782:7785   */\n      dup3\n        /* \"#utility.yul\":7775:7812   */\n      mstore\n        /* \"#utility.yul\":7700:7818   */\n      pop\n      pop\n      jump\t// out\n        /* \"#utility.yul\":7824:8046   */\n    tag_32:\n        /* \"#utility.yul\":7917:7921   */\n      0x00\n        /* \"#utility.yul\":7955:7957   */\n      0x20\n        /* \"#utility.yul\":7944:7953   */\n      dup3\n        /* \"#utility.yul\":7940:7958   */\n      add\n        /* \"#utility.yul\":7932:7958   */\n      swap1\n      pop\n        /* \"#utility.yul\":7968:8039   */\n      tag_195\n        /* \"#utility.yul\":8036:8037   */\n      0x00\n        /* \"#utility.yul\":8025:8034   */\n      dup4\n        /* \"#utility.yul\":8021:8038   */\n      add\n        /* \"#utility.yul\":8012:8018   */\n      dup5\n        /* \"#utility.yul\":7968:8039   */\n      tag_106\n      jump\t// in\n    tag_195:\n        /* \"#utility.yul\":7824:8046   */\n      swap3\n      swap2\n      pop\n      pop\n      jump\t// out\n        /* \"#utility.yul\":8052:8366   */\n    tag_39:\n        /* \"#utility.yul\":8191:8195   */\n      0x00\n        /* \"#utility.yul\":8229:8231   */\n      0x60\n        /* \"#utility.yul\":8218:8227   */\n      dup3\n        /* \"#utility.yul\":8214:8232   */\n      add\n        /* \"#utility.yul\":8206:8232   */\n      swap1\n      pop\n        /* \"#utility.yul\":8242:8359   */\n      tag_197\n        /* \"#utility.yul\":8356:8357   */\n      0x00\n        /* \"#utility.yul\":8345:8354   */\n      dup4\n        /* \"#utility.yul\":8341:8358   */\n      add\n        /* \"#utility.yul\":8332:8338   */\n      dup5\n        /* \"#utility.yul\":8242:8359   */\n      tag_105\n      jump\t// in\n    tag_197:\n        /* \"#utility.yul\":8052:8366   */\n      swap3\n      swap2\n      pop\n      pop\n      jump\t// out\n        /* \"#utility.yul\":8372:8552   */\n    tag_48:\n        /* \"#utility.yul\":8420:8497   */\n      0x4e487b7100000000000000000000000000000000000000000000000000000000\n        /* \"#utility.yul\":8417:8418   */\n      0x00\n        /* \"#utility.yul\":8410:8498   */\n      mstore\n        /* \"#utility.yul\":8517:8521   */\n      0x32\n        /* \"#utility.yul\":8514:8515   */\n      0x04\n        /* \"#utility.yul\":8507:8522   */\n      mstore\n        /* \"#utility.yul\":8541:8545   */\n      0x24\n        /* \"#utility.yul\":8538:8539   */\n      0x00\n        /* \"#utility.yul\":8531:8546   */\n      revert\n\n    auxdata: 0xa2646970667358221220ba69e832750bdb172c4ea59206cd44f878e994f5c686a0c7faec9a30d033655664736f6c63430008120033\n}\n",
				"bytecode": {
					"linkReferences": {},
					"object": "608060405234801561001057600080fd5b506107a8806100206000396000f3fe608060405234801561001057600080fd5b506004361061007d5760003560e01c8063a692574c1161005b578063a692574c146100d8578063bc6b888b146100f7578063be1c766b14610127578063e0cb6a9a146101455761007d565b806319eb4a90146100825780637b8d56e3146100a057806389e5ec80146100bc575b600080fd5b61008a610163565b604051610097919061041a565b60405180910390f35b6100ba60048036038101906100b59190610470565b6101ae565b005b6100d660048036038101906100d191906105f7565b6101cc565b005b6100e0610267565b6040516100ee9291906106a8565b60405180910390f35b610111600480360381019061010c91906106d1565b6102c9565b60405161011e919061070d565b60405180910390f35b61012f6102e7565b60405161013c919061070d565b60405180910390f35b61014d6102f0565b60405161015a9190610728565b60405180910390f35b61016b610321565b60006005806020026040519081016040528092919082600580156101a4576020028201915b815481526020019060010190808311610190575b5050505050905090565b80600083600581106101c3576101c2610743565b5b01819055505050565b806000600381106101e0576101df610743565b5b6020020151600080600581106101f9576101f8610743565b5b01819055508060016003811061021257610211610743565b5b6020020151600060016005811061022c5761022b610743565b5b01819055508060026003811061024557610244610743565b5b6020020151600060046005811061025f5761025e610743565b5b018190555050565b61026f610343565b610277610343565b6000604051806060016040528060018152602001600281526020016003815250905060008190506063816002600381106102b4576102b3610743565b5b60200201818152505081819350935050509091565b60008082600581106102de576102dd610743565b5b01549050919050565b60006005905090565b6102f8610343565b600060405180606001604052806001815260200160028152602001600381525090508091505090565b6040518060a00160405280600590602082028036833780820191505090505090565b6040518060600160405280600390602082028036833780820191505090505090565b600060059050919050565b600081905092915050565b6000819050919050565b6000819050919050565b61039881610385565b82525050565b60006103aa838361038f565b60208301905092915050565b6000602082019050919050565b6103cc81610365565b6103d68184610370565b92506103e18261037b565b8060005b838110156104125781516103f9878261039e565b9650610404836103b6565b9250506001810190506103e5565b505050505050565b600060a08201905061042f60008301846103c3565b92915050565b6000604051905090565b600080fd5b61044d81610385565b811461045857600080fd5b50565b60008135905061046a81610444565b92915050565b600080604083850312156104875761048661043f565b5b60006104958582860161045b565b92505060206104a68582860161045b565b9150509250929050565b600080fd5b6000601f19601f8301169050919050565b7f4e487b7100000000000000000000000000000000000000000000000000000000600052604160045260246000fd5b6104fe826104b5565b810181811067ffffffffffffffff8211171561051d5761051c6104c6565b5b80604052505050565b6000610530610435565b905061053c82826104f5565b919050565b600067ffffffffffffffff82111561055c5761055b6104c6565b5b602082029050919050565b600080fd5b600061057f61057a84610541565b610526565b9050806020840283018581111561059957610598610567565b5b835b818110156105c257806105ae888261045b565b84526020840193505060208101905061059b565b5050509392505050565b600082601f8301126105e1576105e06104b0565b5b60036105ee84828561056c565b91505092915050565b60006060828403121561060d5761060c61043f565b5b600061061b848285016105cc565b91505092915050565b600060039050919050565b600081905092915050565b6000819050919050565b6000602082019050919050565b61065a81610624565b610664818461062f565b925061066f8261063a565b8060005b838110156106a0578151610687878261039e565b965061069283610644565b925050600181019050610673565b505050505050565b600060c0820190506106bd6000830185610651565b6106ca6060830184610651565b9392505050565b6000602082840312156106e7576106e661043f565b5b60006106f58482850161045b565b91505092915050565b61070781610385565b82525050565b600060208201905061072260008301846106fe565b92915050565b600060608201905061073d6000830184610651565b92915050565b7f4e487b7100000000000000000000000000000000000000000000000000000000600052603260045260246000fdfea2646970667358221220ba69e832750bdb172c4ea59206cd44f878e994f5c686a0c7faec9a30d033655664736f6c63430008120033",
					"opcodes": "PUSH1 0x80 PUSH1 0x40 MSTORE CALLVALUE DUP1 ISZERO PUSH2 0x10 JUMPI PUSH1 0x0 DUP1 REVERT JUMPDEST POP PUSH2 0x7A8 DUP1 PUSH2 0x20 PUSH1 0x0 CODECOPY PUSH1 0x0 RETURN INVALID PUSH1 0x80 PUSH1 0x40 MSTORE CALLVALUE DUP1 ISZERO PUSH2 0x10 JUMPI PUSH1 0x0 DUP1 REVERT JUMPDEST POP PUSH1 0x4 CALLDATASIZE LT PUSH2 0x7D JUMPI PUSH1 0x0 CALLDATALOAD PUSH1 0xE0 SHR DUP1 PUSH4 0xA692574C GT PUSH2 0x5B JUMPI DUP1 PUSH4 0xA692574C EQ PUSH2 0xD8 JUMPI DUP1 PUSH4 0xBC6B888B EQ PUSH2 0xF7 JUMPI DUP1 PUSH4 0xBE1C766B EQ PUSH2 0x127 JUMPI DUP1 PUSH4 0xE0CB6A9A EQ PUSH2 0x145 JUMPI PUSH2 0x7D JUMP JUMPDEST DUP1 PUSH4 0x19EB4A90 EQ PUSH2 0x82 JUMPI DUP1 PUSH4 0x7B8D56E3 EQ PUSH2 0xA0 JUMPI DUP1 PUSH4 0x89E5EC80 EQ PUSH2 0xBC JUMPI JUMPDEST PUSH1 0x0 DUP1 REVERT JUMPDEST PUSH2 0x8A PUSH2 0x163 JUMP JUMPDEST PUSH1 0x40 MLOAD PUSH2 0x97 SWAP2 SWAP1 PUSH2 0x41A JUMP JUMPDEST PUSH1 0x40 MLOAD DUP1 SWAP2 SUB SWAP1 RETURN JUMPDEST PUSH2 0xBA PUSH1 0x4 DUP1 CALLDATASIZE SUB DUP2 ADD SWAP1 PUSH2 0xB5 SWAP2 SWAP1 PUSH2 0x470 JUMP JUMPDEST PUSH2 0x1AE JUMP JUMPDEST STOP JUMPDEST PUSH2 0xD6 PUSH1 0x4 DUP1 CALLDATASIZE SUB DUP2 ADD SWAP1 PUSH2 0xD1 SWAP2 SWAP1 PUSH2 0x5F7 JUMP JUMPDEST PUSH2 0x1CC JUMP JUMPDEST STOP JUMPDEST PUSH2 0xE0 PUSH2 0x267 JUMP JUMPDEST PUSH1 0x40 MLOAD PUSH2 0xEE SWAP3 SWAP2 SWAP1 PUSH2 0x6A8 JUMP JUMPDEST PUSH1 0x40 MLOAD DUP1 SWAP2 SUB SWAP1 RETURN JUMPDEST PUSH2 0x111 PUSH1 0x4 DUP1 CALLDATASIZE SUB DUP2 ADD SWAP1 PUSH2 0x10C SWAP2 SWAP1 PUSH2 0x6D1 JUMP JUMPDEST PUSH2 0x2C9 JUMP JUMPDEST PUSH1 0x40 MLOAD PUSH2 0x11E SWAP2 SWAP1 PUSH2 0x70D JUMP JUMPDEST PUSH1 0x40 MLOAD DUP1 SWAP2 SUB SWAP1 RETURN JUMPDEST PUSH2 0x12F PUSH2 0x2E7 JUMP JUMPDEST PUSH1 0x40 MLOAD PUSH2 0x13C SWAP2 SWAP1 PUSH2 0x70D JUMP JUMPDEST PUSH1 0x40 MLOAD DUP1 SWAP2 SUB SWAP1 RETURN JUMPDEST PUSH2 0x14D PUSH2 0x2F0 JUMP JUMPDEST PUSH1 0x40 MLOAD PUSH2 0x15A SWAP2 SWAP1 PUSH2 0x728 JUMP JUMPDEST PUSH1 0x40 MLOAD DUP1 SWAP2 SUB SWAP1 RETURN JUMPDEST PUSH2 0x16B PUSH2 0x321 JUMP JUMPDEST PUSH1 0x0 PUSH1 0x5 DUP1 PUSH1 0x20 MUL PUSH1 0x40 MLOAD SWAP1 DUP2 ADD PUSH1 0x40 MSTORE DUP1 SWAP3 SWAP2 SWAP1 DUP3 PUSH1 0x5 DUP1 ISZERO PUSH2 0x1A4 JUMPI PUSH1 0x20 MUL DUP3 ADD SWAP2 JUMPDEST DUP2 SLOAD DUP2 MSTORE PUSH1 0x20 ADD SWAP1 PUSH1 0x1 ADD SWAP1 DUP1 DUP4 GT PUSH2 0x190 JUMPI JUMPDEST POP POP POP POP POP SWAP1 POP SWAP1 JUMP JUMPDEST DUP1 PUSH1 0x0 DUP4 PUSH1 0x5 DUP2 LT PUSH2 0x1C3 JUMPI PUSH2 0x1C2 PUSH2 0x743 JUMP JUMPDEST JUMPDEST ADD DUP2 SWAP1 SSTORE POP POP POP JUMP JUMPDEST DUP1 PUSH1 0x0 PUSH1 0x3 DUP2 LT PUSH2 0x1E0 JUMPI PUSH2 0x1DF PUSH2 0x743 JUMP JUMPDEST JUMPDEST PUSH1 0x20 MUL ADD MLOAD PUSH1 0x0 DUP1 PUSH1 0x5 DUP2 LT PUSH2 0x1F9 JUMPI PUSH2 0x1F8 PUSH2 0x743 JUMP JUMPDEST JUMPDEST ADD DUP2 SWAP1 SSTORE POP DUP1 PUSH1 0x1 PUSH1 0x3 DUP2 LT PUSH2 0x212 JUMPI PUSH2 0x211 PUSH2 0x743 JUMP JUMPDEST JUMPDEST PUSH1 0x20 MUL ADD MLOAD PUSH1 0x0 PUSH1 0x1 PUSH1 0x5 DUP2 LT PUSH2 0x22C JUMPI PUSH2 0x22B PUSH2 0x743 JUMP JUMPDEST JUMPDEST ADD DUP2 SWAP1 SSTORE POP DUP1 PUSH1 0x2 PUSH1 0x3 DUP2 LT PUSH2 0x245 JUMPI PUSH2 0x244 PUSH2 0x743 JUMP JUMPDEST JUMPDEST PUSH1 0x20 MUL ADD MLOAD PUSH1 0x0 PUSH1 0x4 PUSH1 0x5 DUP2 LT PUSH2 0x25F JUMPI PUSH2 0x25E PUSH2 0x743 JUMP JUMPDEST JUMPDEST ADD DUP2 SWAP1 SSTORE POP POP JUMP JUMPDEST PUSH2 0x26F PUSH2 0x343 JUMP JUMPDEST PUSH2 0x277 PUSH2 0x343 JUMP JUMPDEST PUSH1 0x0 PUSH1 0x40 MLOAD DUP1 PUSH1 0x60 ADD PUSH1 0x40 MSTORE DUP1 PUSH1 0x1 DUP2 MSTORE PUSH1 0x20 ADD PUSH1 0x2 DUP2 MSTORE PUSH1 0x20 ADD PUSH1 0x3 DUP2 MSTORE POP SWAP1 POP PUSH1 0x0 DUP2 SWAP1 POP PUSH1 0x63 DUP2 PUSH1 0x2 PUSH1 0x3 DUP2 LT PUSH2 0x2B4 JUMPI PUSH2 0x2B3 PUSH2 0x743 JUMP JUMPDEST JUMPDEST PUSH1 0x20 MUL ADD DUP2 DUP2 MSTORE POP POP DUP2 DUP2 SWAP4 POP SWAP4 POP POP POP SWAP1 SWAP2 JUMP JUMPDEST PUSH1 0x0 DUP1 DUP3 PUSH1 0x5 DUP2 LT PUSH2 0x2DE JUMPI PUSH2 0x2DD PUSH2 0x743 JUMP JUMPDEST JUMPDEST ADD SLOAD SWAP1 POP SWAP2 SWAP1 POP JUMP JUMPDEST PUSH1 0x0 PUSH1 0x5 SWAP1 POP SWAP1 JUMP JUMPDEST PUSH2 0x2F8 PUSH2 0x343 JUMP JUMPDEST PUSH1 0x0 PUSH1 0x40 MLOAD DUP1 PUSH1 0x60 ADD PUSH1 0x40 MSTORE DUP1 PUSH1 0x1 DUP2 MSTORE PUSH1 0x20 ADD PUSH1 0x2 DUP2 MSTORE PUSH1 0x20 ADD PUSH1 0x3 DUP2 MSTORE POP SWAP1 POP DUP1 SWAP2 POP POP SWAP1 JUMP JUMPDEST PUSH1 0x40 MLOAD DUP1 PUSH1 0xA0 ADD PUSH1 0x40 MSTORE DUP1 PUSH1 0x5 SWAP1 PUSH1 0x20 DUP3 MUL DUP1 CALLDATASIZE DUP4 CALLDATACOPY DUP1 DUP3 ADD SWAP2 POP POP SWAP1 POP POP SWAP1 JUMP JUMPDEST PUSH1 0x40 MLOAD DUP1 PUSH1 0x60 ADD PUSH1 0x40 MSTORE DUP1 PUSH1 0x3 SWAP1 PUSH1 0x20 DUP3 MUL DUP1 CALLDATASIZE DUP4 CALLDATACOPY DUP1 DUP3 ADD SWAP2 POP POP SWAP1 POP POP SWAP1 JUMP JUMPDEST PUSH1 0x0 PUSH1 0x5 SWAP1 POP SWAP2 SWAP1 POP JUMP JUMPDEST PUSH1 0x0 DUP2 SWAP1 POP SWAP3 SWAP2 POP POP JUMP JUMPDEST PUSH1 0x0 DUP2 SWAP1 POP SWAP2 SWAP1 POP JUMP JUMPDEST PUSH1 0x0 DUP2 SWAP1 POP SWAP2 SWAP1 POP JUMP JUMPDEST PUSH2 0x398 DUP2 PUSH2 0x385 JUMP JUMPDEST DUP3 MSTORE POP POP JUMP JUMPDEST PUSH1 0x0 PUSH2 0x3AA DUP4 DUP4 PUSH2 0x38F JUMP JUMPDEST PUSH1 0x20 DUP4 ADD SWAP1 POP SWAP3 SWAP2 POP POP JUMP JUMPDEST PUSH1 0x0 PUSH1 0x20 DUP3 ADD SWAP1 POP SWAP2 SWAP1 POP JUMP JUMPDEST PUSH2 0x3CC DUP2 PUSH2 0x365 JUMP JUMPDEST PUSH2 0x3D6 DUP2 DUP5 PUSH2 0x370 JUMP JUMPDEST SWAP3 POP PUSH2 0x3E1 DUP3 PUSH2 0x37B JUMP JUMPDEST DUP1 PUSH1 0x0 JUMPDEST DUP4 DUP2 LT ISZERO PUSH2 0x412 JUMPI DUP2 MLOAD PUSH2 0x3F9 DUP8 DUP3 PUSH2 0x39E JUMP JUMPDEST SWAP7 POP PUSH2 0x404 DUP4 PUSH2 0x3B6 JUMP JUMPDEST SWAP3 POP POP PUSH1 0x1 DUP2 ADD SWAP1 POP PUSH2 0x3E5 JUMP JUMPDEST POP POP POP POP POP POP JUMP JUMPDEST PUSH1 0x0 PUSH1 0xA0 DUP3 ADD SWAP1 POP PUSH2 0x42F PUSH1 0x0 DUP4 ADD DUP5 PUSH2 0x3C3 JUMP JUMPDEST SWAP3 SWAP2 POP POP JUMP JUMPDEST PUSH1 0x0 PUSH1 0x40 MLOAD SWAP1 POP SWAP1 JUMP JUMPDEST PUSH1 0x0 DUP1 REVERT JUMPDEST PUSH2 0x44D DUP2 PUSH2 0x385 JUMP JUMPDEST DUP2 EQ PUSH2 0x458 JUMPI PUSH1 0x0 DUP1 REVERT JUMPDEST POP JUMP JUMPDEST PUSH1 0x0 DUP2 CALLDATALOAD SWAP1 POP PUSH2 0x46A DUP2 PUSH2 0x444 JUMP JUMPDEST SWAP3 SWAP2 POP POP JUMP JUMPDEST PUSH1 0x0 DUP1 PUSH1 0x40 DUP4 DUP6 SUB SLT ISZERO PUSH2 0x487 JUMPI PUSH2 0x486 PUSH2 0x43F JUMP JUMPDEST JUMPDEST PUSH1 0x0 PUSH2 0x495 DUP6 DUP3 DUP7 ADD PUSH2 0x45B JUMP JUMPDEST SWAP3 POP POP PUSH1 0x20 PUSH2 0x4A6 DUP6 DUP3 DUP7 ADD PUSH2 0x45B JUMP JUMPDEST SWAP2 POP POP SWAP3 POP SWAP3 SWAP1 POP JUMP JUMPDEST PUSH1 0x0 DUP1 REVERT JUMPDEST PUSH1 0x0 PUSH1 0x1F NOT PUSH1 0x1F DUP4 ADD AND SWAP1 POP SWAP2 SWAP1 POP JUMP JUMPDEST PUSH32 0x4E487B7100000000000000000000000000000000000000000000000000000000 PUSH1 0x0 MSTORE PUSH1 0x41 PUSH1 0x4 MSTORE PUSH1 0x24 PUSH1 0x0 REVERT JUMPDEST PUSH2 0x4FE DUP3 PUSH2 0x4B5 JUMP JUMPDEST DUP2 ADD DUP2 DUP2 LT PUSH8 0xFFFFFFFFFFFFFFFF DUP3 GT OR ISZERO PUSH2 0x51D JUMPI PUSH2 0x51C PUSH2 0x4C6 JUMP JUMPDEST JUMPDEST DUP1 PUSH1 0x40 MSTORE POP POP POP JUMP JUMPDEST PUSH1 0x0 PUSH2 0x530 PUSH2 0x435 JUMP JUMPDEST SWAP1 POP PUSH2 0x53C DUP3 DUP3 PUSH2 0x4F5 JUMP JUMPDEST SWAP2 SWAP1 POP JUMP JUMPDEST PUSH1 0x0 PUSH8 0xFFFFFFFFFFFFFFFF DUP3 GT ISZERO PUSH2 0x55C JUMPI PUSH2 0x55B PUSH2 0x4C6 JUMP JUMPDEST JUMPDEST PUSH1 0x20 DUP3 MUL SWAP1 POP SWAP2 SWAP1 POP JUMP JUMPDEST PUSH1 0x0 DUP1 REVERT JUMPDEST PUSH1 0x0 PUSH2 0x57F PUSH2 0x57A DUP5 PUSH2 0x541 JUMP JUMPDEST PUSH2 0x526 JUMP JUMPDEST SWAP1 POP DUP1 PUSH1 0x20 DUP5 MUL DUP4 ADD DUP6 DUP2 GT ISZERO PUSH2 0x599 JUMPI PUSH2 0x598 PUSH2 0x567 JUMP JUMPDEST JUMPDEST DUP4 JUMPDEST DUP2 DUP2 LT ISZERO PUSH2 0x5C2 JUMPI DUP1 PUSH2 0x5AE DUP9 DUP3 PUSH2 0x45B JUMP JUMPDEST DUP5 MSTORE PUSH1 0x20 DUP5 ADD SWAP4 POP POP PUSH1 0x20 DUP2 ADD SWAP1 POP PUSH2 0x59B JUMP JUMPDEST POP POP POP SWAP4 SWAP3 POP POP POP JUMP JUMPDEST PUSH1 0x0 DUP3 PUSH1 0x1F DUP4 ADD SLT PUSH2 0x5E1 JUMPI PUSH2 0x5E0 PUSH2 0x4B0 JUMP JUMPDEST JUMPDEST PUSH1 0x3 PUSH2 0x5EE DUP5 DUP3 DUP6 PUSH2 0x56C JUMP JUMPDEST SWAP2 POP POP SWAP3 SWAP2 POP POP JUMP JUMPDEST PUSH1 0x0 PUSH1 0x60 DUP3 DUP5 SUB SLT ISZERO PUSH2 0x60D JUMPI PUSH2 0x60C PUSH2 0x43F JUMP JUMPDEST JUMPDEST PUSH1 0x0 PUSH2 0x61B DUP5 DUP3 DUP6 ADD PUSH2 0x5CC JUMP JUMPDEST SWAP2 POP POP SWAP3 SWAP2 POP POP JUMP JUMPDEST PUSH1 0x0 PUSH1 0x3 SWAP1 POP SWAP2 SWAP1 POP JUMP JUMPDEST PUSH1 0x0 DUP2 SWAP1 POP SWAP3 SWAP2 POP POP JUMP JUMPDEST PUSH1 0x0 DUP2 SWAP1 POP SWAP2 SWAP1 POP JUMP JUMPDEST PUSH1 0x0 PUSH1 0x20 DUP3 ADD SWAP1 POP SWAP2 SWAP1 POP JUMP JUMPDEST PUSH2 0x65A DUP2 PUSH2 0x624 JUMP JUMPDEST PUSH2 0x664 DUP2 DUP5 PUSH2 0x62F JUMP JUMPDEST SWAP3 POP PUSH2 0x66F DUP3 PUSH2 0x63A JUMP JUMPDEST DUP1 PUSH1 0x0 JUMPDEST DUP4 DUP2 LT ISZERO PUSH2 0x6A0 JUMPI DUP2 MLOAD PUSH2 0x687 DUP8 DUP3 PUSH2 0x39E JUMP JUMPDEST SWAP7 POP PUSH2 0x692 DUP4 PUSH2 0x644 JUMP JUMPDEST SWAP3 POP POP PUSH1 0x1 DUP2 ADD SWAP1 POP PUSH2 0x673 JUMP JUMPDEST POP POP POP POP POP POP JUMP JUMPDEST PUSH1 0x0 PUSH1 0xC0 DUP3 ADD SWAP1 POP PUSH2 0x6BD PUSH1 0x0 DUP4 ADD DUP6 PUSH2 0x651 JUMP JUMPDEST PUSH2 0x6CA PUSH1 0x60 DUP4 ADD DUP5 PUSH2 0x651 JUMP JUMPDEST SWAP4 SWAP3 POP POP POP JUMP JUMPDEST PUSH1 0x0 PUSH1 0x20 DUP3 DUP5 SUB SLT ISZERO PUSH2 0x6E7 JUMPI PUSH2 0x6E6 PUSH2 0x43F JUMP JUMPDEST JUMPDEST PUSH1 0x0 PUSH2 0x6F5 DUP5 DUP3 DUP6 ADD PUSH2 0x45B JUMP JUMPDEST SWAP2 POP POP SWAP3 SWAP2 POP POP JUMP JUMPDEST PUSH2 0x707 DUP2 PUSH2 0x385 JUMP JUMPDEST DUP3 MSTORE POP POP JUMP JUMPDEST PUSH1 0x0 PUSH1 0x20 DUP3 ADD SWAP1 POP PUSH2 0x722 PUSH1 0x0 DUP4 ADD DUP5 PUSH2 0x6FE JUMP JUMPDEST SWAP3 SWAP2 POP POP JUMP JUMPDEST PUSH1 0x0 PUSH1 0x60 DUP3 ADD SWAP1 POP PUSH2 0x73D PUSH1 0x0 DUP4 ADD DUP5 PUSH2 0x651 JUMP JUMPDEST SWAP3 SWAP2 POP POP JUMP JUMPDEST PUSH32 0x4E487B7100000000000000000000000000000000000000000000000000000000 PUSH1 0x0 MSTORE PUSH1 0x32 PUSH1 0x4 MSTORE PUSH1 0x24 PUSH1 0x0 REVERT INVALID LOG2 PUSH5 0x6970667358 0x22 SLT KECCAK256 0xBA PUSH10 0xE832750BDB172C4EA592 MOD 0xCD PREVRANDAO 0xF8 PUSH25 0xE994F5C686A0C7FAEC9A30D033655664736F6C634300081200 CALLER "
				},
				"gasEstimates": {
					"creation": {
						"codeDepositCost": "392000",
						"executionCost": "430",
						"totalCost": "392430"
					},
					"external": {
						"getFixedArray()": "infinite",
						"getFixedMultipleArrays()": "infinite",
						"getLength()": "381",
						"getValueAt(uint256)": "infinite",
						"getValues()": "infinite",
						"setValue(uint256,uint256)": "infinite",
						"setValues(uint256[3])": "infinite"
					}
				},
				"methodIdentifiers": {
					"getFixedArray()": "e0cb6a9a",
					"getFixedMultipleArrays()": "a692574c",
					"getLength()": "be1c766b",
					"getValueAt(uint256)": "bc6b888b",
					"getValues()": "19eb4a90",
					"setValue(uint256,uint256)": "7b8d56e3",
					"setValues(uint256[3])": "89e5ec80"
				}
			},
			"storageLayout": {
				"storage": [
					{
						"astId": 5,
						"contract": "Fall-2023/07_FixedArray.sol:FixedArray",
						"label": "arr",
						"offset": 0,
						"slot": "0",
						"type": "t_array(t_uint256)5_storage"
					}
				],
				"types": {
					"t_array(t_uint256)5_storage": {
						"base": "t_uint256",
						"encoding": "inplace",
						"label": "uint256[5]",
						"numberOfBytes": "160"
					},
					"t_uint256": {
						"encoding": "inplace",
						"label": "uint256",
						"numberOfBytes": "32"
					}
				}
			},
			"userdoc": {
				"kind": "user",
				"methods": {},
				"version": 1
			}
		}
	}
}