{
	"Fall-2023/Copy_25_InheritanceComposition.sol": {
		"C": {
			"abi": [
				{
					"inputs": [
						{
							"internalType": "uint256",
							"name": "_age",
							"type": "uint256"
						},
						{
							"internalType": "string",
							"name": "_name",
							"type": "string"
						},
						{
							"internalType": "uint256",
							"name": "_c",
							"type": "uint256"
						}
					],
					"stateMutability": "nonpayable",
					"type": "constructor"
				},
				{
					"inputs": [],
					"name": "ageC",
					"outputs": [
						{
							"internalType": "uint256",
							"name": "",
							"type": "uint256"
						}
					],
					"stateMutability": "view",
					"type": "function"
				},
				{
					"inputs": [],
					"name": "c",
					"outputs": [
						{
							"internalType": "uint256",
							"name": "",
							"type": "uint256"
						}
					],
					"stateMutability": "view",
					"type": "function"
				},
				{
					"inputs": [],
					"name": "f1",
					"outputs": [
						{
							"internalType": "uint256",
							"name": "",
							"type": "uint256"
						}
					],
					"stateMutability": "pure",
					"type": "function"
				},
				{
					"inputs": [],
					"name": "getAge",
					"outputs": [
						{
							"internalType": "uint256",
							"name": "",
							"type": "uint256"
						}
					],
					"stateMutability": "view",
					"type": "function"
				},
				{
					"inputs": [],
					"name": "name",
					"outputs": [
						{
							"internalType": "string",
							"name": "",
							"type": "string"
						}
					],
					"stateMutability": "view",
					"type": "function"
				},
				{
					"inputs": [
						{
							"internalType": "uint256",
							"name": "_age",
							"type": "uint256"
						}
					],
					"name": "setAge",
					"outputs": [],
					"stateMutability": "nonpayable",
					"type": "function"
				}
			],
			"devdoc": {
				"kind": "dev",
				"methods": {},
				"version": 1
			},
			"evm": {
				"assembly": "    /* \"Fall-2023/Copy_25_InheritanceComposition.sol\":608:1048  contract C is A... */\n  mstore(0x40, 0x80)\n    /* \"Fall-2023/Copy_25_InheritanceComposition.sol\":109:135  string public name = \"Ali\" */\n  mload(0x40)\n  dup1\n  0x40\n  add\n  0x40\n  mstore\n  dup1\n  0x03\n  dup2\n  mstore\n  0x20\n  add\n  0x416c690000000000000000000000000000000000000000000000000000000000\n  dup2\n  mstore\n  pop\n  0x01\n  swap1\n  dup2\n  tag_1\n  swap2\n  swap1\n  tag_2\n  jump\t// in\ntag_1:\n  pop\n    /* \"Fall-2023/Copy_25_InheritanceComposition.sol\":657:665  getAge() */\n  tag_3\n    /* \"Fall-2023/Copy_25_InheritanceComposition.sol\":657:663  getAge */\n  shl(0x20, tag_4)\n    /* \"Fall-2023/Copy_25_InheritanceComposition.sol\":657:665  getAge() */\n  0x20\n  shr\n  jump\t// in\ntag_3:\n    /* \"Fall-2023/Copy_25_InheritanceComposition.sol\":638:665  uint public ageC = getAge() */\n  0x02\n  sstore\n    /* \"Fall-2023/Copy_25_InheritanceComposition.sol\":694:823  constructor(uint _age, string memory _name, uint _c) A(_age, _name)... */\n  callvalue\n  dup1\n  iszero\n  tag_5\n  jumpi\n  0x00\n  dup1\n  revert\ntag_5:\n  pop\n  mload(0x40)\n  sub(codesize, bytecodeSize)\n  dup1\n  bytecodeSize\n  dup4\n  codecopy\n  dup2\n  dup2\n  add\n  0x40\n  mstore\n  dup2\n  add\n  swap1\n  tag_6\n  swap2\n  swap1\n  tag_7\n  jump\t// in\ntag_6:\n    /* \"Fall-2023/Copy_25_InheritanceComposition.sol\":749:753  _age */\n  dup3\n    /* \"Fall-2023/Copy_25_InheritanceComposition.sol\":755:760  _name */\n  dup3\n    /* \"Fall-2023/Copy_25_InheritanceComposition.sol\":214:218  _age */\n  dup2\n    /* \"Fall-2023/Copy_25_InheritanceComposition.sol\":208:211  age */\n  0x00\n    /* \"Fall-2023/Copy_25_InheritanceComposition.sol\":208:218  age = _age */\n  dup2\n  swap1\n  sstore\n  pop\n    /* \"Fall-2023/Copy_25_InheritanceComposition.sol\":236:241  _name */\n  dup1\n    /* \"Fall-2023/Copy_25_InheritanceComposition.sol\":229:233  name */\n  0x01\n    /* \"Fall-2023/Copy_25_InheritanceComposition.sol\":229:241  name = _name */\n  swap1\n  dup2\n  tag_11\n  swap2\n  swap1\n  tag_2\n  jump\t// in\ntag_11:\n  pop\n    /* \"Fall-2023/Copy_25_InheritanceComposition.sol\":148:249  constructor(uint _age, string memory _name)... */\n  pop\n  pop\n    /* \"Fall-2023/Copy_25_InheritanceComposition.sol\":782:784  _c */\n  dup1\n    /* \"Fall-2023/Copy_25_InheritanceComposition.sol\":778:779  c */\n  0x03\n    /* \"Fall-2023/Copy_25_InheritanceComposition.sol\":778:784  c = _c */\n  dup2\n  swap1\n  sstore\n  pop\n    /* \"Fall-2023/Copy_25_InheritanceComposition.sol\":694:823  constructor(uint _age, string memory _name, uint _c) A(_age, _name)... */\n  pop\n  pop\n  pop\n    /* \"Fall-2023/Copy_25_InheritanceComposition.sol\":608:1048  contract C is A... */\n  jump(tag_13)\n    /* \"Fall-2023/Copy_25_InheritanceComposition.sol\":341:419  function getAge() public view returns(uint)... */\ntag_4:\n    /* \"Fall-2023/Copy_25_InheritanceComposition.sol\":379:383  uint */\n  0x00\n    /* \"Fall-2023/Copy_25_InheritanceComposition.sol\":408:411  age */\n  dup1\n  sload\n    /* \"Fall-2023/Copy_25_InheritanceComposition.sol\":401:411  return age */\n  swap1\n  pop\n    /* \"Fall-2023/Copy_25_InheritanceComposition.sol\":341:419  function getAge() public view returns(uint)... */\n  swap1\n  jump\t// out\n    /* \"#utility.yul\":7:106   */\ntag_15:\n    /* \"#utility.yul\":59:65   */\n  0x00\n    /* \"#utility.yul\":93:98   */\n  dup2\n    /* \"#utility.yul\":87:99   */\n  mload\n    /* \"#utility.yul\":77:99   */\n  swap1\n  pop\n    /* \"#utility.yul\":7:106   */\n  swap2\n  swap1\n  pop\n  jump\t// out\n    /* \"#utility.yul\":112:292   */\ntag_16:\n    /* \"#utility.yul\":160:237   */\n  0x4e487b7100000000000000000000000000000000000000000000000000000000\n    /* \"#utility.yul\":157:158   */\n  0x00\n    /* \"#utility.yul\":150:238   */\n  mstore\n    /* \"#utility.yul\":257:261   */\n  0x41\n    /* \"#utility.yul\":254:255   */\n  0x04\n    /* \"#utility.yul\":247:262   */\n  mstore\n    /* \"#utility.yul\":281:285   */\n  0x24\n    /* \"#utility.yul\":278:279   */\n  0x00\n    /* \"#utility.yul\":271:286   */\n  revert\n    /* \"#utility.yul\":298:478   */\ntag_17:\n    /* \"#utility.yul\":346:423   */\n  0x4e487b7100000000000000000000000000000000000000000000000000000000\n    /* \"#utility.yul\":343:344   */\n  0x00\n    /* \"#utility.yul\":336:424   */\n  mstore\n    /* \"#utility.yul\":443:447   */\n  0x22\n    /* \"#utility.yul\":440:441   */\n  0x04\n    /* \"#utility.yul\":433:448   */\n  mstore\n    /* \"#utility.yul\":467:471   */\n  0x24\n    /* \"#utility.yul\":464:465   */\n  0x00\n    /* \"#utility.yul\":457:472   */\n  revert\n    /* \"#utility.yul\":484:804   */\ntag_18:\n    /* \"#utility.yul\":528:534   */\n  0x00\n    /* \"#utility.yul\":565:566   */\n  0x02\n    /* \"#utility.yul\":559:563   */\n  dup3\n    /* \"#utility.yul\":555:567   */\n  div\n    /* \"#utility.yul\":545:567   */\n  swap1\n  pop\n    /* \"#utility.yul\":612:613   */\n  0x01\n    /* \"#utility.yul\":606:610   */\n  dup3\n    /* \"#utility.yul\":602:614   */\n  and\n    /* \"#utility.yul\":633:651   */\n  dup1\n    /* \"#utility.yul\":623:704   */\n  tag_54\n  jumpi\n    /* \"#utility.yul\":689:693   */\n  0x7f\n    /* \"#utility.yul\":681:687   */\n  dup3\n    /* \"#utility.yul\":677:694   */\n  and\n    /* \"#utility.yul\":667:694   */\n  swap2\n  pop\n    /* \"#utility.yul\":623:704   */\ntag_54:\n    /* \"#utility.yul\":751:753   */\n  0x20\n    /* \"#utility.yul\":743:749   */\n  dup3\n    /* \"#utility.yul\":740:754   */\n  lt\n    /* \"#utility.yul\":720:738   */\n  dup2\n    /* \"#utility.yul\":717:755   */\n  sub\n    /* \"#utility.yul\":714:798   */\n  tag_55\n  jumpi\n    /* \"#utility.yul\":770:788   */\n  tag_56\n  tag_17\n  jump\t// in\ntag_56:\n    /* \"#utility.yul\":714:798   */\ntag_55:\n    /* \"#utility.yul\":535:804   */\n  pop\n    /* \"#utility.yul\":484:804   */\n  swap2\n  swap1\n  pop\n  jump\t// out\n    /* \"#utility.yul\":810:951   */\ntag_19:\n    /* \"#utility.yul\":859:863   */\n  0x00\n    /* \"#utility.yul\":882:885   */\n  dup2\n    /* \"#utility.yul\":874:885   */\n  swap1\n  pop\n    /* \"#utility.yul\":905:908   */\n  dup2\n    /* \"#utility.yul\":902:903   */\n  0x00\n    /* \"#utility.yul\":895:909   */\n  mstore\n    /* \"#utility.yul\":939:943   */\n  0x20\n    /* \"#utility.yul\":936:937   */\n  0x00\n    /* \"#utility.yul\":926:944   */\n  keccak256\n    /* \"#utility.yul\":918:944   */\n  swap1\n  pop\n    /* \"#utility.yul\":810:951   */\n  swap2\n  swap1\n  pop\n  jump\t// out\n    /* \"#utility.yul\":957:1050   */\ntag_20:\n    /* \"#utility.yul\":994:1000   */\n  0x00\n    /* \"#utility.yul\":1041:1043   */\n  0x20\n    /* \"#utility.yul\":1036:1038   */\n  0x1f\n    /* \"#utility.yul\":1029:1034   */\n  dup4\n    /* \"#utility.yul\":1025:1039   */\n  add\n    /* \"#utility.yul\":1021:1044   */\n  div\n    /* \"#utility.yul\":1011:1044   */\n  swap1\n  pop\n    /* \"#utility.yul\":957:1050   */\n  swap2\n  swap1\n  pop\n  jump\t// out\n    /* \"#utility.yul\":1056:1163   */\ntag_21:\n    /* \"#utility.yul\":1100:1108   */\n  0x00\n    /* \"#utility.yul\":1150:1155   */\n  dup3\n    /* \"#utility.yul\":1144:1148   */\n  dup3\n    /* \"#utility.yul\":1140:1156   */\n  shl\n    /* \"#utility.yul\":1119:1156   */\n  swap1\n  pop\n    /* \"#utility.yul\":1056:1163   */\n  swap3\n  swap2\n  pop\n  pop\n  jump\t// out\n    /* \"#utility.yul\":1169:1562   */\ntag_22:\n    /* \"#utility.yul\":1238:1244   */\n  0x00\n    /* \"#utility.yul\":1288:1289   */\n  0x08\n    /* \"#utility.yul\":1276:1286   */\n  dup4\n    /* \"#utility.yul\":1272:1290   */\n  mul\n    /* \"#utility.yul\":1311:1408   */\n  tag_61\n    /* \"#utility.yul\":1341:1407   */\n  0xffffffffffffffffffffffffffffffffffffffffffffffffffffffffffffffff\n    /* \"#utility.yul\":1330:1339   */\n  dup3\n    /* \"#utility.yul\":1311:1408   */\n  tag_21\n  jump\t// in\ntag_61:\n    /* \"#utility.yul\":1429:1468   */\n  tag_62\n    /* \"#utility.yul\":1459:1467   */\n  dup7\n    /* \"#utility.yul\":1448:1457   */\n  dup4\n    /* \"#utility.yul\":1429:1468   */\n  tag_21\n  jump\t// in\ntag_62:\n    /* \"#utility.yul\":1417:1468   */\n  swap6\n  pop\n    /* \"#utility.yul\":1501:1505   */\n  dup1\n    /* \"#utility.yul\":1497:1506   */\n  not\n    /* \"#utility.yul\":1490:1495   */\n  dup5\n    /* \"#utility.yul\":1486:1507   */\n  and\n    /* \"#utility.yul\":1477:1507   */\n  swap4\n  pop\n    /* \"#utility.yul\":1550:1554   */\n  dup1\n    /* \"#utility.yul\":1540:1548   */\n  dup7\n    /* \"#utility.yul\":1536:1555   */\n  and\n    /* \"#utility.yul\":1529:1534   */\n  dup5\n    /* \"#utility.yul\":1526:1556   */\n  or\n    /* \"#utility.yul\":1516:1556   */\n  swap3\n  pop\n    /* \"#utility.yul\":1245:1562   */\n  pop\n  pop\n    /* \"#utility.yul\":1169:1562   */\n  swap4\n  swap3\n  pop\n  pop\n  pop\n  jump\t// out\n    /* \"#utility.yul\":1568:1645   */\ntag_23:\n    /* \"#utility.yul\":1605:1612   */\n  0x00\n    /* \"#utility.yul\":1634:1639   */\n  dup2\n    /* \"#utility.yul\":1623:1639   */\n  swap1\n  pop\n    /* \"#utility.yul\":1568:1645   */\n  swap2\n  swap1\n  pop\n  jump\t// out\n    /* \"#utility.yul\":1651:1711   */\ntag_24:\n    /* \"#utility.yul\":1679:1682   */\n  0x00\n    /* \"#utility.yul\":1700:1705   */\n  dup2\n    /* \"#utility.yul\":1693:1705   */\n  swap1\n  pop\n    /* \"#utility.yul\":1651:1711   */\n  swap2\n  swap1\n  pop\n  jump\t// out\n    /* \"#utility.yul\":1717:1859   */\ntag_25:\n    /* \"#utility.yul\":1767:1776   */\n  0x00\n    /* \"#utility.yul\":1800:1853   */\n  tag_66\n    /* \"#utility.yul\":1818:1852   */\n  tag_67\n    /* \"#utility.yul\":1827:1851   */\n  tag_68\n    /* \"#utility.yul\":1845:1850   */\n  dup5\n    /* \"#utility.yul\":1827:1851   */\n  tag_23\n  jump\t// in\ntag_68:\n    /* \"#utility.yul\":1818:1852   */\n  tag_24\n  jump\t// in\ntag_67:\n    /* \"#utility.yul\":1800:1853   */\n  tag_23\n  jump\t// in\ntag_66:\n    /* \"#utility.yul\":1787:1853   */\n  swap1\n  pop\n    /* \"#utility.yul\":1717:1859   */\n  swap2\n  swap1\n  pop\n  jump\t// out\n    /* \"#utility.yul\":1865:1940   */\ntag_26:\n    /* \"#utility.yul\":1908:1911   */\n  0x00\n    /* \"#utility.yul\":1929:1934   */\n  dup2\n    /* \"#utility.yul\":1922:1934   */\n  swap1\n  pop\n    /* \"#utility.yul\":1865:1940   */\n  swap2\n  swap1\n  pop\n  jump\t// out\n    /* \"#utility.yul\":1946:2215   */\ntag_27:\n    /* \"#utility.yul\":2056:2095   */\n  tag_71\n    /* \"#utility.yul\":2087:2094   */\n  dup4\n    /* \"#utility.yul\":2056:2095   */\n  tag_25\n  jump\t// in\ntag_71:\n    /* \"#utility.yul\":2117:2208   */\n  tag_72\n    /* \"#utility.yul\":2166:2207   */\n  tag_73\n    /* \"#utility.yul\":2190:2206   */\n  dup3\n    /* \"#utility.yul\":2166:2207   */\n  tag_26\n  jump\t// in\ntag_73:\n    /* \"#utility.yul\":2158:2164   */\n  dup5\n    /* \"#utility.yul\":2151:2155   */\n  dup5\n    /* \"#utility.yul\":2145:2156   */\n  sload\n    /* \"#utility.yul\":2117:2208   */\n  tag_22\n  jump\t// in\ntag_72:\n    /* \"#utility.yul\":2111:2115   */\n  dup3\n    /* \"#utility.yul\":2104:2209   */\n  sstore\n    /* \"#utility.yul\":2022:2215   */\n  pop\n    /* \"#utility.yul\":1946:2215   */\n  pop\n  pop\n  pop\n  jump\t// out\n    /* \"#utility.yul\":2221:2294   */\ntag_28:\n    /* \"#utility.yul\":2266:2269   */\n  0x00\n    /* \"#utility.yul\":2221:2294   */\n  swap1\n  jump\t// out\n    /* \"#utility.yul\":2300:2489   */\ntag_29:\n    /* \"#utility.yul\":2377:2409   */\n  tag_76\n  tag_28\n  jump\t// in\ntag_76:\n    /* \"#utility.yul\":2418:2483   */\n  tag_77\n    /* \"#utility.yul\":2476:2482   */\n  dup2\n    /* \"#utility.yul\":2468:2474   */\n  dup5\n    /* \"#utility.yul\":2462:2466   */\n  dup5\n    /* \"#utility.yul\":2418:2483   */\n  tag_27\n  jump\t// in\ntag_77:\n    /* \"#utility.yul\":2353:2489   */\n  pop\n    /* \"#utility.yul\":2300:2489   */\n  pop\n  pop\n  jump\t// out\n    /* \"#utility.yul\":2495:2681   */\ntag_30:\n    /* \"#utility.yul\":2555:2675   */\ntag_79:\n    /* \"#utility.yul\":2572:2575   */\n  dup2\n    /* \"#utility.yul\":2565:2570   */\n  dup2\n    /* \"#utility.yul\":2562:2576   */\n  lt\n    /* \"#utility.yul\":2555:2675   */\n  iszero\n  tag_81\n  jumpi\n    /* \"#utility.yul\":2626:2665   */\n  tag_82\n    /* \"#utility.yul\":2663:2664   */\n  0x00\n    /* \"#utility.yul\":2656:2661   */\n  dup3\n    /* \"#utility.yul\":2626:2665   */\n  tag_29\n  jump\t// in\ntag_82:\n    /* \"#utility.yul\":2599:2600   */\n  0x01\n    /* \"#utility.yul\":2592:2597   */\n  dup2\n    /* \"#utility.yul\":2588:2601   */\n  add\n    /* \"#utility.yul\":2579:2601   */\n  swap1\n  pop\n    /* \"#utility.yul\":2555:2675   */\n  jump(tag_79)\ntag_81:\n    /* \"#utility.yul\":2495:2681   */\n  pop\n  pop\n  jump\t// out\n    /* \"#utility.yul\":2687:3230   */\ntag_31:\n    /* \"#utility.yul\":2788:2790   */\n  0x1f\n    /* \"#utility.yul\":2783:2786   */\n  dup3\n    /* \"#utility.yul\":2780:2791   */\n  gt\n    /* \"#utility.yul\":2777:3223   */\n  iszero\n  tag_84\n  jumpi\n    /* \"#utility.yul\":2822:2860   */\n  tag_85\n    /* \"#utility.yul\":2854:2859   */\n  dup2\n    /* \"#utility.yul\":2822:2860   */\n  tag_19\n  jump\t// in\ntag_85:\n    /* \"#utility.yul\":2906:2935   */\n  tag_86\n    /* \"#utility.yul\":2924:2934   */\n  dup5\n    /* \"#utility.yul\":2906:2935   */\n  tag_20\n  jump\t// in\ntag_86:\n    /* \"#utility.yul\":2896:2904   */\n  dup2\n    /* \"#utility.yul\":2892:2936   */\n  add\n    /* \"#utility.yul\":3089:3091   */\n  0x20\n    /* \"#utility.yul\":3077:3087   */\n  dup6\n    /* \"#utility.yul\":3074:3092   */\n  lt\n    /* \"#utility.yul\":3071:3120   */\n  iszero\n  tag_87\n  jumpi\n    /* \"#utility.yul\":3110:3118   */\n  dup2\n    /* \"#utility.yul\":3095:3118   */\n  swap1\n  pop\n    /* \"#utility.yul\":3071:3120   */\ntag_87:\n    /* \"#utility.yul\":3133:3213   */\n  tag_88\n    /* \"#utility.yul\":3189:3211   */\n  tag_89\n    /* \"#utility.yul\":3207:3210   */\n  dup6\n    /* \"#utility.yul\":3189:3211   */\n  tag_20\n  jump\t// in\ntag_89:\n    /* \"#utility.yul\":3179:3187   */\n  dup4\n    /* \"#utility.yul\":3175:3212   */\n  add\n    /* \"#utility.yul\":3162:3173   */\n  dup3\n    /* \"#utility.yul\":3133:3213   */\n  tag_30\n  jump\t// in\ntag_88:\n    /* \"#utility.yul\":2792:3223   */\n  pop\n  pop\n    /* \"#utility.yul\":2777:3223   */\ntag_84:\n    /* \"#utility.yul\":2687:3230   */\n  pop\n  pop\n  pop\n  jump\t// out\n    /* \"#utility.yul\":3236:3353   */\ntag_32:\n    /* \"#utility.yul\":3290:3298   */\n  0x00\n    /* \"#utility.yul\":3340:3345   */\n  dup3\n    /* \"#utility.yul\":3334:3338   */\n  dup3\n    /* \"#utility.yul\":3330:3346   */\n  shr\n    /* \"#utility.yul\":3309:3346   */\n  swap1\n  pop\n    /* \"#utility.yul\":3236:3353   */\n  swap3\n  swap2\n  pop\n  pop\n  jump\t// out\n    /* \"#utility.yul\":3359:3528   */\ntag_33:\n    /* \"#utility.yul\":3403:3409   */\n  0x00\n    /* \"#utility.yul\":3436:3487   */\n  tag_92\n    /* \"#utility.yul\":3484:3485   */\n  0x00\n    /* \"#utility.yul\":3480:3486   */\n  not\n    /* \"#utility.yul\":3472:3477   */\n  dup5\n    /* \"#utility.yul\":3469:3470   */\n  0x08\n    /* \"#utility.yul\":3465:3478   */\n  mul\n    /* \"#utility.yul\":3436:3487   */\n  tag_32\n  jump\t// in\ntag_92:\n    /* \"#utility.yul\":3432:3488   */\n  not\n    /* \"#utility.yul\":3517:3521   */\n  dup1\n    /* \"#utility.yul\":3511:3515   */\n  dup4\n    /* \"#utility.yul\":3507:3522   */\n  and\n    /* \"#utility.yul\":3497:3522   */\n  swap2\n  pop\n    /* \"#utility.yul\":3410:3528   */\n  pop\n    /* \"#utility.yul\":3359:3528   */\n  swap3\n  swap2\n  pop\n  pop\n  jump\t// out\n    /* \"#utility.yul\":3533:3828   */\ntag_34:\n    /* \"#utility.yul\":3609:3613   */\n  0x00\n    /* \"#utility.yul\":3755:3784   */\n  tag_94\n    /* \"#utility.yul\":3780:3783   */\n  dup4\n    /* \"#utility.yul\":3774:3778   */\n  dup4\n    /* \"#utility.yul\":3755:3784   */\n  tag_33\n  jump\t// in\ntag_94:\n    /* \"#utility.yul\":3747:3784   */\n  swap2\n  pop\n    /* \"#utility.yul\":3817:3820   */\n  dup3\n    /* \"#utility.yul\":3814:3815   */\n  0x02\n    /* \"#utility.yul\":3810:3821   */\n  mul\n    /* \"#utility.yul\":3804:3808   */\n  dup3\n    /* \"#utility.yul\":3801:3822   */\n  or\n    /* \"#utility.yul\":3793:3822   */\n  swap1\n  pop\n    /* \"#utility.yul\":3533:3828   */\n  swap3\n  swap2\n  pop\n  pop\n  jump\t// out\n    /* \"#utility.yul\":3833:5228   */\ntag_2:\n    /* \"#utility.yul\":3950:3987   */\n  tag_96\n    /* \"#utility.yul\":3983:3986   */\n  dup3\n    /* \"#utility.yul\":3950:3987   */\n  tag_15\n  jump\t// in\ntag_96:\n    /* \"#utility.yul\":4052:4070   */\n  0xffffffffffffffff\n    /* \"#utility.yul\":4044:4050   */\n  dup2\n    /* \"#utility.yul\":4041:4071   */\n  gt\n    /* \"#utility.yul\":4038:4094   */\n  iszero\n  tag_97\n  jumpi\n    /* \"#utility.yul\":4074:4092   */\n  tag_98\n  tag_16\n  jump\t// in\ntag_98:\n    /* \"#utility.yul\":4038:4094   */\ntag_97:\n    /* \"#utility.yul\":4118:4156   */\n  tag_99\n    /* \"#utility.yul\":4150:4154   */\n  dup3\n    /* \"#utility.yul\":4144:4155   */\n  sload\n    /* \"#utility.yul\":4118:4156   */\n  tag_18\n  jump\t// in\ntag_99:\n    /* \"#utility.yul\":4203:4270   */\n  tag_100\n    /* \"#utility.yul\":4263:4269   */\n  dup3\n    /* \"#utility.yul\":4255:4261   */\n  dup3\n    /* \"#utility.yul\":4249:4253   */\n  dup6\n    /* \"#utility.yul\":4203:4270   */\n  tag_31\n  jump\t// in\ntag_100:\n    /* \"#utility.yul\":4297:4298   */\n  0x00\n    /* \"#utility.yul\":4321:4325   */\n  0x20\n    /* \"#utility.yul\":4308:4325   */\n  swap1\n  pop\n    /* \"#utility.yul\":4353:4355   */\n  0x1f\n    /* \"#utility.yul\":4345:4351   */\n  dup4\n    /* \"#utility.yul\":4342:4356   */\n  gt\n    /* \"#utility.yul\":4370:4371   */\n  0x01\n    /* \"#utility.yul\":4365:4983   */\n  dup2\n  eq\n  tag_102\n  jumpi\n    /* \"#utility.yul\":5027:5028   */\n  0x00\n    /* \"#utility.yul\":5044:5050   */\n  dup5\n    /* \"#utility.yul\":5041:5118   */\n  iszero\n  tag_103\n  jumpi\n    /* \"#utility.yul\":5093:5102   */\n  dup3\n    /* \"#utility.yul\":5088:5091   */\n  dup8\n    /* \"#utility.yul\":5084:5103   */\n  add\n    /* \"#utility.yul\":5078:5104   */\n  mload\n    /* \"#utility.yul\":5069:5104   */\n  swap1\n  pop\n    /* \"#utility.yul\":5041:5118   */\ntag_103:\n    /* \"#utility.yul\":5144:5211   */\n  tag_104\n    /* \"#utility.yul\":5204:5210   */\n  dup6\n    /* \"#utility.yul\":5197:5202   */\n  dup3\n    /* \"#utility.yul\":5144:5211   */\n  tag_34\n  jump\t// in\ntag_104:\n    /* \"#utility.yul\":5138:5142   */\n  dup7\n    /* \"#utility.yul\":5131:5212   */\n  sstore\n    /* \"#utility.yul\":5000:5222   */\n  pop\n    /* \"#utility.yul\":4335:5222   */\n  jump(tag_101)\n    /* \"#utility.yul\":4365:4983   */\ntag_102:\n    /* \"#utility.yul\":4417:4421   */\n  0x1f\n    /* \"#utility.yul\":4413:4422   */\n  not\n    /* \"#utility.yul\":4405:4411   */\n  dup5\n    /* \"#utility.yul\":4401:4423   */\n  and\n    /* \"#utility.yul\":4451:4488   */\n  tag_105\n    /* \"#utility.yul\":4483:4487   */\n  dup7\n    /* \"#utility.yul\":4451:4488   */\n  tag_19\n  jump\t// in\ntag_105:\n    /* \"#utility.yul\":4510:4511   */\n  0x00\n    /* \"#utility.yul\":4524:4732   */\ntag_106:\n    /* \"#utility.yul\":4538:4545   */\n  dup3\n    /* \"#utility.yul\":4535:4536   */\n  dup2\n    /* \"#utility.yul\":4532:4546   */\n  lt\n    /* \"#utility.yul\":4524:4732   */\n  iszero\n  tag_108\n  jumpi\n    /* \"#utility.yul\":4617:4626   */\n  dup5\n    /* \"#utility.yul\":4612:4615   */\n  dup10\n    /* \"#utility.yul\":4608:4627   */\n  add\n    /* \"#utility.yul\":4602:4628   */\n  mload\n    /* \"#utility.yul\":4594:4600   */\n  dup3\n    /* \"#utility.yul\":4587:4629   */\n  sstore\n    /* \"#utility.yul\":4668:4669   */\n  0x01\n    /* \"#utility.yul\":4660:4666   */\n  dup3\n    /* \"#utility.yul\":4656:4670   */\n  add\n    /* \"#utility.yul\":4646:4670   */\n  swap2\n  pop\n    /* \"#utility.yul\":4715:4717   */\n  0x20\n    /* \"#utility.yul\":4704:4713   */\n  dup6\n    /* \"#utility.yul\":4700:4718   */\n  add\n    /* \"#utility.yul\":4687:4718   */\n  swap5\n  pop\n    /* \"#utility.yul\":4561:4565   */\n  0x20\n    /* \"#utility.yul\":4558:4559   */\n  dup2\n    /* \"#utility.yul\":4554:4566   */\n  add\n    /* \"#utility.yul\":4549:4566   */\n  swap1\n  pop\n    /* \"#utility.yul\":4524:4732   */\n  jump(tag_106)\ntag_108:\n    /* \"#utility.yul\":4760:4766   */\n  dup7\n    /* \"#utility.yul\":4751:4758   */\n  dup4\n    /* \"#utility.yul\":4748:4767   */\n  lt\n    /* \"#utility.yul\":4745:4924   */\n  iszero\n  tag_109\n  jumpi\n    /* \"#utility.yul\":4818:4827   */\n  dup5\n    /* \"#utility.yul\":4813:4816   */\n  dup10\n    /* \"#utility.yul\":4809:4828   */\n  add\n    /* \"#utility.yul\":4803:4829   */\n  mload\n    /* \"#utility.yul\":4861:4909   */\n  tag_110\n    /* \"#utility.yul\":4903:4907   */\n  0x1f\n    /* \"#utility.yul\":4895:4901   */\n  dup10\n    /* \"#utility.yul\":4891:4908   */\n  and\n    /* \"#utility.yul\":4880:4889   */\n  dup3\n    /* \"#utility.yul\":4861:4909   */\n  tag_33\n  jump\t// in\ntag_110:\n    /* \"#utility.yul\":4853:4859   */\n  dup4\n    /* \"#utility.yul\":4846:4910   */\n  sstore\n    /* \"#utility.yul\":4768:4924   */\n  pop\n    /* \"#utility.yul\":4745:4924   */\ntag_109:\n    /* \"#utility.yul\":4970:4971   */\n  0x01\n    /* \"#utility.yul\":4966:4967   */\n  0x02\n    /* \"#utility.yul\":4958:4964   */\n  dup9\n    /* \"#utility.yul\":4954:4968   */\n  mul\n    /* \"#utility.yul\":4950:4972   */\n  add\n    /* \"#utility.yul\":4944:4948   */\n  dup9\n    /* \"#utility.yul\":4937:4973   */\n  sstore\n    /* \"#utility.yul\":4372:4983   */\n  pop\n  pop\n  pop\n    /* \"#utility.yul\":4335:5222   */\ntag_101:\n  pop\n    /* \"#utility.yul\":3925:5228   */\n  pop\n  pop\n  pop\n    /* \"#utility.yul\":3833:5228   */\n  pop\n  pop\n  jump\t// out\n    /* \"#utility.yul\":5234:5309   */\ntag_35:\n    /* \"#utility.yul\":5267:5273   */\n  0x00\n    /* \"#utility.yul\":5300:5302   */\n  0x40\n    /* \"#utility.yul\":5294:5303   */\n  mload\n    /* \"#utility.yul\":5284:5303   */\n  swap1\n  pop\n    /* \"#utility.yul\":5234:5309   */\n  swap1\n  jump\t// out\n    /* \"#utility.yul\":5315:5432   */\ntag_36:\n    /* \"#utility.yul\":5424:5425   */\n  0x00\n    /* \"#utility.yul\":5421:5422   */\n  dup1\n    /* \"#utility.yul\":5414:5426   */\n  revert\n    /* \"#utility.yul\":5438:5555   */\ntag_37:\n    /* \"#utility.yul\":5547:5548   */\n  0x00\n    /* \"#utility.yul\":5544:5545   */\n  dup1\n    /* \"#utility.yul\":5537:5549   */\n  revert\n    /* \"#utility.yul\":5561:5683   */\ntag_38:\n    /* \"#utility.yul\":5634:5658   */\n  tag_115\n    /* \"#utility.yul\":5652:5657   */\n  dup2\n    /* \"#utility.yul\":5634:5658   */\n  tag_23\n  jump\t// in\ntag_115:\n    /* \"#utility.yul\":5627:5632   */\n  dup2\n    /* \"#utility.yul\":5624:5659   */\n  eq\n    /* \"#utility.yul\":5614:5677   */\n  tag_116\n  jumpi\n    /* \"#utility.yul\":5673:5674   */\n  0x00\n    /* \"#utility.yul\":5670:5671   */\n  dup1\n    /* \"#utility.yul\":5663:5675   */\n  revert\n    /* \"#utility.yul\":5614:5677   */\ntag_116:\n    /* \"#utility.yul\":5561:5683   */\n  pop\n  jump\t// out\n    /* \"#utility.yul\":5689:5832   */\ntag_39:\n    /* \"#utility.yul\":5746:5751   */\n  0x00\n    /* \"#utility.yul\":5777:5783   */\n  dup2\n    /* \"#utility.yul\":5771:5784   */\n  mload\n    /* \"#utility.yul\":5762:5784   */\n  swap1\n  pop\n    /* \"#utility.yul\":5793:5826   */\n  tag_118\n    /* \"#utility.yul\":5820:5825   */\n  dup2\n    /* \"#utility.yul\":5793:5826   */\n  tag_38\n  jump\t// in\ntag_118:\n    /* \"#utility.yul\":5689:5832   */\n  swap3\n  swap2\n  pop\n  pop\n  jump\t// out\n    /* \"#utility.yul\":5838:5955   */\ntag_40:\n    /* \"#utility.yul\":5947:5948   */\n  0x00\n    /* \"#utility.yul\":5944:5945   */\n  dup1\n    /* \"#utility.yul\":5937:5949   */\n  revert\n    /* \"#utility.yul\":5961:6078   */\ntag_41:\n    /* \"#utility.yul\":6070:6071   */\n  0x00\n    /* \"#utility.yul\":6067:6068   */\n  dup1\n    /* \"#utility.yul\":6060:6072   */\n  revert\n    /* \"#utility.yul\":6084:6186   */\ntag_42:\n    /* \"#utility.yul\":6125:6131   */\n  0x00\n    /* \"#utility.yul\":6176:6178   */\n  0x1f\n    /* \"#utility.yul\":6172:6179   */\n  not\n    /* \"#utility.yul\":6167:6169   */\n  0x1f\n    /* \"#utility.yul\":6160:6165   */\n  dup4\n    /* \"#utility.yul\":6156:6170   */\n  add\n    /* \"#utility.yul\":6152:6180   */\n  and\n    /* \"#utility.yul\":6142:6180   */\n  swap1\n  pop\n    /* \"#utility.yul\":6084:6186   */\n  swap2\n  swap1\n  pop\n  jump\t// out\n    /* \"#utility.yul\":6192:6473   */\ntag_43:\n    /* \"#utility.yul\":6275:6302   */\n  tag_123\n    /* \"#utility.yul\":6297:6301   */\n  dup3\n    /* \"#utility.yul\":6275:6302   */\n  tag_42\n  jump\t// in\ntag_123:\n    /* \"#utility.yul\":6267:6273   */\n  dup2\n    /* \"#utility.yul\":6263:6303   */\n  add\n    /* \"#utility.yul\":6405:6411   */\n  dup2\n    /* \"#utility.yul\":6393:6403   */\n  dup2\n    /* \"#utility.yul\":6390:6412   */\n  lt\n    /* \"#utility.yul\":6369:6387   */\n  0xffffffffffffffff\n    /* \"#utility.yul\":6357:6367   */\n  dup3\n    /* \"#utility.yul\":6354:6388   */\n  gt\n    /* \"#utility.yul\":6351:6413   */\n  or\n    /* \"#utility.yul\":6348:6436   */\n  iszero\n  tag_124\n  jumpi\n    /* \"#utility.yul\":6416:6434   */\n  tag_125\n  tag_16\n  jump\t// in\ntag_125:\n    /* \"#utility.yul\":6348:6436   */\ntag_124:\n    /* \"#utility.yul\":6456:6466   */\n  dup1\n    /* \"#utility.yul\":6452:6454   */\n  0x40\n    /* \"#utility.yul\":6445:6467   */\n  mstore\n    /* \"#utility.yul\":6235:6473   */\n  pop\n    /* \"#utility.yul\":6192:6473   */\n  pop\n  pop\n  jump\t// out\n    /* \"#utility.yul\":6479:6608   */\ntag_44:\n    /* \"#utility.yul\":6513:6519   */\n  0x00\n    /* \"#utility.yul\":6540:6560   */\n  tag_127\n  tag_35\n  jump\t// in\ntag_127:\n    /* \"#utility.yul\":6530:6560   */\n  swap1\n  pop\n    /* \"#utility.yul\":6569:6602   */\n  tag_128\n    /* \"#utility.yul\":6597:6601   */\n  dup3\n    /* \"#utility.yul\":6589:6595   */\n  dup3\n    /* \"#utility.yul\":6569:6602   */\n  tag_43\n  jump\t// in\ntag_128:\n    /* \"#utility.yul\":6479:6608   */\n  swap2\n  swap1\n  pop\n  jump\t// out\n    /* \"#utility.yul\":6614:6922   */\ntag_45:\n    /* \"#utility.yul\":6676:6680   */\n  0x00\n    /* \"#utility.yul\":6766:6784   */\n  0xffffffffffffffff\n    /* \"#utility.yul\":6758:6764   */\n  dup3\n    /* \"#utility.yul\":6755:6785   */\n  gt\n    /* \"#utility.yul\":6752:6808   */\n  iszero\n  tag_130\n  jumpi\n    /* \"#utility.yul\":6788:6806   */\n  tag_131\n  tag_16\n  jump\t// in\ntag_131:\n    /* \"#utility.yul\":6752:6808   */\ntag_130:\n    /* \"#utility.yul\":6826:6855   */\n  tag_132\n    /* \"#utility.yul\":6848:6854   */\n  dup3\n    /* \"#utility.yul\":6826:6855   */\n  tag_42\n  jump\t// in\ntag_132:\n    /* \"#utility.yul\":6818:6855   */\n  swap1\n  pop\n    /* \"#utility.yul\":6910:6914   */\n  0x20\n    /* \"#utility.yul\":6904:6908   */\n  dup2\n    /* \"#utility.yul\":6900:6915   */\n  add\n    /* \"#utility.yul\":6892:6915   */\n  swap1\n  pop\n    /* \"#utility.yul\":6614:6922   */\n  swap2\n  swap1\n  pop\n  jump\t// out\n    /* \"#utility.yul\":6928:7174   */\ntag_46:\n    /* \"#utility.yul\":7009:7010   */\n  0x00\n    /* \"#utility.yul\":7019:7132   */\ntag_134:\n    /* \"#utility.yul\":7033:7039   */\n  dup4\n    /* \"#utility.yul\":7030:7031   */\n  dup2\n    /* \"#utility.yul\":7027:7040   */\n  lt\n    /* \"#utility.yul\":7019:7132   */\n  iszero\n  tag_136\n  jumpi\n    /* \"#utility.yul\":7118:7119   */\n  dup1\n    /* \"#utility.yul\":7113:7116   */\n  dup3\n    /* \"#utility.yul\":7109:7120   */\n  add\n    /* \"#utility.yul\":7103:7121   */\n  mload\n    /* \"#utility.yul\":7099:7100   */\n  dup2\n    /* \"#utility.yul\":7094:7097   */\n  dup5\n    /* \"#utility.yul\":7090:7101   */\n  add\n    /* \"#utility.yul\":7083:7122   */\n  mstore\n    /* \"#utility.yul\":7055:7057   */\n  0x20\n    /* \"#utility.yul\":7052:7053   */\n  dup2\n    /* \"#utility.yul\":7048:7058   */\n  add\n    /* \"#utility.yul\":7043:7058   */\n  swap1\n  pop\n    /* \"#utility.yul\":7019:7132   */\n  jump(tag_134)\ntag_136:\n    /* \"#utility.yul\":7166:7167   */\n  0x00\n    /* \"#utility.yul\":7157:7163   */\n  dup5\n    /* \"#utility.yul\":7152:7155   */\n  dup5\n    /* \"#utility.yul\":7148:7164   */\n  add\n    /* \"#utility.yul\":7141:7168   */\n  mstore\n    /* \"#utility.yul\":6990:7174   */\n  pop\n    /* \"#utility.yul\":6928:7174   */\n  pop\n  pop\n  pop\n  jump\t// out\n    /* \"#utility.yul\":7180:7614   */\ntag_47:\n    /* \"#utility.yul\":7269:7274   */\n  0x00\n    /* \"#utility.yul\":7294:7360   */\n  tag_138\n    /* \"#utility.yul\":7310:7359   */\n  tag_139\n    /* \"#utility.yul\":7352:7358   */\n  dup5\n    /* \"#utility.yul\":7310:7359   */\n  tag_45\n  jump\t// in\ntag_139:\n    /* \"#utility.yul\":7294:7360   */\n  tag_44\n  jump\t// in\ntag_138:\n    /* \"#utility.yul\":7285:7360   */\n  swap1\n  pop\n    /* \"#utility.yul\":7383:7389   */\n  dup3\n    /* \"#utility.yul\":7376:7381   */\n  dup2\n    /* \"#utility.yul\":7369:7390   */\n  mstore\n    /* \"#utility.yul\":7421:7425   */\n  0x20\n    /* \"#utility.yul\":7414:7419   */\n  dup2\n    /* \"#utility.yul\":7410:7426   */\n  add\n    /* \"#utility.yul\":7459:7462   */\n  dup5\n    /* \"#utility.yul\":7450:7456   */\n  dup5\n    /* \"#utility.yul\":7445:7448   */\n  dup5\n    /* \"#utility.yul\":7441:7457   */\n  add\n    /* \"#utility.yul\":7438:7463   */\n  gt\n    /* \"#utility.yul\":7435:7547   */\n  iszero\n  tag_140\n  jumpi\n    /* \"#utility.yul\":7466:7545   */\n  tag_141\n  tag_41\n  jump\t// in\ntag_141:\n    /* \"#utility.yul\":7435:7547   */\ntag_140:\n    /* \"#utility.yul\":7556:7608   */\n  tag_142\n    /* \"#utility.yul\":7601:7607   */\n  dup5\n    /* \"#utility.yul\":7596:7599   */\n  dup3\n    /* \"#utility.yul\":7591:7594   */\n  dup6\n    /* \"#utility.yul\":7556:7608   */\n  tag_46\n  jump\t// in\ntag_142:\n    /* \"#utility.yul\":7275:7614   */\n  pop\n    /* \"#utility.yul\":7180:7614   */\n  swap4\n  swap3\n  pop\n  pop\n  pop\n  jump\t// out\n    /* \"#utility.yul\":7634:7989   */\ntag_48:\n    /* \"#utility.yul\":7701:7706   */\n  0x00\n    /* \"#utility.yul\":7750:7753   */\n  dup3\n    /* \"#utility.yul\":7743:7747   */\n  0x1f\n    /* \"#utility.yul\":7735:7741   */\n  dup4\n    /* \"#utility.yul\":7731:7748   */\n  add\n    /* \"#utility.yul\":7727:7754   */\n  slt\n    /* \"#utility.yul\":7717:7839   */\n  tag_144\n  jumpi\n    /* \"#utility.yul\":7758:7837   */\n  tag_145\n  tag_40\n  jump\t// in\ntag_145:\n    /* \"#utility.yul\":7717:7839   */\ntag_144:\n    /* \"#utility.yul\":7868:7874   */\n  dup2\n    /* \"#utility.yul\":7862:7875   */\n  mload\n    /* \"#utility.yul\":7893:7983   */\n  tag_146\n    /* \"#utility.yul\":7979:7982   */\n  dup5\n    /* \"#utility.yul\":7971:7977   */\n  dup3\n    /* \"#utility.yul\":7964:7968   */\n  0x20\n    /* \"#utility.yul\":7956:7962   */\n  dup7\n    /* \"#utility.yul\":7952:7969   */\n  add\n    /* \"#utility.yul\":7893:7983   */\n  tag_47\n  jump\t// in\ntag_146:\n    /* \"#utility.yul\":7884:7983   */\n  swap2\n  pop\n    /* \"#utility.yul\":7707:7989   */\n  pop\n    /* \"#utility.yul\":7634:7989   */\n  swap3\n  swap2\n  pop\n  pop\n  jump\t// out\n    /* \"#utility.yul\":7995:8831   */\ntag_7:\n    /* \"#utility.yul\":8093:8099   */\n  0x00\n    /* \"#utility.yul\":8101:8107   */\n  dup1\n    /* \"#utility.yul\":8109:8115   */\n  0x00\n    /* \"#utility.yul\":8158:8160   */\n  0x60\n    /* \"#utility.yul\":8146:8155   */\n  dup5\n    /* \"#utility.yul\":8137:8144   */\n  dup7\n    /* \"#utility.yul\":8133:8156   */\n  sub\n    /* \"#utility.yul\":8129:8161   */\n  slt\n    /* \"#utility.yul\":8126:8245   */\n  iszero\n  tag_148\n  jumpi\n    /* \"#utility.yul\":8164:8243   */\n  tag_149\n  tag_36\n  jump\t// in\ntag_149:\n    /* \"#utility.yul\":8126:8245   */\ntag_148:\n    /* \"#utility.yul\":8284:8285   */\n  0x00\n    /* \"#utility.yul\":8309:8373   */\n  tag_150\n    /* \"#utility.yul\":8365:8372   */\n  dup7\n    /* \"#utility.yul\":8356:8362   */\n  dup3\n    /* \"#utility.yul\":8345:8354   */\n  dup8\n    /* \"#utility.yul\":8341:8363   */\n  add\n    /* \"#utility.yul\":8309:8373   */\n  tag_39\n  jump\t// in\ntag_150:\n    /* \"#utility.yul\":8299:8373   */\n  swap4\n  pop\n    /* \"#utility.yul\":8255:8383   */\n  pop\n    /* \"#utility.yul\":8443:8445   */\n  0x20\n    /* \"#utility.yul\":8432:8441   */\n  dup5\n    /* \"#utility.yul\":8428:8446   */\n  add\n    /* \"#utility.yul\":8422:8447   */\n  mload\n    /* \"#utility.yul\":8474:8492   */\n  0xffffffffffffffff\n    /* \"#utility.yul\":8466:8472   */\n  dup2\n    /* \"#utility.yul\":8463:8493   */\n  gt\n    /* \"#utility.yul\":8460:8577   */\n  iszero\n  tag_151\n  jumpi\n    /* \"#utility.yul\":8496:8575   */\n  tag_152\n  tag_37\n  jump\t// in\ntag_152:\n    /* \"#utility.yul\":8460:8577   */\ntag_151:\n    /* \"#utility.yul\":8601:8675   */\n  tag_153\n    /* \"#utility.yul\":8667:8674   */\n  dup7\n    /* \"#utility.yul\":8658:8664   */\n  dup3\n    /* \"#utility.yul\":8647:8656   */\n  dup8\n    /* \"#utility.yul\":8643:8665   */\n  add\n    /* \"#utility.yul\":8601:8675   */\n  tag_48\n  jump\t// in\ntag_153:\n    /* \"#utility.yul\":8591:8675   */\n  swap3\n  pop\n    /* \"#utility.yul\":8393:8685   */\n  pop\n    /* \"#utility.yul\":8724:8726   */\n  0x40\n    /* \"#utility.yul\":8750:8814   */\n  tag_154\n    /* \"#utility.yul\":8806:8813   */\n  dup7\n    /* \"#utility.yul\":8797:8803   */\n  dup3\n    /* \"#utility.yul\":8786:8795   */\n  dup8\n    /* \"#utility.yul\":8782:8804   */\n  add\n    /* \"#utility.yul\":8750:8814   */\n  tag_39\n  jump\t// in\ntag_154:\n    /* \"#utility.yul\":8740:8814   */\n  swap2\n  pop\n    /* \"#utility.yul\":8695:8824   */\n  pop\n    /* \"#utility.yul\":7995:8831   */\n  swap3\n  pop\n  swap3\n  pop\n  swap3\n  jump\t// out\n    /* \"Fall-2023/Copy_25_InheritanceComposition.sol\":608:1048  contract C is A... */\ntag_13:\n  dataSize(sub_0)\n  dup1\n  dataOffset(sub_0)\n  0x00\n  codecopy\n  0x00\n  return\nstop\n\nsub_0: assembly {\n        /* \"Fall-2023/Copy_25_InheritanceComposition.sol\":608:1048  contract C is A... */\n      mstore(0x40, 0x80)\n      callvalue\n      dup1\n      iszero\n      tag_1\n      jumpi\n      0x00\n      dup1\n      revert\n    tag_1:\n      pop\n      jumpi(tag_2, lt(calldatasize, 0x04))\n      shr(0xe0, calldataload(0x00))\n      dup1\n      0x06fdde03\n      eq\n      tag_3\n      jumpi\n      dup1\n      0x181c929c\n      eq\n      tag_4\n      jumpi\n      dup1\n      0x967e6e65\n      eq\n      tag_5\n      jumpi\n      dup1\n      0xc27fc305\n      eq\n      tag_6\n      jumpi\n      dup1\n      0xc3da42b8\n      eq\n      tag_7\n      jumpi\n      dup1\n      0xd5dcf127\n      eq\n      tag_8\n      jumpi\n    tag_2:\n      0x00\n      dup1\n      revert\n        /* \"Fall-2023/Copy_25_InheritanceComposition.sol\":109:135  string public name = \"Ali\" */\n    tag_3:\n      tag_9\n      tag_10\n      jump\t// in\n    tag_9:\n      mload(0x40)\n      tag_11\n      swap2\n      swap1\n      tag_12\n      jump\t// in\n    tag_11:\n      mload(0x40)\n      dup1\n      swap2\n      sub\n      swap1\n      return\n        /* \"Fall-2023/Copy_25_InheritanceComposition.sol\":638:665  uint public ageC = getAge() */\n    tag_4:\n      tag_13\n      tag_14\n      jump\t// in\n    tag_13:\n      mload(0x40)\n      tag_15\n      swap2\n      swap1\n      tag_16\n      jump\t// in\n    tag_15:\n      mload(0x40)\n      dup1\n      swap2\n      sub\n      swap1\n      return\n        /* \"Fall-2023/Copy_25_InheritanceComposition.sol\":341:419  function getAge() public view returns(uint)... */\n    tag_5:\n      tag_17\n      tag_18\n      jump\t// in\n    tag_17:\n      mload(0x40)\n      tag_19\n      swap2\n      swap1\n      tag_16\n      jump\t// in\n    tag_19:\n      mload(0x40)\n      dup1\n      swap2\n      sub\n      swap1\n      return\n        /* \"Fall-2023/Copy_25_InheritanceComposition.sol\":924:1043  function f1() public pure override returns(uint)... */\n    tag_6:\n      tag_20\n      tag_21\n      jump\t// in\n    tag_20:\n      mload(0x40)\n      tag_22\n      swap2\n      swap1\n      tag_16\n      jump\t// in\n    tag_22:\n      mload(0x40)\n      dup1\n      swap2\n      sub\n      swap1\n      return\n        /* \"Fall-2023/Copy_25_InheritanceComposition.sol\":672:685  uint public c */\n    tag_7:\n      tag_23\n      tag_24\n      jump\t// in\n    tag_23:\n      mload(0x40)\n      tag_25\n      swap2\n      swap1\n      tag_16\n      jump\t// in\n    tag_25:\n      mload(0x40)\n      dup1\n      swap2\n      sub\n      swap1\n      return\n        /* \"Fall-2023/Copy_25_InheritanceComposition.sol\":831:916  function setAge(uint _age) public override... */\n    tag_8:\n      tag_26\n      0x04\n      dup1\n      calldatasize\n      sub\n      dup2\n      add\n      swap1\n      tag_27\n      swap2\n      swap1\n      tag_28\n      jump\t// in\n    tag_27:\n      tag_29\n      jump\t// in\n    tag_26:\n      stop\n        /* \"Fall-2023/Copy_25_InheritanceComposition.sol\":109:135  string public name = \"Ali\" */\n    tag_10:\n      0x01\n      dup1\n      sload\n      tag_30\n      swap1\n      tag_31\n      jump\t// in\n    tag_30:\n      dup1\n      0x1f\n      add\n      0x20\n      dup1\n      swap2\n      div\n      mul\n      0x20\n      add\n      mload(0x40)\n      swap1\n      dup2\n      add\n      0x40\n      mstore\n      dup1\n      swap3\n      swap2\n      swap1\n      dup2\n      dup2\n      mstore\n      0x20\n      add\n      dup3\n      dup1\n      sload\n      tag_32\n      swap1\n      tag_31\n      jump\t// in\n    tag_32:\n      dup1\n      iszero\n      tag_33\n      jumpi\n      dup1\n      0x1f\n      lt\n      tag_34\n      jumpi\n      0x0100\n      dup1\n      dup4\n      sload\n      div\n      mul\n      dup4\n      mstore\n      swap2\n      0x20\n      add\n      swap2\n      jump(tag_33)\n    tag_34:\n      dup3\n      add\n      swap2\n      swap1\n      0x00\n      mstore\n      keccak256(0x00, 0x20)\n      swap1\n    tag_35:\n      dup2\n      sload\n      dup2\n      mstore\n      swap1\n      0x01\n      add\n      swap1\n      0x20\n      add\n      dup1\n      dup4\n      gt\n      tag_35\n      jumpi\n      dup3\n      swap1\n      sub\n      0x1f\n      and\n      dup3\n      add\n      swap2\n    tag_33:\n      pop\n      pop\n      pop\n      pop\n      pop\n      dup2\n      jump\t// out\n        /* \"Fall-2023/Copy_25_InheritanceComposition.sol\":638:665  uint public ageC = getAge() */\n    tag_14:\n      sload(0x02)\n      dup2\n      jump\t// out\n        /* \"Fall-2023/Copy_25_InheritanceComposition.sol\":341:419  function getAge() public view returns(uint)... */\n    tag_18:\n        /* \"Fall-2023/Copy_25_InheritanceComposition.sol\":379:383  uint */\n      0x00\n        /* \"Fall-2023/Copy_25_InheritanceComposition.sol\":408:411  age */\n      dup1\n      sload\n        /* \"Fall-2023/Copy_25_InheritanceComposition.sol\":401:411  return age */\n      swap1\n      pop\n        /* \"Fall-2023/Copy_25_InheritanceComposition.sol\":341:419  function getAge() public view returns(uint)... */\n      swap1\n      jump\t// out\n        /* \"Fall-2023/Copy_25_InheritanceComposition.sol\":924:1043  function f1() public pure override returns(uint)... */\n    tag_21:\n        /* \"Fall-2023/Copy_25_InheritanceComposition.sol\":967:971  uint */\n      0x00\n        /* \"Fall-2023/Copy_25_InheritanceComposition.sol\":989:997  uint val */\n      dup1\n        /* \"Fall-2023/Copy_25_InheritanceComposition.sol\":1000:1010  super.f1() */\n      tag_38\n        /* \"Fall-2023/Copy_25_InheritanceComposition.sol\":1000:1008  super.f1 */\n      tag_39\n        /* \"Fall-2023/Copy_25_InheritanceComposition.sol\":1000:1010  super.f1() */\n      jump\t// in\n    tag_38:\n        /* \"Fall-2023/Copy_25_InheritanceComposition.sol\":989:1010  uint val = super.f1() */\n      swap1\n      pop\n        /* \"Fall-2023/Copy_25_InheritanceComposition.sol\":1034:1035  1 */\n      0x01\n        /* \"Fall-2023/Copy_25_InheritanceComposition.sol\":1028:1031  val */\n      dup2\n        /* \"Fall-2023/Copy_25_InheritanceComposition.sol\":1028:1035  val + 1 */\n      tag_40\n      swap2\n      swap1\n      tag_41\n      jump\t// in\n    tag_40:\n        /* \"Fall-2023/Copy_25_InheritanceComposition.sol\":1021:1035  return val + 1 */\n      swap2\n      pop\n      pop\n        /* \"Fall-2023/Copy_25_InheritanceComposition.sol\":924:1043  function f1() public pure override returns(uint)... */\n      swap1\n      jump\t// out\n        /* \"Fall-2023/Copy_25_InheritanceComposition.sol\":672:685  uint public c */\n    tag_24:\n      sload(0x03)\n      dup2\n      jump\t// out\n        /* \"Fall-2023/Copy_25_InheritanceComposition.sol\":831:916  function setAge(uint _age) public override... */\n    tag_29:\n        /* \"Fall-2023/Copy_25_InheritanceComposition.sol\":890:908  super.setAge(_age) */\n      tag_43\n        /* \"Fall-2023/Copy_25_InheritanceComposition.sol\":903:907  _age */\n      dup2\n        /* \"Fall-2023/Copy_25_InheritanceComposition.sol\":890:902  super.setAge */\n      tag_44\n        /* \"Fall-2023/Copy_25_InheritanceComposition.sol\":890:908  super.setAge(_age) */\n      jump\t// in\n    tag_43:\n        /* \"Fall-2023/Copy_25_InheritanceComposition.sol\":831:916  function setAge(uint _age) public override... */\n      pop\n      jump\t// out\n        /* \"Fall-2023/Copy_25_InheritanceComposition.sol\":427:507  function f1() public pure virtual returns(uint)... */\n    tag_39:\n        /* \"Fall-2023/Copy_25_InheritanceComposition.sol\":469:473  uint */\n      0x00\n        /* \"Fall-2023/Copy_25_InheritanceComposition.sol\":498:499  1 */\n      0x01\n        /* \"Fall-2023/Copy_25_InheritanceComposition.sol\":491:499  return 1 */\n      swap1\n      pop\n        /* \"Fall-2023/Copy_25_InheritanceComposition.sol\":427:507  function f1() public pure virtual returns(uint)... */\n      swap1\n      jump\t// out\n        /* \"Fall-2023/Copy_25_InheritanceComposition.sol\":257:333  function setAge(uint _age) public virtual... */\n    tag_44:\n        /* \"Fall-2023/Copy_25_InheritanceComposition.sol\":321:325  _age */\n      dup1\n        /* \"Fall-2023/Copy_25_InheritanceComposition.sol\":315:318  age */\n      0x00\n        /* \"Fall-2023/Copy_25_InheritanceComposition.sol\":315:325  age = _age */\n      dup2\n      swap1\n      sstore\n      pop\n        /* \"Fall-2023/Copy_25_InheritanceComposition.sol\":257:333  function setAge(uint _age) public virtual... */\n      pop\n      jump\t// out\n        /* \"#utility.yul\":7:106   */\n    tag_47:\n        /* \"#utility.yul\":59:65   */\n      0x00\n        /* \"#utility.yul\":93:98   */\n      dup2\n        /* \"#utility.yul\":87:99   */\n      mload\n        /* \"#utility.yul\":77:99   */\n      swap1\n      pop\n        /* \"#utility.yul\":7:106   */\n      swap2\n      swap1\n      pop\n      jump\t// out\n        /* \"#utility.yul\":112:281   */\n    tag_48:\n        /* \"#utility.yul\":196:207   */\n      0x00\n        /* \"#utility.yul\":230:236   */\n      dup3\n        /* \"#utility.yul\":225:228   */\n      dup3\n        /* \"#utility.yul\":218:237   */\n      mstore\n        /* \"#utility.yul\":270:274   */\n      0x20\n        /* \"#utility.yul\":265:268   */\n      dup3\n        /* \"#utility.yul\":261:275   */\n      add\n        /* \"#utility.yul\":246:275   */\n      swap1\n      pop\n        /* \"#utility.yul\":112:281   */\n      swap3\n      swap2\n      pop\n      pop\n      jump\t// out\n        /* \"#utility.yul\":287:533   */\n    tag_49:\n        /* \"#utility.yul\":368:369   */\n      0x00\n        /* \"#utility.yul\":378:491   */\n    tag_65:\n        /* \"#utility.yul\":392:398   */\n      dup4\n        /* \"#utility.yul\":389:390   */\n      dup2\n        /* \"#utility.yul\":386:399   */\n      lt\n        /* \"#utility.yul\":378:491   */\n      iszero\n      tag_67\n      jumpi\n        /* \"#utility.yul\":477:478   */\n      dup1\n        /* \"#utility.yul\":472:475   */\n      dup3\n        /* \"#utility.yul\":468:479   */\n      add\n        /* \"#utility.yul\":462:480   */\n      mload\n        /* \"#utility.yul\":458:459   */\n      dup2\n        /* \"#utility.yul\":453:456   */\n      dup5\n        /* \"#utility.yul\":449:460   */\n      add\n        /* \"#utility.yul\":442:481   */\n      mstore\n        /* \"#utility.yul\":414:416   */\n      0x20\n        /* \"#utility.yul\":411:412   */\n      dup2\n        /* \"#utility.yul\":407:417   */\n      add\n        /* \"#utility.yul\":402:417   */\n      swap1\n      pop\n        /* \"#utility.yul\":378:491   */\n      jump(tag_65)\n    tag_67:\n        /* \"#utility.yul\":525:526   */\n      0x00\n        /* \"#utility.yul\":516:522   */\n      dup5\n        /* \"#utility.yul\":511:514   */\n      dup5\n        /* \"#utility.yul\":507:523   */\n      add\n        /* \"#utility.yul\":500:527   */\n      mstore\n        /* \"#utility.yul\":349:533   */\n      pop\n        /* \"#utility.yul\":287:533   */\n      pop\n      pop\n      pop\n      jump\t// out\n        /* \"#utility.yul\":539:641   */\n    tag_50:\n        /* \"#utility.yul\":580:586   */\n      0x00\n        /* \"#utility.yul\":631:633   */\n      0x1f\n        /* \"#utility.yul\":627:634   */\n      not\n        /* \"#utility.yul\":622:624   */\n      0x1f\n        /* \"#utility.yul\":615:620   */\n      dup4\n        /* \"#utility.yul\":611:625   */\n      add\n        /* \"#utility.yul\":607:635   */\n      and\n        /* \"#utility.yul\":597:635   */\n      swap1\n      pop\n        /* \"#utility.yul\":539:641   */\n      swap2\n      swap1\n      pop\n      jump\t// out\n        /* \"#utility.yul\":647:1024   */\n    tag_51:\n        /* \"#utility.yul\":735:738   */\n      0x00\n        /* \"#utility.yul\":763:802   */\n      tag_70\n        /* \"#utility.yul\":796:801   */\n      dup3\n        /* \"#utility.yul\":763:802   */\n      tag_47\n      jump\t// in\n    tag_70:\n        /* \"#utility.yul\":818:889   */\n      tag_71\n        /* \"#utility.yul\":882:888   */\n      dup2\n        /* \"#utility.yul\":877:880   */\n      dup6\n        /* \"#utility.yul\":818:889   */\n      tag_48\n      jump\t// in\n    tag_71:\n        /* \"#utility.yul\":811:889   */\n      swap4\n      pop\n        /* \"#utility.yul\":898:963   */\n      tag_72\n        /* \"#utility.yul\":956:962   */\n      dup2\n        /* \"#utility.yul\":951:954   */\n      dup6\n        /* \"#utility.yul\":944:948   */\n      0x20\n        /* \"#utility.yul\":937:942   */\n      dup7\n        /* \"#utility.yul\":933:949   */\n      add\n        /* \"#utility.yul\":898:963   */\n      tag_49\n      jump\t// in\n    tag_72:\n        /* \"#utility.yul\":988:1017   */\n      tag_73\n        /* \"#utility.yul\":1010:1016   */\n      dup2\n        /* \"#utility.yul\":988:1017   */\n      tag_50\n      jump\t// in\n    tag_73:\n        /* \"#utility.yul\":983:986   */\n      dup5\n        /* \"#utility.yul\":979:1018   */\n      add\n        /* \"#utility.yul\":972:1018   */\n      swap2\n      pop\n        /* \"#utility.yul\":739:1024   */\n      pop\n        /* \"#utility.yul\":647:1024   */\n      swap3\n      swap2\n      pop\n      pop\n      jump\t// out\n        /* \"#utility.yul\":1030:1343   */\n    tag_12:\n        /* \"#utility.yul\":1143:1147   */\n      0x00\n        /* \"#utility.yul\":1181:1183   */\n      0x20\n        /* \"#utility.yul\":1170:1179   */\n      dup3\n        /* \"#utility.yul\":1166:1184   */\n      add\n        /* \"#utility.yul\":1158:1184   */\n      swap1\n      pop\n        /* \"#utility.yul\":1230:1239   */\n      dup2\n        /* \"#utility.yul\":1224:1228   */\n      dup2\n        /* \"#utility.yul\":1220:1240   */\n      sub\n        /* \"#utility.yul\":1216:1217   */\n      0x00\n        /* \"#utility.yul\":1205:1214   */\n      dup4\n        /* \"#utility.yul\":1201:1218   */\n      add\n        /* \"#utility.yul\":1194:1241   */\n      mstore\n        /* \"#utility.yul\":1258:1336   */\n      tag_75\n        /* \"#utility.yul\":1331:1335   */\n      dup2\n        /* \"#utility.yul\":1322:1328   */\n      dup5\n        /* \"#utility.yul\":1258:1336   */\n      tag_51\n      jump\t// in\n    tag_75:\n        /* \"#utility.yul\":1250:1336   */\n      swap1\n      pop\n        /* \"#utility.yul\":1030:1343   */\n      swap3\n      swap2\n      pop\n      pop\n      jump\t// out\n        /* \"#utility.yul\":1349:1426   */\n    tag_52:\n        /* \"#utility.yul\":1386:1393   */\n      0x00\n        /* \"#utility.yul\":1415:1420   */\n      dup2\n        /* \"#utility.yul\":1404:1420   */\n      swap1\n      pop\n        /* \"#utility.yul\":1349:1426   */\n      swap2\n      swap1\n      pop\n      jump\t// out\n        /* \"#utility.yul\":1432:1550   */\n    tag_53:\n        /* \"#utility.yul\":1519:1543   */\n      tag_78\n        /* \"#utility.yul\":1537:1542   */\n      dup2\n        /* \"#utility.yul\":1519:1543   */\n      tag_52\n      jump\t// in\n    tag_78:\n        /* \"#utility.yul\":1514:1517   */\n      dup3\n        /* \"#utility.yul\":1507:1544   */\n      mstore\n        /* \"#utility.yul\":1432:1550   */\n      pop\n      pop\n      jump\t// out\n        /* \"#utility.yul\":1556:1778   */\n    tag_16:\n        /* \"#utility.yul\":1649:1653   */\n      0x00\n        /* \"#utility.yul\":1687:1689   */\n      0x20\n        /* \"#utility.yul\":1676:1685   */\n      dup3\n        /* \"#utility.yul\":1672:1690   */\n      add\n        /* \"#utility.yul\":1664:1690   */\n      swap1\n      pop\n        /* \"#utility.yul\":1700:1771   */\n      tag_80\n        /* \"#utility.yul\":1768:1769   */\n      0x00\n        /* \"#utility.yul\":1757:1766   */\n      dup4\n        /* \"#utility.yul\":1753:1770   */\n      add\n        /* \"#utility.yul\":1744:1750   */\n      dup5\n        /* \"#utility.yul\":1700:1771   */\n      tag_53\n      jump\t// in\n    tag_80:\n        /* \"#utility.yul\":1556:1778   */\n      swap3\n      swap2\n      pop\n      pop\n      jump\t// out\n        /* \"#utility.yul\":1865:1982   */\n    tag_55:\n        /* \"#utility.yul\":1974:1975   */\n      0x00\n        /* \"#utility.yul\":1971:1972   */\n      dup1\n        /* \"#utility.yul\":1964:1976   */\n      revert\n        /* \"#utility.yul\":2111:2233   */\n    tag_57:\n        /* \"#utility.yul\":2184:2208   */\n      tag_85\n        /* \"#utility.yul\":2202:2207   */\n      dup2\n        /* \"#utility.yul\":2184:2208   */\n      tag_52\n      jump\t// in\n    tag_85:\n        /* \"#utility.yul\":2177:2182   */\n      dup2\n        /* \"#utility.yul\":2174:2209   */\n      eq\n        /* \"#utility.yul\":2164:2227   */\n      tag_86\n      jumpi\n        /* \"#utility.yul\":2223:2224   */\n      0x00\n        /* \"#utility.yul\":2220:2221   */\n      dup1\n        /* \"#utility.yul\":2213:2225   */\n      revert\n        /* \"#utility.yul\":2164:2227   */\n    tag_86:\n        /* \"#utility.yul\":2111:2233   */\n      pop\n      jump\t// out\n        /* \"#utility.yul\":2239:2378   */\n    tag_58:\n        /* \"#utility.yul\":2285:2290   */\n      0x00\n        /* \"#utility.yul\":2323:2329   */\n      dup2\n        /* \"#utility.yul\":2310:2330   */\n      calldataload\n        /* \"#utility.yul\":2301:2330   */\n      swap1\n      pop\n        /* \"#utility.yul\":2339:2372   */\n      tag_88\n        /* \"#utility.yul\":2366:2371   */\n      dup2\n        /* \"#utility.yul\":2339:2372   */\n      tag_57\n      jump\t// in\n    tag_88:\n        /* \"#utility.yul\":2239:2378   */\n      swap3\n      swap2\n      pop\n      pop\n      jump\t// out\n        /* \"#utility.yul\":2384:2713   */\n    tag_28:\n        /* \"#utility.yul\":2443:2449   */\n      0x00\n        /* \"#utility.yul\":2492:2494   */\n      0x20\n        /* \"#utility.yul\":2480:2489   */\n      dup3\n        /* \"#utility.yul\":2471:2478   */\n      dup5\n        /* \"#utility.yul\":2467:2490   */\n      sub\n        /* \"#utility.yul\":2463:2495   */\n      slt\n        /* \"#utility.yul\":2460:2579   */\n      iszero\n      tag_90\n      jumpi\n        /* \"#utility.yul\":2498:2577   */\n      tag_91\n      tag_55\n      jump\t// in\n    tag_91:\n        /* \"#utility.yul\":2460:2579   */\n    tag_90:\n        /* \"#utility.yul\":2618:2619   */\n      0x00\n        /* \"#utility.yul\":2643:2696   */\n      tag_92\n        /* \"#utility.yul\":2688:2695   */\n      dup5\n        /* \"#utility.yul\":2679:2685   */\n      dup3\n        /* \"#utility.yul\":2668:2677   */\n      dup6\n        /* \"#utility.yul\":2664:2686   */\n      add\n        /* \"#utility.yul\":2643:2696   */\n      tag_58\n      jump\t// in\n    tag_92:\n        /* \"#utility.yul\":2633:2696   */\n      swap2\n      pop\n        /* \"#utility.yul\":2589:2706   */\n      pop\n        /* \"#utility.yul\":2384:2713   */\n      swap3\n      swap2\n      pop\n      pop\n      jump\t// out\n        /* \"#utility.yul\":2719:2899   */\n    tag_59:\n        /* \"#utility.yul\":2767:2844   */\n      0x4e487b7100000000000000000000000000000000000000000000000000000000\n        /* \"#utility.yul\":2764:2765   */\n      0x00\n        /* \"#utility.yul\":2757:2845   */\n      mstore\n        /* \"#utility.yul\":2864:2868   */\n      0x22\n        /* \"#utility.yul\":2861:2862   */\n      0x04\n        /* \"#utility.yul\":2854:2869   */\n      mstore\n        /* \"#utility.yul\":2888:2892   */\n      0x24\n        /* \"#utility.yul\":2885:2886   */\n      0x00\n        /* \"#utility.yul\":2878:2893   */\n      revert\n        /* \"#utility.yul\":2905:3225   */\n    tag_31:\n        /* \"#utility.yul\":2949:2955   */\n      0x00\n        /* \"#utility.yul\":2986:2987   */\n      0x02\n        /* \"#utility.yul\":2980:2984   */\n      dup3\n        /* \"#utility.yul\":2976:2988   */\n      div\n        /* \"#utility.yul\":2966:2988   */\n      swap1\n      pop\n        /* \"#utility.yul\":3033:3034   */\n      0x01\n        /* \"#utility.yul\":3027:3031   */\n      dup3\n        /* \"#utility.yul\":3023:3035   */\n      and\n        /* \"#utility.yul\":3054:3072   */\n      dup1\n        /* \"#utility.yul\":3044:3125   */\n      tag_95\n      jumpi\n        /* \"#utility.yul\":3110:3114   */\n      0x7f\n        /* \"#utility.yul\":3102:3108   */\n      dup3\n        /* \"#utility.yul\":3098:3115   */\n      and\n        /* \"#utility.yul\":3088:3115   */\n      swap2\n      pop\n        /* \"#utility.yul\":3044:3125   */\n    tag_95:\n        /* \"#utility.yul\":3172:3174   */\n      0x20\n        /* \"#utility.yul\":3164:3170   */\n      dup3\n        /* \"#utility.yul\":3161:3175   */\n      lt\n        /* \"#utility.yul\":3141:3159   */\n      dup2\n        /* \"#utility.yul\":3138:3176   */\n      sub\n        /* \"#utility.yul\":3135:3219   */\n      tag_96\n      jumpi\n        /* \"#utility.yul\":3191:3209   */\n      tag_97\n      tag_59\n      jump\t// in\n    tag_97:\n        /* \"#utility.yul\":3135:3219   */\n    tag_96:\n        /* \"#utility.yul\":2956:3225   */\n      pop\n        /* \"#utility.yul\":2905:3225   */\n      swap2\n      swap1\n      pop\n      jump\t// out\n        /* \"#utility.yul\":3231:3411   */\n    tag_60:\n        /* \"#utility.yul\":3279:3356   */\n      0x4e487b7100000000000000000000000000000000000000000000000000000000\n        /* \"#utility.yul\":3276:3277   */\n      0x00\n        /* \"#utility.yul\":3269:3357   */\n      mstore\n        /* \"#utility.yul\":3376:3380   */\n      0x11\n        /* \"#utility.yul\":3373:3374   */\n      0x04\n        /* \"#utility.yul\":3366:3381   */\n      mstore\n        /* \"#utility.yul\":3400:3404   */\n      0x24\n        /* \"#utility.yul\":3397:3398   */\n      0x00\n        /* \"#utility.yul\":3390:3405   */\n      revert\n        /* \"#utility.yul\":3417:3608   */\n    tag_41:\n        /* \"#utility.yul\":3457:3460   */\n      0x00\n        /* \"#utility.yul\":3476:3496   */\n      tag_100\n        /* \"#utility.yul\":3494:3495   */\n      dup3\n        /* \"#utility.yul\":3476:3496   */\n      tag_52\n      jump\t// in\n    tag_100:\n        /* \"#utility.yul\":3471:3496   */\n      swap2\n      pop\n        /* \"#utility.yul\":3510:3530   */\n      tag_101\n        /* \"#utility.yul\":3528:3529   */\n      dup4\n        /* \"#utility.yul\":3510:3530   */\n      tag_52\n      jump\t// in\n    tag_101:\n        /* \"#utility.yul\":3505:3530   */\n      swap3\n      pop\n        /* \"#utility.yul\":3553:3554   */\n      dup3\n        /* \"#utility.yul\":3550:3551   */\n      dup3\n        /* \"#utility.yul\":3546:3555   */\n      add\n        /* \"#utility.yul\":3539:3555   */\n      swap1\n      pop\n        /* \"#utility.yul\":3574:3577   */\n      dup1\n        /* \"#utility.yul\":3571:3572   */\n      dup3\n        /* \"#utility.yul\":3568:3578   */\n      gt\n        /* \"#utility.yul\":3565:3601   */\n      iszero\n      tag_102\n      jumpi\n        /* \"#utility.yul\":3581:3599   */\n      tag_103\n      tag_60\n      jump\t// in\n    tag_103:\n        /* \"#utility.yul\":3565:3601   */\n    tag_102:\n        /* \"#utility.yul\":3417:3608   */\n      swap3\n      swap2\n      pop\n      pop\n      jump\t// out\n\n    auxdata: 0xa2646970667358221220b644302b9b184aca42bbec38cb8af7b2080fb54eb2434d59b9b51e170f921b4f64736f6c63430008120033\n}\n",
				"bytecode": {
					"linkReferences": {},
					"object": "60806040526040518060400160405280600381526020017f416c690000000000000000000000000000000000000000000000000000000000815250600190816200004a919062000341565b506200005b620000be60201b60201c565b6002553480156200006b57600080fd5b5060405162000a8038038062000a808339818101604052810190620000919190620005bd565b8282816000819055508060019081620000ab919062000341565b5050508060038190555050505062000638565b60008054905090565b600081519050919050565b7f4e487b7100000000000000000000000000000000000000000000000000000000600052604160045260246000fd5b7f4e487b7100000000000000000000000000000000000000000000000000000000600052602260045260246000fd5b600060028204905060018216806200014957607f821691505b6020821081036200015f576200015e62000101565b5b50919050565b60008190508160005260206000209050919050565b60006020601f8301049050919050565b600082821b905092915050565b600060088302620001c97fffffffffffffffffffffffffffffffffffffffffffffffffffffffffffffffff826200018a565b620001d586836200018a565b95508019841693508086168417925050509392505050565b6000819050919050565b6000819050919050565b6000620002226200021c6200021684620001ed565b620001f7565b620001ed565b9050919050565b6000819050919050565b6200023e8362000201565b620002566200024d8262000229565b84845462000197565b825550505050565b600090565b6200026d6200025e565b6200027a81848462000233565b505050565b5b81811015620002a2576200029660008262000263565b60018101905062000280565b5050565b601f821115620002f157620002bb8162000165565b620002c6846200017a565b81016020851015620002d6578190505b620002ee620002e5856200017a565b8301826200027f565b50505b505050565b600082821c905092915050565b60006200031660001984600802620002f6565b1980831691505092915050565b600062000331838362000303565b9150826002028217905092915050565b6200034c82620000c7565b67ffffffffffffffff811115620003685762000367620000d2565b5b62000374825462000130565b62000381828285620002a6565b600060209050601f831160018114620003b95760008415620003a4578287015190505b620003b0858262000323565b86555062000420565b601f198416620003c98662000165565b60005b82811015620003f357848901518255600182019150602085019450602081019050620003cc565b868310156200041357848901516200040f601f89168262000303565b8355505b6001600288020188555050505b505050505050565b6000604051905090565b600080fd5b600080fd5b6200044781620001ed565b81146200045357600080fd5b50565b60008151905062000467816200043c565b92915050565b600080fd5b600080fd5b6000601f19601f8301169050919050565b620004938262000477565b810181811067ffffffffffffffff82111715620004b557620004b4620000d2565b5b80604052505050565b6000620004ca62000428565b9050620004d8828262000488565b919050565b600067ffffffffffffffff821115620004fb57620004fa620000d2565b5b620005068262000477565b9050602081019050919050565b60005b838110156200053357808201518184015260208101905062000516565b60008484015250505050565b6000620005566200055084620004dd565b620004be565b90508281526020810184848401111562000575576200057462000472565b5b6200058284828562000513565b509392505050565b600082601f830112620005a257620005a16200046d565b5b8151620005b48482602086016200053f565b91505092915050565b600080600060608486031215620005d957620005d862000432565b5b6000620005e98682870162000456565b935050602084015167ffffffffffffffff8111156200060d576200060c62000437565b5b6200061b868287016200058a565b92505060406200062e8682870162000456565b9150509250925092565b61043880620006486000396000f3fe608060405234801561001057600080fd5b50600436106100625760003560e01c806306fdde0314610067578063181c929c14610085578063967e6e65146100a3578063c27fc305146100c1578063c3da42b8146100df578063d5dcf127146100fd575b600080fd5b61006f610119565b60405161007c919061028b565b60405180910390f35b61008d6101a7565b60405161009a91906102c6565b60405180910390f35b6100ab6101ad565b6040516100b891906102c6565b60405180910390f35b6100c96101b6565b6040516100d691906102c6565b60405180910390f35b6100e76101d6565b6040516100f491906102c6565b60405180910390f35b61011760048036038101906101129190610312565b6101dc565b005b600180546101269061036e565b80601f01602080910402602001604051908101604052809291908181526020018280546101529061036e565b801561019f5780601f106101745761010080835404028352916020019161019f565b820191906000526020600020905b81548152906001019060200180831161018257829003601f168201915b505050505081565b60025481565b60008054905090565b6000806101c16101e8565b90506001816101d091906103ce565b91505090565b60035481565b6101e5816101f1565b50565b60006001905090565b8060008190555050565b600081519050919050565b600082825260208201905092915050565b60005b8381101561023557808201518184015260208101905061021a565b60008484015250505050565b6000601f19601f8301169050919050565b600061025d826101fb565b6102678185610206565b9350610277818560208601610217565b61028081610241565b840191505092915050565b600060208201905081810360008301526102a58184610252565b905092915050565b6000819050919050565b6102c0816102ad565b82525050565b60006020820190506102db60008301846102b7565b92915050565b600080fd5b6102ef816102ad565b81146102fa57600080fd5b50565b60008135905061030c816102e6565b92915050565b600060208284031215610328576103276102e1565b5b6000610336848285016102fd565b91505092915050565b7f4e487b7100000000000000000000000000000000000000000000000000000000600052602260045260246000fd5b6000600282049050600182168061038657607f821691505b6020821081036103995761039861033f565b5b50919050565b7f4e487b7100000000000000000000000000000000000000000000000000000000600052601160045260246000fd5b60006103d9826102ad565b91506103e4836102ad565b92508282019050808211156103fc576103fb61039f565b5b9291505056fea2646970667358221220b644302b9b184aca42bbec38cb8af7b2080fb54eb2434d59b9b51e170f921b4f64736f6c63430008120033",
					"opcodes": "PUSH1 0x80 PUSH1 0x40 MSTORE PUSH1 0x40 MLOAD DUP1 PUSH1 0x40 ADD PUSH1 0x40 MSTORE DUP1 PUSH1 0x3 DUP2 MSTORE PUSH1 0x20 ADD PUSH32 0x416C690000000000000000000000000000000000000000000000000000000000 DUP2 MSTORE POP PUSH1 0x1 SWAP1 DUP2 PUSH3 0x4A SWAP2 SWAP1 PUSH3 0x341 JUMP JUMPDEST POP PUSH3 0x5B PUSH3 0xBE PUSH1 0x20 SHL PUSH1 0x20 SHR JUMP JUMPDEST PUSH1 0x2 SSTORE CALLVALUE DUP1 ISZERO PUSH3 0x6B JUMPI PUSH1 0x0 DUP1 REVERT JUMPDEST POP PUSH1 0x40 MLOAD PUSH3 0xA80 CODESIZE SUB DUP1 PUSH3 0xA80 DUP4 CODECOPY DUP2 DUP2 ADD PUSH1 0x40 MSTORE DUP2 ADD SWAP1 PUSH3 0x91 SWAP2 SWAP1 PUSH3 0x5BD JUMP JUMPDEST DUP3 DUP3 DUP2 PUSH1 0x0 DUP2 SWAP1 SSTORE POP DUP1 PUSH1 0x1 SWAP1 DUP2 PUSH3 0xAB SWAP2 SWAP1 PUSH3 0x341 JUMP JUMPDEST POP POP POP DUP1 PUSH1 0x3 DUP2 SWAP1 SSTORE POP POP POP POP PUSH3 0x638 JUMP JUMPDEST PUSH1 0x0 DUP1 SLOAD SWAP1 POP SWAP1 JUMP JUMPDEST PUSH1 0x0 DUP2 MLOAD SWAP1 POP SWAP2 SWAP1 POP JUMP JUMPDEST PUSH32 0x4E487B7100000000000000000000000000000000000000000000000000000000 PUSH1 0x0 MSTORE PUSH1 0x41 PUSH1 0x4 MSTORE PUSH1 0x24 PUSH1 0x0 REVERT JUMPDEST PUSH32 0x4E487B7100000000000000000000000000000000000000000000000000000000 PUSH1 0x0 MSTORE PUSH1 0x22 PUSH1 0x4 MSTORE PUSH1 0x24 PUSH1 0x0 REVERT JUMPDEST PUSH1 0x0 PUSH1 0x2 DUP3 DIV SWAP1 POP PUSH1 0x1 DUP3 AND DUP1 PUSH3 0x149 JUMPI PUSH1 0x7F DUP3 AND SWAP2 POP JUMPDEST PUSH1 0x20 DUP3 LT DUP2 SUB PUSH3 0x15F JUMPI PUSH3 0x15E PUSH3 0x101 JUMP JUMPDEST JUMPDEST POP SWAP2 SWAP1 POP JUMP JUMPDEST PUSH1 0x0 DUP2 SWAP1 POP DUP2 PUSH1 0x0 MSTORE PUSH1 0x20 PUSH1 0x0 KECCAK256 SWAP1 POP SWAP2 SWAP1 POP JUMP JUMPDEST PUSH1 0x0 PUSH1 0x20 PUSH1 0x1F DUP4 ADD DIV SWAP1 POP SWAP2 SWAP1 POP JUMP JUMPDEST PUSH1 0x0 DUP3 DUP3 SHL SWAP1 POP SWAP3 SWAP2 POP POP JUMP JUMPDEST PUSH1 0x0 PUSH1 0x8 DUP4 MUL PUSH3 0x1C9 PUSH32 0xFFFFFFFFFFFFFFFFFFFFFFFFFFFFFFFFFFFFFFFFFFFFFFFFFFFFFFFFFFFFFFFF DUP3 PUSH3 0x18A JUMP JUMPDEST PUSH3 0x1D5 DUP7 DUP4 PUSH3 0x18A JUMP JUMPDEST SWAP6 POP DUP1 NOT DUP5 AND SWAP4 POP DUP1 DUP7 AND DUP5 OR SWAP3 POP POP POP SWAP4 SWAP3 POP POP POP JUMP JUMPDEST PUSH1 0x0 DUP2 SWAP1 POP SWAP2 SWAP1 POP JUMP JUMPDEST PUSH1 0x0 DUP2 SWAP1 POP SWAP2 SWAP1 POP JUMP JUMPDEST PUSH1 0x0 PUSH3 0x222 PUSH3 0x21C PUSH3 0x216 DUP5 PUSH3 0x1ED JUMP JUMPDEST PUSH3 0x1F7 JUMP JUMPDEST PUSH3 0x1ED JUMP JUMPDEST SWAP1 POP SWAP2 SWAP1 POP JUMP JUMPDEST PUSH1 0x0 DUP2 SWAP1 POP SWAP2 SWAP1 POP JUMP JUMPDEST PUSH3 0x23E DUP4 PUSH3 0x201 JUMP JUMPDEST PUSH3 0x256 PUSH3 0x24D DUP3 PUSH3 0x229 JUMP JUMPDEST DUP5 DUP5 SLOAD PUSH3 0x197 JUMP JUMPDEST DUP3 SSTORE POP POP POP POP JUMP JUMPDEST PUSH1 0x0 SWAP1 JUMP JUMPDEST PUSH3 0x26D PUSH3 0x25E JUMP JUMPDEST PUSH3 0x27A DUP2 DUP5 DUP5 PUSH3 0x233 JUMP JUMPDEST POP POP POP JUMP JUMPDEST JUMPDEST DUP2 DUP2 LT ISZERO PUSH3 0x2A2 JUMPI PUSH3 0x296 PUSH1 0x0 DUP3 PUSH3 0x263 JUMP JUMPDEST PUSH1 0x1 DUP2 ADD SWAP1 POP PUSH3 0x280 JUMP JUMPDEST POP POP JUMP JUMPDEST PUSH1 0x1F DUP3 GT ISZERO PUSH3 0x2F1 JUMPI PUSH3 0x2BB DUP2 PUSH3 0x165 JUMP JUMPDEST PUSH3 0x2C6 DUP5 PUSH3 0x17A JUMP JUMPDEST DUP2 ADD PUSH1 0x20 DUP6 LT ISZERO PUSH3 0x2D6 JUMPI DUP2 SWAP1 POP JUMPDEST PUSH3 0x2EE PUSH3 0x2E5 DUP6 PUSH3 0x17A JUMP JUMPDEST DUP4 ADD DUP3 PUSH3 0x27F JUMP JUMPDEST POP POP JUMPDEST POP POP POP JUMP JUMPDEST PUSH1 0x0 DUP3 DUP3 SHR SWAP1 POP SWAP3 SWAP2 POP POP JUMP JUMPDEST PUSH1 0x0 PUSH3 0x316 PUSH1 0x0 NOT DUP5 PUSH1 0x8 MUL PUSH3 0x2F6 JUMP JUMPDEST NOT DUP1 DUP4 AND SWAP2 POP POP SWAP3 SWAP2 POP POP JUMP JUMPDEST PUSH1 0x0 PUSH3 0x331 DUP4 DUP4 PUSH3 0x303 JUMP JUMPDEST SWAP2 POP DUP3 PUSH1 0x2 MUL DUP3 OR SWAP1 POP SWAP3 SWAP2 POP POP JUMP JUMPDEST PUSH3 0x34C DUP3 PUSH3 0xC7 JUMP JUMPDEST PUSH8 0xFFFFFFFFFFFFFFFF DUP2 GT ISZERO PUSH3 0x368 JUMPI PUSH3 0x367 PUSH3 0xD2 JUMP JUMPDEST JUMPDEST PUSH3 0x374 DUP3 SLOAD PUSH3 0x130 JUMP JUMPDEST PUSH3 0x381 DUP3 DUP3 DUP6 PUSH3 0x2A6 JUMP JUMPDEST PUSH1 0x0 PUSH1 0x20 SWAP1 POP PUSH1 0x1F DUP4 GT PUSH1 0x1 DUP2 EQ PUSH3 0x3B9 JUMPI PUSH1 0x0 DUP5 ISZERO PUSH3 0x3A4 JUMPI DUP3 DUP8 ADD MLOAD SWAP1 POP JUMPDEST PUSH3 0x3B0 DUP6 DUP3 PUSH3 0x323 JUMP JUMPDEST DUP7 SSTORE POP PUSH3 0x420 JUMP JUMPDEST PUSH1 0x1F NOT DUP5 AND PUSH3 0x3C9 DUP7 PUSH3 0x165 JUMP JUMPDEST PUSH1 0x0 JUMPDEST DUP3 DUP2 LT ISZERO PUSH3 0x3F3 JUMPI DUP5 DUP10 ADD MLOAD DUP3 SSTORE PUSH1 0x1 DUP3 ADD SWAP2 POP PUSH1 0x20 DUP6 ADD SWAP5 POP PUSH1 0x20 DUP2 ADD SWAP1 POP PUSH3 0x3CC JUMP JUMPDEST DUP7 DUP4 LT ISZERO PUSH3 0x413 JUMPI DUP5 DUP10 ADD MLOAD PUSH3 0x40F PUSH1 0x1F DUP10 AND DUP3 PUSH3 0x303 JUMP JUMPDEST DUP4 SSTORE POP JUMPDEST PUSH1 0x1 PUSH1 0x2 DUP9 MUL ADD DUP9 SSTORE POP POP POP JUMPDEST POP POP POP POP POP POP JUMP JUMPDEST PUSH1 0x0 PUSH1 0x40 MLOAD SWAP1 POP SWAP1 JUMP JUMPDEST PUSH1 0x0 DUP1 REVERT JUMPDEST PUSH1 0x0 DUP1 REVERT JUMPDEST PUSH3 0x447 DUP2 PUSH3 0x1ED JUMP JUMPDEST DUP2 EQ PUSH3 0x453 JUMPI PUSH1 0x0 DUP1 REVERT JUMPDEST POP JUMP JUMPDEST PUSH1 0x0 DUP2 MLOAD SWAP1 POP PUSH3 0x467 DUP2 PUSH3 0x43C JUMP JUMPDEST SWAP3 SWAP2 POP POP JUMP JUMPDEST PUSH1 0x0 DUP1 REVERT JUMPDEST PUSH1 0x0 DUP1 REVERT JUMPDEST PUSH1 0x0 PUSH1 0x1F NOT PUSH1 0x1F DUP4 ADD AND SWAP1 POP SWAP2 SWAP1 POP JUMP JUMPDEST PUSH3 0x493 DUP3 PUSH3 0x477 JUMP JUMPDEST DUP2 ADD DUP2 DUP2 LT PUSH8 0xFFFFFFFFFFFFFFFF DUP3 GT OR ISZERO PUSH3 0x4B5 JUMPI PUSH3 0x4B4 PUSH3 0xD2 JUMP JUMPDEST JUMPDEST DUP1 PUSH1 0x40 MSTORE POP POP POP JUMP JUMPDEST PUSH1 0x0 PUSH3 0x4CA PUSH3 0x428 JUMP JUMPDEST SWAP1 POP PUSH3 0x4D8 DUP3 DUP3 PUSH3 0x488 JUMP JUMPDEST SWAP2 SWAP1 POP JUMP JUMPDEST PUSH1 0x0 PUSH8 0xFFFFFFFFFFFFFFFF DUP3 GT ISZERO PUSH3 0x4FB JUMPI PUSH3 0x4FA PUSH3 0xD2 JUMP JUMPDEST JUMPDEST PUSH3 0x506 DUP3 PUSH3 0x477 JUMP JUMPDEST SWAP1 POP PUSH1 0x20 DUP2 ADD SWAP1 POP SWAP2 SWAP1 POP JUMP JUMPDEST PUSH1 0x0 JUMPDEST DUP4 DUP2 LT ISZERO PUSH3 0x533 JUMPI DUP1 DUP3 ADD MLOAD DUP2 DUP5 ADD MSTORE PUSH1 0x20 DUP2 ADD SWAP1 POP PUSH3 0x516 JUMP JUMPDEST PUSH1 0x0 DUP5 DUP5 ADD MSTORE POP POP POP POP JUMP JUMPDEST PUSH1 0x0 PUSH3 0x556 PUSH3 0x550 DUP5 PUSH3 0x4DD JUMP JUMPDEST PUSH3 0x4BE JUMP JUMPDEST SWAP1 POP DUP3 DUP2 MSTORE PUSH1 0x20 DUP2 ADD DUP5 DUP5 DUP5 ADD GT ISZERO PUSH3 0x575 JUMPI PUSH3 0x574 PUSH3 0x472 JUMP JUMPDEST JUMPDEST PUSH3 0x582 DUP5 DUP3 DUP6 PUSH3 0x513 JUMP JUMPDEST POP SWAP4 SWAP3 POP POP POP JUMP JUMPDEST PUSH1 0x0 DUP3 PUSH1 0x1F DUP4 ADD SLT PUSH3 0x5A2 JUMPI PUSH3 0x5A1 PUSH3 0x46D JUMP JUMPDEST JUMPDEST DUP2 MLOAD PUSH3 0x5B4 DUP5 DUP3 PUSH1 0x20 DUP7 ADD PUSH3 0x53F JUMP JUMPDEST SWAP2 POP POP SWAP3 SWAP2 POP POP JUMP JUMPDEST PUSH1 0x0 DUP1 PUSH1 0x0 PUSH1 0x60 DUP5 DUP7 SUB SLT ISZERO PUSH3 0x5D9 JUMPI PUSH3 0x5D8 PUSH3 0x432 JUMP JUMPDEST JUMPDEST PUSH1 0x0 PUSH3 0x5E9 DUP7 DUP3 DUP8 ADD PUSH3 0x456 JUMP JUMPDEST SWAP4 POP POP PUSH1 0x20 DUP5 ADD MLOAD PUSH8 0xFFFFFFFFFFFFFFFF DUP2 GT ISZERO PUSH3 0x60D JUMPI PUSH3 0x60C PUSH3 0x437 JUMP JUMPDEST JUMPDEST PUSH3 0x61B DUP7 DUP3 DUP8 ADD PUSH3 0x58A JUMP JUMPDEST SWAP3 POP POP PUSH1 0x40 PUSH3 0x62E DUP7 DUP3 DUP8 ADD PUSH3 0x456 JUMP JUMPDEST SWAP2 POP POP SWAP3 POP SWAP3 POP SWAP3 JUMP JUMPDEST PUSH2 0x438 DUP1 PUSH3 0x648 PUSH1 0x0 CODECOPY PUSH1 0x0 RETURN INVALID PUSH1 0x80 PUSH1 0x40 MSTORE CALLVALUE DUP1 ISZERO PUSH2 0x10 JUMPI PUSH1 0x0 DUP1 REVERT JUMPDEST POP PUSH1 0x4 CALLDATASIZE LT PUSH2 0x62 JUMPI PUSH1 0x0 CALLDATALOAD PUSH1 0xE0 SHR DUP1 PUSH4 0x6FDDE03 EQ PUSH2 0x67 JUMPI DUP1 PUSH4 0x181C929C EQ PUSH2 0x85 JUMPI DUP1 PUSH4 0x967E6E65 EQ PUSH2 0xA3 JUMPI DUP1 PUSH4 0xC27FC305 EQ PUSH2 0xC1 JUMPI DUP1 PUSH4 0xC3DA42B8 EQ PUSH2 0xDF JUMPI DUP1 PUSH4 0xD5DCF127 EQ PUSH2 0xFD JUMPI JUMPDEST PUSH1 0x0 DUP1 REVERT JUMPDEST PUSH2 0x6F PUSH2 0x119 JUMP JUMPDEST PUSH1 0x40 MLOAD PUSH2 0x7C SWAP2 SWAP1 PUSH2 0x28B JUMP JUMPDEST PUSH1 0x40 MLOAD DUP1 SWAP2 SUB SWAP1 RETURN JUMPDEST PUSH2 0x8D PUSH2 0x1A7 JUMP JUMPDEST PUSH1 0x40 MLOAD PUSH2 0x9A SWAP2 SWAP1 PUSH2 0x2C6 JUMP JUMPDEST PUSH1 0x40 MLOAD DUP1 SWAP2 SUB SWAP1 RETURN JUMPDEST PUSH2 0xAB PUSH2 0x1AD JUMP JUMPDEST PUSH1 0x40 MLOAD PUSH2 0xB8 SWAP2 SWAP1 PUSH2 0x2C6 JUMP JUMPDEST PUSH1 0x40 MLOAD DUP1 SWAP2 SUB SWAP1 RETURN JUMPDEST PUSH2 0xC9 PUSH2 0x1B6 JUMP JUMPDEST PUSH1 0x40 MLOAD PUSH2 0xD6 SWAP2 SWAP1 PUSH2 0x2C6 JUMP JUMPDEST PUSH1 0x40 MLOAD DUP1 SWAP2 SUB SWAP1 RETURN JUMPDEST PUSH2 0xE7 PUSH2 0x1D6 JUMP JUMPDEST PUSH1 0x40 MLOAD PUSH2 0xF4 SWAP2 SWAP1 PUSH2 0x2C6 JUMP JUMPDEST PUSH1 0x40 MLOAD DUP1 SWAP2 SUB SWAP1 RETURN JUMPDEST PUSH2 0x117 PUSH1 0x4 DUP1 CALLDATASIZE SUB DUP2 ADD SWAP1 PUSH2 0x112 SWAP2 SWAP1 PUSH2 0x312 JUMP JUMPDEST PUSH2 0x1DC JUMP JUMPDEST STOP JUMPDEST PUSH1 0x1 DUP1 SLOAD PUSH2 0x126 SWAP1 PUSH2 0x36E JUMP JUMPDEST DUP1 PUSH1 0x1F ADD PUSH1 0x20 DUP1 SWAP2 DIV MUL PUSH1 0x20 ADD PUSH1 0x40 MLOAD SWAP1 DUP2 ADD PUSH1 0x40 MSTORE DUP1 SWAP3 SWAP2 SWAP1 DUP2 DUP2 MSTORE PUSH1 0x20 ADD DUP3 DUP1 SLOAD PUSH2 0x152 SWAP1 PUSH2 0x36E JUMP JUMPDEST DUP1 ISZERO PUSH2 0x19F JUMPI DUP1 PUSH1 0x1F LT PUSH2 0x174 JUMPI PUSH2 0x100 DUP1 DUP4 SLOAD DIV MUL DUP4 MSTORE SWAP2 PUSH1 0x20 ADD SWAP2 PUSH2 0x19F JUMP JUMPDEST DUP3 ADD SWAP2 SWAP1 PUSH1 0x0 MSTORE PUSH1 0x20 PUSH1 0x0 KECCAK256 SWAP1 JUMPDEST DUP2 SLOAD DUP2 MSTORE SWAP1 PUSH1 0x1 ADD SWAP1 PUSH1 0x20 ADD DUP1 DUP4 GT PUSH2 0x182 JUMPI DUP3 SWAP1 SUB PUSH1 0x1F AND DUP3 ADD SWAP2 JUMPDEST POP POP POP POP POP DUP2 JUMP JUMPDEST PUSH1 0x2 SLOAD DUP2 JUMP JUMPDEST PUSH1 0x0 DUP1 SLOAD SWAP1 POP SWAP1 JUMP JUMPDEST PUSH1 0x0 DUP1 PUSH2 0x1C1 PUSH2 0x1E8 JUMP JUMPDEST SWAP1 POP PUSH1 0x1 DUP2 PUSH2 0x1D0 SWAP2 SWAP1 PUSH2 0x3CE JUMP JUMPDEST SWAP2 POP POP SWAP1 JUMP JUMPDEST PUSH1 0x3 SLOAD DUP2 JUMP JUMPDEST PUSH2 0x1E5 DUP2 PUSH2 0x1F1 JUMP JUMPDEST POP JUMP JUMPDEST PUSH1 0x0 PUSH1 0x1 SWAP1 POP SWAP1 JUMP JUMPDEST DUP1 PUSH1 0x0 DUP2 SWAP1 SSTORE POP POP JUMP JUMPDEST PUSH1 0x0 DUP2 MLOAD SWAP1 POP SWAP2 SWAP1 POP JUMP JUMPDEST PUSH1 0x0 DUP3 DUP3 MSTORE PUSH1 0x20 DUP3 ADD SWAP1 POP SWAP3 SWAP2 POP POP JUMP JUMPDEST PUSH1 0x0 JUMPDEST DUP4 DUP2 LT ISZERO PUSH2 0x235 JUMPI DUP1 DUP3 ADD MLOAD DUP2 DUP5 ADD MSTORE PUSH1 0x20 DUP2 ADD SWAP1 POP PUSH2 0x21A JUMP JUMPDEST PUSH1 0x0 DUP5 DUP5 ADD MSTORE POP POP POP POP JUMP JUMPDEST PUSH1 0x0 PUSH1 0x1F NOT PUSH1 0x1F DUP4 ADD AND SWAP1 POP SWAP2 SWAP1 POP JUMP JUMPDEST PUSH1 0x0 PUSH2 0x25D DUP3 PUSH2 0x1FB JUMP JUMPDEST PUSH2 0x267 DUP2 DUP6 PUSH2 0x206 JUMP JUMPDEST SWAP4 POP PUSH2 0x277 DUP2 DUP6 PUSH1 0x20 DUP7 ADD PUSH2 0x217 JUMP JUMPDEST PUSH2 0x280 DUP2 PUSH2 0x241 JUMP JUMPDEST DUP5 ADD SWAP2 POP POP SWAP3 SWAP2 POP POP JUMP JUMPDEST PUSH1 0x0 PUSH1 0x20 DUP3 ADD SWAP1 POP DUP2 DUP2 SUB PUSH1 0x0 DUP4 ADD MSTORE PUSH2 0x2A5 DUP2 DUP5 PUSH2 0x252 JUMP JUMPDEST SWAP1 POP SWAP3 SWAP2 POP POP JUMP JUMPDEST PUSH1 0x0 DUP2 SWAP1 POP SWAP2 SWAP1 POP JUMP JUMPDEST PUSH2 0x2C0 DUP2 PUSH2 0x2AD JUMP JUMPDEST DUP3 MSTORE POP POP JUMP JUMPDEST PUSH1 0x0 PUSH1 0x20 DUP3 ADD SWAP1 POP PUSH2 0x2DB PUSH1 0x0 DUP4 ADD DUP5 PUSH2 0x2B7 JUMP JUMPDEST SWAP3 SWAP2 POP POP JUMP JUMPDEST PUSH1 0x0 DUP1 REVERT JUMPDEST PUSH2 0x2EF DUP2 PUSH2 0x2AD JUMP JUMPDEST DUP2 EQ PUSH2 0x2FA JUMPI PUSH1 0x0 DUP1 REVERT JUMPDEST POP JUMP JUMPDEST PUSH1 0x0 DUP2 CALLDATALOAD SWAP1 POP PUSH2 0x30C DUP2 PUSH2 0x2E6 JUMP JUMPDEST SWAP3 SWAP2 POP POP JUMP JUMPDEST PUSH1 0x0 PUSH1 0x20 DUP3 DUP5 SUB SLT ISZERO PUSH2 0x328 JUMPI PUSH2 0x327 PUSH2 0x2E1 JUMP JUMPDEST JUMPDEST PUSH1 0x0 PUSH2 0x336 DUP5 DUP3 DUP6 ADD PUSH2 0x2FD JUMP JUMPDEST SWAP2 POP POP SWAP3 SWAP2 POP POP JUMP JUMPDEST PUSH32 0x4E487B7100000000000000000000000000000000000000000000000000000000 PUSH1 0x0 MSTORE PUSH1 0x22 PUSH1 0x4 MSTORE PUSH1 0x24 PUSH1 0x0 REVERT JUMPDEST PUSH1 0x0 PUSH1 0x2 DUP3 DIV SWAP1 POP PUSH1 0x1 DUP3 AND DUP1 PUSH2 0x386 JUMPI PUSH1 0x7F DUP3 AND SWAP2 POP JUMPDEST PUSH1 0x20 DUP3 LT DUP2 SUB PUSH2 0x399 JUMPI PUSH2 0x398 PUSH2 0x33F JUMP JUMPDEST JUMPDEST POP SWAP2 SWAP1 POP JUMP JUMPDEST PUSH32 0x4E487B7100000000000000000000000000000000000000000000000000000000 PUSH1 0x0 MSTORE PUSH1 0x11 PUSH1 0x4 MSTORE PUSH1 0x24 PUSH1 0x0 REVERT JUMPDEST PUSH1 0x0 PUSH2 0x3D9 DUP3 PUSH2 0x2AD JUMP JUMPDEST SWAP2 POP PUSH2 0x3E4 DUP4 PUSH2 0x2AD JUMP JUMPDEST SWAP3 POP DUP3 DUP3 ADD SWAP1 POP DUP1 DUP3 GT ISZERO PUSH2 0x3FC JUMPI PUSH2 0x3FB PUSH2 0x39F JUMP JUMPDEST JUMPDEST SWAP3 SWAP2 POP POP JUMP INVALID LOG2 PUSH5 0x6970667358 0x22 SLT KECCAK256 0xB6 PREVRANDAO ADDRESS 0x2B SWAP12 XOR 0x4A 0xCA TIMESTAMP 0xBB 0xEC CODESIZE 0xCB DUP11 0xF7 0xB2 ADDMOD 0xF 0xB5 0x4E 0xB2 NUMBER 0x4D MSIZE 0xB9 0xB5 0x1E OR 0xF SWAP3 SHL 0x4F PUSH5 0x736F6C6343 STOP ADDMOD SLT STOP CALLER "
				},
				"gasEstimates": {
					"creation": {
						"codeDepositCost": "216000",
						"executionCost": "infinite",
						"totalCost": "infinite"
					},
					"external": {
						"ageC()": "2429",
						"c()": "2495",
						"f1()": "infinite",
						"getAge()": "2459",
						"name()": "infinite",
						"setAge(uint256)": "22637"
					}
				},
				"methodIdentifiers": {
					"ageC()": "181c929c",
					"c()": "c3da42b8",
					"f1()": "c27fc305",
					"getAge()": "967e6e65",
					"name()": "06fdde03",
					"setAge(uint256)": "d5dcf127"
				}
			},
			"storageLayout": {
				"storage": [
					{
						"astId": 3,
						"contract": "Fall-2023/Copy_25_InheritanceComposition.sol:C",
						"label": "age",
						"offset": 0,
						"slot": "0",
						"type": "t_uint256"
					},
					{
						"astId": 6,
						"contract": "Fall-2023/Copy_25_InheritanceComposition.sol:C",
						"label": "name",
						"offset": 0,
						"slot": "1",
						"type": "t_string_storage"
					},
					{
						"astId": 70,
						"contract": "Fall-2023/Copy_25_InheritanceComposition.sol:C",
						"label": "ageC",
						"offset": 0,
						"slot": "2",
						"type": "t_uint256"
					},
					{
						"astId": 72,
						"contract": "Fall-2023/Copy_25_InheritanceComposition.sol:C",
						"label": "c",
						"offset": 0,
						"slot": "3",
						"type": "t_uint256"
					}
				],
				"types": {
					"t_string_storage": {
						"encoding": "bytes",
						"label": "string",
						"numberOfBytes": "32"
					},
					"t_uint256": {
						"encoding": "inplace",
						"label": "uint256",
						"numberOfBytes": "32"
					}
				}
			},
			"userdoc": {
				"kind": "user",
				"methods": {},
				"version": 1
			}
		}
	}
}