{
	"Fall-2023/Copy_25_InheritanceComposition.sol": {
		"B": {
			"abi": [
				{
					"inputs": [],
					"name": "a",
					"outputs": [
						{
							"internalType": "contract A",
							"name": "",
							"type": "address"
						}
					],
					"stateMutability": "view",
					"type": "function"
				},
				{
					"inputs": [],
					"name": "b",
					"outputs": [
						{
							"internalType": "uint256",
							"name": "",
							"type": "uint256"
						}
					],
					"stateMutability": "view",
					"type": "function"
				}
			],
			"devdoc": {
				"kind": "dev",
				"methods": {},
				"version": 1
			},
			"evm": {
				"assembly": "    /* \"Fall-2023/Copy_25_InheritanceComposition.sol\":516:604  contract B... */\n  mstore(0x40, 0x80)\n    /* \"Fall-2023/Copy_25_InheritanceComposition.sol\":558:559  1 */\n  0x01\n    /* \"Fall-2023/Copy_25_InheritanceComposition.sol\":552:567  new A(1, \"Ali\") */\n  mload(0x40)\n  tag_1\n  swap1\n  tag_2\n  jump\t// in\ntag_1:\n  tag_3\n  swap2\n  swap1\n  tag_4\n  jump\t// in\ntag_3:\n  mload(0x40)\n  dup1\n  swap2\n  sub\n  swap1\n  0x00\n  create\n  dup1\n  iszero\n  dup1\n  iszero\n  tag_5\n  jumpi\n  returndatasize\n  0x00\n  dup1\n  returndatacopy\n  revert(0x00, returndatasize)\ntag_5:\n  pop\n    /* \"Fall-2023/Copy_25_InheritanceComposition.sol\":539:567  A public a = new A(1, \"Ali\") */\n  0x00\n  dup1\n  0x0100\n  exp\n  dup2\n  sload\n  dup2\n  0xffffffffffffffffffffffffffffffffffffffff\n  mul\n  not\n  and\n  swap1\n  dup4\n  0xffffffffffffffffffffffffffffffffffffffff\n  and\n  mul\n  or\n  swap1\n  sstore\n  pop\n    /* \"Fall-2023/Copy_25_InheritanceComposition.sol\":590:591  a */\n  0x00\n  dup1\n  sload\n  swap1\n  0x0100\n  exp\n  swap1\n  div\n  0xffffffffffffffffffffffffffffffffffffffff\n  and\n    /* \"Fall-2023/Copy_25_InheritanceComposition.sol\":590:598  a.getAge */\n  0xffffffffffffffffffffffffffffffffffffffff\n  and\n  0x967e6e65\n    /* \"Fall-2023/Copy_25_InheritanceComposition.sol\":590:600  a.getAge() */\n  mload(0x40)\n  dup2\n  0xffffffff\n  and\n  0xe0\n  shl\n  dup2\n  mstore\n  0x04\n  add\n  0x20\n  mload(0x40)\n  dup1\n  dup4\n  sub\n  dup2\n  dup7\n  gas\n  staticcall\n  iszero\n  dup1\n  iszero\n  tag_7\n  jumpi\n  returndatasize\n  0x00\n  dup1\n  returndatacopy\n  revert(0x00, returndatasize)\ntag_7:\n  pop\n  pop\n  pop\n  pop\n  mload(0x40)\n  returndatasize\n  not(0x1f)\n  0x1f\n  dup3\n  add\n  and\n  dup3\n  add\n  dup1\n  0x40\n  mstore\n  pop\n  dup2\n  add\n  swap1\n  tag_8\n  swap2\n  swap1\n  tag_9\n  jump\t// in\ntag_8:\n    /* \"Fall-2023/Copy_25_InheritanceComposition.sol\":574:600  uint public b = a.getAge() */\n  0x01\n  sstore\n    /* \"Fall-2023/Copy_25_InheritanceComposition.sol\":516:604  contract B... */\n  callvalue\n  dup1\n  iszero\n  tag_10\n  jumpi\n  0x00\n  dup1\n  revert\ntag_10:\n  pop\n  jump(tag_11)\ntag_2:\n  dataSize(sub_1)\n  dup1\n  dataOffset(sub_1)\n  dup4\n  codecopy\n  add\n  swap1\n  jump\t// out\n    /* \"#utility.yul\":7:92   */\ntag_12:\n    /* \"#utility.yul\":52:59   */\n  0x00\n    /* \"#utility.yul\":81:86   */\n  dup2\n    /* \"#utility.yul\":70:86   */\n  swap1\n  pop\n    /* \"#utility.yul\":7:92   */\n  swap2\n  swap1\n  pop\n  jump\t// out\n    /* \"#utility.yul\":98:175   */\ntag_13:\n    /* \"#utility.yul\":135:142   */\n  0x00\n    /* \"#utility.yul\":164:169   */\n  dup2\n    /* \"#utility.yul\":153:169   */\n  swap1\n  pop\n    /* \"#utility.yul\":98:175   */\n  swap2\n  swap1\n  pop\n  jump\t// out\n    /* \"#utility.yul\":181:241   */\ntag_14:\n    /* \"#utility.yul\":209:212   */\n  0x00\n    /* \"#utility.yul\":230:235   */\n  dup2\n    /* \"#utility.yul\":223:235   */\n  swap1\n  pop\n    /* \"#utility.yul\":181:241   */\n  swap2\n  swap1\n  pop\n  jump\t// out\n    /* \"#utility.yul\":247:405   */\ntag_15:\n    /* \"#utility.yul\":305:314   */\n  0x00\n    /* \"#utility.yul\":338:399   */\n  tag_30\n    /* \"#utility.yul\":356:398   */\n  tag_31\n    /* \"#utility.yul\":365:397   */\n  tag_32\n    /* \"#utility.yul\":391:396   */\n  dup5\n    /* \"#utility.yul\":365:397   */\n  tag_12\n  jump\t// in\ntag_32:\n    /* \"#utility.yul\":356:398   */\n  tag_14\n  jump\t// in\ntag_31:\n    /* \"#utility.yul\":338:399   */\n  tag_13\n  jump\t// in\ntag_30:\n    /* \"#utility.yul\":325:399   */\n  swap1\n  pop\n    /* \"#utility.yul\":247:405   */\n  swap2\n  swap1\n  pop\n  jump\t// out\n    /* \"#utility.yul\":411:558   */\ntag_16:\n    /* \"#utility.yul\":506:551   */\n  tag_34\n    /* \"#utility.yul\":545:550   */\n  dup2\n    /* \"#utility.yul\":506:551   */\n  tag_15\n  jump\t// in\ntag_34:\n    /* \"#utility.yul\":501:504   */\n  dup3\n    /* \"#utility.yul\":494:552   */\n  mstore\n    /* \"#utility.yul\":411:558   */\n  pop\n  pop\n  jump\t// out\n    /* \"#utility.yul\":564:733   */\ntag_17:\n    /* \"#utility.yul\":648:659   */\n  0x00\n    /* \"#utility.yul\":682:688   */\n  dup3\n    /* \"#utility.yul\":677:680   */\n  dup3\n    /* \"#utility.yul\":670:689   */\n  mstore\n    /* \"#utility.yul\":722:726   */\n  0x20\n    /* \"#utility.yul\":717:720   */\n  dup3\n    /* \"#utility.yul\":713:727   */\n  add\n    /* \"#utility.yul\":698:727   */\n  swap1\n  pop\n    /* \"#utility.yul\":564:733   */\n  swap3\n  swap2\n  pop\n  pop\n  jump\t// out\n    /* \"#utility.yul\":739:892   */\ntag_18:\n    /* \"#utility.yul\":879:884   */\n  0x416c690000000000000000000000000000000000000000000000000000000000\n    /* \"#utility.yul\":875:876   */\n  0x00\n    /* \"#utility.yul\":867:873   */\n  dup3\n    /* \"#utility.yul\":863:877   */\n  add\n    /* \"#utility.yul\":856:885   */\n  mstore\n    /* \"#utility.yul\":739:892   */\n  pop\n  jump\t// out\n    /* \"#utility.yul\":898:1263   */\ntag_19:\n    /* \"#utility.yul\":1040:1043   */\n  0x00\n    /* \"#utility.yul\":1061:1127   */\n  tag_38\n    /* \"#utility.yul\":1125:1126   */\n  0x03\n    /* \"#utility.yul\":1120:1123   */\n  dup4\n    /* \"#utility.yul\":1061:1127   */\n  tag_17\n  jump\t// in\ntag_38:\n    /* \"#utility.yul\":1054:1127   */\n  swap2\n  pop\n    /* \"#utility.yul\":1136:1229   */\n  tag_39\n    /* \"#utility.yul\":1225:1228   */\n  dup3\n    /* \"#utility.yul\":1136:1229   */\n  tag_18\n  jump\t// in\ntag_39:\n    /* \"#utility.yul\":1254:1256   */\n  0x20\n    /* \"#utility.yul\":1249:1252   */\n  dup3\n    /* \"#utility.yul\":1245:1257   */\n  add\n    /* \"#utility.yul\":1238:1257   */\n  swap1\n  pop\n    /* \"#utility.yul\":898:1263   */\n  swap2\n  swap1\n  pop\n  jump\t// out\n    /* \"#utility.yul\":1269:1814   */\ntag_4:\n    /* \"#utility.yul\":1471:1475   */\n  0x00\n    /* \"#utility.yul\":1509:1511   */\n  0x40\n    /* \"#utility.yul\":1498:1507   */\n  dup3\n    /* \"#utility.yul\":1494:1512   */\n  add\n    /* \"#utility.yul\":1486:1512   */\n  swap1\n  pop\n    /* \"#utility.yul\":1522:1601   */\n  tag_41\n    /* \"#utility.yul\":1598:1599   */\n  0x00\n    /* \"#utility.yul\":1587:1596   */\n  dup4\n    /* \"#utility.yul\":1583:1600   */\n  add\n    /* \"#utility.yul\":1574:1580   */\n  dup5\n    /* \"#utility.yul\":1522:1601   */\n  tag_16\n  jump\t// in\ntag_41:\n    /* \"#utility.yul\":1648:1657   */\n  dup2\n    /* \"#utility.yul\":1642:1646   */\n  dup2\n    /* \"#utility.yul\":1638:1658   */\n  sub\n    /* \"#utility.yul\":1633:1635   */\n  0x20\n    /* \"#utility.yul\":1622:1631   */\n  dup4\n    /* \"#utility.yul\":1618:1636   */\n  add\n    /* \"#utility.yul\":1611:1659   */\n  mstore\n    /* \"#utility.yul\":1676:1807   */\n  tag_42\n    /* \"#utility.yul\":1802:1806   */\n  dup2\n    /* \"#utility.yul\":1676:1807   */\n  tag_19\n  jump\t// in\ntag_42:\n    /* \"#utility.yul\":1668:1807   */\n  swap1\n  pop\n    /* \"#utility.yul\":1269:1814   */\n  swap3\n  swap2\n  pop\n  pop\n  jump\t// out\n    /* \"#utility.yul\":1901:2018   */\ntag_21:\n    /* \"#utility.yul\":2010:2011   */\n  0x00\n    /* \"#utility.yul\":2007:2008   */\n  dup1\n    /* \"#utility.yul\":2000:2012   */\n  revert\n    /* \"#utility.yul\":2147:2269   */\ntag_23:\n    /* \"#utility.yul\":2220:2244   */\n  tag_47\n    /* \"#utility.yul\":2238:2243   */\n  dup2\n    /* \"#utility.yul\":2220:2244   */\n  tag_13\n  jump\t// in\ntag_47:\n    /* \"#utility.yul\":2213:2218   */\n  dup2\n    /* \"#utility.yul\":2210:2245   */\n  eq\n    /* \"#utility.yul\":2200:2263   */\n  tag_48\n  jumpi\n    /* \"#utility.yul\":2259:2260   */\n  0x00\n    /* \"#utility.yul\":2256:2257   */\n  dup1\n    /* \"#utility.yul\":2249:2261   */\n  revert\n    /* \"#utility.yul\":2200:2263   */\ntag_48:\n    /* \"#utility.yul\":2147:2269   */\n  pop\n  jump\t// out\n    /* \"#utility.yul\":2275:2418   */\ntag_24:\n    /* \"#utility.yul\":2332:2337   */\n  0x00\n    /* \"#utility.yul\":2363:2369   */\n  dup2\n    /* \"#utility.yul\":2357:2370   */\n  mload\n    /* \"#utility.yul\":2348:2370   */\n  swap1\n  pop\n    /* \"#utility.yul\":2379:2412   */\n  tag_50\n    /* \"#utility.yul\":2406:2411   */\n  dup2\n    /* \"#utility.yul\":2379:2412   */\n  tag_23\n  jump\t// in\ntag_50:\n    /* \"#utility.yul\":2275:2418   */\n  swap3\n  swap2\n  pop\n  pop\n  jump\t// out\n    /* \"#utility.yul\":2424:2775   */\ntag_9:\n    /* \"#utility.yul\":2494:2500   */\n  0x00\n    /* \"#utility.yul\":2543:2545   */\n  0x20\n    /* \"#utility.yul\":2531:2540   */\n  dup3\n    /* \"#utility.yul\":2522:2529   */\n  dup5\n    /* \"#utility.yul\":2518:2541   */\n  sub\n    /* \"#utility.yul\":2514:2546   */\n  slt\n    /* \"#utility.yul\":2511:2630   */\n  iszero\n  tag_52\n  jumpi\n    /* \"#utility.yul\":2549:2628   */\n  tag_53\n  tag_21\n  jump\t// in\ntag_53:\n    /* \"#utility.yul\":2511:2630   */\ntag_52:\n    /* \"#utility.yul\":2669:2670   */\n  0x00\n    /* \"#utility.yul\":2694:2758   */\n  tag_54\n    /* \"#utility.yul\":2750:2757   */\n  dup5\n    /* \"#utility.yul\":2741:2747   */\n  dup3\n    /* \"#utility.yul\":2730:2739   */\n  dup6\n    /* \"#utility.yul\":2726:2748   */\n  add\n    /* \"#utility.yul\":2694:2758   */\n  tag_24\n  jump\t// in\ntag_54:\n    /* \"#utility.yul\":2684:2758   */\n  swap2\n  pop\n    /* \"#utility.yul\":2640:2768   */\n  pop\n    /* \"#utility.yul\":2424:2775   */\n  swap3\n  swap2\n  pop\n  pop\n  jump\t// out\n    /* \"Fall-2023/Copy_25_InheritanceComposition.sol\":516:604  contract B... */\ntag_11:\n  dataSize(sub_0)\n  dup1\n  dataOffset(sub_0)\n  0x00\n  codecopy\n  0x00\n  return\nstop\n\nsub_0: assembly {\n        /* \"Fall-2023/Copy_25_InheritanceComposition.sol\":516:604  contract B... */\n      mstore(0x40, 0x80)\n      callvalue\n      dup1\n      iszero\n      tag_1\n      jumpi\n      0x00\n      dup1\n      revert\n    tag_1:\n      pop\n      jumpi(tag_2, lt(calldatasize, 0x04))\n      shr(0xe0, calldataload(0x00))\n      dup1\n      0x0dbe671f\n      eq\n      tag_3\n      jumpi\n      dup1\n      0x4df7e3d0\n      eq\n      tag_4\n      jumpi\n    tag_2:\n      0x00\n      dup1\n      revert\n        /* \"Fall-2023/Copy_25_InheritanceComposition.sol\":539:567  A public a = new A(1, \"Ali\") */\n    tag_3:\n      tag_5\n      tag_6\n      jump\t// in\n    tag_5:\n      mload(0x40)\n      tag_7\n      swap2\n      swap1\n      tag_8\n      jump\t// in\n    tag_7:\n      mload(0x40)\n      dup1\n      swap2\n      sub\n      swap1\n      return\n        /* \"Fall-2023/Copy_25_InheritanceComposition.sol\":574:600  uint public b = a.getAge() */\n    tag_4:\n      tag_9\n      tag_10\n      jump\t// in\n    tag_9:\n      mload(0x40)\n      tag_11\n      swap2\n      swap1\n      tag_12\n      jump\t// in\n    tag_11:\n      mload(0x40)\n      dup1\n      swap2\n      sub\n      swap1\n      return\n        /* \"Fall-2023/Copy_25_InheritanceComposition.sol\":539:567  A public a = new A(1, \"Ali\") */\n    tag_6:\n      0x00\n      dup1\n      sload\n      swap1\n      0x0100\n      exp\n      swap1\n      div\n      0xffffffffffffffffffffffffffffffffffffffff\n      and\n      dup2\n      jump\t// out\n        /* \"Fall-2023/Copy_25_InheritanceComposition.sol\":574:600  uint public b = a.getAge() */\n    tag_10:\n      sload(0x01)\n      dup2\n      jump\t// out\n        /* \"#utility.yul\":7:133   */\n    tag_13:\n        /* \"#utility.yul\":44:51   */\n      0x00\n        /* \"#utility.yul\":84:126   */\n      0xffffffffffffffffffffffffffffffffffffffff\n        /* \"#utility.yul\":77:82   */\n      dup3\n        /* \"#utility.yul\":73:127   */\n      and\n        /* \"#utility.yul\":62:127   */\n      swap1\n      pop\n        /* \"#utility.yul\":7:133   */\n      swap2\n      swap1\n      pop\n      jump\t// out\n        /* \"#utility.yul\":139:199   */\n    tag_14:\n        /* \"#utility.yul\":167:170   */\n      0x00\n        /* \"#utility.yul\":188:193   */\n      dup2\n        /* \"#utility.yul\":181:193   */\n      swap1\n      pop\n        /* \"#utility.yul\":139:199   */\n      swap2\n      swap1\n      pop\n      jump\t// out\n        /* \"#utility.yul\":205:347   */\n    tag_15:\n        /* \"#utility.yul\":255:264   */\n      0x00\n        /* \"#utility.yul\":288:341   */\n      tag_25\n        /* \"#utility.yul\":306:340   */\n      tag_26\n        /* \"#utility.yul\":315:339   */\n      tag_27\n        /* \"#utility.yul\":333:338   */\n      dup5\n        /* \"#utility.yul\":315:339   */\n      tag_13\n      jump\t// in\n    tag_27:\n        /* \"#utility.yul\":306:340   */\n      tag_14\n      jump\t// in\n    tag_26:\n        /* \"#utility.yul\":288:341   */\n      tag_13\n      jump\t// in\n    tag_25:\n        /* \"#utility.yul\":275:341   */\n      swap1\n      pop\n        /* \"#utility.yul\":205:347   */\n      swap2\n      swap1\n      pop\n      jump\t// out\n        /* \"#utility.yul\":353:479   */\n    tag_16:\n        /* \"#utility.yul\":403:412   */\n      0x00\n        /* \"#utility.yul\":436:473   */\n      tag_29\n        /* \"#utility.yul\":467:472   */\n      dup3\n        /* \"#utility.yul\":436:473   */\n      tag_15\n      jump\t// in\n    tag_29:\n        /* \"#utility.yul\":423:473   */\n      swap1\n      pop\n        /* \"#utility.yul\":353:479   */\n      swap2\n      swap1\n      pop\n      jump\t// out\n        /* \"#utility.yul\":485:619   */\n    tag_17:\n        /* \"#utility.yul\":543:552   */\n      0x00\n        /* \"#utility.yul\":576:613   */\n      tag_31\n        /* \"#utility.yul\":607:612   */\n      dup3\n        /* \"#utility.yul\":576:613   */\n      tag_16\n      jump\t// in\n    tag_31:\n        /* \"#utility.yul\":563:613   */\n      swap1\n      pop\n        /* \"#utility.yul\":485:619   */\n      swap2\n      swap1\n      pop\n      jump\t// out\n        /* \"#utility.yul\":625:772   */\n    tag_18:\n        /* \"#utility.yul\":720:765   */\n      tag_33\n        /* \"#utility.yul\":759:764   */\n      dup2\n        /* \"#utility.yul\":720:765   */\n      tag_17\n      jump\t// in\n    tag_33:\n        /* \"#utility.yul\":715:718   */\n      dup3\n        /* \"#utility.yul\":708:766   */\n      mstore\n        /* \"#utility.yul\":625:772   */\n      pop\n      pop\n      jump\t// out\n        /* \"#utility.yul\":778:1016   */\n    tag_8:\n        /* \"#utility.yul\":879:883   */\n      0x00\n        /* \"#utility.yul\":917:919   */\n      0x20\n        /* \"#utility.yul\":906:915   */\n      dup3\n        /* \"#utility.yul\":902:920   */\n      add\n        /* \"#utility.yul\":894:920   */\n      swap1\n      pop\n        /* \"#utility.yul\":930:1009   */\n      tag_35\n        /* \"#utility.yul\":1006:1007   */\n      0x00\n        /* \"#utility.yul\":995:1004   */\n      dup4\n        /* \"#utility.yul\":991:1008   */\n      add\n        /* \"#utility.yul\":982:988   */\n      dup5\n        /* \"#utility.yul\":930:1009   */\n      tag_18\n      jump\t// in\n    tag_35:\n        /* \"#utility.yul\":778:1016   */\n      swap3\n      swap2\n      pop\n      pop\n      jump\t// out\n        /* \"#utility.yul\":1022:1099   */\n    tag_19:\n        /* \"#utility.yul\":1059:1066   */\n      0x00\n        /* \"#utility.yul\":1088:1093   */\n      dup2\n        /* \"#utility.yul\":1077:1093   */\n      swap1\n      pop\n        /* \"#utility.yul\":1022:1099   */\n      swap2\n      swap1\n      pop\n      jump\t// out\n        /* \"#utility.yul\":1105:1223   */\n    tag_20:\n        /* \"#utility.yul\":1192:1216   */\n      tag_38\n        /* \"#utility.yul\":1210:1215   */\n      dup2\n        /* \"#utility.yul\":1192:1216   */\n      tag_19\n      jump\t// in\n    tag_38:\n        /* \"#utility.yul\":1187:1190   */\n      dup3\n        /* \"#utility.yul\":1180:1217   */\n      mstore\n        /* \"#utility.yul\":1105:1223   */\n      pop\n      pop\n      jump\t// out\n        /* \"#utility.yul\":1229:1451   */\n    tag_12:\n        /* \"#utility.yul\":1322:1326   */\n      0x00\n        /* \"#utility.yul\":1360:1362   */\n      0x20\n        /* \"#utility.yul\":1349:1358   */\n      dup3\n        /* \"#utility.yul\":1345:1363   */\n      add\n        /* \"#utility.yul\":1337:1363   */\n      swap1\n      pop\n        /* \"#utility.yul\":1373:1444   */\n      tag_40\n        /* \"#utility.yul\":1441:1442   */\n      0x00\n        /* \"#utility.yul\":1430:1439   */\n      dup4\n        /* \"#utility.yul\":1426:1443   */\n      add\n        /* \"#utility.yul\":1417:1423   */\n      dup5\n        /* \"#utility.yul\":1373:1444   */\n      tag_20\n      jump\t// in\n    tag_40:\n        /* \"#utility.yul\":1229:1451   */\n      swap3\n      swap2\n      pop\n      pop\n      jump\t// out\n\n    auxdata: 0xa26469706673582212204337ecacad25d92eec42e9b6700dcff29140409191b02fca70dca1613f2589ef64736f6c63430008120033\n}\n\nsub_1: assembly {\n        /* \"Fall-2023/Copy_25_InheritanceComposition.sol\":75:512  contract A... */\n      mstore(0x40, 0x80)\n        /* \"Fall-2023/Copy_25_InheritanceComposition.sol\":109:135  string public name = \"Ali\" */\n      mload(0x40)\n      dup1\n      0x40\n      add\n      0x40\n      mstore\n      dup1\n      0x03\n      dup2\n      mstore\n      0x20\n      add\n      0x416c690000000000000000000000000000000000000000000000000000000000\n      dup2\n      mstore\n      pop\n      0x01\n      swap1\n      dup2\n      tag_1\n      swap2\n      swap1\n      tag_2\n      jump\t// in\n    tag_1:\n      pop\n        /* \"Fall-2023/Copy_25_InheritanceComposition.sol\":148:249  constructor(uint _age, string memory _name)... */\n      callvalue\n      dup1\n      iszero\n      tag_3\n      jumpi\n      0x00\n      dup1\n      revert\n    tag_3:\n      pop\n      mload(0x40)\n      sub(codesize, bytecodeSize)\n      dup1\n      bytecodeSize\n      dup4\n      codecopy\n      dup2\n      dup2\n      add\n      0x40\n      mstore\n      dup2\n      add\n      swap1\n      tag_4\n      swap2\n      swap1\n      tag_5\n      jump\t// in\n    tag_4:\n        /* \"Fall-2023/Copy_25_InheritanceComposition.sol\":214:218  _age */\n      dup2\n        /* \"Fall-2023/Copy_25_InheritanceComposition.sol\":208:211  age */\n      0x00\n        /* \"Fall-2023/Copy_25_InheritanceComposition.sol\":208:218  age = _age */\n      dup2\n      swap1\n      sstore\n      pop\n        /* \"Fall-2023/Copy_25_InheritanceComposition.sol\":236:241  _name */\n      dup1\n        /* \"Fall-2023/Copy_25_InheritanceComposition.sol\":229:233  name */\n      0x01\n        /* \"Fall-2023/Copy_25_InheritanceComposition.sol\":229:241  name = _name */\n      swap1\n      dup2\n      tag_8\n      swap2\n      swap1\n      tag_2\n      jump\t// in\n    tag_8:\n      pop\n        /* \"Fall-2023/Copy_25_InheritanceComposition.sol\":148:249  constructor(uint _age, string memory _name)... */\n      pop\n      pop\n        /* \"Fall-2023/Copy_25_InheritanceComposition.sol\":75:512  contract A... */\n      jump(tag_9)\n        /* \"#utility.yul\":7:106   */\n    tag_10:\n        /* \"#utility.yul\":59:65   */\n      0x00\n        /* \"#utility.yul\":93:98   */\n      dup2\n        /* \"#utility.yul\":87:99   */\n      mload\n        /* \"#utility.yul\":77:99   */\n      swap1\n      pop\n        /* \"#utility.yul\":7:106   */\n      swap2\n      swap1\n      pop\n      jump\t// out\n        /* \"#utility.yul\":112:292   */\n    tag_11:\n        /* \"#utility.yul\":160:237   */\n      0x4e487b7100000000000000000000000000000000000000000000000000000000\n        /* \"#utility.yul\":157:158   */\n      0x00\n        /* \"#utility.yul\":150:238   */\n      mstore\n        /* \"#utility.yul\":257:261   */\n      0x41\n        /* \"#utility.yul\":254:255   */\n      0x04\n        /* \"#utility.yul\":247:262   */\n      mstore\n        /* \"#utility.yul\":281:285   */\n      0x24\n        /* \"#utility.yul\":278:279   */\n      0x00\n        /* \"#utility.yul\":271:286   */\n      revert\n        /* \"#utility.yul\":298:478   */\n    tag_12:\n        /* \"#utility.yul\":346:423   */\n      0x4e487b7100000000000000000000000000000000000000000000000000000000\n        /* \"#utility.yul\":343:344   */\n      0x00\n        /* \"#utility.yul\":336:424   */\n      mstore\n        /* \"#utility.yul\":443:447   */\n      0x22\n        /* \"#utility.yul\":440:441   */\n      0x04\n        /* \"#utility.yul\":433:448   */\n      mstore\n        /* \"#utility.yul\":467:471   */\n      0x24\n        /* \"#utility.yul\":464:465   */\n      0x00\n        /* \"#utility.yul\":457:472   */\n      revert\n        /* \"#utility.yul\":484:804   */\n    tag_13:\n        /* \"#utility.yul\":528:534   */\n      0x00\n        /* \"#utility.yul\":565:566   */\n      0x02\n        /* \"#utility.yul\":559:563   */\n      dup3\n        /* \"#utility.yul\":555:567   */\n      div\n        /* \"#utility.yul\":545:567   */\n      swap1\n      pop\n        /* \"#utility.yul\":612:613   */\n      0x01\n        /* \"#utility.yul\":606:610   */\n      dup3\n        /* \"#utility.yul\":602:614   */\n      and\n        /* \"#utility.yul\":633:651   */\n      dup1\n        /* \"#utility.yul\":623:704   */\n      tag_49\n      jumpi\n        /* \"#utility.yul\":689:693   */\n      0x7f\n        /* \"#utility.yul\":681:687   */\n      dup3\n        /* \"#utility.yul\":677:694   */\n      and\n        /* \"#utility.yul\":667:694   */\n      swap2\n      pop\n        /* \"#utility.yul\":623:704   */\n    tag_49:\n        /* \"#utility.yul\":751:753   */\n      0x20\n        /* \"#utility.yul\":743:749   */\n      dup3\n        /* \"#utility.yul\":740:754   */\n      lt\n        /* \"#utility.yul\":720:738   */\n      dup2\n        /* \"#utility.yul\":717:755   */\n      sub\n        /* \"#utility.yul\":714:798   */\n      tag_50\n      jumpi\n        /* \"#utility.yul\":770:788   */\n      tag_51\n      tag_12\n      jump\t// in\n    tag_51:\n        /* \"#utility.yul\":714:798   */\n    tag_50:\n        /* \"#utility.yul\":535:804   */\n      pop\n        /* \"#utility.yul\":484:804   */\n      swap2\n      swap1\n      pop\n      jump\t// out\n        /* \"#utility.yul\":810:951   */\n    tag_14:\n        /* \"#utility.yul\":859:863   */\n      0x00\n        /* \"#utility.yul\":882:885   */\n      dup2\n        /* \"#utility.yul\":874:885   */\n      swap1\n      pop\n        /* \"#utility.yul\":905:908   */\n      dup2\n        /* \"#utility.yul\":902:903   */\n      0x00\n        /* \"#utility.yul\":895:909   */\n      mstore\n        /* \"#utility.yul\":939:943   */\n      0x20\n        /* \"#utility.yul\":936:937   */\n      0x00\n        /* \"#utility.yul\":926:944   */\n      keccak256\n        /* \"#utility.yul\":918:944   */\n      swap1\n      pop\n        /* \"#utility.yul\":810:951   */\n      swap2\n      swap1\n      pop\n      jump\t// out\n        /* \"#utility.yul\":957:1050   */\n    tag_15:\n        /* \"#utility.yul\":994:1000   */\n      0x00\n        /* \"#utility.yul\":1041:1043   */\n      0x20\n        /* \"#utility.yul\":1036:1038   */\n      0x1f\n        /* \"#utility.yul\":1029:1034   */\n      dup4\n        /* \"#utility.yul\":1025:1039   */\n      add\n        /* \"#utility.yul\":1021:1044   */\n      div\n        /* \"#utility.yul\":1011:1044   */\n      swap1\n      pop\n        /* \"#utility.yul\":957:1050   */\n      swap2\n      swap1\n      pop\n      jump\t// out\n        /* \"#utility.yul\":1056:1163   */\n    tag_16:\n        /* \"#utility.yul\":1100:1108   */\n      0x00\n        /* \"#utility.yul\":1150:1155   */\n      dup3\n        /* \"#utility.yul\":1144:1148   */\n      dup3\n        /* \"#utility.yul\":1140:1156   */\n      shl\n        /* \"#utility.yul\":1119:1156   */\n      swap1\n      pop\n        /* \"#utility.yul\":1056:1163   */\n      swap3\n      swap2\n      pop\n      pop\n      jump\t// out\n        /* \"#utility.yul\":1169:1562   */\n    tag_17:\n        /* \"#utility.yul\":1238:1244   */\n      0x00\n        /* \"#utility.yul\":1288:1289   */\n      0x08\n        /* \"#utility.yul\":1276:1286   */\n      dup4\n        /* \"#utility.yul\":1272:1290   */\n      mul\n        /* \"#utility.yul\":1311:1408   */\n      tag_56\n        /* \"#utility.yul\":1341:1407   */\n      0xffffffffffffffffffffffffffffffffffffffffffffffffffffffffffffffff\n        /* \"#utility.yul\":1330:1339   */\n      dup3\n        /* \"#utility.yul\":1311:1408   */\n      tag_16\n      jump\t// in\n    tag_56:\n        /* \"#utility.yul\":1429:1468   */\n      tag_57\n        /* \"#utility.yul\":1459:1467   */\n      dup7\n        /* \"#utility.yul\":1448:1457   */\n      dup4\n        /* \"#utility.yul\":1429:1468   */\n      tag_16\n      jump\t// in\n    tag_57:\n        /* \"#utility.yul\":1417:1468   */\n      swap6\n      pop\n        /* \"#utility.yul\":1501:1505   */\n      dup1\n        /* \"#utility.yul\":1497:1506   */\n      not\n        /* \"#utility.yul\":1490:1495   */\n      dup5\n        /* \"#utility.yul\":1486:1507   */\n      and\n        /* \"#utility.yul\":1477:1507   */\n      swap4\n      pop\n        /* \"#utility.yul\":1550:1554   */\n      dup1\n        /* \"#utility.yul\":1540:1548   */\n      dup7\n        /* \"#utility.yul\":1536:1555   */\n      and\n        /* \"#utility.yul\":1529:1534   */\n      dup5\n        /* \"#utility.yul\":1526:1556   */\n      or\n        /* \"#utility.yul\":1516:1556   */\n      swap3\n      pop\n        /* \"#utility.yul\":1245:1562   */\n      pop\n      pop\n        /* \"#utility.yul\":1169:1562   */\n      swap4\n      swap3\n      pop\n      pop\n      pop\n      jump\t// out\n        /* \"#utility.yul\":1568:1645   */\n    tag_18:\n        /* \"#utility.yul\":1605:1612   */\n      0x00\n        /* \"#utility.yul\":1634:1639   */\n      dup2\n        /* \"#utility.yul\":1623:1639   */\n      swap1\n      pop\n        /* \"#utility.yul\":1568:1645   */\n      swap2\n      swap1\n      pop\n      jump\t// out\n        /* \"#utility.yul\":1651:1711   */\n    tag_19:\n        /* \"#utility.yul\":1679:1682   */\n      0x00\n        /* \"#utility.yul\":1700:1705   */\n      dup2\n        /* \"#utility.yul\":1693:1705   */\n      swap1\n      pop\n        /* \"#utility.yul\":1651:1711   */\n      swap2\n      swap1\n      pop\n      jump\t// out\n        /* \"#utility.yul\":1717:1859   */\n    tag_20:\n        /* \"#utility.yul\":1767:1776   */\n      0x00\n        /* \"#utility.yul\":1800:1853   */\n      tag_61\n        /* \"#utility.yul\":1818:1852   */\n      tag_62\n        /* \"#utility.yul\":1827:1851   */\n      tag_63\n        /* \"#utility.yul\":1845:1850   */\n      dup5\n        /* \"#utility.yul\":1827:1851   */\n      tag_18\n      jump\t// in\n    tag_63:\n        /* \"#utility.yul\":1818:1852   */\n      tag_19\n      jump\t// in\n    tag_62:\n        /* \"#utility.yul\":1800:1853   */\n      tag_18\n      jump\t// in\n    tag_61:\n        /* \"#utility.yul\":1787:1853   */\n      swap1\n      pop\n        /* \"#utility.yul\":1717:1859   */\n      swap2\n      swap1\n      pop\n      jump\t// out\n        /* \"#utility.yul\":1865:1940   */\n    tag_21:\n        /* \"#utility.yul\":1908:1911   */\n      0x00\n        /* \"#utility.yul\":1929:1934   */\n      dup2\n        /* \"#utility.yul\":1922:1934   */\n      swap1\n      pop\n        /* \"#utility.yul\":1865:1940   */\n      swap2\n      swap1\n      pop\n      jump\t// out\n        /* \"#utility.yul\":1946:2215   */\n    tag_22:\n        /* \"#utility.yul\":2056:2095   */\n      tag_66\n        /* \"#utility.yul\":2087:2094   */\n      dup4\n        /* \"#utility.yul\":2056:2095   */\n      tag_20\n      jump\t// in\n    tag_66:\n        /* \"#utility.yul\":2117:2208   */\n      tag_67\n        /* \"#utility.yul\":2166:2207   */\n      tag_68\n        /* \"#utility.yul\":2190:2206   */\n      dup3\n        /* \"#utility.yul\":2166:2207   */\n      tag_21\n      jump\t// in\n    tag_68:\n        /* \"#utility.yul\":2158:2164   */\n      dup5\n        /* \"#utility.yul\":2151:2155   */\n      dup5\n        /* \"#utility.yul\":2145:2156   */\n      sload\n        /* \"#utility.yul\":2117:2208   */\n      tag_17\n      jump\t// in\n    tag_67:\n        /* \"#utility.yul\":2111:2115   */\n      dup3\n        /* \"#utility.yul\":2104:2209   */\n      sstore\n        /* \"#utility.yul\":2022:2215   */\n      pop\n        /* \"#utility.yul\":1946:2215   */\n      pop\n      pop\n      pop\n      jump\t// out\n        /* \"#utility.yul\":2221:2294   */\n    tag_23:\n        /* \"#utility.yul\":2266:2269   */\n      0x00\n        /* \"#utility.yul\":2221:2294   */\n      swap1\n      jump\t// out\n        /* \"#utility.yul\":2300:2489   */\n    tag_24:\n        /* \"#utility.yul\":2377:2409   */\n      tag_71\n      tag_23\n      jump\t// in\n    tag_71:\n        /* \"#utility.yul\":2418:2483   */\n      tag_72\n        /* \"#utility.yul\":2476:2482   */\n      dup2\n        /* \"#utility.yul\":2468:2474   */\n      dup5\n        /* \"#utility.yul\":2462:2466   */\n      dup5\n        /* \"#utility.yul\":2418:2483   */\n      tag_22\n      jump\t// in\n    tag_72:\n        /* \"#utility.yul\":2353:2489   */\n      pop\n        /* \"#utility.yul\":2300:2489   */\n      pop\n      pop\n      jump\t// out\n        /* \"#utility.yul\":2495:2681   */\n    tag_25:\n        /* \"#utility.yul\":2555:2675   */\n    tag_74:\n        /* \"#utility.yul\":2572:2575   */\n      dup2\n        /* \"#utility.yul\":2565:2570   */\n      dup2\n        /* \"#utility.yul\":2562:2576   */\n      lt\n        /* \"#utility.yul\":2555:2675   */\n      iszero\n      tag_76\n      jumpi\n        /* \"#utility.yul\":2626:2665   */\n      tag_77\n        /* \"#utility.yul\":2663:2664   */\n      0x00\n        /* \"#utility.yul\":2656:2661   */\n      dup3\n        /* \"#utility.yul\":2626:2665   */\n      tag_24\n      jump\t// in\n    tag_77:\n        /* \"#utility.yul\":2599:2600   */\n      0x01\n        /* \"#utility.yul\":2592:2597   */\n      dup2\n        /* \"#utility.yul\":2588:2601   */\n      add\n        /* \"#utility.yul\":2579:2601   */\n      swap1\n      pop\n        /* \"#utility.yul\":2555:2675   */\n      jump(tag_74)\n    tag_76:\n        /* \"#utility.yul\":2495:2681   */\n      pop\n      pop\n      jump\t// out\n        /* \"#utility.yul\":2687:3230   */\n    tag_26:\n        /* \"#utility.yul\":2788:2790   */\n      0x1f\n        /* \"#utility.yul\":2783:2786   */\n      dup3\n        /* \"#utility.yul\":2780:2791   */\n      gt\n        /* \"#utility.yul\":2777:3223   */\n      iszero\n      tag_79\n      jumpi\n        /* \"#utility.yul\":2822:2860   */\n      tag_80\n        /* \"#utility.yul\":2854:2859   */\n      dup2\n        /* \"#utility.yul\":2822:2860   */\n      tag_14\n      jump\t// in\n    tag_80:\n        /* \"#utility.yul\":2906:2935   */\n      tag_81\n        /* \"#utility.yul\":2924:2934   */\n      dup5\n        /* \"#utility.yul\":2906:2935   */\n      tag_15\n      jump\t// in\n    tag_81:\n        /* \"#utility.yul\":2896:2904   */\n      dup2\n        /* \"#utility.yul\":2892:2936   */\n      add\n        /* \"#utility.yul\":3089:3091   */\n      0x20\n        /* \"#utility.yul\":3077:3087   */\n      dup6\n        /* \"#utility.yul\":3074:3092   */\n      lt\n        /* \"#utility.yul\":3071:3120   */\n      iszero\n      tag_82\n      jumpi\n        /* \"#utility.yul\":3110:3118   */\n      dup2\n        /* \"#utility.yul\":3095:3118   */\n      swap1\n      pop\n        /* \"#utility.yul\":3071:3120   */\n    tag_82:\n        /* \"#utility.yul\":3133:3213   */\n      tag_83\n        /* \"#utility.yul\":3189:3211   */\n      tag_84\n        /* \"#utility.yul\":3207:3210   */\n      dup6\n        /* \"#utility.yul\":3189:3211   */\n      tag_15\n      jump\t// in\n    tag_84:\n        /* \"#utility.yul\":3179:3187   */\n      dup4\n        /* \"#utility.yul\":3175:3212   */\n      add\n        /* \"#utility.yul\":3162:3173   */\n      dup3\n        /* \"#utility.yul\":3133:3213   */\n      tag_25\n      jump\t// in\n    tag_83:\n        /* \"#utility.yul\":2792:3223   */\n      pop\n      pop\n        /* \"#utility.yul\":2777:3223   */\n    tag_79:\n        /* \"#utility.yul\":2687:3230   */\n      pop\n      pop\n      pop\n      jump\t// out\n        /* \"#utility.yul\":3236:3353   */\n    tag_27:\n        /* \"#utility.yul\":3290:3298   */\n      0x00\n        /* \"#utility.yul\":3340:3345   */\n      dup3\n        /* \"#utility.yul\":3334:3338   */\n      dup3\n        /* \"#utility.yul\":3330:3346   */\n      shr\n        /* \"#utility.yul\":3309:3346   */\n      swap1\n      pop\n        /* \"#utility.yul\":3236:3353   */\n      swap3\n      swap2\n      pop\n      pop\n      jump\t// out\n        /* \"#utility.yul\":3359:3528   */\n    tag_28:\n        /* \"#utility.yul\":3403:3409   */\n      0x00\n        /* \"#utility.yul\":3436:3487   */\n      tag_87\n        /* \"#utility.yul\":3484:3485   */\n      0x00\n        /* \"#utility.yul\":3480:3486   */\n      not\n        /* \"#utility.yul\":3472:3477   */\n      dup5\n        /* \"#utility.yul\":3469:3470   */\n      0x08\n        /* \"#utility.yul\":3465:3478   */\n      mul\n        /* \"#utility.yul\":3436:3487   */\n      tag_27\n      jump\t// in\n    tag_87:\n        /* \"#utility.yul\":3432:3488   */\n      not\n        /* \"#utility.yul\":3517:3521   */\n      dup1\n        /* \"#utility.yul\":3511:3515   */\n      dup4\n        /* \"#utility.yul\":3507:3522   */\n      and\n        /* \"#utility.yul\":3497:3522   */\n      swap2\n      pop\n        /* \"#utility.yul\":3410:3528   */\n      pop\n        /* \"#utility.yul\":3359:3528   */\n      swap3\n      swap2\n      pop\n      pop\n      jump\t// out\n        /* \"#utility.yul\":3533:3828   */\n    tag_29:\n        /* \"#utility.yul\":3609:3613   */\n      0x00\n        /* \"#utility.yul\":3755:3784   */\n      tag_89\n        /* \"#utility.yul\":3780:3783   */\n      dup4\n        /* \"#utility.yul\":3774:3778   */\n      dup4\n        /* \"#utility.yul\":3755:3784   */\n      tag_28\n      jump\t// in\n    tag_89:\n        /* \"#utility.yul\":3747:3784   */\n      swap2\n      pop\n        /* \"#utility.yul\":3817:3820   */\n      dup3\n        /* \"#utility.yul\":3814:3815   */\n      0x02\n        /* \"#utility.yul\":3810:3821   */\n      mul\n        /* \"#utility.yul\":3804:3808   */\n      dup3\n        /* \"#utility.yul\":3801:3822   */\n      or\n        /* \"#utility.yul\":3793:3822   */\n      swap1\n      pop\n        /* \"#utility.yul\":3533:3828   */\n      swap3\n      swap2\n      pop\n      pop\n      jump\t// out\n        /* \"#utility.yul\":3833:5228   */\n    tag_2:\n        /* \"#utility.yul\":3950:3987   */\n      tag_91\n        /* \"#utility.yul\":3983:3986   */\n      dup3\n        /* \"#utility.yul\":3950:3987   */\n      tag_10\n      jump\t// in\n    tag_91:\n        /* \"#utility.yul\":4052:4070   */\n      0xffffffffffffffff\n        /* \"#utility.yul\":4044:4050   */\n      dup2\n        /* \"#utility.yul\":4041:4071   */\n      gt\n        /* \"#utility.yul\":4038:4094   */\n      iszero\n      tag_92\n      jumpi\n        /* \"#utility.yul\":4074:4092   */\n      tag_93\n      tag_11\n      jump\t// in\n    tag_93:\n        /* \"#utility.yul\":4038:4094   */\n    tag_92:\n        /* \"#utility.yul\":4118:4156   */\n      tag_94\n        /* \"#utility.yul\":4150:4154   */\n      dup3\n        /* \"#utility.yul\":4144:4155   */\n      sload\n        /* \"#utility.yul\":4118:4156   */\n      tag_13\n      jump\t// in\n    tag_94:\n        /* \"#utility.yul\":4203:4270   */\n      tag_95\n        /* \"#utility.yul\":4263:4269   */\n      dup3\n        /* \"#utility.yul\":4255:4261   */\n      dup3\n        /* \"#utility.yul\":4249:4253   */\n      dup6\n        /* \"#utility.yul\":4203:4270   */\n      tag_26\n      jump\t// in\n    tag_95:\n        /* \"#utility.yul\":4297:4298   */\n      0x00\n        /* \"#utility.yul\":4321:4325   */\n      0x20\n        /* \"#utility.yul\":4308:4325   */\n      swap1\n      pop\n        /* \"#utility.yul\":4353:4355   */\n      0x1f\n        /* \"#utility.yul\":4345:4351   */\n      dup4\n        /* \"#utility.yul\":4342:4356   */\n      gt\n        /* \"#utility.yul\":4370:4371   */\n      0x01\n        /* \"#utility.yul\":4365:4983   */\n      dup2\n      eq\n      tag_97\n      jumpi\n        /* \"#utility.yul\":5027:5028   */\n      0x00\n        /* \"#utility.yul\":5044:5050   */\n      dup5\n        /* \"#utility.yul\":5041:5118   */\n      iszero\n      tag_98\n      jumpi\n        /* \"#utility.yul\":5093:5102   */\n      dup3\n        /* \"#utility.yul\":5088:5091   */\n      dup8\n        /* \"#utility.yul\":5084:5103   */\n      add\n        /* \"#utility.yul\":5078:5104   */\n      mload\n        /* \"#utility.yul\":5069:5104   */\n      swap1\n      pop\n        /* \"#utility.yul\":5041:5118   */\n    tag_98:\n        /* \"#utility.yul\":5144:5211   */\n      tag_99\n        /* \"#utility.yul\":5204:5210   */\n      dup6\n        /* \"#utility.yul\":5197:5202   */\n      dup3\n        /* \"#utility.yul\":5144:5211   */\n      tag_29\n      jump\t// in\n    tag_99:\n        /* \"#utility.yul\":5138:5142   */\n      dup7\n        /* \"#utility.yul\":5131:5212   */\n      sstore\n        /* \"#utility.yul\":5000:5222   */\n      pop\n        /* \"#utility.yul\":4335:5222   */\n      jump(tag_96)\n        /* \"#utility.yul\":4365:4983   */\n    tag_97:\n        /* \"#utility.yul\":4417:4421   */\n      0x1f\n        /* \"#utility.yul\":4413:4422   */\n      not\n        /* \"#utility.yul\":4405:4411   */\n      dup5\n        /* \"#utility.yul\":4401:4423   */\n      and\n        /* \"#utility.yul\":4451:4488   */\n      tag_100\n        /* \"#utility.yul\":4483:4487   */\n      dup7\n        /* \"#utility.yul\":4451:4488   */\n      tag_14\n      jump\t// in\n    tag_100:\n        /* \"#utility.yul\":4510:4511   */\n      0x00\n        /* \"#utility.yul\":4524:4732   */\n    tag_101:\n        /* \"#utility.yul\":4538:4545   */\n      dup3\n        /* \"#utility.yul\":4535:4536   */\n      dup2\n        /* \"#utility.yul\":4532:4546   */\n      lt\n        /* \"#utility.yul\":4524:4732   */\n      iszero\n      tag_103\n      jumpi\n        /* \"#utility.yul\":4617:4626   */\n      dup5\n        /* \"#utility.yul\":4612:4615   */\n      dup10\n        /* \"#utility.yul\":4608:4627   */\n      add\n        /* \"#utility.yul\":4602:4628   */\n      mload\n        /* \"#utility.yul\":4594:4600   */\n      dup3\n        /* \"#utility.yul\":4587:4629   */\n      sstore\n        /* \"#utility.yul\":4668:4669   */\n      0x01\n        /* \"#utility.yul\":4660:4666   */\n      dup3\n        /* \"#utility.yul\":4656:4670   */\n      add\n        /* \"#utility.yul\":4646:4670   */\n      swap2\n      pop\n        /* \"#utility.yul\":4715:4717   */\n      0x20\n        /* \"#utility.yul\":4704:4713   */\n      dup6\n        /* \"#utility.yul\":4700:4718   */\n      add\n        /* \"#utility.yul\":4687:4718   */\n      swap5\n      pop\n        /* \"#utility.yul\":4561:4565   */\n      0x20\n        /* \"#utility.yul\":4558:4559   */\n      dup2\n        /* \"#utility.yul\":4554:4566   */\n      add\n        /* \"#utility.yul\":4549:4566   */\n      swap1\n      pop\n        /* \"#utility.yul\":4524:4732   */\n      jump(tag_101)\n    tag_103:\n        /* \"#utility.yul\":4760:4766   */\n      dup7\n        /* \"#utility.yul\":4751:4758   */\n      dup4\n        /* \"#utility.yul\":4748:4767   */\n      lt\n        /* \"#utility.yul\":4745:4924   */\n      iszero\n      tag_104\n      jumpi\n        /* \"#utility.yul\":4818:4827   */\n      dup5\n        /* \"#utility.yul\":4813:4816   */\n      dup10\n        /* \"#utility.yul\":4809:4828   */\n      add\n        /* \"#utility.yul\":4803:4829   */\n      mload\n        /* \"#utility.yul\":4861:4909   */\n      tag_105\n        /* \"#utility.yul\":4903:4907   */\n      0x1f\n        /* \"#utility.yul\":4895:4901   */\n      dup10\n        /* \"#utility.yul\":4891:4908   */\n      and\n        /* \"#utility.yul\":4880:4889   */\n      dup3\n        /* \"#utility.yul\":4861:4909   */\n      tag_28\n      jump\t// in\n    tag_105:\n        /* \"#utility.yul\":4853:4859   */\n      dup4\n        /* \"#utility.yul\":4846:4910   */\n      sstore\n        /* \"#utility.yul\":4768:4924   */\n      pop\n        /* \"#utility.yul\":4745:4924   */\n    tag_104:\n        /* \"#utility.yul\":4970:4971   */\n      0x01\n        /* \"#utility.yul\":4966:4967   */\n      0x02\n        /* \"#utility.yul\":4958:4964   */\n      dup9\n        /* \"#utility.yul\":4954:4968   */\n      mul\n        /* \"#utility.yul\":4950:4972   */\n      add\n        /* \"#utility.yul\":4944:4948   */\n      dup9\n        /* \"#utility.yul\":4937:4973   */\n      sstore\n        /* \"#utility.yul\":4372:4983   */\n      pop\n      pop\n      pop\n        /* \"#utility.yul\":4335:5222   */\n    tag_96:\n      pop\n        /* \"#utility.yul\":3925:5228   */\n      pop\n      pop\n      pop\n        /* \"#utility.yul\":3833:5228   */\n      pop\n      pop\n      jump\t// out\n        /* \"#utility.yul\":5234:5309   */\n    tag_30:\n        /* \"#utility.yul\":5267:5273   */\n      0x00\n        /* \"#utility.yul\":5300:5302   */\n      0x40\n        /* \"#utility.yul\":5294:5303   */\n      mload\n        /* \"#utility.yul\":5284:5303   */\n      swap1\n      pop\n        /* \"#utility.yul\":5234:5309   */\n      swap1\n      jump\t// out\n        /* \"#utility.yul\":5315:5432   */\n    tag_31:\n        /* \"#utility.yul\":5424:5425   */\n      0x00\n        /* \"#utility.yul\":5421:5422   */\n      dup1\n        /* \"#utility.yul\":5414:5426   */\n      revert\n        /* \"#utility.yul\":5438:5555   */\n    tag_32:\n        /* \"#utility.yul\":5547:5548   */\n      0x00\n        /* \"#utility.yul\":5544:5545   */\n      dup1\n        /* \"#utility.yul\":5537:5549   */\n      revert\n        /* \"#utility.yul\":5561:5683   */\n    tag_33:\n        /* \"#utility.yul\":5634:5658   */\n      tag_110\n        /* \"#utility.yul\":5652:5657   */\n      dup2\n        /* \"#utility.yul\":5634:5658   */\n      tag_18\n      jump\t// in\n    tag_110:\n        /* \"#utility.yul\":5627:5632   */\n      dup2\n        /* \"#utility.yul\":5624:5659   */\n      eq\n        /* \"#utility.yul\":5614:5677   */\n      tag_111\n      jumpi\n        /* \"#utility.yul\":5673:5674   */\n      0x00\n        /* \"#utility.yul\":5670:5671   */\n      dup1\n        /* \"#utility.yul\":5663:5675   */\n      revert\n        /* \"#utility.yul\":5614:5677   */\n    tag_111:\n        /* \"#utility.yul\":5561:5683   */\n      pop\n      jump\t// out\n        /* \"#utility.yul\":5689:5832   */\n    tag_34:\n        /* \"#utility.yul\":5746:5751   */\n      0x00\n        /* \"#utility.yul\":5777:5783   */\n      dup2\n        /* \"#utility.yul\":5771:5784   */\n      mload\n        /* \"#utility.yul\":5762:5784   */\n      swap1\n      pop\n        /* \"#utility.yul\":5793:5826   */\n      tag_113\n        /* \"#utility.yul\":5820:5825   */\n      dup2\n        /* \"#utility.yul\":5793:5826   */\n      tag_33\n      jump\t// in\n    tag_113:\n        /* \"#utility.yul\":5689:5832   */\n      swap3\n      swap2\n      pop\n      pop\n      jump\t// out\n        /* \"#utility.yul\":5838:5955   */\n    tag_35:\n        /* \"#utility.yul\":5947:5948   */\n      0x00\n        /* \"#utility.yul\":5944:5945   */\n      dup1\n        /* \"#utility.yul\":5937:5949   */\n      revert\n        /* \"#utility.yul\":5961:6078   */\n    tag_36:\n        /* \"#utility.yul\":6070:6071   */\n      0x00\n        /* \"#utility.yul\":6067:6068   */\n      dup1\n        /* \"#utility.yul\":6060:6072   */\n      revert\n        /* \"#utility.yul\":6084:6186   */\n    tag_37:\n        /* \"#utility.yul\":6125:6131   */\n      0x00\n        /* \"#utility.yul\":6176:6178   */\n      0x1f\n        /* \"#utility.yul\":6172:6179   */\n      not\n        /* \"#utility.yul\":6167:6169   */\n      0x1f\n        /* \"#utility.yul\":6160:6165   */\n      dup4\n        /* \"#utility.yul\":6156:6170   */\n      add\n        /* \"#utility.yul\":6152:6180   */\n      and\n        /* \"#utility.yul\":6142:6180   */\n      swap1\n      pop\n        /* \"#utility.yul\":6084:6186   */\n      swap2\n      swap1\n      pop\n      jump\t// out\n        /* \"#utility.yul\":6192:6473   */\n    tag_38:\n        /* \"#utility.yul\":6275:6302   */\n      tag_118\n        /* \"#utility.yul\":6297:6301   */\n      dup3\n        /* \"#utility.yul\":6275:6302   */\n      tag_37\n      jump\t// in\n    tag_118:\n        /* \"#utility.yul\":6267:6273   */\n      dup2\n        /* \"#utility.yul\":6263:6303   */\n      add\n        /* \"#utility.yul\":6405:6411   */\n      dup2\n        /* \"#utility.yul\":6393:6403   */\n      dup2\n        /* \"#utility.yul\":6390:6412   */\n      lt\n        /* \"#utility.yul\":6369:6387   */\n      0xffffffffffffffff\n        /* \"#utility.yul\":6357:6367   */\n      dup3\n        /* \"#utility.yul\":6354:6388   */\n      gt\n        /* \"#utility.yul\":6351:6413   */\n      or\n        /* \"#utility.yul\":6348:6436   */\n      iszero\n      tag_119\n      jumpi\n        /* \"#utility.yul\":6416:6434   */\n      tag_120\n      tag_11\n      jump\t// in\n    tag_120:\n        /* \"#utility.yul\":6348:6436   */\n    tag_119:\n        /* \"#utility.yul\":6456:6466   */\n      dup1\n        /* \"#utility.yul\":6452:6454   */\n      0x40\n        /* \"#utility.yul\":6445:6467   */\n      mstore\n        /* \"#utility.yul\":6235:6473   */\n      pop\n        /* \"#utility.yul\":6192:6473   */\n      pop\n      pop\n      jump\t// out\n        /* \"#utility.yul\":6479:6608   */\n    tag_39:\n        /* \"#utility.yul\":6513:6519   */\n      0x00\n        /* \"#utility.yul\":6540:6560   */\n      tag_122\n      tag_30\n      jump\t// in\n    tag_122:\n        /* \"#utility.yul\":6530:6560   */\n      swap1\n      pop\n        /* \"#utility.yul\":6569:6602   */\n      tag_123\n        /* \"#utility.yul\":6597:6601   */\n      dup3\n        /* \"#utility.yul\":6589:6595   */\n      dup3\n        /* \"#utility.yul\":6569:6602   */\n      tag_38\n      jump\t// in\n    tag_123:\n        /* \"#utility.yul\":6479:6608   */\n      swap2\n      swap1\n      pop\n      jump\t// out\n        /* \"#utility.yul\":6614:6922   */\n    tag_40:\n        /* \"#utility.yul\":6676:6680   */\n      0x00\n        /* \"#utility.yul\":6766:6784   */\n      0xffffffffffffffff\n        /* \"#utility.yul\":6758:6764   */\n      dup3\n        /* \"#utility.yul\":6755:6785   */\n      gt\n        /* \"#utility.yul\":6752:6808   */\n      iszero\n      tag_125\n      jumpi\n        /* \"#utility.yul\":6788:6806   */\n      tag_126\n      tag_11\n      jump\t// in\n    tag_126:\n        /* \"#utility.yul\":6752:6808   */\n    tag_125:\n        /* \"#utility.yul\":6826:6855   */\n      tag_127\n        /* \"#utility.yul\":6848:6854   */\n      dup3\n        /* \"#utility.yul\":6826:6855   */\n      tag_37\n      jump\t// in\n    tag_127:\n        /* \"#utility.yul\":6818:6855   */\n      swap1\n      pop\n        /* \"#utility.yul\":6910:6914   */\n      0x20\n        /* \"#utility.yul\":6904:6908   */\n      dup2\n        /* \"#utility.yul\":6900:6915   */\n      add\n        /* \"#utility.yul\":6892:6915   */\n      swap1\n      pop\n        /* \"#utility.yul\":6614:6922   */\n      swap2\n      swap1\n      pop\n      jump\t// out\n        /* \"#utility.yul\":6928:7174   */\n    tag_41:\n        /* \"#utility.yul\":7009:7010   */\n      0x00\n        /* \"#utility.yul\":7019:7132   */\n    tag_129:\n        /* \"#utility.yul\":7033:7039   */\n      dup4\n        /* \"#utility.yul\":7030:7031   */\n      dup2\n        /* \"#utility.yul\":7027:7040   */\n      lt\n        /* \"#utility.yul\":7019:7132   */\n      iszero\n      tag_131\n      jumpi\n        /* \"#utility.yul\":7118:7119   */\n      dup1\n        /* \"#utility.yul\":7113:7116   */\n      dup3\n        /* \"#utility.yul\":7109:7120   */\n      add\n        /* \"#utility.yul\":7103:7121   */\n      mload\n        /* \"#utility.yul\":7099:7100   */\n      dup2\n        /* \"#utility.yul\":7094:7097   */\n      dup5\n        /* \"#utility.yul\":7090:7101   */\n      add\n        /* \"#utility.yul\":7083:7122   */\n      mstore\n        /* \"#utility.yul\":7055:7057   */\n      0x20\n        /* \"#utility.yul\":7052:7053   */\n      dup2\n        /* \"#utility.yul\":7048:7058   */\n      add\n        /* \"#utility.yul\":7043:7058   */\n      swap1\n      pop\n        /* \"#utility.yul\":7019:7132   */\n      jump(tag_129)\n    tag_131:\n        /* \"#utility.yul\":7166:7167   */\n      0x00\n        /* \"#utility.yul\":7157:7163   */\n      dup5\n        /* \"#utility.yul\":7152:7155   */\n      dup5\n        /* \"#utility.yul\":7148:7164   */\n      add\n        /* \"#utility.yul\":7141:7168   */\n      mstore\n        /* \"#utility.yul\":6990:7174   */\n      pop\n        /* \"#utility.yul\":6928:7174   */\n      pop\n      pop\n      pop\n      jump\t// out\n        /* \"#utility.yul\":7180:7614   */\n    tag_42:\n        /* \"#utility.yul\":7269:7274   */\n      0x00\n        /* \"#utility.yul\":7294:7360   */\n      tag_133\n        /* \"#utility.yul\":7310:7359   */\n      tag_134\n        /* \"#utility.yul\":7352:7358   */\n      dup5\n        /* \"#utility.yul\":7310:7359   */\n      tag_40\n      jump\t// in\n    tag_134:\n        /* \"#utility.yul\":7294:7360   */\n      tag_39\n      jump\t// in\n    tag_133:\n        /* \"#utility.yul\":7285:7360   */\n      swap1\n      pop\n        /* \"#utility.yul\":7383:7389   */\n      dup3\n        /* \"#utility.yul\":7376:7381   */\n      dup2\n        /* \"#utility.yul\":7369:7390   */\n      mstore\n        /* \"#utility.yul\":7421:7425   */\n      0x20\n        /* \"#utility.yul\":7414:7419   */\n      dup2\n        /* \"#utility.yul\":7410:7426   */\n      add\n        /* \"#utility.yul\":7459:7462   */\n      dup5\n        /* \"#utility.yul\":7450:7456   */\n      dup5\n        /* \"#utility.yul\":7445:7448   */\n      dup5\n        /* \"#utility.yul\":7441:7457   */\n      add\n        /* \"#utility.yul\":7438:7463   */\n      gt\n        /* \"#utility.yul\":7435:7547   */\n      iszero\n      tag_135\n      jumpi\n        /* \"#utility.yul\":7466:7545   */\n      tag_136\n      tag_36\n      jump\t// in\n    tag_136:\n        /* \"#utility.yul\":7435:7547   */\n    tag_135:\n        /* \"#utility.yul\":7556:7608   */\n      tag_137\n        /* \"#utility.yul\":7601:7607   */\n      dup5\n        /* \"#utility.yul\":7596:7599   */\n      dup3\n        /* \"#utility.yul\":7591:7594   */\n      dup6\n        /* \"#utility.yul\":7556:7608   */\n      tag_41\n      jump\t// in\n    tag_137:\n        /* \"#utility.yul\":7275:7614   */\n      pop\n        /* \"#utility.yul\":7180:7614   */\n      swap4\n      swap3\n      pop\n      pop\n      pop\n      jump\t// out\n        /* \"#utility.yul\":7634:7989   */\n    tag_43:\n        /* \"#utility.yul\":7701:7706   */\n      0x00\n        /* \"#utility.yul\":7750:7753   */\n      dup3\n        /* \"#utility.yul\":7743:7747   */\n      0x1f\n        /* \"#utility.yul\":7735:7741   */\n      dup4\n        /* \"#utility.yul\":7731:7748   */\n      add\n        /* \"#utility.yul\":7727:7754   */\n      slt\n        /* \"#utility.yul\":7717:7839   */\n      tag_139\n      jumpi\n        /* \"#utility.yul\":7758:7837   */\n      tag_140\n      tag_35\n      jump\t// in\n    tag_140:\n        /* \"#utility.yul\":7717:7839   */\n    tag_139:\n        /* \"#utility.yul\":7868:7874   */\n      dup2\n        /* \"#utility.yul\":7862:7875   */\n      mload\n        /* \"#utility.yul\":7893:7983   */\n      tag_141\n        /* \"#utility.yul\":7979:7982   */\n      dup5\n        /* \"#utility.yul\":7971:7977   */\n      dup3\n        /* \"#utility.yul\":7964:7968   */\n      0x20\n        /* \"#utility.yul\":7956:7962   */\n      dup7\n        /* \"#utility.yul\":7952:7969   */\n      add\n        /* \"#utility.yul\":7893:7983   */\n      tag_42\n      jump\t// in\n    tag_141:\n        /* \"#utility.yul\":7884:7983   */\n      swap2\n      pop\n        /* \"#utility.yul\":7707:7989   */\n      pop\n        /* \"#utility.yul\":7634:7989   */\n      swap3\n      swap2\n      pop\n      pop\n      jump\t// out\n        /* \"#utility.yul\":7995:8675   */\n    tag_5:\n        /* \"#utility.yul\":8084:8090   */\n      0x00\n        /* \"#utility.yul\":8092:8098   */\n      dup1\n        /* \"#utility.yul\":8141:8143   */\n      0x40\n        /* \"#utility.yul\":8129:8138   */\n      dup4\n        /* \"#utility.yul\":8120:8127   */\n      dup6\n        /* \"#utility.yul\":8116:8139   */\n      sub\n        /* \"#utility.yul\":8112:8144   */\n      slt\n        /* \"#utility.yul\":8109:8228   */\n      iszero\n      tag_143\n      jumpi\n        /* \"#utility.yul\":8147:8226   */\n      tag_144\n      tag_31\n      jump\t// in\n    tag_144:\n        /* \"#utility.yul\":8109:8228   */\n    tag_143:\n        /* \"#utility.yul\":8267:8268   */\n      0x00\n        /* \"#utility.yul\":8292:8356   */\n      tag_145\n        /* \"#utility.yul\":8348:8355   */\n      dup6\n        /* \"#utility.yul\":8339:8345   */\n      dup3\n        /* \"#utility.yul\":8328:8337   */\n      dup7\n        /* \"#utility.yul\":8324:8346   */\n      add\n        /* \"#utility.yul\":8292:8356   */\n      tag_34\n      jump\t// in\n    tag_145:\n        /* \"#utility.yul\":8282:8356   */\n      swap3\n      pop\n        /* \"#utility.yul\":8238:8366   */\n      pop\n        /* \"#utility.yul\":8426:8428   */\n      0x20\n        /* \"#utility.yul\":8415:8424   */\n      dup4\n        /* \"#utility.yul\":8411:8429   */\n      add\n        /* \"#utility.yul\":8405:8430   */\n      mload\n        /* \"#utility.yul\":8457:8475   */\n      0xffffffffffffffff\n        /* \"#utility.yul\":8449:8455   */\n      dup2\n        /* \"#utility.yul\":8446:8476   */\n      gt\n        /* \"#utility.yul\":8443:8560   */\n      iszero\n      tag_146\n      jumpi\n        /* \"#utility.yul\":8479:8558   */\n      tag_147\n      tag_32\n      jump\t// in\n    tag_147:\n        /* \"#utility.yul\":8443:8560   */\n    tag_146:\n        /* \"#utility.yul\":8584:8658   */\n      tag_148\n        /* \"#utility.yul\":8650:8657   */\n      dup6\n        /* \"#utility.yul\":8641:8647   */\n      dup3\n        /* \"#utility.yul\":8630:8639   */\n      dup7\n        /* \"#utility.yul\":8626:8648   */\n      add\n        /* \"#utility.yul\":8584:8658   */\n      tag_43\n      jump\t// in\n    tag_148:\n        /* \"#utility.yul\":8574:8658   */\n      swap2\n      pop\n        /* \"#utility.yul\":8376:8668   */\n      pop\n        /* \"#utility.yul\":7995:8675   */\n      swap3\n      pop\n      swap3\n      swap1\n      pop\n      jump\t// out\n        /* \"Fall-2023/Copy_25_InheritanceComposition.sol\":75:512  contract A... */\n    tag_9:\n      dataSize(sub_0)\n      dup1\n      dataOffset(sub_0)\n      0x00\n      codecopy\n      0x00\n      return\n    stop\n\n    sub_0: assembly {\n            /* \"Fall-2023/Copy_25_InheritanceComposition.sol\":75:512  contract A... */\n          mstore(0x40, 0x80)\n          callvalue\n          dup1\n          iszero\n          tag_1\n          jumpi\n          0x00\n          dup1\n          revert\n        tag_1:\n          pop\n          jumpi(tag_2, lt(calldatasize, 0x04))\n          shr(0xe0, calldataload(0x00))\n          dup1\n          0x06fdde03\n          eq\n          tag_3\n          jumpi\n          dup1\n          0x967e6e65\n          eq\n          tag_4\n          jumpi\n          dup1\n          0xc27fc305\n          eq\n          tag_5\n          jumpi\n          dup1\n          0xd5dcf127\n          eq\n          tag_6\n          jumpi\n        tag_2:\n          0x00\n          dup1\n          revert\n            /* \"Fall-2023/Copy_25_InheritanceComposition.sol\":109:135  string public name = \"Ali\" */\n        tag_3:\n          tag_7\n          tag_8\n          jump\t// in\n        tag_7:\n          mload(0x40)\n          tag_9\n          swap2\n          swap1\n          tag_10\n          jump\t// in\n        tag_9:\n          mload(0x40)\n          dup1\n          swap2\n          sub\n          swap1\n          return\n            /* \"Fall-2023/Copy_25_InheritanceComposition.sol\":341:419  function getAge() public view returns(uint)... */\n        tag_4:\n          tag_11\n          tag_12\n          jump\t// in\n        tag_11:\n          mload(0x40)\n          tag_13\n          swap2\n          swap1\n          tag_14\n          jump\t// in\n        tag_13:\n          mload(0x40)\n          dup1\n          swap2\n          sub\n          swap1\n          return\n            /* \"Fall-2023/Copy_25_InheritanceComposition.sol\":427:507  function f1() public pure virtual returns(uint)... */\n        tag_5:\n          tag_15\n          tag_16\n          jump\t// in\n        tag_15:\n          mload(0x40)\n          tag_17\n          swap2\n          swap1\n          tag_14\n          jump\t// in\n        tag_17:\n          mload(0x40)\n          dup1\n          swap2\n          sub\n          swap1\n          return\n            /* \"Fall-2023/Copy_25_InheritanceComposition.sol\":257:333  function setAge(uint _age) public virtual... */\n        tag_6:\n          tag_18\n          0x04\n          dup1\n          calldatasize\n          sub\n          dup2\n          add\n          swap1\n          tag_19\n          swap2\n          swap1\n          tag_20\n          jump\t// in\n        tag_19:\n          tag_21\n          jump\t// in\n        tag_18:\n          stop\n            /* \"Fall-2023/Copy_25_InheritanceComposition.sol\":109:135  string public name = \"Ali\" */\n        tag_8:\n          0x01\n          dup1\n          sload\n          tag_22\n          swap1\n          tag_23\n          jump\t// in\n        tag_22:\n          dup1\n          0x1f\n          add\n          0x20\n          dup1\n          swap2\n          div\n          mul\n          0x20\n          add\n          mload(0x40)\n          swap1\n          dup2\n          add\n          0x40\n          mstore\n          dup1\n          swap3\n          swap2\n          swap1\n          dup2\n          dup2\n          mstore\n          0x20\n          add\n          dup3\n          dup1\n          sload\n          tag_24\n          swap1\n          tag_23\n          jump\t// in\n        tag_24:\n          dup1\n          iszero\n          tag_25\n          jumpi\n          dup1\n          0x1f\n          lt\n          tag_26\n          jumpi\n          0x0100\n          dup1\n          dup4\n          sload\n          div\n          mul\n          dup4\n          mstore\n          swap2\n          0x20\n          add\n          swap2\n          jump(tag_25)\n        tag_26:\n          dup3\n          add\n          swap2\n          swap1\n          0x00\n          mstore\n          keccak256(0x00, 0x20)\n          swap1\n        tag_27:\n          dup2\n          sload\n          dup2\n          mstore\n          swap1\n          0x01\n          add\n          swap1\n          0x20\n          add\n          dup1\n          dup4\n          gt\n          tag_27\n          jumpi\n          dup3\n          swap1\n          sub\n          0x1f\n          and\n          dup3\n          add\n          swap2\n        tag_25:\n          pop\n          pop\n          pop\n          pop\n          pop\n          dup2\n          jump\t// out\n            /* \"Fall-2023/Copy_25_InheritanceComposition.sol\":341:419  function getAge() public view returns(uint)... */\n        tag_12:\n            /* \"Fall-2023/Copy_25_InheritanceComposition.sol\":379:383  uint */\n          0x00\n            /* \"Fall-2023/Copy_25_InheritanceComposition.sol\":408:411  age */\n          dup1\n          sload\n            /* \"Fall-2023/Copy_25_InheritanceComposition.sol\":401:411  return age */\n          swap1\n          pop\n            /* \"Fall-2023/Copy_25_InheritanceComposition.sol\":341:419  function getAge() public view returns(uint)... */\n          swap1\n          jump\t// out\n            /* \"Fall-2023/Copy_25_InheritanceComposition.sol\":427:507  function f1() public pure virtual returns(uint)... */\n        tag_16:\n            /* \"Fall-2023/Copy_25_InheritanceComposition.sol\":469:473  uint */\n          0x00\n            /* \"Fall-2023/Copy_25_InheritanceComposition.sol\":498:499  1 */\n          0x01\n            /* \"Fall-2023/Copy_25_InheritanceComposition.sol\":491:499  return 1 */\n          swap1\n          pop\n            /* \"Fall-2023/Copy_25_InheritanceComposition.sol\":427:507  function f1() public pure virtual returns(uint)... */\n          swap1\n          jump\t// out\n            /* \"Fall-2023/Copy_25_InheritanceComposition.sol\":257:333  function setAge(uint _age) public virtual... */\n        tag_21:\n            /* \"Fall-2023/Copy_25_InheritanceComposition.sol\":321:325  _age */\n          dup1\n            /* \"Fall-2023/Copy_25_InheritanceComposition.sol\":315:318  age */\n          0x00\n            /* \"Fall-2023/Copy_25_InheritanceComposition.sol\":315:325  age = _age */\n          dup2\n          swap1\n          sstore\n          pop\n            /* \"Fall-2023/Copy_25_InheritanceComposition.sol\":257:333  function setAge(uint _age) public virtual... */\n          pop\n          jump\t// out\n            /* \"#utility.yul\":7:106   */\n        tag_31:\n            /* \"#utility.yul\":59:65   */\n          0x00\n            /* \"#utility.yul\":93:98   */\n          dup2\n            /* \"#utility.yul\":87:99   */\n          mload\n            /* \"#utility.yul\":77:99   */\n          swap1\n          pop\n            /* \"#utility.yul\":7:106   */\n          swap2\n          swap1\n          pop\n          jump\t// out\n            /* \"#utility.yul\":112:281   */\n        tag_32:\n            /* \"#utility.yul\":196:207   */\n          0x00\n            /* \"#utility.yul\":230:236   */\n          dup3\n            /* \"#utility.yul\":225:228   */\n          dup3\n            /* \"#utility.yul\":218:237   */\n          mstore\n            /* \"#utility.yul\":270:274   */\n          0x20\n            /* \"#utility.yul\":265:268   */\n          dup3\n            /* \"#utility.yul\":261:275   */\n          add\n            /* \"#utility.yul\":246:275   */\n          swap1\n          pop\n            /* \"#utility.yul\":112:281   */\n          swap3\n          swap2\n          pop\n          pop\n          jump\t// out\n            /* \"#utility.yul\":287:533   */\n        tag_33:\n            /* \"#utility.yul\":368:369   */\n          0x00\n            /* \"#utility.yul\":378:491   */\n        tag_48:\n            /* \"#utility.yul\":392:398   */\n          dup4\n            /* \"#utility.yul\":389:390   */\n          dup2\n            /* \"#utility.yul\":386:399   */\n          lt\n            /* \"#utility.yul\":378:491   */\n          iszero\n          tag_50\n          jumpi\n            /* \"#utility.yul\":477:478   */\n          dup1\n            /* \"#utility.yul\":472:475   */\n          dup3\n            /* \"#utility.yul\":468:479   */\n          add\n            /* \"#utility.yul\":462:480   */\n          mload\n            /* \"#utility.yul\":458:459   */\n          dup2\n            /* \"#utility.yul\":453:456   */\n          dup5\n            /* \"#utility.yul\":449:460   */\n          add\n            /* \"#utility.yul\":442:481   */\n          mstore\n            /* \"#utility.yul\":414:416   */\n          0x20\n            /* \"#utility.yul\":411:412   */\n          dup2\n            /* \"#utility.yul\":407:417   */\n          add\n            /* \"#utility.yul\":402:417   */\n          swap1\n          pop\n            /* \"#utility.yul\":378:491   */\n          jump(tag_48)\n        tag_50:\n            /* \"#utility.yul\":525:526   */\n          0x00\n            /* \"#utility.yul\":516:522   */\n          dup5\n            /* \"#utility.yul\":511:514   */\n          dup5\n            /* \"#utility.yul\":507:523   */\n          add\n            /* \"#utility.yul\":500:527   */\n          mstore\n            /* \"#utility.yul\":349:533   */\n          pop\n            /* \"#utility.yul\":287:533   */\n          pop\n          pop\n          pop\n          jump\t// out\n            /* \"#utility.yul\":539:641   */\n        tag_34:\n            /* \"#utility.yul\":580:586   */\n          0x00\n            /* \"#utility.yul\":631:633   */\n          0x1f\n            /* \"#utility.yul\":627:634   */\n          not\n            /* \"#utility.yul\":622:624   */\n          0x1f\n            /* \"#utility.yul\":615:620   */\n          dup4\n            /* \"#utility.yul\":611:625   */\n          add\n            /* \"#utility.yul\":607:635   */\n          and\n            /* \"#utility.yul\":597:635   */\n          swap1\n          pop\n            /* \"#utility.yul\":539:641   */\n          swap2\n          swap1\n          pop\n          jump\t// out\n            /* \"#utility.yul\":647:1024   */\n        tag_35:\n            /* \"#utility.yul\":735:738   */\n          0x00\n            /* \"#utility.yul\":763:802   */\n          tag_53\n            /* \"#utility.yul\":796:801   */\n          dup3\n            /* \"#utility.yul\":763:802   */\n          tag_31\n          jump\t// in\n        tag_53:\n            /* \"#utility.yul\":818:889   */\n          tag_54\n            /* \"#utility.yul\":882:888   */\n          dup2\n            /* \"#utility.yul\":877:880   */\n          dup6\n            /* \"#utility.yul\":818:889   */\n          tag_32\n          jump\t// in\n        tag_54:\n            /* \"#utility.yul\":811:889   */\n          swap4\n          pop\n            /* \"#utility.yul\":898:963   */\n          tag_55\n            /* \"#utility.yul\":956:962   */\n          dup2\n            /* \"#utility.yul\":951:954   */\n          dup6\n            /* \"#utility.yul\":944:948   */\n          0x20\n            /* \"#utility.yul\":937:942   */\n          dup7\n            /* \"#utility.yul\":933:949   */\n          add\n            /* \"#utility.yul\":898:963   */\n          tag_33\n          jump\t// in\n        tag_55:\n            /* \"#utility.yul\":988:1017   */\n          tag_56\n            /* \"#utility.yul\":1010:1016   */\n          dup2\n            /* \"#utility.yul\":988:1017   */\n          tag_34\n          jump\t// in\n        tag_56:\n            /* \"#utility.yul\":983:986   */\n          dup5\n            /* \"#utility.yul\":979:1018   */\n          add\n            /* \"#utility.yul\":972:1018   */\n          swap2\n          pop\n            /* \"#utility.yul\":739:1024   */\n          pop\n            /* \"#utility.yul\":647:1024   */\n          swap3\n          swap2\n          pop\n          pop\n          jump\t// out\n            /* \"#utility.yul\":1030:1343   */\n        tag_10:\n            /* \"#utility.yul\":1143:1147   */\n          0x00\n            /* \"#utility.yul\":1181:1183   */\n          0x20\n            /* \"#utility.yul\":1170:1179   */\n          dup3\n            /* \"#utility.yul\":1166:1184   */\n          add\n            /* \"#utility.yul\":1158:1184   */\n          swap1\n          pop\n            /* \"#utility.yul\":1230:1239   */\n          dup2\n            /* \"#utility.yul\":1224:1228   */\n          dup2\n            /* \"#utility.yul\":1220:1240   */\n          sub\n            /* \"#utility.yul\":1216:1217   */\n          0x00\n            /* \"#utility.yul\":1205:1214   */\n          dup4\n            /* \"#utility.yul\":1201:1218   */\n          add\n            /* \"#utility.yul\":1194:1241   */\n          mstore\n            /* \"#utility.yul\":1258:1336   */\n          tag_58\n            /* \"#utility.yul\":1331:1335   */\n          dup2\n            /* \"#utility.yul\":1322:1328   */\n          dup5\n            /* \"#utility.yul\":1258:1336   */\n          tag_35\n          jump\t// in\n        tag_58:\n            /* \"#utility.yul\":1250:1336   */\n          swap1\n          pop\n            /* \"#utility.yul\":1030:1343   */\n          swap3\n          swap2\n          pop\n          pop\n          jump\t// out\n            /* \"#utility.yul\":1349:1426   */\n        tag_36:\n            /* \"#utility.yul\":1386:1393   */\n          0x00\n            /* \"#utility.yul\":1415:1420   */\n          dup2\n            /* \"#utility.yul\":1404:1420   */\n          swap1\n          pop\n            /* \"#utility.yul\":1349:1426   */\n          swap2\n          swap1\n          pop\n          jump\t// out\n            /* \"#utility.yul\":1432:1550   */\n        tag_37:\n            /* \"#utility.yul\":1519:1543   */\n          tag_61\n            /* \"#utility.yul\":1537:1542   */\n          dup2\n            /* \"#utility.yul\":1519:1543   */\n          tag_36\n          jump\t// in\n        tag_61:\n            /* \"#utility.yul\":1514:1517   */\n          dup3\n            /* \"#utility.yul\":1507:1544   */\n          mstore\n            /* \"#utility.yul\":1432:1550   */\n          pop\n          pop\n          jump\t// out\n            /* \"#utility.yul\":1556:1778   */\n        tag_14:\n            /* \"#utility.yul\":1649:1653   */\n          0x00\n            /* \"#utility.yul\":1687:1689   */\n          0x20\n            /* \"#utility.yul\":1676:1685   */\n          dup3\n            /* \"#utility.yul\":1672:1690   */\n          add\n            /* \"#utility.yul\":1664:1690   */\n          swap1\n          pop\n            /* \"#utility.yul\":1700:1771   */\n          tag_63\n            /* \"#utility.yul\":1768:1769   */\n          0x00\n            /* \"#utility.yul\":1757:1766   */\n          dup4\n            /* \"#utility.yul\":1753:1770   */\n          add\n            /* \"#utility.yul\":1744:1750   */\n          dup5\n            /* \"#utility.yul\":1700:1771   */\n          tag_37\n          jump\t// in\n        tag_63:\n            /* \"#utility.yul\":1556:1778   */\n          swap3\n          swap2\n          pop\n          pop\n          jump\t// out\n            /* \"#utility.yul\":1865:1982   */\n        tag_39:\n            /* \"#utility.yul\":1974:1975   */\n          0x00\n            /* \"#utility.yul\":1971:1972   */\n          dup1\n            /* \"#utility.yul\":1964:1976   */\n          revert\n            /* \"#utility.yul\":2111:2233   */\n        tag_41:\n            /* \"#utility.yul\":2184:2208   */\n          tag_68\n            /* \"#utility.yul\":2202:2207   */\n          dup2\n            /* \"#utility.yul\":2184:2208   */\n          tag_36\n          jump\t// in\n        tag_68:\n            /* \"#utility.yul\":2177:2182   */\n          dup2\n            /* \"#utility.yul\":2174:2209   */\n          eq\n            /* \"#utility.yul\":2164:2227   */\n          tag_69\n          jumpi\n            /* \"#utility.yul\":2223:2224   */\n          0x00\n            /* \"#utility.yul\":2220:2221   */\n          dup1\n            /* \"#utility.yul\":2213:2225   */\n          revert\n            /* \"#utility.yul\":2164:2227   */\n        tag_69:\n            /* \"#utility.yul\":2111:2233   */\n          pop\n          jump\t// out\n            /* \"#utility.yul\":2239:2378   */\n        tag_42:\n            /* \"#utility.yul\":2285:2290   */\n          0x00\n            /* \"#utility.yul\":2323:2329   */\n          dup2\n            /* \"#utility.yul\":2310:2330   */\n          calldataload\n            /* \"#utility.yul\":2301:2330   */\n          swap1\n          pop\n            /* \"#utility.yul\":2339:2372   */\n          tag_71\n            /* \"#utility.yul\":2366:2371   */\n          dup2\n            /* \"#utility.yul\":2339:2372   */\n          tag_41\n          jump\t// in\n        tag_71:\n            /* \"#utility.yul\":2239:2378   */\n          swap3\n          swap2\n          pop\n          pop\n          jump\t// out\n            /* \"#utility.yul\":2384:2713   */\n        tag_20:\n            /* \"#utility.yul\":2443:2449   */\n          0x00\n            /* \"#utility.yul\":2492:2494   */\n          0x20\n            /* \"#utility.yul\":2480:2489   */\n          dup3\n            /* \"#utility.yul\":2471:2478   */\n          dup5\n            /* \"#utility.yul\":2467:2490   */\n          sub\n            /* \"#utility.yul\":2463:2495   */\n          slt\n            /* \"#utility.yul\":2460:2579   */\n          iszero\n          tag_73\n          jumpi\n            /* \"#utility.yul\":2498:2577   */\n          tag_74\n          tag_39\n          jump\t// in\n        tag_74:\n            /* \"#utility.yul\":2460:2579   */\n        tag_73:\n            /* \"#utility.yul\":2618:2619   */\n          0x00\n            /* \"#utility.yul\":2643:2696   */\n          tag_75\n            /* \"#utility.yul\":2688:2695   */\n          dup5\n            /* \"#utility.yul\":2679:2685   */\n          dup3\n            /* \"#utility.yul\":2668:2677   */\n          dup6\n            /* \"#utility.yul\":2664:2686   */\n          add\n            /* \"#utility.yul\":2643:2696   */\n          tag_42\n          jump\t// in\n        tag_75:\n            /* \"#utility.yul\":2633:2696   */\n          swap2\n          pop\n            /* \"#utility.yul\":2589:2706   */\n          pop\n            /* \"#utility.yul\":2384:2713   */\n          swap3\n          swap2\n          pop\n          pop\n          jump\t// out\n            /* \"#utility.yul\":2719:2899   */\n        tag_43:\n            /* \"#utility.yul\":2767:2844   */\n          0x4e487b7100000000000000000000000000000000000000000000000000000000\n            /* \"#utility.yul\":2764:2765   */\n          0x00\n            /* \"#utility.yul\":2757:2845   */\n          mstore\n            /* \"#utility.yul\":2864:2868   */\n          0x22\n            /* \"#utility.yul\":2861:2862   */\n          0x04\n            /* \"#utility.yul\":2854:2869   */\n          mstore\n            /* \"#utility.yul\":2888:2892   */\n          0x24\n            /* \"#utility.yul\":2885:2886   */\n          0x00\n            /* \"#utility.yul\":2878:2893   */\n          revert\n            /* \"#utility.yul\":2905:3225   */\n        tag_23:\n            /* \"#utility.yul\":2949:2955   */\n          0x00\n            /* \"#utility.yul\":2986:2987   */\n          0x02\n            /* \"#utility.yul\":2980:2984   */\n          dup3\n            /* \"#utility.yul\":2976:2988   */\n          div\n            /* \"#utility.yul\":2966:2988   */\n          swap1\n          pop\n            /* \"#utility.yul\":3033:3034   */\n          0x01\n            /* \"#utility.yul\":3027:3031   */\n          dup3\n            /* \"#utility.yul\":3023:3035   */\n          and\n            /* \"#utility.yul\":3054:3072   */\n          dup1\n            /* \"#utility.yul\":3044:3125   */\n          tag_78\n          jumpi\n            /* \"#utility.yul\":3110:3114   */\n          0x7f\n            /* \"#utility.yul\":3102:3108   */\n          dup3\n            /* \"#utility.yul\":3098:3115   */\n          and\n            /* \"#utility.yul\":3088:3115   */\n          swap2\n          pop\n            /* \"#utility.yul\":3044:3125   */\n        tag_78:\n            /* \"#utility.yul\":3172:3174   */\n          0x20\n            /* \"#utility.yul\":3164:3170   */\n          dup3\n            /* \"#utility.yul\":3161:3175   */\n          lt\n            /* \"#utility.yul\":3141:3159   */\n          dup2\n            /* \"#utility.yul\":3138:3176   */\n          sub\n            /* \"#utility.yul\":3135:3219   */\n          tag_79\n          jumpi\n            /* \"#utility.yul\":3191:3209   */\n          tag_80\n          tag_43\n          jump\t// in\n        tag_80:\n            /* \"#utility.yul\":3135:3219   */\n        tag_79:\n            /* \"#utility.yul\":2956:3225   */\n          pop\n            /* \"#utility.yul\":2905:3225   */\n          swap2\n          swap1\n          pop\n          jump\t// out\n\n        auxdata: 0xa2646970667358221220ca97c46ce1b0007b9e38f7f8c47af31495a41e7f5553008cd38900c5a4f3241c64736f6c63430008120033\n    }\n}\n",
				"bytecode": {
					"linkReferences": {},
					"object": "608060405260016040516100129061011c565b61001c91906101d5565b604051809103906000f080158015610038573d6000803e3d6000fd5b506000806101000a81548173ffffffffffffffffffffffffffffffffffffffff021916908373ffffffffffffffffffffffffffffffffffffffff16021790555060008054906101000a900473ffffffffffffffffffffffffffffffffffffffff1673ffffffffffffffffffffffffffffffffffffffff1663967e6e656040518163ffffffff1660e01b8152600401602060405180830381865afa1580156100e3573d6000803e3d6000fd5b505050506040513d601f19601f820116820180604052508101906101079190610234565b60015534801561011657600080fd5b50610261565b6109568061041583390190565b6000819050919050565b6000819050919050565b6000819050919050565b600061016261015d61015884610129565b61013d565b610133565b9050919050565b61017281610147565b82525050565b600082825260208201905092915050565b7f416c690000000000000000000000000000000000000000000000000000000000600082015250565b60006101bf600383610178565b91506101ca82610189565b602082019050919050565b60006040820190506101ea6000830184610169565b81810360208301526101fb816101b2565b905092915050565b600080fd5b61021181610133565b811461021c57600080fd5b50565b60008151905061022e81610208565b92915050565b60006020828403121561024a57610249610203565b5b60006102588482850161021f565b91505092915050565b6101a5806102706000396000f3fe608060405234801561001057600080fd5b50600436106100365760003560e01c80630dbe671f1461003b5780634df7e3d014610059575b600080fd5b610043610077565b6040516100509190610120565b60405180910390f35b61006161009b565b60405161006e9190610154565b60405180910390f35b60008054906101000a900473ffffffffffffffffffffffffffffffffffffffff1681565b60015481565b600073ffffffffffffffffffffffffffffffffffffffff82169050919050565b6000819050919050565b60006100e66100e16100dc846100a1565b6100c1565b6100a1565b9050919050565b60006100f8826100cb565b9050919050565b600061010a826100ed565b9050919050565b61011a816100ff565b82525050565b60006020820190506101356000830184610111565b92915050565b6000819050919050565b61014e8161013b565b82525050565b60006020820190506101696000830184610145565b9291505056fea26469706673582212204337ecacad25d92eec42e9b6700dcff29140409191b02fca70dca1613f2589ef64736f6c6343000812003360806040526040518060400160405280600381526020017f416c690000000000000000000000000000000000000000000000000000000000815250600190816200004a919062000319565b503480156200005857600080fd5b50604051620009563803806200095683398181016040528101906200007e919062000595565b81600081905550806001908162000096919062000319565b505050620005fb565b600081519050919050565b7f4e487b7100000000000000000000000000000000000000000000000000000000600052604160045260246000fd5b7f4e487b7100000000000000000000000000000000000000000000000000000000600052602260045260246000fd5b600060028204905060018216806200012157607f821691505b602082108103620001375762000136620000d9565b5b50919050565b60008190508160005260206000209050919050565b60006020601f8301049050919050565b600082821b905092915050565b600060088302620001a17fffffffffffffffffffffffffffffffffffffffffffffffffffffffffffffffff8262000162565b620001ad868362000162565b95508019841693508086168417925050509392505050565b6000819050919050565b6000819050919050565b6000620001fa620001f4620001ee84620001c5565b620001cf565b620001c5565b9050919050565b6000819050919050565b6200021683620001d9565b6200022e620002258262000201565b8484546200016f565b825550505050565b600090565b6200024562000236565b620002528184846200020b565b505050565b5b818110156200027a576200026e6000826200023b565b60018101905062000258565b5050565b601f821115620002c95762000293816200013d565b6200029e8462000152565b81016020851015620002ae578190505b620002c6620002bd8562000152565b83018262000257565b50505b505050565b600082821c905092915050565b6000620002ee60001984600802620002ce565b1980831691505092915050565b6000620003098383620002db565b9150826002028217905092915050565b62000324826200009f565b67ffffffffffffffff81111562000340576200033f620000aa565b5b6200034c825462000108565b620003598282856200027e565b600060209050601f8311600181146200039157600084156200037c578287015190505b620003888582620002fb565b865550620003f8565b601f198416620003a1866200013d565b60005b82811015620003cb57848901518255600182019150602085019450602081019050620003a4565b86831015620003eb5784890151620003e7601f891682620002db565b8355505b6001600288020188555050505b505050505050565b6000604051905090565b600080fd5b600080fd5b6200041f81620001c5565b81146200042b57600080fd5b50565b6000815190506200043f8162000414565b92915050565b600080fd5b600080fd5b6000601f19601f8301169050919050565b6200046b826200044f565b810181811067ffffffffffffffff821117156200048d576200048c620000aa565b5b80604052505050565b6000620004a262000400565b9050620004b0828262000460565b919050565b600067ffffffffffffffff821115620004d357620004d2620000aa565b5b620004de826200044f565b9050602081019050919050565b60005b838110156200050b578082015181840152602081019050620004ee565b60008484015250505050565b60006200052e6200052884620004b5565b62000496565b9050828152602081018484840111156200054d576200054c6200044a565b5b6200055a848285620004eb565b509392505050565b600082601f8301126200057a576200057962000445565b5b81516200058c84826020860162000517565b91505092915050565b60008060408385031215620005af57620005ae6200040a565b5b6000620005bf858286016200042e565b925050602083015167ffffffffffffffff811115620005e357620005e26200040f565b5b620005f18582860162000562565b9150509250929050565b61034b806200060b6000396000f3fe608060405234801561001057600080fd5b506004361061004c5760003560e01c806306fdde0314610051578063967e6e651461006f578063c27fc3051461008d578063d5dcf127146100ab575b600080fd5b6100596100c7565b6040516100669190610201565b60405180910390f35b610077610155565b604051610084919061023c565b60405180910390f35b61009561015e565b6040516100a2919061023c565b60405180910390f35b6100c560048036038101906100c09190610288565b610167565b005b600180546100d4906102e4565b80601f0160208091040260200160405190810160405280929190818152602001828054610100906102e4565b801561014d5780601f106101225761010080835404028352916020019161014d565b820191906000526020600020905b81548152906001019060200180831161013057829003601f168201915b505050505081565b60008054905090565b60006001905090565b8060008190555050565b600081519050919050565b600082825260208201905092915050565b60005b838110156101ab578082015181840152602081019050610190565b60008484015250505050565b6000601f19601f8301169050919050565b60006101d382610171565b6101dd818561017c565b93506101ed81856020860161018d565b6101f6816101b7565b840191505092915050565b6000602082019050818103600083015261021b81846101c8565b905092915050565b6000819050919050565b61023681610223565b82525050565b6000602082019050610251600083018461022d565b92915050565b600080fd5b61026581610223565b811461027057600080fd5b50565b6000813590506102828161025c565b92915050565b60006020828403121561029e5761029d610257565b5b60006102ac84828501610273565b91505092915050565b7f4e487b7100000000000000000000000000000000000000000000000000000000600052602260045260246000fd5b600060028204905060018216806102fc57607f821691505b60208210810361030f5761030e6102b5565b5b5091905056fea2646970667358221220ca97c46ce1b0007b9e38f7f8c47af31495a41e7f5553008cd38900c5a4f3241c64736f6c63430008120033",
					"opcodes": "PUSH1 0x80 PUSH1 0x40 MSTORE PUSH1 0x1 PUSH1 0x40 MLOAD PUSH2 0x12 SWAP1 PUSH2 0x11C JUMP JUMPDEST PUSH2 0x1C SWAP2 SWAP1 PUSH2 0x1D5 JUMP JUMPDEST PUSH1 0x40 MLOAD DUP1 SWAP2 SUB SWAP1 PUSH1 0x0 CREATE DUP1 ISZERO DUP1 ISZERO PUSH2 0x38 JUMPI RETURNDATASIZE PUSH1 0x0 DUP1 RETURNDATACOPY RETURNDATASIZE PUSH1 0x0 REVERT JUMPDEST POP PUSH1 0x0 DUP1 PUSH2 0x100 EXP DUP2 SLOAD DUP2 PUSH20 0xFFFFFFFFFFFFFFFFFFFFFFFFFFFFFFFFFFFFFFFF MUL NOT AND SWAP1 DUP4 PUSH20 0xFFFFFFFFFFFFFFFFFFFFFFFFFFFFFFFFFFFFFFFF AND MUL OR SWAP1 SSTORE POP PUSH1 0x0 DUP1 SLOAD SWAP1 PUSH2 0x100 EXP SWAP1 DIV PUSH20 0xFFFFFFFFFFFFFFFFFFFFFFFFFFFFFFFFFFFFFFFF AND PUSH20 0xFFFFFFFFFFFFFFFFFFFFFFFFFFFFFFFFFFFFFFFF AND PUSH4 0x967E6E65 PUSH1 0x40 MLOAD DUP2 PUSH4 0xFFFFFFFF AND PUSH1 0xE0 SHL DUP2 MSTORE PUSH1 0x4 ADD PUSH1 0x20 PUSH1 0x40 MLOAD DUP1 DUP4 SUB DUP2 DUP7 GAS STATICCALL ISZERO DUP1 ISZERO PUSH2 0xE3 JUMPI RETURNDATASIZE PUSH1 0x0 DUP1 RETURNDATACOPY RETURNDATASIZE PUSH1 0x0 REVERT JUMPDEST POP POP POP POP PUSH1 0x40 MLOAD RETURNDATASIZE PUSH1 0x1F NOT PUSH1 0x1F DUP3 ADD AND DUP3 ADD DUP1 PUSH1 0x40 MSTORE POP DUP2 ADD SWAP1 PUSH2 0x107 SWAP2 SWAP1 PUSH2 0x234 JUMP JUMPDEST PUSH1 0x1 SSTORE CALLVALUE DUP1 ISZERO PUSH2 0x116 JUMPI PUSH1 0x0 DUP1 REVERT JUMPDEST POP PUSH2 0x261 JUMP JUMPDEST PUSH2 0x956 DUP1 PUSH2 0x415 DUP4 CODECOPY ADD SWAP1 JUMP JUMPDEST PUSH1 0x0 DUP2 SWAP1 POP SWAP2 SWAP1 POP JUMP JUMPDEST PUSH1 0x0 DUP2 SWAP1 POP SWAP2 SWAP1 POP JUMP JUMPDEST PUSH1 0x0 DUP2 SWAP1 POP SWAP2 SWAP1 POP JUMP JUMPDEST PUSH1 0x0 PUSH2 0x162 PUSH2 0x15D PUSH2 0x158 DUP5 PUSH2 0x129 JUMP JUMPDEST PUSH2 0x13D JUMP JUMPDEST PUSH2 0x133 JUMP JUMPDEST SWAP1 POP SWAP2 SWAP1 POP JUMP JUMPDEST PUSH2 0x172 DUP2 PUSH2 0x147 JUMP JUMPDEST DUP3 MSTORE POP POP JUMP JUMPDEST PUSH1 0x0 DUP3 DUP3 MSTORE PUSH1 0x20 DUP3 ADD SWAP1 POP SWAP3 SWAP2 POP POP JUMP JUMPDEST PUSH32 0x416C690000000000000000000000000000000000000000000000000000000000 PUSH1 0x0 DUP3 ADD MSTORE POP JUMP JUMPDEST PUSH1 0x0 PUSH2 0x1BF PUSH1 0x3 DUP4 PUSH2 0x178 JUMP JUMPDEST SWAP2 POP PUSH2 0x1CA DUP3 PUSH2 0x189 JUMP JUMPDEST PUSH1 0x20 DUP3 ADD SWAP1 POP SWAP2 SWAP1 POP JUMP JUMPDEST PUSH1 0x0 PUSH1 0x40 DUP3 ADD SWAP1 POP PUSH2 0x1EA PUSH1 0x0 DUP4 ADD DUP5 PUSH2 0x169 JUMP JUMPDEST DUP2 DUP2 SUB PUSH1 0x20 DUP4 ADD MSTORE PUSH2 0x1FB DUP2 PUSH2 0x1B2 JUMP JUMPDEST SWAP1 POP SWAP3 SWAP2 POP POP JUMP JUMPDEST PUSH1 0x0 DUP1 REVERT JUMPDEST PUSH2 0x211 DUP2 PUSH2 0x133 JUMP JUMPDEST DUP2 EQ PUSH2 0x21C JUMPI PUSH1 0x0 DUP1 REVERT JUMPDEST POP JUMP JUMPDEST PUSH1 0x0 DUP2 MLOAD SWAP1 POP PUSH2 0x22E DUP2 PUSH2 0x208 JUMP JUMPDEST SWAP3 SWAP2 POP POP JUMP JUMPDEST PUSH1 0x0 PUSH1 0x20 DUP3 DUP5 SUB SLT ISZERO PUSH2 0x24A JUMPI PUSH2 0x249 PUSH2 0x203 JUMP JUMPDEST JUMPDEST PUSH1 0x0 PUSH2 0x258 DUP5 DUP3 DUP6 ADD PUSH2 0x21F JUMP JUMPDEST SWAP2 POP POP SWAP3 SWAP2 POP POP JUMP JUMPDEST PUSH2 0x1A5 DUP1 PUSH2 0x270 PUSH1 0x0 CODECOPY PUSH1 0x0 RETURN INVALID PUSH1 0x80 PUSH1 0x40 MSTORE CALLVALUE DUP1 ISZERO PUSH2 0x10 JUMPI PUSH1 0x0 DUP1 REVERT JUMPDEST POP PUSH1 0x4 CALLDATASIZE LT PUSH2 0x36 JUMPI PUSH1 0x0 CALLDATALOAD PUSH1 0xE0 SHR DUP1 PUSH4 0xDBE671F EQ PUSH2 0x3B JUMPI DUP1 PUSH4 0x4DF7E3D0 EQ PUSH2 0x59 JUMPI JUMPDEST PUSH1 0x0 DUP1 REVERT JUMPDEST PUSH2 0x43 PUSH2 0x77 JUMP JUMPDEST PUSH1 0x40 MLOAD PUSH2 0x50 SWAP2 SWAP1 PUSH2 0x120 JUMP JUMPDEST PUSH1 0x40 MLOAD DUP1 SWAP2 SUB SWAP1 RETURN JUMPDEST PUSH2 0x61 PUSH2 0x9B JUMP JUMPDEST PUSH1 0x40 MLOAD PUSH2 0x6E SWAP2 SWAP1 PUSH2 0x154 JUMP JUMPDEST PUSH1 0x40 MLOAD DUP1 SWAP2 SUB SWAP1 RETURN JUMPDEST PUSH1 0x0 DUP1 SLOAD SWAP1 PUSH2 0x100 EXP SWAP1 DIV PUSH20 0xFFFFFFFFFFFFFFFFFFFFFFFFFFFFFFFFFFFFFFFF AND DUP2 JUMP JUMPDEST PUSH1 0x1 SLOAD DUP2 JUMP JUMPDEST PUSH1 0x0 PUSH20 0xFFFFFFFFFFFFFFFFFFFFFFFFFFFFFFFFFFFFFFFF DUP3 AND SWAP1 POP SWAP2 SWAP1 POP JUMP JUMPDEST PUSH1 0x0 DUP2 SWAP1 POP SWAP2 SWAP1 POP JUMP JUMPDEST PUSH1 0x0 PUSH2 0xE6 PUSH2 0xE1 PUSH2 0xDC DUP5 PUSH2 0xA1 JUMP JUMPDEST PUSH2 0xC1 JUMP JUMPDEST PUSH2 0xA1 JUMP JUMPDEST SWAP1 POP SWAP2 SWAP1 POP JUMP JUMPDEST PUSH1 0x0 PUSH2 0xF8 DUP3 PUSH2 0xCB JUMP JUMPDEST SWAP1 POP SWAP2 SWAP1 POP JUMP JUMPDEST PUSH1 0x0 PUSH2 0x10A DUP3 PUSH2 0xED JUMP JUMPDEST SWAP1 POP SWAP2 SWAP1 POP JUMP JUMPDEST PUSH2 0x11A DUP2 PUSH2 0xFF JUMP JUMPDEST DUP3 MSTORE POP POP JUMP JUMPDEST PUSH1 0x0 PUSH1 0x20 DUP3 ADD SWAP1 POP PUSH2 0x135 PUSH1 0x0 DUP4 ADD DUP5 PUSH2 0x111 JUMP JUMPDEST SWAP3 SWAP2 POP POP JUMP JUMPDEST PUSH1 0x0 DUP2 SWAP1 POP SWAP2 SWAP1 POP JUMP JUMPDEST PUSH2 0x14E DUP2 PUSH2 0x13B JUMP JUMPDEST DUP3 MSTORE POP POP JUMP JUMPDEST PUSH1 0x0 PUSH1 0x20 DUP3 ADD SWAP1 POP PUSH2 0x169 PUSH1 0x0 DUP4 ADD DUP5 PUSH2 0x145 JUMP JUMPDEST SWAP3 SWAP2 POP POP JUMP INVALID LOG2 PUSH5 0x6970667358 0x22 SLT KECCAK256 NUMBER CALLDATACOPY 0xEC 0xAC 0xAD 0x25 0xD9 0x2E 0xEC TIMESTAMP 0xE9 0xB6 PUSH17 0xDCFF29140409191B02FCA70DCA1613F25 DUP10 0xEF PUSH5 0x736F6C6343 STOP ADDMOD SLT STOP CALLER PUSH1 0x80 PUSH1 0x40 MSTORE PUSH1 0x40 MLOAD DUP1 PUSH1 0x40 ADD PUSH1 0x40 MSTORE DUP1 PUSH1 0x3 DUP2 MSTORE PUSH1 0x20 ADD PUSH32 0x416C690000000000000000000000000000000000000000000000000000000000 DUP2 MSTORE POP PUSH1 0x1 SWAP1 DUP2 PUSH3 0x4A SWAP2 SWAP1 PUSH3 0x319 JUMP JUMPDEST POP CALLVALUE DUP1 ISZERO PUSH3 0x58 JUMPI PUSH1 0x0 DUP1 REVERT JUMPDEST POP PUSH1 0x40 MLOAD PUSH3 0x956 CODESIZE SUB DUP1 PUSH3 0x956 DUP4 CODECOPY DUP2 DUP2 ADD PUSH1 0x40 MSTORE DUP2 ADD SWAP1 PUSH3 0x7E SWAP2 SWAP1 PUSH3 0x595 JUMP JUMPDEST DUP2 PUSH1 0x0 DUP2 SWAP1 SSTORE POP DUP1 PUSH1 0x1 SWAP1 DUP2 PUSH3 0x96 SWAP2 SWAP1 PUSH3 0x319 JUMP JUMPDEST POP POP POP PUSH3 0x5FB JUMP JUMPDEST PUSH1 0x0 DUP2 MLOAD SWAP1 POP SWAP2 SWAP1 POP JUMP JUMPDEST PUSH32 0x4E487B7100000000000000000000000000000000000000000000000000000000 PUSH1 0x0 MSTORE PUSH1 0x41 PUSH1 0x4 MSTORE PUSH1 0x24 PUSH1 0x0 REVERT JUMPDEST PUSH32 0x4E487B7100000000000000000000000000000000000000000000000000000000 PUSH1 0x0 MSTORE PUSH1 0x22 PUSH1 0x4 MSTORE PUSH1 0x24 PUSH1 0x0 REVERT JUMPDEST PUSH1 0x0 PUSH1 0x2 DUP3 DIV SWAP1 POP PUSH1 0x1 DUP3 AND DUP1 PUSH3 0x121 JUMPI PUSH1 0x7F DUP3 AND SWAP2 POP JUMPDEST PUSH1 0x20 DUP3 LT DUP2 SUB PUSH3 0x137 JUMPI PUSH3 0x136 PUSH3 0xD9 JUMP JUMPDEST JUMPDEST POP SWAP2 SWAP1 POP JUMP JUMPDEST PUSH1 0x0 DUP2 SWAP1 POP DUP2 PUSH1 0x0 MSTORE PUSH1 0x20 PUSH1 0x0 KECCAK256 SWAP1 POP SWAP2 SWAP1 POP JUMP JUMPDEST PUSH1 0x0 PUSH1 0x20 PUSH1 0x1F DUP4 ADD DIV SWAP1 POP SWAP2 SWAP1 POP JUMP JUMPDEST PUSH1 0x0 DUP3 DUP3 SHL SWAP1 POP SWAP3 SWAP2 POP POP JUMP JUMPDEST PUSH1 0x0 PUSH1 0x8 DUP4 MUL PUSH3 0x1A1 PUSH32 0xFFFFFFFFFFFFFFFFFFFFFFFFFFFFFFFFFFFFFFFFFFFFFFFFFFFFFFFFFFFFFFFF DUP3 PUSH3 0x162 JUMP JUMPDEST PUSH3 0x1AD DUP7 DUP4 PUSH3 0x162 JUMP JUMPDEST SWAP6 POP DUP1 NOT DUP5 AND SWAP4 POP DUP1 DUP7 AND DUP5 OR SWAP3 POP POP POP SWAP4 SWAP3 POP POP POP JUMP JUMPDEST PUSH1 0x0 DUP2 SWAP1 POP SWAP2 SWAP1 POP JUMP JUMPDEST PUSH1 0x0 DUP2 SWAP1 POP SWAP2 SWAP1 POP JUMP JUMPDEST PUSH1 0x0 PUSH3 0x1FA PUSH3 0x1F4 PUSH3 0x1EE DUP5 PUSH3 0x1C5 JUMP JUMPDEST PUSH3 0x1CF JUMP JUMPDEST PUSH3 0x1C5 JUMP JUMPDEST SWAP1 POP SWAP2 SWAP1 POP JUMP JUMPDEST PUSH1 0x0 DUP2 SWAP1 POP SWAP2 SWAP1 POP JUMP JUMPDEST PUSH3 0x216 DUP4 PUSH3 0x1D9 JUMP JUMPDEST PUSH3 0x22E PUSH3 0x225 DUP3 PUSH3 0x201 JUMP JUMPDEST DUP5 DUP5 SLOAD PUSH3 0x16F JUMP JUMPDEST DUP3 SSTORE POP POP POP POP JUMP JUMPDEST PUSH1 0x0 SWAP1 JUMP JUMPDEST PUSH3 0x245 PUSH3 0x236 JUMP JUMPDEST PUSH3 0x252 DUP2 DUP5 DUP5 PUSH3 0x20B JUMP JUMPDEST POP POP POP JUMP JUMPDEST JUMPDEST DUP2 DUP2 LT ISZERO PUSH3 0x27A JUMPI PUSH3 0x26E PUSH1 0x0 DUP3 PUSH3 0x23B JUMP JUMPDEST PUSH1 0x1 DUP2 ADD SWAP1 POP PUSH3 0x258 JUMP JUMPDEST POP POP JUMP JUMPDEST PUSH1 0x1F DUP3 GT ISZERO PUSH3 0x2C9 JUMPI PUSH3 0x293 DUP2 PUSH3 0x13D JUMP JUMPDEST PUSH3 0x29E DUP5 PUSH3 0x152 JUMP JUMPDEST DUP2 ADD PUSH1 0x20 DUP6 LT ISZERO PUSH3 0x2AE JUMPI DUP2 SWAP1 POP JUMPDEST PUSH3 0x2C6 PUSH3 0x2BD DUP6 PUSH3 0x152 JUMP JUMPDEST DUP4 ADD DUP3 PUSH3 0x257 JUMP JUMPDEST POP POP JUMPDEST POP POP POP JUMP JUMPDEST PUSH1 0x0 DUP3 DUP3 SHR SWAP1 POP SWAP3 SWAP2 POP POP JUMP JUMPDEST PUSH1 0x0 PUSH3 0x2EE PUSH1 0x0 NOT DUP5 PUSH1 0x8 MUL PUSH3 0x2CE JUMP JUMPDEST NOT DUP1 DUP4 AND SWAP2 POP POP SWAP3 SWAP2 POP POP JUMP JUMPDEST PUSH1 0x0 PUSH3 0x309 DUP4 DUP4 PUSH3 0x2DB JUMP JUMPDEST SWAP2 POP DUP3 PUSH1 0x2 MUL DUP3 OR SWAP1 POP SWAP3 SWAP2 POP POP JUMP JUMPDEST PUSH3 0x324 DUP3 PUSH3 0x9F JUMP JUMPDEST PUSH8 0xFFFFFFFFFFFFFFFF DUP2 GT ISZERO PUSH3 0x340 JUMPI PUSH3 0x33F PUSH3 0xAA JUMP JUMPDEST JUMPDEST PUSH3 0x34C DUP3 SLOAD PUSH3 0x108 JUMP JUMPDEST PUSH3 0x359 DUP3 DUP3 DUP6 PUSH3 0x27E JUMP JUMPDEST PUSH1 0x0 PUSH1 0x20 SWAP1 POP PUSH1 0x1F DUP4 GT PUSH1 0x1 DUP2 EQ PUSH3 0x391 JUMPI PUSH1 0x0 DUP5 ISZERO PUSH3 0x37C JUMPI DUP3 DUP8 ADD MLOAD SWAP1 POP JUMPDEST PUSH3 0x388 DUP6 DUP3 PUSH3 0x2FB JUMP JUMPDEST DUP7 SSTORE POP PUSH3 0x3F8 JUMP JUMPDEST PUSH1 0x1F NOT DUP5 AND PUSH3 0x3A1 DUP7 PUSH3 0x13D JUMP JUMPDEST PUSH1 0x0 JUMPDEST DUP3 DUP2 LT ISZERO PUSH3 0x3CB JUMPI DUP5 DUP10 ADD MLOAD DUP3 SSTORE PUSH1 0x1 DUP3 ADD SWAP2 POP PUSH1 0x20 DUP6 ADD SWAP5 POP PUSH1 0x20 DUP2 ADD SWAP1 POP PUSH3 0x3A4 JUMP JUMPDEST DUP7 DUP4 LT ISZERO PUSH3 0x3EB JUMPI DUP5 DUP10 ADD MLOAD PUSH3 0x3E7 PUSH1 0x1F DUP10 AND DUP3 PUSH3 0x2DB JUMP JUMPDEST DUP4 SSTORE POP JUMPDEST PUSH1 0x1 PUSH1 0x2 DUP9 MUL ADD DUP9 SSTORE POP POP POP JUMPDEST POP POP POP POP POP POP JUMP JUMPDEST PUSH1 0x0 PUSH1 0x40 MLOAD SWAP1 POP SWAP1 JUMP JUMPDEST PUSH1 0x0 DUP1 REVERT JUMPDEST PUSH1 0x0 DUP1 REVERT JUMPDEST PUSH3 0x41F DUP2 PUSH3 0x1C5 JUMP JUMPDEST DUP2 EQ PUSH3 0x42B JUMPI PUSH1 0x0 DUP1 REVERT JUMPDEST POP JUMP JUMPDEST PUSH1 0x0 DUP2 MLOAD SWAP1 POP PUSH3 0x43F DUP2 PUSH3 0x414 JUMP JUMPDEST SWAP3 SWAP2 POP POP JUMP JUMPDEST PUSH1 0x0 DUP1 REVERT JUMPDEST PUSH1 0x0 DUP1 REVERT JUMPDEST PUSH1 0x0 PUSH1 0x1F NOT PUSH1 0x1F DUP4 ADD AND SWAP1 POP SWAP2 SWAP1 POP JUMP JUMPDEST PUSH3 0x46B DUP3 PUSH3 0x44F JUMP JUMPDEST DUP2 ADD DUP2 DUP2 LT PUSH8 0xFFFFFFFFFFFFFFFF DUP3 GT OR ISZERO PUSH3 0x48D JUMPI PUSH3 0x48C PUSH3 0xAA JUMP JUMPDEST JUMPDEST DUP1 PUSH1 0x40 MSTORE POP POP POP JUMP JUMPDEST PUSH1 0x0 PUSH3 0x4A2 PUSH3 0x400 JUMP JUMPDEST SWAP1 POP PUSH3 0x4B0 DUP3 DUP3 PUSH3 0x460 JUMP JUMPDEST SWAP2 SWAP1 POP JUMP JUMPDEST PUSH1 0x0 PUSH8 0xFFFFFFFFFFFFFFFF DUP3 GT ISZERO PUSH3 0x4D3 JUMPI PUSH3 0x4D2 PUSH3 0xAA JUMP JUMPDEST JUMPDEST PUSH3 0x4DE DUP3 PUSH3 0x44F JUMP JUMPDEST SWAP1 POP PUSH1 0x20 DUP2 ADD SWAP1 POP SWAP2 SWAP1 POP JUMP JUMPDEST PUSH1 0x0 JUMPDEST DUP4 DUP2 LT ISZERO PUSH3 0x50B JUMPI DUP1 DUP3 ADD MLOAD DUP2 DUP5 ADD MSTORE PUSH1 0x20 DUP2 ADD SWAP1 POP PUSH3 0x4EE JUMP JUMPDEST PUSH1 0x0 DUP5 DUP5 ADD MSTORE POP POP POP POP JUMP JUMPDEST PUSH1 0x0 PUSH3 0x52E PUSH3 0x528 DUP5 PUSH3 0x4B5 JUMP JUMPDEST PUSH3 0x496 JUMP JUMPDEST SWAP1 POP DUP3 DUP2 MSTORE PUSH1 0x20 DUP2 ADD DUP5 DUP5 DUP5 ADD GT ISZERO PUSH3 0x54D JUMPI PUSH3 0x54C PUSH3 0x44A JUMP JUMPDEST JUMPDEST PUSH3 0x55A DUP5 DUP3 DUP6 PUSH3 0x4EB JUMP JUMPDEST POP SWAP4 SWAP3 POP POP POP JUMP JUMPDEST PUSH1 0x0 DUP3 PUSH1 0x1F DUP4 ADD SLT PUSH3 0x57A JUMPI PUSH3 0x579 PUSH3 0x445 JUMP JUMPDEST JUMPDEST DUP2 MLOAD PUSH3 0x58C DUP5 DUP3 PUSH1 0x20 DUP7 ADD PUSH3 0x517 JUMP JUMPDEST SWAP2 POP POP SWAP3 SWAP2 POP POP JUMP JUMPDEST PUSH1 0x0 DUP1 PUSH1 0x40 DUP4 DUP6 SUB SLT ISZERO PUSH3 0x5AF JUMPI PUSH3 0x5AE PUSH3 0x40A JUMP JUMPDEST JUMPDEST PUSH1 0x0 PUSH3 0x5BF DUP6 DUP3 DUP7 ADD PUSH3 0x42E JUMP JUMPDEST SWAP3 POP POP PUSH1 0x20 DUP4 ADD MLOAD PUSH8 0xFFFFFFFFFFFFFFFF DUP2 GT ISZERO PUSH3 0x5E3 JUMPI PUSH3 0x5E2 PUSH3 0x40F JUMP JUMPDEST JUMPDEST PUSH3 0x5F1 DUP6 DUP3 DUP7 ADD PUSH3 0x562 JUMP JUMPDEST SWAP2 POP POP SWAP3 POP SWAP3 SWAP1 POP JUMP JUMPDEST PUSH2 0x34B DUP1 PUSH3 0x60B PUSH1 0x0 CODECOPY PUSH1 0x0 RETURN INVALID PUSH1 0x80 PUSH1 0x40 MSTORE CALLVALUE DUP1 ISZERO PUSH2 0x10 JUMPI PUSH1 0x0 DUP1 REVERT JUMPDEST POP PUSH1 0x4 CALLDATASIZE LT PUSH2 0x4C JUMPI PUSH1 0x0 CALLDATALOAD PUSH1 0xE0 SHR DUP1 PUSH4 0x6FDDE03 EQ PUSH2 0x51 JUMPI DUP1 PUSH4 0x967E6E65 EQ PUSH2 0x6F JUMPI DUP1 PUSH4 0xC27FC305 EQ PUSH2 0x8D JUMPI DUP1 PUSH4 0xD5DCF127 EQ PUSH2 0xAB JUMPI JUMPDEST PUSH1 0x0 DUP1 REVERT JUMPDEST PUSH2 0x59 PUSH2 0xC7 JUMP JUMPDEST PUSH1 0x40 MLOAD PUSH2 0x66 SWAP2 SWAP1 PUSH2 0x201 JUMP JUMPDEST PUSH1 0x40 MLOAD DUP1 SWAP2 SUB SWAP1 RETURN JUMPDEST PUSH2 0x77 PUSH2 0x155 JUMP JUMPDEST PUSH1 0x40 MLOAD PUSH2 0x84 SWAP2 SWAP1 PUSH2 0x23C JUMP JUMPDEST PUSH1 0x40 MLOAD DUP1 SWAP2 SUB SWAP1 RETURN JUMPDEST PUSH2 0x95 PUSH2 0x15E JUMP JUMPDEST PUSH1 0x40 MLOAD PUSH2 0xA2 SWAP2 SWAP1 PUSH2 0x23C JUMP JUMPDEST PUSH1 0x40 MLOAD DUP1 SWAP2 SUB SWAP1 RETURN JUMPDEST PUSH2 0xC5 PUSH1 0x4 DUP1 CALLDATASIZE SUB DUP2 ADD SWAP1 PUSH2 0xC0 SWAP2 SWAP1 PUSH2 0x288 JUMP JUMPDEST PUSH2 0x167 JUMP JUMPDEST STOP JUMPDEST PUSH1 0x1 DUP1 SLOAD PUSH2 0xD4 SWAP1 PUSH2 0x2E4 JUMP JUMPDEST DUP1 PUSH1 0x1F ADD PUSH1 0x20 DUP1 SWAP2 DIV MUL PUSH1 0x20 ADD PUSH1 0x40 MLOAD SWAP1 DUP2 ADD PUSH1 0x40 MSTORE DUP1 SWAP3 SWAP2 SWAP1 DUP2 DUP2 MSTORE PUSH1 0x20 ADD DUP3 DUP1 SLOAD PUSH2 0x100 SWAP1 PUSH2 0x2E4 JUMP JUMPDEST DUP1 ISZERO PUSH2 0x14D JUMPI DUP1 PUSH1 0x1F LT PUSH2 0x122 JUMPI PUSH2 0x100 DUP1 DUP4 SLOAD DIV MUL DUP4 MSTORE SWAP2 PUSH1 0x20 ADD SWAP2 PUSH2 0x14D JUMP JUMPDEST DUP3 ADD SWAP2 SWAP1 PUSH1 0x0 MSTORE PUSH1 0x20 PUSH1 0x0 KECCAK256 SWAP1 JUMPDEST DUP2 SLOAD DUP2 MSTORE SWAP1 PUSH1 0x1 ADD SWAP1 PUSH1 0x20 ADD DUP1 DUP4 GT PUSH2 0x130 JUMPI DUP3 SWAP1 SUB PUSH1 0x1F AND DUP3 ADD SWAP2 JUMPDEST POP POP POP POP POP DUP2 JUMP JUMPDEST PUSH1 0x0 DUP1 SLOAD SWAP1 POP SWAP1 JUMP JUMPDEST PUSH1 0x0 PUSH1 0x1 SWAP1 POP SWAP1 JUMP JUMPDEST DUP1 PUSH1 0x0 DUP2 SWAP1 SSTORE POP POP JUMP JUMPDEST PUSH1 0x0 DUP2 MLOAD SWAP1 POP SWAP2 SWAP1 POP JUMP JUMPDEST PUSH1 0x0 DUP3 DUP3 MSTORE PUSH1 0x20 DUP3 ADD SWAP1 POP SWAP3 SWAP2 POP POP JUMP JUMPDEST PUSH1 0x0 JUMPDEST DUP4 DUP2 LT ISZERO PUSH2 0x1AB JUMPI DUP1 DUP3 ADD MLOAD DUP2 DUP5 ADD MSTORE PUSH1 0x20 DUP2 ADD SWAP1 POP PUSH2 0x190 JUMP JUMPDEST PUSH1 0x0 DUP5 DUP5 ADD MSTORE POP POP POP POP JUMP JUMPDEST PUSH1 0x0 PUSH1 0x1F NOT PUSH1 0x1F DUP4 ADD AND SWAP1 POP SWAP2 SWAP1 POP JUMP JUMPDEST PUSH1 0x0 PUSH2 0x1D3 DUP3 PUSH2 0x171 JUMP JUMPDEST PUSH2 0x1DD DUP2 DUP6 PUSH2 0x17C JUMP JUMPDEST SWAP4 POP PUSH2 0x1ED DUP2 DUP6 PUSH1 0x20 DUP7 ADD PUSH2 0x18D JUMP JUMPDEST PUSH2 0x1F6 DUP2 PUSH2 0x1B7 JUMP JUMPDEST DUP5 ADD SWAP2 POP POP SWAP3 SWAP2 POP POP JUMP JUMPDEST PUSH1 0x0 PUSH1 0x20 DUP3 ADD SWAP1 POP DUP2 DUP2 SUB PUSH1 0x0 DUP4 ADD MSTORE PUSH2 0x21B DUP2 DUP5 PUSH2 0x1C8 JUMP JUMPDEST SWAP1 POP SWAP3 SWAP2 POP POP JUMP JUMPDEST PUSH1 0x0 DUP2 SWAP1 POP SWAP2 SWAP1 POP JUMP JUMPDEST PUSH2 0x236 DUP2 PUSH2 0x223 JUMP JUMPDEST DUP3 MSTORE POP POP JUMP JUMPDEST PUSH1 0x0 PUSH1 0x20 DUP3 ADD SWAP1 POP PUSH2 0x251 PUSH1 0x0 DUP4 ADD DUP5 PUSH2 0x22D JUMP JUMPDEST SWAP3 SWAP2 POP POP JUMP JUMPDEST PUSH1 0x0 DUP1 REVERT JUMPDEST PUSH2 0x265 DUP2 PUSH2 0x223 JUMP JUMPDEST DUP2 EQ PUSH2 0x270 JUMPI PUSH1 0x0 DUP1 REVERT JUMPDEST POP JUMP JUMPDEST PUSH1 0x0 DUP2 CALLDATALOAD SWAP1 POP PUSH2 0x282 DUP2 PUSH2 0x25C JUMP JUMPDEST SWAP3 SWAP2 POP POP JUMP JUMPDEST PUSH1 0x0 PUSH1 0x20 DUP3 DUP5 SUB SLT ISZERO PUSH2 0x29E JUMPI PUSH2 0x29D PUSH2 0x257 JUMP JUMPDEST JUMPDEST PUSH1 0x0 PUSH2 0x2AC DUP5 DUP3 DUP6 ADD PUSH2 0x273 JUMP JUMPDEST SWAP2 POP POP SWAP3 SWAP2 POP POP JUMP JUMPDEST PUSH32 0x4E487B7100000000000000000000000000000000000000000000000000000000 PUSH1 0x0 MSTORE PUSH1 0x22 PUSH1 0x4 MSTORE PUSH1 0x24 PUSH1 0x0 REVERT JUMPDEST PUSH1 0x0 PUSH1 0x2 DUP3 DIV SWAP1 POP PUSH1 0x1 DUP3 AND DUP1 PUSH2 0x2FC JUMPI PUSH1 0x7F DUP3 AND SWAP2 POP JUMPDEST PUSH1 0x20 DUP3 LT DUP2 SUB PUSH2 0x30F JUMPI PUSH2 0x30E PUSH2 0x2B5 JUMP JUMPDEST JUMPDEST POP SWAP2 SWAP1 POP JUMP INVALID LOG2 PUSH5 0x6970667358 0x22 SLT KECCAK256 0xCA SWAP8 0xC4 PUSH13 0xE1B0007B9E38F7F8C47AF31495 LOG4 0x1E PUSH32 0x5553008CD38900C5A4F3241C64736F6C63430008120033000000000000000000 "
				},
				"gasEstimates": {
					"creation": {
						"codeDepositCost": "84200",
						"executionCost": "infinite",
						"totalCost": "infinite"
					},
					"external": {
						"a()": "infinite",
						"b()": "2429"
					}
				},
				"methodIdentifiers": {
					"a()": "0dbe671f",
					"b()": "4df7e3d0"
				}
			},
			"storageLayout": {
				"storage": [
					{
						"astId": 58,
						"contract": "Fall-2023/Copy_25_InheritanceComposition.sol:B",
						"label": "a",
						"offset": 0,
						"slot": "0",
						"type": "t_contract(A)49"
					},
					{
						"astId": 63,
						"contract": "Fall-2023/Copy_25_InheritanceComposition.sol:B",
						"label": "b",
						"offset": 0,
						"slot": "1",
						"type": "t_uint256"
					}
				],
				"types": {
					"t_contract(A)49": {
						"encoding": "inplace",
						"label": "contract A",
						"numberOfBytes": "20"
					},
					"t_uint256": {
						"encoding": "inplace",
						"label": "uint256",
						"numberOfBytes": "32"
					}
				}
			},
			"userdoc": {
				"kind": "user",
				"methods": {},
				"version": 1
			}
		}
	}
}