{
	"Fall-2023/Copy_40_TransferSendCall.sol": {
		"TransferSendCall": {
			"abi": [
				{
					"inputs": [],
					"name": "dataVal",
					"outputs": [
						{
							"internalType": "bytes",
							"name": "",
							"type": "bytes"
						}
					],
					"stateMutability": "view",
					"type": "function"
				},
				{
					"inputs": [
						{
							"internalType": "address payable",
							"name": "_to",
							"type": "address"
						}
					],
					"name": "depositUsingCall",
					"outputs": [],
					"stateMutability": "payable",
					"type": "function"
				},
				{
					"inputs": [
						{
							"internalType": "address payable",
							"name": "_to",
							"type": "address"
						}
					],
					"name": "depositUsingSend",
					"outputs": [],
					"stateMutability": "payable",
					"type": "function"
				},
				{
					"inputs": [
						{
							"internalType": "address payable",
							"name": "_to",
							"type": "address"
						}
					],
					"name": "depositUsingTransfer",
					"outputs": [],
					"stateMutability": "payable",
					"type": "function"
				}
			],
			"devdoc": {
				"kind": "dev",
				"methods": {},
				"version": 1
			},
			"evm": {
				"assembly": "    /* \"Fall-2023/Copy_40_TransferSendCall.sol\":101:1249  contract TransferSendCall... */\n  mstore(0x40, 0x80)\n  callvalue\n  dup1\n  iszero\n  tag_1\n  jumpi\n  0x00\n  dup1\n  revert\ntag_1:\n  pop\n  dataSize(sub_0)\n  dup1\n  dataOffset(sub_0)\n  0x00\n  codecopy\n  0x00\n  return\nstop\n\nsub_0: assembly {\n        /* \"Fall-2023/Copy_40_TransferSendCall.sol\":101:1249  contract TransferSendCall... */\n      mstore(0x40, 0x80)\n      jumpi(tag_1, lt(calldatasize, 0x04))\n      shr(0xe0, calldataload(0x00))\n      dup1\n      0x5a19818d\n      eq\n      tag_2\n      jumpi\n      dup1\n      0x9869faa7\n      eq\n      tag_3\n      jumpi\n      dup1\n      0xce172b1c\n      eq\n      tag_4\n      jumpi\n      dup1\n      0xd8be34e9\n      eq\n      tag_5\n      jumpi\n    tag_1:\n      0x00\n      dup1\n      revert\n        /* \"Fall-2023/Copy_40_TransferSendCall.sol\":164:337  function depositUsingTransfer(address payable _to) public payable... */\n    tag_2:\n      tag_6\n      0x04\n      dup1\n      calldatasize\n      sub\n      dup2\n      add\n      swap1\n      tag_7\n      swap2\n      swap1\n      tag_8\n      jump\t// in\n    tag_7:\n      tag_9\n      jump\t// in\n    tag_6:\n      stop\n        /* \"Fall-2023/Copy_40_TransferSendCall.sol\":345:677  function depositUsingSend(address payable _to) public payable... */\n    tag_3:\n      tag_10\n      0x04\n      dup1\n      calldatasize\n      sub\n      dup2\n      add\n      swap1\n      tag_11\n      swap2\n      swap1\n      tag_8\n      jump\t// in\n    tag_11:\n      tag_12\n      jump\t// in\n    tag_10:\n      stop\n        /* \"Fall-2023/Copy_40_TransferSendCall.sol\":685:1246  function depositUsingCall(address payable _to) public payable... */\n    tag_4:\n      tag_13\n      0x04\n      dup1\n      calldatasize\n      sub\n      dup2\n      add\n      swap1\n      tag_14\n      swap2\n      swap1\n      tag_8\n      jump\t// in\n    tag_14:\n      tag_15\n      jump\t// in\n    tag_13:\n      stop\n        /* \"Fall-2023/Copy_40_TransferSendCall.sol\":135:155  bytes public dataVal */\n    tag_5:\n      callvalue\n      dup1\n      iszero\n      tag_16\n      jumpi\n      0x00\n      dup1\n      revert\n    tag_16:\n      pop\n      tag_17\n      tag_18\n      jump\t// in\n    tag_17:\n      mload(0x40)\n      tag_19\n      swap2\n      swap1\n      tag_20\n      jump\t// in\n    tag_19:\n      mload(0x40)\n      dup1\n      swap2\n      sub\n      swap1\n      return\n        /* \"Fall-2023/Copy_40_TransferSendCall.sol\":164:337  function depositUsingTransfer(address payable _to) public payable... */\n    tag_9:\n        /* \"Fall-2023/Copy_40_TransferSendCall.sol\":246:249  _to */\n      dup1\n        /* \"Fall-2023/Copy_40_TransferSendCall.sol\":246:258  _to.transfer */\n      0xffffffffffffffffffffffffffffffffffffffff\n      and\n        /* \"Fall-2023/Copy_40_TransferSendCall.sol\":246:269  _to.transfer(msg.value) */\n      0x08fc\n        /* \"Fall-2023/Copy_40_TransferSendCall.sol\":259:268  msg.value */\n      callvalue\n        /* \"Fall-2023/Copy_40_TransferSendCall.sol\":246:269  _to.transfer(msg.value) */\n      swap1\n      dup2\n      iszero\n      mul\n      swap1\n      mload(0x40)\n      0x00\n      mload(0x40)\n      dup1\n      dup4\n      sub\n      dup2\n      dup6\n      dup9\n      dup9\n      call\n      swap4\n      pop\n      pop\n      pop\n      pop\n      iszero\n      dup1\n      iszero\n      tag_23\n      jumpi\n      returndatasize\n      0x00\n      dup1\n      returndatacopy\n      revert(0x00, returndatasize)\n    tag_23:\n      pop\n        /* \"Fall-2023/Copy_40_TransferSendCall.sol\":164:337  function depositUsingTransfer(address payable _to) public payable... */\n      pop\n      jump\t// out\n        /* \"Fall-2023/Copy_40_TransferSendCall.sol\":345:677  function depositUsingSend(address payable _to) public payable... */\n    tag_12:\n        /* \"Fall-2023/Copy_40_TransferSendCall.sol\":423:432  bool send */\n      0x00\n        /* \"Fall-2023/Copy_40_TransferSendCall.sol\":435:438  _to */\n      dup2\n        /* \"Fall-2023/Copy_40_TransferSendCall.sol\":435:443  _to.send */\n      0xffffffffffffffffffffffffffffffffffffffff\n      and\n        /* \"Fall-2023/Copy_40_TransferSendCall.sol\":435:454  _to.send(msg.value) */\n      0x08fc\n        /* \"Fall-2023/Copy_40_TransferSendCall.sol\":444:453  msg.value */\n      callvalue\n        /* \"Fall-2023/Copy_40_TransferSendCall.sol\":435:454  _to.send(msg.value) */\n      swap1\n      dup2\n      iszero\n      mul\n      swap1\n      mload(0x40)\n      0x00\n      mload(0x40)\n      dup1\n      dup4\n      sub\n      dup2\n      dup6\n      dup9\n      dup9\n      call\n      swap4\n      pop\n      pop\n      pop\n      pop\n        /* \"Fall-2023/Copy_40_TransferSendCall.sol\":423:454  bool send = _to.send(msg.value) */\n      swap1\n      pop\n        /* \"Fall-2023/Copy_40_TransferSendCall.sol\":637:641  send */\n      dup1\n        /* \"Fall-2023/Copy_40_TransferSendCall.sol\":629:669  require(send, \"Failure! Ether not sent\") */\n      tag_26\n      jumpi\n      mload(0x40)\n      0x08c379a000000000000000000000000000000000000000000000000000000000\n      dup2\n      mstore\n      0x04\n      add\n      tag_27\n      swap1\n      tag_28\n      jump\t// in\n    tag_27:\n      mload(0x40)\n      dup1\n      swap2\n      sub\n      swap1\n      revert\n    tag_26:\n        /* \"Fall-2023/Copy_40_TransferSendCall.sol\":412:677  {... */\n      pop\n        /* \"Fall-2023/Copy_40_TransferSendCall.sol\":345:677  function depositUsingSend(address payable _to) public payable... */\n      pop\n      jump\t// out\n        /* \"Fall-2023/Copy_40_TransferSendCall.sol\":685:1246  function depositUsingCall(address payable _to) public payable... */\n    tag_15:\n        /* \"Fall-2023/Copy_40_TransferSendCall.sol\":1047:1056  bool send */\n      0x00\n        /* \"Fall-2023/Copy_40_TransferSendCall.sol\":1058:1075  bytes memory data */\n      dup1\n        /* \"Fall-2023/Copy_40_TransferSendCall.sol\":1079:1082  _to */\n      dup3\n        /* \"Fall-2023/Copy_40_TransferSendCall.sol\":1079:1087  _to.call */\n      0xffffffffffffffffffffffffffffffffffffffff\n      and\n        /* \"Fall-2023/Copy_40_TransferSendCall.sol\":1093:1098  10000 */\n      0x2710\n        /* \"Fall-2023/Copy_40_TransferSendCall.sol\":1107:1116  msg.value */\n      callvalue\n        /* \"Fall-2023/Copy_40_TransferSendCall.sol\":1079:1149  _to.call{gas :10000, value: msg.value}(\"func_signature(uint256 args)\") */\n      mload(0x40)\n      tag_30\n      swap1\n      tag_31\n      jump\t// in\n    tag_30:\n      0x00\n      mload(0x40)\n      dup1\n      dup4\n      sub\n      dup2\n      dup6\n      dup9\n      dup9\n      call\n      swap4\n      pop\n      pop\n      pop\n      pop\n      returndatasize\n      dup1\n      0x00\n      dup2\n      eq\n      tag_34\n      jumpi\n      mload(0x40)\n      swap2\n      pop\n      and(add(returndatasize, 0x3f), not(0x1f))\n      dup3\n      add\n      0x40\n      mstore\n      returndatasize\n      dup3\n      mstore\n      returndatasize\n      0x00\n      0x20\n      dup5\n      add\n      returndatacopy\n      jump(tag_33)\n    tag_34:\n      0x60\n      swap2\n      pop\n    tag_33:\n      pop\n        /* \"Fall-2023/Copy_40_TransferSendCall.sol\":1046:1149  (bool send, bytes memory data) = _to.call{gas :10000, value: msg.value}(\"func_signature(uint256 args)\") */\n      swap2\n      pop\n      swap2\n      pop\n        /* \"Fall-2023/Copy_40_TransferSendCall.sol\":1181:1185  send */\n      dup2\n        /* \"Fall-2023/Copy_40_TransferSendCall.sol\":1173:1213  require(send, \"Failure! Ether not sent\") */\n      tag_35\n      jumpi\n      mload(0x40)\n      0x08c379a000000000000000000000000000000000000000000000000000000000\n      dup2\n      mstore\n      0x04\n      add\n      tag_36\n      swap1\n      tag_28\n      jump\t// in\n    tag_36:\n      mload(0x40)\n      dup1\n      swap2\n      sub\n      swap1\n      revert\n    tag_35:\n        /* \"Fall-2023/Copy_40_TransferSendCall.sol\":1234:1238  data */\n      dup1\n        /* \"Fall-2023/Copy_40_TransferSendCall.sol\":1224:1231  dataVal */\n      0x00\n        /* \"Fall-2023/Copy_40_TransferSendCall.sol\":1224:1238  dataVal = data */\n      swap1\n      dup2\n      tag_37\n      swap2\n      swap1\n      tag_38\n      jump\t// in\n    tag_37:\n      pop\n        /* \"Fall-2023/Copy_40_TransferSendCall.sol\":752:1246  {... */\n      pop\n      pop\n        /* \"Fall-2023/Copy_40_TransferSendCall.sol\":685:1246  function depositUsingCall(address payable _to) public payable... */\n      pop\n      jump\t// out\n        /* \"Fall-2023/Copy_40_TransferSendCall.sol\":135:155  bytes public dataVal */\n    tag_18:\n      0x00\n      dup1\n      sload\n      tag_39\n      swap1\n      tag_40\n      jump\t// in\n    tag_39:\n      dup1\n      0x1f\n      add\n      0x20\n      dup1\n      swap2\n      div\n      mul\n      0x20\n      add\n      mload(0x40)\n      swap1\n      dup2\n      add\n      0x40\n      mstore\n      dup1\n      swap3\n      swap2\n      swap1\n      dup2\n      dup2\n      mstore\n      0x20\n      add\n      dup3\n      dup1\n      sload\n      tag_41\n      swap1\n      tag_40\n      jump\t// in\n    tag_41:\n      dup1\n      iszero\n      tag_42\n      jumpi\n      dup1\n      0x1f\n      lt\n      tag_43\n      jumpi\n      0x0100\n      dup1\n      dup4\n      sload\n      div\n      mul\n      dup4\n      mstore\n      swap2\n      0x20\n      add\n      swap2\n      jump(tag_42)\n    tag_43:\n      dup3\n      add\n      swap2\n      swap1\n      0x00\n      mstore\n      keccak256(0x00, 0x20)\n      swap1\n    tag_44:\n      dup2\n      sload\n      dup2\n      mstore\n      swap1\n      0x01\n      add\n      swap1\n      0x20\n      add\n      dup1\n      dup4\n      gt\n      tag_44\n      jumpi\n      dup3\n      swap1\n      sub\n      0x1f\n      and\n      dup3\n      add\n      swap2\n    tag_42:\n      pop\n      pop\n      pop\n      pop\n      pop\n      dup2\n      jump\t// out\n        /* \"#utility.yul\":88:205   */\n    tag_46:\n        /* \"#utility.yul\":197:198   */\n      0x00\n        /* \"#utility.yul\":194:195   */\n      dup1\n        /* \"#utility.yul\":187:199   */\n      revert\n        /* \"#utility.yul\":334:460   */\n    tag_48:\n        /* \"#utility.yul\":371:378   */\n      0x00\n        /* \"#utility.yul\":411:453   */\n      0xffffffffffffffffffffffffffffffffffffffff\n        /* \"#utility.yul\":404:409   */\n      dup3\n        /* \"#utility.yul\":400:454   */\n      and\n        /* \"#utility.yul\":389:454   */\n      swap1\n      pop\n        /* \"#utility.yul\":334:460   */\n      swap2\n      swap1\n      pop\n      jump\t// out\n        /* \"#utility.yul\":466:570   */\n    tag_49:\n        /* \"#utility.yul\":511:518   */\n      0x00\n        /* \"#utility.yul\":540:564   */\n      tag_87\n        /* \"#utility.yul\":558:563   */\n      dup3\n        /* \"#utility.yul\":540:564   */\n      tag_48\n      jump\t// in\n    tag_87:\n        /* \"#utility.yul\":529:564   */\n      swap1\n      pop\n        /* \"#utility.yul\":466:570   */\n      swap2\n      swap1\n      pop\n      jump\t// out\n        /* \"#utility.yul\":576:714   */\n    tag_50:\n        /* \"#utility.yul\":657:689   */\n      tag_89\n        /* \"#utility.yul\":683:688   */\n      dup2\n        /* \"#utility.yul\":657:689   */\n      tag_49\n      jump\t// in\n    tag_89:\n        /* \"#utility.yul\":650:655   */\n      dup2\n        /* \"#utility.yul\":647:690   */\n      eq\n        /* \"#utility.yul\":637:708   */\n      tag_90\n      jumpi\n        /* \"#utility.yul\":704:705   */\n      0x00\n        /* \"#utility.yul\":701:702   */\n      dup1\n        /* \"#utility.yul\":694:706   */\n      revert\n        /* \"#utility.yul\":637:708   */\n    tag_90:\n        /* \"#utility.yul\":576:714   */\n      pop\n      jump\t// out\n        /* \"#utility.yul\":720:875   */\n    tag_51:\n        /* \"#utility.yul\":774:779   */\n      0x00\n        /* \"#utility.yul\":812:818   */\n      dup2\n        /* \"#utility.yul\":799:819   */\n      calldataload\n        /* \"#utility.yul\":790:819   */\n      swap1\n      pop\n        /* \"#utility.yul\":828:869   */\n      tag_92\n        /* \"#utility.yul\":863:868   */\n      dup2\n        /* \"#utility.yul\":828:869   */\n      tag_50\n      jump\t// in\n    tag_92:\n        /* \"#utility.yul\":720:875   */\n      swap3\n      swap2\n      pop\n      pop\n      jump\t// out\n        /* \"#utility.yul\":881:1226   */\n    tag_8:\n        /* \"#utility.yul\":948:954   */\n      0x00\n        /* \"#utility.yul\":997:999   */\n      0x20\n        /* \"#utility.yul\":985:994   */\n      dup3\n        /* \"#utility.yul\":976:983   */\n      dup5\n        /* \"#utility.yul\":972:995   */\n      sub\n        /* \"#utility.yul\":968:1000   */\n      slt\n        /* \"#utility.yul\":965:1084   */\n      iszero\n      tag_94\n      jumpi\n        /* \"#utility.yul\":1003:1082   */\n      tag_95\n      tag_46\n      jump\t// in\n    tag_95:\n        /* \"#utility.yul\":965:1084   */\n    tag_94:\n        /* \"#utility.yul\":1123:1124   */\n      0x00\n        /* \"#utility.yul\":1148:1209   */\n      tag_96\n        /* \"#utility.yul\":1201:1208   */\n      dup5\n        /* \"#utility.yul\":1192:1198   */\n      dup3\n        /* \"#utility.yul\":1181:1190   */\n      dup6\n        /* \"#utility.yul\":1177:1199   */\n      add\n        /* \"#utility.yul\":1148:1209   */\n      tag_51\n      jump\t// in\n    tag_96:\n        /* \"#utility.yul\":1138:1209   */\n      swap2\n      pop\n        /* \"#utility.yul\":1094:1219   */\n      pop\n        /* \"#utility.yul\":881:1226   */\n      swap3\n      swap2\n      pop\n      pop\n      jump\t// out\n        /* \"#utility.yul\":1232:1330   */\n    tag_52:\n        /* \"#utility.yul\":1283:1289   */\n      0x00\n        /* \"#utility.yul\":1317:1322   */\n      dup2\n        /* \"#utility.yul\":1311:1323   */\n      mload\n        /* \"#utility.yul\":1301:1323   */\n      swap1\n      pop\n        /* \"#utility.yul\":1232:1330   */\n      swap2\n      swap1\n      pop\n      jump\t// out\n        /* \"#utility.yul\":1336:1504   */\n    tag_53:\n        /* \"#utility.yul\":1419:1430   */\n      0x00\n        /* \"#utility.yul\":1453:1459   */\n      dup3\n        /* \"#utility.yul\":1448:1451   */\n      dup3\n        /* \"#utility.yul\":1441:1460   */\n      mstore\n        /* \"#utility.yul\":1493:1497   */\n      0x20\n        /* \"#utility.yul\":1488:1491   */\n      dup3\n        /* \"#utility.yul\":1484:1498   */\n      add\n        /* \"#utility.yul\":1469:1498   */\n      swap1\n      pop\n        /* \"#utility.yul\":1336:1504   */\n      swap3\n      swap2\n      pop\n      pop\n      jump\t// out\n        /* \"#utility.yul\":1510:1756   */\n    tag_54:\n        /* \"#utility.yul\":1591:1592   */\n      0x00\n        /* \"#utility.yul\":1601:1714   */\n    tag_100:\n        /* \"#utility.yul\":1615:1621   */\n      dup4\n        /* \"#utility.yul\":1612:1613   */\n      dup2\n        /* \"#utility.yul\":1609:1622   */\n      lt\n        /* \"#utility.yul\":1601:1714   */\n      iszero\n      tag_102\n      jumpi\n        /* \"#utility.yul\":1700:1701   */\n      dup1\n        /* \"#utility.yul\":1695:1698   */\n      dup3\n        /* \"#utility.yul\":1691:1702   */\n      add\n        /* \"#utility.yul\":1685:1703   */\n      mload\n        /* \"#utility.yul\":1681:1682   */\n      dup2\n        /* \"#utility.yul\":1676:1679   */\n      dup5\n        /* \"#utility.yul\":1672:1683   */\n      add\n        /* \"#utility.yul\":1665:1704   */\n      mstore\n        /* \"#utility.yul\":1637:1639   */\n      0x20\n        /* \"#utility.yul\":1634:1635   */\n      dup2\n        /* \"#utility.yul\":1630:1640   */\n      add\n        /* \"#utility.yul\":1625:1640   */\n      swap1\n      pop\n        /* \"#utility.yul\":1601:1714   */\n      jump(tag_100)\n    tag_102:\n        /* \"#utility.yul\":1748:1749   */\n      0x00\n        /* \"#utility.yul\":1739:1745   */\n      dup5\n        /* \"#utility.yul\":1734:1737   */\n      dup5\n        /* \"#utility.yul\":1730:1746   */\n      add\n        /* \"#utility.yul\":1723:1750   */\n      mstore\n        /* \"#utility.yul\":1572:1756   */\n      pop\n        /* \"#utility.yul\":1510:1756   */\n      pop\n      pop\n      pop\n      jump\t// out\n        /* \"#utility.yul\":1762:1864   */\n    tag_55:\n        /* \"#utility.yul\":1803:1809   */\n      0x00\n        /* \"#utility.yul\":1854:1856   */\n      0x1f\n        /* \"#utility.yul\":1850:1857   */\n      not\n        /* \"#utility.yul\":1845:1847   */\n      0x1f\n        /* \"#utility.yul\":1838:1843   */\n      dup4\n        /* \"#utility.yul\":1834:1848   */\n      add\n        /* \"#utility.yul\":1830:1858   */\n      and\n        /* \"#utility.yul\":1820:1858   */\n      swap1\n      pop\n        /* \"#utility.yul\":1762:1864   */\n      swap2\n      swap1\n      pop\n      jump\t// out\n        /* \"#utility.yul\":1870:2243   */\n    tag_56:\n        /* \"#utility.yul\":1956:1959   */\n      0x00\n        /* \"#utility.yul\":1984:2022   */\n      tag_105\n        /* \"#utility.yul\":2016:2021   */\n      dup3\n        /* \"#utility.yul\":1984:2022   */\n      tag_52\n      jump\t// in\n    tag_105:\n        /* \"#utility.yul\":2038:2108   */\n      tag_106\n        /* \"#utility.yul\":2101:2107   */\n      dup2\n        /* \"#utility.yul\":2096:2099   */\n      dup6\n        /* \"#utility.yul\":2038:2108   */\n      tag_53\n      jump\t// in\n    tag_106:\n        /* \"#utility.yul\":2031:2108   */\n      swap4\n      pop\n        /* \"#utility.yul\":2117:2182   */\n      tag_107\n        /* \"#utility.yul\":2175:2181   */\n      dup2\n        /* \"#utility.yul\":2170:2173   */\n      dup6\n        /* \"#utility.yul\":2163:2167   */\n      0x20\n        /* \"#utility.yul\":2156:2161   */\n      dup7\n        /* \"#utility.yul\":2152:2168   */\n      add\n        /* \"#utility.yul\":2117:2182   */\n      tag_54\n      jump\t// in\n    tag_107:\n        /* \"#utility.yul\":2207:2236   */\n      tag_108\n        /* \"#utility.yul\":2229:2235   */\n      dup2\n        /* \"#utility.yul\":2207:2236   */\n      tag_55\n      jump\t// in\n    tag_108:\n        /* \"#utility.yul\":2202:2205   */\n      dup5\n        /* \"#utility.yul\":2198:2237   */\n      add\n        /* \"#utility.yul\":2191:2237   */\n      swap2\n      pop\n        /* \"#utility.yul\":1960:2243   */\n      pop\n        /* \"#utility.yul\":1870:2243   */\n      swap3\n      swap2\n      pop\n      pop\n      jump\t// out\n        /* \"#utility.yul\":2249:2558   */\n    tag_20:\n        /* \"#utility.yul\":2360:2364   */\n      0x00\n        /* \"#utility.yul\":2398:2400   */\n      0x20\n        /* \"#utility.yul\":2387:2396   */\n      dup3\n        /* \"#utility.yul\":2383:2401   */\n      add\n        /* \"#utility.yul\":2375:2401   */\n      swap1\n      pop\n        /* \"#utility.yul\":2447:2456   */\n      dup2\n        /* \"#utility.yul\":2441:2445   */\n      dup2\n        /* \"#utility.yul\":2437:2457   */\n      sub\n        /* \"#utility.yul\":2433:2434   */\n      0x00\n        /* \"#utility.yul\":2422:2431   */\n      dup4\n        /* \"#utility.yul\":2418:2435   */\n      add\n        /* \"#utility.yul\":2411:2458   */\n      mstore\n        /* \"#utility.yul\":2475:2551   */\n      tag_110\n        /* \"#utility.yul\":2546:2550   */\n      dup2\n        /* \"#utility.yul\":2537:2543   */\n      dup5\n        /* \"#utility.yul\":2475:2551   */\n      tag_56\n      jump\t// in\n    tag_110:\n        /* \"#utility.yul\":2467:2551   */\n      swap1\n      pop\n        /* \"#utility.yul\":2249:2558   */\n      swap3\n      swap2\n      pop\n      pop\n      jump\t// out\n        /* \"#utility.yul\":2564:2733   */\n    tag_57:\n        /* \"#utility.yul\":2648:2659   */\n      0x00\n        /* \"#utility.yul\":2682:2688   */\n      dup3\n        /* \"#utility.yul\":2677:2680   */\n      dup3\n        /* \"#utility.yul\":2670:2689   */\n      mstore\n        /* \"#utility.yul\":2722:2726   */\n      0x20\n        /* \"#utility.yul\":2717:2720   */\n      dup3\n        /* \"#utility.yul\":2713:2727   */\n      add\n        /* \"#utility.yul\":2698:2727   */\n      swap1\n      pop\n        /* \"#utility.yul\":2564:2733   */\n      swap3\n      swap2\n      pop\n      pop\n      jump\t// out\n        /* \"#utility.yul\":2739:2912   */\n    tag_58:\n        /* \"#utility.yul\":2879:2904   */\n      0x4661696c75726521204574686572206e6f742073656e74000000000000000000\n        /* \"#utility.yul\":2875:2876   */\n      0x00\n        /* \"#utility.yul\":2867:2873   */\n      dup3\n        /* \"#utility.yul\":2863:2877   */\n      add\n        /* \"#utility.yul\":2856:2905   */\n      mstore\n        /* \"#utility.yul\":2739:2912   */\n      pop\n      jump\t// out\n        /* \"#utility.yul\":2918:3284   */\n    tag_59:\n        /* \"#utility.yul\":3060:3063   */\n      0x00\n        /* \"#utility.yul\":3081:3148   */\n      tag_114\n        /* \"#utility.yul\":3145:3147   */\n      0x17\n        /* \"#utility.yul\":3140:3143   */\n      dup4\n        /* \"#utility.yul\":3081:3148   */\n      tag_57\n      jump\t// in\n    tag_114:\n        /* \"#utility.yul\":3074:3148   */\n      swap2\n      pop\n        /* \"#utility.yul\":3157:3250   */\n      tag_115\n        /* \"#utility.yul\":3246:3249   */\n      dup3\n        /* \"#utility.yul\":3157:3250   */\n      tag_58\n      jump\t// in\n    tag_115:\n        /* \"#utility.yul\":3275:3277   */\n      0x20\n        /* \"#utility.yul\":3270:3273   */\n      dup3\n        /* \"#utility.yul\":3266:3278   */\n      add\n        /* \"#utility.yul\":3259:3278   */\n      swap1\n      pop\n        /* \"#utility.yul\":2918:3284   */\n      swap2\n      swap1\n      pop\n      jump\t// out\n        /* \"#utility.yul\":3290:3709   */\n    tag_28:\n        /* \"#utility.yul\":3456:3460   */\n      0x00\n        /* \"#utility.yul\":3494:3496   */\n      0x20\n        /* \"#utility.yul\":3483:3492   */\n      dup3\n        /* \"#utility.yul\":3479:3497   */\n      add\n        /* \"#utility.yul\":3471:3497   */\n      swap1\n      pop\n        /* \"#utility.yul\":3543:3552   */\n      dup2\n        /* \"#utility.yul\":3537:3541   */\n      dup2\n        /* \"#utility.yul\":3533:3553   */\n      sub\n        /* \"#utility.yul\":3529:3530   */\n      0x00\n        /* \"#utility.yul\":3518:3527   */\n      dup4\n        /* \"#utility.yul\":3514:3531   */\n      add\n        /* \"#utility.yul\":3507:3554   */\n      mstore\n        /* \"#utility.yul\":3571:3702   */\n      tag_117\n        /* \"#utility.yul\":3697:3701   */\n      dup2\n        /* \"#utility.yul\":3571:3702   */\n      tag_59\n      jump\t// in\n    tag_117:\n        /* \"#utility.yul\":3563:3702   */\n      swap1\n      pop\n        /* \"#utility.yul\":3290:3709   */\n      swap2\n      swap1\n      pop\n      jump\t// out\n        /* \"#utility.yul\":3715:3862   */\n    tag_60:\n        /* \"#utility.yul\":3816:3827   */\n      0x00\n        /* \"#utility.yul\":3853:3856   */\n      dup2\n        /* \"#utility.yul\":3838:3856   */\n      swap1\n      pop\n        /* \"#utility.yul\":3715:3862   */\n      swap3\n      swap2\n      pop\n      pop\n      jump\t// out\n        /* \"#utility.yul\":3868:4046   */\n    tag_61:\n        /* \"#utility.yul\":4008:4038   */\n      0x66756e635f7369676e61747572652875696e7432353620617267732900000000\n        /* \"#utility.yul\":4004:4005   */\n      0x00\n        /* \"#utility.yul\":3996:4002   */\n      dup3\n        /* \"#utility.yul\":3992:4006   */\n      add\n        /* \"#utility.yul\":3985:4039   */\n      mstore\n        /* \"#utility.yul\":3868:4046   */\n      pop\n      jump\t// out\n        /* \"#utility.yul\":4052:4452   */\n    tag_62:\n        /* \"#utility.yul\":4211:4214   */\n      0x00\n        /* \"#utility.yul\":4232:4316   */\n      tag_121\n        /* \"#utility.yul\":4313:4315   */\n      0x1c\n        /* \"#utility.yul\":4308:4311   */\n      dup4\n        /* \"#utility.yul\":4232:4316   */\n      tag_60\n      jump\t// in\n    tag_121:\n        /* \"#utility.yul\":4225:4316   */\n      swap2\n      pop\n        /* \"#utility.yul\":4325:4418   */\n      tag_122\n        /* \"#utility.yul\":4414:4417   */\n      dup3\n        /* \"#utility.yul\":4325:4418   */\n      tag_61\n      jump\t// in\n    tag_122:\n        /* \"#utility.yul\":4443:4445   */\n      0x1c\n        /* \"#utility.yul\":4438:4441   */\n      dup3\n        /* \"#utility.yul\":4434:4446   */\n      add\n        /* \"#utility.yul\":4427:4446   */\n      swap1\n      pop\n        /* \"#utility.yul\":4052:4452   */\n      swap2\n      swap1\n      pop\n      jump\t// out\n        /* \"#utility.yul\":4458:4837   */\n    tag_31:\n        /* \"#utility.yul\":4642:4645   */\n      0x00\n        /* \"#utility.yul\":4664:4811   */\n      tag_124\n        /* \"#utility.yul\":4807:4810   */\n      dup3\n        /* \"#utility.yul\":4664:4811   */\n      tag_62\n      jump\t// in\n    tag_124:\n        /* \"#utility.yul\":4657:4811   */\n      swap2\n      pop\n        /* \"#utility.yul\":4828:4831   */\n      dup2\n        /* \"#utility.yul\":4821:4831   */\n      swap1\n      pop\n        /* \"#utility.yul\":4458:4837   */\n      swap2\n      swap1\n      pop\n      jump\t// out\n        /* \"#utility.yul\":4843:5023   */\n    tag_63:\n        /* \"#utility.yul\":4891:4968   */\n      0x4e487b7100000000000000000000000000000000000000000000000000000000\n        /* \"#utility.yul\":4888:4889   */\n      0x00\n        /* \"#utility.yul\":4881:4969   */\n      mstore\n        /* \"#utility.yul\":4988:4992   */\n      0x41\n        /* \"#utility.yul\":4985:4986   */\n      0x04\n        /* \"#utility.yul\":4978:4993   */\n      mstore\n        /* \"#utility.yul\":5012:5016   */\n      0x24\n        /* \"#utility.yul\":5009:5010   */\n      0x00\n        /* \"#utility.yul\":5002:5017   */\n      revert\n        /* \"#utility.yul\":5029:5209   */\n    tag_64:\n        /* \"#utility.yul\":5077:5154   */\n      0x4e487b7100000000000000000000000000000000000000000000000000000000\n        /* \"#utility.yul\":5074:5075   */\n      0x00\n        /* \"#utility.yul\":5067:5155   */\n      mstore\n        /* \"#utility.yul\":5174:5178   */\n      0x22\n        /* \"#utility.yul\":5171:5172   */\n      0x04\n        /* \"#utility.yul\":5164:5179   */\n      mstore\n        /* \"#utility.yul\":5198:5202   */\n      0x24\n        /* \"#utility.yul\":5195:5196   */\n      0x00\n        /* \"#utility.yul\":5188:5203   */\n      revert\n        /* \"#utility.yul\":5215:5535   */\n    tag_40:\n        /* \"#utility.yul\":5259:5265   */\n      0x00\n        /* \"#utility.yul\":5296:5297   */\n      0x02\n        /* \"#utility.yul\":5290:5294   */\n      dup3\n        /* \"#utility.yul\":5286:5298   */\n      div\n        /* \"#utility.yul\":5276:5298   */\n      swap1\n      pop\n        /* \"#utility.yul\":5343:5344   */\n      0x01\n        /* \"#utility.yul\":5337:5341   */\n      dup3\n        /* \"#utility.yul\":5333:5345   */\n      and\n        /* \"#utility.yul\":5364:5382   */\n      dup1\n        /* \"#utility.yul\":5354:5435   */\n      tag_128\n      jumpi\n        /* \"#utility.yul\":5420:5424   */\n      0x7f\n        /* \"#utility.yul\":5412:5418   */\n      dup3\n        /* \"#utility.yul\":5408:5425   */\n      and\n        /* \"#utility.yul\":5398:5425   */\n      swap2\n      pop\n        /* \"#utility.yul\":5354:5435   */\n    tag_128:\n        /* \"#utility.yul\":5482:5484   */\n      0x20\n        /* \"#utility.yul\":5474:5480   */\n      dup3\n        /* \"#utility.yul\":5471:5485   */\n      lt\n        /* \"#utility.yul\":5451:5469   */\n      dup2\n        /* \"#utility.yul\":5448:5486   */\n      sub\n        /* \"#utility.yul\":5445:5529   */\n      tag_129\n      jumpi\n        /* \"#utility.yul\":5501:5519   */\n      tag_130\n      tag_64\n      jump\t// in\n    tag_130:\n        /* \"#utility.yul\":5445:5529   */\n    tag_129:\n        /* \"#utility.yul\":5266:5535   */\n      pop\n        /* \"#utility.yul\":5215:5535   */\n      swap2\n      swap1\n      pop\n      jump\t// out\n        /* \"#utility.yul\":5541:5681   */\n    tag_65:\n        /* \"#utility.yul\":5589:5593   */\n      0x00\n        /* \"#utility.yul\":5612:5615   */\n      dup2\n        /* \"#utility.yul\":5604:5615   */\n      swap1\n      pop\n        /* \"#utility.yul\":5635:5638   */\n      dup2\n        /* \"#utility.yul\":5632:5633   */\n      0x00\n        /* \"#utility.yul\":5625:5639   */\n      mstore\n        /* \"#utility.yul\":5669:5673   */\n      0x20\n        /* \"#utility.yul\":5666:5667   */\n      0x00\n        /* \"#utility.yul\":5656:5674   */\n      keccak256\n        /* \"#utility.yul\":5648:5674   */\n      swap1\n      pop\n        /* \"#utility.yul\":5541:5681   */\n      swap2\n      swap1\n      pop\n      jump\t// out\n        /* \"#utility.yul\":5687:5780   */\n    tag_66:\n        /* \"#utility.yul\":5724:5730   */\n      0x00\n        /* \"#utility.yul\":5771:5773   */\n      0x20\n        /* \"#utility.yul\":5766:5768   */\n      0x1f\n        /* \"#utility.yul\":5759:5764   */\n      dup4\n        /* \"#utility.yul\":5755:5769   */\n      add\n        /* \"#utility.yul\":5751:5774   */\n      div\n        /* \"#utility.yul\":5741:5774   */\n      swap1\n      pop\n        /* \"#utility.yul\":5687:5780   */\n      swap2\n      swap1\n      pop\n      jump\t// out\n        /* \"#utility.yul\":5786:5893   */\n    tag_67:\n        /* \"#utility.yul\":5830:5838   */\n      0x00\n        /* \"#utility.yul\":5880:5885   */\n      dup3\n        /* \"#utility.yul\":5874:5878   */\n      dup3\n        /* \"#utility.yul\":5870:5886   */\n      shl\n        /* \"#utility.yul\":5849:5886   */\n      swap1\n      pop\n        /* \"#utility.yul\":5786:5893   */\n      swap3\n      swap2\n      pop\n      pop\n      jump\t// out\n        /* \"#utility.yul\":5899:6292   */\n    tag_68:\n        /* \"#utility.yul\":5968:5974   */\n      0x00\n        /* \"#utility.yul\":6018:6019   */\n      0x08\n        /* \"#utility.yul\":6006:6016   */\n      dup4\n        /* \"#utility.yul\":6002:6020   */\n      mul\n        /* \"#utility.yul\":6041:6138   */\n      tag_135\n        /* \"#utility.yul\":6071:6137   */\n      0xffffffffffffffffffffffffffffffffffffffffffffffffffffffffffffffff\n        /* \"#utility.yul\":6060:6069   */\n      dup3\n        /* \"#utility.yul\":6041:6138   */\n      tag_67\n      jump\t// in\n    tag_135:\n        /* \"#utility.yul\":6159:6198   */\n      tag_136\n        /* \"#utility.yul\":6189:6197   */\n      dup7\n        /* \"#utility.yul\":6178:6187   */\n      dup4\n        /* \"#utility.yul\":6159:6198   */\n      tag_67\n      jump\t// in\n    tag_136:\n        /* \"#utility.yul\":6147:6198   */\n      swap6\n      pop\n        /* \"#utility.yul\":6231:6235   */\n      dup1\n        /* \"#utility.yul\":6227:6236   */\n      not\n        /* \"#utility.yul\":6220:6225   */\n      dup5\n        /* \"#utility.yul\":6216:6237   */\n      and\n        /* \"#utility.yul\":6207:6237   */\n      swap4\n      pop\n        /* \"#utility.yul\":6280:6284   */\n      dup1\n        /* \"#utility.yul\":6270:6278   */\n      dup7\n        /* \"#utility.yul\":6266:6285   */\n      and\n        /* \"#utility.yul\":6259:6264   */\n      dup5\n        /* \"#utility.yul\":6256:6286   */\n      or\n        /* \"#utility.yul\":6246:6286   */\n      swap3\n      pop\n        /* \"#utility.yul\":5975:6292   */\n      pop\n      pop\n        /* \"#utility.yul\":5899:6292   */\n      swap4\n      swap3\n      pop\n      pop\n      pop\n      jump\t// out\n        /* \"#utility.yul\":6298:6375   */\n    tag_69:\n        /* \"#utility.yul\":6335:6342   */\n      0x00\n        /* \"#utility.yul\":6364:6369   */\n      dup2\n        /* \"#utility.yul\":6353:6369   */\n      swap1\n      pop\n        /* \"#utility.yul\":6298:6375   */\n      swap2\n      swap1\n      pop\n      jump\t// out\n        /* \"#utility.yul\":6381:6441   */\n    tag_70:\n        /* \"#utility.yul\":6409:6412   */\n      0x00\n        /* \"#utility.yul\":6430:6435   */\n      dup2\n        /* \"#utility.yul\":6423:6435   */\n      swap1\n      pop\n        /* \"#utility.yul\":6381:6441   */\n      swap2\n      swap1\n      pop\n      jump\t// out\n        /* \"#utility.yul\":6447:6589   */\n    tag_71:\n        /* \"#utility.yul\":6497:6506   */\n      0x00\n        /* \"#utility.yul\":6530:6583   */\n      tag_140\n        /* \"#utility.yul\":6548:6582   */\n      tag_141\n        /* \"#utility.yul\":6557:6581   */\n      tag_142\n        /* \"#utility.yul\":6575:6580   */\n      dup5\n        /* \"#utility.yul\":6557:6581   */\n      tag_69\n      jump\t// in\n    tag_142:\n        /* \"#utility.yul\":6548:6582   */\n      tag_70\n      jump\t// in\n    tag_141:\n        /* \"#utility.yul\":6530:6583   */\n      tag_69\n      jump\t// in\n    tag_140:\n        /* \"#utility.yul\":6517:6583   */\n      swap1\n      pop\n        /* \"#utility.yul\":6447:6589   */\n      swap2\n      swap1\n      pop\n      jump\t// out\n        /* \"#utility.yul\":6595:6670   */\n    tag_72:\n        /* \"#utility.yul\":6638:6641   */\n      0x00\n        /* \"#utility.yul\":6659:6664   */\n      dup2\n        /* \"#utility.yul\":6652:6664   */\n      swap1\n      pop\n        /* \"#utility.yul\":6595:6670   */\n      swap2\n      swap1\n      pop\n      jump\t// out\n        /* \"#utility.yul\":6676:6945   */\n    tag_73:\n        /* \"#utility.yul\":6786:6825   */\n      tag_145\n        /* \"#utility.yul\":6817:6824   */\n      dup4\n        /* \"#utility.yul\":6786:6825   */\n      tag_71\n      jump\t// in\n    tag_145:\n        /* \"#utility.yul\":6847:6938   */\n      tag_146\n        /* \"#utility.yul\":6896:6937   */\n      tag_147\n        /* \"#utility.yul\":6920:6936   */\n      dup3\n        /* \"#utility.yul\":6896:6937   */\n      tag_72\n      jump\t// in\n    tag_147:\n        /* \"#utility.yul\":6888:6894   */\n      dup5\n        /* \"#utility.yul\":6881:6885   */\n      dup5\n        /* \"#utility.yul\":6875:6886   */\n      sload\n        /* \"#utility.yul\":6847:6938   */\n      tag_68\n      jump\t// in\n    tag_146:\n        /* \"#utility.yul\":6841:6845   */\n      dup3\n        /* \"#utility.yul\":6834:6939   */\n      sstore\n        /* \"#utility.yul\":6752:6945   */\n      pop\n        /* \"#utility.yul\":6676:6945   */\n      pop\n      pop\n      pop\n      jump\t// out\n        /* \"#utility.yul\":6951:7024   */\n    tag_74:\n        /* \"#utility.yul\":6996:6999   */\n      0x00\n        /* \"#utility.yul\":6951:7024   */\n      swap1\n      jump\t// out\n        /* \"#utility.yul\":7030:7219   */\n    tag_75:\n        /* \"#utility.yul\":7107:7139   */\n      tag_150\n      tag_74\n      jump\t// in\n    tag_150:\n        /* \"#utility.yul\":7148:7213   */\n      tag_151\n        /* \"#utility.yul\":7206:7212   */\n      dup2\n        /* \"#utility.yul\":7198:7204   */\n      dup5\n        /* \"#utility.yul\":7192:7196   */\n      dup5\n        /* \"#utility.yul\":7148:7213   */\n      tag_73\n      jump\t// in\n    tag_151:\n        /* \"#utility.yul\":7083:7219   */\n      pop\n        /* \"#utility.yul\":7030:7219   */\n      pop\n      pop\n      jump\t// out\n        /* \"#utility.yul\":7225:7411   */\n    tag_76:\n        /* \"#utility.yul\":7285:7405   */\n    tag_153:\n        /* \"#utility.yul\":7302:7305   */\n      dup2\n        /* \"#utility.yul\":7295:7300   */\n      dup2\n        /* \"#utility.yul\":7292:7306   */\n      lt\n        /* \"#utility.yul\":7285:7405   */\n      iszero\n      tag_155\n      jumpi\n        /* \"#utility.yul\":7356:7395   */\n      tag_156\n        /* \"#utility.yul\":7393:7394   */\n      0x00\n        /* \"#utility.yul\":7386:7391   */\n      dup3\n        /* \"#utility.yul\":7356:7395   */\n      tag_75\n      jump\t// in\n    tag_156:\n        /* \"#utility.yul\":7329:7330   */\n      0x01\n        /* \"#utility.yul\":7322:7327   */\n      dup2\n        /* \"#utility.yul\":7318:7331   */\n      add\n        /* \"#utility.yul\":7309:7331   */\n      swap1\n      pop\n        /* \"#utility.yul\":7285:7405   */\n      jump(tag_153)\n    tag_155:\n        /* \"#utility.yul\":7225:7411   */\n      pop\n      pop\n      jump\t// out\n        /* \"#utility.yul\":7417:7958   */\n    tag_77:\n        /* \"#utility.yul\":7517:7519   */\n      0x1f\n        /* \"#utility.yul\":7512:7515   */\n      dup3\n        /* \"#utility.yul\":7509:7520   */\n      gt\n        /* \"#utility.yul\":7506:7951   */\n      iszero\n      tag_158\n      jumpi\n        /* \"#utility.yul\":7551:7588   */\n      tag_159\n        /* \"#utility.yul\":7582:7587   */\n      dup2\n        /* \"#utility.yul\":7551:7588   */\n      tag_65\n      jump\t// in\n    tag_159:\n        /* \"#utility.yul\":7634:7663   */\n      tag_160\n        /* \"#utility.yul\":7652:7662   */\n      dup5\n        /* \"#utility.yul\":7634:7663   */\n      tag_66\n      jump\t// in\n    tag_160:\n        /* \"#utility.yul\":7624:7632   */\n      dup2\n        /* \"#utility.yul\":7620:7664   */\n      add\n        /* \"#utility.yul\":7817:7819   */\n      0x20\n        /* \"#utility.yul\":7805:7815   */\n      dup6\n        /* \"#utility.yul\":7802:7820   */\n      lt\n        /* \"#utility.yul\":7799:7848   */\n      iszero\n      tag_161\n      jumpi\n        /* \"#utility.yul\":7838:7846   */\n      dup2\n        /* \"#utility.yul\":7823:7846   */\n      swap1\n      pop\n        /* \"#utility.yul\":7799:7848   */\n    tag_161:\n        /* \"#utility.yul\":7861:7941   */\n      tag_162\n        /* \"#utility.yul\":7917:7939   */\n      tag_163\n        /* \"#utility.yul\":7935:7938   */\n      dup6\n        /* \"#utility.yul\":7917:7939   */\n      tag_66\n      jump\t// in\n    tag_163:\n        /* \"#utility.yul\":7907:7915   */\n      dup4\n        /* \"#utility.yul\":7903:7940   */\n      add\n        /* \"#utility.yul\":7890:7901   */\n      dup3\n        /* \"#utility.yul\":7861:7941   */\n      tag_76\n      jump\t// in\n    tag_162:\n        /* \"#utility.yul\":7521:7951   */\n      pop\n      pop\n        /* \"#utility.yul\":7506:7951   */\n    tag_158:\n        /* \"#utility.yul\":7417:7958   */\n      pop\n      pop\n      pop\n      jump\t// out\n        /* \"#utility.yul\":7964:8081   */\n    tag_78:\n        /* \"#utility.yul\":8018:8026   */\n      0x00\n        /* \"#utility.yul\":8068:8073   */\n      dup3\n        /* \"#utility.yul\":8062:8066   */\n      dup3\n        /* \"#utility.yul\":8058:8074   */\n      shr\n        /* \"#utility.yul\":8037:8074   */\n      swap1\n      pop\n        /* \"#utility.yul\":7964:8081   */\n      swap3\n      swap2\n      pop\n      pop\n      jump\t// out\n        /* \"#utility.yul\":8087:8256   */\n    tag_79:\n        /* \"#utility.yul\":8131:8137   */\n      0x00\n        /* \"#utility.yul\":8164:8215   */\n      tag_166\n        /* \"#utility.yul\":8212:8213   */\n      0x00\n        /* \"#utility.yul\":8208:8214   */\n      not\n        /* \"#utility.yul\":8200:8205   */\n      dup5\n        /* \"#utility.yul\":8197:8198   */\n      0x08\n        /* \"#utility.yul\":8193:8206   */\n      mul\n        /* \"#utility.yul\":8164:8215   */\n      tag_78\n      jump\t// in\n    tag_166:\n        /* \"#utility.yul\":8160:8216   */\n      not\n        /* \"#utility.yul\":8245:8249   */\n      dup1\n        /* \"#utility.yul\":8239:8243   */\n      dup4\n        /* \"#utility.yul\":8235:8250   */\n      and\n        /* \"#utility.yul\":8225:8250   */\n      swap2\n      pop\n        /* \"#utility.yul\":8138:8256   */\n      pop\n        /* \"#utility.yul\":8087:8256   */\n      swap3\n      swap2\n      pop\n      pop\n      jump\t// out\n        /* \"#utility.yul\":8261:8556   */\n    tag_80:\n        /* \"#utility.yul\":8337:8341   */\n      0x00\n        /* \"#utility.yul\":8483:8512   */\n      tag_168\n        /* \"#utility.yul\":8508:8511   */\n      dup4\n        /* \"#utility.yul\":8502:8506   */\n      dup4\n        /* \"#utility.yul\":8483:8512   */\n      tag_79\n      jump\t// in\n    tag_168:\n        /* \"#utility.yul\":8475:8512   */\n      swap2\n      pop\n        /* \"#utility.yul\":8545:8548   */\n      dup3\n        /* \"#utility.yul\":8542:8543   */\n      0x02\n        /* \"#utility.yul\":8538:8549   */\n      mul\n        /* \"#utility.yul\":8532:8536   */\n      dup3\n        /* \"#utility.yul\":8529:8550   */\n      or\n        /* \"#utility.yul\":8521:8550   */\n      swap1\n      pop\n        /* \"#utility.yul\":8261:8556   */\n      swap3\n      swap2\n      pop\n      pop\n      jump\t// out\n        /* \"#utility.yul\":8561:9951   */\n    tag_38:\n        /* \"#utility.yul\":8676:8712   */\n      tag_170\n        /* \"#utility.yul\":8708:8711   */\n      dup3\n        /* \"#utility.yul\":8676:8712   */\n      tag_52\n      jump\t// in\n    tag_170:\n        /* \"#utility.yul\":8777:8795   */\n      0xffffffffffffffff\n        /* \"#utility.yul\":8769:8775   */\n      dup2\n        /* \"#utility.yul\":8766:8796   */\n      gt\n        /* \"#utility.yul\":8763:8819   */\n      iszero\n      tag_171\n      jumpi\n        /* \"#utility.yul\":8799:8817   */\n      tag_172\n      tag_63\n      jump\t// in\n    tag_172:\n        /* \"#utility.yul\":8763:8819   */\n    tag_171:\n        /* \"#utility.yul\":8843:8881   */\n      tag_173\n        /* \"#utility.yul\":8875:8879   */\n      dup3\n        /* \"#utility.yul\":8869:8880   */\n      sload\n        /* \"#utility.yul\":8843:8881   */\n      tag_40\n      jump\t// in\n    tag_173:\n        /* \"#utility.yul\":8928:8994   */\n      tag_174\n        /* \"#utility.yul\":8987:8993   */\n      dup3\n        /* \"#utility.yul\":8979:8985   */\n      dup3\n        /* \"#utility.yul\":8973:8977   */\n      dup6\n        /* \"#utility.yul\":8928:8994   */\n      tag_77\n      jump\t// in\n    tag_174:\n        /* \"#utility.yul\":9021:9022   */\n      0x00\n        /* \"#utility.yul\":9045:9049   */\n      0x20\n        /* \"#utility.yul\":9032:9049   */\n      swap1\n      pop\n        /* \"#utility.yul\":9077:9079   */\n      0x1f\n        /* \"#utility.yul\":9069:9075   */\n      dup4\n        /* \"#utility.yul\":9066:9080   */\n      gt\n        /* \"#utility.yul\":9094:9095   */\n      0x01\n        /* \"#utility.yul\":9089:9706   */\n      dup2\n      eq\n      tag_176\n      jumpi\n        /* \"#utility.yul\":9750:9751   */\n      0x00\n        /* \"#utility.yul\":9767:9773   */\n      dup5\n        /* \"#utility.yul\":9764:9841   */\n      iszero\n      tag_177\n      jumpi\n        /* \"#utility.yul\":9816:9825   */\n      dup3\n        /* \"#utility.yul\":9811:9814   */\n      dup8\n        /* \"#utility.yul\":9807:9826   */\n      add\n        /* \"#utility.yul\":9801:9827   */\n      mload\n        /* \"#utility.yul\":9792:9827   */\n      swap1\n      pop\n        /* \"#utility.yul\":9764:9841   */\n    tag_177:\n        /* \"#utility.yul\":9867:9934   */\n      tag_178\n        /* \"#utility.yul\":9927:9933   */\n      dup6\n        /* \"#utility.yul\":9920:9925   */\n      dup3\n        /* \"#utility.yul\":9867:9934   */\n      tag_80\n      jump\t// in\n    tag_178:\n        /* \"#utility.yul\":9861:9865   */\n      dup7\n        /* \"#utility.yul\":9854:9935   */\n      sstore\n        /* \"#utility.yul\":9723:9945   */\n      pop\n        /* \"#utility.yul\":9059:9945   */\n      jump(tag_175)\n        /* \"#utility.yul\":9089:9706   */\n    tag_176:\n        /* \"#utility.yul\":9141:9145   */\n      0x1f\n        /* \"#utility.yul\":9137:9146   */\n      not\n        /* \"#utility.yul\":9129:9135   */\n      dup5\n        /* \"#utility.yul\":9125:9147   */\n      and\n        /* \"#utility.yul\":9175:9211   */\n      tag_179\n        /* \"#utility.yul\":9206:9210   */\n      dup7\n        /* \"#utility.yul\":9175:9211   */\n      tag_65\n      jump\t// in\n    tag_179:\n        /* \"#utility.yul\":9233:9234   */\n      0x00\n        /* \"#utility.yul\":9247:9455   */\n    tag_180:\n        /* \"#utility.yul\":9261:9268   */\n      dup3\n        /* \"#utility.yul\":9258:9259   */\n      dup2\n        /* \"#utility.yul\":9255:9269   */\n      lt\n        /* \"#utility.yul\":9247:9455   */\n      iszero\n      tag_182\n      jumpi\n        /* \"#utility.yul\":9340:9349   */\n      dup5\n        /* \"#utility.yul\":9335:9338   */\n      dup10\n        /* \"#utility.yul\":9331:9350   */\n      add\n        /* \"#utility.yul\":9325:9351   */\n      mload\n        /* \"#utility.yul\":9317:9323   */\n      dup3\n        /* \"#utility.yul\":9310:9352   */\n      sstore\n        /* \"#utility.yul\":9391:9392   */\n      0x01\n        /* \"#utility.yul\":9383:9389   */\n      dup3\n        /* \"#utility.yul\":9379:9393   */\n      add\n        /* \"#utility.yul\":9369:9393   */\n      swap2\n      pop\n        /* \"#utility.yul\":9438:9440   */\n      0x20\n        /* \"#utility.yul\":9427:9436   */\n      dup6\n        /* \"#utility.yul\":9423:9441   */\n      add\n        /* \"#utility.yul\":9410:9441   */\n      swap5\n      pop\n        /* \"#utility.yul\":9284:9288   */\n      0x20\n        /* \"#utility.yul\":9281:9282   */\n      dup2\n        /* \"#utility.yul\":9277:9289   */\n      add\n        /* \"#utility.yul\":9272:9289   */\n      swap1\n      pop\n        /* \"#utility.yul\":9247:9455   */\n      jump(tag_180)\n    tag_182:\n        /* \"#utility.yul\":9483:9489   */\n      dup7\n        /* \"#utility.yul\":9474:9481   */\n      dup4\n        /* \"#utility.yul\":9471:9490   */\n      lt\n        /* \"#utility.yul\":9468:9647   */\n      iszero\n      tag_183\n      jumpi\n        /* \"#utility.yul\":9541:9550   */\n      dup5\n        /* \"#utility.yul\":9536:9539   */\n      dup10\n        /* \"#utility.yul\":9532:9551   */\n      add\n        /* \"#utility.yul\":9526:9552   */\n      mload\n        /* \"#utility.yul\":9584:9632   */\n      tag_184\n        /* \"#utility.yul\":9626:9630   */\n      0x1f\n        /* \"#utility.yul\":9618:9624   */\n      dup10\n        /* \"#utility.yul\":9614:9631   */\n      and\n        /* \"#utility.yul\":9603:9612   */\n      dup3\n        /* \"#utility.yul\":9584:9632   */\n      tag_79\n      jump\t// in\n    tag_184:\n        /* \"#utility.yul\":9576:9582   */\n      dup4\n        /* \"#utility.yul\":9569:9633   */\n      sstore\n        /* \"#utility.yul\":9491:9647   */\n      pop\n        /* \"#utility.yul\":9468:9647   */\n    tag_183:\n        /* \"#utility.yul\":9693:9694   */\n      0x01\n        /* \"#utility.yul\":9689:9690   */\n      0x02\n        /* \"#utility.yul\":9681:9687   */\n      dup9\n        /* \"#utility.yul\":9677:9691   */\n      mul\n        /* \"#utility.yul\":9673:9695   */\n      add\n        /* \"#utility.yul\":9667:9671   */\n      dup9\n        /* \"#utility.yul\":9660:9696   */\n      sstore\n        /* \"#utility.yul\":9096:9706   */\n      pop\n      pop\n      pop\n        /* \"#utility.yul\":9059:9945   */\n    tag_175:\n      pop\n        /* \"#utility.yul\":8651:9951   */\n      pop\n      pop\n      pop\n        /* \"#utility.yul\":8561:9951   */\n      pop\n      pop\n      jump\t// out\n\n    auxdata: 0xa2646970667358221220079f42a4e360291499fed4bf5b603b232c94ea0489278a8d6fb9394730db543f64736f6c63430008160033\n}\n",
				"bytecode": {
					"linkReferences": {},
					"object": "608060405234801561000f575f80fd5b506108178061001d5f395ff3fe60806040526004361061003e575f3560e01c80635a19818d146100425780639869faa71461005e578063ce172b1c1461007a578063d8be34e914610096575b5f80fd5b61005c6004803603810190610057919061032d565b6100c0565b005b6100786004803603810190610073919061032d565b610107565b005b610094600480360381019061008f919061032d565b610182565b005b3480156100a1575f80fd5b506100aa610244565b6040516100b791906103e2565b60405180910390f35b8073ffffffffffffffffffffffffffffffffffffffff166108fc3490811502906040515f60405180830381858888f19350505050158015610103573d5f803e3d5ffd5b5050565b5f8173ffffffffffffffffffffffffffffffffffffffff166108fc3490811502906040515f60405180830381858888f1935050505090508061017e576040517f08c379a00000000000000000000000000000000000000000000000000000000081526004016101759061045c565b60405180910390fd5b5050565b5f808273ffffffffffffffffffffffffffffffffffffffff16612710346040516101ab906104ce565b5f60405180830381858888f193505050503d805f81146101e6576040519150601f19603f3d011682016040523d82523d5f602084013e6101eb565b606091505b509150915081610230576040517f08c379a00000000000000000000000000000000000000000000000000000000081526004016102279061045c565b60405180910390fd5b805f908161023e9190610712565b50505050565b5f80546102509061053c565b80601f016020809104026020016040519081016040528092919081815260200182805461027c9061053c565b80156102c75780601f1061029e576101008083540402835291602001916102c7565b820191905f5260205f20905b8154815290600101906020018083116102aa57829003601f168201915b505050505081565b5f80fd5b5f73ffffffffffffffffffffffffffffffffffffffff82169050919050565b5f6102fc826102d3565b9050919050565b61030c816102f2565b8114610316575f80fd5b50565b5f8135905061032781610303565b92915050565b5f60208284031215610342576103416102cf565b5b5f61034f84828501610319565b91505092915050565b5f81519050919050565b5f82825260208201905092915050565b5f5b8381101561038f578082015181840152602081019050610374565b5f8484015250505050565b5f601f19601f8301169050919050565b5f6103b482610358565b6103be8185610362565b93506103ce818560208601610372565b6103d78161039a565b840191505092915050565b5f6020820190508181035f8301526103fa81846103aa565b905092915050565b5f82825260208201905092915050565b7f4661696c75726521204574686572206e6f742073656e740000000000000000005f82015250565b5f610446601783610402565b915061045182610412565b602082019050919050565b5f6020820190508181035f8301526104738161043a565b9050919050565b5f81905092915050565b7f66756e635f7369676e61747572652875696e74323536206172677329000000005f82015250565b5f6104b8601c8361047a565b91506104c382610484565b601c82019050919050565b5f6104d8826104ac565b9150819050919050565b7f4e487b71000000000000000000000000000000000000000000000000000000005f52604160045260245ffd5b7f4e487b71000000000000000000000000000000000000000000000000000000005f52602260045260245ffd5b5f600282049050600182168061055357607f821691505b6020821081036105665761056561050f565b5b50919050565b5f819050815f5260205f209050919050565b5f6020601f8301049050919050565b5f82821b905092915050565b5f600883026105c87fffffffffffffffffffffffffffffffffffffffffffffffffffffffffffffffff8261058d565b6105d2868361058d565b95508019841693508086168417925050509392505050565b5f819050919050565b5f819050919050565b5f61061661061161060c846105ea565b6105f3565b6105ea565b9050919050565b5f819050919050565b61062f836105fc565b61064361063b8261061d565b848454610599565b825550505050565b5f90565b61065761064b565b610662818484610626565b505050565b5b818110156106855761067a5f8261064f565b600181019050610668565b5050565b601f8211156106ca5761069b8161056c565b6106a48461057e565b810160208510156106b3578190505b6106c76106bf8561057e565b830182610667565b50505b505050565b5f82821c905092915050565b5f6106ea5f19846008026106cf565b1980831691505092915050565b5f61070283836106db565b9150826002028217905092915050565b61071b82610358565b67ffffffffffffffff811115610734576107336104e2565b5b61073e825461053c565b610749828285610689565b5f60209050601f83116001811461077a575f8415610768578287015190505b61077285826106f7565b8655506107d9565b601f1984166107888661056c565b5f5b828110156107af5784890151825560018201915060208501945060208101905061078a565b868310156107cc57848901516107c8601f8916826106db565b8355505b6001600288020188555050505b50505050505056fea2646970667358221220079f42a4e360291499fed4bf5b603b232c94ea0489278a8d6fb9394730db543f64736f6c63430008160033",
					"opcodes": "PUSH1 0x80 PUSH1 0x40 MSTORE CALLVALUE DUP1 ISZERO PUSH2 0xF JUMPI PUSH0 DUP1 REVERT JUMPDEST POP PUSH2 0x817 DUP1 PUSH2 0x1D PUSH0 CODECOPY PUSH0 RETURN INVALID PUSH1 0x80 PUSH1 0x40 MSTORE PUSH1 0x4 CALLDATASIZE LT PUSH2 0x3E JUMPI PUSH0 CALLDATALOAD PUSH1 0xE0 SHR DUP1 PUSH4 0x5A19818D EQ PUSH2 0x42 JUMPI DUP1 PUSH4 0x9869FAA7 EQ PUSH2 0x5E JUMPI DUP1 PUSH4 0xCE172B1C EQ PUSH2 0x7A JUMPI DUP1 PUSH4 0xD8BE34E9 EQ PUSH2 0x96 JUMPI JUMPDEST PUSH0 DUP1 REVERT JUMPDEST PUSH2 0x5C PUSH1 0x4 DUP1 CALLDATASIZE SUB DUP2 ADD SWAP1 PUSH2 0x57 SWAP2 SWAP1 PUSH2 0x32D JUMP JUMPDEST PUSH2 0xC0 JUMP JUMPDEST STOP JUMPDEST PUSH2 0x78 PUSH1 0x4 DUP1 CALLDATASIZE SUB DUP2 ADD SWAP1 PUSH2 0x73 SWAP2 SWAP1 PUSH2 0x32D JUMP JUMPDEST PUSH2 0x107 JUMP JUMPDEST STOP JUMPDEST PUSH2 0x94 PUSH1 0x4 DUP1 CALLDATASIZE SUB DUP2 ADD SWAP1 PUSH2 0x8F SWAP2 SWAP1 PUSH2 0x32D JUMP JUMPDEST PUSH2 0x182 JUMP JUMPDEST STOP JUMPDEST CALLVALUE DUP1 ISZERO PUSH2 0xA1 JUMPI PUSH0 DUP1 REVERT JUMPDEST POP PUSH2 0xAA PUSH2 0x244 JUMP JUMPDEST PUSH1 0x40 MLOAD PUSH2 0xB7 SWAP2 SWAP1 PUSH2 0x3E2 JUMP JUMPDEST PUSH1 0x40 MLOAD DUP1 SWAP2 SUB SWAP1 RETURN JUMPDEST DUP1 PUSH20 0xFFFFFFFFFFFFFFFFFFFFFFFFFFFFFFFFFFFFFFFF AND PUSH2 0x8FC CALLVALUE SWAP1 DUP2 ISZERO MUL SWAP1 PUSH1 0x40 MLOAD PUSH0 PUSH1 0x40 MLOAD DUP1 DUP4 SUB DUP2 DUP6 DUP9 DUP9 CALL SWAP4 POP POP POP POP ISZERO DUP1 ISZERO PUSH2 0x103 JUMPI RETURNDATASIZE PUSH0 DUP1 RETURNDATACOPY RETURNDATASIZE PUSH0 REVERT JUMPDEST POP POP JUMP JUMPDEST PUSH0 DUP2 PUSH20 0xFFFFFFFFFFFFFFFFFFFFFFFFFFFFFFFFFFFFFFFF AND PUSH2 0x8FC CALLVALUE SWAP1 DUP2 ISZERO MUL SWAP1 PUSH1 0x40 MLOAD PUSH0 PUSH1 0x40 MLOAD DUP1 DUP4 SUB DUP2 DUP6 DUP9 DUP9 CALL SWAP4 POP POP POP POP SWAP1 POP DUP1 PUSH2 0x17E JUMPI PUSH1 0x40 MLOAD PUSH32 0x8C379A000000000000000000000000000000000000000000000000000000000 DUP2 MSTORE PUSH1 0x4 ADD PUSH2 0x175 SWAP1 PUSH2 0x45C JUMP JUMPDEST PUSH1 0x40 MLOAD DUP1 SWAP2 SUB SWAP1 REVERT JUMPDEST POP POP JUMP JUMPDEST PUSH0 DUP1 DUP3 PUSH20 0xFFFFFFFFFFFFFFFFFFFFFFFFFFFFFFFFFFFFFFFF AND PUSH2 0x2710 CALLVALUE PUSH1 0x40 MLOAD PUSH2 0x1AB SWAP1 PUSH2 0x4CE JUMP JUMPDEST PUSH0 PUSH1 0x40 MLOAD DUP1 DUP4 SUB DUP2 DUP6 DUP9 DUP9 CALL SWAP4 POP POP POP POP RETURNDATASIZE DUP1 PUSH0 DUP2 EQ PUSH2 0x1E6 JUMPI PUSH1 0x40 MLOAD SWAP2 POP PUSH1 0x1F NOT PUSH1 0x3F RETURNDATASIZE ADD AND DUP3 ADD PUSH1 0x40 MSTORE RETURNDATASIZE DUP3 MSTORE RETURNDATASIZE PUSH0 PUSH1 0x20 DUP5 ADD RETURNDATACOPY PUSH2 0x1EB JUMP JUMPDEST PUSH1 0x60 SWAP2 POP JUMPDEST POP SWAP2 POP SWAP2 POP DUP2 PUSH2 0x230 JUMPI PUSH1 0x40 MLOAD PUSH32 0x8C379A000000000000000000000000000000000000000000000000000000000 DUP2 MSTORE PUSH1 0x4 ADD PUSH2 0x227 SWAP1 PUSH2 0x45C JUMP JUMPDEST PUSH1 0x40 MLOAD DUP1 SWAP2 SUB SWAP1 REVERT JUMPDEST DUP1 PUSH0 SWAP1 DUP2 PUSH2 0x23E SWAP2 SWAP1 PUSH2 0x712 JUMP JUMPDEST POP POP POP POP JUMP JUMPDEST PUSH0 DUP1 SLOAD PUSH2 0x250 SWAP1 PUSH2 0x53C JUMP JUMPDEST DUP1 PUSH1 0x1F ADD PUSH1 0x20 DUP1 SWAP2 DIV MUL PUSH1 0x20 ADD PUSH1 0x40 MLOAD SWAP1 DUP2 ADD PUSH1 0x40 MSTORE DUP1 SWAP3 SWAP2 SWAP1 DUP2 DUP2 MSTORE PUSH1 0x20 ADD DUP3 DUP1 SLOAD PUSH2 0x27C SWAP1 PUSH2 0x53C JUMP JUMPDEST DUP1 ISZERO PUSH2 0x2C7 JUMPI DUP1 PUSH1 0x1F LT PUSH2 0x29E JUMPI PUSH2 0x100 DUP1 DUP4 SLOAD DIV MUL DUP4 MSTORE SWAP2 PUSH1 0x20 ADD SWAP2 PUSH2 0x2C7 JUMP JUMPDEST DUP3 ADD SWAP2 SWAP1 PUSH0 MSTORE PUSH1 0x20 PUSH0 KECCAK256 SWAP1 JUMPDEST DUP2 SLOAD DUP2 MSTORE SWAP1 PUSH1 0x1 ADD SWAP1 PUSH1 0x20 ADD DUP1 DUP4 GT PUSH2 0x2AA JUMPI DUP3 SWAP1 SUB PUSH1 0x1F AND DUP3 ADD SWAP2 JUMPDEST POP POP POP POP POP DUP2 JUMP JUMPDEST PUSH0 DUP1 REVERT JUMPDEST PUSH0 PUSH20 0xFFFFFFFFFFFFFFFFFFFFFFFFFFFFFFFFFFFFFFFF DUP3 AND SWAP1 POP SWAP2 SWAP1 POP JUMP JUMPDEST PUSH0 PUSH2 0x2FC DUP3 PUSH2 0x2D3 JUMP JUMPDEST SWAP1 POP SWAP2 SWAP1 POP JUMP JUMPDEST PUSH2 0x30C DUP2 PUSH2 0x2F2 JUMP JUMPDEST DUP2 EQ PUSH2 0x316 JUMPI PUSH0 DUP1 REVERT JUMPDEST POP JUMP JUMPDEST PUSH0 DUP2 CALLDATALOAD SWAP1 POP PUSH2 0x327 DUP2 PUSH2 0x303 JUMP JUMPDEST SWAP3 SWAP2 POP POP JUMP JUMPDEST PUSH0 PUSH1 0x20 DUP3 DUP5 SUB SLT ISZERO PUSH2 0x342 JUMPI PUSH2 0x341 PUSH2 0x2CF JUMP JUMPDEST JUMPDEST PUSH0 PUSH2 0x34F DUP5 DUP3 DUP6 ADD PUSH2 0x319 JUMP JUMPDEST SWAP2 POP POP SWAP3 SWAP2 POP POP JUMP JUMPDEST PUSH0 DUP2 MLOAD SWAP1 POP SWAP2 SWAP1 POP JUMP JUMPDEST PUSH0 DUP3 DUP3 MSTORE PUSH1 0x20 DUP3 ADD SWAP1 POP SWAP3 SWAP2 POP POP JUMP JUMPDEST PUSH0 JUMPDEST DUP4 DUP2 LT ISZERO PUSH2 0x38F JUMPI DUP1 DUP3 ADD MLOAD DUP2 DUP5 ADD MSTORE PUSH1 0x20 DUP2 ADD SWAP1 POP PUSH2 0x374 JUMP JUMPDEST PUSH0 DUP5 DUP5 ADD MSTORE POP POP POP POP JUMP JUMPDEST PUSH0 PUSH1 0x1F NOT PUSH1 0x1F DUP4 ADD AND SWAP1 POP SWAP2 SWAP1 POP JUMP JUMPDEST PUSH0 PUSH2 0x3B4 DUP3 PUSH2 0x358 JUMP JUMPDEST PUSH2 0x3BE DUP2 DUP6 PUSH2 0x362 JUMP JUMPDEST SWAP4 POP PUSH2 0x3CE DUP2 DUP6 PUSH1 0x20 DUP7 ADD PUSH2 0x372 JUMP JUMPDEST PUSH2 0x3D7 DUP2 PUSH2 0x39A JUMP JUMPDEST DUP5 ADD SWAP2 POP POP SWAP3 SWAP2 POP POP JUMP JUMPDEST PUSH0 PUSH1 0x20 DUP3 ADD SWAP1 POP DUP2 DUP2 SUB PUSH0 DUP4 ADD MSTORE PUSH2 0x3FA DUP2 DUP5 PUSH2 0x3AA JUMP JUMPDEST SWAP1 POP SWAP3 SWAP2 POP POP JUMP JUMPDEST PUSH0 DUP3 DUP3 MSTORE PUSH1 0x20 DUP3 ADD SWAP1 POP SWAP3 SWAP2 POP POP JUMP JUMPDEST PUSH32 0x4661696C75726521204574686572206E6F742073656E74000000000000000000 PUSH0 DUP3 ADD MSTORE POP JUMP JUMPDEST PUSH0 PUSH2 0x446 PUSH1 0x17 DUP4 PUSH2 0x402 JUMP JUMPDEST SWAP2 POP PUSH2 0x451 DUP3 PUSH2 0x412 JUMP JUMPDEST PUSH1 0x20 DUP3 ADD SWAP1 POP SWAP2 SWAP1 POP JUMP JUMPDEST PUSH0 PUSH1 0x20 DUP3 ADD SWAP1 POP DUP2 DUP2 SUB PUSH0 DUP4 ADD MSTORE PUSH2 0x473 DUP2 PUSH2 0x43A JUMP JUMPDEST SWAP1 POP SWAP2 SWAP1 POP JUMP JUMPDEST PUSH0 DUP2 SWAP1 POP SWAP3 SWAP2 POP POP JUMP JUMPDEST PUSH32 0x66756E635F7369676E61747572652875696E7432353620617267732900000000 PUSH0 DUP3 ADD MSTORE POP JUMP JUMPDEST PUSH0 PUSH2 0x4B8 PUSH1 0x1C DUP4 PUSH2 0x47A JUMP JUMPDEST SWAP2 POP PUSH2 0x4C3 DUP3 PUSH2 0x484 JUMP JUMPDEST PUSH1 0x1C DUP3 ADD SWAP1 POP SWAP2 SWAP1 POP JUMP JUMPDEST PUSH0 PUSH2 0x4D8 DUP3 PUSH2 0x4AC JUMP JUMPDEST SWAP2 POP DUP2 SWAP1 POP SWAP2 SWAP1 POP JUMP JUMPDEST PUSH32 0x4E487B7100000000000000000000000000000000000000000000000000000000 PUSH0 MSTORE PUSH1 0x41 PUSH1 0x4 MSTORE PUSH1 0x24 PUSH0 REVERT JUMPDEST PUSH32 0x4E487B7100000000000000000000000000000000000000000000000000000000 PUSH0 MSTORE PUSH1 0x22 PUSH1 0x4 MSTORE PUSH1 0x24 PUSH0 REVERT JUMPDEST PUSH0 PUSH1 0x2 DUP3 DIV SWAP1 POP PUSH1 0x1 DUP3 AND DUP1 PUSH2 0x553 JUMPI PUSH1 0x7F DUP3 AND SWAP2 POP JUMPDEST PUSH1 0x20 DUP3 LT DUP2 SUB PUSH2 0x566 JUMPI PUSH2 0x565 PUSH2 0x50F JUMP JUMPDEST JUMPDEST POP SWAP2 SWAP1 POP JUMP JUMPDEST PUSH0 DUP2 SWAP1 POP DUP2 PUSH0 MSTORE PUSH1 0x20 PUSH0 KECCAK256 SWAP1 POP SWAP2 SWAP1 POP JUMP JUMPDEST PUSH0 PUSH1 0x20 PUSH1 0x1F DUP4 ADD DIV SWAP1 POP SWAP2 SWAP1 POP JUMP JUMPDEST PUSH0 DUP3 DUP3 SHL SWAP1 POP SWAP3 SWAP2 POP POP JUMP JUMPDEST PUSH0 PUSH1 0x8 DUP4 MUL PUSH2 0x5C8 PUSH32 0xFFFFFFFFFFFFFFFFFFFFFFFFFFFFFFFFFFFFFFFFFFFFFFFFFFFFFFFFFFFFFFFF DUP3 PUSH2 0x58D JUMP JUMPDEST PUSH2 0x5D2 DUP7 DUP4 PUSH2 0x58D JUMP JUMPDEST SWAP6 POP DUP1 NOT DUP5 AND SWAP4 POP DUP1 DUP7 AND DUP5 OR SWAP3 POP POP POP SWAP4 SWAP3 POP POP POP JUMP JUMPDEST PUSH0 DUP2 SWAP1 POP SWAP2 SWAP1 POP JUMP JUMPDEST PUSH0 DUP2 SWAP1 POP SWAP2 SWAP1 POP JUMP JUMPDEST PUSH0 PUSH2 0x616 PUSH2 0x611 PUSH2 0x60C DUP5 PUSH2 0x5EA JUMP JUMPDEST PUSH2 0x5F3 JUMP JUMPDEST PUSH2 0x5EA JUMP JUMPDEST SWAP1 POP SWAP2 SWAP1 POP JUMP JUMPDEST PUSH0 DUP2 SWAP1 POP SWAP2 SWAP1 POP JUMP JUMPDEST PUSH2 0x62F DUP4 PUSH2 0x5FC JUMP JUMPDEST PUSH2 0x643 PUSH2 0x63B DUP3 PUSH2 0x61D JUMP JUMPDEST DUP5 DUP5 SLOAD PUSH2 0x599 JUMP JUMPDEST DUP3 SSTORE POP POP POP POP JUMP JUMPDEST PUSH0 SWAP1 JUMP JUMPDEST PUSH2 0x657 PUSH2 0x64B JUMP JUMPDEST PUSH2 0x662 DUP2 DUP5 DUP5 PUSH2 0x626 JUMP JUMPDEST POP POP POP JUMP JUMPDEST JUMPDEST DUP2 DUP2 LT ISZERO PUSH2 0x685 JUMPI PUSH2 0x67A PUSH0 DUP3 PUSH2 0x64F JUMP JUMPDEST PUSH1 0x1 DUP2 ADD SWAP1 POP PUSH2 0x668 JUMP JUMPDEST POP POP JUMP JUMPDEST PUSH1 0x1F DUP3 GT ISZERO PUSH2 0x6CA JUMPI PUSH2 0x69B DUP2 PUSH2 0x56C JUMP JUMPDEST PUSH2 0x6A4 DUP5 PUSH2 0x57E JUMP JUMPDEST DUP2 ADD PUSH1 0x20 DUP6 LT ISZERO PUSH2 0x6B3 JUMPI DUP2 SWAP1 POP JUMPDEST PUSH2 0x6C7 PUSH2 0x6BF DUP6 PUSH2 0x57E JUMP JUMPDEST DUP4 ADD DUP3 PUSH2 0x667 JUMP JUMPDEST POP POP JUMPDEST POP POP POP JUMP JUMPDEST PUSH0 DUP3 DUP3 SHR SWAP1 POP SWAP3 SWAP2 POP POP JUMP JUMPDEST PUSH0 PUSH2 0x6EA PUSH0 NOT DUP5 PUSH1 0x8 MUL PUSH2 0x6CF JUMP JUMPDEST NOT DUP1 DUP4 AND SWAP2 POP POP SWAP3 SWAP2 POP POP JUMP JUMPDEST PUSH0 PUSH2 0x702 DUP4 DUP4 PUSH2 0x6DB JUMP JUMPDEST SWAP2 POP DUP3 PUSH1 0x2 MUL DUP3 OR SWAP1 POP SWAP3 SWAP2 POP POP JUMP JUMPDEST PUSH2 0x71B DUP3 PUSH2 0x358 JUMP JUMPDEST PUSH8 0xFFFFFFFFFFFFFFFF DUP2 GT ISZERO PUSH2 0x734 JUMPI PUSH2 0x733 PUSH2 0x4E2 JUMP JUMPDEST JUMPDEST PUSH2 0x73E DUP3 SLOAD PUSH2 0x53C JUMP JUMPDEST PUSH2 0x749 DUP3 DUP3 DUP6 PUSH2 0x689 JUMP JUMPDEST PUSH0 PUSH1 0x20 SWAP1 POP PUSH1 0x1F DUP4 GT PUSH1 0x1 DUP2 EQ PUSH2 0x77A JUMPI PUSH0 DUP5 ISZERO PUSH2 0x768 JUMPI DUP3 DUP8 ADD MLOAD SWAP1 POP JUMPDEST PUSH2 0x772 DUP6 DUP3 PUSH2 0x6F7 JUMP JUMPDEST DUP7 SSTORE POP PUSH2 0x7D9 JUMP JUMPDEST PUSH1 0x1F NOT DUP5 AND PUSH2 0x788 DUP7 PUSH2 0x56C JUMP JUMPDEST PUSH0 JUMPDEST DUP3 DUP2 LT ISZERO PUSH2 0x7AF JUMPI DUP5 DUP10 ADD MLOAD DUP3 SSTORE PUSH1 0x1 DUP3 ADD SWAP2 POP PUSH1 0x20 DUP6 ADD SWAP5 POP PUSH1 0x20 DUP2 ADD SWAP1 POP PUSH2 0x78A JUMP JUMPDEST DUP7 DUP4 LT ISZERO PUSH2 0x7CC JUMPI DUP5 DUP10 ADD MLOAD PUSH2 0x7C8 PUSH1 0x1F DUP10 AND DUP3 PUSH2 0x6DB JUMP JUMPDEST DUP4 SSTORE POP JUMPDEST PUSH1 0x1 PUSH1 0x2 DUP9 MUL ADD DUP9 SSTORE POP POP POP JUMPDEST POP POP POP POP POP POP JUMP INVALID LOG2 PUSH5 0x6970667358 0x22 SLT KECCAK256 SMOD SWAP16 TIMESTAMP LOG4 0xE3 PUSH1 0x29 EQ SWAP10 INVALID 0xD4 0xBF JUMPDEST PUSH1 0x3B 0x23 0x2C SWAP5 0xEA DIV DUP10 0x27 DUP11 DUP14 PUSH16 0xB9394730DB543F64736F6C6343000816 STOP CALLER "
				},
				"gasEstimates": {
					"creation": {
						"codeDepositCost": "414200",
						"executionCost": "447",
						"totalCost": "414647"
					},
					"external": {
						"dataVal()": "infinite",
						"depositUsingCall(address)": "infinite",
						"depositUsingSend(address)": "infinite",
						"depositUsingTransfer(address)": "infinite"
					}
				},
				"methodIdentifiers": {
					"dataVal()": "d8be34e9",
					"depositUsingCall(address)": "ce172b1c",
					"depositUsingSend(address)": "9869faa7",
					"depositUsingTransfer(address)": "5a19818d"
				}
			},
			"storageLayout": {
				"storage": [
					{
						"astId": 3,
						"contract": "Fall-2023/Copy_40_TransferSendCall.sol:TransferSendCall",
						"label": "dataVal",
						"offset": 0,
						"slot": "0",
						"type": "t_bytes_storage"
					}
				],
				"types": {
					"t_bytes_storage": {
						"encoding": "bytes",
						"label": "bytes",
						"numberOfBytes": "32"
					}
				}
			},
			"userdoc": {
				"kind": "user",
				"methods": {},
				"version": 1
			}
		}
	}
}