{
	"Fall-2023/Copy_Contract05.sol": {
		"Identity": {
			"abi": [
				{
					"inputs": [
						{
							"internalType": "uint256",
							"name": "value",
							"type": "uint256"
						},
						{
							"internalType": "uint256",
							"name": "shift",
							"type": "uint256"
						}
					],
					"name": "arithmeticLeftShift",
					"outputs": [
						{
							"internalType": "uint256",
							"name": "",
							"type": "uint256"
						}
					],
					"stateMutability": "pure",
					"type": "function"
				},
				{
					"inputs": [
						{
							"internalType": "uint256",
							"name": "value",
							"type": "uint256"
						},
						{
							"internalType": "uint256",
							"name": "shift",
							"type": "uint256"
						}
					],
					"name": "bitwiseLeftShift",
					"outputs": [
						{
							"internalType": "uint256",
							"name": "",
							"type": "uint256"
						}
					],
					"stateMutability": "pure",
					"type": "function"
				},
				{
					"inputs": [],
					"name": "getCount",
					"outputs": [
						{
							"internalType": "uint8",
							"name": "",
							"type": "uint8"
						}
					],
					"stateMutability": "view",
					"type": "function"
				}
			],
			"devdoc": {
				"kind": "dev",
				"methods": {},
				"version": 1
			},
			"evm": {
				"assembly": "    /* \"Fall-2023/Copy_Contract05.sol\":103:565  contract Identity... */\n  mstore(0x40, 0x80)\n    /* \"Fall-2023/Copy_Contract05.sol\":143:146  255 */\n  0xff\n    /* \"Fall-2023/Copy_Contract05.sol\":129:146  uint8 count = 255 */\n  0x00\n  dup1\n  0x0100\n  exp\n  dup2\n  sload\n  dup2\n  0xff\n  mul\n  not\n  and\n  swap1\n  dup4\n  0xff\n  and\n  mul\n  or\n  swap1\n  sstore\n  pop\n    /* \"Fall-2023/Copy_Contract05.sol\":103:565  contract Identity... */\n  callvalue\n  dup1\n  iszero\n  tag_1\n  jumpi\n  0x00\n  dup1\n  revert\ntag_1:\n  pop\n  dataSize(sub_0)\n  dup1\n  dataOffset(sub_0)\n  0x00\n  codecopy\n  0x00\n  return\nstop\n\nsub_0: assembly {\n        /* \"Fall-2023/Copy_Contract05.sol\":103:565  contract Identity... */\n      mstore(0x40, 0x80)\n      callvalue\n      dup1\n      iszero\n      tag_1\n      jumpi\n      0x00\n      dup1\n      revert\n    tag_1:\n      pop\n      jumpi(tag_2, lt(calldatasize, 0x04))\n      shr(0xe0, calldataload(0x00))\n      dup1\n      0x735e05ff\n      eq\n      tag_3\n      jumpi\n      dup1\n      0xa5d35e74\n      eq\n      tag_4\n      jumpi\n      dup1\n      0xa87d942c\n      eq\n      tag_5\n      jumpi\n    tag_2:\n      0x00\n      dup1\n      revert\n        /* \"Fall-2023/Copy_Contract05.sol\":429:562  function arithmeticLeftShift(uint256 value, uint256 shift) public pure returns (uint256) {... */\n    tag_3:\n      tag_6\n      0x04\n      dup1\n      calldatasize\n      sub\n      dup2\n      add\n      swap1\n      tag_7\n      swap2\n      swap1\n      tag_8\n      jump\t// in\n    tag_7:\n      tag_9\n      jump\t// in\n    tag_6:\n      mload(0x40)\n      tag_10\n      swap2\n      swap1\n      tag_11\n      jump\t// in\n    tag_10:\n      mload(0x40)\n      dup1\n      swap2\n      sub\n      swap1\n      return\n        /* \"Fall-2023/Copy_Contract05.sol\":242:368  function bitwiseLeftShift(uint256 value, uint256 shift) public pure returns (uint256) {... */\n    tag_4:\n      tag_12\n      0x04\n      dup1\n      calldatasize\n      sub\n      dup2\n      add\n      swap1\n      tag_13\n      swap2\n      swap1\n      tag_8\n      jump\t// in\n    tag_13:\n      tag_14\n      jump\t// in\n    tag_12:\n      mload(0x40)\n      tag_15\n      swap2\n      swap1\n      tag_11\n      jump\t// in\n    tag_15:\n      mload(0x40)\n      dup1\n      swap2\n      sub\n      swap1\n      return\n        /* \"Fall-2023/Copy_Contract05.sol\":154:234  function getCount() public view returns(uint8) {... */\n    tag_5:\n      tag_16\n      tag_17\n      jump\t// in\n    tag_16:\n      mload(0x40)\n      tag_18\n      swap2\n      swap1\n      tag_19\n      jump\t// in\n    tag_18:\n      mload(0x40)\n      dup1\n      swap2\n      sub\n      swap1\n      return\n        /* \"Fall-2023/Copy_Contract05.sol\":429:562  function arithmeticLeftShift(uint256 value, uint256 shift) public pure returns (uint256) {... */\n    tag_9:\n        /* \"Fall-2023/Copy_Contract05.sol\":509:516  uint256 */\n      0x00\n        /* \"Fall-2023/Copy_Contract05.sol\":548:553  shift */\n      dup2\n        /* \"Fall-2023/Copy_Contract05.sol\":545:546  2 */\n      0x02\n        /* \"Fall-2023/Copy_Contract05.sol\":545:553  2**shift */\n      tag_21\n      swap2\n      swap1\n      tag_22\n      jump\t// in\n    tag_21:\n        /* \"Fall-2023/Copy_Contract05.sol\":536:541  value */\n      dup4\n        /* \"Fall-2023/Copy_Contract05.sol\":536:554  value * (2**shift) */\n      tag_23\n      swap2\n      swap1\n      tag_24\n      jump\t// in\n    tag_23:\n        /* \"Fall-2023/Copy_Contract05.sol\":529:554  return value * (2**shift) */\n      swap1\n      pop\n        /* \"Fall-2023/Copy_Contract05.sol\":429:562  function arithmeticLeftShift(uint256 value, uint256 shift) public pure returns (uint256) {... */\n      swap3\n      swap2\n      pop\n      pop\n      jump\t// out\n        /* \"Fall-2023/Copy_Contract05.sol\":242:368  function bitwiseLeftShift(uint256 value, uint256 shift) public pure returns (uint256) {... */\n    tag_14:\n        /* \"Fall-2023/Copy_Contract05.sol\":319:326  uint256 */\n      0x00\n        /* \"Fall-2023/Copy_Contract05.sol\":355:360  shift */\n      dup2\n        /* \"Fall-2023/Copy_Contract05.sol\":346:351  value */\n      dup4\n        /* \"Fall-2023/Copy_Contract05.sol\":346:360  value << shift */\n      swap1\n      shl\n        /* \"Fall-2023/Copy_Contract05.sol\":339:360  return value << shift */\n      swap1\n      pop\n        /* \"Fall-2023/Copy_Contract05.sol\":242:368  function bitwiseLeftShift(uint256 value, uint256 shift) public pure returns (uint256) {... */\n      swap3\n      swap2\n      pop\n      pop\n      jump\t// out\n        /* \"Fall-2023/Copy_Contract05.sol\":154:234  function getCount() public view returns(uint8) {... */\n    tag_17:\n        /* \"Fall-2023/Copy_Contract05.sol\":194:199  uint8 */\n      0x00\n        /* \"Fall-2023/Copy_Contract05.sol\":225:226  1 */\n      0x01\n        /* \"Fall-2023/Copy_Contract05.sol\":219:224  count */\n      0x00\n      dup1\n      sload\n      swap1\n      0x0100\n      exp\n      swap1\n      div\n      0xff\n      and\n        /* \"Fall-2023/Copy_Contract05.sol\":219:226  count+1 */\n      tag_27\n      swap2\n      swap1\n      tag_28\n      jump\t// in\n    tag_27:\n        /* \"Fall-2023/Copy_Contract05.sol\":212:226  return count+1 */\n      swap1\n      pop\n        /* \"Fall-2023/Copy_Contract05.sol\":154:234  function getCount() public view returns(uint8) {... */\n      swap1\n      jump\t// out\n        /* \"#utility.yul\":88:205   */\n    tag_30:\n        /* \"#utility.yul\":197:198   */\n      0x00\n        /* \"#utility.yul\":194:195   */\n      dup1\n        /* \"#utility.yul\":187:199   */\n      revert\n        /* \"#utility.yul\":334:411   */\n    tag_32:\n        /* \"#utility.yul\":371:378   */\n      0x00\n        /* \"#utility.yul\":400:405   */\n      dup2\n        /* \"#utility.yul\":389:405   */\n      swap1\n      pop\n        /* \"#utility.yul\":334:411   */\n      swap2\n      swap1\n      pop\n      jump\t// out\n        /* \"#utility.yul\":417:539   */\n    tag_33:\n        /* \"#utility.yul\":490:514   */\n      tag_48\n        /* \"#utility.yul\":508:513   */\n      dup2\n        /* \"#utility.yul\":490:514   */\n      tag_32\n      jump\t// in\n    tag_48:\n        /* \"#utility.yul\":483:488   */\n      dup2\n        /* \"#utility.yul\":480:515   */\n      eq\n        /* \"#utility.yul\":470:533   */\n      tag_49\n      jumpi\n        /* \"#utility.yul\":529:530   */\n      0x00\n        /* \"#utility.yul\":526:527   */\n      dup1\n        /* \"#utility.yul\":519:531   */\n      revert\n        /* \"#utility.yul\":470:533   */\n    tag_49:\n        /* \"#utility.yul\":417:539   */\n      pop\n      jump\t// out\n        /* \"#utility.yul\":545:684   */\n    tag_34:\n        /* \"#utility.yul\":591:596   */\n      0x00\n        /* \"#utility.yul\":629:635   */\n      dup2\n        /* \"#utility.yul\":616:636   */\n      calldataload\n        /* \"#utility.yul\":607:636   */\n      swap1\n      pop\n        /* \"#utility.yul\":645:678   */\n      tag_51\n        /* \"#utility.yul\":672:677   */\n      dup2\n        /* \"#utility.yul\":645:678   */\n      tag_33\n      jump\t// in\n    tag_51:\n        /* \"#utility.yul\":545:684   */\n      swap3\n      swap2\n      pop\n      pop\n      jump\t// out\n        /* \"#utility.yul\":690:1164   */\n    tag_8:\n        /* \"#utility.yul\":758:764   */\n      0x00\n        /* \"#utility.yul\":766:772   */\n      dup1\n        /* \"#utility.yul\":815:817   */\n      0x40\n        /* \"#utility.yul\":803:812   */\n      dup4\n        /* \"#utility.yul\":794:801   */\n      dup6\n        /* \"#utility.yul\":790:813   */\n      sub\n        /* \"#utility.yul\":786:818   */\n      slt\n        /* \"#utility.yul\":783:902   */\n      iszero\n      tag_53\n      jumpi\n        /* \"#utility.yul\":821:900   */\n      tag_54\n      tag_30\n      jump\t// in\n    tag_54:\n        /* \"#utility.yul\":783:902   */\n    tag_53:\n        /* \"#utility.yul\":941:942   */\n      0x00\n        /* \"#utility.yul\":966:1019   */\n      tag_55\n        /* \"#utility.yul\":1011:1018   */\n      dup6\n        /* \"#utility.yul\":1002:1008   */\n      dup3\n        /* \"#utility.yul\":991:1000   */\n      dup7\n        /* \"#utility.yul\":987:1009   */\n      add\n        /* \"#utility.yul\":966:1019   */\n      tag_34\n      jump\t// in\n    tag_55:\n        /* \"#utility.yul\":956:1019   */\n      swap3\n      pop\n        /* \"#utility.yul\":912:1029   */\n      pop\n        /* \"#utility.yul\":1068:1070   */\n      0x20\n        /* \"#utility.yul\":1094:1147   */\n      tag_56\n        /* \"#utility.yul\":1139:1146   */\n      dup6\n        /* \"#utility.yul\":1130:1136   */\n      dup3\n        /* \"#utility.yul\":1119:1128   */\n      dup7\n        /* \"#utility.yul\":1115:1137   */\n      add\n        /* \"#utility.yul\":1094:1147   */\n      tag_34\n      jump\t// in\n    tag_56:\n        /* \"#utility.yul\":1084:1147   */\n      swap2\n      pop\n        /* \"#utility.yul\":1039:1157   */\n      pop\n        /* \"#utility.yul\":690:1164   */\n      swap3\n      pop\n      swap3\n      swap1\n      pop\n      jump\t// out\n        /* \"#utility.yul\":1170:1288   */\n    tag_35:\n        /* \"#utility.yul\":1257:1281   */\n      tag_58\n        /* \"#utility.yul\":1275:1280   */\n      dup2\n        /* \"#utility.yul\":1257:1281   */\n      tag_32\n      jump\t// in\n    tag_58:\n        /* \"#utility.yul\":1252:1255   */\n      dup3\n        /* \"#utility.yul\":1245:1282   */\n      mstore\n        /* \"#utility.yul\":1170:1288   */\n      pop\n      pop\n      jump\t// out\n        /* \"#utility.yul\":1294:1516   */\n    tag_11:\n        /* \"#utility.yul\":1387:1391   */\n      0x00\n        /* \"#utility.yul\":1425:1427   */\n      0x20\n        /* \"#utility.yul\":1414:1423   */\n      dup3\n        /* \"#utility.yul\":1410:1428   */\n      add\n        /* \"#utility.yul\":1402:1428   */\n      swap1\n      pop\n        /* \"#utility.yul\":1438:1509   */\n      tag_60\n        /* \"#utility.yul\":1506:1507   */\n      0x00\n        /* \"#utility.yul\":1495:1504   */\n      dup4\n        /* \"#utility.yul\":1491:1508   */\n      add\n        /* \"#utility.yul\":1482:1488   */\n      dup5\n        /* \"#utility.yul\":1438:1509   */\n      tag_35\n      jump\t// in\n    tag_60:\n        /* \"#utility.yul\":1294:1516   */\n      swap3\n      swap2\n      pop\n      pop\n      jump\t// out\n        /* \"#utility.yul\":1522:1608   */\n    tag_36:\n        /* \"#utility.yul\":1557:1564   */\n      0x00\n        /* \"#utility.yul\":1597:1601   */\n      0xff\n        /* \"#utility.yul\":1590:1595   */\n      dup3\n        /* \"#utility.yul\":1586:1602   */\n      and\n        /* \"#utility.yul\":1575:1602   */\n      swap1\n      pop\n        /* \"#utility.yul\":1522:1608   */\n      swap2\n      swap1\n      pop\n      jump\t// out\n        /* \"#utility.yul\":1614:1726   */\n    tag_37:\n        /* \"#utility.yul\":1697:1719   */\n      tag_63\n        /* \"#utility.yul\":1713:1718   */\n      dup2\n        /* \"#utility.yul\":1697:1719   */\n      tag_36\n      jump\t// in\n    tag_63:\n        /* \"#utility.yul\":1692:1695   */\n      dup3\n        /* \"#utility.yul\":1685:1720   */\n      mstore\n        /* \"#utility.yul\":1614:1726   */\n      pop\n      pop\n      jump\t// out\n        /* \"#utility.yul\":1732:1946   */\n    tag_19:\n        /* \"#utility.yul\":1821:1825   */\n      0x00\n        /* \"#utility.yul\":1859:1861   */\n      0x20\n        /* \"#utility.yul\":1848:1857   */\n      dup3\n        /* \"#utility.yul\":1844:1862   */\n      add\n        /* \"#utility.yul\":1836:1862   */\n      swap1\n      pop\n        /* \"#utility.yul\":1872:1939   */\n      tag_65\n        /* \"#utility.yul\":1936:1937   */\n      0x00\n        /* \"#utility.yul\":1925:1934   */\n      dup4\n        /* \"#utility.yul\":1921:1938   */\n      add\n        /* \"#utility.yul\":1912:1918   */\n      dup5\n        /* \"#utility.yul\":1872:1939   */\n      tag_37\n      jump\t// in\n    tag_65:\n        /* \"#utility.yul\":1732:1946   */\n      swap3\n      swap2\n      pop\n      pop\n      jump\t// out\n        /* \"#utility.yul\":1952:2132   */\n    tag_38:\n        /* \"#utility.yul\":2000:2077   */\n      0x4e487b7100000000000000000000000000000000000000000000000000000000\n        /* \"#utility.yul\":1997:1998   */\n      0x00\n        /* \"#utility.yul\":1990:2078   */\n      mstore\n        /* \"#utility.yul\":2097:2101   */\n      0x11\n        /* \"#utility.yul\":2094:2095   */\n      0x04\n        /* \"#utility.yul\":2087:2102   */\n      mstore\n        /* \"#utility.yul\":2121:2125   */\n      0x24\n        /* \"#utility.yul\":2118:2119   */\n      0x00\n        /* \"#utility.yul\":2111:2126   */\n      revert\n        /* \"#utility.yul\":2138:2240   */\n    tag_39:\n        /* \"#utility.yul\":2180:2188   */\n      0x00\n        /* \"#utility.yul\":2227:2232   */\n      dup2\n        /* \"#utility.yul\":2224:2225   */\n      0x01\n        /* \"#utility.yul\":2220:2233   */\n      shr\n        /* \"#utility.yul\":2199:2233   */\n      swap1\n      pop\n        /* \"#utility.yul\":2138:2240   */\n      swap2\n      swap1\n      pop\n      jump\t// out\n        /* \"#utility.yul\":2246:3094   */\n    tag_40:\n        /* \"#utility.yul\":2307:2312   */\n      0x00\n        /* \"#utility.yul\":2314:2318   */\n      dup1\n        /* \"#utility.yul\":2338:2344   */\n      dup3\n        /* \"#utility.yul\":2329:2344   */\n      swap2\n      pop\n        /* \"#utility.yul\":2362:2367   */\n      dup4\n        /* \"#utility.yul\":2353:2367   */\n      swap1\n      pop\n        /* \"#utility.yul\":2376:3088   */\n    tag_69:\n        /* \"#utility.yul\":2397:2398   */\n      0x01\n        /* \"#utility.yul\":2387:2395   */\n      dup6\n        /* \"#utility.yul\":2384:2399   */\n      gt\n        /* \"#utility.yul\":2376:3088   */\n      iszero\n      tag_71\n      jumpi\n        /* \"#utility.yul\":2492:2496   */\n      dup1\n        /* \"#utility.yul\":2487:2490   */\n      dup7\n        /* \"#utility.yul\":2483:2497   */\n      div\n        /* \"#utility.yul\":2477:2481   */\n      dup2\n        /* \"#utility.yul\":2474:2498   */\n      gt\n        /* \"#utility.yul\":2471:2521   */\n      iszero\n      tag_72\n      jumpi\n        /* \"#utility.yul\":2501:2519   */\n      tag_73\n      tag_38\n      jump\t// in\n    tag_73:\n        /* \"#utility.yul\":2471:2521   */\n    tag_72:\n        /* \"#utility.yul\":2551:2552   */\n      0x01\n        /* \"#utility.yul\":2541:2549   */\n      dup6\n        /* \"#utility.yul\":2537:2553   */\n      and\n        /* \"#utility.yul\":2534:2985   */\n      iszero\n      tag_74\n      jumpi\n        /* \"#utility.yul\":2966:2970   */\n      dup1\n        /* \"#utility.yul\":2959:2964   */\n      dup3\n        /* \"#utility.yul\":2955:2971   */\n      mul\n        /* \"#utility.yul\":2946:2971   */\n      swap2\n      pop\n        /* \"#utility.yul\":2534:2985   */\n    tag_74:\n        /* \"#utility.yul\":3016:3020   */\n      dup1\n        /* \"#utility.yul\":3010:3014   */\n      dup2\n        /* \"#utility.yul\":3006:3021   */\n      mul\n        /* \"#utility.yul\":2998:3021   */\n      swap1\n      pop\n        /* \"#utility.yul\":3046:3078   */\n      tag_75\n        /* \"#utility.yul\":3069:3077   */\n      dup6\n        /* \"#utility.yul\":3046:3078   */\n      tag_39\n      jump\t// in\n    tag_75:\n        /* \"#utility.yul\":3034:3078   */\n      swap5\n      pop\n        /* \"#utility.yul\":2376:3088   */\n      jump(tag_69)\n    tag_71:\n        /* \"#utility.yul\":2246:3094   */\n      swap5\n      pop\n      swap5\n      swap3\n      pop\n      pop\n      pop\n      jump\t// out\n        /* \"#utility.yul\":3100:4173   */\n    tag_41:\n        /* \"#utility.yul\":3154:3159   */\n      0x00\n        /* \"#utility.yul\":3345:3353   */\n      dup3\n        /* \"#utility.yul\":3335:3375   */\n      tag_77\n      jumpi\n        /* \"#utility.yul\":3366:3367   */\n      0x01\n        /* \"#utility.yul\":3357:3367   */\n      swap1\n      pop\n        /* \"#utility.yul\":3368:3373   */\n      jump(tag_76)\n        /* \"#utility.yul\":3335:3375   */\n    tag_77:\n        /* \"#utility.yul\":3394:3398   */\n      dup2\n        /* \"#utility.yul\":3384:3420   */\n      tag_78\n      jumpi\n        /* \"#utility.yul\":3411:3412   */\n      0x00\n        /* \"#utility.yul\":3402:3412   */\n      swap1\n      pop\n        /* \"#utility.yul\":3413:3418   */\n      jump(tag_76)\n        /* \"#utility.yul\":3384:3420   */\n    tag_78:\n        /* \"#utility.yul\":3480:3484   */\n      dup2\n        /* \"#utility.yul\":3528:3529   */\n      0x01\n        /* \"#utility.yul\":3523:3550   */\n      dup2\n      eq\n      tag_80\n      jumpi\n        /* \"#utility.yul\":3564:3565   */\n      0x02\n        /* \"#utility.yul\":3559:3750   */\n      dup2\n      eq\n      tag_81\n      jumpi\n        /* \"#utility.yul\":3473:3750   */\n      jump(tag_79)\n        /* \"#utility.yul\":3523:3550   */\n    tag_80:\n        /* \"#utility.yul\":3541:3542   */\n      0x01\n        /* \"#utility.yul\":3532:3542   */\n      swap2\n      pop\n        /* \"#utility.yul\":3543:3548   */\n      pop\n      jump(tag_76)\n        /* \"#utility.yul\":3559:3750   */\n    tag_81:\n        /* \"#utility.yul\":3604:3607   */\n      0xff\n        /* \"#utility.yul\":3594:3602   */\n      dup5\n        /* \"#utility.yul\":3591:3608   */\n      gt\n        /* \"#utility.yul\":3588:3631   */\n      iszero\n      tag_82\n      jumpi\n        /* \"#utility.yul\":3611:3629   */\n      tag_83\n      tag_38\n      jump\t// in\n    tag_83:\n        /* \"#utility.yul\":3588:3631   */\n    tag_82:\n        /* \"#utility.yul\":3660:3668   */\n      dup4\n        /* \"#utility.yul\":3657:3658   */\n      0x02\n        /* \"#utility.yul\":3653:3669   */\n      exp\n        /* \"#utility.yul\":3644:3669   */\n      swap2\n      pop\n        /* \"#utility.yul\":3695:3698   */\n      dup5\n        /* \"#utility.yul\":3688:3693   */\n      dup3\n        /* \"#utility.yul\":3685:3699   */\n      gt\n        /* \"#utility.yul\":3682:3722   */\n      iszero\n      tag_84\n      jumpi\n        /* \"#utility.yul\":3702:3720   */\n      tag_85\n      tag_38\n      jump\t// in\n    tag_85:\n        /* \"#utility.yul\":3682:3722   */\n    tag_84:\n        /* \"#utility.yul\":3735:3740   */\n      pop\n      jump(tag_76)\n        /* \"#utility.yul\":3473:3750   */\n    tag_79:\n      pop\n        /* \"#utility.yul\":3859:3861   */\n      0x20\n        /* \"#utility.yul\":3849:3857   */\n      dup4\n        /* \"#utility.yul\":3846:3862   */\n      lt\n        /* \"#utility.yul\":3840:3843   */\n      0x0133\n        /* \"#utility.yul\":3834:3838   */\n      dup4\n        /* \"#utility.yul\":3831:3844   */\n      lt\n        /* \"#utility.yul\":3827:3863   */\n      and\n        /* \"#utility.yul\":3809:3811   */\n      0x4e\n        /* \"#utility.yul\":3799:3807   */\n      dup5\n        /* \"#utility.yul\":3796:3812   */\n      lt\n        /* \"#utility.yul\":3791:3793   */\n      0x0b\n        /* \"#utility.yul\":3785:3789   */\n      dup5\n        /* \"#utility.yul\":3782:3794   */\n      lt\n        /* \"#utility.yul\":3778:3813   */\n      and\n        /* \"#utility.yul\":3762:3873   */\n      or\n        /* \"#utility.yul\":3759:4005   */\n      iszero\n      tag_86\n      jumpi\n        /* \"#utility.yul\":3915:3923   */\n      dup3\n        /* \"#utility.yul\":3909:3913   */\n      dup3\n        /* \"#utility.yul\":3905:3924   */\n      exp\n        /* \"#utility.yul\":3896:3924   */\n      swap1\n      pop\n        /* \"#utility.yul\":3950:3953   */\n      dup4\n        /* \"#utility.yul\":3943:3948   */\n      dup2\n        /* \"#utility.yul\":3940:3954   */\n      gt\n        /* \"#utility.yul\":3937:3977   */\n      iszero\n      tag_87\n      jumpi\n        /* \"#utility.yul\":3957:3975   */\n      tag_88\n      tag_38\n      jump\t// in\n    tag_88:\n        /* \"#utility.yul\":3937:3977   */\n    tag_87:\n        /* \"#utility.yul\":3990:3995   */\n      jump(tag_76)\n        /* \"#utility.yul\":3759:4005   */\n    tag_86:\n        /* \"#utility.yul\":4030:4072   */\n      tag_89\n        /* \"#utility.yul\":4068:4071   */\n      dup5\n        /* \"#utility.yul\":4058:4066   */\n      dup5\n        /* \"#utility.yul\":4052:4056   */\n      dup5\n        /* \"#utility.yul\":4049:4050   */\n      0x01\n        /* \"#utility.yul\":4030:4072   */\n      tag_40\n      jump\t// in\n    tag_89:\n        /* \"#utility.yul\":4015:4072   */\n      swap3\n      pop\n      swap1\n      pop\n        /* \"#utility.yul\":4104:4108   */\n      dup2\n        /* \"#utility.yul\":4099:4102   */\n      dup5\n        /* \"#utility.yul\":4095:4109   */\n      div\n        /* \"#utility.yul\":4088:4093   */\n      dup2\n        /* \"#utility.yul\":4085:4110   */\n      gt\n        /* \"#utility.yul\":4082:4133   */\n      iszero\n      tag_90\n      jumpi\n        /* \"#utility.yul\":4113:4131   */\n      tag_91\n      tag_38\n      jump\t// in\n    tag_91:\n        /* \"#utility.yul\":4082:4133   */\n    tag_90:\n        /* \"#utility.yul\":4162:4166   */\n      dup2\n        /* \"#utility.yul\":4155:4160   */\n      dup2\n        /* \"#utility.yul\":4151:4167   */\n      mul\n        /* \"#utility.yul\":4142:4167   */\n      swap1\n      pop\n        /* \"#utility.yul\":3100:4173   */\n    tag_76:\n      swap4\n      swap3\n      pop\n      pop\n      pop\n      jump\t// out\n        /* \"#utility.yul\":4179:4464   */\n    tag_22:\n        /* \"#utility.yul\":4239:4244   */\n      0x00\n        /* \"#utility.yul\":4263:4286   */\n      tag_93\n        /* \"#utility.yul\":4281:4285   */\n      dup3\n        /* \"#utility.yul\":4263:4286   */\n      tag_32\n      jump\t// in\n    tag_93:\n        /* \"#utility.yul\":4255:4286   */\n      swap2\n      pop\n        /* \"#utility.yul\":4307:4334   */\n      tag_94\n        /* \"#utility.yul\":4325:4333   */\n      dup4\n        /* \"#utility.yul\":4307:4334   */\n      tag_32\n      jump\t// in\n    tag_94:\n        /* \"#utility.yul\":4295:4334   */\n      swap3\n      pop\n        /* \"#utility.yul\":4353:4457   */\n      tag_95\n        /* \"#utility.yul\":4390:4456   */\n      0xffffffffffffffffffffffffffffffffffffffffffffffffffffffffffffffff\n        /* \"#utility.yul\":4380:4388   */\n      dup5\n        /* \"#utility.yul\":4374:4378   */\n      dup5\n        /* \"#utility.yul\":4353:4457   */\n      tag_41\n      jump\t// in\n    tag_95:\n        /* \"#utility.yul\":4344:4457   */\n      swap1\n      pop\n        /* \"#utility.yul\":4179:4464   */\n      swap3\n      swap2\n      pop\n      pop\n      jump\t// out\n        /* \"#utility.yul\":4470:4880   */\n    tag_24:\n        /* \"#utility.yul\":4510:4517   */\n      0x00\n        /* \"#utility.yul\":4533:4553   */\n      tag_97\n        /* \"#utility.yul\":4551:4552   */\n      dup3\n        /* \"#utility.yul\":4533:4553   */\n      tag_32\n      jump\t// in\n    tag_97:\n        /* \"#utility.yul\":4528:4553   */\n      swap2\n      pop\n        /* \"#utility.yul\":4567:4587   */\n      tag_98\n        /* \"#utility.yul\":4585:4586   */\n      dup4\n        /* \"#utility.yul\":4567:4587   */\n      tag_32\n      jump\t// in\n    tag_98:\n        /* \"#utility.yul\":4562:4587   */\n      swap3\n      pop\n        /* \"#utility.yul\":4622:4623   */\n      dup3\n        /* \"#utility.yul\":4619:4620   */\n      dup3\n        /* \"#utility.yul\":4615:4624   */\n      mul\n        /* \"#utility.yul\":4644:4674   */\n      tag_99\n        /* \"#utility.yul\":4662:4673   */\n      dup2\n        /* \"#utility.yul\":4644:4674   */\n      tag_32\n      jump\t// in\n    tag_99:\n        /* \"#utility.yul\":4633:4674   */\n      swap2\n      pop\n        /* \"#utility.yul\":4823:4824   */\n      dup3\n        /* \"#utility.yul\":4814:4821   */\n      dup3\n        /* \"#utility.yul\":4810:4825   */\n      div\n        /* \"#utility.yul\":4807:4808   */\n      dup5\n        /* \"#utility.yul\":4804:4826   */\n      eq\n        /* \"#utility.yul\":4784:4785   */\n      dup4\n        /* \"#utility.yul\":4777:4786   */\n      iszero\n        /* \"#utility.yul\":4757:4840   */\n      or\n        /* \"#utility.yul\":4734:4873   */\n      tag_100\n      jumpi\n        /* \"#utility.yul\":4853:4871   */\n      tag_101\n      tag_38\n      jump\t// in\n    tag_101:\n        /* \"#utility.yul\":4734:4873   */\n    tag_100:\n        /* \"#utility.yul\":4518:4880   */\n      pop\n        /* \"#utility.yul\":4470:4880   */\n      swap3\n      swap2\n      pop\n      pop\n      jump\t// out\n        /* \"#utility.yul\":4886:5074   */\n    tag_28:\n        /* \"#utility.yul\":4924:4927   */\n      0x00\n        /* \"#utility.yul\":4943:4961   */\n      tag_103\n        /* \"#utility.yul\":4959:4960   */\n      dup3\n        /* \"#utility.yul\":4943:4961   */\n      tag_36\n      jump\t// in\n    tag_103:\n        /* \"#utility.yul\":4938:4961   */\n      swap2\n      pop\n        /* \"#utility.yul\":4975:4993   */\n      tag_104\n        /* \"#utility.yul\":4991:4992   */\n      dup4\n        /* \"#utility.yul\":4975:4993   */\n      tag_36\n      jump\t// in\n    tag_104:\n        /* \"#utility.yul\":4970:4993   */\n      swap3\n      pop\n        /* \"#utility.yul\":5016:5017   */\n      dup3\n        /* \"#utility.yul\":5013:5014   */\n      dup3\n        /* \"#utility.yul\":5009:5018   */\n      add\n        /* \"#utility.yul\":5002:5018   */\n      swap1\n      pop\n        /* \"#utility.yul\":5039:5043   */\n      0xff\n        /* \"#utility.yul\":5034:5037   */\n      dup2\n        /* \"#utility.yul\":5031:5044   */\n      gt\n        /* \"#utility.yul\":5028:5067   */\n      iszero\n      tag_105\n      jumpi\n        /* \"#utility.yul\":5047:5065   */\n      tag_106\n      tag_38\n      jump\t// in\n    tag_106:\n        /* \"#utility.yul\":5028:5067   */\n    tag_105:\n        /* \"#utility.yul\":4886:5074   */\n      swap3\n      swap2\n      pop\n      pop\n      jump\t// out\n\n    auxdata: 0xa26469706673582212207f9a96ba10de78dc50cbcc610fa43b127a01b80806772adef993acafb0a6409e64736f6c63430008160033\n}\n",
				"bytecode": {
					"linkReferences": {},
					"object": "608060405260ff5f806101000a81548160ff021916908360ff160217905550348015610029575f80fd5b50610430806100375f395ff3fe608060405234801561000f575f80fd5b506004361061003f575f3560e01c8063735e05ff14610043578063a5d35e7414610073578063a87d942c146100a3575b5f80fd5b61005d60048036038101906100589190610145565b6100c1565b60405161006a9190610192565b60405180910390f35b61008d60048036038101906100889190610145565b6100e2565b60405161009a9190610192565b60405180910390f35b6100ab6100ef565b6040516100b891906101c6565b60405180910390f35b5f8160026100cf919061033b565b836100da9190610385565b905092915050565b5f8183901b905092915050565b5f60015f8054906101000a900460ff1661010991906103c6565b905090565b5f80fd5b5f819050919050565b61012481610112565b811461012e575f80fd5b50565b5f8135905061013f8161011b565b92915050565b5f806040838503121561015b5761015a61010e565b5b5f61016885828601610131565b925050602061017985828601610131565b9150509250929050565b61018c81610112565b82525050565b5f6020820190506101a55f830184610183565b92915050565b5f60ff82169050919050565b6101c0816101ab565b82525050565b5f6020820190506101d95f8301846101b7565b92915050565b7f4e487b71000000000000000000000000000000000000000000000000000000005f52601160045260245ffd5b5f8160011c9050919050565b5f808291508390505b60018511156102615780860481111561023d5761023c6101df565b5b600185161561024c5780820291505b808102905061025a8561020c565b9450610221565b94509492505050565b5f826102795760019050610334565b81610286575f9050610334565b816001811461029c57600281146102a6576102d5565b6001915050610334565b60ff8411156102b8576102b76101df565b5b8360020a9150848211156102cf576102ce6101df565b5b50610334565b5060208310610133831016604e8410600b841016171561030a5782820a905083811115610305576103046101df565b5b610334565b6103178484846001610218565b9250905081840481111561032e5761032d6101df565b5b81810290505b9392505050565b5f61034582610112565b915061035083610112565b925061037d7fffffffffffffffffffffffffffffffffffffffffffffffffffffffffffffffff848461026a565b905092915050565b5f61038f82610112565b915061039a83610112565b92508282026103a881610112565b915082820484148315176103bf576103be6101df565b5b5092915050565b5f6103d0826101ab565b91506103db836101ab565b9250828201905060ff8111156103f4576103f36101df565b5b9291505056fea26469706673582212207f9a96ba10de78dc50cbcc610fa43b127a01b80806772adef993acafb0a6409e64736f6c63430008160033",
					"opcodes": "PUSH1 0x80 PUSH1 0x40 MSTORE PUSH1 0xFF PUSH0 DUP1 PUSH2 0x100 EXP DUP2 SLOAD DUP2 PUSH1 0xFF MUL NOT AND SWAP1 DUP4 PUSH1 0xFF AND MUL OR SWAP1 SSTORE POP CALLVALUE DUP1 ISZERO PUSH2 0x29 JUMPI PUSH0 DUP1 REVERT JUMPDEST POP PUSH2 0x430 DUP1 PUSH2 0x37 PUSH0 CODECOPY PUSH0 RETURN INVALID PUSH1 0x80 PUSH1 0x40 MSTORE CALLVALUE DUP1 ISZERO PUSH2 0xF JUMPI PUSH0 DUP1 REVERT JUMPDEST POP PUSH1 0x4 CALLDATASIZE LT PUSH2 0x3F JUMPI PUSH0 CALLDATALOAD PUSH1 0xE0 SHR DUP1 PUSH4 0x735E05FF EQ PUSH2 0x43 JUMPI DUP1 PUSH4 0xA5D35E74 EQ PUSH2 0x73 JUMPI DUP1 PUSH4 0xA87D942C EQ PUSH2 0xA3 JUMPI JUMPDEST PUSH0 DUP1 REVERT JUMPDEST PUSH2 0x5D PUSH1 0x4 DUP1 CALLDATASIZE SUB DUP2 ADD SWAP1 PUSH2 0x58 SWAP2 SWAP1 PUSH2 0x145 JUMP JUMPDEST PUSH2 0xC1 JUMP JUMPDEST PUSH1 0x40 MLOAD PUSH2 0x6A SWAP2 SWAP1 PUSH2 0x192 JUMP JUMPDEST PUSH1 0x40 MLOAD DUP1 SWAP2 SUB SWAP1 RETURN JUMPDEST PUSH2 0x8D PUSH1 0x4 DUP1 CALLDATASIZE SUB DUP2 ADD SWAP1 PUSH2 0x88 SWAP2 SWAP1 PUSH2 0x145 JUMP JUMPDEST PUSH2 0xE2 JUMP JUMPDEST PUSH1 0x40 MLOAD PUSH2 0x9A SWAP2 SWAP1 PUSH2 0x192 JUMP JUMPDEST PUSH1 0x40 MLOAD DUP1 SWAP2 SUB SWAP1 RETURN JUMPDEST PUSH2 0xAB PUSH2 0xEF JUMP JUMPDEST PUSH1 0x40 MLOAD PUSH2 0xB8 SWAP2 SWAP1 PUSH2 0x1C6 JUMP JUMPDEST PUSH1 0x40 MLOAD DUP1 SWAP2 SUB SWAP1 RETURN JUMPDEST PUSH0 DUP2 PUSH1 0x2 PUSH2 0xCF SWAP2 SWAP1 PUSH2 0x33B JUMP JUMPDEST DUP4 PUSH2 0xDA SWAP2 SWAP1 PUSH2 0x385 JUMP JUMPDEST SWAP1 POP SWAP3 SWAP2 POP POP JUMP JUMPDEST PUSH0 DUP2 DUP4 SWAP1 SHL SWAP1 POP SWAP3 SWAP2 POP POP JUMP JUMPDEST PUSH0 PUSH1 0x1 PUSH0 DUP1 SLOAD SWAP1 PUSH2 0x100 EXP SWAP1 DIV PUSH1 0xFF AND PUSH2 0x109 SWAP2 SWAP1 PUSH2 0x3C6 JUMP JUMPDEST SWAP1 POP SWAP1 JUMP JUMPDEST PUSH0 DUP1 REVERT JUMPDEST PUSH0 DUP2 SWAP1 POP SWAP2 SWAP1 POP JUMP JUMPDEST PUSH2 0x124 DUP2 PUSH2 0x112 JUMP JUMPDEST DUP2 EQ PUSH2 0x12E JUMPI PUSH0 DUP1 REVERT JUMPDEST POP JUMP JUMPDEST PUSH0 DUP2 CALLDATALOAD SWAP1 POP PUSH2 0x13F DUP2 PUSH2 0x11B JUMP JUMPDEST SWAP3 SWAP2 POP POP JUMP JUMPDEST PUSH0 DUP1 PUSH1 0x40 DUP4 DUP6 SUB SLT ISZERO PUSH2 0x15B JUMPI PUSH2 0x15A PUSH2 0x10E JUMP JUMPDEST JUMPDEST PUSH0 PUSH2 0x168 DUP6 DUP3 DUP7 ADD PUSH2 0x131 JUMP JUMPDEST SWAP3 POP POP PUSH1 0x20 PUSH2 0x179 DUP6 DUP3 DUP7 ADD PUSH2 0x131 JUMP JUMPDEST SWAP2 POP POP SWAP3 POP SWAP3 SWAP1 POP JUMP JUMPDEST PUSH2 0x18C DUP2 PUSH2 0x112 JUMP JUMPDEST DUP3 MSTORE POP POP JUMP JUMPDEST PUSH0 PUSH1 0x20 DUP3 ADD SWAP1 POP PUSH2 0x1A5 PUSH0 DUP4 ADD DUP5 PUSH2 0x183 JUMP JUMPDEST SWAP3 SWAP2 POP POP JUMP JUMPDEST PUSH0 PUSH1 0xFF DUP3 AND SWAP1 POP SWAP2 SWAP1 POP JUMP JUMPDEST PUSH2 0x1C0 DUP2 PUSH2 0x1AB JUMP JUMPDEST DUP3 MSTORE POP POP JUMP JUMPDEST PUSH0 PUSH1 0x20 DUP3 ADD SWAP1 POP PUSH2 0x1D9 PUSH0 DUP4 ADD DUP5 PUSH2 0x1B7 JUMP JUMPDEST SWAP3 SWAP2 POP POP JUMP JUMPDEST PUSH32 0x4E487B7100000000000000000000000000000000000000000000000000000000 PUSH0 MSTORE PUSH1 0x11 PUSH1 0x4 MSTORE PUSH1 0x24 PUSH0 REVERT JUMPDEST PUSH0 DUP2 PUSH1 0x1 SHR SWAP1 POP SWAP2 SWAP1 POP JUMP JUMPDEST PUSH0 DUP1 DUP3 SWAP2 POP DUP4 SWAP1 POP JUMPDEST PUSH1 0x1 DUP6 GT ISZERO PUSH2 0x261 JUMPI DUP1 DUP7 DIV DUP2 GT ISZERO PUSH2 0x23D JUMPI PUSH2 0x23C PUSH2 0x1DF JUMP JUMPDEST JUMPDEST PUSH1 0x1 DUP6 AND ISZERO PUSH2 0x24C JUMPI DUP1 DUP3 MUL SWAP2 POP JUMPDEST DUP1 DUP2 MUL SWAP1 POP PUSH2 0x25A DUP6 PUSH2 0x20C JUMP JUMPDEST SWAP5 POP PUSH2 0x221 JUMP JUMPDEST SWAP5 POP SWAP5 SWAP3 POP POP POP JUMP JUMPDEST PUSH0 DUP3 PUSH2 0x279 JUMPI PUSH1 0x1 SWAP1 POP PUSH2 0x334 JUMP JUMPDEST DUP2 PUSH2 0x286 JUMPI PUSH0 SWAP1 POP PUSH2 0x334 JUMP JUMPDEST DUP2 PUSH1 0x1 DUP2 EQ PUSH2 0x29C JUMPI PUSH1 0x2 DUP2 EQ PUSH2 0x2A6 JUMPI PUSH2 0x2D5 JUMP JUMPDEST PUSH1 0x1 SWAP2 POP POP PUSH2 0x334 JUMP JUMPDEST PUSH1 0xFF DUP5 GT ISZERO PUSH2 0x2B8 JUMPI PUSH2 0x2B7 PUSH2 0x1DF JUMP JUMPDEST JUMPDEST DUP4 PUSH1 0x2 EXP SWAP2 POP DUP5 DUP3 GT ISZERO PUSH2 0x2CF JUMPI PUSH2 0x2CE PUSH2 0x1DF JUMP JUMPDEST JUMPDEST POP PUSH2 0x334 JUMP JUMPDEST POP PUSH1 0x20 DUP4 LT PUSH2 0x133 DUP4 LT AND PUSH1 0x4E DUP5 LT PUSH1 0xB DUP5 LT AND OR ISZERO PUSH2 0x30A JUMPI DUP3 DUP3 EXP SWAP1 POP DUP4 DUP2 GT ISZERO PUSH2 0x305 JUMPI PUSH2 0x304 PUSH2 0x1DF JUMP JUMPDEST JUMPDEST PUSH2 0x334 JUMP JUMPDEST PUSH2 0x317 DUP5 DUP5 DUP5 PUSH1 0x1 PUSH2 0x218 JUMP JUMPDEST SWAP3 POP SWAP1 POP DUP2 DUP5 DIV DUP2 GT ISZERO PUSH2 0x32E JUMPI PUSH2 0x32D PUSH2 0x1DF JUMP JUMPDEST JUMPDEST DUP2 DUP2 MUL SWAP1 POP JUMPDEST SWAP4 SWAP3 POP POP POP JUMP JUMPDEST PUSH0 PUSH2 0x345 DUP3 PUSH2 0x112 JUMP JUMPDEST SWAP2 POP PUSH2 0x350 DUP4 PUSH2 0x112 JUMP JUMPDEST SWAP3 POP PUSH2 0x37D PUSH32 0xFFFFFFFFFFFFFFFFFFFFFFFFFFFFFFFFFFFFFFFFFFFFFFFFFFFFFFFFFFFFFFFF DUP5 DUP5 PUSH2 0x26A JUMP JUMPDEST SWAP1 POP SWAP3 SWAP2 POP POP JUMP JUMPDEST PUSH0 PUSH2 0x38F DUP3 PUSH2 0x112 JUMP JUMPDEST SWAP2 POP PUSH2 0x39A DUP4 PUSH2 0x112 JUMP JUMPDEST SWAP3 POP DUP3 DUP3 MUL PUSH2 0x3A8 DUP2 PUSH2 0x112 JUMP JUMPDEST SWAP2 POP DUP3 DUP3 DIV DUP5 EQ DUP4 ISZERO OR PUSH2 0x3BF JUMPI PUSH2 0x3BE PUSH2 0x1DF JUMP JUMPDEST JUMPDEST POP SWAP3 SWAP2 POP POP JUMP JUMPDEST PUSH0 PUSH2 0x3D0 DUP3 PUSH2 0x1AB JUMP JUMPDEST SWAP2 POP PUSH2 0x3DB DUP4 PUSH2 0x1AB JUMP JUMPDEST SWAP3 POP DUP3 DUP3 ADD SWAP1 POP PUSH1 0xFF DUP2 GT ISZERO PUSH2 0x3F4 JUMPI PUSH2 0x3F3 PUSH2 0x1DF JUMP JUMPDEST JUMPDEST SWAP3 SWAP2 POP POP JUMP INVALID LOG2 PUSH5 0x6970667358 0x22 SLT KECCAK256 PUSH32 0x9A96BA10DE78DC50CBCC610FA43B127A01B80806772ADEF993ACAFB0A6409E64 PUSH20 0x6F6C634300081600330000000000000000000000 "
				},
				"gasEstimates": {
					"creation": {
						"codeDepositCost": "214400",
						"executionCost": "24521",
						"totalCost": "238921"
					},
					"external": {
						"arithmeticLeftShift(uint256,uint256)": "infinite",
						"bitwiseLeftShift(uint256,uint256)": "infinite",
						"getCount()": "infinite"
					}
				},
				"methodIdentifiers": {
					"arithmeticLeftShift(uint256,uint256)": "735e05ff",
					"bitwiseLeftShift(uint256,uint256)": "a5d35e74",
					"getCount()": "a87d942c"
				}
			},
			"storageLayout": {
				"storage": [
					{
						"astId": 4,
						"contract": "Fall-2023/Copy_Contract05.sol:Identity",
						"label": "count",
						"offset": 0,
						"slot": "0",
						"type": "t_uint8"
					}
				],
				"types": {
					"t_uint8": {
						"encoding": "inplace",
						"label": "uint8",
						"numberOfBytes": "1"
					}
				}
			},
			"userdoc": {
				"kind": "user",
				"methods": {},
				"version": 1
			}
		}
	}
}