{
	"Fall-2023/24_MultipleInheritance.sol": {
		"Student": {
			"abi": [
				{
					"inputs": [
						{
							"internalType": "uint256",
							"name": "_age",
							"type": "uint256"
						},
						{
							"internalType": "string",
							"name": "_name",
							"type": "string"
						},
						{
							"internalType": "uint256",
							"name": "_roll_no",
							"type": "uint256"
						}
					],
					"stateMutability": "nonpayable",
					"type": "constructor"
				},
				{
					"inputs": [],
					"name": "f1",
					"outputs": [
						{
							"internalType": "uint256",
							"name": "",
							"type": "uint256"
						}
					],
					"stateMutability": "pure",
					"type": "function"
				},
				{
					"inputs": [],
					"name": "getAge",
					"outputs": [
						{
							"internalType": "uint256",
							"name": "",
							"type": "uint256"
						}
					],
					"stateMutability": "view",
					"type": "function"
				},
				{
					"inputs": [],
					"name": "name",
					"outputs": [
						{
							"internalType": "string",
							"name": "",
							"type": "string"
						}
					],
					"stateMutability": "view",
					"type": "function"
				},
				{
					"inputs": [],
					"name": "roll_no",
					"outputs": [
						{
							"internalType": "uint256",
							"name": "",
							"type": "uint256"
						}
					],
					"stateMutability": "view",
					"type": "function"
				},
				{
					"inputs": [
						{
							"internalType": "uint256",
							"name": "_age",
							"type": "uint256"
						}
					],
					"name": "setAge",
					"outputs": [],
					"stateMutability": "nonpayable",
					"type": "function"
				}
			],
			"devdoc": {
				"kind": "dev",
				"methods": {},
				"version": 1
			},
			"evm": {
				"assembly": "    /* \"Fall-2023/24_MultipleInheritance.sol\":735:1479  contract Student is Person... */\n  mstore(0x40, 0x80)\n    /* \"Fall-2023/24_MultipleInheritance.sol\":114:140  string public name = \"Ali\" */\n  mload(0x40)\n  dup1\n  0x40\n  add\n  0x40\n  mstore\n  dup1\n  0x03\n  dup2\n  mstore\n  0x20\n  add\n  0x416c690000000000000000000000000000000000000000000000000000000000\n  dup2\n  mstore\n  pop\n  0x01\n  swap1\n  dup2\n  tag_1\n  swap2\n  swap1\n  tag_2\n  jump\t// in\ntag_1:\n  pop\n    /* \"Fall-2023/24_MultipleInheritance.sol\":800:1000  constructor(uint _age, string memory _name, uint _roll_no) Person(_age, _name){ //Calling super constructor... */\n  callvalue\n  dup1\n  iszero\n  tag_3\n  jumpi\n  0x00\n  dup1\n  revert\ntag_3:\n  pop\n  mload(0x40)\n  sub(codesize, bytecodeSize)\n  dup1\n  bytecodeSize\n  dup4\n  codecopy\n  dup2\n  dup2\n  add\n  0x40\n  mstore\n  dup2\n  add\n  swap1\n  tag_4\n  swap2\n  swap1\n  tag_5\n  jump\t// in\ntag_4:\n    /* \"Fall-2023/24_MultipleInheritance.sol\":866:870  _age */\n  dup3\n    /* \"Fall-2023/24_MultipleInheritance.sol\":872:877  _name */\n  dup3\n    /* \"Fall-2023/24_MultipleInheritance.sol\":213:217  _age */\n  dup2\n    /* \"Fall-2023/24_MultipleInheritance.sol\":207:210  age */\n  0x00\n    /* \"Fall-2023/24_MultipleInheritance.sol\":207:217  age = _age */\n  dup2\n  swap1\n  sstore\n  pop\n    /* \"Fall-2023/24_MultipleInheritance.sol\":235:240  _name */\n  dup1\n    /* \"Fall-2023/24_MultipleInheritance.sol\":228:232  name */\n  0x01\n    /* \"Fall-2023/24_MultipleInheritance.sol\":228:240  name = _name */\n  swap1\n  dup2\n  tag_9\n  swap2\n  swap1\n  tag_2\n  jump\t// in\ntag_9:\n  pop\n    /* \"Fall-2023/24_MultipleInheritance.sol\":153:248  constructor(uint _age, string memory _name){... */\n  pop\n  pop\n    /* \"Fall-2023/24_MultipleInheritance.sol\":927:935  _roll_no */\n  dup1\n    /* \"Fall-2023/24_MultipleInheritance.sol\":917:924  roll_no */\n  0x02\n    /* \"Fall-2023/24_MultipleInheritance.sol\":917:935  roll_no = _roll_no */\n  dup2\n  swap1\n  sstore\n  pop\n    /* \"Fall-2023/24_MultipleInheritance.sol\":800:1000  constructor(uint _age, string memory _name, uint _roll_no) Person(_age, _name){ //Calling super constructor... */\n  pop\n  pop\n  pop\n    /* \"Fall-2023/24_MultipleInheritance.sol\":735:1479  contract Student is Person... */\n  jump(tag_11)\n    /* \"#utility.yul\":7:106   */\ntag_12:\n    /* \"#utility.yul\":59:65   */\n  0x00\n    /* \"#utility.yul\":93:98   */\n  dup2\n    /* \"#utility.yul\":87:99   */\n  mload\n    /* \"#utility.yul\":77:99   */\n  swap1\n  pop\n    /* \"#utility.yul\":7:106   */\n  swap2\n  swap1\n  pop\n  jump\t// out\n    /* \"#utility.yul\":112:292   */\ntag_13:\n    /* \"#utility.yul\":160:237   */\n  0x4e487b7100000000000000000000000000000000000000000000000000000000\n    /* \"#utility.yul\":157:158   */\n  0x00\n    /* \"#utility.yul\":150:238   */\n  mstore\n    /* \"#utility.yul\":257:261   */\n  0x41\n    /* \"#utility.yul\":254:255   */\n  0x04\n    /* \"#utility.yul\":247:262   */\n  mstore\n    /* \"#utility.yul\":281:285   */\n  0x24\n    /* \"#utility.yul\":278:279   */\n  0x00\n    /* \"#utility.yul\":271:286   */\n  revert\n    /* \"#utility.yul\":298:478   */\ntag_14:\n    /* \"#utility.yul\":346:423   */\n  0x4e487b7100000000000000000000000000000000000000000000000000000000\n    /* \"#utility.yul\":343:344   */\n  0x00\n    /* \"#utility.yul\":336:424   */\n  mstore\n    /* \"#utility.yul\":443:447   */\n  0x22\n    /* \"#utility.yul\":440:441   */\n  0x04\n    /* \"#utility.yul\":433:448   */\n  mstore\n    /* \"#utility.yul\":467:471   */\n  0x24\n    /* \"#utility.yul\":464:465   */\n  0x00\n    /* \"#utility.yul\":457:472   */\n  revert\n    /* \"#utility.yul\":484:804   */\ntag_15:\n    /* \"#utility.yul\":528:534   */\n  0x00\n    /* \"#utility.yul\":565:566   */\n  0x02\n    /* \"#utility.yul\":559:563   */\n  dup3\n    /* \"#utility.yul\":555:567   */\n  div\n    /* \"#utility.yul\":545:567   */\n  swap1\n  pop\n    /* \"#utility.yul\":612:613   */\n  0x01\n    /* \"#utility.yul\":606:610   */\n  dup3\n    /* \"#utility.yul\":602:614   */\n  and\n    /* \"#utility.yul\":633:651   */\n  dup1\n    /* \"#utility.yul\":623:704   */\n  tag_51\n  jumpi\n    /* \"#utility.yul\":689:693   */\n  0x7f\n    /* \"#utility.yul\":681:687   */\n  dup3\n    /* \"#utility.yul\":677:694   */\n  and\n    /* \"#utility.yul\":667:694   */\n  swap2\n  pop\n    /* \"#utility.yul\":623:704   */\ntag_51:\n    /* \"#utility.yul\":751:753   */\n  0x20\n    /* \"#utility.yul\":743:749   */\n  dup3\n    /* \"#utility.yul\":740:754   */\n  lt\n    /* \"#utility.yul\":720:738   */\n  dup2\n    /* \"#utility.yul\":717:755   */\n  sub\n    /* \"#utility.yul\":714:798   */\n  tag_52\n  jumpi\n    /* \"#utility.yul\":770:788   */\n  tag_53\n  tag_14\n  jump\t// in\ntag_53:\n    /* \"#utility.yul\":714:798   */\ntag_52:\n    /* \"#utility.yul\":535:804   */\n  pop\n    /* \"#utility.yul\":484:804   */\n  swap2\n  swap1\n  pop\n  jump\t// out\n    /* \"#utility.yul\":810:951   */\ntag_16:\n    /* \"#utility.yul\":859:863   */\n  0x00\n    /* \"#utility.yul\":882:885   */\n  dup2\n    /* \"#utility.yul\":874:885   */\n  swap1\n  pop\n    /* \"#utility.yul\":905:908   */\n  dup2\n    /* \"#utility.yul\":902:903   */\n  0x00\n    /* \"#utility.yul\":895:909   */\n  mstore\n    /* \"#utility.yul\":939:943   */\n  0x20\n    /* \"#utility.yul\":936:937   */\n  0x00\n    /* \"#utility.yul\":926:944   */\n  keccak256\n    /* \"#utility.yul\":918:944   */\n  swap1\n  pop\n    /* \"#utility.yul\":810:951   */\n  swap2\n  swap1\n  pop\n  jump\t// out\n    /* \"#utility.yul\":957:1050   */\ntag_17:\n    /* \"#utility.yul\":994:1000   */\n  0x00\n    /* \"#utility.yul\":1041:1043   */\n  0x20\n    /* \"#utility.yul\":1036:1038   */\n  0x1f\n    /* \"#utility.yul\":1029:1034   */\n  dup4\n    /* \"#utility.yul\":1025:1039   */\n  add\n    /* \"#utility.yul\":1021:1044   */\n  div\n    /* \"#utility.yul\":1011:1044   */\n  swap1\n  pop\n    /* \"#utility.yul\":957:1050   */\n  swap2\n  swap1\n  pop\n  jump\t// out\n    /* \"#utility.yul\":1056:1163   */\ntag_18:\n    /* \"#utility.yul\":1100:1108   */\n  0x00\n    /* \"#utility.yul\":1150:1155   */\n  dup3\n    /* \"#utility.yul\":1144:1148   */\n  dup3\n    /* \"#utility.yul\":1140:1156   */\n  shl\n    /* \"#utility.yul\":1119:1156   */\n  swap1\n  pop\n    /* \"#utility.yul\":1056:1163   */\n  swap3\n  swap2\n  pop\n  pop\n  jump\t// out\n    /* \"#utility.yul\":1169:1562   */\ntag_19:\n    /* \"#utility.yul\":1238:1244   */\n  0x00\n    /* \"#utility.yul\":1288:1289   */\n  0x08\n    /* \"#utility.yul\":1276:1286   */\n  dup4\n    /* \"#utility.yul\":1272:1290   */\n  mul\n    /* \"#utility.yul\":1311:1408   */\n  tag_58\n    /* \"#utility.yul\":1341:1407   */\n  0xffffffffffffffffffffffffffffffffffffffffffffffffffffffffffffffff\n    /* \"#utility.yul\":1330:1339   */\n  dup3\n    /* \"#utility.yul\":1311:1408   */\n  tag_18\n  jump\t// in\ntag_58:\n    /* \"#utility.yul\":1429:1468   */\n  tag_59\n    /* \"#utility.yul\":1459:1467   */\n  dup7\n    /* \"#utility.yul\":1448:1457   */\n  dup4\n    /* \"#utility.yul\":1429:1468   */\n  tag_18\n  jump\t// in\ntag_59:\n    /* \"#utility.yul\":1417:1468   */\n  swap6\n  pop\n    /* \"#utility.yul\":1501:1505   */\n  dup1\n    /* \"#utility.yul\":1497:1506   */\n  not\n    /* \"#utility.yul\":1490:1495   */\n  dup5\n    /* \"#utility.yul\":1486:1507   */\n  and\n    /* \"#utility.yul\":1477:1507   */\n  swap4\n  pop\n    /* \"#utility.yul\":1550:1554   */\n  dup1\n    /* \"#utility.yul\":1540:1548   */\n  dup7\n    /* \"#utility.yul\":1536:1555   */\n  and\n    /* \"#utility.yul\":1529:1534   */\n  dup5\n    /* \"#utility.yul\":1526:1556   */\n  or\n    /* \"#utility.yul\":1516:1556   */\n  swap3\n  pop\n    /* \"#utility.yul\":1245:1562   */\n  pop\n  pop\n    /* \"#utility.yul\":1169:1562   */\n  swap4\n  swap3\n  pop\n  pop\n  pop\n  jump\t// out\n    /* \"#utility.yul\":1568:1645   */\ntag_20:\n    /* \"#utility.yul\":1605:1612   */\n  0x00\n    /* \"#utility.yul\":1634:1639   */\n  dup2\n    /* \"#utility.yul\":1623:1639   */\n  swap1\n  pop\n    /* \"#utility.yul\":1568:1645   */\n  swap2\n  swap1\n  pop\n  jump\t// out\n    /* \"#utility.yul\":1651:1711   */\ntag_21:\n    /* \"#utility.yul\":1679:1682   */\n  0x00\n    /* \"#utility.yul\":1700:1705   */\n  dup2\n    /* \"#utility.yul\":1693:1705   */\n  swap1\n  pop\n    /* \"#utility.yul\":1651:1711   */\n  swap2\n  swap1\n  pop\n  jump\t// out\n    /* \"#utility.yul\":1717:1859   */\ntag_22:\n    /* \"#utility.yul\":1767:1776   */\n  0x00\n    /* \"#utility.yul\":1800:1853   */\n  tag_63\n    /* \"#utility.yul\":1818:1852   */\n  tag_64\n    /* \"#utility.yul\":1827:1851   */\n  tag_65\n    /* \"#utility.yul\":1845:1850   */\n  dup5\n    /* \"#utility.yul\":1827:1851   */\n  tag_20\n  jump\t// in\ntag_65:\n    /* \"#utility.yul\":1818:1852   */\n  tag_21\n  jump\t// in\ntag_64:\n    /* \"#utility.yul\":1800:1853   */\n  tag_20\n  jump\t// in\ntag_63:\n    /* \"#utility.yul\":1787:1853   */\n  swap1\n  pop\n    /* \"#utility.yul\":1717:1859   */\n  swap2\n  swap1\n  pop\n  jump\t// out\n    /* \"#utility.yul\":1865:1940   */\ntag_23:\n    /* \"#utility.yul\":1908:1911   */\n  0x00\n    /* \"#utility.yul\":1929:1934   */\n  dup2\n    /* \"#utility.yul\":1922:1934   */\n  swap1\n  pop\n    /* \"#utility.yul\":1865:1940   */\n  swap2\n  swap1\n  pop\n  jump\t// out\n    /* \"#utility.yul\":1946:2215   */\ntag_24:\n    /* \"#utility.yul\":2056:2095   */\n  tag_68\n    /* \"#utility.yul\":2087:2094   */\n  dup4\n    /* \"#utility.yul\":2056:2095   */\n  tag_22\n  jump\t// in\ntag_68:\n    /* \"#utility.yul\":2117:2208   */\n  tag_69\n    /* \"#utility.yul\":2166:2207   */\n  tag_70\n    /* \"#utility.yul\":2190:2206   */\n  dup3\n    /* \"#utility.yul\":2166:2207   */\n  tag_23\n  jump\t// in\ntag_70:\n    /* \"#utility.yul\":2158:2164   */\n  dup5\n    /* \"#utility.yul\":2151:2155   */\n  dup5\n    /* \"#utility.yul\":2145:2156   */\n  sload\n    /* \"#utility.yul\":2117:2208   */\n  tag_19\n  jump\t// in\ntag_69:\n    /* \"#utility.yul\":2111:2115   */\n  dup3\n    /* \"#utility.yul\":2104:2209   */\n  sstore\n    /* \"#utility.yul\":2022:2215   */\n  pop\n    /* \"#utility.yul\":1946:2215   */\n  pop\n  pop\n  pop\n  jump\t// out\n    /* \"#utility.yul\":2221:2294   */\ntag_25:\n    /* \"#utility.yul\":2266:2269   */\n  0x00\n    /* \"#utility.yul\":2221:2294   */\n  swap1\n  jump\t// out\n    /* \"#utility.yul\":2300:2489   */\ntag_26:\n    /* \"#utility.yul\":2377:2409   */\n  tag_73\n  tag_25\n  jump\t// in\ntag_73:\n    /* \"#utility.yul\":2418:2483   */\n  tag_74\n    /* \"#utility.yul\":2476:2482   */\n  dup2\n    /* \"#utility.yul\":2468:2474   */\n  dup5\n    /* \"#utility.yul\":2462:2466   */\n  dup5\n    /* \"#utility.yul\":2418:2483   */\n  tag_24\n  jump\t// in\ntag_74:\n    /* \"#utility.yul\":2353:2489   */\n  pop\n    /* \"#utility.yul\":2300:2489   */\n  pop\n  pop\n  jump\t// out\n    /* \"#utility.yul\":2495:2681   */\ntag_27:\n    /* \"#utility.yul\":2555:2675   */\ntag_76:\n    /* \"#utility.yul\":2572:2575   */\n  dup2\n    /* \"#utility.yul\":2565:2570   */\n  dup2\n    /* \"#utility.yul\":2562:2576   */\n  lt\n    /* \"#utility.yul\":2555:2675   */\n  iszero\n  tag_78\n  jumpi\n    /* \"#utility.yul\":2626:2665   */\n  tag_79\n    /* \"#utility.yul\":2663:2664   */\n  0x00\n    /* \"#utility.yul\":2656:2661   */\n  dup3\n    /* \"#utility.yul\":2626:2665   */\n  tag_26\n  jump\t// in\ntag_79:\n    /* \"#utility.yul\":2599:2600   */\n  0x01\n    /* \"#utility.yul\":2592:2597   */\n  dup2\n    /* \"#utility.yul\":2588:2601   */\n  add\n    /* \"#utility.yul\":2579:2601   */\n  swap1\n  pop\n    /* \"#utility.yul\":2555:2675   */\n  jump(tag_76)\ntag_78:\n    /* \"#utility.yul\":2495:2681   */\n  pop\n  pop\n  jump\t// out\n    /* \"#utility.yul\":2687:3230   */\ntag_28:\n    /* \"#utility.yul\":2788:2790   */\n  0x1f\n    /* \"#utility.yul\":2783:2786   */\n  dup3\n    /* \"#utility.yul\":2780:2791   */\n  gt\n    /* \"#utility.yul\":2777:3223   */\n  iszero\n  tag_81\n  jumpi\n    /* \"#utility.yul\":2822:2860   */\n  tag_82\n    /* \"#utility.yul\":2854:2859   */\n  dup2\n    /* \"#utility.yul\":2822:2860   */\n  tag_16\n  jump\t// in\ntag_82:\n    /* \"#utility.yul\":2906:2935   */\n  tag_83\n    /* \"#utility.yul\":2924:2934   */\n  dup5\n    /* \"#utility.yul\":2906:2935   */\n  tag_17\n  jump\t// in\ntag_83:\n    /* \"#utility.yul\":2896:2904   */\n  dup2\n    /* \"#utility.yul\":2892:2936   */\n  add\n    /* \"#utility.yul\":3089:3091   */\n  0x20\n    /* \"#utility.yul\":3077:3087   */\n  dup6\n    /* \"#utility.yul\":3074:3092   */\n  lt\n    /* \"#utility.yul\":3071:3120   */\n  iszero\n  tag_84\n  jumpi\n    /* \"#utility.yul\":3110:3118   */\n  dup2\n    /* \"#utility.yul\":3095:3118   */\n  swap1\n  pop\n    /* \"#utility.yul\":3071:3120   */\ntag_84:\n    /* \"#utility.yul\":3133:3213   */\n  tag_85\n    /* \"#utility.yul\":3189:3211   */\n  tag_86\n    /* \"#utility.yul\":3207:3210   */\n  dup6\n    /* \"#utility.yul\":3189:3211   */\n  tag_17\n  jump\t// in\ntag_86:\n    /* \"#utility.yul\":3179:3187   */\n  dup4\n    /* \"#utility.yul\":3175:3212   */\n  add\n    /* \"#utility.yul\":3162:3173   */\n  dup3\n    /* \"#utility.yul\":3133:3213   */\n  tag_27\n  jump\t// in\ntag_85:\n    /* \"#utility.yul\":2792:3223   */\n  pop\n  pop\n    /* \"#utility.yul\":2777:3223   */\ntag_81:\n    /* \"#utility.yul\":2687:3230   */\n  pop\n  pop\n  pop\n  jump\t// out\n    /* \"#utility.yul\":3236:3353   */\ntag_29:\n    /* \"#utility.yul\":3290:3298   */\n  0x00\n    /* \"#utility.yul\":3340:3345   */\n  dup3\n    /* \"#utility.yul\":3334:3338   */\n  dup3\n    /* \"#utility.yul\":3330:3346   */\n  shr\n    /* \"#utility.yul\":3309:3346   */\n  swap1\n  pop\n    /* \"#utility.yul\":3236:3353   */\n  swap3\n  swap2\n  pop\n  pop\n  jump\t// out\n    /* \"#utility.yul\":3359:3528   */\ntag_30:\n    /* \"#utility.yul\":3403:3409   */\n  0x00\n    /* \"#utility.yul\":3436:3487   */\n  tag_89\n    /* \"#utility.yul\":3484:3485   */\n  0x00\n    /* \"#utility.yul\":3480:3486   */\n  not\n    /* \"#utility.yul\":3472:3477   */\n  dup5\n    /* \"#utility.yul\":3469:3470   */\n  0x08\n    /* \"#utility.yul\":3465:3478   */\n  mul\n    /* \"#utility.yul\":3436:3487   */\n  tag_29\n  jump\t// in\ntag_89:\n    /* \"#utility.yul\":3432:3488   */\n  not\n    /* \"#utility.yul\":3517:3521   */\n  dup1\n    /* \"#utility.yul\":3511:3515   */\n  dup4\n    /* \"#utility.yul\":3507:3522   */\n  and\n    /* \"#utility.yul\":3497:3522   */\n  swap2\n  pop\n    /* \"#utility.yul\":3410:3528   */\n  pop\n    /* \"#utility.yul\":3359:3528   */\n  swap3\n  swap2\n  pop\n  pop\n  jump\t// out\n    /* \"#utility.yul\":3533:3828   */\ntag_31:\n    /* \"#utility.yul\":3609:3613   */\n  0x00\n    /* \"#utility.yul\":3755:3784   */\n  tag_91\n    /* \"#utility.yul\":3780:3783   */\n  dup4\n    /* \"#utility.yul\":3774:3778   */\n  dup4\n    /* \"#utility.yul\":3755:3784   */\n  tag_30\n  jump\t// in\ntag_91:\n    /* \"#utility.yul\":3747:3784   */\n  swap2\n  pop\n    /* \"#utility.yul\":3817:3820   */\n  dup3\n    /* \"#utility.yul\":3814:3815   */\n  0x02\n    /* \"#utility.yul\":3810:3821   */\n  mul\n    /* \"#utility.yul\":3804:3808   */\n  dup3\n    /* \"#utility.yul\":3801:3822   */\n  or\n    /* \"#utility.yul\":3793:3822   */\n  swap1\n  pop\n    /* \"#utility.yul\":3533:3828   */\n  swap3\n  swap2\n  pop\n  pop\n  jump\t// out\n    /* \"#utility.yul\":3833:5228   */\ntag_2:\n    /* \"#utility.yul\":3950:3987   */\n  tag_93\n    /* \"#utility.yul\":3983:3986   */\n  dup3\n    /* \"#utility.yul\":3950:3987   */\n  tag_12\n  jump\t// in\ntag_93:\n    /* \"#utility.yul\":4052:4070   */\n  0xffffffffffffffff\n    /* \"#utility.yul\":4044:4050   */\n  dup2\n    /* \"#utility.yul\":4041:4071   */\n  gt\n    /* \"#utility.yul\":4038:4094   */\n  iszero\n  tag_94\n  jumpi\n    /* \"#utility.yul\":4074:4092   */\n  tag_95\n  tag_13\n  jump\t// in\ntag_95:\n    /* \"#utility.yul\":4038:4094   */\ntag_94:\n    /* \"#utility.yul\":4118:4156   */\n  tag_96\n    /* \"#utility.yul\":4150:4154   */\n  dup3\n    /* \"#utility.yul\":4144:4155   */\n  sload\n    /* \"#utility.yul\":4118:4156   */\n  tag_15\n  jump\t// in\ntag_96:\n    /* \"#utility.yul\":4203:4270   */\n  tag_97\n    /* \"#utility.yul\":4263:4269   */\n  dup3\n    /* \"#utility.yul\":4255:4261   */\n  dup3\n    /* \"#utility.yul\":4249:4253   */\n  dup6\n    /* \"#utility.yul\":4203:4270   */\n  tag_28\n  jump\t// in\ntag_97:\n    /* \"#utility.yul\":4297:4298   */\n  0x00\n    /* \"#utility.yul\":4321:4325   */\n  0x20\n    /* \"#utility.yul\":4308:4325   */\n  swap1\n  pop\n    /* \"#utility.yul\":4353:4355   */\n  0x1f\n    /* \"#utility.yul\":4345:4351   */\n  dup4\n    /* \"#utility.yul\":4342:4356   */\n  gt\n    /* \"#utility.yul\":4370:4371   */\n  0x01\n    /* \"#utility.yul\":4365:4983   */\n  dup2\n  eq\n  tag_99\n  jumpi\n    /* \"#utility.yul\":5027:5028   */\n  0x00\n    /* \"#utility.yul\":5044:5050   */\n  dup5\n    /* \"#utility.yul\":5041:5118   */\n  iszero\n  tag_100\n  jumpi\n    /* \"#utility.yul\":5093:5102   */\n  dup3\n    /* \"#utility.yul\":5088:5091   */\n  dup8\n    /* \"#utility.yul\":5084:5103   */\n  add\n    /* \"#utility.yul\":5078:5104   */\n  mload\n    /* \"#utility.yul\":5069:5104   */\n  swap1\n  pop\n    /* \"#utility.yul\":5041:5118   */\ntag_100:\n    /* \"#utility.yul\":5144:5211   */\n  tag_101\n    /* \"#utility.yul\":5204:5210   */\n  dup6\n    /* \"#utility.yul\":5197:5202   */\n  dup3\n    /* \"#utility.yul\":5144:5211   */\n  tag_31\n  jump\t// in\ntag_101:\n    /* \"#utility.yul\":5138:5142   */\n  dup7\n    /* \"#utility.yul\":5131:5212   */\n  sstore\n    /* \"#utility.yul\":5000:5222   */\n  pop\n    /* \"#utility.yul\":4335:5222   */\n  jump(tag_98)\n    /* \"#utility.yul\":4365:4983   */\ntag_99:\n    /* \"#utility.yul\":4417:4421   */\n  0x1f\n    /* \"#utility.yul\":4413:4422   */\n  not\n    /* \"#utility.yul\":4405:4411   */\n  dup5\n    /* \"#utility.yul\":4401:4423   */\n  and\n    /* \"#utility.yul\":4451:4488   */\n  tag_102\n    /* \"#utility.yul\":4483:4487   */\n  dup7\n    /* \"#utility.yul\":4451:4488   */\n  tag_16\n  jump\t// in\ntag_102:\n    /* \"#utility.yul\":4510:4511   */\n  0x00\n    /* \"#utility.yul\":4524:4732   */\ntag_103:\n    /* \"#utility.yul\":4538:4545   */\n  dup3\n    /* \"#utility.yul\":4535:4536   */\n  dup2\n    /* \"#utility.yul\":4532:4546   */\n  lt\n    /* \"#utility.yul\":4524:4732   */\n  iszero\n  tag_105\n  jumpi\n    /* \"#utility.yul\":4617:4626   */\n  dup5\n    /* \"#utility.yul\":4612:4615   */\n  dup10\n    /* \"#utility.yul\":4608:4627   */\n  add\n    /* \"#utility.yul\":4602:4628   */\n  mload\n    /* \"#utility.yul\":4594:4600   */\n  dup3\n    /* \"#utility.yul\":4587:4629   */\n  sstore\n    /* \"#utility.yul\":4668:4669   */\n  0x01\n    /* \"#utility.yul\":4660:4666   */\n  dup3\n    /* \"#utility.yul\":4656:4670   */\n  add\n    /* \"#utility.yul\":4646:4670   */\n  swap2\n  pop\n    /* \"#utility.yul\":4715:4717   */\n  0x20\n    /* \"#utility.yul\":4704:4713   */\n  dup6\n    /* \"#utility.yul\":4700:4718   */\n  add\n    /* \"#utility.yul\":4687:4718   */\n  swap5\n  pop\n    /* \"#utility.yul\":4561:4565   */\n  0x20\n    /* \"#utility.yul\":4558:4559   */\n  dup2\n    /* \"#utility.yul\":4554:4566   */\n  add\n    /* \"#utility.yul\":4549:4566   */\n  swap1\n  pop\n    /* \"#utility.yul\":4524:4732   */\n  jump(tag_103)\ntag_105:\n    /* \"#utility.yul\":4760:4766   */\n  dup7\n    /* \"#utility.yul\":4751:4758   */\n  dup4\n    /* \"#utility.yul\":4748:4767   */\n  lt\n    /* \"#utility.yul\":4745:4924   */\n  iszero\n  tag_106\n  jumpi\n    /* \"#utility.yul\":4818:4827   */\n  dup5\n    /* \"#utility.yul\":4813:4816   */\n  dup10\n    /* \"#utility.yul\":4809:4828   */\n  add\n    /* \"#utility.yul\":4803:4829   */\n  mload\n    /* \"#utility.yul\":4861:4909   */\n  tag_107\n    /* \"#utility.yul\":4903:4907   */\n  0x1f\n    /* \"#utility.yul\":4895:4901   */\n  dup10\n    /* \"#utility.yul\":4891:4908   */\n  and\n    /* \"#utility.yul\":4880:4889   */\n  dup3\n    /* \"#utility.yul\":4861:4909   */\n  tag_30\n  jump\t// in\ntag_107:\n    /* \"#utility.yul\":4853:4859   */\n  dup4\n    /* \"#utility.yul\":4846:4910   */\n  sstore\n    /* \"#utility.yul\":4768:4924   */\n  pop\n    /* \"#utility.yul\":4745:4924   */\ntag_106:\n    /* \"#utility.yul\":4970:4971   */\n  0x01\n    /* \"#utility.yul\":4966:4967   */\n  0x02\n    /* \"#utility.yul\":4958:4964   */\n  dup9\n    /* \"#utility.yul\":4954:4968   */\n  mul\n    /* \"#utility.yul\":4950:4972   */\n  add\n    /* \"#utility.yul\":4944:4948   */\n  dup9\n    /* \"#utility.yul\":4937:4973   */\n  sstore\n    /* \"#utility.yul\":4372:4983   */\n  pop\n  pop\n  pop\n    /* \"#utility.yul\":4335:5222   */\ntag_98:\n  pop\n    /* \"#utility.yul\":3925:5228   */\n  pop\n  pop\n  pop\n    /* \"#utility.yul\":3833:5228   */\n  pop\n  pop\n  jump\t// out\n    /* \"#utility.yul\":5234:5309   */\ntag_32:\n    /* \"#utility.yul\":5267:5273   */\n  0x00\n    /* \"#utility.yul\":5300:5302   */\n  0x40\n    /* \"#utility.yul\":5294:5303   */\n  mload\n    /* \"#utility.yul\":5284:5303   */\n  swap1\n  pop\n    /* \"#utility.yul\":5234:5309   */\n  swap1\n  jump\t// out\n    /* \"#utility.yul\":5315:5432   */\ntag_33:\n    /* \"#utility.yul\":5424:5425   */\n  0x00\n    /* \"#utility.yul\":5421:5422   */\n  dup1\n    /* \"#utility.yul\":5414:5426   */\n  revert\n    /* \"#utility.yul\":5438:5555   */\ntag_34:\n    /* \"#utility.yul\":5547:5548   */\n  0x00\n    /* \"#utility.yul\":5544:5545   */\n  dup1\n    /* \"#utility.yul\":5537:5549   */\n  revert\n    /* \"#utility.yul\":5561:5683   */\ntag_35:\n    /* \"#utility.yul\":5634:5658   */\n  tag_112\n    /* \"#utility.yul\":5652:5657   */\n  dup2\n    /* \"#utility.yul\":5634:5658   */\n  tag_20\n  jump\t// in\ntag_112:\n    /* \"#utility.yul\":5627:5632   */\n  dup2\n    /* \"#utility.yul\":5624:5659   */\n  eq\n    /* \"#utility.yul\":5614:5677   */\n  tag_113\n  jumpi\n    /* \"#utility.yul\":5673:5674   */\n  0x00\n    /* \"#utility.yul\":5670:5671   */\n  dup1\n    /* \"#utility.yul\":5663:5675   */\n  revert\n    /* \"#utility.yul\":5614:5677   */\ntag_113:\n    /* \"#utility.yul\":5561:5683   */\n  pop\n  jump\t// out\n    /* \"#utility.yul\":5689:5832   */\ntag_36:\n    /* \"#utility.yul\":5746:5751   */\n  0x00\n    /* \"#utility.yul\":5777:5783   */\n  dup2\n    /* \"#utility.yul\":5771:5784   */\n  mload\n    /* \"#utility.yul\":5762:5784   */\n  swap1\n  pop\n    /* \"#utility.yul\":5793:5826   */\n  tag_115\n    /* \"#utility.yul\":5820:5825   */\n  dup2\n    /* \"#utility.yul\":5793:5826   */\n  tag_35\n  jump\t// in\ntag_115:\n    /* \"#utility.yul\":5689:5832   */\n  swap3\n  swap2\n  pop\n  pop\n  jump\t// out\n    /* \"#utility.yul\":5838:5955   */\ntag_37:\n    /* \"#utility.yul\":5947:5948   */\n  0x00\n    /* \"#utility.yul\":5944:5945   */\n  dup1\n    /* \"#utility.yul\":5937:5949   */\n  revert\n    /* \"#utility.yul\":5961:6078   */\ntag_38:\n    /* \"#utility.yul\":6070:6071   */\n  0x00\n    /* \"#utility.yul\":6067:6068   */\n  dup1\n    /* \"#utility.yul\":6060:6072   */\n  revert\n    /* \"#utility.yul\":6084:6186   */\ntag_39:\n    /* \"#utility.yul\":6125:6131   */\n  0x00\n    /* \"#utility.yul\":6176:6178   */\n  0x1f\n    /* \"#utility.yul\":6172:6179   */\n  not\n    /* \"#utility.yul\":6167:6169   */\n  0x1f\n    /* \"#utility.yul\":6160:6165   */\n  dup4\n    /* \"#utility.yul\":6156:6170   */\n  add\n    /* \"#utility.yul\":6152:6180   */\n  and\n    /* \"#utility.yul\":6142:6180   */\n  swap1\n  pop\n    /* \"#utility.yul\":6084:6186   */\n  swap2\n  swap1\n  pop\n  jump\t// out\n    /* \"#utility.yul\":6192:6473   */\ntag_40:\n    /* \"#utility.yul\":6275:6302   */\n  tag_120\n    /* \"#utility.yul\":6297:6301   */\n  dup3\n    /* \"#utility.yul\":6275:6302   */\n  tag_39\n  jump\t// in\ntag_120:\n    /* \"#utility.yul\":6267:6273   */\n  dup2\n    /* \"#utility.yul\":6263:6303   */\n  add\n    /* \"#utility.yul\":6405:6411   */\n  dup2\n    /* \"#utility.yul\":6393:6403   */\n  dup2\n    /* \"#utility.yul\":6390:6412   */\n  lt\n    /* \"#utility.yul\":6369:6387   */\n  0xffffffffffffffff\n    /* \"#utility.yul\":6357:6367   */\n  dup3\n    /* \"#utility.yul\":6354:6388   */\n  gt\n    /* \"#utility.yul\":6351:6413   */\n  or\n    /* \"#utility.yul\":6348:6436   */\n  iszero\n  tag_121\n  jumpi\n    /* \"#utility.yul\":6416:6434   */\n  tag_122\n  tag_13\n  jump\t// in\ntag_122:\n    /* \"#utility.yul\":6348:6436   */\ntag_121:\n    /* \"#utility.yul\":6456:6466   */\n  dup1\n    /* \"#utility.yul\":6452:6454   */\n  0x40\n    /* \"#utility.yul\":6445:6467   */\n  mstore\n    /* \"#utility.yul\":6235:6473   */\n  pop\n    /* \"#utility.yul\":6192:6473   */\n  pop\n  pop\n  jump\t// out\n    /* \"#utility.yul\":6479:6608   */\ntag_41:\n    /* \"#utility.yul\":6513:6519   */\n  0x00\n    /* \"#utility.yul\":6540:6560   */\n  tag_124\n  tag_32\n  jump\t// in\ntag_124:\n    /* \"#utility.yul\":6530:6560   */\n  swap1\n  pop\n    /* \"#utility.yul\":6569:6602   */\n  tag_125\n    /* \"#utility.yul\":6597:6601   */\n  dup3\n    /* \"#utility.yul\":6589:6595   */\n  dup3\n    /* \"#utility.yul\":6569:6602   */\n  tag_40\n  jump\t// in\ntag_125:\n    /* \"#utility.yul\":6479:6608   */\n  swap2\n  swap1\n  pop\n  jump\t// out\n    /* \"#utility.yul\":6614:6922   */\ntag_42:\n    /* \"#utility.yul\":6676:6680   */\n  0x00\n    /* \"#utility.yul\":6766:6784   */\n  0xffffffffffffffff\n    /* \"#utility.yul\":6758:6764   */\n  dup3\n    /* \"#utility.yul\":6755:6785   */\n  gt\n    /* \"#utility.yul\":6752:6808   */\n  iszero\n  tag_127\n  jumpi\n    /* \"#utility.yul\":6788:6806   */\n  tag_128\n  tag_13\n  jump\t// in\ntag_128:\n    /* \"#utility.yul\":6752:6808   */\ntag_127:\n    /* \"#utility.yul\":6826:6855   */\n  tag_129\n    /* \"#utility.yul\":6848:6854   */\n  dup3\n    /* \"#utility.yul\":6826:6855   */\n  tag_39\n  jump\t// in\ntag_129:\n    /* \"#utility.yul\":6818:6855   */\n  swap1\n  pop\n    /* \"#utility.yul\":6910:6914   */\n  0x20\n    /* \"#utility.yul\":6904:6908   */\n  dup2\n    /* \"#utility.yul\":6900:6915   */\n  add\n    /* \"#utility.yul\":6892:6915   */\n  swap1\n  pop\n    /* \"#utility.yul\":6614:6922   */\n  swap2\n  swap1\n  pop\n  jump\t// out\n    /* \"#utility.yul\":6928:7174   */\ntag_43:\n    /* \"#utility.yul\":7009:7010   */\n  0x00\n    /* \"#utility.yul\":7019:7132   */\ntag_131:\n    /* \"#utility.yul\":7033:7039   */\n  dup4\n    /* \"#utility.yul\":7030:7031   */\n  dup2\n    /* \"#utility.yul\":7027:7040   */\n  lt\n    /* \"#utility.yul\":7019:7132   */\n  iszero\n  tag_133\n  jumpi\n    /* \"#utility.yul\":7118:7119   */\n  dup1\n    /* \"#utility.yul\":7113:7116   */\n  dup3\n    /* \"#utility.yul\":7109:7120   */\n  add\n    /* \"#utility.yul\":7103:7121   */\n  mload\n    /* \"#utility.yul\":7099:7100   */\n  dup2\n    /* \"#utility.yul\":7094:7097   */\n  dup5\n    /* \"#utility.yul\":7090:7101   */\n  add\n    /* \"#utility.yul\":7083:7122   */\n  mstore\n    /* \"#utility.yul\":7055:7057   */\n  0x20\n    /* \"#utility.yul\":7052:7053   */\n  dup2\n    /* \"#utility.yul\":7048:7058   */\n  add\n    /* \"#utility.yul\":7043:7058   */\n  swap1\n  pop\n    /* \"#utility.yul\":7019:7132   */\n  jump(tag_131)\ntag_133:\n    /* \"#utility.yul\":7166:7167   */\n  0x00\n    /* \"#utility.yul\":7157:7163   */\n  dup5\n    /* \"#utility.yul\":7152:7155   */\n  dup5\n    /* \"#utility.yul\":7148:7164   */\n  add\n    /* \"#utility.yul\":7141:7168   */\n  mstore\n    /* \"#utility.yul\":6990:7174   */\n  pop\n    /* \"#utility.yul\":6928:7174   */\n  pop\n  pop\n  pop\n  jump\t// out\n    /* \"#utility.yul\":7180:7614   */\ntag_44:\n    /* \"#utility.yul\":7269:7274   */\n  0x00\n    /* \"#utility.yul\":7294:7360   */\n  tag_135\n    /* \"#utility.yul\":7310:7359   */\n  tag_136\n    /* \"#utility.yul\":7352:7358   */\n  dup5\n    /* \"#utility.yul\":7310:7359   */\n  tag_42\n  jump\t// in\ntag_136:\n    /* \"#utility.yul\":7294:7360   */\n  tag_41\n  jump\t// in\ntag_135:\n    /* \"#utility.yul\":7285:7360   */\n  swap1\n  pop\n    /* \"#utility.yul\":7383:7389   */\n  dup3\n    /* \"#utility.yul\":7376:7381   */\n  dup2\n    /* \"#utility.yul\":7369:7390   */\n  mstore\n    /* \"#utility.yul\":7421:7425   */\n  0x20\n    /* \"#utility.yul\":7414:7419   */\n  dup2\n    /* \"#utility.yul\":7410:7426   */\n  add\n    /* \"#utility.yul\":7459:7462   */\n  dup5\n    /* \"#utility.yul\":7450:7456   */\n  dup5\n    /* \"#utility.yul\":7445:7448   */\n  dup5\n    /* \"#utility.yul\":7441:7457   */\n  add\n    /* \"#utility.yul\":7438:7463   */\n  gt\n    /* \"#utility.yul\":7435:7547   */\n  iszero\n  tag_137\n  jumpi\n    /* \"#utility.yul\":7466:7545   */\n  tag_138\n  tag_38\n  jump\t// in\ntag_138:\n    /* \"#utility.yul\":7435:7547   */\ntag_137:\n    /* \"#utility.yul\":7556:7608   */\n  tag_139\n    /* \"#utility.yul\":7601:7607   */\n  dup5\n    /* \"#utility.yul\":7596:7599   */\n  dup3\n    /* \"#utility.yul\":7591:7594   */\n  dup6\n    /* \"#utility.yul\":7556:7608   */\n  tag_43\n  jump\t// in\ntag_139:\n    /* \"#utility.yul\":7275:7614   */\n  pop\n    /* \"#utility.yul\":7180:7614   */\n  swap4\n  swap3\n  pop\n  pop\n  pop\n  jump\t// out\n    /* \"#utility.yul\":7634:7989   */\ntag_45:\n    /* \"#utility.yul\":7701:7706   */\n  0x00\n    /* \"#utility.yul\":7750:7753   */\n  dup3\n    /* \"#utility.yul\":7743:7747   */\n  0x1f\n    /* \"#utility.yul\":7735:7741   */\n  dup4\n    /* \"#utility.yul\":7731:7748   */\n  add\n    /* \"#utility.yul\":7727:7754   */\n  slt\n    /* \"#utility.yul\":7717:7839   */\n  tag_141\n  jumpi\n    /* \"#utility.yul\":7758:7837   */\n  tag_142\n  tag_37\n  jump\t// in\ntag_142:\n    /* \"#utility.yul\":7717:7839   */\ntag_141:\n    /* \"#utility.yul\":7868:7874   */\n  dup2\n    /* \"#utility.yul\":7862:7875   */\n  mload\n    /* \"#utility.yul\":7893:7983   */\n  tag_143\n    /* \"#utility.yul\":7979:7982   */\n  dup5\n    /* \"#utility.yul\":7971:7977   */\n  dup3\n    /* \"#utility.yul\":7964:7968   */\n  0x20\n    /* \"#utility.yul\":7956:7962   */\n  dup7\n    /* \"#utility.yul\":7952:7969   */\n  add\n    /* \"#utility.yul\":7893:7983   */\n  tag_44\n  jump\t// in\ntag_143:\n    /* \"#utility.yul\":7884:7983   */\n  swap2\n  pop\n    /* \"#utility.yul\":7707:7989   */\n  pop\n    /* \"#utility.yul\":7634:7989   */\n  swap3\n  swap2\n  pop\n  pop\n  jump\t// out\n    /* \"#utility.yul\":7995:8831   */\ntag_5:\n    /* \"#utility.yul\":8093:8099   */\n  0x00\n    /* \"#utility.yul\":8101:8107   */\n  dup1\n    /* \"#utility.yul\":8109:8115   */\n  0x00\n    /* \"#utility.yul\":8158:8160   */\n  0x60\n    /* \"#utility.yul\":8146:8155   */\n  dup5\n    /* \"#utility.yul\":8137:8144   */\n  dup7\n    /* \"#utility.yul\":8133:8156   */\n  sub\n    /* \"#utility.yul\":8129:8161   */\n  slt\n    /* \"#utility.yul\":8126:8245   */\n  iszero\n  tag_145\n  jumpi\n    /* \"#utility.yul\":8164:8243   */\n  tag_146\n  tag_33\n  jump\t// in\ntag_146:\n    /* \"#utility.yul\":8126:8245   */\ntag_145:\n    /* \"#utility.yul\":8284:8285   */\n  0x00\n    /* \"#utility.yul\":8309:8373   */\n  tag_147\n    /* \"#utility.yul\":8365:8372   */\n  dup7\n    /* \"#utility.yul\":8356:8362   */\n  dup3\n    /* \"#utility.yul\":8345:8354   */\n  dup8\n    /* \"#utility.yul\":8341:8363   */\n  add\n    /* \"#utility.yul\":8309:8373   */\n  tag_36\n  jump\t// in\ntag_147:\n    /* \"#utility.yul\":8299:8373   */\n  swap4\n  pop\n    /* \"#utility.yul\":8255:8383   */\n  pop\n    /* \"#utility.yul\":8443:8445   */\n  0x20\n    /* \"#utility.yul\":8432:8441   */\n  dup5\n    /* \"#utility.yul\":8428:8446   */\n  add\n    /* \"#utility.yul\":8422:8447   */\n  mload\n    /* \"#utility.yul\":8474:8492   */\n  0xffffffffffffffff\n    /* \"#utility.yul\":8466:8472   */\n  dup2\n    /* \"#utility.yul\":8463:8493   */\n  gt\n    /* \"#utility.yul\":8460:8577   */\n  iszero\n  tag_148\n  jumpi\n    /* \"#utility.yul\":8496:8575   */\n  tag_149\n  tag_34\n  jump\t// in\ntag_149:\n    /* \"#utility.yul\":8460:8577   */\ntag_148:\n    /* \"#utility.yul\":8601:8675   */\n  tag_150\n    /* \"#utility.yul\":8667:8674   */\n  dup7\n    /* \"#utility.yul\":8658:8664   */\n  dup3\n    /* \"#utility.yul\":8647:8656   */\n  dup8\n    /* \"#utility.yul\":8643:8665   */\n  add\n    /* \"#utility.yul\":8601:8675   */\n  tag_45\n  jump\t// in\ntag_150:\n    /* \"#utility.yul\":8591:8675   */\n  swap3\n  pop\n    /* \"#utility.yul\":8393:8685   */\n  pop\n    /* \"#utility.yul\":8724:8726   */\n  0x40\n    /* \"#utility.yul\":8750:8814   */\n  tag_151\n    /* \"#utility.yul\":8806:8813   */\n  dup7\n    /* \"#utility.yul\":8797:8803   */\n  dup3\n    /* \"#utility.yul\":8786:8795   */\n  dup8\n    /* \"#utility.yul\":8782:8804   */\n  add\n    /* \"#utility.yul\":8750:8814   */\n  tag_36\n  jump\t// in\ntag_151:\n    /* \"#utility.yul\":8740:8814   */\n  swap2\n  pop\n    /* \"#utility.yul\":8695:8824   */\n  pop\n    /* \"#utility.yul\":7995:8831   */\n  swap3\n  pop\n  swap3\n  pop\n  swap3\n  jump\t// out\n    /* \"Fall-2023/24_MultipleInheritance.sol\":735:1479  contract Student is Person... */\ntag_11:\n  dataSize(sub_0)\n  dup1\n  dataOffset(sub_0)\n  0x00\n  codecopy\n  0x00\n  return\nstop\n\nsub_0: assembly {\n        /* \"Fall-2023/24_MultipleInheritance.sol\":735:1479  contract Student is Person... */\n      mstore(0x40, 0x80)\n      callvalue\n      dup1\n      iszero\n      tag_1\n      jumpi\n      0x00\n      dup1\n      revert\n    tag_1:\n      pop\n      jumpi(tag_2, lt(calldatasize, 0x04))\n      shr(0xe0, calldataload(0x00))\n      dup1\n      0x06fdde03\n      eq\n      tag_3\n      jumpi\n      dup1\n      0x8382f514\n      eq\n      tag_4\n      jumpi\n      dup1\n      0x967e6e65\n      eq\n      tag_5\n      jumpi\n      dup1\n      0xc27fc305\n      eq\n      tag_6\n      jumpi\n      dup1\n      0xd5dcf127\n      eq\n      tag_7\n      jumpi\n    tag_2:\n      0x00\n      dup1\n      revert\n        /* \"Fall-2023/24_MultipleInheritance.sol\":114:140  string public name = \"Ali\" */\n    tag_3:\n      tag_8\n      tag_9\n      jump\t// in\n    tag_8:\n      mload(0x40)\n      tag_10\n      swap2\n      swap1\n      tag_11\n      jump\t// in\n    tag_10:\n      mload(0x40)\n      dup1\n      swap2\n      sub\n      swap1\n      return\n        /* \"Fall-2023/24_MultipleInheritance.sol\":774:793  uint public roll_no */\n    tag_4:\n      tag_12\n      tag_13\n      jump\t// in\n    tag_12:\n      mload(0x40)\n      tag_14\n      swap2\n      swap1\n      tag_15\n      jump\t// in\n    tag_14:\n      mload(0x40)\n      dup1\n      swap2\n      sub\n      swap1\n      return\n        /* \"Fall-2023/24_MultipleInheritance.sol\":572:644  function getAge() public view returns(uint){... */\n    tag_5:\n      tag_16\n      tag_17\n      jump\t// in\n    tag_16:\n      mload(0x40)\n      tag_18\n      swap2\n      swap1\n      tag_15\n      jump\t// in\n    tag_18:\n      mload(0x40)\n      dup1\n      swap2\n      sub\n      swap1\n      return\n        /* \"Fall-2023/24_MultipleInheritance.sol\":1287:1474  function f1() public pure override returns(uint){... */\n    tag_6:\n      tag_19\n      tag_20\n      jump\t// in\n    tag_19:\n      mload(0x40)\n      tag_21\n      swap2\n      swap1\n      tag_15\n      jump\t// in\n    tag_21:\n      mload(0x40)\n      dup1\n      swap2\n      sub\n      swap1\n      return\n        /* \"Fall-2023/24_MultipleInheritance.sol\":1008:1279  function setAge(uint _age) public override{... */\n    tag_7:\n      tag_22\n      0x04\n      dup1\n      calldatasize\n      sub\n      dup2\n      add\n      swap1\n      tag_23\n      swap2\n      swap1\n      tag_24\n      jump\t// in\n    tag_23:\n      tag_25\n      jump\t// in\n    tag_22:\n      stop\n        /* \"Fall-2023/24_MultipleInheritance.sol\":114:140  string public name = \"Ali\" */\n    tag_9:\n      0x01\n      dup1\n      sload\n      tag_26\n      swap1\n      tag_27\n      jump\t// in\n    tag_26:\n      dup1\n      0x1f\n      add\n      0x20\n      dup1\n      swap2\n      div\n      mul\n      0x20\n      add\n      mload(0x40)\n      swap1\n      dup2\n      add\n      0x40\n      mstore\n      dup1\n      swap3\n      swap2\n      swap1\n      dup2\n      dup2\n      mstore\n      0x20\n      add\n      dup3\n      dup1\n      sload\n      tag_28\n      swap1\n      tag_27\n      jump\t// in\n    tag_28:\n      dup1\n      iszero\n      tag_29\n      jumpi\n      dup1\n      0x1f\n      lt\n      tag_30\n      jumpi\n      0x0100\n      dup1\n      dup4\n      sload\n      div\n      mul\n      dup4\n      mstore\n      swap2\n      0x20\n      add\n      swap2\n      jump(tag_29)\n    tag_30:\n      dup3\n      add\n      swap2\n      swap1\n      0x00\n      mstore\n      keccak256(0x00, 0x20)\n      swap1\n    tag_31:\n      dup2\n      sload\n      dup2\n      mstore\n      swap1\n      0x01\n      add\n      swap1\n      0x20\n      add\n      dup1\n      dup4\n      gt\n      tag_31\n      jumpi\n      dup3\n      swap1\n      sub\n      0x1f\n      and\n      dup3\n      add\n      swap2\n    tag_29:\n      pop\n      pop\n      pop\n      pop\n      pop\n      dup2\n      jump\t// out\n        /* \"Fall-2023/24_MultipleInheritance.sol\":774:793  uint public roll_no */\n    tag_13:\n      sload(0x02)\n      dup2\n      jump\t// out\n        /* \"Fall-2023/24_MultipleInheritance.sol\":572:644  function getAge() public view returns(uint){... */\n    tag_17:\n        /* \"Fall-2023/24_MultipleInheritance.sol\":610:614  uint */\n      0x00\n        /* \"Fall-2023/24_MultipleInheritance.sol\":633:636  age */\n      dup1\n      sload\n        /* \"Fall-2023/24_MultipleInheritance.sol\":626:636  return age */\n      swap1\n      pop\n        /* \"Fall-2023/24_MultipleInheritance.sol\":572:644  function getAge() public view returns(uint){... */\n      swap1\n      jump\t// out\n        /* \"Fall-2023/24_MultipleInheritance.sol\":1287:1474  function f1() public pure override returns(uint){... */\n    tag_20:\n        /* \"Fall-2023/24_MultipleInheritance.sol\":1330:1334  uint */\n      0x00\n        /* \"Fall-2023/24_MultipleInheritance.sol\":1346:1354  uint val */\n      dup1\n        /* \"Fall-2023/24_MultipleInheritance.sol\":1357:1367  super.f1() */\n      tag_34\n        /* \"Fall-2023/24_MultipleInheritance.sol\":1357:1365  super.f1 */\n      tag_35\n        /* \"Fall-2023/24_MultipleInheritance.sol\":1357:1367  super.f1() */\n      jump\t// in\n    tag_34:\n        /* \"Fall-2023/24_MultipleInheritance.sol\":1346:1367  uint val = super.f1() */\n      swap1\n      pop\n        /* \"Fall-2023/24_MultipleInheritance.sol\":1465:1466  1 */\n      0x01\n        /* \"Fall-2023/24_MultipleInheritance.sol\":1459:1462  val */\n      dup2\n        /* \"Fall-2023/24_MultipleInheritance.sol\":1459:1466  val + 1 */\n      tag_36\n      swap2\n      swap1\n      tag_37\n      jump\t// in\n    tag_36:\n        /* \"Fall-2023/24_MultipleInheritance.sol\":1452:1466  return val + 1 */\n      swap2\n      pop\n      pop\n        /* \"Fall-2023/24_MultipleInheritance.sol\":1287:1474  function f1() public pure override returns(uint){... */\n      swap1\n      jump\t// out\n        /* \"Fall-2023/24_MultipleInheritance.sol\":1008:1279  function setAge(uint _age) public override{... */\n    tag_25:\n        /* \"Fall-2023/24_MultipleInheritance.sol\":1253:1271  super.setAge(_age) */\n      tag_39\n        /* \"Fall-2023/24_MultipleInheritance.sol\":1266:1270  _age */\n      dup2\n        /* \"Fall-2023/24_MultipleInheritance.sol\":1253:1265  super.setAge */\n      tag_40\n        /* \"Fall-2023/24_MultipleInheritance.sol\":1253:1271  super.setAge(_age) */\n      jump\t// in\n    tag_39:\n        /* \"Fall-2023/24_MultipleInheritance.sol\":1008:1279  function setAge(uint _age) public override{... */\n      pop\n      jump\t// out\n        /* \"Fall-2023/24_MultipleInheritance.sol\":652:726  function f1() public pure virtual returns(uint){... */\n    tag_35:\n        /* \"Fall-2023/24_MultipleInheritance.sol\":694:698  uint */\n      0x00\n        /* \"Fall-2023/24_MultipleInheritance.sol\":717:718  1 */\n      0x01\n        /* \"Fall-2023/24_MultipleInheritance.sol\":710:718  return 1 */\n      swap1\n      pop\n        /* \"Fall-2023/24_MultipleInheritance.sol\":652:726  function f1() public pure virtual returns(uint){... */\n      swap1\n      jump\t// out\n        /* \"Fall-2023/24_MultipleInheritance.sol\":256:564  function setAge(uint _age) public virtual{ //virtual is mandatory if overridden in derived.... */\n    tag_40:\n        /* \"Fall-2023/24_MultipleInheritance.sol\":552:556  _age */\n      dup1\n        /* \"Fall-2023/24_MultipleInheritance.sol\":546:549  age */\n      0x00\n        /* \"Fall-2023/24_MultipleInheritance.sol\":546:556  age = _age */\n      dup2\n      swap1\n      sstore\n      pop\n        /* \"Fall-2023/24_MultipleInheritance.sol\":256:564  function setAge(uint _age) public virtual{ //virtual is mandatory if overridden in derived.... */\n      pop\n      jump\t// out\n        /* \"#utility.yul\":7:106   */\n    tag_43:\n        /* \"#utility.yul\":59:65   */\n      0x00\n        /* \"#utility.yul\":93:98   */\n      dup2\n        /* \"#utility.yul\":87:99   */\n      mload\n        /* \"#utility.yul\":77:99   */\n      swap1\n      pop\n        /* \"#utility.yul\":7:106   */\n      swap2\n      swap1\n      pop\n      jump\t// out\n        /* \"#utility.yul\":112:281   */\n    tag_44:\n        /* \"#utility.yul\":196:207   */\n      0x00\n        /* \"#utility.yul\":230:236   */\n      dup3\n        /* \"#utility.yul\":225:228   */\n      dup3\n        /* \"#utility.yul\":218:237   */\n      mstore\n        /* \"#utility.yul\":270:274   */\n      0x20\n        /* \"#utility.yul\":265:268   */\n      dup3\n        /* \"#utility.yul\":261:275   */\n      add\n        /* \"#utility.yul\":246:275   */\n      swap1\n      pop\n        /* \"#utility.yul\":112:281   */\n      swap3\n      swap2\n      pop\n      pop\n      jump\t// out\n        /* \"#utility.yul\":287:533   */\n    tag_45:\n        /* \"#utility.yul\":368:369   */\n      0x00\n        /* \"#utility.yul\":378:491   */\n    tag_61:\n        /* \"#utility.yul\":392:398   */\n      dup4\n        /* \"#utility.yul\":389:390   */\n      dup2\n        /* \"#utility.yul\":386:399   */\n      lt\n        /* \"#utility.yul\":378:491   */\n      iszero\n      tag_63\n      jumpi\n        /* \"#utility.yul\":477:478   */\n      dup1\n        /* \"#utility.yul\":472:475   */\n      dup3\n        /* \"#utility.yul\":468:479   */\n      add\n        /* \"#utility.yul\":462:480   */\n      mload\n        /* \"#utility.yul\":458:459   */\n      dup2\n        /* \"#utility.yul\":453:456   */\n      dup5\n        /* \"#utility.yul\":449:460   */\n      add\n        /* \"#utility.yul\":442:481   */\n      mstore\n        /* \"#utility.yul\":414:416   */\n      0x20\n        /* \"#utility.yul\":411:412   */\n      dup2\n        /* \"#utility.yul\":407:417   */\n      add\n        /* \"#utility.yul\":402:417   */\n      swap1\n      pop\n        /* \"#utility.yul\":378:491   */\n      jump(tag_61)\n    tag_63:\n        /* \"#utility.yul\":525:526   */\n      0x00\n        /* \"#utility.yul\":516:522   */\n      dup5\n        /* \"#utility.yul\":511:514   */\n      dup5\n        /* \"#utility.yul\":507:523   */\n      add\n        /* \"#utility.yul\":500:527   */\n      mstore\n        /* \"#utility.yul\":349:533   */\n      pop\n        /* \"#utility.yul\":287:533   */\n      pop\n      pop\n      pop\n      jump\t// out\n        /* \"#utility.yul\":539:641   */\n    tag_46:\n        /* \"#utility.yul\":580:586   */\n      0x00\n        /* \"#utility.yul\":631:633   */\n      0x1f\n        /* \"#utility.yul\":627:634   */\n      not\n        /* \"#utility.yul\":622:624   */\n      0x1f\n        /* \"#utility.yul\":615:620   */\n      dup4\n        /* \"#utility.yul\":611:625   */\n      add\n        /* \"#utility.yul\":607:635   */\n      and\n        /* \"#utility.yul\":597:635   */\n      swap1\n      pop\n        /* \"#utility.yul\":539:641   */\n      swap2\n      swap1\n      pop\n      jump\t// out\n        /* \"#utility.yul\":647:1024   */\n    tag_47:\n        /* \"#utility.yul\":735:738   */\n      0x00\n        /* \"#utility.yul\":763:802   */\n      tag_66\n        /* \"#utility.yul\":796:801   */\n      dup3\n        /* \"#utility.yul\":763:802   */\n      tag_43\n      jump\t// in\n    tag_66:\n        /* \"#utility.yul\":818:889   */\n      tag_67\n        /* \"#utility.yul\":882:888   */\n      dup2\n        /* \"#utility.yul\":877:880   */\n      dup6\n        /* \"#utility.yul\":818:889   */\n      tag_44\n      jump\t// in\n    tag_67:\n        /* \"#utility.yul\":811:889   */\n      swap4\n      pop\n        /* \"#utility.yul\":898:963   */\n      tag_68\n        /* \"#utility.yul\":956:962   */\n      dup2\n        /* \"#utility.yul\":951:954   */\n      dup6\n        /* \"#utility.yul\":944:948   */\n      0x20\n        /* \"#utility.yul\":937:942   */\n      dup7\n        /* \"#utility.yul\":933:949   */\n      add\n        /* \"#utility.yul\":898:963   */\n      tag_45\n      jump\t// in\n    tag_68:\n        /* \"#utility.yul\":988:1017   */\n      tag_69\n        /* \"#utility.yul\":1010:1016   */\n      dup2\n        /* \"#utility.yul\":988:1017   */\n      tag_46\n      jump\t// in\n    tag_69:\n        /* \"#utility.yul\":983:986   */\n      dup5\n        /* \"#utility.yul\":979:1018   */\n      add\n        /* \"#utility.yul\":972:1018   */\n      swap2\n      pop\n        /* \"#utility.yul\":739:1024   */\n      pop\n        /* \"#utility.yul\":647:1024   */\n      swap3\n      swap2\n      pop\n      pop\n      jump\t// out\n        /* \"#utility.yul\":1030:1343   */\n    tag_11:\n        /* \"#utility.yul\":1143:1147   */\n      0x00\n        /* \"#utility.yul\":1181:1183   */\n      0x20\n        /* \"#utility.yul\":1170:1179   */\n      dup3\n        /* \"#utility.yul\":1166:1184   */\n      add\n        /* \"#utility.yul\":1158:1184   */\n      swap1\n      pop\n        /* \"#utility.yul\":1230:1239   */\n      dup2\n        /* \"#utility.yul\":1224:1228   */\n      dup2\n        /* \"#utility.yul\":1220:1240   */\n      sub\n        /* \"#utility.yul\":1216:1217   */\n      0x00\n        /* \"#utility.yul\":1205:1214   */\n      dup4\n        /* \"#utility.yul\":1201:1218   */\n      add\n        /* \"#utility.yul\":1194:1241   */\n      mstore\n        /* \"#utility.yul\":1258:1336   */\n      tag_71\n        /* \"#utility.yul\":1331:1335   */\n      dup2\n        /* \"#utility.yul\":1322:1328   */\n      dup5\n        /* \"#utility.yul\":1258:1336   */\n      tag_47\n      jump\t// in\n    tag_71:\n        /* \"#utility.yul\":1250:1336   */\n      swap1\n      pop\n        /* \"#utility.yul\":1030:1343   */\n      swap3\n      swap2\n      pop\n      pop\n      jump\t// out\n        /* \"#utility.yul\":1349:1426   */\n    tag_48:\n        /* \"#utility.yul\":1386:1393   */\n      0x00\n        /* \"#utility.yul\":1415:1420   */\n      dup2\n        /* \"#utility.yul\":1404:1420   */\n      swap1\n      pop\n        /* \"#utility.yul\":1349:1426   */\n      swap2\n      swap1\n      pop\n      jump\t// out\n        /* \"#utility.yul\":1432:1550   */\n    tag_49:\n        /* \"#utility.yul\":1519:1543   */\n      tag_74\n        /* \"#utility.yul\":1537:1542   */\n      dup2\n        /* \"#utility.yul\":1519:1543   */\n      tag_48\n      jump\t// in\n    tag_74:\n        /* \"#utility.yul\":1514:1517   */\n      dup3\n        /* \"#utility.yul\":1507:1544   */\n      mstore\n        /* \"#utility.yul\":1432:1550   */\n      pop\n      pop\n      jump\t// out\n        /* \"#utility.yul\":1556:1778   */\n    tag_15:\n        /* \"#utility.yul\":1649:1653   */\n      0x00\n        /* \"#utility.yul\":1687:1689   */\n      0x20\n        /* \"#utility.yul\":1676:1685   */\n      dup3\n        /* \"#utility.yul\":1672:1690   */\n      add\n        /* \"#utility.yul\":1664:1690   */\n      swap1\n      pop\n        /* \"#utility.yul\":1700:1771   */\n      tag_76\n        /* \"#utility.yul\":1768:1769   */\n      0x00\n        /* \"#utility.yul\":1757:1766   */\n      dup4\n        /* \"#utility.yul\":1753:1770   */\n      add\n        /* \"#utility.yul\":1744:1750   */\n      dup5\n        /* \"#utility.yul\":1700:1771   */\n      tag_49\n      jump\t// in\n    tag_76:\n        /* \"#utility.yul\":1556:1778   */\n      swap3\n      swap2\n      pop\n      pop\n      jump\t// out\n        /* \"#utility.yul\":1865:1982   */\n    tag_51:\n        /* \"#utility.yul\":1974:1975   */\n      0x00\n        /* \"#utility.yul\":1971:1972   */\n      dup1\n        /* \"#utility.yul\":1964:1976   */\n      revert\n        /* \"#utility.yul\":2111:2233   */\n    tag_53:\n        /* \"#utility.yul\":2184:2208   */\n      tag_81\n        /* \"#utility.yul\":2202:2207   */\n      dup2\n        /* \"#utility.yul\":2184:2208   */\n      tag_48\n      jump\t// in\n    tag_81:\n        /* \"#utility.yul\":2177:2182   */\n      dup2\n        /* \"#utility.yul\":2174:2209   */\n      eq\n        /* \"#utility.yul\":2164:2227   */\n      tag_82\n      jumpi\n        /* \"#utility.yul\":2223:2224   */\n      0x00\n        /* \"#utility.yul\":2220:2221   */\n      dup1\n        /* \"#utility.yul\":2213:2225   */\n      revert\n        /* \"#utility.yul\":2164:2227   */\n    tag_82:\n        /* \"#utility.yul\":2111:2233   */\n      pop\n      jump\t// out\n        /* \"#utility.yul\":2239:2378   */\n    tag_54:\n        /* \"#utility.yul\":2285:2290   */\n      0x00\n        /* \"#utility.yul\":2323:2329   */\n      dup2\n        /* \"#utility.yul\":2310:2330   */\n      calldataload\n        /* \"#utility.yul\":2301:2330   */\n      swap1\n      pop\n        /* \"#utility.yul\":2339:2372   */\n      tag_84\n        /* \"#utility.yul\":2366:2371   */\n      dup2\n        /* \"#utility.yul\":2339:2372   */\n      tag_53\n      jump\t// in\n    tag_84:\n        /* \"#utility.yul\":2239:2378   */\n      swap3\n      swap2\n      pop\n      pop\n      jump\t// out\n        /* \"#utility.yul\":2384:2713   */\n    tag_24:\n        /* \"#utility.yul\":2443:2449   */\n      0x00\n        /* \"#utility.yul\":2492:2494   */\n      0x20\n        /* \"#utility.yul\":2480:2489   */\n      dup3\n        /* \"#utility.yul\":2471:2478   */\n      dup5\n        /* \"#utility.yul\":2467:2490   */\n      sub\n        /* \"#utility.yul\":2463:2495   */\n      slt\n        /* \"#utility.yul\":2460:2579   */\n      iszero\n      tag_86\n      jumpi\n        /* \"#utility.yul\":2498:2577   */\n      tag_87\n      tag_51\n      jump\t// in\n    tag_87:\n        /* \"#utility.yul\":2460:2579   */\n    tag_86:\n        /* \"#utility.yul\":2618:2619   */\n      0x00\n        /* \"#utility.yul\":2643:2696   */\n      tag_88\n        /* \"#utility.yul\":2688:2695   */\n      dup5\n        /* \"#utility.yul\":2679:2685   */\n      dup3\n        /* \"#utility.yul\":2668:2677   */\n      dup6\n        /* \"#utility.yul\":2664:2686   */\n      add\n        /* \"#utility.yul\":2643:2696   */\n      tag_54\n      jump\t// in\n    tag_88:\n        /* \"#utility.yul\":2633:2696   */\n      swap2\n      pop\n        /* \"#utility.yul\":2589:2706   */\n      pop\n        /* \"#utility.yul\":2384:2713   */\n      swap3\n      swap2\n      pop\n      pop\n      jump\t// out\n        /* \"#utility.yul\":2719:2899   */\n    tag_55:\n        /* \"#utility.yul\":2767:2844   */\n      0x4e487b7100000000000000000000000000000000000000000000000000000000\n        /* \"#utility.yul\":2764:2765   */\n      0x00\n        /* \"#utility.yul\":2757:2845   */\n      mstore\n        /* \"#utility.yul\":2864:2868   */\n      0x22\n        /* \"#utility.yul\":2861:2862   */\n      0x04\n        /* \"#utility.yul\":2854:2869   */\n      mstore\n        /* \"#utility.yul\":2888:2892   */\n      0x24\n        /* \"#utility.yul\":2885:2886   */\n      0x00\n        /* \"#utility.yul\":2878:2893   */\n      revert\n        /* \"#utility.yul\":2905:3225   */\n    tag_27:\n        /* \"#utility.yul\":2949:2955   */\n      0x00\n        /* \"#utility.yul\":2986:2987   */\n      0x02\n        /* \"#utility.yul\":2980:2984   */\n      dup3\n        /* \"#utility.yul\":2976:2988   */\n      div\n        /* \"#utility.yul\":2966:2988   */\n      swap1\n      pop\n        /* \"#utility.yul\":3033:3034   */\n      0x01\n        /* \"#utility.yul\":3027:3031   */\n      dup3\n        /* \"#utility.yul\":3023:3035   */\n      and\n        /* \"#utility.yul\":3054:3072   */\n      dup1\n        /* \"#utility.yul\":3044:3125   */\n      tag_91\n      jumpi\n        /* \"#utility.yul\":3110:3114   */\n      0x7f\n        /* \"#utility.yul\":3102:3108   */\n      dup3\n        /* \"#utility.yul\":3098:3115   */\n      and\n        /* \"#utility.yul\":3088:3115   */\n      swap2\n      pop\n        /* \"#utility.yul\":3044:3125   */\n    tag_91:\n        /* \"#utility.yul\":3172:3174   */\n      0x20\n        /* \"#utility.yul\":3164:3170   */\n      dup3\n        /* \"#utility.yul\":3161:3175   */\n      lt\n        /* \"#utility.yul\":3141:3159   */\n      dup2\n        /* \"#utility.yul\":3138:3176   */\n      sub\n        /* \"#utility.yul\":3135:3219   */\n      tag_92\n      jumpi\n        /* \"#utility.yul\":3191:3209   */\n      tag_93\n      tag_55\n      jump\t// in\n    tag_93:\n        /* \"#utility.yul\":3135:3219   */\n    tag_92:\n        /* \"#utility.yul\":2956:3225   */\n      pop\n        /* \"#utility.yul\":2905:3225   */\n      swap2\n      swap1\n      pop\n      jump\t// out\n        /* \"#utility.yul\":3231:3411   */\n    tag_56:\n        /* \"#utility.yul\":3279:3356   */\n      0x4e487b7100000000000000000000000000000000000000000000000000000000\n        /* \"#utility.yul\":3276:3277   */\n      0x00\n        /* \"#utility.yul\":3269:3357   */\n      mstore\n        /* \"#utility.yul\":3376:3380   */\n      0x11\n        /* \"#utility.yul\":3373:3374   */\n      0x04\n        /* \"#utility.yul\":3366:3381   */\n      mstore\n        /* \"#utility.yul\":3400:3404   */\n      0x24\n        /* \"#utility.yul\":3397:3398   */\n      0x00\n        /* \"#utility.yul\":3390:3405   */\n      revert\n        /* \"#utility.yul\":3417:3608   */\n    tag_37:\n        /* \"#utility.yul\":3457:3460   */\n      0x00\n        /* \"#utility.yul\":3476:3496   */\n      tag_96\n        /* \"#utility.yul\":3494:3495   */\n      dup3\n        /* \"#utility.yul\":3476:3496   */\n      tag_48\n      jump\t// in\n    tag_96:\n        /* \"#utility.yul\":3471:3496   */\n      swap2\n      pop\n        /* \"#utility.yul\":3510:3530   */\n      tag_97\n        /* \"#utility.yul\":3528:3529   */\n      dup4\n        /* \"#utility.yul\":3510:3530   */\n      tag_48\n      jump\t// in\n    tag_97:\n        /* \"#utility.yul\":3505:3530   */\n      swap3\n      pop\n        /* \"#utility.yul\":3553:3554   */\n      dup3\n        /* \"#utility.yul\":3550:3551   */\n      dup3\n        /* \"#utility.yul\":3546:3555   */\n      add\n        /* \"#utility.yul\":3539:3555   */\n      swap1\n      pop\n        /* \"#utility.yul\":3574:3577   */\n      dup1\n        /* \"#utility.yul\":3571:3572   */\n      dup3\n        /* \"#utility.yul\":3568:3578   */\n      gt\n        /* \"#utility.yul\":3565:3601   */\n      iszero\n      tag_98\n      jumpi\n        /* \"#utility.yul\":3581:3599   */\n      tag_99\n      tag_56\n      jump\t// in\n    tag_99:\n        /* \"#utility.yul\":3565:3601   */\n    tag_98:\n        /* \"#utility.yul\":3417:3608   */\n      swap3\n      swap2\n      pop\n      pop\n      jump\t// out\n\n    auxdata: 0xa2646970667358221220f50401344a729cb351b71fa5542acbc9c48557d6be2e16be9a85743822722a5c64736f6c63430008120033\n}\n",
				"bytecode": {
					"linkReferences": {},
					"object": "60806040526040518060400160405280600381526020017f416c690000000000000000000000000000000000000000000000000000000000815250600190816200004a919062000325565b503480156200005857600080fd5b5060405162000a3538038062000a3583398181016040528101906200007e9190620005a1565b828281600081905550806001908162000098919062000325565b505050806002819055505050506200061c565b600081519050919050565b7f4e487b7100000000000000000000000000000000000000000000000000000000600052604160045260246000fd5b7f4e487b7100000000000000000000000000000000000000000000000000000000600052602260045260246000fd5b600060028204905060018216806200012d57607f821691505b602082108103620001435762000142620000e5565b5b50919050565b60008190508160005260206000209050919050565b60006020601f8301049050919050565b600082821b905092915050565b600060088302620001ad7fffffffffffffffffffffffffffffffffffffffffffffffffffffffffffffffff826200016e565b620001b986836200016e565b95508019841693508086168417925050509392505050565b6000819050919050565b6000819050919050565b60006200020662000200620001fa84620001d1565b620001db565b620001d1565b9050919050565b6000819050919050565b6200022283620001e5565b6200023a62000231826200020d565b8484546200017b565b825550505050565b600090565b6200025162000242565b6200025e81848462000217565b505050565b5b8181101562000286576200027a60008262000247565b60018101905062000264565b5050565b601f821115620002d5576200029f8162000149565b620002aa846200015e565b81016020851015620002ba578190505b620002d2620002c9856200015e565b83018262000263565b50505b505050565b600082821c905092915050565b6000620002fa60001984600802620002da565b1980831691505092915050565b6000620003158383620002e7565b9150826002028217905092915050565b6200033082620000ab565b67ffffffffffffffff8111156200034c576200034b620000b6565b5b62000358825462000114565b620003658282856200028a565b600060209050601f8311600181146200039d576000841562000388578287015190505b62000394858262000307565b86555062000404565b601f198416620003ad8662000149565b60005b82811015620003d757848901518255600182019150602085019450602081019050620003b0565b86831015620003f75784890151620003f3601f891682620002e7565b8355505b6001600288020188555050505b505050505050565b6000604051905090565b600080fd5b600080fd5b6200042b81620001d1565b81146200043757600080fd5b50565b6000815190506200044b8162000420565b92915050565b600080fd5b600080fd5b6000601f19601f8301169050919050565b62000477826200045b565b810181811067ffffffffffffffff82111715620004995762000498620000b6565b5b80604052505050565b6000620004ae6200040c565b9050620004bc82826200046c565b919050565b600067ffffffffffffffff821115620004df57620004de620000b6565b5b620004ea826200045b565b9050602081019050919050565b60005b8381101562000517578082015181840152602081019050620004fa565b60008484015250505050565b60006200053a6200053484620004c1565b620004a2565b90508281526020810184848401111562000559576200055862000456565b5b62000566848285620004f7565b509392505050565b600082601f83011262000586576200058562000451565b5b81516200059884826020860162000523565b91505092915050565b600080600060608486031215620005bd57620005bc62000416565b5b6000620005cd868287016200043a565b935050602084015167ffffffffffffffff811115620005f157620005f06200041b565b5b620005ff868287016200056e565b925050604062000612868287016200043a565b9150509250925092565b610409806200062c6000396000f3fe608060405234801561001057600080fd5b50600436106100575760003560e01c806306fdde031461005c5780638382f5141461007a578063967e6e6514610098578063c27fc305146100b6578063d5dcf127146100d4575b600080fd5b6100646100f0565b604051610071919061025c565b60405180910390f35b61008261017e565b60405161008f9190610297565b60405180910390f35b6100a0610184565b6040516100ad9190610297565b60405180910390f35b6100be61018d565b6040516100cb9190610297565b60405180910390f35b6100ee60048036038101906100e991906102e3565b6101ad565b005b600180546100fd9061033f565b80601f01602080910402602001604051908101604052809291908181526020018280546101299061033f565b80156101765780601f1061014b57610100808354040283529160200191610176565b820191906000526020600020905b81548152906001019060200180831161015957829003601f168201915b505050505081565b60025481565b60008054905090565b6000806101986101b9565b90506001816101a7919061039f565b91505090565b6101b6816101c2565b50565b60006001905090565b8060008190555050565b600081519050919050565b600082825260208201905092915050565b60005b838110156102065780820151818401526020810190506101eb565b60008484015250505050565b6000601f19601f8301169050919050565b600061022e826101cc565b61023881856101d7565b93506102488185602086016101e8565b61025181610212565b840191505092915050565b600060208201905081810360008301526102768184610223565b905092915050565b6000819050919050565b6102918161027e565b82525050565b60006020820190506102ac6000830184610288565b92915050565b600080fd5b6102c08161027e565b81146102cb57600080fd5b50565b6000813590506102dd816102b7565b92915050565b6000602082840312156102f9576102f86102b2565b5b6000610307848285016102ce565b91505092915050565b7f4e487b7100000000000000000000000000000000000000000000000000000000600052602260045260246000fd5b6000600282049050600182168061035757607f821691505b60208210810361036a57610369610310565b5b50919050565b7f4e487b7100000000000000000000000000000000000000000000000000000000600052601160045260246000fd5b60006103aa8261027e565b91506103b58361027e565b92508282019050808211156103cd576103cc610370565b5b9291505056fea2646970667358221220f50401344a729cb351b71fa5542acbc9c48557d6be2e16be9a85743822722a5c64736f6c63430008120033",
					"opcodes": "PUSH1 0x80 PUSH1 0x40 MSTORE PUSH1 0x40 MLOAD DUP1 PUSH1 0x40 ADD PUSH1 0x40 MSTORE DUP1 PUSH1 0x3 DUP2 MSTORE PUSH1 0x20 ADD PUSH32 0x416C690000000000000000000000000000000000000000000000000000000000 DUP2 MSTORE POP PUSH1 0x1 SWAP1 DUP2 PUSH3 0x4A SWAP2 SWAP1 PUSH3 0x325 JUMP JUMPDEST POP CALLVALUE DUP1 ISZERO PUSH3 0x58 JUMPI PUSH1 0x0 DUP1 REVERT JUMPDEST POP PUSH1 0x40 MLOAD PUSH3 0xA35 CODESIZE SUB DUP1 PUSH3 0xA35 DUP4 CODECOPY DUP2 DUP2 ADD PUSH1 0x40 MSTORE DUP2 ADD SWAP1 PUSH3 0x7E SWAP2 SWAP1 PUSH3 0x5A1 JUMP JUMPDEST DUP3 DUP3 DUP2 PUSH1 0x0 DUP2 SWAP1 SSTORE POP DUP1 PUSH1 0x1 SWAP1 DUP2 PUSH3 0x98 SWAP2 SWAP1 PUSH3 0x325 JUMP JUMPDEST POP POP POP DUP1 PUSH1 0x2 DUP2 SWAP1 SSTORE POP POP POP POP PUSH3 0x61C JUMP JUMPDEST PUSH1 0x0 DUP2 MLOAD SWAP1 POP SWAP2 SWAP1 POP JUMP JUMPDEST PUSH32 0x4E487B7100000000000000000000000000000000000000000000000000000000 PUSH1 0x0 MSTORE PUSH1 0x41 PUSH1 0x4 MSTORE PUSH1 0x24 PUSH1 0x0 REVERT JUMPDEST PUSH32 0x4E487B7100000000000000000000000000000000000000000000000000000000 PUSH1 0x0 MSTORE PUSH1 0x22 PUSH1 0x4 MSTORE PUSH1 0x24 PUSH1 0x0 REVERT JUMPDEST PUSH1 0x0 PUSH1 0x2 DUP3 DIV SWAP1 POP PUSH1 0x1 DUP3 AND DUP1 PUSH3 0x12D JUMPI PUSH1 0x7F DUP3 AND SWAP2 POP JUMPDEST PUSH1 0x20 DUP3 LT DUP2 SUB PUSH3 0x143 JUMPI PUSH3 0x142 PUSH3 0xE5 JUMP JUMPDEST JUMPDEST POP SWAP2 SWAP1 POP JUMP JUMPDEST PUSH1 0x0 DUP2 SWAP1 POP DUP2 PUSH1 0x0 MSTORE PUSH1 0x20 PUSH1 0x0 KECCAK256 SWAP1 POP SWAP2 SWAP1 POP JUMP JUMPDEST PUSH1 0x0 PUSH1 0x20 PUSH1 0x1F DUP4 ADD DIV SWAP1 POP SWAP2 SWAP1 POP JUMP JUMPDEST PUSH1 0x0 DUP3 DUP3 SHL SWAP1 POP SWAP3 SWAP2 POP POP JUMP JUMPDEST PUSH1 0x0 PUSH1 0x8 DUP4 MUL PUSH3 0x1AD PUSH32 0xFFFFFFFFFFFFFFFFFFFFFFFFFFFFFFFFFFFFFFFFFFFFFFFFFFFFFFFFFFFFFFFF DUP3 PUSH3 0x16E JUMP JUMPDEST PUSH3 0x1B9 DUP7 DUP4 PUSH3 0x16E JUMP JUMPDEST SWAP6 POP DUP1 NOT DUP5 AND SWAP4 POP DUP1 DUP7 AND DUP5 OR SWAP3 POP POP POP SWAP4 SWAP3 POP POP POP JUMP JUMPDEST PUSH1 0x0 DUP2 SWAP1 POP SWAP2 SWAP1 POP JUMP JUMPDEST PUSH1 0x0 DUP2 SWAP1 POP SWAP2 SWAP1 POP JUMP JUMPDEST PUSH1 0x0 PUSH3 0x206 PUSH3 0x200 PUSH3 0x1FA DUP5 PUSH3 0x1D1 JUMP JUMPDEST PUSH3 0x1DB JUMP JUMPDEST PUSH3 0x1D1 JUMP JUMPDEST SWAP1 POP SWAP2 SWAP1 POP JUMP JUMPDEST PUSH1 0x0 DUP2 SWAP1 POP SWAP2 SWAP1 POP JUMP JUMPDEST PUSH3 0x222 DUP4 PUSH3 0x1E5 JUMP JUMPDEST PUSH3 0x23A PUSH3 0x231 DUP3 PUSH3 0x20D JUMP JUMPDEST DUP5 DUP5 SLOAD PUSH3 0x17B JUMP JUMPDEST DUP3 SSTORE POP POP POP POP JUMP JUMPDEST PUSH1 0x0 SWAP1 JUMP JUMPDEST PUSH3 0x251 PUSH3 0x242 JUMP JUMPDEST PUSH3 0x25E DUP2 DUP5 DUP5 PUSH3 0x217 JUMP JUMPDEST POP POP POP JUMP JUMPDEST JUMPDEST DUP2 DUP2 LT ISZERO PUSH3 0x286 JUMPI PUSH3 0x27A PUSH1 0x0 DUP3 PUSH3 0x247 JUMP JUMPDEST PUSH1 0x1 DUP2 ADD SWAP1 POP PUSH3 0x264 JUMP JUMPDEST POP POP JUMP JUMPDEST PUSH1 0x1F DUP3 GT ISZERO PUSH3 0x2D5 JUMPI PUSH3 0x29F DUP2 PUSH3 0x149 JUMP JUMPDEST PUSH3 0x2AA DUP5 PUSH3 0x15E JUMP JUMPDEST DUP2 ADD PUSH1 0x20 DUP6 LT ISZERO PUSH3 0x2BA JUMPI DUP2 SWAP1 POP JUMPDEST PUSH3 0x2D2 PUSH3 0x2C9 DUP6 PUSH3 0x15E JUMP JUMPDEST DUP4 ADD DUP3 PUSH3 0x263 JUMP JUMPDEST POP POP JUMPDEST POP POP POP JUMP JUMPDEST PUSH1 0x0 DUP3 DUP3 SHR SWAP1 POP SWAP3 SWAP2 POP POP JUMP JUMPDEST PUSH1 0x0 PUSH3 0x2FA PUSH1 0x0 NOT DUP5 PUSH1 0x8 MUL PUSH3 0x2DA JUMP JUMPDEST NOT DUP1 DUP4 AND SWAP2 POP POP SWAP3 SWAP2 POP POP JUMP JUMPDEST PUSH1 0x0 PUSH3 0x315 DUP4 DUP4 PUSH3 0x2E7 JUMP JUMPDEST SWAP2 POP DUP3 PUSH1 0x2 MUL DUP3 OR SWAP1 POP SWAP3 SWAP2 POP POP JUMP JUMPDEST PUSH3 0x330 DUP3 PUSH3 0xAB JUMP JUMPDEST PUSH8 0xFFFFFFFFFFFFFFFF DUP2 GT ISZERO PUSH3 0x34C JUMPI PUSH3 0x34B PUSH3 0xB6 JUMP JUMPDEST JUMPDEST PUSH3 0x358 DUP3 SLOAD PUSH3 0x114 JUMP JUMPDEST PUSH3 0x365 DUP3 DUP3 DUP6 PUSH3 0x28A JUMP JUMPDEST PUSH1 0x0 PUSH1 0x20 SWAP1 POP PUSH1 0x1F DUP4 GT PUSH1 0x1 DUP2 EQ PUSH3 0x39D JUMPI PUSH1 0x0 DUP5 ISZERO PUSH3 0x388 JUMPI DUP3 DUP8 ADD MLOAD SWAP1 POP JUMPDEST PUSH3 0x394 DUP6 DUP3 PUSH3 0x307 JUMP JUMPDEST DUP7 SSTORE POP PUSH3 0x404 JUMP JUMPDEST PUSH1 0x1F NOT DUP5 AND PUSH3 0x3AD DUP7 PUSH3 0x149 JUMP JUMPDEST PUSH1 0x0 JUMPDEST DUP3 DUP2 LT ISZERO PUSH3 0x3D7 JUMPI DUP5 DUP10 ADD MLOAD DUP3 SSTORE PUSH1 0x1 DUP3 ADD SWAP2 POP PUSH1 0x20 DUP6 ADD SWAP5 POP PUSH1 0x20 DUP2 ADD SWAP1 POP PUSH3 0x3B0 JUMP JUMPDEST DUP7 DUP4 LT ISZERO PUSH3 0x3F7 JUMPI DUP5 DUP10 ADD MLOAD PUSH3 0x3F3 PUSH1 0x1F DUP10 AND DUP3 PUSH3 0x2E7 JUMP JUMPDEST DUP4 SSTORE POP JUMPDEST PUSH1 0x1 PUSH1 0x2 DUP9 MUL ADD DUP9 SSTORE POP POP POP JUMPDEST POP POP POP POP POP POP JUMP JUMPDEST PUSH1 0x0 PUSH1 0x40 MLOAD SWAP1 POP SWAP1 JUMP JUMPDEST PUSH1 0x0 DUP1 REVERT JUMPDEST PUSH1 0x0 DUP1 REVERT JUMPDEST PUSH3 0x42B DUP2 PUSH3 0x1D1 JUMP JUMPDEST DUP2 EQ PUSH3 0x437 JUMPI PUSH1 0x0 DUP1 REVERT JUMPDEST POP JUMP JUMPDEST PUSH1 0x0 DUP2 MLOAD SWAP1 POP PUSH3 0x44B DUP2 PUSH3 0x420 JUMP JUMPDEST SWAP3 SWAP2 POP POP JUMP JUMPDEST PUSH1 0x0 DUP1 REVERT JUMPDEST PUSH1 0x0 DUP1 REVERT JUMPDEST PUSH1 0x0 PUSH1 0x1F NOT PUSH1 0x1F DUP4 ADD AND SWAP1 POP SWAP2 SWAP1 POP JUMP JUMPDEST PUSH3 0x477 DUP3 PUSH3 0x45B JUMP JUMPDEST DUP2 ADD DUP2 DUP2 LT PUSH8 0xFFFFFFFFFFFFFFFF DUP3 GT OR ISZERO PUSH3 0x499 JUMPI PUSH3 0x498 PUSH3 0xB6 JUMP JUMPDEST JUMPDEST DUP1 PUSH1 0x40 MSTORE POP POP POP JUMP JUMPDEST PUSH1 0x0 PUSH3 0x4AE PUSH3 0x40C JUMP JUMPDEST SWAP1 POP PUSH3 0x4BC DUP3 DUP3 PUSH3 0x46C JUMP JUMPDEST SWAP2 SWAP1 POP JUMP JUMPDEST PUSH1 0x0 PUSH8 0xFFFFFFFFFFFFFFFF DUP3 GT ISZERO PUSH3 0x4DF JUMPI PUSH3 0x4DE PUSH3 0xB6 JUMP JUMPDEST JUMPDEST PUSH3 0x4EA DUP3 PUSH3 0x45B JUMP JUMPDEST SWAP1 POP PUSH1 0x20 DUP2 ADD SWAP1 POP SWAP2 SWAP1 POP JUMP JUMPDEST PUSH1 0x0 JUMPDEST DUP4 DUP2 LT ISZERO PUSH3 0x517 JUMPI DUP1 DUP3 ADD MLOAD DUP2 DUP5 ADD MSTORE PUSH1 0x20 DUP2 ADD SWAP1 POP PUSH3 0x4FA JUMP JUMPDEST PUSH1 0x0 DUP5 DUP5 ADD MSTORE POP POP POP POP JUMP JUMPDEST PUSH1 0x0 PUSH3 0x53A PUSH3 0x534 DUP5 PUSH3 0x4C1 JUMP JUMPDEST PUSH3 0x4A2 JUMP JUMPDEST SWAP1 POP DUP3 DUP2 MSTORE PUSH1 0x20 DUP2 ADD DUP5 DUP5 DUP5 ADD GT ISZERO PUSH3 0x559 JUMPI PUSH3 0x558 PUSH3 0x456 JUMP JUMPDEST JUMPDEST PUSH3 0x566 DUP5 DUP3 DUP6 PUSH3 0x4F7 JUMP JUMPDEST POP SWAP4 SWAP3 POP POP POP JUMP JUMPDEST PUSH1 0x0 DUP3 PUSH1 0x1F DUP4 ADD SLT PUSH3 0x586 JUMPI PUSH3 0x585 PUSH3 0x451 JUMP JUMPDEST JUMPDEST DUP2 MLOAD PUSH3 0x598 DUP5 DUP3 PUSH1 0x20 DUP7 ADD PUSH3 0x523 JUMP JUMPDEST SWAP2 POP POP SWAP3 SWAP2 POP POP JUMP JUMPDEST PUSH1 0x0 DUP1 PUSH1 0x0 PUSH1 0x60 DUP5 DUP7 SUB SLT ISZERO PUSH3 0x5BD JUMPI PUSH3 0x5BC PUSH3 0x416 JUMP JUMPDEST JUMPDEST PUSH1 0x0 PUSH3 0x5CD DUP7 DUP3 DUP8 ADD PUSH3 0x43A JUMP JUMPDEST SWAP4 POP POP PUSH1 0x20 DUP5 ADD MLOAD PUSH8 0xFFFFFFFFFFFFFFFF DUP2 GT ISZERO PUSH3 0x5F1 JUMPI PUSH3 0x5F0 PUSH3 0x41B JUMP JUMPDEST JUMPDEST PUSH3 0x5FF DUP7 DUP3 DUP8 ADD PUSH3 0x56E JUMP JUMPDEST SWAP3 POP POP PUSH1 0x40 PUSH3 0x612 DUP7 DUP3 DUP8 ADD PUSH3 0x43A JUMP JUMPDEST SWAP2 POP POP SWAP3 POP SWAP3 POP SWAP3 JUMP JUMPDEST PUSH2 0x409 DUP1 PUSH3 0x62C PUSH1 0x0 CODECOPY PUSH1 0x0 RETURN INVALID PUSH1 0x80 PUSH1 0x40 MSTORE CALLVALUE DUP1 ISZERO PUSH2 0x10 JUMPI PUSH1 0x0 DUP1 REVERT JUMPDEST POP PUSH1 0x4 CALLDATASIZE LT PUSH2 0x57 JUMPI PUSH1 0x0 CALLDATALOAD PUSH1 0xE0 SHR DUP1 PUSH4 0x6FDDE03 EQ PUSH2 0x5C JUMPI DUP1 PUSH4 0x8382F514 EQ PUSH2 0x7A JUMPI DUP1 PUSH4 0x967E6E65 EQ PUSH2 0x98 JUMPI DUP1 PUSH4 0xC27FC305 EQ PUSH2 0xB6 JUMPI DUP1 PUSH4 0xD5DCF127 EQ PUSH2 0xD4 JUMPI JUMPDEST PUSH1 0x0 DUP1 REVERT JUMPDEST PUSH2 0x64 PUSH2 0xF0 JUMP JUMPDEST PUSH1 0x40 MLOAD PUSH2 0x71 SWAP2 SWAP1 PUSH2 0x25C JUMP JUMPDEST PUSH1 0x40 MLOAD DUP1 SWAP2 SUB SWAP1 RETURN JUMPDEST PUSH2 0x82 PUSH2 0x17E JUMP JUMPDEST PUSH1 0x40 MLOAD PUSH2 0x8F SWAP2 SWAP1 PUSH2 0x297 JUMP JUMPDEST PUSH1 0x40 MLOAD DUP1 SWAP2 SUB SWAP1 RETURN JUMPDEST PUSH2 0xA0 PUSH2 0x184 JUMP JUMPDEST PUSH1 0x40 MLOAD PUSH2 0xAD SWAP2 SWAP1 PUSH2 0x297 JUMP JUMPDEST PUSH1 0x40 MLOAD DUP1 SWAP2 SUB SWAP1 RETURN JUMPDEST PUSH2 0xBE PUSH2 0x18D JUMP JUMPDEST PUSH1 0x40 MLOAD PUSH2 0xCB SWAP2 SWAP1 PUSH2 0x297 JUMP JUMPDEST PUSH1 0x40 MLOAD DUP1 SWAP2 SUB SWAP1 RETURN JUMPDEST PUSH2 0xEE PUSH1 0x4 DUP1 CALLDATASIZE SUB DUP2 ADD SWAP1 PUSH2 0xE9 SWAP2 SWAP1 PUSH2 0x2E3 JUMP JUMPDEST PUSH2 0x1AD JUMP JUMPDEST STOP JUMPDEST PUSH1 0x1 DUP1 SLOAD PUSH2 0xFD SWAP1 PUSH2 0x33F JUMP JUMPDEST DUP1 PUSH1 0x1F ADD PUSH1 0x20 DUP1 SWAP2 DIV MUL PUSH1 0x20 ADD PUSH1 0x40 MLOAD SWAP1 DUP2 ADD PUSH1 0x40 MSTORE DUP1 SWAP3 SWAP2 SWAP1 DUP2 DUP2 MSTORE PUSH1 0x20 ADD DUP3 DUP1 SLOAD PUSH2 0x129 SWAP1 PUSH2 0x33F JUMP JUMPDEST DUP1 ISZERO PUSH2 0x176 JUMPI DUP1 PUSH1 0x1F LT PUSH2 0x14B JUMPI PUSH2 0x100 DUP1 DUP4 SLOAD DIV MUL DUP4 MSTORE SWAP2 PUSH1 0x20 ADD SWAP2 PUSH2 0x176 JUMP JUMPDEST DUP3 ADD SWAP2 SWAP1 PUSH1 0x0 MSTORE PUSH1 0x20 PUSH1 0x0 KECCAK256 SWAP1 JUMPDEST DUP2 SLOAD DUP2 MSTORE SWAP1 PUSH1 0x1 ADD SWAP1 PUSH1 0x20 ADD DUP1 DUP4 GT PUSH2 0x159 JUMPI DUP3 SWAP1 SUB PUSH1 0x1F AND DUP3 ADD SWAP2 JUMPDEST POP POP POP POP POP DUP2 JUMP JUMPDEST PUSH1 0x2 SLOAD DUP2 JUMP JUMPDEST PUSH1 0x0 DUP1 SLOAD SWAP1 POP SWAP1 JUMP JUMPDEST PUSH1 0x0 DUP1 PUSH2 0x198 PUSH2 0x1B9 JUMP JUMPDEST SWAP1 POP PUSH1 0x1 DUP2 PUSH2 0x1A7 SWAP2 SWAP1 PUSH2 0x39F JUMP JUMPDEST SWAP2 POP POP SWAP1 JUMP JUMPDEST PUSH2 0x1B6 DUP2 PUSH2 0x1C2 JUMP JUMPDEST POP JUMP JUMPDEST PUSH1 0x0 PUSH1 0x1 SWAP1 POP SWAP1 JUMP JUMPDEST DUP1 PUSH1 0x0 DUP2 SWAP1 SSTORE POP POP JUMP JUMPDEST PUSH1 0x0 DUP2 MLOAD SWAP1 POP SWAP2 SWAP1 POP JUMP JUMPDEST PUSH1 0x0 DUP3 DUP3 MSTORE PUSH1 0x20 DUP3 ADD SWAP1 POP SWAP3 SWAP2 POP POP JUMP JUMPDEST PUSH1 0x0 JUMPDEST DUP4 DUP2 LT ISZERO PUSH2 0x206 JUMPI DUP1 DUP3 ADD MLOAD DUP2 DUP5 ADD MSTORE PUSH1 0x20 DUP2 ADD SWAP1 POP PUSH2 0x1EB JUMP JUMPDEST PUSH1 0x0 DUP5 DUP5 ADD MSTORE POP POP POP POP JUMP JUMPDEST PUSH1 0x0 PUSH1 0x1F NOT PUSH1 0x1F DUP4 ADD AND SWAP1 POP SWAP2 SWAP1 POP JUMP JUMPDEST PUSH1 0x0 PUSH2 0x22E DUP3 PUSH2 0x1CC JUMP JUMPDEST PUSH2 0x238 DUP2 DUP6 PUSH2 0x1D7 JUMP JUMPDEST SWAP4 POP PUSH2 0x248 DUP2 DUP6 PUSH1 0x20 DUP7 ADD PUSH2 0x1E8 JUMP JUMPDEST PUSH2 0x251 DUP2 PUSH2 0x212 JUMP JUMPDEST DUP5 ADD SWAP2 POP POP SWAP3 SWAP2 POP POP JUMP JUMPDEST PUSH1 0x0 PUSH1 0x20 DUP3 ADD SWAP1 POP DUP2 DUP2 SUB PUSH1 0x0 DUP4 ADD MSTORE PUSH2 0x276 DUP2 DUP5 PUSH2 0x223 JUMP JUMPDEST SWAP1 POP SWAP3 SWAP2 POP POP JUMP JUMPDEST PUSH1 0x0 DUP2 SWAP1 POP SWAP2 SWAP1 POP JUMP JUMPDEST PUSH2 0x291 DUP2 PUSH2 0x27E JUMP JUMPDEST DUP3 MSTORE POP POP JUMP JUMPDEST PUSH1 0x0 PUSH1 0x20 DUP3 ADD SWAP1 POP PUSH2 0x2AC PUSH1 0x0 DUP4 ADD DUP5 PUSH2 0x288 JUMP JUMPDEST SWAP3 SWAP2 POP POP JUMP JUMPDEST PUSH1 0x0 DUP1 REVERT JUMPDEST PUSH2 0x2C0 DUP2 PUSH2 0x27E JUMP JUMPDEST DUP2 EQ PUSH2 0x2CB JUMPI PUSH1 0x0 DUP1 REVERT JUMPDEST POP JUMP JUMPDEST PUSH1 0x0 DUP2 CALLDATALOAD SWAP1 POP PUSH2 0x2DD DUP2 PUSH2 0x2B7 JUMP JUMPDEST SWAP3 SWAP2 POP POP JUMP JUMPDEST PUSH1 0x0 PUSH1 0x20 DUP3 DUP5 SUB SLT ISZERO PUSH2 0x2F9 JUMPI PUSH2 0x2F8 PUSH2 0x2B2 JUMP JUMPDEST JUMPDEST PUSH1 0x0 PUSH2 0x307 DUP5 DUP3 DUP6 ADD PUSH2 0x2CE JUMP JUMPDEST SWAP2 POP POP SWAP3 SWAP2 POP POP JUMP JUMPDEST PUSH32 0x4E487B7100000000000000000000000000000000000000000000000000000000 PUSH1 0x0 MSTORE PUSH1 0x22 PUSH1 0x4 MSTORE PUSH1 0x24 PUSH1 0x0 REVERT JUMPDEST PUSH1 0x0 PUSH1 0x2 DUP3 DIV SWAP1 POP PUSH1 0x1 DUP3 AND DUP1 PUSH2 0x357 JUMPI PUSH1 0x7F DUP3 AND SWAP2 POP JUMPDEST PUSH1 0x20 DUP3 LT DUP2 SUB PUSH2 0x36A JUMPI PUSH2 0x369 PUSH2 0x310 JUMP JUMPDEST JUMPDEST POP SWAP2 SWAP1 POP JUMP JUMPDEST PUSH32 0x4E487B7100000000000000000000000000000000000000000000000000000000 PUSH1 0x0 MSTORE PUSH1 0x11 PUSH1 0x4 MSTORE PUSH1 0x24 PUSH1 0x0 REVERT JUMPDEST PUSH1 0x0 PUSH2 0x3AA DUP3 PUSH2 0x27E JUMP JUMPDEST SWAP2 POP PUSH2 0x3B5 DUP4 PUSH2 0x27E JUMP JUMPDEST SWAP3 POP DUP3 DUP3 ADD SWAP1 POP DUP1 DUP3 GT ISZERO PUSH2 0x3CD JUMPI PUSH2 0x3CC PUSH2 0x370 JUMP JUMPDEST JUMPDEST SWAP3 SWAP2 POP POP JUMP INVALID LOG2 PUSH5 0x6970667358 0x22 SLT KECCAK256 CREATE2 DIV ADD CALLVALUE 0x4A PUSH19 0x9CB351B71FA5542ACBC9C48557D6BE2E16BE9A DUP6 PUSH21 0x3822722A5C64736F6C634300081200330000000000 "
				},
				"gasEstimates": {
					"creation": {
						"codeDepositCost": "206600",
						"executionCost": "infinite",
						"totalCost": "infinite"
					},
					"external": {
						"f1()": "infinite",
						"getAge()": "2459",
						"name()": "infinite",
						"roll_no()": "2429",
						"setAge(uint256)": "22615"
					}
				},
				"methodIdentifiers": {
					"f1()": "c27fc305",
					"getAge()": "967e6e65",
					"name()": "06fdde03",
					"roll_no()": "8382f514",
					"setAge(uint256)": "d5dcf127"
				}
			},
			"storageLayout": {
				"storage": [
					{
						"astId": 3,
						"contract": "Fall-2023/24_MultipleInheritance.sol:Student",
						"label": "age",
						"offset": 0,
						"slot": "0",
						"type": "t_uint256"
					},
					{
						"astId": 6,
						"contract": "Fall-2023/24_MultipleInheritance.sol:Student",
						"label": "name",
						"offset": 0,
						"slot": "1",
						"type": "t_string_storage"
					},
					{
						"astId": 53,
						"contract": "Fall-2023/24_MultipleInheritance.sol:Student",
						"label": "roll_no",
						"offset": 0,
						"slot": "2",
						"type": "t_uint256"
					}
				],
				"types": {
					"t_string_storage": {
						"encoding": "bytes",
						"label": "string",
						"numberOfBytes": "32"
					},
					"t_uint256": {
						"encoding": "inplace",
						"label": "uint256",
						"numberOfBytes": "32"
					}
				}
			},
			"userdoc": {
				"kind": "user",
				"methods": {},
				"version": 1
			}
		}
	}
}