{
	"Fall-2023/Copy_Class16.sol": {
		"TransferSendCall": {
			"abi": [
				{
					"inputs": [
						{
							"internalType": "address payable",
							"name": "_to",
							"type": "address"
						}
					],
					"name": "depositUsingCall",
					"outputs": [],
					"stateMutability": "payable",
					"type": "function"
				},
				{
					"inputs": [
						{
							"internalType": "address payable",
							"name": "_to",
							"type": "address"
						}
					],
					"name": "depositUsingSend",
					"outputs": [],
					"stateMutability": "payable",
					"type": "function"
				},
				{
					"inputs": [
						{
							"internalType": "address payable",
							"name": "_to",
							"type": "address"
						}
					],
					"name": "depositUsingTransfer",
					"outputs": [],
					"stateMutability": "payable",
					"type": "function"
				}
			],
			"devdoc": {
				"kind": "dev",
				"methods": {},
				"version": 1
			},
			"evm": {
				"assembly": "    /* \"Fall-2023/Copy_Class16.sol\":103:964  contract TransferSendCall... */\n  mstore(0x40, 0x80)\n  callvalue\n  dup1\n  iszero\n  tag_1\n  jumpi\n  0x00\n  dup1\n  revert\ntag_1:\n  pop\n  dataSize(sub_0)\n  dup1\n  dataOffset(sub_0)\n  0x00\n  codecopy\n  0x00\n  return\nstop\n\nsub_0: assembly {\n        /* \"Fall-2023/Copy_Class16.sol\":103:964  contract TransferSendCall... */\n      mstore(0x40, 0x80)\n      jumpi(tag_1, lt(calldatasize, 0x04))\n      shr(0xe0, calldataload(0x00))\n      dup1\n      0x5a19818d\n      eq\n      tag_2\n      jumpi\n      dup1\n      0x9869faa7\n      eq\n      tag_3\n      jumpi\n      dup1\n      0xce172b1c\n      eq\n      tag_4\n      jumpi\n    tag_1:\n      0x00\n      dup1\n      revert\n        /* \"Fall-2023/Copy_Class16.sol\":139:263  function depositUsingTransfer(address payable _to) public payable... */\n    tag_2:\n      tag_5\n      0x04\n      dup1\n      calldatasize\n      sub\n      dup2\n      add\n      swap1\n      tag_6\n      swap2\n      swap1\n      tag_7\n      jump\t// in\n    tag_6:\n      tag_8\n      jump\t// in\n    tag_5:\n      stop\n        /* \"Fall-2023/Copy_Class16.sol\":271:450  function depositUsingSend(address payable _to) public payable... */\n    tag_3:\n      tag_9\n      0x04\n      dup1\n      calldatasize\n      sub\n      dup2\n      add\n      swap1\n      tag_10\n      swap2\n      swap1\n      tag_7\n      jump\t// in\n    tag_10:\n      tag_11\n      jump\t// in\n    tag_9:\n      stop\n        /* \"Fall-2023/Copy_Class16.sol\":458:961  function depositUsingCall(address payable _to) public payable... */\n    tag_4:\n      tag_12\n      0x04\n      dup1\n      calldatasize\n      sub\n      dup2\n      add\n      swap1\n      tag_13\n      swap2\n      swap1\n      tag_7\n      jump\t// in\n    tag_13:\n      tag_14\n      jump\t// in\n    tag_12:\n      stop\n        /* \"Fall-2023/Copy_Class16.sol\":139:263  function depositUsingTransfer(address payable _to) public payable... */\n    tag_8:\n        /* \"Fall-2023/Copy_Class16.sol\":221:224  _to */\n      dup1\n        /* \"Fall-2023/Copy_Class16.sol\":221:233  _to.transfer */\n      0xffffffffffffffffffffffffffffffffffffffff\n      and\n        /* \"Fall-2023/Copy_Class16.sol\":221:244  _to.transfer(msg.value) */\n      0x08fc\n        /* \"Fall-2023/Copy_Class16.sol\":234:243  msg.value */\n      callvalue\n        /* \"Fall-2023/Copy_Class16.sol\":221:244  _to.transfer(msg.value) */\n      swap1\n      dup2\n      iszero\n      mul\n      swap1\n      mload(0x40)\n      0x00\n      mload(0x40)\n      dup1\n      dup4\n      sub\n      dup2\n      dup6\n      dup9\n      dup9\n      call\n      swap4\n      pop\n      pop\n      pop\n      pop\n      iszero\n      dup1\n      iszero\n      tag_17\n      jumpi\n      returndatasize\n      0x00\n      dup1\n      returndatacopy\n      revert(0x00, returndatasize)\n    tag_17:\n      pop\n        /* \"Fall-2023/Copy_Class16.sol\":139:263  function depositUsingTransfer(address payable _to) public payable... */\n      pop\n      jump\t// out\n        /* \"Fall-2023/Copy_Class16.sol\":271:450  function depositUsingSend(address payable _to) public payable... */\n    tag_11:\n        /* \"Fall-2023/Copy_Class16.sol\":349:358  bool send */\n      0x00\n        /* \"Fall-2023/Copy_Class16.sol\":361:364  _to */\n      dup2\n        /* \"Fall-2023/Copy_Class16.sol\":361:369  _to.send */\n      0xffffffffffffffffffffffffffffffffffffffff\n      and\n        /* \"Fall-2023/Copy_Class16.sol\":361:380  _to.send(msg.value) */\n      0x08fc\n        /* \"Fall-2023/Copy_Class16.sol\":370:379  msg.value */\n      callvalue\n        /* \"Fall-2023/Copy_Class16.sol\":361:380  _to.send(msg.value) */\n      swap1\n      dup2\n      iszero\n      mul\n      swap1\n      mload(0x40)\n      0x00\n      mload(0x40)\n      dup1\n      dup4\n      sub\n      dup2\n      dup6\n      dup9\n      dup9\n      call\n      swap4\n      pop\n      pop\n      pop\n      pop\n        /* \"Fall-2023/Copy_Class16.sol\":349:380  bool send = _to.send(msg.value) */\n      swap1\n      pop\n        /* \"Fall-2023/Copy_Class16.sol\":410:414  send */\n      dup1\n        /* \"Fall-2023/Copy_Class16.sol\":402:442  require(send, \"Failure! Ether not sent\") */\n      tag_20\n      jumpi\n      mload(0x40)\n      0x08c379a000000000000000000000000000000000000000000000000000000000\n      dup2\n      mstore\n      0x04\n      add\n      tag_21\n      swap1\n      tag_22\n      jump\t// in\n    tag_21:\n      mload(0x40)\n      dup1\n      swap2\n      sub\n      swap1\n      revert\n    tag_20:\n        /* \"Fall-2023/Copy_Class16.sol\":338:450  {... */\n      pop\n        /* \"Fall-2023/Copy_Class16.sol\":271:450  function depositUsingSend(address payable _to) public payable... */\n      pop\n      jump\t// out\n        /* \"Fall-2023/Copy_Class16.sol\":458:961  function depositUsingCall(address payable _to) public payable... */\n    tag_14:\n        /* \"Fall-2023/Copy_Class16.sol\":536:539  _to */\n      dup1\n        /* \"Fall-2023/Copy_Class16.sol\":536:548  _to.transfer */\n      0xffffffffffffffffffffffffffffffffffffffff\n      and\n        /* \"Fall-2023/Copy_Class16.sol\":536:559  _to.transfer(msg.value) */\n      0x08fc\n        /* \"Fall-2023/Copy_Class16.sol\":549:558  msg.value */\n      callvalue\n        /* \"Fall-2023/Copy_Class16.sol\":536:559  _to.transfer(msg.value) */\n      swap1\n      dup2\n      iszero\n      mul\n      swap1\n      mload(0x40)\n      0x00\n      mload(0x40)\n      dup1\n      dup4\n      sub\n      dup2\n      dup6\n      dup9\n      dup9\n      call\n      swap4\n      pop\n      pop\n      pop\n      pop\n      iszero\n      dup1\n      iszero\n      tag_25\n      jumpi\n      returndatasize\n      0x00\n      dup1\n      returndatacopy\n      revert(0x00, returndatasize)\n    tag_25:\n      pop\n        /* \"Fall-2023/Copy_Class16.sol\":592:601  bool send */\n      0x00\n        /* \"Fall-2023/Copy_Class16.sol\":616:619  _to */\n      dup2\n        /* \"Fall-2023/Copy_Class16.sol\":608:625  payable(_to).call */\n      0xffffffffffffffffffffffffffffffffffffffff\n      and\n        /* \"Fall-2023/Copy_Class16.sol\":633:654  address(this).balance */\n      selfbalance\n        /* \"Fall-2023/Copy_Class16.sol\":608:659  payable(_to).call{value: address(this).balance}(\"\") */\n      mload(0x40)\n      tag_26\n      swap1\n      tag_27\n      jump\t// in\n    tag_26:\n      0x00\n      mload(0x40)\n      dup1\n      dup4\n      sub\n      dup2\n      dup6\n      dup8\n      gas\n      call\n      swap3\n      pop\n      pop\n      pop\n      returndatasize\n      dup1\n      0x00\n      dup2\n      eq\n      tag_30\n      jumpi\n      mload(0x40)\n      swap2\n      pop\n      and(add(returndatasize, 0x3f), not(0x1f))\n      dup3\n      add\n      0x40\n      mstore\n      returndatasize\n      dup3\n      mstore\n      returndatasize\n      0x00\n      0x20\n      dup5\n      add\n      returndatacopy\n      jump(tag_29)\n    tag_30:\n      0x60\n      swap2\n      pop\n    tag_29:\n      pop\n        /* \"Fall-2023/Copy_Class16.sol\":591:659  (bool send, )  = payable(_to).call{value: address(this).balance}(\"\") */\n      pop\n      swap1\n      pop\n        /* \"Fall-2023/Copy_Class16.sol\":921:925  send */\n      dup1\n        /* \"Fall-2023/Copy_Class16.sol\":913:953  require(send, \"Failure! Ether not sent\") */\n      tag_31\n      jumpi\n      mload(0x40)\n      0x08c379a000000000000000000000000000000000000000000000000000000000\n      dup2\n      mstore\n      0x04\n      add\n      tag_32\n      swap1\n      tag_22\n      jump\t// in\n    tag_32:\n      mload(0x40)\n      dup1\n      swap2\n      sub\n      swap1\n      revert\n    tag_31:\n        /* \"Fall-2023/Copy_Class16.sol\":525:961  {... */\n      pop\n        /* \"Fall-2023/Copy_Class16.sol\":458:961  function depositUsingCall(address payable _to) public payable... */\n      pop\n      jump\t// out\n        /* \"#utility.yul\":88:205   */\n    tag_34:\n        /* \"#utility.yul\":197:198   */\n      0x00\n        /* \"#utility.yul\":194:195   */\n      dup1\n        /* \"#utility.yul\":187:199   */\n      revert\n        /* \"#utility.yul\":334:460   */\n    tag_36:\n        /* \"#utility.yul\":371:378   */\n      0x00\n        /* \"#utility.yul\":411:453   */\n      0xffffffffffffffffffffffffffffffffffffffff\n        /* \"#utility.yul\":404:409   */\n      dup3\n        /* \"#utility.yul\":400:454   */\n      and\n        /* \"#utility.yul\":389:454   */\n      swap1\n      pop\n        /* \"#utility.yul\":334:460   */\n      swap2\n      swap1\n      pop\n      jump\t// out\n        /* \"#utility.yul\":466:570   */\n    tag_37:\n        /* \"#utility.yul\":511:518   */\n      0x00\n        /* \"#utility.yul\":540:564   */\n      tag_52\n        /* \"#utility.yul\":558:563   */\n      dup3\n        /* \"#utility.yul\":540:564   */\n      tag_36\n      jump\t// in\n    tag_52:\n        /* \"#utility.yul\":529:564   */\n      swap1\n      pop\n        /* \"#utility.yul\":466:570   */\n      swap2\n      swap1\n      pop\n      jump\t// out\n        /* \"#utility.yul\":576:714   */\n    tag_38:\n        /* \"#utility.yul\":657:689   */\n      tag_54\n        /* \"#utility.yul\":683:688   */\n      dup2\n        /* \"#utility.yul\":657:689   */\n      tag_37\n      jump\t// in\n    tag_54:\n        /* \"#utility.yul\":650:655   */\n      dup2\n        /* \"#utility.yul\":647:690   */\n      eq\n        /* \"#utility.yul\":637:708   */\n      tag_55\n      jumpi\n        /* \"#utility.yul\":704:705   */\n      0x00\n        /* \"#utility.yul\":701:702   */\n      dup1\n        /* \"#utility.yul\":694:706   */\n      revert\n        /* \"#utility.yul\":637:708   */\n    tag_55:\n        /* \"#utility.yul\":576:714   */\n      pop\n      jump\t// out\n        /* \"#utility.yul\":720:875   */\n    tag_39:\n        /* \"#utility.yul\":774:779   */\n      0x00\n        /* \"#utility.yul\":812:818   */\n      dup2\n        /* \"#utility.yul\":799:819   */\n      calldataload\n        /* \"#utility.yul\":790:819   */\n      swap1\n      pop\n        /* \"#utility.yul\":828:869   */\n      tag_57\n        /* \"#utility.yul\":863:868   */\n      dup2\n        /* \"#utility.yul\":828:869   */\n      tag_38\n      jump\t// in\n    tag_57:\n        /* \"#utility.yul\":720:875   */\n      swap3\n      swap2\n      pop\n      pop\n      jump\t// out\n        /* \"#utility.yul\":881:1226   */\n    tag_7:\n        /* \"#utility.yul\":948:954   */\n      0x00\n        /* \"#utility.yul\":997:999   */\n      0x20\n        /* \"#utility.yul\":985:994   */\n      dup3\n        /* \"#utility.yul\":976:983   */\n      dup5\n        /* \"#utility.yul\":972:995   */\n      sub\n        /* \"#utility.yul\":968:1000   */\n      slt\n        /* \"#utility.yul\":965:1084   */\n      iszero\n      tag_59\n      jumpi\n        /* \"#utility.yul\":1003:1082   */\n      tag_60\n      tag_34\n      jump\t// in\n    tag_60:\n        /* \"#utility.yul\":965:1084   */\n    tag_59:\n        /* \"#utility.yul\":1123:1124   */\n      0x00\n        /* \"#utility.yul\":1148:1209   */\n      tag_61\n        /* \"#utility.yul\":1201:1208   */\n      dup5\n        /* \"#utility.yul\":1192:1198   */\n      dup3\n        /* \"#utility.yul\":1181:1190   */\n      dup6\n        /* \"#utility.yul\":1177:1199   */\n      add\n        /* \"#utility.yul\":1148:1209   */\n      tag_39\n      jump\t// in\n    tag_61:\n        /* \"#utility.yul\":1138:1209   */\n      swap2\n      pop\n        /* \"#utility.yul\":1094:1219   */\n      pop\n        /* \"#utility.yul\":881:1226   */\n      swap3\n      swap2\n      pop\n      pop\n      jump\t// out\n        /* \"#utility.yul\":1232:1401   */\n    tag_40:\n        /* \"#utility.yul\":1316:1327   */\n      0x00\n        /* \"#utility.yul\":1350:1356   */\n      dup3\n        /* \"#utility.yul\":1345:1348   */\n      dup3\n        /* \"#utility.yul\":1338:1357   */\n      mstore\n        /* \"#utility.yul\":1390:1394   */\n      0x20\n        /* \"#utility.yul\":1385:1388   */\n      dup3\n        /* \"#utility.yul\":1381:1395   */\n      add\n        /* \"#utility.yul\":1366:1395   */\n      swap1\n      pop\n        /* \"#utility.yul\":1232:1401   */\n      swap3\n      swap2\n      pop\n      pop\n      jump\t// out\n        /* \"#utility.yul\":1407:1580   */\n    tag_41:\n        /* \"#utility.yul\":1547:1572   */\n      0x4661696c75726521204574686572206e6f742073656e74000000000000000000\n        /* \"#utility.yul\":1543:1544   */\n      0x00\n        /* \"#utility.yul\":1535:1541   */\n      dup3\n        /* \"#utility.yul\":1531:1545   */\n      add\n        /* \"#utility.yul\":1524:1573   */\n      mstore\n        /* \"#utility.yul\":1407:1580   */\n      pop\n      jump\t// out\n        /* \"#utility.yul\":1586:1952   */\n    tag_42:\n        /* \"#utility.yul\":1728:1731   */\n      0x00\n        /* \"#utility.yul\":1749:1816   */\n      tag_65\n        /* \"#utility.yul\":1813:1815   */\n      0x17\n        /* \"#utility.yul\":1808:1811   */\n      dup4\n        /* \"#utility.yul\":1749:1816   */\n      tag_40\n      jump\t// in\n    tag_65:\n        /* \"#utility.yul\":1742:1816   */\n      swap2\n      pop\n        /* \"#utility.yul\":1825:1918   */\n      tag_66\n        /* \"#utility.yul\":1914:1917   */\n      dup3\n        /* \"#utility.yul\":1825:1918   */\n      tag_41\n      jump\t// in\n    tag_66:\n        /* \"#utility.yul\":1943:1945   */\n      0x20\n        /* \"#utility.yul\":1938:1941   */\n      dup3\n        /* \"#utility.yul\":1934:1946   */\n      add\n        /* \"#utility.yul\":1927:1946   */\n      swap1\n      pop\n        /* \"#utility.yul\":1586:1952   */\n      swap2\n      swap1\n      pop\n      jump\t// out\n        /* \"#utility.yul\":1958:2377   */\n    tag_22:\n        /* \"#utility.yul\":2124:2128   */\n      0x00\n        /* \"#utility.yul\":2162:2164   */\n      0x20\n        /* \"#utility.yul\":2151:2160   */\n      dup3\n        /* \"#utility.yul\":2147:2165   */\n      add\n        /* \"#utility.yul\":2139:2165   */\n      swap1\n      pop\n        /* \"#utility.yul\":2211:2220   */\n      dup2\n        /* \"#utility.yul\":2205:2209   */\n      dup2\n        /* \"#utility.yul\":2201:2221   */\n      sub\n        /* \"#utility.yul\":2197:2198   */\n      0x00\n        /* \"#utility.yul\":2186:2195   */\n      dup4\n        /* \"#utility.yul\":2182:2199   */\n      add\n        /* \"#utility.yul\":2175:2222   */\n      mstore\n        /* \"#utility.yul\":2239:2370   */\n      tag_68\n        /* \"#utility.yul\":2365:2369   */\n      dup2\n        /* \"#utility.yul\":2239:2370   */\n      tag_42\n      jump\t// in\n    tag_68:\n        /* \"#utility.yul\":2231:2370   */\n      swap1\n      pop\n        /* \"#utility.yul\":1958:2377   */\n      swap2\n      swap1\n      pop\n      jump\t// out\n        /* \"#utility.yul\":2383:2530   */\n    tag_43:\n        /* \"#utility.yul\":2484:2495   */\n      0x00\n        /* \"#utility.yul\":2521:2524   */\n      dup2\n        /* \"#utility.yul\":2506:2524   */\n      swap1\n      pop\n        /* \"#utility.yul\":2383:2530   */\n      swap3\n      swap2\n      pop\n      pop\n      jump\t// out\n        /* \"#utility.yul\":2536:2650   */\n    tag_44:\n      pop\n      jump\t// out\n        /* \"#utility.yul\":2656:3054   */\n    tag_45:\n        /* \"#utility.yul\":2815:2818   */\n      0x00\n        /* \"#utility.yul\":2836:2919   */\n      tag_72\n        /* \"#utility.yul\":2917:2918   */\n      0x00\n        /* \"#utility.yul\":2912:2915   */\n      dup4\n        /* \"#utility.yul\":2836:2919   */\n      tag_43\n      jump\t// in\n    tag_72:\n        /* \"#utility.yul\":2829:2919   */\n      swap2\n      pop\n        /* \"#utility.yul\":2928:3021   */\n      tag_73\n        /* \"#utility.yul\":3017:3020   */\n      dup3\n        /* \"#utility.yul\":2928:3021   */\n      tag_44\n      jump\t// in\n    tag_73:\n        /* \"#utility.yul\":3046:3047   */\n      0x00\n        /* \"#utility.yul\":3041:3044   */\n      dup3\n        /* \"#utility.yul\":3037:3048   */\n      add\n        /* \"#utility.yul\":3030:3048   */\n      swap1\n      pop\n        /* \"#utility.yul\":2656:3054   */\n      swap2\n      swap1\n      pop\n      jump\t// out\n        /* \"#utility.yul\":3060:3439   */\n    tag_27:\n        /* \"#utility.yul\":3244:3247   */\n      0x00\n        /* \"#utility.yul\":3266:3413   */\n      tag_75\n        /* \"#utility.yul\":3409:3412   */\n      dup3\n        /* \"#utility.yul\":3266:3413   */\n      tag_45\n      jump\t// in\n    tag_75:\n        /* \"#utility.yul\":3259:3413   */\n      swap2\n      pop\n        /* \"#utility.yul\":3430:3433   */\n      dup2\n        /* \"#utility.yul\":3423:3433   */\n      swap1\n      pop\n        /* \"#utility.yul\":3060:3439   */\n      swap2\n      swap1\n      pop\n      jump\t// out\n\n    auxdata: 0xa2646970667358221220c8727991b63d53800b2d6c5e1ebd059d6368056fd378bfac70f5b465bfb8cde764736f6c63430008160033\n}\n",
				"bytecode": {
					"linkReferences": {},
					"object": "608060405234801561000f575f80fd5b506103b58061001d5f395ff3fe608060405260043610610033575f3560e01c80635a19818d146100375780639869faa714610053578063ce172b1c1461006f575b5f80fd5b610051600480360381019061004c919061029b565b61008b565b005b61006d6004803603810190610068919061029b565b6100d2565b005b6100896004803603810190610084919061029b565b61014d565b005b8073ffffffffffffffffffffffffffffffffffffffff166108fc3490811502906040515f60405180830381858888f193505050501580156100ce573d5f803e3d5ffd5b5050565b5f8173ffffffffffffffffffffffffffffffffffffffff166108fc3490811502906040515f60405180830381858888f19350505050905080610149576040517f08c379a000000000000000000000000000000000000000000000000000000000815260040161014090610320565b60405180910390fd5b5050565b8073ffffffffffffffffffffffffffffffffffffffff166108fc3490811502906040515f60405180830381858888f19350505050158015610190573d5f803e3d5ffd5b505f8173ffffffffffffffffffffffffffffffffffffffff16476040516101b69061036b565b5f6040518083038185875af1925050503d805f81146101f0576040519150601f19603f3d011682016040523d82523d5f602084013e6101f5565b606091505b5050905080610239576040517f08c379a000000000000000000000000000000000000000000000000000000000815260040161023090610320565b60405180910390fd5b5050565b5f80fd5b5f73ffffffffffffffffffffffffffffffffffffffff82169050919050565b5f61026a82610241565b9050919050565b61027a81610260565b8114610284575f80fd5b50565b5f8135905061029581610271565b92915050565b5f602082840312156102b0576102af61023d565b5b5f6102bd84828501610287565b91505092915050565b5f82825260208201905092915050565b7f4661696c75726521204574686572206e6f742073656e740000000000000000005f82015250565b5f61030a6017836102c6565b9150610315826102d6565b602082019050919050565b5f6020820190508181035f830152610337816102fe565b9050919050565b5f81905092915050565b50565b5f6103565f8361033e565b915061036182610348565b5f82019050919050565b5f6103758261034b565b915081905091905056fea2646970667358221220c8727991b63d53800b2d6c5e1ebd059d6368056fd378bfac70f5b465bfb8cde764736f6c63430008160033",
					"opcodes": "PUSH1 0x80 PUSH1 0x40 MSTORE CALLVALUE DUP1 ISZERO PUSH2 0xF JUMPI PUSH0 DUP1 REVERT JUMPDEST POP PUSH2 0x3B5 DUP1 PUSH2 0x1D PUSH0 CODECOPY PUSH0 RETURN INVALID PUSH1 0x80 PUSH1 0x40 MSTORE PUSH1 0x4 CALLDATASIZE LT PUSH2 0x33 JUMPI PUSH0 CALLDATALOAD PUSH1 0xE0 SHR DUP1 PUSH4 0x5A19818D EQ PUSH2 0x37 JUMPI DUP1 PUSH4 0x9869FAA7 EQ PUSH2 0x53 JUMPI DUP1 PUSH4 0xCE172B1C EQ PUSH2 0x6F JUMPI JUMPDEST PUSH0 DUP1 REVERT JUMPDEST PUSH2 0x51 PUSH1 0x4 DUP1 CALLDATASIZE SUB DUP2 ADD SWAP1 PUSH2 0x4C SWAP2 SWAP1 PUSH2 0x29B JUMP JUMPDEST PUSH2 0x8B JUMP JUMPDEST STOP JUMPDEST PUSH2 0x6D PUSH1 0x4 DUP1 CALLDATASIZE SUB DUP2 ADD SWAP1 PUSH2 0x68 SWAP2 SWAP1 PUSH2 0x29B JUMP JUMPDEST PUSH2 0xD2 JUMP JUMPDEST STOP JUMPDEST PUSH2 0x89 PUSH1 0x4 DUP1 CALLDATASIZE SUB DUP2 ADD SWAP1 PUSH2 0x84 SWAP2 SWAP1 PUSH2 0x29B JUMP JUMPDEST PUSH2 0x14D JUMP JUMPDEST STOP JUMPDEST DUP1 PUSH20 0xFFFFFFFFFFFFFFFFFFFFFFFFFFFFFFFFFFFFFFFF AND PUSH2 0x8FC CALLVALUE SWAP1 DUP2 ISZERO MUL SWAP1 PUSH1 0x40 MLOAD PUSH0 PUSH1 0x40 MLOAD DUP1 DUP4 SUB DUP2 DUP6 DUP9 DUP9 CALL SWAP4 POP POP POP POP ISZERO DUP1 ISZERO PUSH2 0xCE JUMPI RETURNDATASIZE PUSH0 DUP1 RETURNDATACOPY RETURNDATASIZE PUSH0 REVERT JUMPDEST POP POP JUMP JUMPDEST PUSH0 DUP2 PUSH20 0xFFFFFFFFFFFFFFFFFFFFFFFFFFFFFFFFFFFFFFFF AND PUSH2 0x8FC CALLVALUE SWAP1 DUP2 ISZERO MUL SWAP1 PUSH1 0x40 MLOAD PUSH0 PUSH1 0x40 MLOAD DUP1 DUP4 SUB DUP2 DUP6 DUP9 DUP9 CALL SWAP4 POP POP POP POP SWAP1 POP DUP1 PUSH2 0x149 JUMPI PUSH1 0x40 MLOAD PUSH32 0x8C379A000000000000000000000000000000000000000000000000000000000 DUP2 MSTORE PUSH1 0x4 ADD PUSH2 0x140 SWAP1 PUSH2 0x320 JUMP JUMPDEST PUSH1 0x40 MLOAD DUP1 SWAP2 SUB SWAP1 REVERT JUMPDEST POP POP JUMP JUMPDEST DUP1 PUSH20 0xFFFFFFFFFFFFFFFFFFFFFFFFFFFFFFFFFFFFFFFF AND PUSH2 0x8FC CALLVALUE SWAP1 DUP2 ISZERO MUL SWAP1 PUSH1 0x40 MLOAD PUSH0 PUSH1 0x40 MLOAD DUP1 DUP4 SUB DUP2 DUP6 DUP9 DUP9 CALL SWAP4 POP POP POP POP ISZERO DUP1 ISZERO PUSH2 0x190 JUMPI RETURNDATASIZE PUSH0 DUP1 RETURNDATACOPY RETURNDATASIZE PUSH0 REVERT JUMPDEST POP PUSH0 DUP2 PUSH20 0xFFFFFFFFFFFFFFFFFFFFFFFFFFFFFFFFFFFFFFFF AND SELFBALANCE PUSH1 0x40 MLOAD PUSH2 0x1B6 SWAP1 PUSH2 0x36B JUMP JUMPDEST PUSH0 PUSH1 0x40 MLOAD DUP1 DUP4 SUB DUP2 DUP6 DUP8 GAS CALL SWAP3 POP POP POP RETURNDATASIZE DUP1 PUSH0 DUP2 EQ PUSH2 0x1F0 JUMPI PUSH1 0x40 MLOAD SWAP2 POP PUSH1 0x1F NOT PUSH1 0x3F RETURNDATASIZE ADD AND DUP3 ADD PUSH1 0x40 MSTORE RETURNDATASIZE DUP3 MSTORE RETURNDATASIZE PUSH0 PUSH1 0x20 DUP5 ADD RETURNDATACOPY PUSH2 0x1F5 JUMP JUMPDEST PUSH1 0x60 SWAP2 POP JUMPDEST POP POP SWAP1 POP DUP1 PUSH2 0x239 JUMPI PUSH1 0x40 MLOAD PUSH32 0x8C379A000000000000000000000000000000000000000000000000000000000 DUP2 MSTORE PUSH1 0x4 ADD PUSH2 0x230 SWAP1 PUSH2 0x320 JUMP JUMPDEST PUSH1 0x40 MLOAD DUP1 SWAP2 SUB SWAP1 REVERT JUMPDEST POP POP JUMP JUMPDEST PUSH0 DUP1 REVERT JUMPDEST PUSH0 PUSH20 0xFFFFFFFFFFFFFFFFFFFFFFFFFFFFFFFFFFFFFFFF DUP3 AND SWAP1 POP SWAP2 SWAP1 POP JUMP JUMPDEST PUSH0 PUSH2 0x26A DUP3 PUSH2 0x241 JUMP JUMPDEST SWAP1 POP SWAP2 SWAP1 POP JUMP JUMPDEST PUSH2 0x27A DUP2 PUSH2 0x260 JUMP JUMPDEST DUP2 EQ PUSH2 0x284 JUMPI PUSH0 DUP1 REVERT JUMPDEST POP JUMP JUMPDEST PUSH0 DUP2 CALLDATALOAD SWAP1 POP PUSH2 0x295 DUP2 PUSH2 0x271 JUMP JUMPDEST SWAP3 SWAP2 POP POP JUMP JUMPDEST PUSH0 PUSH1 0x20 DUP3 DUP5 SUB SLT ISZERO PUSH2 0x2B0 JUMPI PUSH2 0x2AF PUSH2 0x23D JUMP JUMPDEST JUMPDEST PUSH0 PUSH2 0x2BD DUP5 DUP3 DUP6 ADD PUSH2 0x287 JUMP JUMPDEST SWAP2 POP POP SWAP3 SWAP2 POP POP JUMP JUMPDEST PUSH0 DUP3 DUP3 MSTORE PUSH1 0x20 DUP3 ADD SWAP1 POP SWAP3 SWAP2 POP POP JUMP JUMPDEST PUSH32 0x4661696C75726521204574686572206E6F742073656E74000000000000000000 PUSH0 DUP3 ADD MSTORE POP JUMP JUMPDEST PUSH0 PUSH2 0x30A PUSH1 0x17 DUP4 PUSH2 0x2C6 JUMP JUMPDEST SWAP2 POP PUSH2 0x315 DUP3 PUSH2 0x2D6 JUMP JUMPDEST PUSH1 0x20 DUP3 ADD SWAP1 POP SWAP2 SWAP1 POP JUMP JUMPDEST PUSH0 PUSH1 0x20 DUP3 ADD SWAP1 POP DUP2 DUP2 SUB PUSH0 DUP4 ADD MSTORE PUSH2 0x337 DUP2 PUSH2 0x2FE JUMP JUMPDEST SWAP1 POP SWAP2 SWAP1 POP JUMP JUMPDEST PUSH0 DUP2 SWAP1 POP SWAP3 SWAP2 POP POP JUMP JUMPDEST POP JUMP JUMPDEST PUSH0 PUSH2 0x356 PUSH0 DUP4 PUSH2 0x33E JUMP JUMPDEST SWAP2 POP PUSH2 0x361 DUP3 PUSH2 0x348 JUMP JUMPDEST PUSH0 DUP3 ADD SWAP1 POP SWAP2 SWAP1 POP JUMP JUMPDEST PUSH0 PUSH2 0x375 DUP3 PUSH2 0x34B JUMP JUMPDEST SWAP2 POP DUP2 SWAP1 POP SWAP2 SWAP1 POP JUMP INVALID LOG2 PUSH5 0x6970667358 0x22 SLT KECCAK256 0xC8 PUSH19 0x7991B63D53800B2D6C5E1EBD059D6368056FD3 PUSH25 0xBFAC70F5B465BFB8CDE764736F6C6343000816003300000000 "
				},
				"gasEstimates": {
					"creation": {
						"codeDepositCost": "189800",
						"executionCost": "230",
						"totalCost": "190030"
					},
					"external": {
						"depositUsingCall(address)": "infinite",
						"depositUsingSend(address)": "infinite",
						"depositUsingTransfer(address)": "infinite"
					}
				},
				"methodIdentifiers": {
					"depositUsingCall(address)": "ce172b1c",
					"depositUsingSend(address)": "9869faa7",
					"depositUsingTransfer(address)": "5a19818d"
				}
			},
			"storageLayout": {
				"storage": [],
				"types": null
			},
			"userdoc": {
				"kind": "user",
				"methods": {},
				"version": 1
			}
		}
	}
}