{
	"Fall-2023/11_ByteArray_Bytes.sol": {
		"ByteArray": {
			"abi": [
				{
					"inputs": [],
					"name": "getDynamicLength",
					"outputs": [
						{
							"internalType": "uint256",
							"name": "",
							"type": "uint256"
						}
					],
					"stateMutability": "view",
					"type": "function"
				},
				{
					"inputs": [],
					"name": "getStaticLength",
					"outputs": [
						{
							"internalType": "uint256",
							"name": "",
							"type": "uint256"
						}
					],
					"stateMutability": "view",
					"type": "function"
				},
				{
					"inputs": [
						{
							"internalType": "uint256",
							"name": "index",
							"type": "uint256"
						}
					],
					"name": "getValueDynamic",
					"outputs": [
						{
							"internalType": "bytes1",
							"name": "",
							"type": "bytes1"
						}
					],
					"stateMutability": "view",
					"type": "function"
				},
				{
					"inputs": [
						{
							"internalType": "uint256",
							"name": "index",
							"type": "uint256"
						}
					],
					"name": "getValueStatic",
					"outputs": [
						{
							"internalType": "bytes",
							"name": "",
							"type": "bytes"
						}
					],
					"stateMutability": "view",
					"type": "function"
				},
				{
					"inputs": [
						{
							"internalType": "bytes1",
							"name": "_b1",
							"type": "bytes1"
						}
					],
					"name": "setValueDynamic",
					"outputs": [],
					"stateMutability": "nonpayable",
					"type": "function"
				},
				{
					"inputs": [
						{
							"internalType": "uint256",
							"name": "index",
							"type": "uint256"
						},
						{
							"internalType": "bytes",
							"name": "_b1",
							"type": "bytes"
						}
					],
					"name": "setValueStatic",
					"outputs": [],
					"stateMutability": "nonpayable",
					"type": "function"
				}
			],
			"devdoc": {
				"kind": "dev",
				"methods": {},
				"version": 1
			},
			"evm": {
				"assembly": "    /* \"Fall-2023/11_ByteArray_Bytes.sol\":92:867  contract ByteArray... */\n  mstore(0x40, 0x80)\n  callvalue\n  dup1\n  iszero\n  tag_1\n  jumpi\n  0x00\n  dup1\n  revert\ntag_1:\n  pop\n  dataSize(sub_0)\n  dup1\n  dataOffset(sub_0)\n  0x00\n  codecopy\n  0x00\n  return\nstop\n\nsub_0: assembly {\n        /* \"Fall-2023/11_ByteArray_Bytes.sol\":92:867  contract ByteArray... */\n      mstore(0x40, 0x80)\n      callvalue\n      dup1\n      iszero\n      tag_1\n      jumpi\n      0x00\n      dup1\n      revert\n    tag_1:\n      pop\n      jumpi(tag_2, lt(calldatasize, 0x04))\n      shr(0xe0, calldataload(0x00))\n      dup1\n      0x14d2360c\n      eq\n      tag_3\n      jumpi\n      dup1\n      0x6aaa2b7e\n      eq\n      tag_4\n      jumpi\n      dup1\n      0x8108d92f\n      eq\n      tag_5\n      jumpi\n      dup1\n      0x8199140e\n      eq\n      tag_6\n      jumpi\n      dup1\n      0xc4b04d7c\n      eq\n      tag_7\n      jumpi\n      dup1\n      0xea27b65b\n      eq\n      tag_8\n      jumpi\n    tag_2:\n      0x00\n      dup1\n      revert\n        /* \"Fall-2023/11_ByteArray_Bytes.sol\":466:558  function getStaticLength() public view returns(uint){... */\n    tag_3:\n      tag_9\n      tag_10\n      jump\t// in\n    tag_9:\n      mload(0x40)\n      tag_11\n      swap2\n      swap1\n      tag_12\n      jump\t// in\n    tag_11:\n      mload(0x40)\n      dup1\n      swap2\n      sub\n      swap1\n      return\n        /* \"Fall-2023/11_ByteArray_Bytes.sol\":351:460  function getValueStatic(uint index) public view returns(bytes memory){... */\n    tag_4:\n      tag_13\n      0x04\n      dup1\n      calldatasize\n      sub\n      dup2\n      add\n      swap1\n      tag_14\n      swap2\n      swap1\n      tag_15\n      jump\t// in\n    tag_14:\n      tag_16\n      jump\t// in\n    tag_13:\n      mload(0x40)\n      tag_17\n      swap2\n      swap1\n      tag_18\n      jump\t// in\n    tag_17:\n      mload(0x40)\n      dup1\n      swap2\n      sub\n      swap1\n      return\n        /* \"Fall-2023/11_ByteArray_Bytes.sol\":245:345  function setValueStatic(uint index, bytes memory _b1) public {... */\n    tag_5:\n      tag_19\n      0x04\n      dup1\n      calldatasize\n      sub\n      dup2\n      add\n      swap1\n      tag_20\n      swap2\n      swap1\n      tag_21\n      jump\t// in\n    tag_20:\n      tag_22\n      jump\t// in\n    tag_19:\n      stop\n        /* \"Fall-2023/11_ByteArray_Bytes.sol\":655:760  function getValueDynamic(uint index) public view returns(bytes1){... */\n    tag_6:\n      tag_23\n      0x04\n      dup1\n      calldatasize\n      sub\n      dup2\n      add\n      swap1\n      tag_24\n      swap2\n      swap1\n      tag_15\n      jump\t// in\n    tag_24:\n      tag_25\n      jump\t// in\n    tag_23:\n      mload(0x40)\n      tag_26\n      swap2\n      swap1\n      tag_27\n      jump\t// in\n    tag_26:\n      mload(0x40)\n      dup1\n      swap2\n      sub\n      swap1\n      return\n        /* \"Fall-2023/11_ByteArray_Bytes.sol\":568:649  function setValueDynamic(bytes1 _b1) public {... */\n    tag_7:\n      tag_28\n      0x04\n      dup1\n      calldatasize\n      sub\n      dup2\n      add\n      swap1\n      tag_29\n      swap2\n      swap1\n      tag_30\n      jump\t// in\n    tag_29:\n      tag_31\n      jump\t// in\n    tag_28:\n      stop\n        /* \"Fall-2023/11_ByteArray_Bytes.sol\":768:862  function getDynamicLength() public view returns(uint){... */\n    tag_8:\n      tag_32\n      tag_33\n      jump\t// in\n    tag_32:\n      mload(0x40)\n      tag_34\n      swap2\n      swap1\n      tag_12\n      jump\t// in\n    tag_34:\n      mload(0x40)\n      dup1\n      swap2\n      sub\n      swap1\n      return\n        /* \"Fall-2023/11_ByteArray_Bytes.sol\":466:558  function getStaticLength() public view returns(uint){... */\n    tag_10:\n        /* \"Fall-2023/11_ByteArray_Bytes.sol\":513:517  uint */\n      0x00\n        /* \"Fall-2023/11_ByteArray_Bytes.sol\":536:550  bStatic.length */\n      0x03\n        /* \"Fall-2023/11_ByteArray_Bytes.sol\":529:550  return bStatic.length */\n      swap1\n      pop\n        /* \"Fall-2023/11_ByteArray_Bytes.sol\":466:558  function getStaticLength() public view returns(uint){... */\n      swap1\n      jump\t// out\n        /* \"Fall-2023/11_ByteArray_Bytes.sol\":351:460  function getValueStatic(uint index) public view returns(bytes memory){... */\n    tag_16:\n        /* \"Fall-2023/11_ByteArray_Bytes.sol\":407:419  bytes memory */\n      0x60\n        /* \"Fall-2023/11_ByteArray_Bytes.sol\":438:445  bStatic */\n      0x00\n        /* \"Fall-2023/11_ByteArray_Bytes.sol\":446:451  index */\n      dup3\n        /* \"Fall-2023/11_ByteArray_Bytes.sol\":438:452  bStatic[index] */\n      0x03\n      dup2\n      lt\n      tag_37\n      jumpi\n      tag_38\n      tag_39\n      jump\t// in\n    tag_38:\n    tag_37:\n      add\n        /* \"Fall-2023/11_ByteArray_Bytes.sol\":431:452  return bStatic[index] */\n      dup1\n      sload\n      tag_41\n      swap1\n      tag_42\n      jump\t// in\n    tag_41:\n      dup1\n      0x1f\n      add\n      0x20\n      dup1\n      swap2\n      div\n      mul\n      0x20\n      add\n      mload(0x40)\n      swap1\n      dup2\n      add\n      0x40\n      mstore\n      dup1\n      swap3\n      swap2\n      swap1\n      dup2\n      dup2\n      mstore\n      0x20\n      add\n      dup3\n      dup1\n      sload\n      tag_43\n      swap1\n      tag_42\n      jump\t// in\n    tag_43:\n      dup1\n      iszero\n      tag_44\n      jumpi\n      dup1\n      0x1f\n      lt\n      tag_45\n      jumpi\n      0x0100\n      dup1\n      dup4\n      sload\n      div\n      mul\n      dup4\n      mstore\n      swap2\n      0x20\n      add\n      swap2\n      jump(tag_44)\n    tag_45:\n      dup3\n      add\n      swap2\n      swap1\n      0x00\n      mstore\n      keccak256(0x00, 0x20)\n      swap1\n    tag_46:\n      dup2\n      sload\n      dup2\n      mstore\n      swap1\n      0x01\n      add\n      swap1\n      0x20\n      add\n      dup1\n      dup4\n      gt\n      tag_46\n      jumpi\n      dup3\n      swap1\n      sub\n      0x1f\n      and\n      dup3\n      add\n      swap2\n    tag_44:\n      pop\n      pop\n      pop\n      pop\n      pop\n      swap1\n      pop\n        /* \"Fall-2023/11_ByteArray_Bytes.sol\":351:460  function getValueStatic(uint index) public view returns(bytes memory){... */\n      swap2\n      swap1\n      pop\n      jump\t// out\n        /* \"Fall-2023/11_ByteArray_Bytes.sol\":245:345  function setValueStatic(uint index, bytes memory _b1) public {... */\n    tag_22:\n        /* \"Fall-2023/11_ByteArray_Bytes.sol\":334:337  _b1 */\n      dup1\n        /* \"Fall-2023/11_ByteArray_Bytes.sol\":317:324  bStatic */\n      0x00\n        /* \"Fall-2023/11_ByteArray_Bytes.sol\":325:330  index */\n      dup4\n        /* \"Fall-2023/11_ByteArray_Bytes.sol\":317:331  bStatic[index] */\n      0x03\n      dup2\n      lt\n      tag_48\n      jumpi\n      tag_49\n      tag_39\n      jump\t// in\n    tag_49:\n    tag_48:\n      add\n        /* \"Fall-2023/11_ByteArray_Bytes.sol\":317:337  bStatic[index] = _b1 */\n      swap1\n      dup2\n      tag_51\n      swap2\n      swap1\n      tag_52\n      jump\t// in\n    tag_51:\n      pop\n        /* \"Fall-2023/11_ByteArray_Bytes.sol\":245:345  function setValueStatic(uint index, bytes memory _b1) public {... */\n      pop\n      pop\n      jump\t// out\n        /* \"Fall-2023/11_ByteArray_Bytes.sol\":655:760  function getValueDynamic(uint index) public view returns(bytes1){... */\n    tag_25:\n        /* \"Fall-2023/11_ByteArray_Bytes.sol\":712:718  bytes1 */\n      0x00\n        /* \"Fall-2023/11_ByteArray_Bytes.sol\":737:745  bDynamic */\n      0x03\n        /* \"Fall-2023/11_ByteArray_Bytes.sol\":746:751  index */\n      dup3\n        /* \"Fall-2023/11_ByteArray_Bytes.sol\":737:752  bDynamic[index] */\n      dup2\n      sload\n      tag_54\n      swap1\n      tag_42\n      jump\t// in\n    tag_54:\n      dup2\n      lt\n      tag_55\n      jumpi\n      tag_56\n      tag_39\n      jump\t// in\n    tag_56:\n    tag_55:\n      dup2\n      sload\n      0x01\n      and\n      iszero\n      tag_57\n      jumpi\n      swap1\n      0x00\n      mstore\n      keccak256(0x00, 0x20)\n      swap1\n      0x20\n      swap2\n      dup3\n      dup3\n      div\n      add\n      swap2\n      swap1\n      mod\n    tag_57:\n      swap1\n      sload\n      swap1\n      byte\n      0x0100000000000000000000000000000000000000000000000000000000000000\n      mul\n        /* \"Fall-2023/11_ByteArray_Bytes.sol\":730:752  return bDynamic[index] */\n      swap1\n      pop\n        /* \"Fall-2023/11_ByteArray_Bytes.sol\":655:760  function getValueDynamic(uint index) public view returns(bytes1){... */\n      swap2\n      swap1\n      pop\n      jump\t// out\n        /* \"Fall-2023/11_ByteArray_Bytes.sol\":568:649  function setValueDynamic(bytes1 _b1) public {... */\n    tag_31:\n        /* \"Fall-2023/11_ByteArray_Bytes.sol\":623:631  bDynamic */\n      0x03\n        /* \"Fall-2023/11_ByteArray_Bytes.sol\":637:640  _b1 */\n      dup2\n        /* \"Fall-2023/11_ByteArray_Bytes.sol\":623:641  bDynamic.push(_b1) */\n      swap1\n      dup1\n      dup1\n      sload\n      dup1\n      tag_59\n      swap1\n      tag_42\n      jump\t// in\n    tag_59:\n      dup1\n      0x1f\n      dup2\n      sub\n      tag_60\n      jumpi\n      dup4\n      0x00\n      mstore\n      keccak256(0x00, 0x20)\n      not(0xff)\n      dup5\n      and\n      dup2\n      sstore\n      0x3f\n      swap4\n      pop\n      pop\n    tag_60:\n      pop\n      0x02\n      dup3\n      add\n      dup4\n      sstore\n      0x01\n      dup2\n      add\n      swap3\n      pop\n      pop\n      pop\n      0x01\n      swap1\n      sub\n      dup2\n      sload\n      0x01\n      and\n      iszero\n      tag_62\n      jumpi\n      swap1\n      0x00\n      mstore\n      keccak256(0x00, 0x20)\n      swap1\n      0x20\n      swap2\n      dup3\n      dup3\n      div\n      add\n      swap2\n      swap1\n      mod\n    tag_62:\n      swap1\n      swap2\n      swap1\n      swap2\n      swap1\n      swap2\n      0x1f\n      sub\n      0x0100\n      exp\n      dup2\n      sload\n      dup2\n      0xff\n      mul\n      not\n      and\n      swap1\n      0x0100000000000000000000000000000000000000000000000000000000000000\n      dup5\n      div\n      mul\n      or\n      swap1\n      sstore\n      pop\n        /* \"Fall-2023/11_ByteArray_Bytes.sol\":568:649  function setValueDynamic(bytes1 _b1) public {... */\n      pop\n      jump\t// out\n        /* \"Fall-2023/11_ByteArray_Bytes.sol\":768:862  function getDynamicLength() public view returns(uint){... */\n    tag_33:\n        /* \"Fall-2023/11_ByteArray_Bytes.sol\":816:820  uint */\n      0x00\n        /* \"Fall-2023/11_ByteArray_Bytes.sol\":839:847  bDynamic */\n      0x03\n        /* \"Fall-2023/11_ByteArray_Bytes.sol\":839:854  bDynamic.length */\n      dup1\n      sload\n      tag_64\n      swap1\n      tag_42\n      jump\t// in\n    tag_64:\n      swap1\n      pop\n        /* \"Fall-2023/11_ByteArray_Bytes.sol\":832:854  return bDynamic.length */\n      swap1\n      pop\n        /* \"Fall-2023/11_ByteArray_Bytes.sol\":768:862  function getDynamicLength() public view returns(uint){... */\n      swap1\n      jump\t// out\n        /* \"#utility.yul\":7:84   */\n    tag_65:\n        /* \"#utility.yul\":44:51   */\n      0x00\n        /* \"#utility.yul\":73:78   */\n      dup2\n        /* \"#utility.yul\":62:78   */\n      swap1\n      pop\n        /* \"#utility.yul\":7:84   */\n      swap2\n      swap1\n      pop\n      jump\t// out\n        /* \"#utility.yul\":90:208   */\n    tag_66:\n        /* \"#utility.yul\":177:201   */\n      tag_109\n        /* \"#utility.yul\":195:200   */\n      dup2\n        /* \"#utility.yul\":177:201   */\n      tag_65\n      jump\t// in\n    tag_109:\n        /* \"#utility.yul\":172:175   */\n      dup3\n        /* \"#utility.yul\":165:202   */\n      mstore\n        /* \"#utility.yul\":90:208   */\n      pop\n      pop\n      jump\t// out\n        /* \"#utility.yul\":214:436   */\n    tag_12:\n        /* \"#utility.yul\":307:311   */\n      0x00\n        /* \"#utility.yul\":345:347   */\n      0x20\n        /* \"#utility.yul\":334:343   */\n      dup3\n        /* \"#utility.yul\":330:348   */\n      add\n        /* \"#utility.yul\":322:348   */\n      swap1\n      pop\n        /* \"#utility.yul\":358:429   */\n      tag_111\n        /* \"#utility.yul\":426:427   */\n      0x00\n        /* \"#utility.yul\":415:424   */\n      dup4\n        /* \"#utility.yul\":411:428   */\n      add\n        /* \"#utility.yul\":402:408   */\n      dup5\n        /* \"#utility.yul\":358:429   */\n      tag_66\n      jump\t// in\n    tag_111:\n        /* \"#utility.yul\":214:436   */\n      swap3\n      swap2\n      pop\n      pop\n      jump\t// out\n        /* \"#utility.yul\":442:517   */\n    tag_67:\n        /* \"#utility.yul\":475:481   */\n      0x00\n        /* \"#utility.yul\":508:510   */\n      0x40\n        /* \"#utility.yul\":502:511   */\n      mload\n        /* \"#utility.yul\":492:511   */\n      swap1\n      pop\n        /* \"#utility.yul\":442:517   */\n      swap1\n      jump\t// out\n        /* \"#utility.yul\":523:640   */\n    tag_68:\n        /* \"#utility.yul\":632:633   */\n      0x00\n        /* \"#utility.yul\":629:630   */\n      dup1\n        /* \"#utility.yul\":622:634   */\n      revert\n        /* \"#utility.yul\":646:763   */\n    tag_69:\n        /* \"#utility.yul\":755:756   */\n      0x00\n        /* \"#utility.yul\":752:753   */\n      dup1\n        /* \"#utility.yul\":745:757   */\n      revert\n        /* \"#utility.yul\":769:891   */\n    tag_70:\n        /* \"#utility.yul\":842:866   */\n      tag_116\n        /* \"#utility.yul\":860:865   */\n      dup2\n        /* \"#utility.yul\":842:866   */\n      tag_65\n      jump\t// in\n    tag_116:\n        /* \"#utility.yul\":835:840   */\n      dup2\n        /* \"#utility.yul\":832:867   */\n      eq\n        /* \"#utility.yul\":822:885   */\n      tag_117\n      jumpi\n        /* \"#utility.yul\":881:882   */\n      0x00\n        /* \"#utility.yul\":878:879   */\n      dup1\n        /* \"#utility.yul\":871:883   */\n      revert\n        /* \"#utility.yul\":822:885   */\n    tag_117:\n        /* \"#utility.yul\":769:891   */\n      pop\n      jump\t// out\n        /* \"#utility.yul\":897:1036   */\n    tag_71:\n        /* \"#utility.yul\":943:948   */\n      0x00\n        /* \"#utility.yul\":981:987   */\n      dup2\n        /* \"#utility.yul\":968:988   */\n      calldataload\n        /* \"#utility.yul\":959:988   */\n      swap1\n      pop\n        /* \"#utility.yul\":997:1030   */\n      tag_119\n        /* \"#utility.yul\":1024:1029   */\n      dup2\n        /* \"#utility.yul\":997:1030   */\n      tag_70\n      jump\t// in\n    tag_119:\n        /* \"#utility.yul\":897:1036   */\n      swap3\n      swap2\n      pop\n      pop\n      jump\t// out\n        /* \"#utility.yul\":1042:1371   */\n    tag_15:\n        /* \"#utility.yul\":1101:1107   */\n      0x00\n        /* \"#utility.yul\":1150:1152   */\n      0x20\n        /* \"#utility.yul\":1138:1147   */\n      dup3\n        /* \"#utility.yul\":1129:1136   */\n      dup5\n        /* \"#utility.yul\":1125:1148   */\n      sub\n        /* \"#utility.yul\":1121:1153   */\n      slt\n        /* \"#utility.yul\":1118:1237   */\n      iszero\n      tag_121\n      jumpi\n        /* \"#utility.yul\":1156:1235   */\n      tag_122\n      tag_68\n      jump\t// in\n    tag_122:\n        /* \"#utility.yul\":1118:1237   */\n    tag_121:\n        /* \"#utility.yul\":1276:1277   */\n      0x00\n        /* \"#utility.yul\":1301:1354   */\n      tag_123\n        /* \"#utility.yul\":1346:1353   */\n      dup5\n        /* \"#utility.yul\":1337:1343   */\n      dup3\n        /* \"#utility.yul\":1326:1335   */\n      dup6\n        /* \"#utility.yul\":1322:1344   */\n      add\n        /* \"#utility.yul\":1301:1354   */\n      tag_71\n      jump\t// in\n    tag_123:\n        /* \"#utility.yul\":1291:1354   */\n      swap2\n      pop\n        /* \"#utility.yul\":1247:1364   */\n      pop\n        /* \"#utility.yul\":1042:1371   */\n      swap3\n      swap2\n      pop\n      pop\n      jump\t// out\n        /* \"#utility.yul\":1377:1475   */\n    tag_72:\n        /* \"#utility.yul\":1428:1434   */\n      0x00\n        /* \"#utility.yul\":1462:1467   */\n      dup2\n        /* \"#utility.yul\":1456:1468   */\n      mload\n        /* \"#utility.yul\":1446:1468   */\n      swap1\n      pop\n        /* \"#utility.yul\":1377:1475   */\n      swap2\n      swap1\n      pop\n      jump\t// out\n        /* \"#utility.yul\":1481:1649   */\n    tag_73:\n        /* \"#utility.yul\":1564:1575   */\n      0x00\n        /* \"#utility.yul\":1598:1604   */\n      dup3\n        /* \"#utility.yul\":1593:1596   */\n      dup3\n        /* \"#utility.yul\":1586:1605   */\n      mstore\n        /* \"#utility.yul\":1638:1642   */\n      0x20\n        /* \"#utility.yul\":1633:1636   */\n      dup3\n        /* \"#utility.yul\":1629:1643   */\n      add\n        /* \"#utility.yul\":1614:1643   */\n      swap1\n      pop\n        /* \"#utility.yul\":1481:1649   */\n      swap3\n      swap2\n      pop\n      pop\n      jump\t// out\n        /* \"#utility.yul\":1655:1901   */\n    tag_74:\n        /* \"#utility.yul\":1736:1737   */\n      0x00\n        /* \"#utility.yul\":1746:1859   */\n    tag_127:\n        /* \"#utility.yul\":1760:1766   */\n      dup4\n        /* \"#utility.yul\":1757:1758   */\n      dup2\n        /* \"#utility.yul\":1754:1767   */\n      lt\n        /* \"#utility.yul\":1746:1859   */\n      iszero\n      tag_129\n      jumpi\n        /* \"#utility.yul\":1845:1846   */\n      dup1\n        /* \"#utility.yul\":1840:1843   */\n      dup3\n        /* \"#utility.yul\":1836:1847   */\n      add\n        /* \"#utility.yul\":1830:1848   */\n      mload\n        /* \"#utility.yul\":1826:1827   */\n      dup2\n        /* \"#utility.yul\":1821:1824   */\n      dup5\n        /* \"#utility.yul\":1817:1828   */\n      add\n        /* \"#utility.yul\":1810:1849   */\n      mstore\n        /* \"#utility.yul\":1782:1784   */\n      0x20\n        /* \"#utility.yul\":1779:1780   */\n      dup2\n        /* \"#utility.yul\":1775:1785   */\n      add\n        /* \"#utility.yul\":1770:1785   */\n      swap1\n      pop\n        /* \"#utility.yul\":1746:1859   */\n      jump(tag_127)\n    tag_129:\n        /* \"#utility.yul\":1893:1894   */\n      0x00\n        /* \"#utility.yul\":1884:1890   */\n      dup5\n        /* \"#utility.yul\":1879:1882   */\n      dup5\n        /* \"#utility.yul\":1875:1891   */\n      add\n        /* \"#utility.yul\":1868:1895   */\n      mstore\n        /* \"#utility.yul\":1717:1901   */\n      pop\n        /* \"#utility.yul\":1655:1901   */\n      pop\n      pop\n      pop\n      jump\t// out\n        /* \"#utility.yul\":1907:2009   */\n    tag_75:\n        /* \"#utility.yul\":1948:1954   */\n      0x00\n        /* \"#utility.yul\":1999:2001   */\n      0x1f\n        /* \"#utility.yul\":1995:2002   */\n      not\n        /* \"#utility.yul\":1990:1992   */\n      0x1f\n        /* \"#utility.yul\":1983:1988   */\n      dup4\n        /* \"#utility.yul\":1979:1993   */\n      add\n        /* \"#utility.yul\":1975:2003   */\n      and\n        /* \"#utility.yul\":1965:2003   */\n      swap1\n      pop\n        /* \"#utility.yul\":1907:2009   */\n      swap2\n      swap1\n      pop\n      jump\t// out\n        /* \"#utility.yul\":2015:2388   */\n    tag_76:\n        /* \"#utility.yul\":2101:2104   */\n      0x00\n        /* \"#utility.yul\":2129:2167   */\n      tag_132\n        /* \"#utility.yul\":2161:2166   */\n      dup3\n        /* \"#utility.yul\":2129:2167   */\n      tag_72\n      jump\t// in\n    tag_132:\n        /* \"#utility.yul\":2183:2253   */\n      tag_133\n        /* \"#utility.yul\":2246:2252   */\n      dup2\n        /* \"#utility.yul\":2241:2244   */\n      dup6\n        /* \"#utility.yul\":2183:2253   */\n      tag_73\n      jump\t// in\n    tag_133:\n        /* \"#utility.yul\":2176:2253   */\n      swap4\n      pop\n        /* \"#utility.yul\":2262:2327   */\n      tag_134\n        /* \"#utility.yul\":2320:2326   */\n      dup2\n        /* \"#utility.yul\":2315:2318   */\n      dup6\n        /* \"#utility.yul\":2308:2312   */\n      0x20\n        /* \"#utility.yul\":2301:2306   */\n      dup7\n        /* \"#utility.yul\":2297:2313   */\n      add\n        /* \"#utility.yul\":2262:2327   */\n      tag_74\n      jump\t// in\n    tag_134:\n        /* \"#utility.yul\":2352:2381   */\n      tag_135\n        /* \"#utility.yul\":2374:2380   */\n      dup2\n        /* \"#utility.yul\":2352:2381   */\n      tag_75\n      jump\t// in\n    tag_135:\n        /* \"#utility.yul\":2347:2350   */\n      dup5\n        /* \"#utility.yul\":2343:2382   */\n      add\n        /* \"#utility.yul\":2336:2382   */\n      swap2\n      pop\n        /* \"#utility.yul\":2105:2388   */\n      pop\n        /* \"#utility.yul\":2015:2388   */\n      swap3\n      swap2\n      pop\n      pop\n      jump\t// out\n        /* \"#utility.yul\":2394:2703   */\n    tag_18:\n        /* \"#utility.yul\":2505:2509   */\n      0x00\n        /* \"#utility.yul\":2543:2545   */\n      0x20\n        /* \"#utility.yul\":2532:2541   */\n      dup3\n        /* \"#utility.yul\":2528:2546   */\n      add\n        /* \"#utility.yul\":2520:2546   */\n      swap1\n      pop\n        /* \"#utility.yul\":2592:2601   */\n      dup2\n        /* \"#utility.yul\":2586:2590   */\n      dup2\n        /* \"#utility.yul\":2582:2602   */\n      sub\n        /* \"#utility.yul\":2578:2579   */\n      0x00\n        /* \"#utility.yul\":2567:2576   */\n      dup4\n        /* \"#utility.yul\":2563:2580   */\n      add\n        /* \"#utility.yul\":2556:2603   */\n      mstore\n        /* \"#utility.yul\":2620:2696   */\n      tag_137\n        /* \"#utility.yul\":2691:2695   */\n      dup2\n        /* \"#utility.yul\":2682:2688   */\n      dup5\n        /* \"#utility.yul\":2620:2696   */\n      tag_76\n      jump\t// in\n    tag_137:\n        /* \"#utility.yul\":2612:2696   */\n      swap1\n      pop\n        /* \"#utility.yul\":2394:2703   */\n      swap3\n      swap2\n      pop\n      pop\n      jump\t// out\n        /* \"#utility.yul\":2709:2826   */\n    tag_77:\n        /* \"#utility.yul\":2818:2819   */\n      0x00\n        /* \"#utility.yul\":2815:2816   */\n      dup1\n        /* \"#utility.yul\":2808:2820   */\n      revert\n        /* \"#utility.yul\":2832:2949   */\n    tag_78:\n        /* \"#utility.yul\":2941:2942   */\n      0x00\n        /* \"#utility.yul\":2938:2939   */\n      dup1\n        /* \"#utility.yul\":2931:2943   */\n      revert\n        /* \"#utility.yul\":2955:3135   */\n    tag_79:\n        /* \"#utility.yul\":3003:3080   */\n      0x4e487b7100000000000000000000000000000000000000000000000000000000\n        /* \"#utility.yul\":3000:3001   */\n      0x00\n        /* \"#utility.yul\":2993:3081   */\n      mstore\n        /* \"#utility.yul\":3100:3104   */\n      0x41\n        /* \"#utility.yul\":3097:3098   */\n      0x04\n        /* \"#utility.yul\":3090:3105   */\n      mstore\n        /* \"#utility.yul\":3124:3128   */\n      0x24\n        /* \"#utility.yul\":3121:3122   */\n      0x00\n        /* \"#utility.yul\":3114:3129   */\n      revert\n        /* \"#utility.yul\":3141:3422   */\n    tag_80:\n        /* \"#utility.yul\":3224:3251   */\n      tag_142\n        /* \"#utility.yul\":3246:3250   */\n      dup3\n        /* \"#utility.yul\":3224:3251   */\n      tag_75\n      jump\t// in\n    tag_142:\n        /* \"#utility.yul\":3216:3222   */\n      dup2\n        /* \"#utility.yul\":3212:3252   */\n      add\n        /* \"#utility.yul\":3354:3360   */\n      dup2\n        /* \"#utility.yul\":3342:3352   */\n      dup2\n        /* \"#utility.yul\":3339:3361   */\n      lt\n        /* \"#utility.yul\":3318:3336   */\n      0xffffffffffffffff\n        /* \"#utility.yul\":3306:3316   */\n      dup3\n        /* \"#utility.yul\":3303:3337   */\n      gt\n        /* \"#utility.yul\":3300:3362   */\n      or\n        /* \"#utility.yul\":3297:3385   */\n      iszero\n      tag_143\n      jumpi\n        /* \"#utility.yul\":3365:3383   */\n      tag_144\n      tag_79\n      jump\t// in\n    tag_144:\n        /* \"#utility.yul\":3297:3385   */\n    tag_143:\n        /* \"#utility.yul\":3405:3415   */\n      dup1\n        /* \"#utility.yul\":3401:3403   */\n      0x40\n        /* \"#utility.yul\":3394:3416   */\n      mstore\n        /* \"#utility.yul\":3184:3422   */\n      pop\n        /* \"#utility.yul\":3141:3422   */\n      pop\n      pop\n      jump\t// out\n        /* \"#utility.yul\":3428:3557   */\n    tag_81:\n        /* \"#utility.yul\":3462:3468   */\n      0x00\n        /* \"#utility.yul\":3489:3509   */\n      tag_146\n      tag_67\n      jump\t// in\n    tag_146:\n        /* \"#utility.yul\":3479:3509   */\n      swap1\n      pop\n        /* \"#utility.yul\":3518:3551   */\n      tag_147\n        /* \"#utility.yul\":3546:3550   */\n      dup3\n        /* \"#utility.yul\":3538:3544   */\n      dup3\n        /* \"#utility.yul\":3518:3551   */\n      tag_80\n      jump\t// in\n    tag_147:\n        /* \"#utility.yul\":3428:3557   */\n      swap2\n      swap1\n      pop\n      jump\t// out\n        /* \"#utility.yul\":3563:3870   */\n    tag_82:\n        /* \"#utility.yul\":3624:3628   */\n      0x00\n        /* \"#utility.yul\":3714:3732   */\n      0xffffffffffffffff\n        /* \"#utility.yul\":3706:3712   */\n      dup3\n        /* \"#utility.yul\":3703:3733   */\n      gt\n        /* \"#utility.yul\":3700:3756   */\n      iszero\n      tag_149\n      jumpi\n        /* \"#utility.yul\":3736:3754   */\n      tag_150\n      tag_79\n      jump\t// in\n    tag_150:\n        /* \"#utility.yul\":3700:3756   */\n    tag_149:\n        /* \"#utility.yul\":3774:3803   */\n      tag_151\n        /* \"#utility.yul\":3796:3802   */\n      dup3\n        /* \"#utility.yul\":3774:3803   */\n      tag_75\n      jump\t// in\n    tag_151:\n        /* \"#utility.yul\":3766:3803   */\n      swap1\n      pop\n        /* \"#utility.yul\":3858:3862   */\n      0x20\n        /* \"#utility.yul\":3852:3856   */\n      dup2\n        /* \"#utility.yul\":3848:3863   */\n      add\n        /* \"#utility.yul\":3840:3863   */\n      swap1\n      pop\n        /* \"#utility.yul\":3563:3870   */\n      swap2\n      swap1\n      pop\n      jump\t// out\n        /* \"#utility.yul\":3876:4022   */\n    tag_83:\n        /* \"#utility.yul\":3973:3979   */\n      dup3\n        /* \"#utility.yul\":3968:3971   */\n      dup2\n        /* \"#utility.yul\":3963:3966   */\n      dup4\n        /* \"#utility.yul\":3950:3980   */\n      calldatacopy\n        /* \"#utility.yul\":4014:4015   */\n      0x00\n        /* \"#utility.yul\":4005:4011   */\n      dup4\n        /* \"#utility.yul\":4000:4003   */\n      dup4\n        /* \"#utility.yul\":3996:4012   */\n      add\n        /* \"#utility.yul\":3989:4016   */\n      mstore\n        /* \"#utility.yul\":3876:4022   */\n      pop\n      pop\n      pop\n      jump\t// out\n        /* \"#utility.yul\":4028:4451   */\n    tag_84:\n        /* \"#utility.yul\":4105:4110   */\n      0x00\n        /* \"#utility.yul\":4130:4195   */\n      tag_154\n        /* \"#utility.yul\":4146:4194   */\n      tag_155\n        /* \"#utility.yul\":4187:4193   */\n      dup5\n        /* \"#utility.yul\":4146:4194   */\n      tag_82\n      jump\t// in\n    tag_155:\n        /* \"#utility.yul\":4130:4195   */\n      tag_81\n      jump\t// in\n    tag_154:\n        /* \"#utility.yul\":4121:4195   */\n      swap1\n      pop\n        /* \"#utility.yul\":4218:4224   */\n      dup3\n        /* \"#utility.yul\":4211:4216   */\n      dup2\n        /* \"#utility.yul\":4204:4225   */\n      mstore\n        /* \"#utility.yul\":4256:4260   */\n      0x20\n        /* \"#utility.yul\":4249:4254   */\n      dup2\n        /* \"#utility.yul\":4245:4261   */\n      add\n        /* \"#utility.yul\":4294:4297   */\n      dup5\n        /* \"#utility.yul\":4285:4291   */\n      dup5\n        /* \"#utility.yul\":4280:4283   */\n      dup5\n        /* \"#utility.yul\":4276:4292   */\n      add\n        /* \"#utility.yul\":4273:4298   */\n      gt\n        /* \"#utility.yul\":4270:4382   */\n      iszero\n      tag_156\n      jumpi\n        /* \"#utility.yul\":4301:4380   */\n      tag_157\n      tag_78\n      jump\t// in\n    tag_157:\n        /* \"#utility.yul\":4270:4382   */\n    tag_156:\n        /* \"#utility.yul\":4391:4445   */\n      tag_158\n        /* \"#utility.yul\":4438:4444   */\n      dup5\n        /* \"#utility.yul\":4433:4436   */\n      dup3\n        /* \"#utility.yul\":4428:4431   */\n      dup6\n        /* \"#utility.yul\":4391:4445   */\n      tag_83\n      jump\t// in\n    tag_158:\n        /* \"#utility.yul\":4111:4451   */\n      pop\n        /* \"#utility.yul\":4028:4451   */\n      swap4\n      swap3\n      pop\n      pop\n      pop\n      jump\t// out\n        /* \"#utility.yul\":4470:4808   */\n    tag_85:\n        /* \"#utility.yul\":4525:4530   */\n      0x00\n        /* \"#utility.yul\":4574:4577   */\n      dup3\n        /* \"#utility.yul\":4567:4571   */\n      0x1f\n        /* \"#utility.yul\":4559:4565   */\n      dup4\n        /* \"#utility.yul\":4555:4572   */\n      add\n        /* \"#utility.yul\":4551:4578   */\n      slt\n        /* \"#utility.yul\":4541:4663   */\n      tag_160\n      jumpi\n        /* \"#utility.yul\":4582:4661   */\n      tag_161\n      tag_77\n      jump\t// in\n    tag_161:\n        /* \"#utility.yul\":4541:4663   */\n    tag_160:\n        /* \"#utility.yul\":4699:4705   */\n      dup2\n        /* \"#utility.yul\":4686:4706   */\n      calldataload\n        /* \"#utility.yul\":4724:4802   */\n      tag_162\n        /* \"#utility.yul\":4798:4801   */\n      dup5\n        /* \"#utility.yul\":4790:4796   */\n      dup3\n        /* \"#utility.yul\":4783:4787   */\n      0x20\n        /* \"#utility.yul\":4775:4781   */\n      dup7\n        /* \"#utility.yul\":4771:4788   */\n      add\n        /* \"#utility.yul\":4724:4802   */\n      tag_84\n      jump\t// in\n    tag_162:\n        /* \"#utility.yul\":4715:4802   */\n      swap2\n      pop\n        /* \"#utility.yul\":4531:4808   */\n      pop\n        /* \"#utility.yul\":4470:4808   */\n      swap3\n      swap2\n      pop\n      pop\n      jump\t// out\n        /* \"#utility.yul\":4814:5466   */\n    tag_21:\n        /* \"#utility.yul\":4891:4897   */\n      0x00\n        /* \"#utility.yul\":4899:4905   */\n      dup1\n        /* \"#utility.yul\":4948:4950   */\n      0x40\n        /* \"#utility.yul\":4936:4945   */\n      dup4\n        /* \"#utility.yul\":4927:4934   */\n      dup6\n        /* \"#utility.yul\":4923:4946   */\n      sub\n        /* \"#utility.yul\":4919:4951   */\n      slt\n        /* \"#utility.yul\":4916:5035   */\n      iszero\n      tag_164\n      jumpi\n        /* \"#utility.yul\":4954:5033   */\n      tag_165\n      tag_68\n      jump\t// in\n    tag_165:\n        /* \"#utility.yul\":4916:5035   */\n    tag_164:\n        /* \"#utility.yul\":5074:5075   */\n      0x00\n        /* \"#utility.yul\":5099:5152   */\n      tag_166\n        /* \"#utility.yul\":5144:5151   */\n      dup6\n        /* \"#utility.yul\":5135:5141   */\n      dup3\n        /* \"#utility.yul\":5124:5133   */\n      dup7\n        /* \"#utility.yul\":5120:5142   */\n      add\n        /* \"#utility.yul\":5099:5152   */\n      tag_71\n      jump\t// in\n    tag_166:\n        /* \"#utility.yul\":5089:5152   */\n      swap3\n      pop\n        /* \"#utility.yul\":5045:5162   */\n      pop\n        /* \"#utility.yul\":5229:5231   */\n      0x20\n        /* \"#utility.yul\":5218:5227   */\n      dup4\n        /* \"#utility.yul\":5214:5232   */\n      add\n        /* \"#utility.yul\":5201:5233   */\n      calldataload\n        /* \"#utility.yul\":5260:5278   */\n      0xffffffffffffffff\n        /* \"#utility.yul\":5252:5258   */\n      dup2\n        /* \"#utility.yul\":5249:5279   */\n      gt\n        /* \"#utility.yul\":5246:5363   */\n      iszero\n      tag_167\n      jumpi\n        /* \"#utility.yul\":5282:5361   */\n      tag_168\n      tag_69\n      jump\t// in\n    tag_168:\n        /* \"#utility.yul\":5246:5363   */\n    tag_167:\n        /* \"#utility.yul\":5387:5449   */\n      tag_169\n        /* \"#utility.yul\":5441:5448   */\n      dup6\n        /* \"#utility.yul\":5432:5438   */\n      dup3\n        /* \"#utility.yul\":5421:5430   */\n      dup7\n        /* \"#utility.yul\":5417:5439   */\n      add\n        /* \"#utility.yul\":5387:5449   */\n      tag_85\n      jump\t// in\n    tag_169:\n        /* \"#utility.yul\":5377:5449   */\n      swap2\n      pop\n        /* \"#utility.yul\":5172:5459   */\n      pop\n        /* \"#utility.yul\":4814:5466   */\n      swap3\n      pop\n      swap3\n      swap1\n      pop\n      jump\t// out\n        /* \"#utility.yul\":5472:5621   */\n    tag_86:\n        /* \"#utility.yul\":5508:5515   */\n      0x00\n        /* \"#utility.yul\":5548:5614   */\n      0xff00000000000000000000000000000000000000000000000000000000000000\n        /* \"#utility.yul\":5541:5546   */\n      dup3\n        /* \"#utility.yul\":5537:5615   */\n      and\n        /* \"#utility.yul\":5526:5615   */\n      swap1\n      pop\n        /* \"#utility.yul\":5472:5621   */\n      swap2\n      swap1\n      pop\n      jump\t// out\n        /* \"#utility.yul\":5627:5742   */\n    tag_87:\n        /* \"#utility.yul\":5712:5735   */\n      tag_172\n        /* \"#utility.yul\":5729:5734   */\n      dup2\n        /* \"#utility.yul\":5712:5735   */\n      tag_86\n      jump\t// in\n    tag_172:\n        /* \"#utility.yul\":5707:5710   */\n      dup3\n        /* \"#utility.yul\":5700:5736   */\n      mstore\n        /* \"#utility.yul\":5627:5742   */\n      pop\n      pop\n      jump\t// out\n        /* \"#utility.yul\":5748:5966   */\n    tag_27:\n        /* \"#utility.yul\":5839:5843   */\n      0x00\n        /* \"#utility.yul\":5877:5879   */\n      0x20\n        /* \"#utility.yul\":5866:5875   */\n      dup3\n        /* \"#utility.yul\":5862:5880   */\n      add\n        /* \"#utility.yul\":5854:5880   */\n      swap1\n      pop\n        /* \"#utility.yul\":5890:5959   */\n      tag_174\n        /* \"#utility.yul\":5956:5957   */\n      0x00\n        /* \"#utility.yul\":5945:5954   */\n      dup4\n        /* \"#utility.yul\":5941:5958   */\n      add\n        /* \"#utility.yul\":5932:5938   */\n      dup5\n        /* \"#utility.yul\":5890:5959   */\n      tag_87\n      jump\t// in\n    tag_174:\n        /* \"#utility.yul\":5748:5966   */\n      swap3\n      swap2\n      pop\n      pop\n      jump\t// out\n        /* \"#utility.yul\":5972:6092   */\n    tag_88:\n        /* \"#utility.yul\":6044:6067   */\n      tag_176\n        /* \"#utility.yul\":6061:6066   */\n      dup2\n        /* \"#utility.yul\":6044:6067   */\n      tag_86\n      jump\t// in\n    tag_176:\n        /* \"#utility.yul\":6037:6042   */\n      dup2\n        /* \"#utility.yul\":6034:6068   */\n      eq\n        /* \"#utility.yul\":6024:6086   */\n      tag_177\n      jumpi\n        /* \"#utility.yul\":6082:6083   */\n      0x00\n        /* \"#utility.yul\":6079:6080   */\n      dup1\n        /* \"#utility.yul\":6072:6084   */\n      revert\n        /* \"#utility.yul\":6024:6086   */\n    tag_177:\n        /* \"#utility.yul\":5972:6092   */\n      pop\n      jump\t// out\n        /* \"#utility.yul\":6098:6235   */\n    tag_89:\n        /* \"#utility.yul\":6143:6148   */\n      0x00\n        /* \"#utility.yul\":6181:6187   */\n      dup2\n        /* \"#utility.yul\":6168:6188   */\n      calldataload\n        /* \"#utility.yul\":6159:6188   */\n      swap1\n      pop\n        /* \"#utility.yul\":6197:6229   */\n      tag_179\n        /* \"#utility.yul\":6223:6228   */\n      dup2\n        /* \"#utility.yul\":6197:6229   */\n      tag_88\n      jump\t// in\n    tag_179:\n        /* \"#utility.yul\":6098:6235   */\n      swap3\n      swap2\n      pop\n      pop\n      jump\t// out\n        /* \"#utility.yul\":6241:6568   */\n    tag_30:\n        /* \"#utility.yul\":6299:6305   */\n      0x00\n        /* \"#utility.yul\":6348:6350   */\n      0x20\n        /* \"#utility.yul\":6336:6345   */\n      dup3\n        /* \"#utility.yul\":6327:6334   */\n      dup5\n        /* \"#utility.yul\":6323:6346   */\n      sub\n        /* \"#utility.yul\":6319:6351   */\n      slt\n        /* \"#utility.yul\":6316:6435   */\n      iszero\n      tag_181\n      jumpi\n        /* \"#utility.yul\":6354:6433   */\n      tag_182\n      tag_68\n      jump\t// in\n    tag_182:\n        /* \"#utility.yul\":6316:6435   */\n    tag_181:\n        /* \"#utility.yul\":6474:6475   */\n      0x00\n        /* \"#utility.yul\":6499:6551   */\n      tag_183\n        /* \"#utility.yul\":6543:6550   */\n      dup5\n        /* \"#utility.yul\":6534:6540   */\n      dup3\n        /* \"#utility.yul\":6523:6532   */\n      dup6\n        /* \"#utility.yul\":6519:6541   */\n      add\n        /* \"#utility.yul\":6499:6551   */\n      tag_89\n      jump\t// in\n    tag_183:\n        /* \"#utility.yul\":6489:6551   */\n      swap2\n      pop\n        /* \"#utility.yul\":6445:6561   */\n      pop\n        /* \"#utility.yul\":6241:6568   */\n      swap3\n      swap2\n      pop\n      pop\n      jump\t// out\n        /* \"#utility.yul\":6574:6754   */\n    tag_39:\n        /* \"#utility.yul\":6622:6699   */\n      0x4e487b7100000000000000000000000000000000000000000000000000000000\n        /* \"#utility.yul\":6619:6620   */\n      0x00\n        /* \"#utility.yul\":6612:6700   */\n      mstore\n        /* \"#utility.yul\":6719:6723   */\n      0x32\n        /* \"#utility.yul\":6716:6717   */\n      0x04\n        /* \"#utility.yul\":6709:6724   */\n      mstore\n        /* \"#utility.yul\":6743:6747   */\n      0x24\n        /* \"#utility.yul\":6740:6741   */\n      0x00\n        /* \"#utility.yul\":6733:6748   */\n      revert\n        /* \"#utility.yul\":6760:6940   */\n    tag_90:\n        /* \"#utility.yul\":6808:6885   */\n      0x4e487b7100000000000000000000000000000000000000000000000000000000\n        /* \"#utility.yul\":6805:6806   */\n      0x00\n        /* \"#utility.yul\":6798:6886   */\n      mstore\n        /* \"#utility.yul\":6905:6909   */\n      0x22\n        /* \"#utility.yul\":6902:6903   */\n      0x04\n        /* \"#utility.yul\":6895:6910   */\n      mstore\n        /* \"#utility.yul\":6929:6933   */\n      0x24\n        /* \"#utility.yul\":6926:6927   */\n      0x00\n        /* \"#utility.yul\":6919:6934   */\n      revert\n        /* \"#utility.yul\":6946:7266   */\n    tag_42:\n        /* \"#utility.yul\":6990:6996   */\n      0x00\n        /* \"#utility.yul\":7027:7028   */\n      0x02\n        /* \"#utility.yul\":7021:7025   */\n      dup3\n        /* \"#utility.yul\":7017:7029   */\n      div\n        /* \"#utility.yul\":7007:7029   */\n      swap1\n      pop\n        /* \"#utility.yul\":7074:7075   */\n      0x01\n        /* \"#utility.yul\":7068:7072   */\n      dup3\n        /* \"#utility.yul\":7064:7076   */\n      and\n        /* \"#utility.yul\":7095:7113   */\n      dup1\n        /* \"#utility.yul\":7085:7166   */\n      tag_187\n      jumpi\n        /* \"#utility.yul\":7151:7155   */\n      0x7f\n        /* \"#utility.yul\":7143:7149   */\n      dup3\n        /* \"#utility.yul\":7139:7156   */\n      and\n        /* \"#utility.yul\":7129:7156   */\n      swap2\n      pop\n        /* \"#utility.yul\":7085:7166   */\n    tag_187:\n        /* \"#utility.yul\":7213:7215   */\n      0x20\n        /* \"#utility.yul\":7205:7211   */\n      dup3\n        /* \"#utility.yul\":7202:7216   */\n      lt\n        /* \"#utility.yul\":7182:7200   */\n      dup2\n        /* \"#utility.yul\":7179:7217   */\n      sub\n        /* \"#utility.yul\":7176:7260   */\n      tag_188\n      jumpi\n        /* \"#utility.yul\":7232:7250   */\n      tag_189\n      tag_90\n      jump\t// in\n    tag_189:\n        /* \"#utility.yul\":7176:7260   */\n    tag_188:\n        /* \"#utility.yul\":6997:7266   */\n      pop\n        /* \"#utility.yul\":6946:7266   */\n      swap2\n      swap1\n      pop\n      jump\t// out\n        /* \"#utility.yul\":7272:7412   */\n    tag_91:\n        /* \"#utility.yul\":7320:7324   */\n      0x00\n        /* \"#utility.yul\":7343:7346   */\n      dup2\n        /* \"#utility.yul\":7335:7346   */\n      swap1\n      pop\n        /* \"#utility.yul\":7366:7369   */\n      dup2\n        /* \"#utility.yul\":7363:7364   */\n      0x00\n        /* \"#utility.yul\":7356:7370   */\n      mstore\n        /* \"#utility.yul\":7400:7404   */\n      0x20\n        /* \"#utility.yul\":7397:7398   */\n      0x00\n        /* \"#utility.yul\":7387:7405   */\n      keccak256\n        /* \"#utility.yul\":7379:7405   */\n      swap1\n      pop\n        /* \"#utility.yul\":7272:7412   */\n      swap2\n      swap1\n      pop\n      jump\t// out\n        /* \"#utility.yul\":7418:7511   */\n    tag_92:\n        /* \"#utility.yul\":7455:7461   */\n      0x00\n        /* \"#utility.yul\":7502:7504   */\n      0x20\n        /* \"#utility.yul\":7497:7499   */\n      0x1f\n        /* \"#utility.yul\":7490:7495   */\n      dup4\n        /* \"#utility.yul\":7486:7500   */\n      add\n        /* \"#utility.yul\":7482:7505   */\n      div\n        /* \"#utility.yul\":7472:7505   */\n      swap1\n      pop\n        /* \"#utility.yul\":7418:7511   */\n      swap2\n      swap1\n      pop\n      jump\t// out\n        /* \"#utility.yul\":7517:7624   */\n    tag_93:\n        /* \"#utility.yul\":7561:7569   */\n      0x00\n        /* \"#utility.yul\":7611:7616   */\n      dup3\n        /* \"#utility.yul\":7605:7609   */\n      dup3\n        /* \"#utility.yul\":7601:7617   */\n      shl\n        /* \"#utility.yul\":7580:7617   */\n      swap1\n      pop\n        /* \"#utility.yul\":7517:7624   */\n      swap3\n      swap2\n      pop\n      pop\n      jump\t// out\n        /* \"#utility.yul\":7630:8023   */\n    tag_94:\n        /* \"#utility.yul\":7699:7705   */\n      0x00\n        /* \"#utility.yul\":7749:7750   */\n      0x08\n        /* \"#utility.yul\":7737:7747   */\n      dup4\n        /* \"#utility.yul\":7733:7751   */\n      mul\n        /* \"#utility.yul\":7772:7869   */\n      tag_194\n        /* \"#utility.yul\":7802:7868   */\n      0xffffffffffffffffffffffffffffffffffffffffffffffffffffffffffffffff\n        /* \"#utility.yul\":7791:7800   */\n      dup3\n        /* \"#utility.yul\":7772:7869   */\n      tag_93\n      jump\t// in\n    tag_194:\n        /* \"#utility.yul\":7890:7929   */\n      tag_195\n        /* \"#utility.yul\":7920:7928   */\n      dup7\n        /* \"#utility.yul\":7909:7918   */\n      dup4\n        /* \"#utility.yul\":7890:7929   */\n      tag_93\n      jump\t// in\n    tag_195:\n        /* \"#utility.yul\":7878:7929   */\n      swap6\n      pop\n        /* \"#utility.yul\":7962:7966   */\n      dup1\n        /* \"#utility.yul\":7958:7967   */\n      not\n        /* \"#utility.yul\":7951:7956   */\n      dup5\n        /* \"#utility.yul\":7947:7968   */\n      and\n        /* \"#utility.yul\":7938:7968   */\n      swap4\n      pop\n        /* \"#utility.yul\":8011:8015   */\n      dup1\n        /* \"#utility.yul\":8001:8009   */\n      dup7\n        /* \"#utility.yul\":7997:8016   */\n      and\n        /* \"#utility.yul\":7990:7995   */\n      dup5\n        /* \"#utility.yul\":7987:8017   */\n      or\n        /* \"#utility.yul\":7977:8017   */\n      swap3\n      pop\n        /* \"#utility.yul\":7706:8023   */\n      pop\n      pop\n        /* \"#utility.yul\":7630:8023   */\n      swap4\n      swap3\n      pop\n      pop\n      pop\n      jump\t// out\n        /* \"#utility.yul\":8029:8089   */\n    tag_95:\n        /* \"#utility.yul\":8057:8060   */\n      0x00\n        /* \"#utility.yul\":8078:8083   */\n      dup2\n        /* \"#utility.yul\":8071:8083   */\n      swap1\n      pop\n        /* \"#utility.yul\":8029:8089   */\n      swap2\n      swap1\n      pop\n      jump\t// out\n        /* \"#utility.yul\":8095:8237   */\n    tag_96:\n        /* \"#utility.yul\":8145:8154   */\n      0x00\n        /* \"#utility.yul\":8178:8231   */\n      tag_198\n        /* \"#utility.yul\":8196:8230   */\n      tag_199\n        /* \"#utility.yul\":8205:8229   */\n      tag_200\n        /* \"#utility.yul\":8223:8228   */\n      dup5\n        /* \"#utility.yul\":8205:8229   */\n      tag_65\n      jump\t// in\n    tag_200:\n        /* \"#utility.yul\":8196:8230   */\n      tag_95\n      jump\t// in\n    tag_199:\n        /* \"#utility.yul\":8178:8231   */\n      tag_65\n      jump\t// in\n    tag_198:\n        /* \"#utility.yul\":8165:8231   */\n      swap1\n      pop\n        /* \"#utility.yul\":8095:8237   */\n      swap2\n      swap1\n      pop\n      jump\t// out\n        /* \"#utility.yul\":8243:8318   */\n    tag_97:\n        /* \"#utility.yul\":8286:8289   */\n      0x00\n        /* \"#utility.yul\":8307:8312   */\n      dup2\n        /* \"#utility.yul\":8300:8312   */\n      swap1\n      pop\n        /* \"#utility.yul\":8243:8318   */\n      swap2\n      swap1\n      pop\n      jump\t// out\n        /* \"#utility.yul\":8324:8593   */\n    tag_98:\n        /* \"#utility.yul\":8434:8473   */\n      tag_203\n        /* \"#utility.yul\":8465:8472   */\n      dup4\n        /* \"#utility.yul\":8434:8473   */\n      tag_96\n      jump\t// in\n    tag_203:\n        /* \"#utility.yul\":8495:8586   */\n      tag_204\n        /* \"#utility.yul\":8544:8585   */\n      tag_205\n        /* \"#utility.yul\":8568:8584   */\n      dup3\n        /* \"#utility.yul\":8544:8585   */\n      tag_97\n      jump\t// in\n    tag_205:\n        /* \"#utility.yul\":8536:8542   */\n      dup5\n        /* \"#utility.yul\":8529:8533   */\n      dup5\n        /* \"#utility.yul\":8523:8534   */\n      sload\n        /* \"#utility.yul\":8495:8586   */\n      tag_94\n      jump\t// in\n    tag_204:\n        /* \"#utility.yul\":8489:8493   */\n      dup3\n        /* \"#utility.yul\":8482:8587   */\n      sstore\n        /* \"#utility.yul\":8400:8593   */\n      pop\n        /* \"#utility.yul\":8324:8593   */\n      pop\n      pop\n      pop\n      jump\t// out\n        /* \"#utility.yul\":8599:8672   */\n    tag_99:\n        /* \"#utility.yul\":8644:8647   */\n      0x00\n        /* \"#utility.yul\":8599:8672   */\n      swap1\n      jump\t// out\n        /* \"#utility.yul\":8678:8867   */\n    tag_100:\n        /* \"#utility.yul\":8755:8787   */\n      tag_208\n      tag_99\n      jump\t// in\n    tag_208:\n        /* \"#utility.yul\":8796:8861   */\n      tag_209\n        /* \"#utility.yul\":8854:8860   */\n      dup2\n        /* \"#utility.yul\":8846:8852   */\n      dup5\n        /* \"#utility.yul\":8840:8844   */\n      dup5\n        /* \"#utility.yul\":8796:8861   */\n      tag_98\n      jump\t// in\n    tag_209:\n        /* \"#utility.yul\":8731:8867   */\n      pop\n        /* \"#utility.yul\":8678:8867   */\n      pop\n      pop\n      jump\t// out\n        /* \"#utility.yul\":8873:9059   */\n    tag_101:\n        /* \"#utility.yul\":8933:9053   */\n    tag_211:\n        /* \"#utility.yul\":8950:8953   */\n      dup2\n        /* \"#utility.yul\":8943:8948   */\n      dup2\n        /* \"#utility.yul\":8940:8954   */\n      lt\n        /* \"#utility.yul\":8933:9053   */\n      iszero\n      tag_213\n      jumpi\n        /* \"#utility.yul\":9004:9043   */\n      tag_214\n        /* \"#utility.yul\":9041:9042   */\n      0x00\n        /* \"#utility.yul\":9034:9039   */\n      dup3\n        /* \"#utility.yul\":9004:9043   */\n      tag_100\n      jump\t// in\n    tag_214:\n        /* \"#utility.yul\":8977:8978   */\n      0x01\n        /* \"#utility.yul\":8970:8975   */\n      dup2\n        /* \"#utility.yul\":8966:8979   */\n      add\n        /* \"#utility.yul\":8957:8979   */\n      swap1\n      pop\n        /* \"#utility.yul\":8933:9053   */\n      jump(tag_211)\n    tag_213:\n        /* \"#utility.yul\":8873:9059   */\n      pop\n      pop\n      jump\t// out\n        /* \"#utility.yul\":9065:9606   */\n    tag_102:\n        /* \"#utility.yul\":9165:9167   */\n      0x1f\n        /* \"#utility.yul\":9160:9163   */\n      dup3\n        /* \"#utility.yul\":9157:9168   */\n      gt\n        /* \"#utility.yul\":9154:9599   */\n      iszero\n      tag_216\n      jumpi\n        /* \"#utility.yul\":9199:9236   */\n      tag_217\n        /* \"#utility.yul\":9230:9235   */\n      dup2\n        /* \"#utility.yul\":9199:9236   */\n      tag_91\n      jump\t// in\n    tag_217:\n        /* \"#utility.yul\":9282:9311   */\n      tag_218\n        /* \"#utility.yul\":9300:9310   */\n      dup5\n        /* \"#utility.yul\":9282:9311   */\n      tag_92\n      jump\t// in\n    tag_218:\n        /* \"#utility.yul\":9272:9280   */\n      dup2\n        /* \"#utility.yul\":9268:9312   */\n      add\n        /* \"#utility.yul\":9465:9467   */\n      0x20\n        /* \"#utility.yul\":9453:9463   */\n      dup6\n        /* \"#utility.yul\":9450:9468   */\n      lt\n        /* \"#utility.yul\":9447:9496   */\n      iszero\n      tag_219\n      jumpi\n        /* \"#utility.yul\":9486:9494   */\n      dup2\n        /* \"#utility.yul\":9471:9494   */\n      swap1\n      pop\n        /* \"#utility.yul\":9447:9496   */\n    tag_219:\n        /* \"#utility.yul\":9509:9589   */\n      tag_220\n        /* \"#utility.yul\":9565:9587   */\n      tag_221\n        /* \"#utility.yul\":9583:9586   */\n      dup6\n        /* \"#utility.yul\":9565:9587   */\n      tag_92\n      jump\t// in\n    tag_221:\n        /* \"#utility.yul\":9555:9563   */\n      dup4\n        /* \"#utility.yul\":9551:9588   */\n      add\n        /* \"#utility.yul\":9538:9549   */\n      dup3\n        /* \"#utility.yul\":9509:9589   */\n      tag_101\n      jump\t// in\n    tag_220:\n        /* \"#utility.yul\":9169:9599   */\n      pop\n      pop\n        /* \"#utility.yul\":9154:9599   */\n    tag_216:\n        /* \"#utility.yul\":9065:9606   */\n      pop\n      pop\n      pop\n      jump\t// out\n        /* \"#utility.yul\":9612:9729   */\n    tag_103:\n        /* \"#utility.yul\":9666:9674   */\n      0x00\n        /* \"#utility.yul\":9716:9721   */\n      dup3\n        /* \"#utility.yul\":9710:9714   */\n      dup3\n        /* \"#utility.yul\":9706:9722   */\n      shr\n        /* \"#utility.yul\":9685:9722   */\n      swap1\n      pop\n        /* \"#utility.yul\":9612:9729   */\n      swap3\n      swap2\n      pop\n      pop\n      jump\t// out\n        /* \"#utility.yul\":9735:9904   */\n    tag_104:\n        /* \"#utility.yul\":9779:9785   */\n      0x00\n        /* \"#utility.yul\":9812:9863   */\n      tag_224\n        /* \"#utility.yul\":9860:9861   */\n      0x00\n        /* \"#utility.yul\":9856:9862   */\n      not\n        /* \"#utility.yul\":9848:9853   */\n      dup5\n        /* \"#utility.yul\":9845:9846   */\n      0x08\n        /* \"#utility.yul\":9841:9854   */\n      mul\n        /* \"#utility.yul\":9812:9863   */\n      tag_103\n      jump\t// in\n    tag_224:\n        /* \"#utility.yul\":9808:9864   */\n      not\n        /* \"#utility.yul\":9893:9897   */\n      dup1\n        /* \"#utility.yul\":9887:9891   */\n      dup4\n        /* \"#utility.yul\":9883:9898   */\n      and\n        /* \"#utility.yul\":9873:9898   */\n      swap2\n      pop\n        /* \"#utility.yul\":9786:9904   */\n      pop\n        /* \"#utility.yul\":9735:9904   */\n      swap3\n      swap2\n      pop\n      pop\n      jump\t// out\n        /* \"#utility.yul\":9909:10204   */\n    tag_105:\n        /* \"#utility.yul\":9985:9989   */\n      0x00\n        /* \"#utility.yul\":10131:10160   */\n      tag_226\n        /* \"#utility.yul\":10156:10159   */\n      dup4\n        /* \"#utility.yul\":10150:10154   */\n      dup4\n        /* \"#utility.yul\":10131:10160   */\n      tag_104\n      jump\t// in\n    tag_226:\n        /* \"#utility.yul\":10123:10160   */\n      swap2\n      pop\n        /* \"#utility.yul\":10193:10196   */\n      dup3\n        /* \"#utility.yul\":10190:10191   */\n      0x02\n        /* \"#utility.yul\":10186:10197   */\n      mul\n        /* \"#utility.yul\":10180:10184   */\n      dup3\n        /* \"#utility.yul\":10177:10198   */\n      or\n        /* \"#utility.yul\":10169:10198   */\n      swap1\n      pop\n        /* \"#utility.yul\":9909:10204   */\n      swap3\n      swap2\n      pop\n      pop\n      jump\t// out\n        /* \"#utility.yul\":10209:11599   */\n    tag_52:\n        /* \"#utility.yul\":10324:10360   */\n      tag_228\n        /* \"#utility.yul\":10356:10359   */\n      dup3\n        /* \"#utility.yul\":10324:10360   */\n      tag_72\n      jump\t// in\n    tag_228:\n        /* \"#utility.yul\":10425:10443   */\n      0xffffffffffffffff\n        /* \"#utility.yul\":10417:10423   */\n      dup2\n        /* \"#utility.yul\":10414:10444   */\n      gt\n        /* \"#utility.yul\":10411:10467   */\n      iszero\n      tag_229\n      jumpi\n        /* \"#utility.yul\":10447:10465   */\n      tag_230\n      tag_79\n      jump\t// in\n    tag_230:\n        /* \"#utility.yul\":10411:10467   */\n    tag_229:\n        /* \"#utility.yul\":10491:10529   */\n      tag_231\n        /* \"#utility.yul\":10523:10527   */\n      dup3\n        /* \"#utility.yul\":10517:10528   */\n      sload\n        /* \"#utility.yul\":10491:10529   */\n      tag_42\n      jump\t// in\n    tag_231:\n        /* \"#utility.yul\":10576:10642   */\n      tag_232\n        /* \"#utility.yul\":10635:10641   */\n      dup3\n        /* \"#utility.yul\":10627:10633   */\n      dup3\n        /* \"#utility.yul\":10621:10625   */\n      dup6\n        /* \"#utility.yul\":10576:10642   */\n      tag_102\n      jump\t// in\n    tag_232:\n        /* \"#utility.yul\":10669:10670   */\n      0x00\n        /* \"#utility.yul\":10693:10697   */\n      0x20\n        /* \"#utility.yul\":10680:10697   */\n      swap1\n      pop\n        /* \"#utility.yul\":10725:10727   */\n      0x1f\n        /* \"#utility.yul\":10717:10723   */\n      dup4\n        /* \"#utility.yul\":10714:10728   */\n      gt\n        /* \"#utility.yul\":10742:10743   */\n      0x01\n        /* \"#utility.yul\":10737:11354   */\n      dup2\n      eq\n      tag_234\n      jumpi\n        /* \"#utility.yul\":11398:11399   */\n      0x00\n        /* \"#utility.yul\":11415:11421   */\n      dup5\n        /* \"#utility.yul\":11412:11489   */\n      iszero\n      tag_235\n      jumpi\n        /* \"#utility.yul\":11464:11473   */\n      dup3\n        /* \"#utility.yul\":11459:11462   */\n      dup8\n        /* \"#utility.yul\":11455:11474   */\n      add\n        /* \"#utility.yul\":11449:11475   */\n      mload\n        /* \"#utility.yul\":11440:11475   */\n      swap1\n      pop\n        /* \"#utility.yul\":11412:11489   */\n    tag_235:\n        /* \"#utility.yul\":11515:11582   */\n      tag_236\n        /* \"#utility.yul\":11575:11581   */\n      dup6\n        /* \"#utility.yul\":11568:11573   */\n      dup3\n        /* \"#utility.yul\":11515:11582   */\n      tag_105\n      jump\t// in\n    tag_236:\n        /* \"#utility.yul\":11509:11513   */\n      dup7\n        /* \"#utility.yul\":11502:11583   */\n      sstore\n        /* \"#utility.yul\":11371:11593   */\n      pop\n        /* \"#utility.yul\":10707:11593   */\n      jump(tag_233)\n        /* \"#utility.yul\":10737:11354   */\n    tag_234:\n        /* \"#utility.yul\":10789:10793   */\n      0x1f\n        /* \"#utility.yul\":10785:10794   */\n      not\n        /* \"#utility.yul\":10777:10783   */\n      dup5\n        /* \"#utility.yul\":10773:10795   */\n      and\n        /* \"#utility.yul\":10823:10859   */\n      tag_237\n        /* \"#utility.yul\":10854:10858   */\n      dup7\n        /* \"#utility.yul\":10823:10859   */\n      tag_91\n      jump\t// in\n    tag_237:\n        /* \"#utility.yul\":10881:10882   */\n      0x00\n        /* \"#utility.yul\":10895:11103   */\n    tag_238:\n        /* \"#utility.yul\":10909:10916   */\n      dup3\n        /* \"#utility.yul\":10906:10907   */\n      dup2\n        /* \"#utility.yul\":10903:10917   */\n      lt\n        /* \"#utility.yul\":10895:11103   */\n      iszero\n      tag_240\n      jumpi\n        /* \"#utility.yul\":10988:10997   */\n      dup5\n        /* \"#utility.yul\":10983:10986   */\n      dup10\n        /* \"#utility.yul\":10979:10998   */\n      add\n        /* \"#utility.yul\":10973:10999   */\n      mload\n        /* \"#utility.yul\":10965:10971   */\n      dup3\n        /* \"#utility.yul\":10958:11000   */\n      sstore\n        /* \"#utility.yul\":11039:11040   */\n      0x01\n        /* \"#utility.yul\":11031:11037   */\n      dup3\n        /* \"#utility.yul\":11027:11041   */\n      add\n        /* \"#utility.yul\":11017:11041   */\n      swap2\n      pop\n        /* \"#utility.yul\":11086:11088   */\n      0x20\n        /* \"#utility.yul\":11075:11084   */\n      dup6\n        /* \"#utility.yul\":11071:11089   */\n      add\n        /* \"#utility.yul\":11058:11089   */\n      swap5\n      pop\n        /* \"#utility.yul\":10932:10936   */\n      0x20\n        /* \"#utility.yul\":10929:10930   */\n      dup2\n        /* \"#utility.yul\":10925:10937   */\n      add\n        /* \"#utility.yul\":10920:10937   */\n      swap1\n      pop\n        /* \"#utility.yul\":10895:11103   */\n      jump(tag_238)\n    tag_240:\n        /* \"#utility.yul\":11131:11137   */\n      dup7\n        /* \"#utility.yul\":11122:11129   */\n      dup4\n        /* \"#utility.yul\":11119:11138   */\n      lt\n        /* \"#utility.yul\":11116:11295   */\n      iszero\n      tag_241\n      jumpi\n        /* \"#utility.yul\":11189:11198   */\n      dup5\n        /* \"#utility.yul\":11184:11187   */\n      dup10\n        /* \"#utility.yul\":11180:11199   */\n      add\n        /* \"#utility.yul\":11174:11200   */\n      mload\n        /* \"#utility.yul\":11232:11280   */\n      tag_242\n        /* \"#utility.yul\":11274:11278   */\n      0x1f\n        /* \"#utility.yul\":11266:11272   */\n      dup10\n        /* \"#utility.yul\":11262:11279   */\n      and\n        /* \"#utility.yul\":11251:11260   */\n      dup3\n        /* \"#utility.yul\":11232:11280   */\n      tag_104\n      jump\t// in\n    tag_242:\n        /* \"#utility.yul\":11224:11230   */\n      dup4\n        /* \"#utility.yul\":11217:11281   */\n      sstore\n        /* \"#utility.yul\":11139:11295   */\n      pop\n        /* \"#utility.yul\":11116:11295   */\n    tag_241:\n        /* \"#utility.yul\":11341:11342   */\n      0x01\n        /* \"#utility.yul\":11337:11338   */\n      0x02\n        /* \"#utility.yul\":11329:11335   */\n      dup9\n        /* \"#utility.yul\":11325:11339   */\n      mul\n        /* \"#utility.yul\":11321:11343   */\n      add\n        /* \"#utility.yul\":11315:11319   */\n      dup9\n        /* \"#utility.yul\":11308:11344   */\n      sstore\n        /* \"#utility.yul\":10744:11354   */\n      pop\n      pop\n      pop\n        /* \"#utility.yul\":10707:11593   */\n    tag_233:\n      pop\n        /* \"#utility.yul\":10299:11599   */\n      pop\n      pop\n      pop\n        /* \"#utility.yul\":10209:11599   */\n      pop\n      pop\n      jump\t// out\n\n    auxdata: 0xa264697066735822122068fd4871ae444869bd9d5adf5ae6ee7734268699e0283fb13b9433ee93b213eb64736f6c63430008120033\n}\n",
				"bytecode": {
					"linkReferences": {},
					"object": "608060405234801561001057600080fd5b50610a0c806100206000396000f3fe608060405234801561001057600080fd5b50600436106100625760003560e01c806314d2360c146100675780636aaa2b7e146100855780638108d92f146100b55780638199140e146100d1578063c4b04d7c14610101578063ea27b65b1461011d575b600080fd5b61006f61013b565b60405161007c919061034f565b60405180910390f35b61009f600480360381019061009a91906103aa565b610144565b6040516100ac9190610467565b60405180910390f35b6100cf60048036038101906100ca91906105be565b6101eb565b005b6100eb60048036038101906100e691906103aa565b610212565b6040516100f89190610655565b60405180910390f35b61011b6004803603810190610116919061069c565b61027d565b005b610125610320565b604051610132919061034f565b60405180910390f35b60006003905090565b60606000826003811061015a576101596106c9565b5b01805461016690610727565b80601f016020809104026020016040519081016040528092919081815260200182805461019290610727565b80156101df5780601f106101b4576101008083540402835291602001916101df565b820191906000526020600020905b8154815290600101906020018083116101c257829003601f168201915b50505050509050919050565b8060008360038110610200576101ff6106c9565b5b01908161020d9190610904565b505050565b6000600382815461022290610727565b8110610231576102306106c9565b5b8154600116156102505790600052602060002090602091828204019190065b9054901a7f0100000000000000000000000000000000000000000000000000000000000000029050919050565b600381908080548061028e90610727565b80601f81036102ad5783600052602060002060ff1984168155603f9350505b506002820183556001810192505050600190038154600116156102df5790600052602060002090602091828204019190065b909190919091601f036101000a81548160ff021916907f01000000000000000000000000000000000000000000000000000000000000008404021790555050565b60006003805461032f90610727565b9050905090565b6000819050919050565b61034981610336565b82525050565b60006020820190506103646000830184610340565b92915050565b6000604051905090565b600080fd5b600080fd5b61038781610336565b811461039257600080fd5b50565b6000813590506103a48161037e565b92915050565b6000602082840312156103c0576103bf610374565b5b60006103ce84828501610395565b91505092915050565b600081519050919050565b600082825260208201905092915050565b60005b838110156104115780820151818401526020810190506103f6565b60008484015250505050565b6000601f19601f8301169050919050565b6000610439826103d7565b61044381856103e2565b93506104538185602086016103f3565b61045c8161041d565b840191505092915050565b60006020820190508181036000830152610481818461042e565b905092915050565b600080fd5b600080fd5b7f4e487b7100000000000000000000000000000000000000000000000000000000600052604160045260246000fd5b6104cb8261041d565b810181811067ffffffffffffffff821117156104ea576104e9610493565b5b80604052505050565b60006104fd61036a565b905061050982826104c2565b919050565b600067ffffffffffffffff82111561052957610528610493565b5b6105328261041d565b9050602081019050919050565b82818337600083830152505050565b600061056161055c8461050e565b6104f3565b90508281526020810184848401111561057d5761057c61048e565b5b61058884828561053f565b509392505050565b600082601f8301126105a5576105a4610489565b5b81356105b584826020860161054e565b91505092915050565b600080604083850312156105d5576105d4610374565b5b60006105e385828601610395565b925050602083013567ffffffffffffffff81111561060457610603610379565b5b61061085828601610590565b9150509250929050565b60007fff0000000000000000000000000000000000000000000000000000000000000082169050919050565b61064f8161061a565b82525050565b600060208201905061066a6000830184610646565b92915050565b6106798161061a565b811461068457600080fd5b50565b60008135905061069681610670565b92915050565b6000602082840312156106b2576106b1610374565b5b60006106c084828501610687565b91505092915050565b7f4e487b7100000000000000000000000000000000000000000000000000000000600052603260045260246000fd5b7f4e487b7100000000000000000000000000000000000000000000000000000000600052602260045260246000fd5b6000600282049050600182168061073f57607f821691505b602082108103610752576107516106f8565b5b50919050565b60008190508160005260206000209050919050565b60006020601f8301049050919050565b600082821b905092915050565b6000600883026107ba7fffffffffffffffffffffffffffffffffffffffffffffffffffffffffffffffff8261077d565b6107c4868361077d565b95508019841693508086168417925050509392505050565b6000819050919050565b60006108016107fc6107f784610336565b6107dc565b610336565b9050919050565b6000819050919050565b61081b836107e6565b61082f61082782610808565b84845461078a565b825550505050565b600090565b610844610837565b61084f818484610812565b505050565b5b818110156108735761086860008261083c565b600181019050610855565b5050565b601f8211156108b85761088981610758565b6108928461076d565b810160208510156108a1578190505b6108b56108ad8561076d565b830182610854565b50505b505050565b600082821c905092915050565b60006108db600019846008026108bd565b1980831691505092915050565b60006108f483836108ca565b9150826002028217905092915050565b61090d826103d7565b67ffffffffffffffff81111561092657610925610493565b5b6109308254610727565b61093b828285610877565b600060209050601f83116001811461096e576000841561095c578287015190505b61096685826108e8565b8655506109ce565b601f19841661097c86610758565b60005b828110156109a45784890151825560018201915060208501945060208101905061097f565b868310156109c157848901516109bd601f8916826108ca565b8355505b6001600288020188555050505b50505050505056fea264697066735822122068fd4871ae444869bd9d5adf5ae6ee7734268699e0283fb13b9433ee93b213eb64736f6c63430008120033",
					"opcodes": "PUSH1 0x80 PUSH1 0x40 MSTORE CALLVALUE DUP1 ISZERO PUSH2 0x10 JUMPI PUSH1 0x0 DUP1 REVERT JUMPDEST POP PUSH2 0xA0C DUP1 PUSH2 0x20 PUSH1 0x0 CODECOPY PUSH1 0x0 RETURN INVALID PUSH1 0x80 PUSH1 0x40 MSTORE CALLVALUE DUP1 ISZERO PUSH2 0x10 JUMPI PUSH1 0x0 DUP1 REVERT JUMPDEST POP PUSH1 0x4 CALLDATASIZE LT PUSH2 0x62 JUMPI PUSH1 0x0 CALLDATALOAD PUSH1 0xE0 SHR DUP1 PUSH4 0x14D2360C EQ PUSH2 0x67 JUMPI DUP1 PUSH4 0x6AAA2B7E EQ PUSH2 0x85 JUMPI DUP1 PUSH4 0x8108D92F EQ PUSH2 0xB5 JUMPI DUP1 PUSH4 0x8199140E EQ PUSH2 0xD1 JUMPI DUP1 PUSH4 0xC4B04D7C EQ PUSH2 0x101 JUMPI DUP1 PUSH4 0xEA27B65B EQ PUSH2 0x11D JUMPI JUMPDEST PUSH1 0x0 DUP1 REVERT JUMPDEST PUSH2 0x6F PUSH2 0x13B JUMP JUMPDEST PUSH1 0x40 MLOAD PUSH2 0x7C SWAP2 SWAP1 PUSH2 0x34F JUMP JUMPDEST PUSH1 0x40 MLOAD DUP1 SWAP2 SUB SWAP1 RETURN JUMPDEST PUSH2 0x9F PUSH1 0x4 DUP1 CALLDATASIZE SUB DUP2 ADD SWAP1 PUSH2 0x9A SWAP2 SWAP1 PUSH2 0x3AA JUMP JUMPDEST PUSH2 0x144 JUMP JUMPDEST PUSH1 0x40 MLOAD PUSH2 0xAC SWAP2 SWAP1 PUSH2 0x467 JUMP JUMPDEST PUSH1 0x40 MLOAD DUP1 SWAP2 SUB SWAP1 RETURN JUMPDEST PUSH2 0xCF PUSH1 0x4 DUP1 CALLDATASIZE SUB DUP2 ADD SWAP1 PUSH2 0xCA SWAP2 SWAP1 PUSH2 0x5BE JUMP JUMPDEST PUSH2 0x1EB JUMP JUMPDEST STOP JUMPDEST PUSH2 0xEB PUSH1 0x4 DUP1 CALLDATASIZE SUB DUP2 ADD SWAP1 PUSH2 0xE6 SWAP2 SWAP1 PUSH2 0x3AA JUMP JUMPDEST PUSH2 0x212 JUMP JUMPDEST PUSH1 0x40 MLOAD PUSH2 0xF8 SWAP2 SWAP1 PUSH2 0x655 JUMP JUMPDEST PUSH1 0x40 MLOAD DUP1 SWAP2 SUB SWAP1 RETURN JUMPDEST PUSH2 0x11B PUSH1 0x4 DUP1 CALLDATASIZE SUB DUP2 ADD SWAP1 PUSH2 0x116 SWAP2 SWAP1 PUSH2 0x69C JUMP JUMPDEST PUSH2 0x27D JUMP JUMPDEST STOP JUMPDEST PUSH2 0x125 PUSH2 0x320 JUMP JUMPDEST PUSH1 0x40 MLOAD PUSH2 0x132 SWAP2 SWAP1 PUSH2 0x34F JUMP JUMPDEST PUSH1 0x40 MLOAD DUP1 SWAP2 SUB SWAP1 RETURN JUMPDEST PUSH1 0x0 PUSH1 0x3 SWAP1 POP SWAP1 JUMP JUMPDEST PUSH1 0x60 PUSH1 0x0 DUP3 PUSH1 0x3 DUP2 LT PUSH2 0x15A JUMPI PUSH2 0x159 PUSH2 0x6C9 JUMP JUMPDEST JUMPDEST ADD DUP1 SLOAD PUSH2 0x166 SWAP1 PUSH2 0x727 JUMP JUMPDEST DUP1 PUSH1 0x1F ADD PUSH1 0x20 DUP1 SWAP2 DIV MUL PUSH1 0x20 ADD PUSH1 0x40 MLOAD SWAP1 DUP2 ADD PUSH1 0x40 MSTORE DUP1 SWAP3 SWAP2 SWAP1 DUP2 DUP2 MSTORE PUSH1 0x20 ADD DUP3 DUP1 SLOAD PUSH2 0x192 SWAP1 PUSH2 0x727 JUMP JUMPDEST DUP1 ISZERO PUSH2 0x1DF JUMPI DUP1 PUSH1 0x1F LT PUSH2 0x1B4 JUMPI PUSH2 0x100 DUP1 DUP4 SLOAD DIV MUL DUP4 MSTORE SWAP2 PUSH1 0x20 ADD SWAP2 PUSH2 0x1DF JUMP JUMPDEST DUP3 ADD SWAP2 SWAP1 PUSH1 0x0 MSTORE PUSH1 0x20 PUSH1 0x0 KECCAK256 SWAP1 JUMPDEST DUP2 SLOAD DUP2 MSTORE SWAP1 PUSH1 0x1 ADD SWAP1 PUSH1 0x20 ADD DUP1 DUP4 GT PUSH2 0x1C2 JUMPI DUP3 SWAP1 SUB PUSH1 0x1F AND DUP3 ADD SWAP2 JUMPDEST POP POP POP POP POP SWAP1 POP SWAP2 SWAP1 POP JUMP JUMPDEST DUP1 PUSH1 0x0 DUP4 PUSH1 0x3 DUP2 LT PUSH2 0x200 JUMPI PUSH2 0x1FF PUSH2 0x6C9 JUMP JUMPDEST JUMPDEST ADD SWAP1 DUP2 PUSH2 0x20D SWAP2 SWAP1 PUSH2 0x904 JUMP JUMPDEST POP POP POP JUMP JUMPDEST PUSH1 0x0 PUSH1 0x3 DUP3 DUP2 SLOAD PUSH2 0x222 SWAP1 PUSH2 0x727 JUMP JUMPDEST DUP2 LT PUSH2 0x231 JUMPI PUSH2 0x230 PUSH2 0x6C9 JUMP JUMPDEST JUMPDEST DUP2 SLOAD PUSH1 0x1 AND ISZERO PUSH2 0x250 JUMPI SWAP1 PUSH1 0x0 MSTORE PUSH1 0x20 PUSH1 0x0 KECCAK256 SWAP1 PUSH1 0x20 SWAP2 DUP3 DUP3 DIV ADD SWAP2 SWAP1 MOD JUMPDEST SWAP1 SLOAD SWAP1 BYTE PUSH32 0x100000000000000000000000000000000000000000000000000000000000000 MUL SWAP1 POP SWAP2 SWAP1 POP JUMP JUMPDEST PUSH1 0x3 DUP2 SWAP1 DUP1 DUP1 SLOAD DUP1 PUSH2 0x28E SWAP1 PUSH2 0x727 JUMP JUMPDEST DUP1 PUSH1 0x1F DUP2 SUB PUSH2 0x2AD JUMPI DUP4 PUSH1 0x0 MSTORE PUSH1 0x20 PUSH1 0x0 KECCAK256 PUSH1 0xFF NOT DUP5 AND DUP2 SSTORE PUSH1 0x3F SWAP4 POP POP JUMPDEST POP PUSH1 0x2 DUP3 ADD DUP4 SSTORE PUSH1 0x1 DUP2 ADD SWAP3 POP POP POP PUSH1 0x1 SWAP1 SUB DUP2 SLOAD PUSH1 0x1 AND ISZERO PUSH2 0x2DF JUMPI SWAP1 PUSH1 0x0 MSTORE PUSH1 0x20 PUSH1 0x0 KECCAK256 SWAP1 PUSH1 0x20 SWAP2 DUP3 DUP3 DIV ADD SWAP2 SWAP1 MOD JUMPDEST SWAP1 SWAP2 SWAP1 SWAP2 SWAP1 SWAP2 PUSH1 0x1F SUB PUSH2 0x100 EXP DUP2 SLOAD DUP2 PUSH1 0xFF MUL NOT AND SWAP1 PUSH32 0x100000000000000000000000000000000000000000000000000000000000000 DUP5 DIV MUL OR SWAP1 SSTORE POP POP JUMP JUMPDEST PUSH1 0x0 PUSH1 0x3 DUP1 SLOAD PUSH2 0x32F SWAP1 PUSH2 0x727 JUMP JUMPDEST SWAP1 POP SWAP1 POP SWAP1 JUMP JUMPDEST PUSH1 0x0 DUP2 SWAP1 POP SWAP2 SWAP1 POP JUMP JUMPDEST PUSH2 0x349 DUP2 PUSH2 0x336 JUMP JUMPDEST DUP3 MSTORE POP POP JUMP JUMPDEST PUSH1 0x0 PUSH1 0x20 DUP3 ADD SWAP1 POP PUSH2 0x364 PUSH1 0x0 DUP4 ADD DUP5 PUSH2 0x340 JUMP JUMPDEST SWAP3 SWAP2 POP POP JUMP JUMPDEST PUSH1 0x0 PUSH1 0x40 MLOAD SWAP1 POP SWAP1 JUMP JUMPDEST PUSH1 0x0 DUP1 REVERT JUMPDEST PUSH1 0x0 DUP1 REVERT JUMPDEST PUSH2 0x387 DUP2 PUSH2 0x336 JUMP JUMPDEST DUP2 EQ PUSH2 0x392 JUMPI PUSH1 0x0 DUP1 REVERT JUMPDEST POP JUMP JUMPDEST PUSH1 0x0 DUP2 CALLDATALOAD SWAP1 POP PUSH2 0x3A4 DUP2 PUSH2 0x37E JUMP JUMPDEST SWAP3 SWAP2 POP POP JUMP JUMPDEST PUSH1 0x0 PUSH1 0x20 DUP3 DUP5 SUB SLT ISZERO PUSH2 0x3C0 JUMPI PUSH2 0x3BF PUSH2 0x374 JUMP JUMPDEST JUMPDEST PUSH1 0x0 PUSH2 0x3CE DUP5 DUP3 DUP6 ADD PUSH2 0x395 JUMP JUMPDEST SWAP2 POP POP SWAP3 SWAP2 POP POP JUMP JUMPDEST PUSH1 0x0 DUP2 MLOAD SWAP1 POP SWAP2 SWAP1 POP JUMP JUMPDEST PUSH1 0x0 DUP3 DUP3 MSTORE PUSH1 0x20 DUP3 ADD SWAP1 POP SWAP3 SWAP2 POP POP JUMP JUMPDEST PUSH1 0x0 JUMPDEST DUP4 DUP2 LT ISZERO PUSH2 0x411 JUMPI DUP1 DUP3 ADD MLOAD DUP2 DUP5 ADD MSTORE PUSH1 0x20 DUP2 ADD SWAP1 POP PUSH2 0x3F6 JUMP JUMPDEST PUSH1 0x0 DUP5 DUP5 ADD MSTORE POP POP POP POP JUMP JUMPDEST PUSH1 0x0 PUSH1 0x1F NOT PUSH1 0x1F DUP4 ADD AND SWAP1 POP SWAP2 SWAP1 POP JUMP JUMPDEST PUSH1 0x0 PUSH2 0x439 DUP3 PUSH2 0x3D7 JUMP JUMPDEST PUSH2 0x443 DUP2 DUP6 PUSH2 0x3E2 JUMP JUMPDEST SWAP4 POP PUSH2 0x453 DUP2 DUP6 PUSH1 0x20 DUP7 ADD PUSH2 0x3F3 JUMP JUMPDEST PUSH2 0x45C DUP2 PUSH2 0x41D JUMP JUMPDEST DUP5 ADD SWAP2 POP POP SWAP3 SWAP2 POP POP JUMP JUMPDEST PUSH1 0x0 PUSH1 0x20 DUP3 ADD SWAP1 POP DUP2 DUP2 SUB PUSH1 0x0 DUP4 ADD MSTORE PUSH2 0x481 DUP2 DUP5 PUSH2 0x42E JUMP JUMPDEST SWAP1 POP SWAP3 SWAP2 POP POP JUMP JUMPDEST PUSH1 0x0 DUP1 REVERT JUMPDEST PUSH1 0x0 DUP1 REVERT JUMPDEST PUSH32 0x4E487B7100000000000000000000000000000000000000000000000000000000 PUSH1 0x0 MSTORE PUSH1 0x41 PUSH1 0x4 MSTORE PUSH1 0x24 PUSH1 0x0 REVERT JUMPDEST PUSH2 0x4CB DUP3 PUSH2 0x41D JUMP JUMPDEST DUP2 ADD DUP2 DUP2 LT PUSH8 0xFFFFFFFFFFFFFFFF DUP3 GT OR ISZERO PUSH2 0x4EA JUMPI PUSH2 0x4E9 PUSH2 0x493 JUMP JUMPDEST JUMPDEST DUP1 PUSH1 0x40 MSTORE POP POP POP JUMP JUMPDEST PUSH1 0x0 PUSH2 0x4FD PUSH2 0x36A JUMP JUMPDEST SWAP1 POP PUSH2 0x509 DUP3 DUP3 PUSH2 0x4C2 JUMP JUMPDEST SWAP2 SWAP1 POP JUMP JUMPDEST PUSH1 0x0 PUSH8 0xFFFFFFFFFFFFFFFF DUP3 GT ISZERO PUSH2 0x529 JUMPI PUSH2 0x528 PUSH2 0x493 JUMP JUMPDEST JUMPDEST PUSH2 0x532 DUP3 PUSH2 0x41D JUMP JUMPDEST SWAP1 POP PUSH1 0x20 DUP2 ADD SWAP1 POP SWAP2 SWAP1 POP JUMP JUMPDEST DUP3 DUP2 DUP4 CALLDATACOPY PUSH1 0x0 DUP4 DUP4 ADD MSTORE POP POP POP JUMP JUMPDEST PUSH1 0x0 PUSH2 0x561 PUSH2 0x55C DUP5 PUSH2 0x50E JUMP JUMPDEST PUSH2 0x4F3 JUMP JUMPDEST SWAP1 POP DUP3 DUP2 MSTORE PUSH1 0x20 DUP2 ADD DUP5 DUP5 DUP5 ADD GT ISZERO PUSH2 0x57D JUMPI PUSH2 0x57C PUSH2 0x48E JUMP JUMPDEST JUMPDEST PUSH2 0x588 DUP5 DUP3 DUP6 PUSH2 0x53F JUMP JUMPDEST POP SWAP4 SWAP3 POP POP POP JUMP JUMPDEST PUSH1 0x0 DUP3 PUSH1 0x1F DUP4 ADD SLT PUSH2 0x5A5 JUMPI PUSH2 0x5A4 PUSH2 0x489 JUMP JUMPDEST JUMPDEST DUP2 CALLDATALOAD PUSH2 0x5B5 DUP5 DUP3 PUSH1 0x20 DUP7 ADD PUSH2 0x54E JUMP JUMPDEST SWAP2 POP POP SWAP3 SWAP2 POP POP JUMP JUMPDEST PUSH1 0x0 DUP1 PUSH1 0x40 DUP4 DUP6 SUB SLT ISZERO PUSH2 0x5D5 JUMPI PUSH2 0x5D4 PUSH2 0x374 JUMP JUMPDEST JUMPDEST PUSH1 0x0 PUSH2 0x5E3 DUP6 DUP3 DUP7 ADD PUSH2 0x395 JUMP JUMPDEST SWAP3 POP POP PUSH1 0x20 DUP4 ADD CALLDATALOAD PUSH8 0xFFFFFFFFFFFFFFFF DUP2 GT ISZERO PUSH2 0x604 JUMPI PUSH2 0x603 PUSH2 0x379 JUMP JUMPDEST JUMPDEST PUSH2 0x610 DUP6 DUP3 DUP7 ADD PUSH2 0x590 JUMP JUMPDEST SWAP2 POP POP SWAP3 POP SWAP3 SWAP1 POP JUMP JUMPDEST PUSH1 0x0 PUSH32 0xFF00000000000000000000000000000000000000000000000000000000000000 DUP3 AND SWAP1 POP SWAP2 SWAP1 POP JUMP JUMPDEST PUSH2 0x64F DUP2 PUSH2 0x61A JUMP JUMPDEST DUP3 MSTORE POP POP JUMP JUMPDEST PUSH1 0x0 PUSH1 0x20 DUP3 ADD SWAP1 POP PUSH2 0x66A PUSH1 0x0 DUP4 ADD DUP5 PUSH2 0x646 JUMP JUMPDEST SWAP3 SWAP2 POP POP JUMP JUMPDEST PUSH2 0x679 DUP2 PUSH2 0x61A JUMP JUMPDEST DUP2 EQ PUSH2 0x684 JUMPI PUSH1 0x0 DUP1 REVERT JUMPDEST POP JUMP JUMPDEST PUSH1 0x0 DUP2 CALLDATALOAD SWAP1 POP PUSH2 0x696 DUP2 PUSH2 0x670 JUMP JUMPDEST SWAP3 SWAP2 POP POP JUMP JUMPDEST PUSH1 0x0 PUSH1 0x20 DUP3 DUP5 SUB SLT ISZERO PUSH2 0x6B2 JUMPI PUSH2 0x6B1 PUSH2 0x374 JUMP JUMPDEST JUMPDEST PUSH1 0x0 PUSH2 0x6C0 DUP5 DUP3 DUP6 ADD PUSH2 0x687 JUMP JUMPDEST SWAP2 POP POP SWAP3 SWAP2 POP POP JUMP JUMPDEST PUSH32 0x4E487B7100000000000000000000000000000000000000000000000000000000 PUSH1 0x0 MSTORE PUSH1 0x32 PUSH1 0x4 MSTORE PUSH1 0x24 PUSH1 0x0 REVERT JUMPDEST PUSH32 0x4E487B7100000000000000000000000000000000000000000000000000000000 PUSH1 0x0 MSTORE PUSH1 0x22 PUSH1 0x4 MSTORE PUSH1 0x24 PUSH1 0x0 REVERT JUMPDEST PUSH1 0x0 PUSH1 0x2 DUP3 DIV SWAP1 POP PUSH1 0x1 DUP3 AND DUP1 PUSH2 0x73F JUMPI PUSH1 0x7F DUP3 AND SWAP2 POP JUMPDEST PUSH1 0x20 DUP3 LT DUP2 SUB PUSH2 0x752 JUMPI PUSH2 0x751 PUSH2 0x6F8 JUMP JUMPDEST JUMPDEST POP SWAP2 SWAP1 POP JUMP JUMPDEST PUSH1 0x0 DUP2 SWAP1 POP DUP2 PUSH1 0x0 MSTORE PUSH1 0x20 PUSH1 0x0 KECCAK256 SWAP1 POP SWAP2 SWAP1 POP JUMP JUMPDEST PUSH1 0x0 PUSH1 0x20 PUSH1 0x1F DUP4 ADD DIV SWAP1 POP SWAP2 SWAP1 POP JUMP JUMPDEST PUSH1 0x0 DUP3 DUP3 SHL SWAP1 POP SWAP3 SWAP2 POP POP JUMP JUMPDEST PUSH1 0x0 PUSH1 0x8 DUP4 MUL PUSH2 0x7BA PUSH32 0xFFFFFFFFFFFFFFFFFFFFFFFFFFFFFFFFFFFFFFFFFFFFFFFFFFFFFFFFFFFFFFFF DUP3 PUSH2 0x77D JUMP JUMPDEST PUSH2 0x7C4 DUP7 DUP4 PUSH2 0x77D JUMP JUMPDEST SWAP6 POP DUP1 NOT DUP5 AND SWAP4 POP DUP1 DUP7 AND DUP5 OR SWAP3 POP POP POP SWAP4 SWAP3 POP POP POP JUMP JUMPDEST PUSH1 0x0 DUP2 SWAP1 POP SWAP2 SWAP1 POP JUMP JUMPDEST PUSH1 0x0 PUSH2 0x801 PUSH2 0x7FC PUSH2 0x7F7 DUP5 PUSH2 0x336 JUMP JUMPDEST PUSH2 0x7DC JUMP JUMPDEST PUSH2 0x336 JUMP JUMPDEST SWAP1 POP SWAP2 SWAP1 POP JUMP JUMPDEST PUSH1 0x0 DUP2 SWAP1 POP SWAP2 SWAP1 POP JUMP JUMPDEST PUSH2 0x81B DUP4 PUSH2 0x7E6 JUMP JUMPDEST PUSH2 0x82F PUSH2 0x827 DUP3 PUSH2 0x808 JUMP JUMPDEST DUP5 DUP5 SLOAD PUSH2 0x78A JUMP JUMPDEST DUP3 SSTORE POP POP POP POP JUMP JUMPDEST PUSH1 0x0 SWAP1 JUMP JUMPDEST PUSH2 0x844 PUSH2 0x837 JUMP JUMPDEST PUSH2 0x84F DUP2 DUP5 DUP5 PUSH2 0x812 JUMP JUMPDEST POP POP POP JUMP JUMPDEST JUMPDEST DUP2 DUP2 LT ISZERO PUSH2 0x873 JUMPI PUSH2 0x868 PUSH1 0x0 DUP3 PUSH2 0x83C JUMP JUMPDEST PUSH1 0x1 DUP2 ADD SWAP1 POP PUSH2 0x855 JUMP JUMPDEST POP POP JUMP JUMPDEST PUSH1 0x1F DUP3 GT ISZERO PUSH2 0x8B8 JUMPI PUSH2 0x889 DUP2 PUSH2 0x758 JUMP JUMPDEST PUSH2 0x892 DUP5 PUSH2 0x76D JUMP JUMPDEST DUP2 ADD PUSH1 0x20 DUP6 LT ISZERO PUSH2 0x8A1 JUMPI DUP2 SWAP1 POP JUMPDEST PUSH2 0x8B5 PUSH2 0x8AD DUP6 PUSH2 0x76D JUMP JUMPDEST DUP4 ADD DUP3 PUSH2 0x854 JUMP JUMPDEST POP POP JUMPDEST POP POP POP JUMP JUMPDEST PUSH1 0x0 DUP3 DUP3 SHR SWAP1 POP SWAP3 SWAP2 POP POP JUMP JUMPDEST PUSH1 0x0 PUSH2 0x8DB PUSH1 0x0 NOT DUP5 PUSH1 0x8 MUL PUSH2 0x8BD JUMP JUMPDEST NOT DUP1 DUP4 AND SWAP2 POP POP SWAP3 SWAP2 POP POP JUMP JUMPDEST PUSH1 0x0 PUSH2 0x8F4 DUP4 DUP4 PUSH2 0x8CA JUMP JUMPDEST SWAP2 POP DUP3 PUSH1 0x2 MUL DUP3 OR SWAP1 POP SWAP3 SWAP2 POP POP JUMP JUMPDEST PUSH2 0x90D DUP3 PUSH2 0x3D7 JUMP JUMPDEST PUSH8 0xFFFFFFFFFFFFFFFF DUP2 GT ISZERO PUSH2 0x926 JUMPI PUSH2 0x925 PUSH2 0x493 JUMP JUMPDEST JUMPDEST PUSH2 0x930 DUP3 SLOAD PUSH2 0x727 JUMP JUMPDEST PUSH2 0x93B DUP3 DUP3 DUP6 PUSH2 0x877 JUMP JUMPDEST PUSH1 0x0 PUSH1 0x20 SWAP1 POP PUSH1 0x1F DUP4 GT PUSH1 0x1 DUP2 EQ PUSH2 0x96E JUMPI PUSH1 0x0 DUP5 ISZERO PUSH2 0x95C JUMPI DUP3 DUP8 ADD MLOAD SWAP1 POP JUMPDEST PUSH2 0x966 DUP6 DUP3 PUSH2 0x8E8 JUMP JUMPDEST DUP7 SSTORE POP PUSH2 0x9CE JUMP JUMPDEST PUSH1 0x1F NOT DUP5 AND PUSH2 0x97C DUP7 PUSH2 0x758 JUMP JUMPDEST PUSH1 0x0 JUMPDEST DUP3 DUP2 LT ISZERO PUSH2 0x9A4 JUMPI DUP5 DUP10 ADD MLOAD DUP3 SSTORE PUSH1 0x1 DUP3 ADD SWAP2 POP PUSH1 0x20 DUP6 ADD SWAP5 POP PUSH1 0x20 DUP2 ADD SWAP1 POP PUSH2 0x97F JUMP JUMPDEST DUP7 DUP4 LT ISZERO PUSH2 0x9C1 JUMPI DUP5 DUP10 ADD MLOAD PUSH2 0x9BD PUSH1 0x1F DUP10 AND DUP3 PUSH2 0x8CA JUMP JUMPDEST DUP4 SSTORE POP JUMPDEST PUSH1 0x1 PUSH1 0x2 DUP9 MUL ADD DUP9 SSTORE POP POP POP JUMPDEST POP POP POP POP POP POP JUMP INVALID LOG2 PUSH5 0x6970667358 0x22 SLT KECCAK256 PUSH9 0xFD4871AE444869BD9D GAS 0xDF GAS 0xE6 0xEE PUSH24 0x34268699E0283FB13B9433EE93B213EB64736F6C63430008 SLT STOP CALLER "
				},
				"gasEstimates": {
					"creation": {
						"codeDepositCost": "514400",
						"executionCost": "549",
						"totalCost": "514949"
					},
					"external": {
						"getDynamicLength()": "2658",
						"getStaticLength()": "315",
						"getValueDynamic(uint256)": "7231",
						"getValueStatic(uint256)": "infinite",
						"setValueDynamic(bytes1)": "75159",
						"setValueStatic(uint256,bytes)": "infinite"
					}
				},
				"methodIdentifiers": {
					"getDynamicLength()": "ea27b65b",
					"getStaticLength()": "14d2360c",
					"getValueDynamic(uint256)": "8199140e",
					"getValueStatic(uint256)": "6aaa2b7e",
					"setValueDynamic(bytes1)": "c4b04d7c",
					"setValueStatic(uint256,bytes)": "8108d92f"
				}
			},
			"storageLayout": {
				"storage": [
					{
						"astId": 5,
						"contract": "Fall-2023/11_ByteArray_Bytes.sol:ByteArray",
						"label": "bStatic",
						"offset": 0,
						"slot": "0",
						"type": "t_array(t_bytes_storage)3_storage"
					},
					{
						"astId": 7,
						"contract": "Fall-2023/11_ByteArray_Bytes.sol:ByteArray",
						"label": "bDynamic",
						"offset": 0,
						"slot": "3",
						"type": "t_bytes_storage"
					}
				],
				"types": {
					"t_array(t_bytes_storage)3_storage": {
						"base": "t_bytes_storage",
						"encoding": "inplace",
						"label": "bytes[3]",
						"numberOfBytes": "96"
					},
					"t_bytes_storage": {
						"encoding": "bytes",
						"label": "bytes",
						"numberOfBytes": "32"
					}
				}
			},
			"userdoc": {
				"kind": "user",
				"methods": {},
				"version": 1
			}
		}
	}
}