{
	"Fall-2023/09_FixedByteArray.sol": {
		"FixedByteArray": {
			"abi": [
				{
					"inputs": [],
					"name": "getB1",
					"outputs": [
						{
							"internalType": "bytes1",
							"name": "",
							"type": "bytes1"
						}
					],
					"stateMutability": "view",
					"type": "function"
				},
				{
					"inputs": [
						{
							"internalType": "uint256",
							"name": "index",
							"type": "uint256"
						}
					],
					"name": "getB1At",
					"outputs": [
						{
							"internalType": "bytes1",
							"name": "",
							"type": "bytes1"
						}
					],
					"stateMutability": "view",
					"type": "function"
				},
				{
					"inputs": [],
					"name": "getB1Length",
					"outputs": [
						{
							"internalType": "uint256",
							"name": "",
							"type": "uint256"
						}
					],
					"stateMutability": "view",
					"type": "function"
				},
				{
					"inputs": [],
					"name": "getB2",
					"outputs": [
						{
							"internalType": "bytes2",
							"name": "",
							"type": "bytes2"
						}
					],
					"stateMutability": "view",
					"type": "function"
				},
				{
					"inputs": [
						{
							"internalType": "uint256",
							"name": "index",
							"type": "uint256"
						}
					],
					"name": "getB2At",
					"outputs": [
						{
							"internalType": "bytes1",
							"name": "",
							"type": "bytes1"
						}
					],
					"stateMutability": "view",
					"type": "function"
				},
				{
					"inputs": [],
					"name": "getB2Length",
					"outputs": [
						{
							"internalType": "uint256",
							"name": "",
							"type": "uint256"
						}
					],
					"stateMutability": "view",
					"type": "function"
				},
				{
					"inputs": [
						{
							"internalType": "bytes1",
							"name": "_b1",
							"type": "bytes1"
						}
					],
					"name": "setValueB1",
					"outputs": [],
					"stateMutability": "nonpayable",
					"type": "function"
				},
				{
					"inputs": [
						{
							"internalType": "bytes2",
							"name": "_b2",
							"type": "bytes2"
						}
					],
					"name": "setValueB2",
					"outputs": [],
					"stateMutability": "nonpayable",
					"type": "function"
				}
			],
			"devdoc": {
				"kind": "dev",
				"methods": {},
				"version": 1
			},
			"evm": {
				"assembly": "    /* \"Fall-2023/09_FixedByteArray.sol\":92:1606  contract FixedByteArray... */\n  mstore(0x40, 0x80)\n    /* \"Fall-2023/09_FixedByteArray.sol\":124:139  bytes1 b1 = \"A\" */\n  0x4100000000000000000000000000000000000000000000000000000000000000\n  0x00\n  dup1\n  0x0100\n  exp\n  dup2\n  sload\n  dup2\n  0xff\n  mul\n  not\n  and\n  swap1\n  dup4\n  0xf8\n  shr\n  mul\n  or\n  swap1\n  sstore\n  pop\n    /* \"Fall-2023/09_FixedByteArray.sol\":173:188  bytes2 b2 = 'A' */\n  0x4100000000000000000000000000000000000000000000000000000000000000\n  0x00\n  exp(0x0100, 0x01)\n  dup2\n  sload\n  dup2\n  0xffff\n  mul\n  not\n  and\n  swap1\n  dup4\n  0xf0\n  shr\n  mul\n  or\n  swap1\n  sstore\n  pop\n    /* \"Fall-2023/09_FixedByteArray.sol\":92:1606  contract FixedByteArray... */\n  callvalue\n  dup1\n  iszero\n  tag_1\n  jumpi\n  0x00\n  dup1\n  revert\ntag_1:\n  pop\n  dataSize(sub_0)\n  dup1\n  dataOffset(sub_0)\n  0x00\n  codecopy\n  0x00\n  return\nstop\n\nsub_0: assembly {\n        /* \"Fall-2023/09_FixedByteArray.sol\":92:1606  contract FixedByteArray... */\n      mstore(0x40, 0x80)\n      callvalue\n      dup1\n      iszero\n      tag_1\n      jumpi\n      0x00\n      dup1\n      revert\n    tag_1:\n      pop\n      jumpi(tag_2, lt(calldatasize, 0x04))\n      shr(0xe0, calldataload(0x00))\n      dup1\n      0x4520e922\n      gt\n      tag_11\n      jumpi\n      dup1\n      0x4520e922\n      eq\n      tag_7\n      jumpi\n      dup1\n      0x6f10d4de\n      eq\n      tag_8\n      jumpi\n      dup1\n      0xd6f18229\n      eq\n      tag_9\n      jumpi\n      dup1\n      0xe67ebfce\n      eq\n      tag_10\n      jumpi\n      jump(tag_2)\n    tag_11:\n      dup1\n      0x1506d7b3\n      eq\n      tag_3\n      jumpi\n      dup1\n      0x230807d7\n      eq\n      tag_4\n      jumpi\n      dup1\n      0x39246290\n      eq\n      tag_5\n      jumpi\n      dup1\n      0x3f4e5ab9\n      eq\n      tag_6\n      jumpi\n    tag_2:\n      0x00\n      dup1\n      revert\n        /* \"Fall-2023/09_FixedByteArray.sol\":1151:1242  function getB1At(uint index) public view returns(bytes1){... */\n    tag_3:\n      tag_12\n      0x04\n      dup1\n      calldatasize\n      sub\n      dup2\n      add\n      swap1\n      tag_13\n      swap2\n      swap1\n      tag_14\n      jump\t// in\n    tag_13:\n      tag_15\n      jump\t// in\n    tag_12:\n      mload(0x40)\n      tag_16\n      swap2\n      swap1\n      tag_17\n      jump\t// in\n    tag_16:\n      mload(0x40)\n      dup1\n      swap2\n      sub\n      swap1\n      return\n        /* \"Fall-2023/09_FixedByteArray.sol\":1330:1421  function getB2At(uint index) public view returns(bytes1){... */\n    tag_4:\n      tag_18\n      0x04\n      dup1\n      calldatasize\n      sub\n      dup2\n      add\n      swap1\n      tag_19\n      swap2\n      swap1\n      tag_14\n      jump\t// in\n    tag_19:\n      tag_20\n      jump\t// in\n    tag_18:\n      mload(0x40)\n      tag_21\n      swap2\n      swap1\n      tag_17\n      jump\t// in\n    tag_21:\n      mload(0x40)\n      dup1\n      swap2\n      sub\n      swap1\n      return\n        /* \"Fall-2023/09_FixedByteArray.sol\":1250:1322  function getB2() public view returns(bytes2){... */\n    tag_5:\n      tag_22\n      tag_23\n      jump\t// in\n    tag_22:\n      mload(0x40)\n      tag_24\n      swap2\n      swap1\n      tag_25\n      jump\t// in\n    tag_24:\n      mload(0x40)\n      dup1\n      swap2\n      sub\n      swap1\n      return\n        /* \"Fall-2023/09_FixedByteArray.sol\":1071:1143  function getB1() public view returns(bytes1){... */\n    tag_6:\n      tag_26\n      tag_27\n      jump\t// in\n    tag_26:\n      mload(0x40)\n      tag_28\n      swap2\n      swap1\n      tag_17\n      jump\t// in\n    tag_28:\n      mload(0x40)\n      dup1\n      swap2\n      sub\n      swap1\n      return\n        /* \"Fall-2023/09_FixedByteArray.sol\":1520:1603  function getB2Length() public view returns(uint){... */\n    tag_7:\n      tag_29\n      tag_30\n      jump\t// in\n    tag_29:\n      mload(0x40)\n      tag_31\n      swap2\n      swap1\n      tag_32\n      jump\t// in\n    tag_31:\n      mload(0x40)\n      dup1\n      swap2\n      sub\n      swap1\n      return\n        /* \"Fall-2023/09_FixedByteArray.sol\":269:848  function setValueB1(bytes1 _b1) public {... */\n    tag_8:\n      tag_33\n      0x04\n      dup1\n      calldatasize\n      sub\n      dup2\n      add\n      swap1\n      tag_34\n      swap2\n      swap1\n      tag_35\n      jump\t// in\n    tag_34:\n      tag_36\n      jump\t// in\n    tag_33:\n      stop\n        /* \"Fall-2023/09_FixedByteArray.sol\":1429:1512  function getB1Length() public view returns(uint){... */\n    tag_9:\n      tag_37\n      tag_38\n      jump\t// in\n    tag_37:\n      mload(0x40)\n      tag_39\n      swap2\n      swap1\n      tag_32\n      jump\t// in\n    tag_39:\n      mload(0x40)\n      dup1\n      swap2\n      sub\n      swap1\n      return\n        /* \"Fall-2023/09_FixedByteArray.sol\":856:924  function setValueB2(bytes2 _b2) public {... */\n    tag_10:\n      tag_40\n      0x04\n      dup1\n      calldatasize\n      sub\n      dup2\n      add\n      swap1\n      tag_41\n      swap2\n      swap1\n      tag_42\n      jump\t// in\n    tag_41:\n      tag_43\n      jump\t// in\n    tag_40:\n      stop\n        /* \"Fall-2023/09_FixedByteArray.sol\":1151:1242  function getB1At(uint index) public view returns(bytes1){... */\n    tag_15:\n        /* \"Fall-2023/09_FixedByteArray.sol\":1200:1206  bytes1 */\n      0x00\n        /* \"Fall-2023/09_FixedByteArray.sol\":1225:1227  b1 */\n      dup1\n      0x00\n      swap1\n      sload\n      swap1\n      0x0100\n      exp\n      swap1\n      div\n      0xf8\n      shl\n        /* \"Fall-2023/09_FixedByteArray.sol\":1228:1233  index */\n      dup3\n        /* \"Fall-2023/09_FixedByteArray.sol\":1225:1234  b1[index] */\n      0x01\n      dup2\n      lt\n      tag_45\n      jumpi\n      tag_46\n      tag_47\n      jump\t// in\n    tag_46:\n    tag_45:\n      byte\n      0xf8\n      shl\n        /* \"Fall-2023/09_FixedByteArray.sol\":1218:1234  return b1[index] */\n      swap1\n      pop\n        /* \"Fall-2023/09_FixedByteArray.sol\":1151:1242  function getB1At(uint index) public view returns(bytes1){... */\n      swap2\n      swap1\n      pop\n      jump\t// out\n        /* \"Fall-2023/09_FixedByteArray.sol\":1330:1421  function getB2At(uint index) public view returns(bytes1){... */\n    tag_20:\n        /* \"Fall-2023/09_FixedByteArray.sol\":1379:1385  bytes1 */\n      0x00\n        /* \"Fall-2023/09_FixedByteArray.sol\":1404:1406  b2 */\n      dup1\n      0x01\n      swap1\n      sload\n      swap1\n      0x0100\n      exp\n      swap1\n      div\n      0xf0\n      shl\n        /* \"Fall-2023/09_FixedByteArray.sol\":1407:1412  index */\n      dup3\n        /* \"Fall-2023/09_FixedByteArray.sol\":1404:1413  b2[index] */\n      0x02\n      dup2\n      lt\n      tag_49\n      jumpi\n      tag_50\n      tag_47\n      jump\t// in\n    tag_50:\n    tag_49:\n      byte\n      0xf8\n      shl\n        /* \"Fall-2023/09_FixedByteArray.sol\":1397:1413  return b2[index] */\n      swap1\n      pop\n        /* \"Fall-2023/09_FixedByteArray.sol\":1330:1421  function getB2At(uint index) public view returns(bytes1){... */\n      swap2\n      swap1\n      pop\n      jump\t// out\n        /* \"Fall-2023/09_FixedByteArray.sol\":1250:1322  function getB2() public view returns(bytes2){... */\n    tag_23:\n        /* \"Fall-2023/09_FixedByteArray.sol\":1287:1293  bytes2 */\n      0x00\n        /* \"Fall-2023/09_FixedByteArray.sol\":1312:1314  b2 */\n      dup1\n      0x01\n      swap1\n      sload\n      swap1\n      0x0100\n      exp\n      swap1\n      div\n      0xf0\n      shl\n        /* \"Fall-2023/09_FixedByteArray.sol\":1305:1314  return b2 */\n      swap1\n      pop\n        /* \"Fall-2023/09_FixedByteArray.sol\":1250:1322  function getB2() public view returns(bytes2){... */\n      swap1\n      jump\t// out\n        /* \"Fall-2023/09_FixedByteArray.sol\":1071:1143  function getB1() public view returns(bytes1){... */\n    tag_27:\n        /* \"Fall-2023/09_FixedByteArray.sol\":1108:1114  bytes1 */\n      0x00\n        /* \"Fall-2023/09_FixedByteArray.sol\":1133:1135  b1 */\n      dup1\n      0x00\n      swap1\n      sload\n      swap1\n      0x0100\n      exp\n      swap1\n      div\n      0xf8\n      shl\n        /* \"Fall-2023/09_FixedByteArray.sol\":1126:1135  return b1 */\n      swap1\n      pop\n        /* \"Fall-2023/09_FixedByteArray.sol\":1071:1143  function getB1() public view returns(bytes1){... */\n      swap1\n      jump\t// out\n        /* \"Fall-2023/09_FixedByteArray.sol\":1520:1603  function getB2Length() public view returns(uint){... */\n    tag_30:\n        /* \"Fall-2023/09_FixedByteArray.sol\":1563:1567  uint */\n      0x00\n        /* \"Fall-2023/09_FixedByteArray.sol\":1586:1588  b2 */\n      dup1\n      0x01\n      swap1\n      sload\n      swap1\n      0x0100\n      exp\n      swap1\n      pop\n      pop\n        /* \"Fall-2023/09_FixedByteArray.sol\":1586:1595  b2.length */\n      0x02\n        /* \"Fall-2023/09_FixedByteArray.sol\":1579:1595  return b2.length */\n      0xff\n      and\n      swap1\n      pop\n        /* \"Fall-2023/09_FixedByteArray.sol\":1520:1603  function getB2Length() public view returns(uint){... */\n      swap1\n      jump\t// out\n        /* \"Fall-2023/09_FixedByteArray.sol\":269:848  function setValueB1(bytes1 _b1) public {... */\n    tag_36:\n        /* \"Fall-2023/09_FixedByteArray.sol\":324:327  _b1 */\n      dup1\n        /* \"Fall-2023/09_FixedByteArray.sol\":319:321  b1 */\n      0x00\n      dup1\n        /* \"Fall-2023/09_FixedByteArray.sol\":319:327  b1 = _b1 */\n      0x0100\n      exp\n      dup2\n      sload\n      dup2\n      0xff\n      mul\n      not\n      and\n      swap1\n      dup4\n      0xf8\n      shr\n      mul\n      or\n      swap1\n      sstore\n      pop\n        /* \"Fall-2023/09_FixedByteArray.sol\":269:848  function setValueB1(bytes1 _b1) public {... */\n      pop\n      jump\t// out\n        /* \"Fall-2023/09_FixedByteArray.sol\":1429:1512  function getB1Length() public view returns(uint){... */\n    tag_38:\n        /* \"Fall-2023/09_FixedByteArray.sol\":1472:1476  uint */\n      0x00\n        /* \"Fall-2023/09_FixedByteArray.sol\":1495:1497  b1 */\n      dup1\n      0x00\n      swap1\n      sload\n      swap1\n      0x0100\n      exp\n      swap1\n      pop\n      pop\n        /* \"Fall-2023/09_FixedByteArray.sol\":1495:1504  b1.length */\n      0x01\n        /* \"Fall-2023/09_FixedByteArray.sol\":1488:1504  return b1.length */\n      0xff\n      and\n      swap1\n      pop\n        /* \"Fall-2023/09_FixedByteArray.sol\":1429:1512  function getB1Length() public view returns(uint){... */\n      swap1\n      jump\t// out\n        /* \"Fall-2023/09_FixedByteArray.sol\":856:924  function setValueB2(bytes2 _b2) public {... */\n    tag_43:\n        /* \"Fall-2023/09_FixedByteArray.sol\":911:914  _b2 */\n      dup1\n        /* \"Fall-2023/09_FixedByteArray.sol\":906:908  b2 */\n      0x00\n      0x01\n        /* \"Fall-2023/09_FixedByteArray.sol\":906:914  b2 = _b2 */\n      0x0100\n      exp\n      dup2\n      sload\n      dup2\n      0xffff\n      mul\n      not\n      and\n      swap1\n      dup4\n      0xf0\n      shr\n      mul\n      or\n      swap1\n      sstore\n      pop\n        /* \"Fall-2023/09_FixedByteArray.sol\":856:924  function setValueB2(bytes2 _b2) public {... */\n      pop\n      jump\t// out\n        /* \"#utility.yul\":88:205   */\n    tag_58:\n        /* \"#utility.yul\":197:198   */\n      0x00\n        /* \"#utility.yul\":194:195   */\n      dup1\n        /* \"#utility.yul\":187:199   */\n      revert\n        /* \"#utility.yul\":334:411   */\n    tag_60:\n        /* \"#utility.yul\":371:378   */\n      0x00\n        /* \"#utility.yul\":400:405   */\n      dup2\n        /* \"#utility.yul\":389:405   */\n      swap1\n      pop\n        /* \"#utility.yul\":334:411   */\n      swap2\n      swap1\n      pop\n      jump\t// out\n        /* \"#utility.yul\":417:539   */\n    tag_61:\n        /* \"#utility.yul\":490:514   */\n      tag_78\n        /* \"#utility.yul\":508:513   */\n      dup2\n        /* \"#utility.yul\":490:514   */\n      tag_60\n      jump\t// in\n    tag_78:\n        /* \"#utility.yul\":483:488   */\n      dup2\n        /* \"#utility.yul\":480:515   */\n      eq\n        /* \"#utility.yul\":470:533   */\n      tag_79\n      jumpi\n        /* \"#utility.yul\":529:530   */\n      0x00\n        /* \"#utility.yul\":526:527   */\n      dup1\n        /* \"#utility.yul\":519:531   */\n      revert\n        /* \"#utility.yul\":470:533   */\n    tag_79:\n        /* \"#utility.yul\":417:539   */\n      pop\n      jump\t// out\n        /* \"#utility.yul\":545:684   */\n    tag_62:\n        /* \"#utility.yul\":591:596   */\n      0x00\n        /* \"#utility.yul\":629:635   */\n      dup2\n        /* \"#utility.yul\":616:636   */\n      calldataload\n        /* \"#utility.yul\":607:636   */\n      swap1\n      pop\n        /* \"#utility.yul\":645:678   */\n      tag_81\n        /* \"#utility.yul\":672:677   */\n      dup2\n        /* \"#utility.yul\":645:678   */\n      tag_61\n      jump\t// in\n    tag_81:\n        /* \"#utility.yul\":545:684   */\n      swap3\n      swap2\n      pop\n      pop\n      jump\t// out\n        /* \"#utility.yul\":690:1019   */\n    tag_14:\n        /* \"#utility.yul\":749:755   */\n      0x00\n        /* \"#utility.yul\":798:800   */\n      0x20\n        /* \"#utility.yul\":786:795   */\n      dup3\n        /* \"#utility.yul\":777:784   */\n      dup5\n        /* \"#utility.yul\":773:796   */\n      sub\n        /* \"#utility.yul\":769:801   */\n      slt\n        /* \"#utility.yul\":766:885   */\n      iszero\n      tag_83\n      jumpi\n        /* \"#utility.yul\":804:883   */\n      tag_84\n      tag_58\n      jump\t// in\n    tag_84:\n        /* \"#utility.yul\":766:885   */\n    tag_83:\n        /* \"#utility.yul\":924:925   */\n      0x00\n        /* \"#utility.yul\":949:1002   */\n      tag_85\n        /* \"#utility.yul\":994:1001   */\n      dup5\n        /* \"#utility.yul\":985:991   */\n      dup3\n        /* \"#utility.yul\":974:983   */\n      dup6\n        /* \"#utility.yul\":970:992   */\n      add\n        /* \"#utility.yul\":949:1002   */\n      tag_62\n      jump\t// in\n    tag_85:\n        /* \"#utility.yul\":939:1002   */\n      swap2\n      pop\n        /* \"#utility.yul\":895:1012   */\n      pop\n        /* \"#utility.yul\":690:1019   */\n      swap3\n      swap2\n      pop\n      pop\n      jump\t// out\n        /* \"#utility.yul\":1025:1174   */\n    tag_63:\n        /* \"#utility.yul\":1061:1068   */\n      0x00\n        /* \"#utility.yul\":1101:1167   */\n      0xff00000000000000000000000000000000000000000000000000000000000000\n        /* \"#utility.yul\":1094:1099   */\n      dup3\n        /* \"#utility.yul\":1090:1168   */\n      and\n        /* \"#utility.yul\":1079:1168   */\n      swap1\n      pop\n        /* \"#utility.yul\":1025:1174   */\n      swap2\n      swap1\n      pop\n      jump\t// out\n        /* \"#utility.yul\":1180:1295   */\n    tag_64:\n        /* \"#utility.yul\":1265:1288   */\n      tag_88\n        /* \"#utility.yul\":1282:1287   */\n      dup2\n        /* \"#utility.yul\":1265:1288   */\n      tag_63\n      jump\t// in\n    tag_88:\n        /* \"#utility.yul\":1260:1263   */\n      dup3\n        /* \"#utility.yul\":1253:1289   */\n      mstore\n        /* \"#utility.yul\":1180:1295   */\n      pop\n      pop\n      jump\t// out\n        /* \"#utility.yul\":1301:1519   */\n    tag_17:\n        /* \"#utility.yul\":1392:1396   */\n      0x00\n        /* \"#utility.yul\":1430:1432   */\n      0x20\n        /* \"#utility.yul\":1419:1428   */\n      dup3\n        /* \"#utility.yul\":1415:1433   */\n      add\n        /* \"#utility.yul\":1407:1433   */\n      swap1\n      pop\n        /* \"#utility.yul\":1443:1512   */\n      tag_90\n        /* \"#utility.yul\":1509:1510   */\n      0x00\n        /* \"#utility.yul\":1498:1507   */\n      dup4\n        /* \"#utility.yul\":1494:1511   */\n      add\n        /* \"#utility.yul\":1485:1491   */\n      dup5\n        /* \"#utility.yul\":1443:1512   */\n      tag_64\n      jump\t// in\n    tag_90:\n        /* \"#utility.yul\":1301:1519   */\n      swap3\n      swap2\n      pop\n      pop\n      jump\t// out\n        /* \"#utility.yul\":1525:1674   */\n    tag_65:\n        /* \"#utility.yul\":1561:1568   */\n      0x00\n        /* \"#utility.yul\":1601:1667   */\n      0xffff000000000000000000000000000000000000000000000000000000000000\n        /* \"#utility.yul\":1594:1599   */\n      dup3\n        /* \"#utility.yul\":1590:1668   */\n      and\n        /* \"#utility.yul\":1579:1668   */\n      swap1\n      pop\n        /* \"#utility.yul\":1525:1674   */\n      swap2\n      swap1\n      pop\n      jump\t// out\n        /* \"#utility.yul\":1680:1795   */\n    tag_66:\n        /* \"#utility.yul\":1765:1788   */\n      tag_93\n        /* \"#utility.yul\":1782:1787   */\n      dup2\n        /* \"#utility.yul\":1765:1788   */\n      tag_65\n      jump\t// in\n    tag_93:\n        /* \"#utility.yul\":1760:1763   */\n      dup3\n        /* \"#utility.yul\":1753:1789   */\n      mstore\n        /* \"#utility.yul\":1680:1795   */\n      pop\n      pop\n      jump\t// out\n        /* \"#utility.yul\":1801:2019   */\n    tag_25:\n        /* \"#utility.yul\":1892:1896   */\n      0x00\n        /* \"#utility.yul\":1930:1932   */\n      0x20\n        /* \"#utility.yul\":1919:1928   */\n      dup3\n        /* \"#utility.yul\":1915:1933   */\n      add\n        /* \"#utility.yul\":1907:1933   */\n      swap1\n      pop\n        /* \"#utility.yul\":1943:2012   */\n      tag_95\n        /* \"#utility.yul\":2009:2010   */\n      0x00\n        /* \"#utility.yul\":1998:2007   */\n      dup4\n        /* \"#utility.yul\":1994:2011   */\n      add\n        /* \"#utility.yul\":1985:1991   */\n      dup5\n        /* \"#utility.yul\":1943:2012   */\n      tag_66\n      jump\t// in\n    tag_95:\n        /* \"#utility.yul\":1801:2019   */\n      swap3\n      swap2\n      pop\n      pop\n      jump\t// out\n        /* \"#utility.yul\":2025:2143   */\n    tag_67:\n        /* \"#utility.yul\":2112:2136   */\n      tag_97\n        /* \"#utility.yul\":2130:2135   */\n      dup2\n        /* \"#utility.yul\":2112:2136   */\n      tag_60\n      jump\t// in\n    tag_97:\n        /* \"#utility.yul\":2107:2110   */\n      dup3\n        /* \"#utility.yul\":2100:2137   */\n      mstore\n        /* \"#utility.yul\":2025:2143   */\n      pop\n      pop\n      jump\t// out\n        /* \"#utility.yul\":2149:2371   */\n    tag_32:\n        /* \"#utility.yul\":2242:2246   */\n      0x00\n        /* \"#utility.yul\":2280:2282   */\n      0x20\n        /* \"#utility.yul\":2269:2278   */\n      dup3\n        /* \"#utility.yul\":2265:2283   */\n      add\n        /* \"#utility.yul\":2257:2283   */\n      swap1\n      pop\n        /* \"#utility.yul\":2293:2364   */\n      tag_99\n        /* \"#utility.yul\":2361:2362   */\n      0x00\n        /* \"#utility.yul\":2350:2359   */\n      dup4\n        /* \"#utility.yul\":2346:2363   */\n      add\n        /* \"#utility.yul\":2337:2343   */\n      dup5\n        /* \"#utility.yul\":2293:2364   */\n      tag_67\n      jump\t// in\n    tag_99:\n        /* \"#utility.yul\":2149:2371   */\n      swap3\n      swap2\n      pop\n      pop\n      jump\t// out\n        /* \"#utility.yul\":2377:2497   */\n    tag_68:\n        /* \"#utility.yul\":2449:2472   */\n      tag_101\n        /* \"#utility.yul\":2466:2471   */\n      dup2\n        /* \"#utility.yul\":2449:2472   */\n      tag_63\n      jump\t// in\n    tag_101:\n        /* \"#utility.yul\":2442:2447   */\n      dup2\n        /* \"#utility.yul\":2439:2473   */\n      eq\n        /* \"#utility.yul\":2429:2491   */\n      tag_102\n      jumpi\n        /* \"#utility.yul\":2487:2488   */\n      0x00\n        /* \"#utility.yul\":2484:2485   */\n      dup1\n        /* \"#utility.yul\":2477:2489   */\n      revert\n        /* \"#utility.yul\":2429:2491   */\n    tag_102:\n        /* \"#utility.yul\":2377:2497   */\n      pop\n      jump\t// out\n        /* \"#utility.yul\":2503:2640   */\n    tag_69:\n        /* \"#utility.yul\":2548:2553   */\n      0x00\n        /* \"#utility.yul\":2586:2592   */\n      dup2\n        /* \"#utility.yul\":2573:2593   */\n      calldataload\n        /* \"#utility.yul\":2564:2593   */\n      swap1\n      pop\n        /* \"#utility.yul\":2602:2634   */\n      tag_104\n        /* \"#utility.yul\":2628:2633   */\n      dup2\n        /* \"#utility.yul\":2602:2634   */\n      tag_68\n      jump\t// in\n    tag_104:\n        /* \"#utility.yul\":2503:2640   */\n      swap3\n      swap2\n      pop\n      pop\n      jump\t// out\n        /* \"#utility.yul\":2646:2973   */\n    tag_35:\n        /* \"#utility.yul\":2704:2710   */\n      0x00\n        /* \"#utility.yul\":2753:2755   */\n      0x20\n        /* \"#utility.yul\":2741:2750   */\n      dup3\n        /* \"#utility.yul\":2732:2739   */\n      dup5\n        /* \"#utility.yul\":2728:2751   */\n      sub\n        /* \"#utility.yul\":2724:2756   */\n      slt\n        /* \"#utility.yul\":2721:2840   */\n      iszero\n      tag_106\n      jumpi\n        /* \"#utility.yul\":2759:2838   */\n      tag_107\n      tag_58\n      jump\t// in\n    tag_107:\n        /* \"#utility.yul\":2721:2840   */\n    tag_106:\n        /* \"#utility.yul\":2879:2880   */\n      0x00\n        /* \"#utility.yul\":2904:2956   */\n      tag_108\n        /* \"#utility.yul\":2948:2955   */\n      dup5\n        /* \"#utility.yul\":2939:2945   */\n      dup3\n        /* \"#utility.yul\":2928:2937   */\n      dup6\n        /* \"#utility.yul\":2924:2946   */\n      add\n        /* \"#utility.yul\":2904:2956   */\n      tag_69\n      jump\t// in\n    tag_108:\n        /* \"#utility.yul\":2894:2956   */\n      swap2\n      pop\n        /* \"#utility.yul\":2850:2966   */\n      pop\n        /* \"#utility.yul\":2646:2973   */\n      swap3\n      swap2\n      pop\n      pop\n      jump\t// out\n        /* \"#utility.yul\":2979:3099   */\n    tag_70:\n        /* \"#utility.yul\":3051:3074   */\n      tag_110\n        /* \"#utility.yul\":3068:3073   */\n      dup2\n        /* \"#utility.yul\":3051:3074   */\n      tag_65\n      jump\t// in\n    tag_110:\n        /* \"#utility.yul\":3044:3049   */\n      dup2\n        /* \"#utility.yul\":3041:3075   */\n      eq\n        /* \"#utility.yul\":3031:3093   */\n      tag_111\n      jumpi\n        /* \"#utility.yul\":3089:3090   */\n      0x00\n        /* \"#utility.yul\":3086:3087   */\n      dup1\n        /* \"#utility.yul\":3079:3091   */\n      revert\n        /* \"#utility.yul\":3031:3093   */\n    tag_111:\n        /* \"#utility.yul\":2979:3099   */\n      pop\n      jump\t// out\n        /* \"#utility.yul\":3105:3242   */\n    tag_71:\n        /* \"#utility.yul\":3150:3155   */\n      0x00\n        /* \"#utility.yul\":3188:3194   */\n      dup2\n        /* \"#utility.yul\":3175:3195   */\n      calldataload\n        /* \"#utility.yul\":3166:3195   */\n      swap1\n      pop\n        /* \"#utility.yul\":3204:3236   */\n      tag_113\n        /* \"#utility.yul\":3230:3235   */\n      dup2\n        /* \"#utility.yul\":3204:3236   */\n      tag_70\n      jump\t// in\n    tag_113:\n        /* \"#utility.yul\":3105:3242   */\n      swap3\n      swap2\n      pop\n      pop\n      jump\t// out\n        /* \"#utility.yul\":3248:3575   */\n    tag_42:\n        /* \"#utility.yul\":3306:3312   */\n      0x00\n        /* \"#utility.yul\":3355:3357   */\n      0x20\n        /* \"#utility.yul\":3343:3352   */\n      dup3\n        /* \"#utility.yul\":3334:3341   */\n      dup5\n        /* \"#utility.yul\":3330:3353   */\n      sub\n        /* \"#utility.yul\":3326:3358   */\n      slt\n        /* \"#utility.yul\":3323:3442   */\n      iszero\n      tag_115\n      jumpi\n        /* \"#utility.yul\":3361:3440   */\n      tag_116\n      tag_58\n      jump\t// in\n    tag_116:\n        /* \"#utility.yul\":3323:3442   */\n    tag_115:\n        /* \"#utility.yul\":3481:3482   */\n      0x00\n        /* \"#utility.yul\":3506:3558   */\n      tag_117\n        /* \"#utility.yul\":3550:3557   */\n      dup5\n        /* \"#utility.yul\":3541:3547   */\n      dup3\n        /* \"#utility.yul\":3530:3539   */\n      dup6\n        /* \"#utility.yul\":3526:3548   */\n      add\n        /* \"#utility.yul\":3506:3558   */\n      tag_71\n      jump\t// in\n    tag_117:\n        /* \"#utility.yul\":3496:3558   */\n      swap2\n      pop\n        /* \"#utility.yul\":3452:3568   */\n      pop\n        /* \"#utility.yul\":3248:3575   */\n      swap3\n      swap2\n      pop\n      pop\n      jump\t// out\n        /* \"#utility.yul\":3581:3761   */\n    tag_47:\n        /* \"#utility.yul\":3629:3706   */\n      0x4e487b7100000000000000000000000000000000000000000000000000000000\n        /* \"#utility.yul\":3626:3627   */\n      0x00\n        /* \"#utility.yul\":3619:3707   */\n      mstore\n        /* \"#utility.yul\":3726:3730   */\n      0x32\n        /* \"#utility.yul\":3723:3724   */\n      0x04\n        /* \"#utility.yul\":3716:3731   */\n      mstore\n        /* \"#utility.yul\":3750:3754   */\n      0x24\n        /* \"#utility.yul\":3747:3748   */\n      0x00\n        /* \"#utility.yul\":3740:3755   */\n      revert\n\n    auxdata: 0xa2646970667358221220db646332879007e4edf907c221b1afa1e987e587a37fbfec5d8eb0eb9944211864736f6c63430008120033\n}\n",
				"bytecode": {
					"linkReferences": {},
					"object": "60806040527f41000000000000000000000000000000000000000000000000000000000000006000806101000a81548160ff021916908360f81c02179055507f4100000000000000000000000000000000000000000000000000000000000000600060016101000a81548161ffff021916908360f01c021790555034801561008657600080fd5b506104e8806100966000396000f3fe608060405234801561001057600080fd5b50600436106100885760003560e01c80634520e9221161005b5780634520e922146101295780636f10d4de14610147578063d6f1822914610163578063e67ebfce1461018157610088565b80631506d7b31461008d578063230807d7146100bd57806339246290146100ed5780633f4e5ab91461010b575b600080fd5b6100a760048036038101906100a291906102ce565b61019d565b6040516100b49190610336565b60405180910390f35b6100d760048036038101906100d291906102ce565b6101cb565b6040516100e49190610336565b60405180910390f35b6100f56101f9565b604051610102919061038c565b60405180910390f35b61011361020f565b6040516101209190610336565b60405180910390f35b610131610225565b60405161013e91906103b6565b60405180910390f35b610161600480360381019061015c91906103fd565b61023e565b005b61016b61025b565b60405161017891906103b6565b60405180910390f35b61019b60048036038101906101969190610456565b610274565b005b60008060009054906101000a900460f81b82600181106101c0576101bf610483565b5b1a60f81b9050919050565b60008060019054906101000a900460f01b82600281106101ee576101ed610483565b5b1a60f81b9050919050565b60008060019054906101000a900460f01b905090565b60008060009054906101000a900460f81b905090565b60008060019054906101000a905050600260ff16905090565b806000806101000a81548160ff021916908360f81c021790555050565b60008060009054906101000a905050600160ff16905090565b80600060016101000a81548161ffff021916908360f01c021790555050565b600080fd5b6000819050919050565b6102ab81610298565b81146102b657600080fd5b50565b6000813590506102c8816102a2565b92915050565b6000602082840312156102e4576102e3610293565b5b60006102f2848285016102b9565b91505092915050565b60007fff0000000000000000000000000000000000000000000000000000000000000082169050919050565b610330816102fb565b82525050565b600060208201905061034b6000830184610327565b92915050565b60007fffff00000000000000000000000000000000000000000000000000000000000082169050919050565b61038681610351565b82525050565b60006020820190506103a1600083018461037d565b92915050565b6103b081610298565b82525050565b60006020820190506103cb60008301846103a7565b92915050565b6103da816102fb565b81146103e557600080fd5b50565b6000813590506103f7816103d1565b92915050565b60006020828403121561041357610412610293565b5b6000610421848285016103e8565b91505092915050565b61043381610351565b811461043e57600080fd5b50565b6000813590506104508161042a565b92915050565b60006020828403121561046c5761046b610293565b5b600061047a84828501610441565b91505092915050565b7f4e487b7100000000000000000000000000000000000000000000000000000000600052603260045260246000fdfea2646970667358221220db646332879007e4edf907c221b1afa1e987e587a37fbfec5d8eb0eb9944211864736f6c63430008120033",
					"opcodes": "PUSH1 0x80 PUSH1 0x40 MSTORE PUSH32 0x4100000000000000000000000000000000000000000000000000000000000000 PUSH1 0x0 DUP1 PUSH2 0x100 EXP DUP2 SLOAD DUP2 PUSH1 0xFF MUL NOT AND SWAP1 DUP4 PUSH1 0xF8 SHR MUL OR SWAP1 SSTORE POP PUSH32 0x4100000000000000000000000000000000000000000000000000000000000000 PUSH1 0x0 PUSH1 0x1 PUSH2 0x100 EXP DUP2 SLOAD DUP2 PUSH2 0xFFFF MUL NOT AND SWAP1 DUP4 PUSH1 0xF0 SHR MUL OR SWAP1 SSTORE POP CALLVALUE DUP1 ISZERO PUSH2 0x86 JUMPI PUSH1 0x0 DUP1 REVERT JUMPDEST POP PUSH2 0x4E8 DUP1 PUSH2 0x96 PUSH1 0x0 CODECOPY PUSH1 0x0 RETURN INVALID PUSH1 0x80 PUSH1 0x40 MSTORE CALLVALUE DUP1 ISZERO PUSH2 0x10 JUMPI PUSH1 0x0 DUP1 REVERT JUMPDEST POP PUSH1 0x4 CALLDATASIZE LT PUSH2 0x88 JUMPI PUSH1 0x0 CALLDATALOAD PUSH1 0xE0 SHR DUP1 PUSH4 0x4520E922 GT PUSH2 0x5B JUMPI DUP1 PUSH4 0x4520E922 EQ PUSH2 0x129 JUMPI DUP1 PUSH4 0x6F10D4DE EQ PUSH2 0x147 JUMPI DUP1 PUSH4 0xD6F18229 EQ PUSH2 0x163 JUMPI DUP1 PUSH4 0xE67EBFCE EQ PUSH2 0x181 JUMPI PUSH2 0x88 JUMP JUMPDEST DUP1 PUSH4 0x1506D7B3 EQ PUSH2 0x8D JUMPI DUP1 PUSH4 0x230807D7 EQ PUSH2 0xBD JUMPI DUP1 PUSH4 0x39246290 EQ PUSH2 0xED JUMPI DUP1 PUSH4 0x3F4E5AB9 EQ PUSH2 0x10B JUMPI JUMPDEST PUSH1 0x0 DUP1 REVERT JUMPDEST PUSH2 0xA7 PUSH1 0x4 DUP1 CALLDATASIZE SUB DUP2 ADD SWAP1 PUSH2 0xA2 SWAP2 SWAP1 PUSH2 0x2CE JUMP JUMPDEST PUSH2 0x19D JUMP JUMPDEST PUSH1 0x40 MLOAD PUSH2 0xB4 SWAP2 SWAP1 PUSH2 0x336 JUMP JUMPDEST PUSH1 0x40 MLOAD DUP1 SWAP2 SUB SWAP1 RETURN JUMPDEST PUSH2 0xD7 PUSH1 0x4 DUP1 CALLDATASIZE SUB DUP2 ADD SWAP1 PUSH2 0xD2 SWAP2 SWAP1 PUSH2 0x2CE JUMP JUMPDEST PUSH2 0x1CB JUMP JUMPDEST PUSH1 0x40 MLOAD PUSH2 0xE4 SWAP2 SWAP1 PUSH2 0x336 JUMP JUMPDEST PUSH1 0x40 MLOAD DUP1 SWAP2 SUB SWAP1 RETURN JUMPDEST PUSH2 0xF5 PUSH2 0x1F9 JUMP JUMPDEST PUSH1 0x40 MLOAD PUSH2 0x102 SWAP2 SWAP1 PUSH2 0x38C JUMP JUMPDEST PUSH1 0x40 MLOAD DUP1 SWAP2 SUB SWAP1 RETURN JUMPDEST PUSH2 0x113 PUSH2 0x20F JUMP JUMPDEST PUSH1 0x40 MLOAD PUSH2 0x120 SWAP2 SWAP1 PUSH2 0x336 JUMP JUMPDEST PUSH1 0x40 MLOAD DUP1 SWAP2 SUB SWAP1 RETURN JUMPDEST PUSH2 0x131 PUSH2 0x225 JUMP JUMPDEST PUSH1 0x40 MLOAD PUSH2 0x13E SWAP2 SWAP1 PUSH2 0x3B6 JUMP JUMPDEST PUSH1 0x40 MLOAD DUP1 SWAP2 SUB SWAP1 RETURN JUMPDEST PUSH2 0x161 PUSH1 0x4 DUP1 CALLDATASIZE SUB DUP2 ADD SWAP1 PUSH2 0x15C SWAP2 SWAP1 PUSH2 0x3FD JUMP JUMPDEST PUSH2 0x23E JUMP JUMPDEST STOP JUMPDEST PUSH2 0x16B PUSH2 0x25B JUMP JUMPDEST PUSH1 0x40 MLOAD PUSH2 0x178 SWAP2 SWAP1 PUSH2 0x3B6 JUMP JUMPDEST PUSH1 0x40 MLOAD DUP1 SWAP2 SUB SWAP1 RETURN JUMPDEST PUSH2 0x19B PUSH1 0x4 DUP1 CALLDATASIZE SUB DUP2 ADD SWAP1 PUSH2 0x196 SWAP2 SWAP1 PUSH2 0x456 JUMP JUMPDEST PUSH2 0x274 JUMP JUMPDEST STOP JUMPDEST PUSH1 0x0 DUP1 PUSH1 0x0 SWAP1 SLOAD SWAP1 PUSH2 0x100 EXP SWAP1 DIV PUSH1 0xF8 SHL DUP3 PUSH1 0x1 DUP2 LT PUSH2 0x1C0 JUMPI PUSH2 0x1BF PUSH2 0x483 JUMP JUMPDEST JUMPDEST BYTE PUSH1 0xF8 SHL SWAP1 POP SWAP2 SWAP1 POP JUMP JUMPDEST PUSH1 0x0 DUP1 PUSH1 0x1 SWAP1 SLOAD SWAP1 PUSH2 0x100 EXP SWAP1 DIV PUSH1 0xF0 SHL DUP3 PUSH1 0x2 DUP2 LT PUSH2 0x1EE JUMPI PUSH2 0x1ED PUSH2 0x483 JUMP JUMPDEST JUMPDEST BYTE PUSH1 0xF8 SHL SWAP1 POP SWAP2 SWAP1 POP JUMP JUMPDEST PUSH1 0x0 DUP1 PUSH1 0x1 SWAP1 SLOAD SWAP1 PUSH2 0x100 EXP SWAP1 DIV PUSH1 0xF0 SHL SWAP1 POP SWAP1 JUMP JUMPDEST PUSH1 0x0 DUP1 PUSH1 0x0 SWAP1 SLOAD SWAP1 PUSH2 0x100 EXP SWAP1 DIV PUSH1 0xF8 SHL SWAP1 POP SWAP1 JUMP JUMPDEST PUSH1 0x0 DUP1 PUSH1 0x1 SWAP1 SLOAD SWAP1 PUSH2 0x100 EXP SWAP1 POP POP PUSH1 0x2 PUSH1 0xFF AND SWAP1 POP SWAP1 JUMP JUMPDEST DUP1 PUSH1 0x0 DUP1 PUSH2 0x100 EXP DUP2 SLOAD DUP2 PUSH1 0xFF MUL NOT AND SWAP1 DUP4 PUSH1 0xF8 SHR MUL OR SWAP1 SSTORE POP POP JUMP JUMPDEST PUSH1 0x0 DUP1 PUSH1 0x0 SWAP1 SLOAD SWAP1 PUSH2 0x100 EXP SWAP1 POP POP PUSH1 0x1 PUSH1 0xFF AND SWAP1 POP SWAP1 JUMP JUMPDEST DUP1 PUSH1 0x0 PUSH1 0x1 PUSH2 0x100 EXP DUP2 SLOAD DUP2 PUSH2 0xFFFF MUL NOT AND SWAP1 DUP4 PUSH1 0xF0 SHR MUL OR SWAP1 SSTORE POP POP JUMP JUMPDEST PUSH1 0x0 DUP1 REVERT JUMPDEST PUSH1 0x0 DUP2 SWAP1 POP SWAP2 SWAP1 POP JUMP JUMPDEST PUSH2 0x2AB DUP2 PUSH2 0x298 JUMP JUMPDEST DUP2 EQ PUSH2 0x2B6 JUMPI PUSH1 0x0 DUP1 REVERT JUMPDEST POP JUMP JUMPDEST PUSH1 0x0 DUP2 CALLDATALOAD SWAP1 POP PUSH2 0x2C8 DUP2 PUSH2 0x2A2 JUMP JUMPDEST SWAP3 SWAP2 POP POP JUMP JUMPDEST PUSH1 0x0 PUSH1 0x20 DUP3 DUP5 SUB SLT ISZERO PUSH2 0x2E4 JUMPI PUSH2 0x2E3 PUSH2 0x293 JUMP JUMPDEST JUMPDEST PUSH1 0x0 PUSH2 0x2F2 DUP5 DUP3 DUP6 ADD PUSH2 0x2B9 JUMP JUMPDEST SWAP2 POP POP SWAP3 SWAP2 POP POP JUMP JUMPDEST PUSH1 0x0 PUSH32 0xFF00000000000000000000000000000000000000000000000000000000000000 DUP3 AND SWAP1 POP SWAP2 SWAP1 POP JUMP JUMPDEST PUSH2 0x330 DUP2 PUSH2 0x2FB JUMP JUMPDEST DUP3 MSTORE POP POP JUMP JUMPDEST PUSH1 0x0 PUSH1 0x20 DUP3 ADD SWAP1 POP PUSH2 0x34B PUSH1 0x0 DUP4 ADD DUP5 PUSH2 0x327 JUMP JUMPDEST SWAP3 SWAP2 POP POP JUMP JUMPDEST PUSH1 0x0 PUSH32 0xFFFF000000000000000000000000000000000000000000000000000000000000 DUP3 AND SWAP1 POP SWAP2 SWAP1 POP JUMP JUMPDEST PUSH2 0x386 DUP2 PUSH2 0x351 JUMP JUMPDEST DUP3 MSTORE POP POP JUMP JUMPDEST PUSH1 0x0 PUSH1 0x20 DUP3 ADD SWAP1 POP PUSH2 0x3A1 PUSH1 0x0 DUP4 ADD DUP5 PUSH2 0x37D JUMP JUMPDEST SWAP3 SWAP2 POP POP JUMP JUMPDEST PUSH2 0x3B0 DUP2 PUSH2 0x298 JUMP JUMPDEST DUP3 MSTORE POP POP JUMP JUMPDEST PUSH1 0x0 PUSH1 0x20 DUP3 ADD SWAP1 POP PUSH2 0x3CB PUSH1 0x0 DUP4 ADD DUP5 PUSH2 0x3A7 JUMP JUMPDEST SWAP3 SWAP2 POP POP JUMP JUMPDEST PUSH2 0x3DA DUP2 PUSH2 0x2FB JUMP JUMPDEST DUP2 EQ PUSH2 0x3E5 JUMPI PUSH1 0x0 DUP1 REVERT JUMPDEST POP JUMP JUMPDEST PUSH1 0x0 DUP2 CALLDATALOAD SWAP1 POP PUSH2 0x3F7 DUP2 PUSH2 0x3D1 JUMP JUMPDEST SWAP3 SWAP2 POP POP JUMP JUMPDEST PUSH1 0x0 PUSH1 0x20 DUP3 DUP5 SUB SLT ISZERO PUSH2 0x413 JUMPI PUSH2 0x412 PUSH2 0x293 JUMP JUMPDEST JUMPDEST PUSH1 0x0 PUSH2 0x421 DUP5 DUP3 DUP6 ADD PUSH2 0x3E8 JUMP JUMPDEST SWAP2 POP POP SWAP3 SWAP2 POP POP JUMP JUMPDEST PUSH2 0x433 DUP2 PUSH2 0x351 JUMP JUMPDEST DUP2 EQ PUSH2 0x43E JUMPI PUSH1 0x0 DUP1 REVERT JUMPDEST POP JUMP JUMPDEST PUSH1 0x0 DUP2 CALLDATALOAD SWAP1 POP PUSH2 0x450 DUP2 PUSH2 0x42A JUMP JUMPDEST SWAP3 SWAP2 POP POP JUMP JUMPDEST PUSH1 0x0 PUSH1 0x20 DUP3 DUP5 SUB SLT ISZERO PUSH2 0x46C JUMPI PUSH2 0x46B PUSH2 0x293 JUMP JUMPDEST JUMPDEST PUSH1 0x0 PUSH2 0x47A DUP5 DUP3 DUP6 ADD PUSH2 0x441 JUMP JUMPDEST SWAP2 POP POP SWAP3 SWAP2 POP POP JUMP JUMPDEST PUSH32 0x4E487B7100000000000000000000000000000000000000000000000000000000 PUSH1 0x0 MSTORE PUSH1 0x32 PUSH1 0x4 MSTORE PUSH1 0x24 PUSH1 0x0 REVERT INVALID LOG2 PUSH5 0x6970667358 0x22 SLT KECCAK256 0xDB PUSH5 0x6332879007 0xE4 0xED 0xF9 SMOD 0xC2 0x21 0xB1 0xAF LOG1 0xE9 DUP8 0xE5 DUP8 LOG3 PUSH32 0xBFEC5D8EB0EB9944211864736F6C634300081200330000000000000000000000 "
				},
				"gasEstimates": {
					"creation": {
						"codeDepositCost": "251200",
						"executionCost": "48878",
						"totalCost": "300078"
					},
					"external": {
						"getB1()": "2546",
						"getB1At(uint256)": "2780",
						"getB1Length()": "2519",
						"getB2()": "2574",
						"getB2At(uint256)": "2852",
						"getB2Length()": "2525",
						"setValueB1(bytes1)": "24701",
						"setValueB2(bytes2)": "24795"
					}
				},
				"methodIdentifiers": {
					"getB1()": "3f4e5ab9",
					"getB1At(uint256)": "1506d7b3",
					"getB1Length()": "d6f18229",
					"getB2()": "39246290",
					"getB2At(uint256)": "230807d7",
					"getB2Length()": "4520e922",
					"setValueB1(bytes1)": "6f10d4de",
					"setValueB2(bytes2)": "e67ebfce"
				}
			},
			"storageLayout": {
				"storage": [
					{
						"astId": 4,
						"contract": "Fall-2023/09_FixedByteArray.sol:FixedByteArray",
						"label": "b1",
						"offset": 0,
						"slot": "0",
						"type": "t_bytes1"
					},
					{
						"astId": 7,
						"contract": "Fall-2023/09_FixedByteArray.sol:FixedByteArray",
						"label": "b2",
						"offset": 1,
						"slot": "0",
						"type": "t_bytes2"
					}
				],
				"types": {
					"t_bytes1": {
						"encoding": "inplace",
						"label": "bytes1",
						"numberOfBytes": "1"
					},
					"t_bytes2": {
						"encoding": "inplace",
						"label": "bytes2",
						"numberOfBytes": "2"
					}
				}
			},
			"userdoc": {
				"kind": "user",
				"methods": {},
				"version": 1
			}
		}
	}
}