{
	"Fall-2023/11_ByteArray_Bytes1.sol": {
		"ByteArray": {
			"abi": [
				{
					"inputs": [],
					"name": "getDynamicLength",
					"outputs": [
						{
							"internalType": "uint256",
							"name": "",
							"type": "uint256"
						}
					],
					"stateMutability": "view",
					"type": "function"
				},
				{
					"inputs": [],
					"name": "getStaticLength",
					"outputs": [
						{
							"internalType": "uint256",
							"name": "",
							"type": "uint256"
						}
					],
					"stateMutability": "view",
					"type": "function"
				},
				{
					"inputs": [
						{
							"internalType": "uint256",
							"name": "index",
							"type": "uint256"
						}
					],
					"name": "getValueDynamic",
					"outputs": [
						{
							"internalType": "bytes1",
							"name": "",
							"type": "bytes1"
						}
					],
					"stateMutability": "view",
					"type": "function"
				},
				{
					"inputs": [
						{
							"internalType": "uint256",
							"name": "index",
							"type": "uint256"
						}
					],
					"name": "getValueStatic",
					"outputs": [
						{
							"internalType": "bytes1",
							"name": "",
							"type": "bytes1"
						}
					],
					"stateMutability": "view",
					"type": "function"
				},
				{
					"inputs": [
						{
							"internalType": "bytes1",
							"name": "_b1",
							"type": "bytes1"
						}
					],
					"name": "setValueDynamic",
					"outputs": [],
					"stateMutability": "nonpayable",
					"type": "function"
				},
				{
					"inputs": [
						{
							"internalType": "uint256",
							"name": "index",
							"type": "uint256"
						},
						{
							"internalType": "bytes1",
							"name": "_b1",
							"type": "bytes1"
						}
					],
					"name": "setValueStatic",
					"outputs": [],
					"stateMutability": "nonpayable",
					"type": "function"
				}
			],
			"devdoc": {
				"kind": "dev",
				"methods": {},
				"version": 1
			},
			"evm": {
				"assembly": "    /* \"Fall-2023/11_ByteArray_Bytes1.sol\":92:781  contract ByteArray... */\n  mstore(0x40, 0x80)\n  callvalue\n  dup1\n  iszero\n  tag_1\n  jumpi\n  0x00\n  dup1\n  revert\ntag_1:\n  pop\n  dataSize(sub_0)\n  dup1\n  dataOffset(sub_0)\n  0x00\n  codecopy\n  0x00\n  return\nstop\n\nsub_0: assembly {\n        /* \"Fall-2023/11_ByteArray_Bytes1.sol\":92:781  contract ByteArray... */\n      mstore(0x40, 0x80)\n      callvalue\n      dup1\n      iszero\n      tag_1\n      jumpi\n      0x00\n      dup1\n      revert\n    tag_1:\n      pop\n      jumpi(tag_2, lt(calldatasize, 0x04))\n      shr(0xe0, calldataload(0x00))\n      dup1\n      0x14d2360c\n      eq\n      tag_3\n      jumpi\n      dup1\n      0x1a5016c1\n      eq\n      tag_4\n      jumpi\n      dup1\n      0x6aaa2b7e\n      eq\n      tag_5\n      jumpi\n      dup1\n      0x8199140e\n      eq\n      tag_6\n      jumpi\n      dup1\n      0xc4b04d7c\n      eq\n      tag_7\n      jumpi\n      dup1\n      0xea27b65b\n      eq\n      tag_8\n      jumpi\n    tag_2:\n      0x00\n      dup1\n      revert\n        /* \"Fall-2023/11_ByteArray_Bytes1.sol\":380:472  function getStaticLength() public view returns(uint){... */\n    tag_3:\n      tag_9\n      tag_10\n      jump\t// in\n    tag_9:\n      mload(0x40)\n      tag_11\n      swap2\n      swap1\n      tag_12\n      jump\t// in\n    tag_11:\n      mload(0x40)\n      dup1\n      swap2\n      sub\n      swap1\n      return\n        /* \"Fall-2023/11_ByteArray_Bytes1.sol\":171:265  function setValueStatic(uint index, bytes1 _b1) public {... */\n    tag_4:\n      tag_13\n      0x04\n      dup1\n      calldatasize\n      sub\n      dup2\n      add\n      swap1\n      tag_14\n      swap2\n      swap1\n      tag_15\n      jump\t// in\n    tag_14:\n      tag_16\n      jump\t// in\n    tag_13:\n      stop\n        /* \"Fall-2023/11_ByteArray_Bytes1.sol\":271:374  function getValueStatic(uint index) public view returns(bytes1){... */\n    tag_5:\n      tag_17\n      0x04\n      dup1\n      calldatasize\n      sub\n      dup2\n      add\n      swap1\n      tag_18\n      swap2\n      swap1\n      tag_19\n      jump\t// in\n    tag_18:\n      tag_20\n      jump\t// in\n    tag_17:\n      mload(0x40)\n      tag_21\n      swap2\n      swap1\n      tag_22\n      jump\t// in\n    tag_21:\n      mload(0x40)\n      dup1\n      swap2\n      sub\n      swap1\n      return\n        /* \"Fall-2023/11_ByteArray_Bytes1.sol\":569:674  function getValueDynamic(uint index) public view returns(bytes1){... */\n    tag_6:\n      tag_23\n      0x04\n      dup1\n      calldatasize\n      sub\n      dup2\n      add\n      swap1\n      tag_24\n      swap2\n      swap1\n      tag_19\n      jump\t// in\n    tag_24:\n      tag_25\n      jump\t// in\n    tag_23:\n      mload(0x40)\n      tag_26\n      swap2\n      swap1\n      tag_22\n      jump\t// in\n    tag_26:\n      mload(0x40)\n      dup1\n      swap2\n      sub\n      swap1\n      return\n        /* \"Fall-2023/11_ByteArray_Bytes1.sol\":482:563  function setValueDynamic(bytes1 _b1) public {... */\n    tag_7:\n      tag_27\n      0x04\n      dup1\n      calldatasize\n      sub\n      dup2\n      add\n      swap1\n      tag_28\n      swap2\n      swap1\n      tag_29\n      jump\t// in\n    tag_28:\n      tag_30\n      jump\t// in\n    tag_27:\n      stop\n        /* \"Fall-2023/11_ByteArray_Bytes1.sol\":682:776  function getDynamicLength() public view returns(uint){... */\n    tag_8:\n      tag_31\n      tag_32\n      jump\t// in\n    tag_31:\n      mload(0x40)\n      tag_33\n      swap2\n      swap1\n      tag_12\n      jump\t// in\n    tag_33:\n      mload(0x40)\n      dup1\n      swap2\n      sub\n      swap1\n      return\n        /* \"Fall-2023/11_ByteArray_Bytes1.sol\":380:472  function getStaticLength() public view returns(uint){... */\n    tag_10:\n        /* \"Fall-2023/11_ByteArray_Bytes1.sol\":427:431  uint */\n      0x00\n        /* \"Fall-2023/11_ByteArray_Bytes1.sol\":450:464  bStatic.length */\n      0x03\n        /* \"Fall-2023/11_ByteArray_Bytes1.sol\":443:464  return bStatic.length */\n      swap1\n      pop\n        /* \"Fall-2023/11_ByteArray_Bytes1.sol\":380:472  function getStaticLength() public view returns(uint){... */\n      swap1\n      jump\t// out\n        /* \"Fall-2023/11_ByteArray_Bytes1.sol\":171:265  function setValueStatic(uint index, bytes1 _b1) public {... */\n    tag_16:\n        /* \"Fall-2023/11_ByteArray_Bytes1.sol\":254:257  _b1 */\n      dup1\n        /* \"Fall-2023/11_ByteArray_Bytes1.sol\":237:244  bStatic */\n      0x01\n        /* \"Fall-2023/11_ByteArray_Bytes1.sol\":245:250  index */\n      dup4\n        /* \"Fall-2023/11_ByteArray_Bytes1.sol\":237:251  bStatic[index] */\n      0x03\n      dup2\n      lt\n      tag_36\n      jumpi\n      tag_37\n      tag_38\n      jump\t// in\n    tag_37:\n    tag_36:\n      0x20\n      swap2\n      dup3\n      dup3\n      div\n      add\n      swap2\n      swap1\n      mod\n        /* \"Fall-2023/11_ByteArray_Bytes1.sol\":237:257  bStatic[index] = _b1 */\n      0x0100\n      exp\n      dup2\n      sload\n      dup2\n      0xff\n      mul\n      not\n      and\n      swap1\n      dup4\n      0xf8\n      shr\n      mul\n      or\n      swap1\n      sstore\n      pop\n        /* \"Fall-2023/11_ByteArray_Bytes1.sol\":171:265  function setValueStatic(uint index, bytes1 _b1) public {... */\n      pop\n      pop\n      jump\t// out\n        /* \"Fall-2023/11_ByteArray_Bytes1.sol\":271:374  function getValueStatic(uint index) public view returns(bytes1){... */\n    tag_20:\n        /* \"Fall-2023/11_ByteArray_Bytes1.sol\":327:333  bytes1 */\n      0x00\n        /* \"Fall-2023/11_ByteArray_Bytes1.sol\":352:359  bStatic */\n      0x01\n        /* \"Fall-2023/11_ByteArray_Bytes1.sol\":360:365  index */\n      dup3\n        /* \"Fall-2023/11_ByteArray_Bytes1.sol\":352:366  bStatic[index] */\n      0x03\n      dup2\n      lt\n      tag_41\n      jumpi\n      tag_42\n      tag_38\n      jump\t// in\n    tag_42:\n    tag_41:\n      0x20\n      swap2\n      dup3\n      dup3\n      div\n      add\n      swap2\n      swap1\n      mod\n      swap1\n      sload\n      swap1\n      0x0100\n      exp\n      swap1\n      div\n      0xf8\n      shl\n        /* \"Fall-2023/11_ByteArray_Bytes1.sol\":345:366  return bStatic[index] */\n      swap1\n      pop\n        /* \"Fall-2023/11_ByteArray_Bytes1.sol\":271:374  function getValueStatic(uint index) public view returns(bytes1){... */\n      swap2\n      swap1\n      pop\n      jump\t// out\n        /* \"Fall-2023/11_ByteArray_Bytes1.sol\":569:674  function getValueDynamic(uint index) public view returns(bytes1){... */\n    tag_25:\n        /* \"Fall-2023/11_ByteArray_Bytes1.sol\":626:632  bytes1 */\n      0x00\n        /* \"Fall-2023/11_ByteArray_Bytes1.sol\":651:659  bDynamic */\n      dup1\n        /* \"Fall-2023/11_ByteArray_Bytes1.sol\":660:665  index */\n      dup3\n        /* \"Fall-2023/11_ByteArray_Bytes1.sol\":651:666  bDynamic[index] */\n      dup2\n      sload\n      dup2\n      lt\n      tag_45\n      jumpi\n      tag_46\n      tag_38\n      jump\t// in\n    tag_46:\n    tag_45:\n      swap1\n      0x00\n      mstore\n      keccak256(0x00, 0x20)\n      swap1\n      0x20\n      swap2\n      dup3\n      dup3\n      div\n      add\n      swap2\n      swap1\n      mod\n      swap1\n      sload\n      swap1\n      0x0100\n      exp\n      swap1\n      div\n      0xf8\n      shl\n        /* \"Fall-2023/11_ByteArray_Bytes1.sol\":644:666  return bDynamic[index] */\n      swap1\n      pop\n        /* \"Fall-2023/11_ByteArray_Bytes1.sol\":569:674  function getValueDynamic(uint index) public view returns(bytes1){... */\n      swap2\n      swap1\n      pop\n      jump\t// out\n        /* \"Fall-2023/11_ByteArray_Bytes1.sol\":482:563  function setValueDynamic(bytes1 _b1) public {... */\n    tag_30:\n        /* \"Fall-2023/11_ByteArray_Bytes1.sol\":537:545  bDynamic */\n      0x00\n        /* \"Fall-2023/11_ByteArray_Bytes1.sol\":551:554  _b1 */\n      dup2\n        /* \"Fall-2023/11_ByteArray_Bytes1.sol\":537:555  bDynamic.push(_b1) */\n      swap1\n      dup1\n      0x01\n      dup2\n      sload\n      add\n      dup1\n      dup3\n      sstore\n      dup1\n      swap2\n      pop\n      pop\n      0x01\n      swap1\n      sub\n      swap1\n      0x00\n      mstore\n      keccak256(0x00, 0x20)\n      swap1\n      0x20\n      swap2\n      dup3\n      dup3\n      div\n      add\n      swap2\n      swap1\n      mod\n      swap1\n      swap2\n      swap1\n      swap2\n      swap1\n      swap2\n      0x0100\n      exp\n      dup2\n      sload\n      dup2\n      0xff\n      mul\n      not\n      and\n      swap1\n      dup4\n      0xf8\n      shr\n      mul\n      or\n      swap1\n      sstore\n      pop\n        /* \"Fall-2023/11_ByteArray_Bytes1.sol\":482:563  function setValueDynamic(bytes1 _b1) public {... */\n      pop\n      jump\t// out\n        /* \"Fall-2023/11_ByteArray_Bytes1.sol\":682:776  function getDynamicLength() public view returns(uint){... */\n    tag_32:\n        /* \"Fall-2023/11_ByteArray_Bytes1.sol\":730:734  uint */\n      0x00\n        /* \"Fall-2023/11_ByteArray_Bytes1.sol\":753:761  bDynamic */\n      dup1\n        /* \"Fall-2023/11_ByteArray_Bytes1.sol\":753:768  bDynamic.length */\n      dup1\n      sload\n      swap1\n      pop\n        /* \"Fall-2023/11_ByteArray_Bytes1.sol\":746:768  return bDynamic.length */\n      swap1\n      pop\n        /* \"Fall-2023/11_ByteArray_Bytes1.sol\":682:776  function getDynamicLength() public view returns(uint){... */\n      swap1\n      jump\t// out\n        /* \"#utility.yul\":7:84   */\n    tag_51:\n        /* \"#utility.yul\":44:51   */\n      0x00\n        /* \"#utility.yul\":73:78   */\n      dup2\n        /* \"#utility.yul\":62:78   */\n      swap1\n      pop\n        /* \"#utility.yul\":7:84   */\n      swap2\n      swap1\n      pop\n      jump\t// out\n        /* \"#utility.yul\":90:208   */\n    tag_52:\n        /* \"#utility.yul\":177:201   */\n      tag_65\n        /* \"#utility.yul\":195:200   */\n      dup2\n        /* \"#utility.yul\":177:201   */\n      tag_51\n      jump\t// in\n    tag_65:\n        /* \"#utility.yul\":172:175   */\n      dup3\n        /* \"#utility.yul\":165:202   */\n      mstore\n        /* \"#utility.yul\":90:208   */\n      pop\n      pop\n      jump\t// out\n        /* \"#utility.yul\":214:436   */\n    tag_12:\n        /* \"#utility.yul\":307:311   */\n      0x00\n        /* \"#utility.yul\":345:347   */\n      0x20\n        /* \"#utility.yul\":334:343   */\n      dup3\n        /* \"#utility.yul\":330:348   */\n      add\n        /* \"#utility.yul\":322:348   */\n      swap1\n      pop\n        /* \"#utility.yul\":358:429   */\n      tag_67\n        /* \"#utility.yul\":426:427   */\n      0x00\n        /* \"#utility.yul\":415:424   */\n      dup4\n        /* \"#utility.yul\":411:428   */\n      add\n        /* \"#utility.yul\":402:408   */\n      dup5\n        /* \"#utility.yul\":358:429   */\n      tag_52\n      jump\t// in\n    tag_67:\n        /* \"#utility.yul\":214:436   */\n      swap3\n      swap2\n      pop\n      pop\n      jump\t// out\n        /* \"#utility.yul\":523:640   */\n    tag_54:\n        /* \"#utility.yul\":632:633   */\n      0x00\n        /* \"#utility.yul\":629:630   */\n      dup1\n        /* \"#utility.yul\":622:634   */\n      revert\n        /* \"#utility.yul\":769:891   */\n    tag_56:\n        /* \"#utility.yul\":842:866   */\n      tag_72\n        /* \"#utility.yul\":860:865   */\n      dup2\n        /* \"#utility.yul\":842:866   */\n      tag_51\n      jump\t// in\n    tag_72:\n        /* \"#utility.yul\":835:840   */\n      dup2\n        /* \"#utility.yul\":832:867   */\n      eq\n        /* \"#utility.yul\":822:885   */\n      tag_73\n      jumpi\n        /* \"#utility.yul\":881:882   */\n      0x00\n        /* \"#utility.yul\":878:879   */\n      dup1\n        /* \"#utility.yul\":871:883   */\n      revert\n        /* \"#utility.yul\":822:885   */\n    tag_73:\n        /* \"#utility.yul\":769:891   */\n      pop\n      jump\t// out\n        /* \"#utility.yul\":897:1036   */\n    tag_57:\n        /* \"#utility.yul\":943:948   */\n      0x00\n        /* \"#utility.yul\":981:987   */\n      dup2\n        /* \"#utility.yul\":968:988   */\n      calldataload\n        /* \"#utility.yul\":959:988   */\n      swap1\n      pop\n        /* \"#utility.yul\":997:1030   */\n      tag_75\n        /* \"#utility.yul\":1024:1029   */\n      dup2\n        /* \"#utility.yul\":997:1030   */\n      tag_56\n      jump\t// in\n    tag_75:\n        /* \"#utility.yul\":897:1036   */\n      swap3\n      swap2\n      pop\n      pop\n      jump\t// out\n        /* \"#utility.yul\":1042:1191   */\n    tag_58:\n        /* \"#utility.yul\":1078:1085   */\n      0x00\n        /* \"#utility.yul\":1118:1184   */\n      0xff00000000000000000000000000000000000000000000000000000000000000\n        /* \"#utility.yul\":1111:1116   */\n      dup3\n        /* \"#utility.yul\":1107:1185   */\n      and\n        /* \"#utility.yul\":1096:1185   */\n      swap1\n      pop\n        /* \"#utility.yul\":1042:1191   */\n      swap2\n      swap1\n      pop\n      jump\t// out\n        /* \"#utility.yul\":1197:1317   */\n    tag_59:\n        /* \"#utility.yul\":1269:1292   */\n      tag_78\n        /* \"#utility.yul\":1286:1291   */\n      dup2\n        /* \"#utility.yul\":1269:1292   */\n      tag_58\n      jump\t// in\n    tag_78:\n        /* \"#utility.yul\":1262:1267   */\n      dup2\n        /* \"#utility.yul\":1259:1293   */\n      eq\n        /* \"#utility.yul\":1249:1311   */\n      tag_79\n      jumpi\n        /* \"#utility.yul\":1307:1308   */\n      0x00\n        /* \"#utility.yul\":1304:1305   */\n      dup1\n        /* \"#utility.yul\":1297:1309   */\n      revert\n        /* \"#utility.yul\":1249:1311   */\n    tag_79:\n        /* \"#utility.yul\":1197:1317   */\n      pop\n      jump\t// out\n        /* \"#utility.yul\":1323:1460   */\n    tag_60:\n        /* \"#utility.yul\":1368:1373   */\n      0x00\n        /* \"#utility.yul\":1406:1412   */\n      dup2\n        /* \"#utility.yul\":1393:1413   */\n      calldataload\n        /* \"#utility.yul\":1384:1413   */\n      swap1\n      pop\n        /* \"#utility.yul\":1422:1454   */\n      tag_81\n        /* \"#utility.yul\":1448:1453   */\n      dup2\n        /* \"#utility.yul\":1422:1454   */\n      tag_59\n      jump\t// in\n    tag_81:\n        /* \"#utility.yul\":1323:1460   */\n      swap3\n      swap2\n      pop\n      pop\n      jump\t// out\n        /* \"#utility.yul\":1466:1938   */\n    tag_15:\n        /* \"#utility.yul\":1533:1539   */\n      0x00\n        /* \"#utility.yul\":1541:1547   */\n      dup1\n        /* \"#utility.yul\":1590:1592   */\n      0x40\n        /* \"#utility.yul\":1578:1587   */\n      dup4\n        /* \"#utility.yul\":1569:1576   */\n      dup6\n        /* \"#utility.yul\":1565:1588   */\n      sub\n        /* \"#utility.yul\":1561:1593   */\n      slt\n        /* \"#utility.yul\":1558:1677   */\n      iszero\n      tag_83\n      jumpi\n        /* \"#utility.yul\":1596:1675   */\n      tag_84\n      tag_54\n      jump\t// in\n    tag_84:\n        /* \"#utility.yul\":1558:1677   */\n    tag_83:\n        /* \"#utility.yul\":1716:1717   */\n      0x00\n        /* \"#utility.yul\":1741:1794   */\n      tag_85\n        /* \"#utility.yul\":1786:1793   */\n      dup6\n        /* \"#utility.yul\":1777:1783   */\n      dup3\n        /* \"#utility.yul\":1766:1775   */\n      dup7\n        /* \"#utility.yul\":1762:1784   */\n      add\n        /* \"#utility.yul\":1741:1794   */\n      tag_57\n      jump\t// in\n    tag_85:\n        /* \"#utility.yul\":1731:1794   */\n      swap3\n      pop\n        /* \"#utility.yul\":1687:1804   */\n      pop\n        /* \"#utility.yul\":1843:1845   */\n      0x20\n        /* \"#utility.yul\":1869:1921   */\n      tag_86\n        /* \"#utility.yul\":1913:1920   */\n      dup6\n        /* \"#utility.yul\":1904:1910   */\n      dup3\n        /* \"#utility.yul\":1893:1902   */\n      dup7\n        /* \"#utility.yul\":1889:1911   */\n      add\n        /* \"#utility.yul\":1869:1921   */\n      tag_60\n      jump\t// in\n    tag_86:\n        /* \"#utility.yul\":1859:1921   */\n      swap2\n      pop\n        /* \"#utility.yul\":1814:1931   */\n      pop\n        /* \"#utility.yul\":1466:1938   */\n      swap3\n      pop\n      swap3\n      swap1\n      pop\n      jump\t// out\n        /* \"#utility.yul\":1944:2273   */\n    tag_19:\n        /* \"#utility.yul\":2003:2009   */\n      0x00\n        /* \"#utility.yul\":2052:2054   */\n      0x20\n        /* \"#utility.yul\":2040:2049   */\n      dup3\n        /* \"#utility.yul\":2031:2038   */\n      dup5\n        /* \"#utility.yul\":2027:2050   */\n      sub\n        /* \"#utility.yul\":2023:2055   */\n      slt\n        /* \"#utility.yul\":2020:2139   */\n      iszero\n      tag_88\n      jumpi\n        /* \"#utility.yul\":2058:2137   */\n      tag_89\n      tag_54\n      jump\t// in\n    tag_89:\n        /* \"#utility.yul\":2020:2139   */\n    tag_88:\n        /* \"#utility.yul\":2178:2179   */\n      0x00\n        /* \"#utility.yul\":2203:2256   */\n      tag_90\n        /* \"#utility.yul\":2248:2255   */\n      dup5\n        /* \"#utility.yul\":2239:2245   */\n      dup3\n        /* \"#utility.yul\":2228:2237   */\n      dup6\n        /* \"#utility.yul\":2224:2246   */\n      add\n        /* \"#utility.yul\":2203:2256   */\n      tag_57\n      jump\t// in\n    tag_90:\n        /* \"#utility.yul\":2193:2256   */\n      swap2\n      pop\n        /* \"#utility.yul\":2149:2266   */\n      pop\n        /* \"#utility.yul\":1944:2273   */\n      swap3\n      swap2\n      pop\n      pop\n      jump\t// out\n        /* \"#utility.yul\":2279:2394   */\n    tag_61:\n        /* \"#utility.yul\":2364:2387   */\n      tag_92\n        /* \"#utility.yul\":2381:2386   */\n      dup2\n        /* \"#utility.yul\":2364:2387   */\n      tag_58\n      jump\t// in\n    tag_92:\n        /* \"#utility.yul\":2359:2362   */\n      dup3\n        /* \"#utility.yul\":2352:2388   */\n      mstore\n        /* \"#utility.yul\":2279:2394   */\n      pop\n      pop\n      jump\t// out\n        /* \"#utility.yul\":2400:2618   */\n    tag_22:\n        /* \"#utility.yul\":2491:2495   */\n      0x00\n        /* \"#utility.yul\":2529:2531   */\n      0x20\n        /* \"#utility.yul\":2518:2527   */\n      dup3\n        /* \"#utility.yul\":2514:2532   */\n      add\n        /* \"#utility.yul\":2506:2532   */\n      swap1\n      pop\n        /* \"#utility.yul\":2542:2611   */\n      tag_94\n        /* \"#utility.yul\":2608:2609   */\n      0x00\n        /* \"#utility.yul\":2597:2606   */\n      dup4\n        /* \"#utility.yul\":2593:2610   */\n      add\n        /* \"#utility.yul\":2584:2590   */\n      dup5\n        /* \"#utility.yul\":2542:2611   */\n      tag_61\n      jump\t// in\n    tag_94:\n        /* \"#utility.yul\":2400:2618   */\n      swap3\n      swap2\n      pop\n      pop\n      jump\t// out\n        /* \"#utility.yul\":2624:2951   */\n    tag_29:\n        /* \"#utility.yul\":2682:2688   */\n      0x00\n        /* \"#utility.yul\":2731:2733   */\n      0x20\n        /* \"#utility.yul\":2719:2728   */\n      dup3\n        /* \"#utility.yul\":2710:2717   */\n      dup5\n        /* \"#utility.yul\":2706:2729   */\n      sub\n        /* \"#utility.yul\":2702:2734   */\n      slt\n        /* \"#utility.yul\":2699:2818   */\n      iszero\n      tag_96\n      jumpi\n        /* \"#utility.yul\":2737:2816   */\n      tag_97\n      tag_54\n      jump\t// in\n    tag_97:\n        /* \"#utility.yul\":2699:2818   */\n    tag_96:\n        /* \"#utility.yul\":2857:2858   */\n      0x00\n        /* \"#utility.yul\":2882:2934   */\n      tag_98\n        /* \"#utility.yul\":2926:2933   */\n      dup5\n        /* \"#utility.yul\":2917:2923   */\n      dup3\n        /* \"#utility.yul\":2906:2915   */\n      dup6\n        /* \"#utility.yul\":2902:2924   */\n      add\n        /* \"#utility.yul\":2882:2934   */\n      tag_60\n      jump\t// in\n    tag_98:\n        /* \"#utility.yul\":2872:2934   */\n      swap2\n      pop\n        /* \"#utility.yul\":2828:2944   */\n      pop\n        /* \"#utility.yul\":2624:2951   */\n      swap3\n      swap2\n      pop\n      pop\n      jump\t// out\n        /* \"#utility.yul\":2957:3137   */\n    tag_38:\n        /* \"#utility.yul\":3005:3082   */\n      0x4e487b7100000000000000000000000000000000000000000000000000000000\n        /* \"#utility.yul\":3002:3003   */\n      0x00\n        /* \"#utility.yul\":2995:3083   */\n      mstore\n        /* \"#utility.yul\":3102:3106   */\n      0x32\n        /* \"#utility.yul\":3099:3100   */\n      0x04\n        /* \"#utility.yul\":3092:3107   */\n      mstore\n        /* \"#utility.yul\":3126:3130   */\n      0x24\n        /* \"#utility.yul\":3123:3124   */\n      0x00\n        /* \"#utility.yul\":3116:3131   */\n      revert\n\n    auxdata: 0xa2646970667358221220093852a7addc2edab658ac8b2b444f259185cd50e16958f2ef00eda00052626064736f6c63430008120033\n}\n",
				"bytecode": {
					"linkReferences": {},
					"object": "608060405234801561001057600080fd5b50610426806100206000396000f3fe608060405234801561001057600080fd5b50600436106100625760003560e01c806314d2360c146100675780631a5016c1146100855780636aaa2b7e146100a15780638199140e146100d1578063c4b04d7c14610101578063ea27b65b1461011d575b600080fd5b61006f61013b565b60405161007c9190610259565b60405180910390f35b61009f600480360381019061009a91906102fd565b610144565b005b6100bb60048036038101906100b6919061033d565b61017d565b6040516100c89190610379565b60405180910390f35b6100eb60048036038101906100e6919061033d565b6101b0565b6040516100f89190610379565b60405180910390f35b61011b60048036038101906101169190610394565b6101ec565b005b610125610234565b6040516101329190610259565b60405180910390f35b60006003905090565b8060018360038110610159576101586103c1565b5b602091828204019190066101000a81548160ff021916908360f81c02179055505050565b600060018260038110610193576101926103c1565b5b602091828204019190069054906101000a900460f81b9050919050565b60008082815481106101c5576101c46103c1565b5b90600052602060002090602091828204019190069054906101000a900460f81b9050919050565b60008190806001815401808255809150506001900390600052602060002090602091828204019190069091909190916101000a81548160ff021916908360f81c021790555050565b60008080549050905090565b6000819050919050565b61025381610240565b82525050565b600060208201905061026e600083018461024a565b92915050565b600080fd5b61028281610240565b811461028d57600080fd5b50565b60008135905061029f81610279565b92915050565b60007fff0000000000000000000000000000000000000000000000000000000000000082169050919050565b6102da816102a5565b81146102e557600080fd5b50565b6000813590506102f7816102d1565b92915050565b6000806040838503121561031457610313610274565b5b600061032285828601610290565b9250506020610333858286016102e8565b9150509250929050565b60006020828403121561035357610352610274565b5b600061036184828501610290565b91505092915050565b610373816102a5565b82525050565b600060208201905061038e600083018461036a565b92915050565b6000602082840312156103aa576103a9610274565b5b60006103b8848285016102e8565b91505092915050565b7f4e487b7100000000000000000000000000000000000000000000000000000000600052603260045260246000fdfea2646970667358221220093852a7addc2edab658ac8b2b444f259185cd50e16958f2ef00eda00052626064736f6c63430008120033",
					"opcodes": "PUSH1 0x80 PUSH1 0x40 MSTORE CALLVALUE DUP1 ISZERO PUSH2 0x10 JUMPI PUSH1 0x0 DUP1 REVERT JUMPDEST POP PUSH2 0x426 DUP1 PUSH2 0x20 PUSH1 0x0 CODECOPY PUSH1 0x0 RETURN INVALID PUSH1 0x80 PUSH1 0x40 MSTORE CALLVALUE DUP1 ISZERO PUSH2 0x10 JUMPI PUSH1 0x0 DUP1 REVERT JUMPDEST POP PUSH1 0x4 CALLDATASIZE LT PUSH2 0x62 JUMPI PUSH1 0x0 CALLDATALOAD PUSH1 0xE0 SHR DUP1 PUSH4 0x14D2360C EQ PUSH2 0x67 JUMPI DUP1 PUSH4 0x1A5016C1 EQ PUSH2 0x85 JUMPI DUP1 PUSH4 0x6AAA2B7E EQ PUSH2 0xA1 JUMPI DUP1 PUSH4 0x8199140E EQ PUSH2 0xD1 JUMPI DUP1 PUSH4 0xC4B04D7C EQ PUSH2 0x101 JUMPI DUP1 PUSH4 0xEA27B65B EQ PUSH2 0x11D JUMPI JUMPDEST PUSH1 0x0 DUP1 REVERT JUMPDEST PUSH2 0x6F PUSH2 0x13B JUMP JUMPDEST PUSH1 0x40 MLOAD PUSH2 0x7C SWAP2 SWAP1 PUSH2 0x259 JUMP JUMPDEST PUSH1 0x40 MLOAD DUP1 SWAP2 SUB SWAP1 RETURN JUMPDEST PUSH2 0x9F PUSH1 0x4 DUP1 CALLDATASIZE SUB DUP2 ADD SWAP1 PUSH2 0x9A SWAP2 SWAP1 PUSH2 0x2FD JUMP JUMPDEST PUSH2 0x144 JUMP JUMPDEST STOP JUMPDEST PUSH2 0xBB PUSH1 0x4 DUP1 CALLDATASIZE SUB DUP2 ADD SWAP1 PUSH2 0xB6 SWAP2 SWAP1 PUSH2 0x33D JUMP JUMPDEST PUSH2 0x17D JUMP JUMPDEST PUSH1 0x40 MLOAD PUSH2 0xC8 SWAP2 SWAP1 PUSH2 0x379 JUMP JUMPDEST PUSH1 0x40 MLOAD DUP1 SWAP2 SUB SWAP1 RETURN JUMPDEST PUSH2 0xEB PUSH1 0x4 DUP1 CALLDATASIZE SUB DUP2 ADD SWAP1 PUSH2 0xE6 SWAP2 SWAP1 PUSH2 0x33D JUMP JUMPDEST PUSH2 0x1B0 JUMP JUMPDEST PUSH1 0x40 MLOAD PUSH2 0xF8 SWAP2 SWAP1 PUSH2 0x379 JUMP JUMPDEST PUSH1 0x40 MLOAD DUP1 SWAP2 SUB SWAP1 RETURN JUMPDEST PUSH2 0x11B PUSH1 0x4 DUP1 CALLDATASIZE SUB DUP2 ADD SWAP1 PUSH2 0x116 SWAP2 SWAP1 PUSH2 0x394 JUMP JUMPDEST PUSH2 0x1EC JUMP JUMPDEST STOP JUMPDEST PUSH2 0x125 PUSH2 0x234 JUMP JUMPDEST PUSH1 0x40 MLOAD PUSH2 0x132 SWAP2 SWAP1 PUSH2 0x259 JUMP JUMPDEST PUSH1 0x40 MLOAD DUP1 SWAP2 SUB SWAP1 RETURN JUMPDEST PUSH1 0x0 PUSH1 0x3 SWAP1 POP SWAP1 JUMP JUMPDEST DUP1 PUSH1 0x1 DUP4 PUSH1 0x3 DUP2 LT PUSH2 0x159 JUMPI PUSH2 0x158 PUSH2 0x3C1 JUMP JUMPDEST JUMPDEST PUSH1 0x20 SWAP2 DUP3 DUP3 DIV ADD SWAP2 SWAP1 MOD PUSH2 0x100 EXP DUP2 SLOAD DUP2 PUSH1 0xFF MUL NOT AND SWAP1 DUP4 PUSH1 0xF8 SHR MUL OR SWAP1 SSTORE POP POP POP JUMP JUMPDEST PUSH1 0x0 PUSH1 0x1 DUP3 PUSH1 0x3 DUP2 LT PUSH2 0x193 JUMPI PUSH2 0x192 PUSH2 0x3C1 JUMP JUMPDEST JUMPDEST PUSH1 0x20 SWAP2 DUP3 DUP3 DIV ADD SWAP2 SWAP1 MOD SWAP1 SLOAD SWAP1 PUSH2 0x100 EXP SWAP1 DIV PUSH1 0xF8 SHL SWAP1 POP SWAP2 SWAP1 POP JUMP JUMPDEST PUSH1 0x0 DUP1 DUP3 DUP2 SLOAD DUP2 LT PUSH2 0x1C5 JUMPI PUSH2 0x1C4 PUSH2 0x3C1 JUMP JUMPDEST JUMPDEST SWAP1 PUSH1 0x0 MSTORE PUSH1 0x20 PUSH1 0x0 KECCAK256 SWAP1 PUSH1 0x20 SWAP2 DUP3 DUP3 DIV ADD SWAP2 SWAP1 MOD SWAP1 SLOAD SWAP1 PUSH2 0x100 EXP SWAP1 DIV PUSH1 0xF8 SHL SWAP1 POP SWAP2 SWAP1 POP JUMP JUMPDEST PUSH1 0x0 DUP2 SWAP1 DUP1 PUSH1 0x1 DUP2 SLOAD ADD DUP1 DUP3 SSTORE DUP1 SWAP2 POP POP PUSH1 0x1 SWAP1 SUB SWAP1 PUSH1 0x0 MSTORE PUSH1 0x20 PUSH1 0x0 KECCAK256 SWAP1 PUSH1 0x20 SWAP2 DUP3 DUP3 DIV ADD SWAP2 SWAP1 MOD SWAP1 SWAP2 SWAP1 SWAP2 SWAP1 SWAP2 PUSH2 0x100 EXP DUP2 SLOAD DUP2 PUSH1 0xFF MUL NOT AND SWAP1 DUP4 PUSH1 0xF8 SHR MUL OR SWAP1 SSTORE POP POP JUMP JUMPDEST PUSH1 0x0 DUP1 DUP1 SLOAD SWAP1 POP SWAP1 POP SWAP1 JUMP JUMPDEST PUSH1 0x0 DUP2 SWAP1 POP SWAP2 SWAP1 POP JUMP JUMPDEST PUSH2 0x253 DUP2 PUSH2 0x240 JUMP JUMPDEST DUP3 MSTORE POP POP JUMP JUMPDEST PUSH1 0x0 PUSH1 0x20 DUP3 ADD SWAP1 POP PUSH2 0x26E PUSH1 0x0 DUP4 ADD DUP5 PUSH2 0x24A JUMP JUMPDEST SWAP3 SWAP2 POP POP JUMP JUMPDEST PUSH1 0x0 DUP1 REVERT JUMPDEST PUSH2 0x282 DUP2 PUSH2 0x240 JUMP JUMPDEST DUP2 EQ PUSH2 0x28D JUMPI PUSH1 0x0 DUP1 REVERT JUMPDEST POP JUMP JUMPDEST PUSH1 0x0 DUP2 CALLDATALOAD SWAP1 POP PUSH2 0x29F DUP2 PUSH2 0x279 JUMP JUMPDEST SWAP3 SWAP2 POP POP JUMP JUMPDEST PUSH1 0x0 PUSH32 0xFF00000000000000000000000000000000000000000000000000000000000000 DUP3 AND SWAP1 POP SWAP2 SWAP1 POP JUMP JUMPDEST PUSH2 0x2DA DUP2 PUSH2 0x2A5 JUMP JUMPDEST DUP2 EQ PUSH2 0x2E5 JUMPI PUSH1 0x0 DUP1 REVERT JUMPDEST POP JUMP JUMPDEST PUSH1 0x0 DUP2 CALLDATALOAD SWAP1 POP PUSH2 0x2F7 DUP2 PUSH2 0x2D1 JUMP JUMPDEST SWAP3 SWAP2 POP POP JUMP JUMPDEST PUSH1 0x0 DUP1 PUSH1 0x40 DUP4 DUP6 SUB SLT ISZERO PUSH2 0x314 JUMPI PUSH2 0x313 PUSH2 0x274 JUMP JUMPDEST JUMPDEST PUSH1 0x0 PUSH2 0x322 DUP6 DUP3 DUP7 ADD PUSH2 0x290 JUMP JUMPDEST SWAP3 POP POP PUSH1 0x20 PUSH2 0x333 DUP6 DUP3 DUP7 ADD PUSH2 0x2E8 JUMP JUMPDEST SWAP2 POP POP SWAP3 POP SWAP3 SWAP1 POP JUMP JUMPDEST PUSH1 0x0 PUSH1 0x20 DUP3 DUP5 SUB SLT ISZERO PUSH2 0x353 JUMPI PUSH2 0x352 PUSH2 0x274 JUMP JUMPDEST JUMPDEST PUSH1 0x0 PUSH2 0x361 DUP5 DUP3 DUP6 ADD PUSH2 0x290 JUMP JUMPDEST SWAP2 POP POP SWAP3 SWAP2 POP POP JUMP JUMPDEST PUSH2 0x373 DUP2 PUSH2 0x2A5 JUMP JUMPDEST DUP3 MSTORE POP POP JUMP JUMPDEST PUSH1 0x0 PUSH1 0x20 DUP3 ADD SWAP1 POP PUSH2 0x38E PUSH1 0x0 DUP4 ADD DUP5 PUSH2 0x36A JUMP JUMPDEST SWAP3 SWAP2 POP POP JUMP JUMPDEST PUSH1 0x0 PUSH1 0x20 DUP3 DUP5 SUB SLT ISZERO PUSH2 0x3AA JUMPI PUSH2 0x3A9 PUSH2 0x274 JUMP JUMPDEST JUMPDEST PUSH1 0x0 PUSH2 0x3B8 DUP5 DUP3 DUP6 ADD PUSH2 0x2E8 JUMP JUMPDEST SWAP2 POP POP SWAP3 SWAP2 POP POP JUMP JUMPDEST PUSH32 0x4E487B7100000000000000000000000000000000000000000000000000000000 PUSH1 0x0 MSTORE PUSH1 0x32 PUSH1 0x4 MSTORE PUSH1 0x24 PUSH1 0x0 REVERT INVALID LOG2 PUSH5 0x6970667358 0x22 SLT KECCAK256 MULMOD CODESIZE MSTORE 0xA7 0xAD 0xDC 0x2E 0xDA 0xB6 PC 0xAC DUP12 0x2B PREVRANDAO 0x4F 0x25 SWAP2 DUP6 0xCD POP 0xE1 PUSH10 0x58F2EF00EDA000526260 PUSH5 0x736F6C6343 STOP ADDMOD SLT STOP CALLER "
				},
				"gasEstimates": {
					"creation": {
						"codeDepositCost": "212400",
						"executionCost": "257",
						"totalCost": "212657"
					},
					"external": {
						"getDynamicLength()": "2533",
						"getStaticLength()": "315",
						"getValueDynamic(uint256)": "6596",
						"getValueStatic(uint256)": "4420",
						"setValueDynamic(bytes1)": "50685",
						"setValueStatic(uint256,bytes1)": "26506"
					}
				},
				"methodIdentifiers": {
					"getDynamicLength()": "ea27b65b",
					"getStaticLength()": "14d2360c",
					"getValueDynamic(uint256)": "8199140e",
					"getValueStatic(uint256)": "6aaa2b7e",
					"setValueDynamic(bytes1)": "c4b04d7c",
					"setValueStatic(uint256,bytes1)": "1a5016c1"
				}
			},
			"storageLayout": {
				"storage": [
					{
						"astId": 4,
						"contract": "Fall-2023/11_ByteArray_Bytes1.sol:ByteArray",
						"label": "bDynamic",
						"offset": 0,
						"slot": "0",
						"type": "t_array(t_bytes1)dyn_storage"
					},
					{
						"astId": 8,
						"contract": "Fall-2023/11_ByteArray_Bytes1.sol:ByteArray",
						"label": "bStatic",
						"offset": 0,
						"slot": "1",
						"type": "t_array(t_bytes1)3_storage"
					}
				],
				"types": {
					"t_array(t_bytes1)3_storage": {
						"base": "t_bytes1",
						"encoding": "inplace",
						"label": "bytes1[3]",
						"numberOfBytes": "32"
					},
					"t_array(t_bytes1)dyn_storage": {
						"base": "t_bytes1",
						"encoding": "dynamic_array",
						"label": "bytes1[]",
						"numberOfBytes": "32"
					},
					"t_bytes1": {
						"encoding": "inplace",
						"label": "bytes1",
						"numberOfBytes": "1"
					}
				}
			},
			"userdoc": {
				"kind": "user",
				"methods": {},
				"version": 1
			}
		}
	}
}