{
	"Fall-2023/Copy_21_StorageVsMemory.sol": {
		"StorageStorage": {
			"abi": [
				{
					"inputs": [],
					"name": "getArrays",
					"outputs": [
						{
							"internalType": "uint8[5]",
							"name": "stateArr",
							"type": "uint8[5]"
						},
						{
							"internalType": "uint8[5]",
							"name": "localMemArr",
							"type": "uint8[5]"
						}
					],
					"stateMutability": "nonpayable",
					"type": "function"
				},
				{
					"inputs": [],
					"name": "getArraysView",
					"outputs": [
						{
							"internalType": "uint8[5]",
							"name": "stateArr",
							"type": "uint8[5]"
						}
					],
					"stateMutability": "view",
					"type": "function"
				}
			],
			"devdoc": {
				"kind": "dev",
				"methods": {},
				"version": 1
			},
			"evm": {
				"assembly": "    /* \"Fall-2023/Copy_21_StorageVsMemory.sol\":92:770  contract StorageStorage... */\n  mstore(0x40, 0x80)\n    /* \"Fall-2023/Copy_21_StorageVsMemory.sol\":124:161  uint8[5] stateArray = [1, 2, 3, 4, 5] */\n  mload(0x40)\n  dup1\n  0xa0\n  add\n  0x40\n  mstore\n  dup1\n    /* \"Fall-2023/Copy_21_StorageVsMemory.sol\":147:148  1 */\n  0x01\n    /* \"Fall-2023/Copy_21_StorageVsMemory.sol\":124:161  uint8[5] stateArray = [1, 2, 3, 4, 5] */\n  0xff\n  and\n  dup2\n  mstore\n  0x20\n  add\n    /* \"Fall-2023/Copy_21_StorageVsMemory.sol\":150:151  2 */\n  0x02\n    /* \"Fall-2023/Copy_21_StorageVsMemory.sol\":124:161  uint8[5] stateArray = [1, 2, 3, 4, 5] */\n  0xff\n  and\n  dup2\n  mstore\n  0x20\n  add\n    /* \"Fall-2023/Copy_21_StorageVsMemory.sol\":153:154  3 */\n  0x03\n    /* \"Fall-2023/Copy_21_StorageVsMemory.sol\":124:161  uint8[5] stateArray = [1, 2, 3, 4, 5] */\n  0xff\n  and\n  dup2\n  mstore\n  0x20\n  add\n    /* \"Fall-2023/Copy_21_StorageVsMemory.sol\":156:157  4 */\n  0x04\n    /* \"Fall-2023/Copy_21_StorageVsMemory.sol\":124:161  uint8[5] stateArray = [1, 2, 3, 4, 5] */\n  0xff\n  and\n  dup2\n  mstore\n  0x20\n  add\n    /* \"Fall-2023/Copy_21_StorageVsMemory.sol\":159:160  5 */\n  0x05\n    /* \"Fall-2023/Copy_21_StorageVsMemory.sol\":124:161  uint8[5] stateArray = [1, 2, 3, 4, 5] */\n  0xff\n  and\n  dup2\n  mstore\n  pop\n  0x00\n  swap1\n  0x05\n  tag_1\n  swap3\n  swap2\n  swap1\n  tag_2\n  jump\t// in\ntag_1:\n  pop\n    /* \"Fall-2023/Copy_21_StorageVsMemory.sol\":92:770  contract StorageStorage... */\n  callvalue\n  dup1\n  iszero\n  tag_3\n  jumpi\n  0x00\n  dup1\n  revert\ntag_3:\n  pop\n  jump(tag_4)\ntag_2:\n  dup3\n  add(0x1f, 0x05)\n  0x20\n  swap1\n  div\n  dup2\n  add\n  swap3\n  dup3\n  iszero\n  tag_5\n  jumpi\n  swap2\n  0x20\n  mul\n  dup3\n  add\n  0x00\ntag_6:\n  dup4\n  dup3\n  gt\n  iszero\n  tag_7\n  jumpi\n  dup4\n  mload\n  dup4\n  dup3\n  0x0100\n  exp\n  dup2\n  sload\n  dup2\n  0xff\n  mul\n  not\n  and\n  swap1\n  dup4\n  0xff\n  and\n  mul\n  or\n  swap1\n  sstore\n  pop\n  swap3\n  0x20\n  add\n  swap3\n  0x01\n  add\n  0x20\n  dup2\n  0x00\n  add\n  div\n  swap3\n  dup4\n  add\n  swap3\n  0x01\n  sub\n  mul\n  jump(tag_6)\ntag_7:\n  dup1\n  iszero\n  tag_8\n  jumpi\n  dup3\n  dup2\n  0x0100\n  exp\n  dup2\n  sload\n  swap1\n  0xff\n  mul\n  not\n  and\n  swap1\n  sstore\n  0x01\n  add\n  0x20\n  dup2\n  0x00\n  add\n  div\n  swap3\n  dup4\n  add\n  swap3\n  0x01\n  sub\n  mul\n  jump(tag_7)\ntag_8:\n  pop\ntag_5:\n  pop\n  swap1\n  pop\n  tag_9\n  swap2\n  swap1\n  tag_10\n  jump\t// in\ntag_9:\n  pop\n  swap1\n  jump\t// out\ntag_10:\ntag_11:\n  dup1\n  dup3\n  gt\n  iszero\n  tag_12\n  jumpi\n  0x00\n  dup2\n  0x00\n  swap1\n  sstore\n  pop\n  0x01\n  add\n  jump(tag_11)\ntag_12:\n  pop\n  swap1\n  jump\t// out\ntag_4:\n  dataSize(sub_0)\n  dup1\n  dataOffset(sub_0)\n  0x00\n  codecopy\n  0x00\n  return\nstop\n\nsub_0: assembly {\n        /* \"Fall-2023/Copy_21_StorageVsMemory.sol\":92:770  contract StorageStorage... */\n      mstore(0x40, 0x80)\n      callvalue\n      dup1\n      iszero\n      tag_1\n      jumpi\n      0x00\n      dup1\n      revert\n    tag_1:\n      pop\n      jumpi(tag_2, lt(calldatasize, 0x04))\n      shr(0xe0, calldataload(0x00))\n      dup1\n      0xefebd875\n      eq\n      tag_3\n      jumpi\n      dup1\n      0xfd966c5b\n      eq\n      tag_4\n      jumpi\n    tag_2:\n      0x00\n      dup1\n      revert\n        /* \"Fall-2023/Copy_21_StorageVsMemory.sol\":580:767  function getArraysView() public view returns(uint8[5] memory stateArr){... */\n    tag_3:\n      tag_5\n      tag_6\n      jump\t// in\n    tag_5:\n      mload(0x40)\n      tag_7\n      swap2\n      swap1\n      tag_8\n      jump\t// in\n    tag_7:\n      mload(0x40)\n      dup1\n      swap2\n      sub\n      swap1\n      return\n        /* \"Fall-2023/Copy_21_StorageVsMemory.sol\":170:572  function getArrays() public returns(uint8[5] memory stateArr, uint8[5] memory localMemArr){... */\n    tag_4:\n      tag_9\n      tag_10\n      jump\t// in\n    tag_9:\n      mload(0x40)\n      tag_11\n      swap3\n      swap2\n      swap1\n      tag_12\n      jump\t// in\n    tag_11:\n      mload(0x40)\n      dup1\n      swap2\n      sub\n      swap1\n      return\n        /* \"Fall-2023/Copy_21_StorageVsMemory.sol\":580:767  function getArraysView() public view returns(uint8[5] memory stateArr){... */\n    tag_6:\n        /* \"Fall-2023/Copy_21_StorageVsMemory.sol\":625:649  uint8[5] memory stateArr */\n      tag_13\n      tag_14\n      jump\t// in\n    tag_13:\n        /* \"Fall-2023/Copy_21_StorageVsMemory.sol\":669:679  stateArray */\n      0x00\n        /* \"Fall-2023/Copy_21_StorageVsMemory.sol\":661:680  return (stateArray) */\n      0x05\n      dup1\n      0x20\n      mul\n      mload(0x40)\n      swap1\n      dup2\n      add\n      0x40\n      mstore\n      dup1\n      swap3\n      swap2\n      swap1\n      dup3\n      0x05\n      dup1\n      iszero\n      tag_16\n      jumpi\n      0x20\n      mul\n      dup3\n      add\n      swap2\n      0x00\n      swap1\n    tag_17:\n      dup3\n      dup3\n      swap1\n      sload\n      swap1\n      0x0100\n      exp\n      swap1\n      div\n      0xff\n      and\n      0xff\n      and\n      dup2\n      mstore\n      0x20\n      add\n      swap1\n      0x01\n      add\n      swap1\n      0x20\n      dup3\n      0x00\n      add\n      div\n      swap3\n      dup4\n      add\n      swap3\n      0x01\n      sub\n      dup3\n      mul\n      swap2\n      pop\n      dup1\n      dup5\n      gt\n      tag_17\n      jumpi\n      swap1\n      pop\n    tag_16:\n      pop\n      pop\n      pop\n      pop\n      pop\n      swap1\n      pop\n        /* \"Fall-2023/Copy_21_StorageVsMemory.sol\":580:767  function getArraysView() public view returns(uint8[5] memory stateArr){... */\n      swap1\n      jump\t// out\n        /* \"Fall-2023/Copy_21_StorageVsMemory.sol\":170:572  function getArrays() public returns(uint8[5] memory stateArr, uint8[5] memory localMemArr){... */\n    tag_10:\n        /* \"Fall-2023/Copy_21_StorageVsMemory.sol\":206:230  uint8[5] memory stateArr */\n      tag_18\n      tag_14\n      jump\t// in\n    tag_18:\n        /* \"Fall-2023/Copy_21_StorageVsMemory.sol\":232:259  uint8[5] memory localMemArr */\n      tag_19\n      tag_14\n      jump\t// in\n    tag_19:\n        /* \"Fall-2023/Copy_21_StorageVsMemory.sol\":271:298  uint8[5] storage localArray */\n      0x00\n        /* \"Fall-2023/Copy_21_StorageVsMemory.sol\":338:340  99 */\n      0x63\n        /* \"Fall-2023/Copy_21_StorageVsMemory.sol\":322:332  localArray */\n      dup2\n        /* \"Fall-2023/Copy_21_StorageVsMemory.sol\":333:334  4 */\n      0x04\n        /* \"Fall-2023/Copy_21_StorageVsMemory.sol\":322:335  localArray[4] */\n      0x05\n      dup2\n      lt\n      tag_21\n      jumpi\n      tag_22\n      tag_23\n      jump\t// in\n    tag_22:\n    tag_21:\n      0x20\n      swap2\n      dup3\n      dup3\n      div\n      add\n      swap2\n      swap1\n      mod\n        /* \"Fall-2023/Copy_21_StorageVsMemory.sol\":322:340  localArray[4] = 99 */\n      0x0100\n      exp\n      dup2\n      sload\n      dup2\n      0xff\n      mul\n      not\n      and\n      swap1\n      dup4\n      0xff\n      and\n      mul\n      or\n      swap1\n      sstore\n      pop\n        /* \"Fall-2023/Copy_21_StorageVsMemory.sol\":359:369  stateArray */\n      0x00\n        /* \"Fall-2023/Copy_21_StorageVsMemory.sol\":371:381  localArray */\n      dup2\n        /* \"Fall-2023/Copy_21_StorageVsMemory.sol\":351:382  return (stateArray, localArray) */\n      dup2\n      0x05\n      dup1\n      0x20\n      mul\n      mload(0x40)\n      swap1\n      dup2\n      add\n      0x40\n      mstore\n      dup1\n      swap3\n      swap2\n      swap1\n      dup3\n      0x05\n      dup1\n      iszero\n      tag_25\n      jumpi\n      0x20\n      mul\n      dup3\n      add\n      swap2\n      0x00\n      swap1\n    tag_26:\n      dup3\n      dup3\n      swap1\n      sload\n      swap1\n      0x0100\n      exp\n      swap1\n      div\n      0xff\n      and\n      0xff\n      and\n      dup2\n      mstore\n      0x20\n      add\n      swap1\n      0x01\n      add\n      swap1\n      0x20\n      dup3\n      0x00\n      add\n      div\n      swap3\n      dup4\n      add\n      swap3\n      0x01\n      sub\n      dup3\n      mul\n      swap2\n      pop\n      dup1\n      dup5\n      gt\n      tag_26\n      jumpi\n      swap1\n      pop\n    tag_25:\n      pop\n      pop\n      pop\n      pop\n      pop\n      swap2\n      pop\n      dup1\n      0x05\n      dup1\n      0x20\n      mul\n      mload(0x40)\n      swap1\n      dup2\n      add\n      0x40\n      mstore\n      dup1\n      swap3\n      swap2\n      swap1\n      dup3\n      0x05\n      dup1\n      iszero\n      tag_27\n      jumpi\n      0x20\n      mul\n      dup3\n      add\n      swap2\n      0x00\n      swap1\n    tag_28:\n      dup3\n      dup3\n      swap1\n      sload\n      swap1\n      0x0100\n      exp\n      swap1\n      div\n      0xff\n      and\n      0xff\n      and\n      dup2\n      mstore\n      0x20\n      add\n      swap1\n      0x01\n      add\n      swap1\n      0x20\n      dup3\n      0x00\n      add\n      div\n      swap3\n      dup4\n      add\n      swap3\n      0x01\n      sub\n      dup3\n      mul\n      swap2\n      pop\n      dup1\n      dup5\n      gt\n      tag_28\n      jumpi\n      swap1\n      pop\n    tag_27:\n      pop\n      pop\n      pop\n      pop\n      pop\n      swap1\n      pop\n      swap3\n      pop\n      swap3\n      pop\n      pop\n        /* \"Fall-2023/Copy_21_StorageVsMemory.sol\":170:572  function getArrays() public returns(uint8[5] memory stateArr, uint8[5] memory localMemArr){... */\n      swap1\n      swap2\n      jump\t// out\n    tag_14:\n      mload(0x40)\n      dup1\n      0xa0\n      add\n      0x40\n      mstore\n      dup1\n      0x05\n      swap1\n      0x20\n      dup3\n      mul\n      dup1\n      calldatasize\n      dup4\n      calldatacopy\n      dup1\n      dup3\n      add\n      swap2\n      pop\n      pop\n      swap1\n      pop\n      pop\n      swap1\n      jump\t// out\n        /* \"#utility.yul\":7:109   */\n    tag_29:\n        /* \"#utility.yul\":70:76   */\n      0x00\n        /* \"#utility.yul\":98:102   */\n      0x05\n        /* \"#utility.yul\":88:102   */\n      swap1\n      pop\n        /* \"#utility.yul\":7:109   */\n      swap2\n      swap1\n      pop\n      jump\t// out\n        /* \"#utility.yul\":115:256   */\n    tag_30:\n        /* \"#utility.yul\":210:221   */\n      0x00\n        /* \"#utility.yul\":247:250   */\n      dup2\n        /* \"#utility.yul\":232:250   */\n      swap1\n      pop\n        /* \"#utility.yul\":115:256   */\n      swap3\n      swap2\n      pop\n      pop\n      jump\t// out\n        /* \"#utility.yul\":262:358   */\n    tag_31:\n        /* \"#utility.yul\":325:329   */\n      0x00\n        /* \"#utility.yul\":348:351   */\n      dup2\n        /* \"#utility.yul\":340:351   */\n      swap1\n      pop\n        /* \"#utility.yul\":262:358   */\n      swap2\n      swap1\n      pop\n      jump\t// out\n        /* \"#utility.yul\":364:450   */\n    tag_32:\n        /* \"#utility.yul\":399:406   */\n      0x00\n        /* \"#utility.yul\":439:443   */\n      0xff\n        /* \"#utility.yul\":432:437   */\n      dup3\n        /* \"#utility.yul\":428:444   */\n      and\n        /* \"#utility.yul\":417:444   */\n      swap1\n      pop\n        /* \"#utility.yul\":364:450   */\n      swap2\n      swap1\n      pop\n      jump\t// out\n        /* \"#utility.yul\":456:558   */\n    tag_33:\n        /* \"#utility.yul\":529:551   */\n      tag_43\n        /* \"#utility.yul\":545:550   */\n      dup2\n        /* \"#utility.yul\":529:551   */\n      tag_32\n      jump\t// in\n    tag_43:\n        /* \"#utility.yul\":524:527   */\n      dup3\n        /* \"#utility.yul\":517:552   */\n      mstore\n        /* \"#utility.yul\":456:558   */\n      pop\n      pop\n      jump\t// out\n        /* \"#utility.yul\":564:735   */\n    tag_34:\n        /* \"#utility.yul\":629:639   */\n      0x00\n        /* \"#utility.yul\":650:692   */\n      tag_45\n        /* \"#utility.yul\":688:691   */\n      dup4\n        /* \"#utility.yul\":680:686   */\n      dup4\n        /* \"#utility.yul\":650:692   */\n      tag_33\n      jump\t// in\n    tag_45:\n        /* \"#utility.yul\":724:728   */\n      0x20\n        /* \"#utility.yul\":719:722   */\n      dup4\n        /* \"#utility.yul\":715:729   */\n      add\n        /* \"#utility.yul\":701:729   */\n      swap1\n      pop\n        /* \"#utility.yul\":564:735   */\n      swap3\n      swap2\n      pop\n      pop\n      jump\t// out\n        /* \"#utility.yul\":741:850   */\n    tag_35:\n        /* \"#utility.yul\":807:811   */\n      0x00\n        /* \"#utility.yul\":839:843   */\n      0x20\n        /* \"#utility.yul\":834:837   */\n      dup3\n        /* \"#utility.yul\":830:844   */\n      add\n        /* \"#utility.yul\":822:844   */\n      swap1\n      pop\n        /* \"#utility.yul\":741:850   */\n      swap2\n      swap1\n      pop\n      jump\t// out\n        /* \"#utility.yul\":884:1562   */\n    tag_36:\n        /* \"#utility.yul\":1016:1066   */\n      tag_48\n        /* \"#utility.yul\":1060:1065   */\n      dup2\n        /* \"#utility.yul\":1016:1066   */\n      tag_29\n      jump\t// in\n    tag_48:\n        /* \"#utility.yul\":1082:1164   */\n      tag_49\n        /* \"#utility.yul\":1157:1163   */\n      dup2\n        /* \"#utility.yul\":1152:1155   */\n      dup5\n        /* \"#utility.yul\":1082:1164   */\n      tag_30\n      jump\t// in\n    tag_49:\n        /* \"#utility.yul\":1075:1164   */\n      swap3\n      pop\n        /* \"#utility.yul\":1188:1240   */\n      tag_50\n        /* \"#utility.yul\":1234:1239   */\n      dup3\n        /* \"#utility.yul\":1188:1240   */\n      tag_31\n      jump\t// in\n    tag_50:\n        /* \"#utility.yul\":1263:1270   */\n      dup1\n        /* \"#utility.yul\":1294:1295   */\n      0x00\n        /* \"#utility.yul\":1279:1555   */\n    tag_51:\n        /* \"#utility.yul\":1304:1310   */\n      dup4\n        /* \"#utility.yul\":1301:1302   */\n      dup2\n        /* \"#utility.yul\":1298:1311   */\n      lt\n        /* \"#utility.yul\":1279:1555   */\n      iszero\n      tag_53\n      jumpi\n        /* \"#utility.yul\":1380:1386   */\n      dup2\n        /* \"#utility.yul\":1374:1387   */\n      mload\n        /* \"#utility.yul\":1407:1466   */\n      tag_54\n        /* \"#utility.yul\":1462:1465   */\n      dup8\n        /* \"#utility.yul\":1447:1460   */\n      dup3\n        /* \"#utility.yul\":1407:1466   */\n      tag_34\n      jump\t// in\n    tag_54:\n        /* \"#utility.yul\":1400:1466   */\n      swap7\n      pop\n        /* \"#utility.yul\":1489:1545   */\n      tag_55\n        /* \"#utility.yul\":1538:1544   */\n      dup4\n        /* \"#utility.yul\":1489:1545   */\n      tag_35\n      jump\t// in\n    tag_55:\n        /* \"#utility.yul\":1479:1545   */\n      swap3\n      pop\n        /* \"#utility.yul\":1339:1555   */\n      pop\n        /* \"#utility.yul\":1326:1327   */\n      0x01\n        /* \"#utility.yul\":1323:1324   */\n      dup2\n        /* \"#utility.yul\":1319:1328   */\n      add\n        /* \"#utility.yul\":1314:1328   */\n      swap1\n      pop\n        /* \"#utility.yul\":1279:1555   */\n      jump(tag_51)\n    tag_53:\n        /* \"#utility.yul\":1283:1297   */\n      pop\n        /* \"#utility.yul\":992:1562   */\n      pop\n      pop\n      pop\n        /* \"#utility.yul\":884:1562   */\n      pop\n      pop\n      jump\t// out\n        /* \"#utility.yul\":1568:1875   */\n    tag_8:\n        /* \"#utility.yul\":1703:1707   */\n      0x00\n        /* \"#utility.yul\":1741:1744   */\n      0xa0\n        /* \"#utility.yul\":1730:1739   */\n      dup3\n        /* \"#utility.yul\":1726:1745   */\n      add\n        /* \"#utility.yul\":1718:1745   */\n      swap1\n      pop\n        /* \"#utility.yul\":1755:1868   */\n      tag_57\n        /* \"#utility.yul\":1865:1866   */\n      0x00\n        /* \"#utility.yul\":1854:1863   */\n      dup4\n        /* \"#utility.yul\":1850:1867   */\n      add\n        /* \"#utility.yul\":1841:1847   */\n      dup5\n        /* \"#utility.yul\":1755:1868   */\n      tag_36\n      jump\t// in\n    tag_57:\n        /* \"#utility.yul\":1568:1875   */\n      swap3\n      swap2\n      pop\n      pop\n      jump\t// out\n        /* \"#utility.yul\":1881:2383   */\n    tag_12:\n        /* \"#utility.yul\":2086:2090   */\n      0x00\n        /* \"#utility.yul\":2124:2127   */\n      0x0140\n        /* \"#utility.yul\":2113:2122   */\n      dup3\n        /* \"#utility.yul\":2109:2128   */\n      add\n        /* \"#utility.yul\":2101:2128   */\n      swap1\n      pop\n        /* \"#utility.yul\":2138:2251   */\n      tag_59\n        /* \"#utility.yul\":2248:2249   */\n      0x00\n        /* \"#utility.yul\":2237:2246   */\n      dup4\n        /* \"#utility.yul\":2233:2250   */\n      add\n        /* \"#utility.yul\":2224:2230   */\n      dup6\n        /* \"#utility.yul\":2138:2251   */\n      tag_36\n      jump\t// in\n    tag_59:\n        /* \"#utility.yul\":2261:2376   */\n      tag_60\n        /* \"#utility.yul\":2371:2374   */\n      0xa0\n        /* \"#utility.yul\":2360:2369   */\n      dup4\n        /* \"#utility.yul\":2356:2375   */\n      add\n        /* \"#utility.yul\":2347:2353   */\n      dup5\n        /* \"#utility.yul\":2261:2376   */\n      tag_36\n      jump\t// in\n    tag_60:\n        /* \"#utility.yul\":1881:2383   */\n      swap4\n      swap3\n      pop\n      pop\n      pop\n      jump\t// out\n        /* \"#utility.yul\":2389:2569   */\n    tag_23:\n        /* \"#utility.yul\":2437:2514   */\n      0x4e487b7100000000000000000000000000000000000000000000000000000000\n        /* \"#utility.yul\":2434:2435   */\n      0x00\n        /* \"#utility.yul\":2427:2515   */\n      mstore\n        /* \"#utility.yul\":2534:2538   */\n      0x32\n        /* \"#utility.yul\":2531:2532   */\n      0x04\n        /* \"#utility.yul\":2524:2539   */\n      mstore\n        /* \"#utility.yul\":2558:2562   */\n      0x24\n        /* \"#utility.yul\":2555:2556   */\n      0x00\n        /* \"#utility.yul\":2548:2563   */\n      revert\n\n    auxdata: 0xa2646970667358221220d45db1288ab8505f70f0754a3c319095be7b037868e07ca700706b51619907cb64736f6c63430008120033\n}\n",
				"bytecode": {
					"linkReferences": {},
					"object": "60806040526040518060a00160405280600160ff168152602001600260ff168152602001600360ff168152602001600460ff168152602001600560ff16815250600090600561004f929190610062565b5034801561005c57600080fd5b50610119565b826005601f016020900481019282156100eb5791602002820160005b838211156100bc57835183826101000a81548160ff021916908360ff160217905550926020019260010160208160000104928301926001030261007e565b80156100e95782816101000a81549060ff02191690556001016020816000010492830192600103026100bc565b505b5090506100f891906100fc565b5090565b5b808211156101155760008160009055506001016100fd565b5090565b61038b806101286000396000f3fe608060405234801561001057600080fd5b50600436106100365760003560e01c8063efebd8751461003b578063fd966c5b14610059575b600080fd5b610043610078565b60405161005091906102e1565b60405180910390f35b6100616100e9565b60405161006f9291906102fc565b60405180910390f35b610080610207565b60006005806020026040519081016040528092919082600580156100df576020028201916000905b82829054906101000a900460ff1660ff16815260200190600101906020826000010492830192600103820291508084116100a85790505b5050505050905090565b6100f1610207565b6100f9610207565b600060638160046005811061011157610110610326565b5b602091828204019190066101000a81548160ff021916908360ff16021790555060008181600580602002604051908101604052809291908260058015610192576020028201916000905b82829054906101000a900460ff1660ff168152602001906001019060208260000104928301926001038202915080841161015b5790505b50505050509150806005806020026040519081016040528092919082600580156101f7576020028201916000905b82829054906101000a900460ff1660ff16815260200190600101906020826000010492830192600103820291508084116101c05790505b5050505050905092509250509091565b6040518060a00160405280600590602082028036833780820191505090505090565b600060059050919050565b600081905092915050565b6000819050919050565b600060ff82169050919050565b61025f81610249565b82525050565b60006102718383610256565b60208301905092915050565b6000602082019050919050565b61029381610229565b61029d8184610234565b92506102a88261023f565b8060005b838110156102d95781516102c08782610265565b96506102cb8361027d565b9250506001810190506102ac565b505050505050565b600060a0820190506102f6600083018461028a565b92915050565b600061014082019050610312600083018561028a565b61031f60a083018461028a565b9392505050565b7f4e487b7100000000000000000000000000000000000000000000000000000000600052603260045260246000fdfea2646970667358221220d45db1288ab8505f70f0754a3c319095be7b037868e07ca700706b51619907cb64736f6c63430008120033",
					"opcodes": "PUSH1 0x80 PUSH1 0x40 MSTORE PUSH1 0x40 MLOAD DUP1 PUSH1 0xA0 ADD PUSH1 0x40 MSTORE DUP1 PUSH1 0x1 PUSH1 0xFF AND DUP2 MSTORE PUSH1 0x20 ADD PUSH1 0x2 PUSH1 0xFF AND DUP2 MSTORE PUSH1 0x20 ADD PUSH1 0x3 PUSH1 0xFF AND DUP2 MSTORE PUSH1 0x20 ADD PUSH1 0x4 PUSH1 0xFF AND DUP2 MSTORE PUSH1 0x20 ADD PUSH1 0x5 PUSH1 0xFF AND DUP2 MSTORE POP PUSH1 0x0 SWAP1 PUSH1 0x5 PUSH2 0x4F SWAP3 SWAP2 SWAP1 PUSH2 0x62 JUMP JUMPDEST POP CALLVALUE DUP1 ISZERO PUSH2 0x5C JUMPI PUSH1 0x0 DUP1 REVERT JUMPDEST POP PUSH2 0x119 JUMP JUMPDEST DUP3 PUSH1 0x5 PUSH1 0x1F ADD PUSH1 0x20 SWAP1 DIV DUP2 ADD SWAP3 DUP3 ISZERO PUSH2 0xEB JUMPI SWAP2 PUSH1 0x20 MUL DUP3 ADD PUSH1 0x0 JUMPDEST DUP4 DUP3 GT ISZERO PUSH2 0xBC JUMPI DUP4 MLOAD DUP4 DUP3 PUSH2 0x100 EXP DUP2 SLOAD DUP2 PUSH1 0xFF MUL NOT AND SWAP1 DUP4 PUSH1 0xFF AND MUL OR SWAP1 SSTORE POP SWAP3 PUSH1 0x20 ADD SWAP3 PUSH1 0x1 ADD PUSH1 0x20 DUP2 PUSH1 0x0 ADD DIV SWAP3 DUP4 ADD SWAP3 PUSH1 0x1 SUB MUL PUSH2 0x7E JUMP JUMPDEST DUP1 ISZERO PUSH2 0xE9 JUMPI DUP3 DUP2 PUSH2 0x100 EXP DUP2 SLOAD SWAP1 PUSH1 0xFF MUL NOT AND SWAP1 SSTORE PUSH1 0x1 ADD PUSH1 0x20 DUP2 PUSH1 0x0 ADD DIV SWAP3 DUP4 ADD SWAP3 PUSH1 0x1 SUB MUL PUSH2 0xBC JUMP JUMPDEST POP JUMPDEST POP SWAP1 POP PUSH2 0xF8 SWAP2 SWAP1 PUSH2 0xFC JUMP JUMPDEST POP SWAP1 JUMP JUMPDEST JUMPDEST DUP1 DUP3 GT ISZERO PUSH2 0x115 JUMPI PUSH1 0x0 DUP2 PUSH1 0x0 SWAP1 SSTORE POP PUSH1 0x1 ADD PUSH2 0xFD JUMP JUMPDEST POP SWAP1 JUMP JUMPDEST PUSH2 0x38B DUP1 PUSH2 0x128 PUSH1 0x0 CODECOPY PUSH1 0x0 RETURN INVALID PUSH1 0x80 PUSH1 0x40 MSTORE CALLVALUE DUP1 ISZERO PUSH2 0x10 JUMPI PUSH1 0x0 DUP1 REVERT JUMPDEST POP PUSH1 0x4 CALLDATASIZE LT PUSH2 0x36 JUMPI PUSH1 0x0 CALLDATALOAD PUSH1 0xE0 SHR DUP1 PUSH4 0xEFEBD875 EQ PUSH2 0x3B JUMPI DUP1 PUSH4 0xFD966C5B EQ PUSH2 0x59 JUMPI JUMPDEST PUSH1 0x0 DUP1 REVERT JUMPDEST PUSH2 0x43 PUSH2 0x78 JUMP JUMPDEST PUSH1 0x40 MLOAD PUSH2 0x50 SWAP2 SWAP1 PUSH2 0x2E1 JUMP JUMPDEST PUSH1 0x40 MLOAD DUP1 SWAP2 SUB SWAP1 RETURN JUMPDEST PUSH2 0x61 PUSH2 0xE9 JUMP JUMPDEST PUSH1 0x40 MLOAD PUSH2 0x6F SWAP3 SWAP2 SWAP1 PUSH2 0x2FC JUMP JUMPDEST PUSH1 0x40 MLOAD DUP1 SWAP2 SUB SWAP1 RETURN JUMPDEST PUSH2 0x80 PUSH2 0x207 JUMP JUMPDEST PUSH1 0x0 PUSH1 0x5 DUP1 PUSH1 0x20 MUL PUSH1 0x40 MLOAD SWAP1 DUP2 ADD PUSH1 0x40 MSTORE DUP1 SWAP3 SWAP2 SWAP1 DUP3 PUSH1 0x5 DUP1 ISZERO PUSH2 0xDF JUMPI PUSH1 0x20 MUL DUP3 ADD SWAP2 PUSH1 0x0 SWAP1 JUMPDEST DUP3 DUP3 SWAP1 SLOAD SWAP1 PUSH2 0x100 EXP SWAP1 DIV PUSH1 0xFF AND PUSH1 0xFF AND DUP2 MSTORE PUSH1 0x20 ADD SWAP1 PUSH1 0x1 ADD SWAP1 PUSH1 0x20 DUP3 PUSH1 0x0 ADD DIV SWAP3 DUP4 ADD SWAP3 PUSH1 0x1 SUB DUP3 MUL SWAP2 POP DUP1 DUP5 GT PUSH2 0xA8 JUMPI SWAP1 POP JUMPDEST POP POP POP POP POP SWAP1 POP SWAP1 JUMP JUMPDEST PUSH2 0xF1 PUSH2 0x207 JUMP JUMPDEST PUSH2 0xF9 PUSH2 0x207 JUMP JUMPDEST PUSH1 0x0 PUSH1 0x63 DUP2 PUSH1 0x4 PUSH1 0x5 DUP2 LT PUSH2 0x111 JUMPI PUSH2 0x110 PUSH2 0x326 JUMP JUMPDEST JUMPDEST PUSH1 0x20 SWAP2 DUP3 DUP3 DIV ADD SWAP2 SWAP1 MOD PUSH2 0x100 EXP DUP2 SLOAD DUP2 PUSH1 0xFF MUL NOT AND SWAP1 DUP4 PUSH1 0xFF AND MUL OR SWAP1 SSTORE POP PUSH1 0x0 DUP2 DUP2 PUSH1 0x5 DUP1 PUSH1 0x20 MUL PUSH1 0x40 MLOAD SWAP1 DUP2 ADD PUSH1 0x40 MSTORE DUP1 SWAP3 SWAP2 SWAP1 DUP3 PUSH1 0x5 DUP1 ISZERO PUSH2 0x192 JUMPI PUSH1 0x20 MUL DUP3 ADD SWAP2 PUSH1 0x0 SWAP1 JUMPDEST DUP3 DUP3 SWAP1 SLOAD SWAP1 PUSH2 0x100 EXP SWAP1 DIV PUSH1 0xFF AND PUSH1 0xFF AND DUP2 MSTORE PUSH1 0x20 ADD SWAP1 PUSH1 0x1 ADD SWAP1 PUSH1 0x20 DUP3 PUSH1 0x0 ADD DIV SWAP3 DUP4 ADD SWAP3 PUSH1 0x1 SUB DUP3 MUL SWAP2 POP DUP1 DUP5 GT PUSH2 0x15B JUMPI SWAP1 POP JUMPDEST POP POP POP POP POP SWAP2 POP DUP1 PUSH1 0x5 DUP1 PUSH1 0x20 MUL PUSH1 0x40 MLOAD SWAP1 DUP2 ADD PUSH1 0x40 MSTORE DUP1 SWAP3 SWAP2 SWAP1 DUP3 PUSH1 0x5 DUP1 ISZERO PUSH2 0x1F7 JUMPI PUSH1 0x20 MUL DUP3 ADD SWAP2 PUSH1 0x0 SWAP1 JUMPDEST DUP3 DUP3 SWAP1 SLOAD SWAP1 PUSH2 0x100 EXP SWAP1 DIV PUSH1 0xFF AND PUSH1 0xFF AND DUP2 MSTORE PUSH1 0x20 ADD SWAP1 PUSH1 0x1 ADD SWAP1 PUSH1 0x20 DUP3 PUSH1 0x0 ADD DIV SWAP3 DUP4 ADD SWAP3 PUSH1 0x1 SUB DUP3 MUL SWAP2 POP DUP1 DUP5 GT PUSH2 0x1C0 JUMPI SWAP1 POP JUMPDEST POP POP POP POP POP SWAP1 POP SWAP3 POP SWAP3 POP POP SWAP1 SWAP2 JUMP JUMPDEST PUSH1 0x40 MLOAD DUP1 PUSH1 0xA0 ADD PUSH1 0x40 MSTORE DUP1 PUSH1 0x5 SWAP1 PUSH1 0x20 DUP3 MUL DUP1 CALLDATASIZE DUP4 CALLDATACOPY DUP1 DUP3 ADD SWAP2 POP POP SWAP1 POP POP SWAP1 JUMP JUMPDEST PUSH1 0x0 PUSH1 0x5 SWAP1 POP SWAP2 SWAP1 POP JUMP JUMPDEST PUSH1 0x0 DUP2 SWAP1 POP SWAP3 SWAP2 POP POP JUMP JUMPDEST PUSH1 0x0 DUP2 SWAP1 POP SWAP2 SWAP1 POP JUMP JUMPDEST PUSH1 0x0 PUSH1 0xFF DUP3 AND SWAP1 POP SWAP2 SWAP1 POP JUMP JUMPDEST PUSH2 0x25F DUP2 PUSH2 0x249 JUMP JUMPDEST DUP3 MSTORE POP POP JUMP JUMPDEST PUSH1 0x0 PUSH2 0x271 DUP4 DUP4 PUSH2 0x256 JUMP JUMPDEST PUSH1 0x20 DUP4 ADD SWAP1 POP SWAP3 SWAP2 POP POP JUMP JUMPDEST PUSH1 0x0 PUSH1 0x20 DUP3 ADD SWAP1 POP SWAP2 SWAP1 POP JUMP JUMPDEST PUSH2 0x293 DUP2 PUSH2 0x229 JUMP JUMPDEST PUSH2 0x29D DUP2 DUP5 PUSH2 0x234 JUMP JUMPDEST SWAP3 POP PUSH2 0x2A8 DUP3 PUSH2 0x23F JUMP JUMPDEST DUP1 PUSH1 0x0 JUMPDEST DUP4 DUP2 LT ISZERO PUSH2 0x2D9 JUMPI DUP2 MLOAD PUSH2 0x2C0 DUP8 DUP3 PUSH2 0x265 JUMP JUMPDEST SWAP7 POP PUSH2 0x2CB DUP4 PUSH2 0x27D JUMP JUMPDEST SWAP3 POP POP PUSH1 0x1 DUP2 ADD SWAP1 POP PUSH2 0x2AC JUMP JUMPDEST POP POP POP POP POP POP JUMP JUMPDEST PUSH1 0x0 PUSH1 0xA0 DUP3 ADD SWAP1 POP PUSH2 0x2F6 PUSH1 0x0 DUP4 ADD DUP5 PUSH2 0x28A JUMP JUMPDEST SWAP3 SWAP2 POP POP JUMP JUMPDEST PUSH1 0x0 PUSH2 0x140 DUP3 ADD SWAP1 POP PUSH2 0x312 PUSH1 0x0 DUP4 ADD DUP6 PUSH2 0x28A JUMP JUMPDEST PUSH2 0x31F PUSH1 0xA0 DUP4 ADD DUP5 PUSH2 0x28A JUMP JUMPDEST SWAP4 SWAP3 POP POP POP JUMP JUMPDEST PUSH32 0x4E487B7100000000000000000000000000000000000000000000000000000000 PUSH1 0x0 MSTORE PUSH1 0x32 PUSH1 0x4 MSTORE PUSH1 0x24 PUSH1 0x0 REVERT INVALID LOG2 PUSH5 0x6970667358 0x22 SLT KECCAK256 0xD4 0x5D 0xB1 0x28 DUP11 0xB8 POP 0x5F PUSH17 0xF0754A3C319095BE7B037868E07CA70070 PUSH12 0x51619907CB64736F6C634300 ADDMOD SLT STOP CALLER "
				},
				"gasEstimates": {
					"creation": {
						"codeDepositCost": "181400",
						"executionCost": "infinite",
						"totalCost": "infinite"
					},
					"external": {
						"getArrays()": "infinite",
						"getArraysView()": "infinite"
					}
				},
				"methodIdentifiers": {
					"getArrays()": "fd966c5b",
					"getArraysView()": "efebd875"
				}
			},
			"storageLayout": {
				"storage": [
					{
						"astId": 11,
						"contract": "Fall-2023/Copy_21_StorageVsMemory.sol:StorageStorage",
						"label": "stateArray",
						"offset": 0,
						"slot": "0",
						"type": "t_array(t_uint8)5_storage"
					}
				],
				"types": {
					"t_array(t_uint8)5_storage": {
						"base": "t_uint8",
						"encoding": "inplace",
						"label": "uint8[5]",
						"numberOfBytes": "32"
					},
					"t_uint8": {
						"encoding": "inplace",
						"label": "uint8",
						"numberOfBytes": "1"
					}
				}
			},
			"userdoc": {
				"kind": "user",
				"methods": {},
				"version": 1
			}
		}
	}
}