{
	"Fall-2023/17_MappingStruct.sol": {
		"StudentMapping": {
			"abi": [
				{
					"inputs": [
						{
							"internalType": "uint256",
							"name": "_roll_no",
							"type": "uint256"
						}
					],
					"name": "getMappingRecord",
					"outputs": [
						{
							"components": [
								{
									"internalType": "uint256",
									"name": "roll_no",
									"type": "uint256"
								},
								{
									"internalType": "string",
									"name": "name",
									"type": "string"
								},
								{
									"internalType": "string",
									"name": "program",
									"type": "string"
								}
							],
							"internalType": "struct Student",
							"name": "",
							"type": "tuple"
						}
					],
					"stateMutability": "view",
					"type": "function"
				},
				{
					"inputs": [
						{
							"internalType": "uint256",
							"name": "_roll_no",
							"type": "uint256"
						}
					],
					"name": "getRecord",
					"outputs": [
						{
							"components": [
								{
									"internalType": "uint256",
									"name": "roll_no",
									"type": "uint256"
								},
								{
									"internalType": "string",
									"name": "name",
									"type": "string"
								},
								{
									"internalType": "string",
									"name": "program",
									"type": "string"
								}
							],
							"internalType": "struct Student",
							"name": "",
							"type": "tuple"
						}
					],
					"stateMutability": "view",
					"type": "function"
				},
				{
					"inputs": [
						{
							"internalType": "uint256",
							"name": "_roll_no",
							"type": "uint256"
						},
						{
							"internalType": "string",
							"name": "_name",
							"type": "string"
						},
						{
							"internalType": "string",
							"name": "_program",
							"type": "string"
						}
					],
					"name": "setMappingRecord",
					"outputs": [],
					"stateMutability": "nonpayable",
					"type": "function"
				},
				{
					"inputs": [
						{
							"internalType": "uint256",
							"name": "_roll_no",
							"type": "uint256"
						},
						{
							"internalType": "string",
							"name": "_name",
							"type": "string"
						},
						{
							"internalType": "string",
							"name": "_program",
							"type": "string"
						}
					],
					"name": "setRecord",
					"outputs": [],
					"stateMutability": "nonpayable",
					"type": "function"
				}
			],
			"devdoc": {
				"kind": "dev",
				"methods": {},
				"version": 1
			},
			"evm": {
				"assembly": "    /* \"Fall-2023/17_MappingStruct.sol\":170:1304  contract StudentMapping... */\n  mstore(0x40, 0x80)\n  callvalue\n  dup1\n  iszero\n  tag_1\n  jumpi\n  0x00\n  dup1\n  revert\ntag_1:\n  pop\n  dataSize(sub_0)\n  dup1\n  dataOffset(sub_0)\n  0x00\n  codecopy\n  0x00\n  return\nstop\n\nsub_0: assembly {\n        /* \"Fall-2023/17_MappingStruct.sol\":170:1304  contract StudentMapping... */\n      mstore(0x40, 0x80)\n      callvalue\n      dup1\n      iszero\n      tag_1\n      jumpi\n      0x00\n      dup1\n      revert\n    tag_1:\n      pop\n      jumpi(tag_2, lt(calldatasize, 0x04))\n      shr(0xe0, calldataload(0x00))\n      dup1\n      0x03e9e609\n      eq\n      tag_3\n      jumpi\n      dup1\n      0x4546143e\n      eq\n      tag_4\n      jumpi\n      dup1\n      0xa19417d5\n      eq\n      tag_5\n      jumpi\n      dup1\n      0xa35a941e\n      eq\n      tag_6\n      jumpi\n    tag_2:\n      0x00\n      dup1\n      revert\n        /* \"Fall-2023/17_MappingStruct.sol\":1004:1299  function getRecord(uint _roll_no) public view returns(Student memory){... */\n    tag_3:\n      tag_7\n      0x04\n      dup1\n      calldatasize\n      sub\n      dup2\n      add\n      swap1\n      tag_8\n      swap2\n      swap1\n      tag_9\n      jump\t// in\n    tag_8:\n      tag_10\n      jump\t// in\n    tag_7:\n      mload(0x40)\n      tag_11\n      swap2\n      swap1\n      tag_12\n      jump\t// in\n    tag_11:\n      mload(0x40)\n      dup1\n      swap2\n      sub\n      swap1\n      return\n        /* \"Fall-2023/17_MappingStruct.sol\":309:661  function setMappingRecord(uint _roll_no, string memory _name, string memory _program) public {... */\n    tag_4:\n      tag_13\n      0x04\n      dup1\n      calldatasize\n      sub\n      dup2\n      add\n      swap1\n      tag_14\n      swap2\n      swap1\n      tag_15\n      jump\t// in\n    tag_14:\n      tag_16\n      jump\t// in\n    tag_13:\n      stop\n        /* \"Fall-2023/17_MappingStruct.sol\":669:795  function getMappingRecord(uint _roll_no) public view returns(Student memory){... */\n    tag_5:\n      tag_17\n      0x04\n      dup1\n      calldatasize\n      sub\n      dup2\n      add\n      swap1\n      tag_18\n      swap2\n      swap1\n      tag_9\n      jump\t// in\n    tag_18:\n      tag_19\n      jump\t// in\n    tag_17:\n      mload(0x40)\n      tag_20\n      swap2\n      swap1\n      tag_12\n      jump\t// in\n    tag_20:\n      mload(0x40)\n      dup1\n      swap2\n      sub\n      swap1\n      return\n        /* \"Fall-2023/17_MappingStruct.sol\":803:996  function setRecord(uint _roll_no, string memory _name, string memory _program) public {... */\n    tag_6:\n      tag_21\n      0x04\n      dup1\n      calldatasize\n      sub\n      dup2\n      add\n      swap1\n      tag_22\n      swap2\n      swap1\n      tag_15\n      jump\t// in\n    tag_22:\n      tag_23\n      jump\t// in\n    tag_21:\n      stop\n        /* \"Fall-2023/17_MappingStruct.sol\":1004:1299  function getRecord(uint _roll_no) public view returns(Student memory){... */\n    tag_10:\n        /* \"Fall-2023/17_MappingStruct.sol\":1058:1072  Student memory */\n      tag_24\n      tag_25\n      jump\t// in\n    tag_24:\n        /* \"Fall-2023/17_MappingStruct.sol\":1088:1094  uint i */\n      0x00\n        /* \"Fall-2023/17_MappingStruct.sol\":1084:1216  for(uint i=0; i<records.length; i++){... */\n    tag_27:\n        /* \"Fall-2023/17_MappingStruct.sol\":1100:1107  records */\n      0x01\n        /* \"Fall-2023/17_MappingStruct.sol\":1100:1114  records.length */\n      dup1\n      sload\n      swap1\n      pop\n        /* \"Fall-2023/17_MappingStruct.sol\":1098:1099  i */\n      dup2\n        /* \"Fall-2023/17_MappingStruct.sol\":1098:1114  i<records.length */\n      lt\n        /* \"Fall-2023/17_MappingStruct.sol\":1084:1216  for(uint i=0; i<records.length; i++){... */\n      iszero\n      tag_28\n      jumpi\n        /* \"Fall-2023/17_MappingStruct.sol\":1160:1168  _roll_no */\n      dup3\n        /* \"Fall-2023/17_MappingStruct.sol\":1138:1145  records */\n      0x01\n        /* \"Fall-2023/17_MappingStruct.sol\":1146:1147  i */\n      dup3\n        /* \"Fall-2023/17_MappingStruct.sol\":1138:1148  records[i] */\n      dup2\n      sload\n      dup2\n      lt\n      tag_30\n      jumpi\n      tag_31\n      tag_32\n      jump\t// in\n    tag_31:\n    tag_30:\n      swap1\n      0x00\n      mstore\n      keccak256(0x00, 0x20)\n      swap1\n      0x03\n      mul\n      add\n        /* \"Fall-2023/17_MappingStruct.sol\":1138:1156  records[i].roll_no */\n      0x00\n      add\n      sload\n        /* \"Fall-2023/17_MappingStruct.sol\":1138:1168  records[i].roll_no == _roll_no */\n      sub\n        /* \"Fall-2023/17_MappingStruct.sol\":1135:1208  if(records[i].roll_no == _roll_no)    ... */\n      tag_34\n      jumpi\n        /* \"Fall-2023/17_MappingStruct.sol\":1198:1205  records */\n      0x01\n        /* \"Fall-2023/17_MappingStruct.sol\":1206:1207  i */\n      dup2\n        /* \"Fall-2023/17_MappingStruct.sol\":1198:1208  records[i] */\n      dup2\n      sload\n      dup2\n      lt\n      tag_35\n      jumpi\n      tag_36\n      tag_32\n      jump\t// in\n    tag_36:\n    tag_35:\n      swap1\n      0x00\n      mstore\n      keccak256(0x00, 0x20)\n      swap1\n      0x03\n      mul\n      add\n        /* \"Fall-2023/17_MappingStruct.sol\":1191:1208  return records[i] */\n      mload(0x40)\n      dup1\n      0x60\n      add\n      0x40\n      mstore\n      swap1\n      dup2\n      0x00\n      dup3\n      add\n      sload\n      dup2\n      mstore\n      0x20\n      add\n      0x01\n      dup3\n      add\n      dup1\n      sload\n      tag_38\n      swap1\n      tag_39\n      jump\t// in\n    tag_38:\n      dup1\n      0x1f\n      add\n      0x20\n      dup1\n      swap2\n      div\n      mul\n      0x20\n      add\n      mload(0x40)\n      swap1\n      dup2\n      add\n      0x40\n      mstore\n      dup1\n      swap3\n      swap2\n      swap1\n      dup2\n      dup2\n      mstore\n      0x20\n      add\n      dup3\n      dup1\n      sload\n      tag_40\n      swap1\n      tag_39\n      jump\t// in\n    tag_40:\n      dup1\n      iszero\n      tag_41\n      jumpi\n      dup1\n      0x1f\n      lt\n      tag_42\n      jumpi\n      0x0100\n      dup1\n      dup4\n      sload\n      div\n      mul\n      dup4\n      mstore\n      swap2\n      0x20\n      add\n      swap2\n      jump(tag_41)\n    tag_42:\n      dup3\n      add\n      swap2\n      swap1\n      0x00\n      mstore\n      keccak256(0x00, 0x20)\n      swap1\n    tag_43:\n      dup2\n      sload\n      dup2\n      mstore\n      swap1\n      0x01\n      add\n      swap1\n      0x20\n      add\n      dup1\n      dup4\n      gt\n      tag_43\n      jumpi\n      dup3\n      swap1\n      sub\n      0x1f\n      and\n      dup3\n      add\n      swap2\n    tag_41:\n      pop\n      pop\n      pop\n      pop\n      pop\n      dup2\n      mstore\n      0x20\n      add\n      0x02\n      dup3\n      add\n      dup1\n      sload\n      tag_44\n      swap1\n      tag_39\n      jump\t// in\n    tag_44:\n      dup1\n      0x1f\n      add\n      0x20\n      dup1\n      swap2\n      div\n      mul\n      0x20\n      add\n      mload(0x40)\n      swap1\n      dup2\n      add\n      0x40\n      mstore\n      dup1\n      swap3\n      swap2\n      swap1\n      dup2\n      dup2\n      mstore\n      0x20\n      add\n      dup3\n      dup1\n      sload\n      tag_45\n      swap1\n      tag_39\n      jump\t// in\n    tag_45:\n      dup1\n      iszero\n      tag_46\n      jumpi\n      dup1\n      0x1f\n      lt\n      tag_47\n      jumpi\n      0x0100\n      dup1\n      dup4\n      sload\n      div\n      mul\n      dup4\n      mstore\n      swap2\n      0x20\n      add\n      swap2\n      jump(tag_46)\n    tag_47:\n      dup3\n      add\n      swap2\n      swap1\n      0x00\n      mstore\n      keccak256(0x00, 0x20)\n      swap1\n    tag_48:\n      dup2\n      sload\n      dup2\n      mstore\n      swap1\n      0x01\n      add\n      swap1\n      0x20\n      add\n      dup1\n      dup4\n      gt\n      tag_48\n      jumpi\n      dup3\n      swap1\n      sub\n      0x1f\n      and\n      dup3\n      add\n      swap2\n    tag_46:\n      pop\n      pop\n      pop\n      pop\n      pop\n      dup2\n      mstore\n      pop\n      pop\n      swap2\n      pop\n      pop\n      jump(tag_26)\n        /* \"Fall-2023/17_MappingStruct.sol\":1135:1208  if(records[i].roll_no == _roll_no)    ... */\n    tag_34:\n        /* \"Fall-2023/17_MappingStruct.sol\":1116:1119  i++ */\n      dup1\n      dup1\n      tag_49\n      swap1\n      tag_50\n      jump\t// in\n    tag_49:\n      swap2\n      pop\n      pop\n        /* \"Fall-2023/17_MappingStruct.sol\":1084:1216  for(uint i=0; i<records.length; i++){... */\n      jump(tag_27)\n    tag_28:\n      pop\n        /* \"Fall-2023/17_MappingStruct.sol\":1236:1262  Student memory nullStudent */\n      tag_51\n      tag_25\n      jump\t// in\n    tag_51:\n        /* \"Fall-2023/17_MappingStruct.sol\":1280:1291  nullStudent */\n      dup1\n        /* \"Fall-2023/17_MappingStruct.sol\":1273:1291  return nullStudent */\n      swap2\n      pop\n      pop\n        /* \"Fall-2023/17_MappingStruct.sol\":1004:1299  function getRecord(uint _roll_no) public view returns(Student memory){... */\n    tag_26:\n      swap2\n      swap1\n      pop\n      jump\t// out\n        /* \"Fall-2023/17_MappingStruct.sol\":309:661  function setMappingRecord(uint _roll_no, string memory _name, string memory _program) public {... */\n    tag_16:\n        /* \"Fall-2023/17_MappingStruct.sol\":440:474  Student(_roll_no, _name, _program) */\n      mload(0x40)\n      dup1\n      0x60\n      add\n      0x40\n      mstore\n      dup1\n        /* \"Fall-2023/17_MappingStruct.sol\":448:456  _roll_no */\n      dup5\n        /* \"Fall-2023/17_MappingStruct.sol\":440:474  Student(_roll_no, _name, _program) */\n      dup2\n      mstore\n      0x20\n      add\n        /* \"Fall-2023/17_MappingStruct.sol\":458:463  _name */\n      dup4\n        /* \"Fall-2023/17_MappingStruct.sol\":440:474  Student(_roll_no, _name, _program) */\n      dup2\n      mstore\n      0x20\n      add\n        /* \"Fall-2023/17_MappingStruct.sol\":465:473  _program */\n      dup3\n        /* \"Fall-2023/17_MappingStruct.sol\":440:474  Student(_roll_no, _name, _program) */\n      dup2\n      mstore\n      pop\n        /* \"Fall-2023/17_MappingStruct.sol\":413:427  mappingRecords */\n      0x00\n        /* \"Fall-2023/17_MappingStruct.sol\":413:437  mappingRecords[_roll_no] */\n      dup1\n        /* \"Fall-2023/17_MappingStruct.sol\":428:436  _roll_no */\n      dup6\n        /* \"Fall-2023/17_MappingStruct.sol\":413:437  mappingRecords[_roll_no] */\n      dup2\n      mstore\n      0x20\n      add\n      swap1\n      dup2\n      mstore\n      0x20\n      add\n      0x00\n      keccak256\n        /* \"Fall-2023/17_MappingStruct.sol\":413:474  mappingRecords[_roll_no] = Student(_roll_no, _name, _program) */\n      0x00\n      dup3\n      add\n      mload\n      dup2\n      0x00\n      add\n      sstore\n      0x20\n      dup3\n      add\n      mload\n      dup2\n      0x01\n      add\n      swap1\n      dup2\n      tag_53\n      swap2\n      swap1\n      tag_54\n      jump\t// in\n    tag_53:\n      pop\n      0x40\n      dup3\n      add\n      mload\n      dup2\n      0x02\n      add\n      swap1\n      dup2\n      tag_55\n      swap2\n      swap1\n      tag_54\n      jump\t// in\n    tag_55:\n      pop\n      swap1\n      pop\n      pop\n        /* \"Fall-2023/17_MappingStruct.sol\":309:661  function setMappingRecord(uint _roll_no, string memory _name, string memory _program) public {... */\n      pop\n      pop\n      pop\n      jump\t// out\n        /* \"Fall-2023/17_MappingStruct.sol\":669:795  function getMappingRecord(uint _roll_no) public view returns(Student memory){... */\n    tag_19:\n        /* \"Fall-2023/17_MappingStruct.sol\":730:744  Student memory */\n      tag_56\n      tag_25\n      jump\t// in\n    tag_56:\n        /* \"Fall-2023/17_MappingStruct.sol\":763:777  mappingRecords */\n      0x00\n        /* \"Fall-2023/17_MappingStruct.sol\":763:787  mappingRecords[_roll_no] */\n      dup1\n        /* \"Fall-2023/17_MappingStruct.sol\":778:786  _roll_no */\n      dup4\n        /* \"Fall-2023/17_MappingStruct.sol\":763:787  mappingRecords[_roll_no] */\n      dup2\n      mstore\n      0x20\n      add\n      swap1\n      dup2\n      mstore\n      0x20\n      add\n      0x00\n      keccak256\n        /* \"Fall-2023/17_MappingStruct.sol\":756:787  return mappingRecords[_roll_no] */\n      mload(0x40)\n      dup1\n      0x60\n      add\n      0x40\n      mstore\n      swap1\n      dup2\n      0x00\n      dup3\n      add\n      sload\n      dup2\n      mstore\n      0x20\n      add\n      0x01\n      dup3\n      add\n      dup1\n      sload\n      tag_58\n      swap1\n      tag_39\n      jump\t// in\n    tag_58:\n      dup1\n      0x1f\n      add\n      0x20\n      dup1\n      swap2\n      div\n      mul\n      0x20\n      add\n      mload(0x40)\n      swap1\n      dup2\n      add\n      0x40\n      mstore\n      dup1\n      swap3\n      swap2\n      swap1\n      dup2\n      dup2\n      mstore\n      0x20\n      add\n      dup3\n      dup1\n      sload\n      tag_59\n      swap1\n      tag_39\n      jump\t// in\n    tag_59:\n      dup1\n      iszero\n      tag_60\n      jumpi\n      dup1\n      0x1f\n      lt\n      tag_61\n      jumpi\n      0x0100\n      dup1\n      dup4\n      sload\n      div\n      mul\n      dup4\n      mstore\n      swap2\n      0x20\n      add\n      swap2\n      jump(tag_60)\n    tag_61:\n      dup3\n      add\n      swap2\n      swap1\n      0x00\n      mstore\n      keccak256(0x00, 0x20)\n      swap1\n    tag_62:\n      dup2\n      sload\n      dup2\n      mstore\n      swap1\n      0x01\n      add\n      swap1\n      0x20\n      add\n      dup1\n      dup4\n      gt\n      tag_62\n      jumpi\n      dup3\n      swap1\n      sub\n      0x1f\n      and\n      dup3\n      add\n      swap2\n    tag_60:\n      pop\n      pop\n      pop\n      pop\n      pop\n      dup2\n      mstore\n      0x20\n      add\n      0x02\n      dup3\n      add\n      dup1\n      sload\n      tag_63\n      swap1\n      tag_39\n      jump\t// in\n    tag_63:\n      dup1\n      0x1f\n      add\n      0x20\n      dup1\n      swap2\n      div\n      mul\n      0x20\n      add\n      mload(0x40)\n      swap1\n      dup2\n      add\n      0x40\n      mstore\n      dup1\n      swap3\n      swap2\n      swap1\n      dup2\n      dup2\n      mstore\n      0x20\n      add\n      dup3\n      dup1\n      sload\n      tag_64\n      swap1\n      tag_39\n      jump\t// in\n    tag_64:\n      dup1\n      iszero\n      tag_65\n      jumpi\n      dup1\n      0x1f\n      lt\n      tag_66\n      jumpi\n      0x0100\n      dup1\n      dup4\n      sload\n      div\n      mul\n      dup4\n      mstore\n      swap2\n      0x20\n      add\n      swap2\n      jump(tag_65)\n    tag_66:\n      dup3\n      add\n      swap2\n      swap1\n      0x00\n      mstore\n      keccak256(0x00, 0x20)\n      swap1\n    tag_67:\n      dup2\n      sload\n      dup2\n      mstore\n      swap1\n      0x01\n      add\n      swap1\n      0x20\n      add\n      dup1\n      dup4\n      gt\n      tag_67\n      jumpi\n      dup3\n      swap1\n      sub\n      0x1f\n      and\n      dup3\n      add\n      swap2\n    tag_65:\n      pop\n      pop\n      pop\n      pop\n      pop\n      dup2\n      mstore\n      pop\n      pop\n      swap1\n      pop\n        /* \"Fall-2023/17_MappingStruct.sol\":669:795  function getMappingRecord(uint _roll_no) public view returns(Student memory){... */\n      swap2\n      swap1\n      pop\n      jump\t// out\n        /* \"Fall-2023/17_MappingStruct.sol\":803:996  function setRecord(uint _roll_no, string memory _name, string memory _program) public {... */\n    tag_23:\n        /* \"Fall-2023/17_MappingStruct.sol\":936:943  records */\n      0x01\n        /* \"Fall-2023/17_MappingStruct.sol\":950:984  Student(_roll_no, _name, _program) */\n      mload(0x40)\n      dup1\n      0x60\n      add\n      0x40\n      mstore\n      dup1\n        /* \"Fall-2023/17_MappingStruct.sol\":958:966  _roll_no */\n      dup6\n        /* \"Fall-2023/17_MappingStruct.sol\":950:984  Student(_roll_no, _name, _program) */\n      dup2\n      mstore\n      0x20\n      add\n        /* \"Fall-2023/17_MappingStruct.sol\":968:973  _name */\n      dup5\n        /* \"Fall-2023/17_MappingStruct.sol\":950:984  Student(_roll_no, _name, _program) */\n      dup2\n      mstore\n      0x20\n      add\n        /* \"Fall-2023/17_MappingStruct.sol\":975:983  _program */\n      dup4\n        /* \"Fall-2023/17_MappingStruct.sol\":950:984  Student(_roll_no, _name, _program) */\n      dup2\n      mstore\n      pop\n        /* \"Fall-2023/17_MappingStruct.sol\":936:985  records.push( Student(_roll_no, _name, _program)) */\n      swap1\n      dup1\n      0x01\n      dup2\n      sload\n      add\n      dup1\n      dup3\n      sstore\n      dup1\n      swap2\n      pop\n      pop\n      0x01\n      swap1\n      sub\n      swap1\n      0x00\n      mstore\n      keccak256(0x00, 0x20)\n      swap1\n      0x03\n      mul\n      add\n      0x00\n      swap1\n      swap2\n      swap1\n      swap2\n      swap1\n      swap2\n      pop\n      0x00\n      dup3\n      add\n      mload\n      dup2\n      0x00\n      add\n      sstore\n      0x20\n      dup3\n      add\n      mload\n      dup2\n      0x01\n      add\n      swap1\n      dup2\n      tag_70\n      swap2\n      swap1\n      tag_54\n      jump\t// in\n    tag_70:\n      pop\n      0x40\n      dup3\n      add\n      mload\n      dup2\n      0x02\n      add\n      swap1\n      dup2\n      tag_71\n      swap2\n      swap1\n      tag_54\n      jump\t// in\n    tag_71:\n      pop\n      pop\n      pop\n        /* \"Fall-2023/17_MappingStruct.sol\":803:996  function setRecord(uint _roll_no, string memory _name, string memory _program) public {... */\n      pop\n      pop\n      pop\n      jump\t// out\n    tag_25:\n      mload(0x40)\n      dup1\n      0x60\n      add\n      0x40\n      mstore\n      dup1\n      0x00\n      dup2\n      mstore\n      0x20\n      add\n      0x60\n      dup2\n      mstore\n      0x20\n      add\n      0x60\n      dup2\n      mstore\n      pop\n      swap1\n      jump\t// out\n        /* \"#utility.yul\":7:82   */\n    tag_72:\n        /* \"#utility.yul\":40:46   */\n      0x00\n        /* \"#utility.yul\":73:75   */\n      0x40\n        /* \"#utility.yul\":67:76   */\n      mload\n        /* \"#utility.yul\":57:76   */\n      swap1\n      pop\n        /* \"#utility.yul\":7:82   */\n      swap1\n      jump\t// out\n        /* \"#utility.yul\":88:205   */\n    tag_73:\n        /* \"#utility.yul\":197:198   */\n      0x00\n        /* \"#utility.yul\":194:195   */\n      dup1\n        /* \"#utility.yul\":187:199   */\n      revert\n        /* \"#utility.yul\":211:328   */\n    tag_74:\n        /* \"#utility.yul\":320:321   */\n      0x00\n        /* \"#utility.yul\":317:318   */\n      dup1\n        /* \"#utility.yul\":310:322   */\n      revert\n        /* \"#utility.yul\":334:411   */\n    tag_75:\n        /* \"#utility.yul\":371:378   */\n      0x00\n        /* \"#utility.yul\":400:405   */\n      dup2\n        /* \"#utility.yul\":389:405   */\n      swap1\n      pop\n        /* \"#utility.yul\":334:411   */\n      swap2\n      swap1\n      pop\n      jump\t// out\n        /* \"#utility.yul\":417:539   */\n    tag_76:\n        /* \"#utility.yul\":490:514   */\n      tag_117\n        /* \"#utility.yul\":508:513   */\n      dup2\n        /* \"#utility.yul\":490:514   */\n      tag_75\n      jump\t// in\n    tag_117:\n        /* \"#utility.yul\":483:488   */\n      dup2\n        /* \"#utility.yul\":480:515   */\n      eq\n        /* \"#utility.yul\":470:533   */\n      tag_118\n      jumpi\n        /* \"#utility.yul\":529:530   */\n      0x00\n        /* \"#utility.yul\":526:527   */\n      dup1\n        /* \"#utility.yul\":519:531   */\n      revert\n        /* \"#utility.yul\":470:533   */\n    tag_118:\n        /* \"#utility.yul\":417:539   */\n      pop\n      jump\t// out\n        /* \"#utility.yul\":545:684   */\n    tag_77:\n        /* \"#utility.yul\":591:596   */\n      0x00\n        /* \"#utility.yul\":629:635   */\n      dup2\n        /* \"#utility.yul\":616:636   */\n      calldataload\n        /* \"#utility.yul\":607:636   */\n      swap1\n      pop\n        /* \"#utility.yul\":645:678   */\n      tag_120\n        /* \"#utility.yul\":672:677   */\n      dup2\n        /* \"#utility.yul\":645:678   */\n      tag_76\n      jump\t// in\n    tag_120:\n        /* \"#utility.yul\":545:684   */\n      swap3\n      swap2\n      pop\n      pop\n      jump\t// out\n        /* \"#utility.yul\":690:1019   */\n    tag_9:\n        /* \"#utility.yul\":749:755   */\n      0x00\n        /* \"#utility.yul\":798:800   */\n      0x20\n        /* \"#utility.yul\":786:795   */\n      dup3\n        /* \"#utility.yul\":777:784   */\n      dup5\n        /* \"#utility.yul\":773:796   */\n      sub\n        /* \"#utility.yul\":769:801   */\n      slt\n        /* \"#utility.yul\":766:885   */\n      iszero\n      tag_122\n      jumpi\n        /* \"#utility.yul\":804:883   */\n      tag_123\n      tag_73\n      jump\t// in\n    tag_123:\n        /* \"#utility.yul\":766:885   */\n    tag_122:\n        /* \"#utility.yul\":924:925   */\n      0x00\n        /* \"#utility.yul\":949:1002   */\n      tag_124\n        /* \"#utility.yul\":994:1001   */\n      dup5\n        /* \"#utility.yul\":985:991   */\n      dup3\n        /* \"#utility.yul\":974:983   */\n      dup6\n        /* \"#utility.yul\":970:992   */\n      add\n        /* \"#utility.yul\":949:1002   */\n      tag_77\n      jump\t// in\n    tag_124:\n        /* \"#utility.yul\":939:1002   */\n      swap2\n      pop\n        /* \"#utility.yul\":895:1012   */\n      pop\n        /* \"#utility.yul\":690:1019   */\n      swap3\n      swap2\n      pop\n      pop\n      jump\t// out\n        /* \"#utility.yul\":1025:1133   */\n    tag_78:\n        /* \"#utility.yul\":1102:1126   */\n      tag_126\n        /* \"#utility.yul\":1120:1125   */\n      dup2\n        /* \"#utility.yul\":1102:1126   */\n      tag_75\n      jump\t// in\n    tag_126:\n        /* \"#utility.yul\":1097:1100   */\n      dup3\n        /* \"#utility.yul\":1090:1127   */\n      mstore\n        /* \"#utility.yul\":1025:1133   */\n      pop\n      pop\n      jump\t// out\n        /* \"#utility.yul\":1139:1238   */\n    tag_79:\n        /* \"#utility.yul\":1191:1197   */\n      0x00\n        /* \"#utility.yul\":1225:1230   */\n      dup2\n        /* \"#utility.yul\":1219:1231   */\n      mload\n        /* \"#utility.yul\":1209:1231   */\n      swap1\n      pop\n        /* \"#utility.yul\":1139:1238   */\n      swap2\n      swap1\n      pop\n      jump\t// out\n        /* \"#utility.yul\":1244:1403   */\n    tag_80:\n        /* \"#utility.yul\":1318:1329   */\n      0x00\n        /* \"#utility.yul\":1352:1358   */\n      dup3\n        /* \"#utility.yul\":1347:1350   */\n      dup3\n        /* \"#utility.yul\":1340:1359   */\n      mstore\n        /* \"#utility.yul\":1392:1396   */\n      0x20\n        /* \"#utility.yul\":1387:1390   */\n      dup3\n        /* \"#utility.yul\":1383:1397   */\n      add\n        /* \"#utility.yul\":1368:1397   */\n      swap1\n      pop\n        /* \"#utility.yul\":1244:1403   */\n      swap3\n      swap2\n      pop\n      pop\n      jump\t// out\n        /* \"#utility.yul\":1409:1655   */\n    tag_81:\n        /* \"#utility.yul\":1490:1491   */\n      0x00\n        /* \"#utility.yul\":1500:1613   */\n    tag_130:\n        /* \"#utility.yul\":1514:1520   */\n      dup4\n        /* \"#utility.yul\":1511:1512   */\n      dup2\n        /* \"#utility.yul\":1508:1521   */\n      lt\n        /* \"#utility.yul\":1500:1613   */\n      iszero\n      tag_132\n      jumpi\n        /* \"#utility.yul\":1599:1600   */\n      dup1\n        /* \"#utility.yul\":1594:1597   */\n      dup3\n        /* \"#utility.yul\":1590:1601   */\n      add\n        /* \"#utility.yul\":1584:1602   */\n      mload\n        /* \"#utility.yul\":1580:1581   */\n      dup2\n        /* \"#utility.yul\":1575:1578   */\n      dup5\n        /* \"#utility.yul\":1571:1582   */\n      add\n        /* \"#utility.yul\":1564:1603   */\n      mstore\n        /* \"#utility.yul\":1536:1538   */\n      0x20\n        /* \"#utility.yul\":1533:1534   */\n      dup2\n        /* \"#utility.yul\":1529:1539   */\n      add\n        /* \"#utility.yul\":1524:1539   */\n      swap1\n      pop\n        /* \"#utility.yul\":1500:1613   */\n      jump(tag_130)\n    tag_132:\n        /* \"#utility.yul\":1647:1648   */\n      0x00\n        /* \"#utility.yul\":1638:1644   */\n      dup5\n        /* \"#utility.yul\":1633:1636   */\n      dup5\n        /* \"#utility.yul\":1629:1645   */\n      add\n        /* \"#utility.yul\":1622:1649   */\n      mstore\n        /* \"#utility.yul\":1471:1655   */\n      pop\n        /* \"#utility.yul\":1409:1655   */\n      pop\n      pop\n      pop\n      jump\t// out\n        /* \"#utility.yul\":1661:1763   */\n    tag_82:\n        /* \"#utility.yul\":1702:1708   */\n      0x00\n        /* \"#utility.yul\":1753:1755   */\n      0x1f\n        /* \"#utility.yul\":1749:1756   */\n      not\n        /* \"#utility.yul\":1744:1746   */\n      0x1f\n        /* \"#utility.yul\":1737:1742   */\n      dup4\n        /* \"#utility.yul\":1733:1747   */\n      add\n        /* \"#utility.yul\":1729:1757   */\n      and\n        /* \"#utility.yul\":1719:1757   */\n      swap1\n      pop\n        /* \"#utility.yul\":1661:1763   */\n      swap2\n      swap1\n      pop\n      jump\t// out\n        /* \"#utility.yul\":1769:2126   */\n    tag_83:\n        /* \"#utility.yul\":1847:1850   */\n      0x00\n        /* \"#utility.yul\":1875:1914   */\n      tag_135\n        /* \"#utility.yul\":1908:1913   */\n      dup3\n        /* \"#utility.yul\":1875:1914   */\n      tag_79\n      jump\t// in\n    tag_135:\n        /* \"#utility.yul\":1930:1991   */\n      tag_136\n        /* \"#utility.yul\":1984:1990   */\n      dup2\n        /* \"#utility.yul\":1979:1982   */\n      dup6\n        /* \"#utility.yul\":1930:1991   */\n      tag_80\n      jump\t// in\n    tag_136:\n        /* \"#utility.yul\":1923:1991   */\n      swap4\n      pop\n        /* \"#utility.yul\":2000:2065   */\n      tag_137\n        /* \"#utility.yul\":2058:2064   */\n      dup2\n        /* \"#utility.yul\":2053:2056   */\n      dup6\n        /* \"#utility.yul\":2046:2050   */\n      0x20\n        /* \"#utility.yul\":2039:2044   */\n      dup7\n        /* \"#utility.yul\":2035:2051   */\n      add\n        /* \"#utility.yul\":2000:2065   */\n      tag_81\n      jump\t// in\n    tag_137:\n        /* \"#utility.yul\":2090:2119   */\n      tag_138\n        /* \"#utility.yul\":2112:2118   */\n      dup2\n        /* \"#utility.yul\":2090:2119   */\n      tag_82\n      jump\t// in\n    tag_138:\n        /* \"#utility.yul\":2085:2088   */\n      dup5\n        /* \"#utility.yul\":2081:2120   */\n      add\n        /* \"#utility.yul\":2074:2120   */\n      swap2\n      pop\n        /* \"#utility.yul\":1851:2126   */\n      pop\n        /* \"#utility.yul\":1769:2126   */\n      swap3\n      swap2\n      pop\n      pop\n      jump\t// out\n        /* \"#utility.yul\":2172:3023   */\n    tag_84:\n        /* \"#utility.yul\":2285:2288   */\n      0x00\n        /* \"#utility.yul\":2321:2325   */\n      0x60\n        /* \"#utility.yul\":2316:2319   */\n      dup4\n        /* \"#utility.yul\":2312:2326   */\n      add\n        /* \"#utility.yul\":2411:2415   */\n      0x00\n        /* \"#utility.yul\":2404:2409   */\n      dup4\n        /* \"#utility.yul\":2400:2416   */\n      add\n        /* \"#utility.yul\":2394:2417   */\n      mload\n        /* \"#utility.yul\":2430:2493   */\n      tag_140\n        /* \"#utility.yul\":2487:2491   */\n      0x00\n        /* \"#utility.yul\":2482:2485   */\n      dup7\n        /* \"#utility.yul\":2478:2492   */\n      add\n        /* \"#utility.yul\":2464:2476   */\n      dup3\n        /* \"#utility.yul\":2430:2493   */\n      tag_78\n      jump\t// in\n    tag_140:\n        /* \"#utility.yul\":2336:2503   */\n      pop\n        /* \"#utility.yul\":2585:2589   */\n      0x20\n        /* \"#utility.yul\":2578:2583   */\n      dup4\n        /* \"#utility.yul\":2574:2590   */\n      add\n        /* \"#utility.yul\":2568:2591   */\n      mload\n        /* \"#utility.yul\":2638:2641   */\n      dup5\n        /* \"#utility.yul\":2632:2636   */\n      dup3\n        /* \"#utility.yul\":2628:2642   */\n      sub\n        /* \"#utility.yul\":2621:2625   */\n      0x20\n        /* \"#utility.yul\":2616:2619   */\n      dup7\n        /* \"#utility.yul\":2612:2626   */\n      add\n        /* \"#utility.yul\":2605:2643   */\n      mstore\n        /* \"#utility.yul\":2664:2737   */\n      tag_141\n        /* \"#utility.yul\":2732:2736   */\n      dup3\n        /* \"#utility.yul\":2718:2730   */\n      dup3\n        /* \"#utility.yul\":2664:2737   */\n      tag_83\n      jump\t// in\n    tag_141:\n        /* \"#utility.yul\":2656:2737   */\n      swap2\n      pop\n        /* \"#utility.yul\":2513:2748   */\n      pop\n        /* \"#utility.yul\":2833:2837   */\n      0x40\n        /* \"#utility.yul\":2826:2831   */\n      dup4\n        /* \"#utility.yul\":2822:2838   */\n      add\n        /* \"#utility.yul\":2816:2839   */\n      mload\n        /* \"#utility.yul\":2886:2889   */\n      dup5\n        /* \"#utility.yul\":2880:2884   */\n      dup3\n        /* \"#utility.yul\":2876:2890   */\n      sub\n        /* \"#utility.yul\":2869:2873   */\n      0x40\n        /* \"#utility.yul\":2864:2867   */\n      dup7\n        /* \"#utility.yul\":2860:2874   */\n      add\n        /* \"#utility.yul\":2853:2891   */\n      mstore\n        /* \"#utility.yul\":2912:2985   */\n      tag_142\n        /* \"#utility.yul\":2980:2984   */\n      dup3\n        /* \"#utility.yul\":2966:2978   */\n      dup3\n        /* \"#utility.yul\":2912:2985   */\n      tag_83\n      jump\t// in\n    tag_142:\n        /* \"#utility.yul\":2904:2985   */\n      swap2\n      pop\n        /* \"#utility.yul\":2758:2996   */\n      pop\n        /* \"#utility.yul\":3013:3017   */\n      dup1\n        /* \"#utility.yul\":3006:3017   */\n      swap2\n      pop\n        /* \"#utility.yul\":2290:3023   */\n      pop\n        /* \"#utility.yul\":2172:3023   */\n      swap3\n      swap2\n      pop\n      pop\n      jump\t// out\n        /* \"#utility.yul\":3029:3390   */\n    tag_12:\n        /* \"#utility.yul\":3166:3170   */\n      0x00\n        /* \"#utility.yul\":3204:3206   */\n      0x20\n        /* \"#utility.yul\":3193:3202   */\n      dup3\n        /* \"#utility.yul\":3189:3207   */\n      add\n        /* \"#utility.yul\":3181:3207   */\n      swap1\n      pop\n        /* \"#utility.yul\":3253:3262   */\n      dup2\n        /* \"#utility.yul\":3247:3251   */\n      dup2\n        /* \"#utility.yul\":3243:3263   */\n      sub\n        /* \"#utility.yul\":3239:3240   */\n      0x00\n        /* \"#utility.yul\":3228:3237   */\n      dup4\n        /* \"#utility.yul\":3224:3241   */\n      add\n        /* \"#utility.yul\":3217:3264   */\n      mstore\n        /* \"#utility.yul\":3281:3383   */\n      tag_144\n        /* \"#utility.yul\":3378:3382   */\n      dup2\n        /* \"#utility.yul\":3369:3375   */\n      dup5\n        /* \"#utility.yul\":3281:3383   */\n      tag_84\n      jump\t// in\n    tag_144:\n        /* \"#utility.yul\":3273:3383   */\n      swap1\n      pop\n        /* \"#utility.yul\":3029:3390   */\n      swap3\n      swap2\n      pop\n      pop\n      jump\t// out\n        /* \"#utility.yul\":3396:3513   */\n    tag_85:\n        /* \"#utility.yul\":3505:3506   */\n      0x00\n        /* \"#utility.yul\":3502:3503   */\n      dup1\n        /* \"#utility.yul\":3495:3507   */\n      revert\n        /* \"#utility.yul\":3519:3636   */\n    tag_86:\n        /* \"#utility.yul\":3628:3629   */\n      0x00\n        /* \"#utility.yul\":3625:3626   */\n      dup1\n        /* \"#utility.yul\":3618:3630   */\n      revert\n        /* \"#utility.yul\":3642:3822   */\n    tag_87:\n        /* \"#utility.yul\":3690:3767   */\n      0x4e487b7100000000000000000000000000000000000000000000000000000000\n        /* \"#utility.yul\":3687:3688   */\n      0x00\n        /* \"#utility.yul\":3680:3768   */\n      mstore\n        /* \"#utility.yul\":3787:3791   */\n      0x41\n        /* \"#utility.yul\":3784:3785   */\n      0x04\n        /* \"#utility.yul\":3777:3792   */\n      mstore\n        /* \"#utility.yul\":3811:3815   */\n      0x24\n        /* \"#utility.yul\":3808:3809   */\n      0x00\n        /* \"#utility.yul\":3801:3816   */\n      revert\n        /* \"#utility.yul\":3828:4109   */\n    tag_88:\n        /* \"#utility.yul\":3911:3938   */\n      tag_149\n        /* \"#utility.yul\":3933:3937   */\n      dup3\n        /* \"#utility.yul\":3911:3938   */\n      tag_82\n      jump\t// in\n    tag_149:\n        /* \"#utility.yul\":3903:3909   */\n      dup2\n        /* \"#utility.yul\":3899:3939   */\n      add\n        /* \"#utility.yul\":4041:4047   */\n      dup2\n        /* \"#utility.yul\":4029:4039   */\n      dup2\n        /* \"#utility.yul\":4026:4048   */\n      lt\n        /* \"#utility.yul\":4005:4023   */\n      0xffffffffffffffff\n        /* \"#utility.yul\":3993:4003   */\n      dup3\n        /* \"#utility.yul\":3990:4024   */\n      gt\n        /* \"#utility.yul\":3987:4049   */\n      or\n        /* \"#utility.yul\":3984:4072   */\n      iszero\n      tag_150\n      jumpi\n        /* \"#utility.yul\":4052:4070   */\n      tag_151\n      tag_87\n      jump\t// in\n    tag_151:\n        /* \"#utility.yul\":3984:4072   */\n    tag_150:\n        /* \"#utility.yul\":4092:4102   */\n      dup1\n        /* \"#utility.yul\":4088:4090   */\n      0x40\n        /* \"#utility.yul\":4081:4103   */\n      mstore\n        /* \"#utility.yul\":3871:4109   */\n      pop\n        /* \"#utility.yul\":3828:4109   */\n      pop\n      pop\n      jump\t// out\n        /* \"#utility.yul\":4115:4244   */\n    tag_89:\n        /* \"#utility.yul\":4149:4155   */\n      0x00\n        /* \"#utility.yul\":4176:4196   */\n      tag_153\n      tag_72\n      jump\t// in\n    tag_153:\n        /* \"#utility.yul\":4166:4196   */\n      swap1\n      pop\n        /* \"#utility.yul\":4205:4238   */\n      tag_154\n        /* \"#utility.yul\":4233:4237   */\n      dup3\n        /* \"#utility.yul\":4225:4231   */\n      dup3\n        /* \"#utility.yul\":4205:4238   */\n      tag_88\n      jump\t// in\n    tag_154:\n        /* \"#utility.yul\":4115:4244   */\n      swap2\n      swap1\n      pop\n      jump\t// out\n        /* \"#utility.yul\":4250:4558   */\n    tag_90:\n        /* \"#utility.yul\":4312:4316   */\n      0x00\n        /* \"#utility.yul\":4402:4420   */\n      0xffffffffffffffff\n        /* \"#utility.yul\":4394:4400   */\n      dup3\n        /* \"#utility.yul\":4391:4421   */\n      gt\n        /* \"#utility.yul\":4388:4444   */\n      iszero\n      tag_156\n      jumpi\n        /* \"#utility.yul\":4424:4442   */\n      tag_157\n      tag_87\n      jump\t// in\n    tag_157:\n        /* \"#utility.yul\":4388:4444   */\n    tag_156:\n        /* \"#utility.yul\":4462:4491   */\n      tag_158\n        /* \"#utility.yul\":4484:4490   */\n      dup3\n        /* \"#utility.yul\":4462:4491   */\n      tag_82\n      jump\t// in\n    tag_158:\n        /* \"#utility.yul\":4454:4491   */\n      swap1\n      pop\n        /* \"#utility.yul\":4546:4550   */\n      0x20\n        /* \"#utility.yul\":4540:4544   */\n      dup2\n        /* \"#utility.yul\":4536:4551   */\n      add\n        /* \"#utility.yul\":4528:4551   */\n      swap1\n      pop\n        /* \"#utility.yul\":4250:4558   */\n      swap2\n      swap1\n      pop\n      jump\t// out\n        /* \"#utility.yul\":4564:4710   */\n    tag_91:\n        /* \"#utility.yul\":4661:4667   */\n      dup3\n        /* \"#utility.yul\":4656:4659   */\n      dup2\n        /* \"#utility.yul\":4651:4654   */\n      dup4\n        /* \"#utility.yul\":4638:4668   */\n      calldatacopy\n        /* \"#utility.yul\":4702:4703   */\n      0x00\n        /* \"#utility.yul\":4693:4699   */\n      dup4\n        /* \"#utility.yul\":4688:4691   */\n      dup4\n        /* \"#utility.yul\":4684:4700   */\n      add\n        /* \"#utility.yul\":4677:4704   */\n      mstore\n        /* \"#utility.yul\":4564:4710   */\n      pop\n      pop\n      pop\n      jump\t// out\n        /* \"#utility.yul\":4716:5141   */\n    tag_92:\n        /* \"#utility.yul\":4794:4799   */\n      0x00\n        /* \"#utility.yul\":4819:4885   */\n      tag_161\n        /* \"#utility.yul\":4835:4884   */\n      tag_162\n        /* \"#utility.yul\":4877:4883   */\n      dup5\n        /* \"#utility.yul\":4835:4884   */\n      tag_90\n      jump\t// in\n    tag_162:\n        /* \"#utility.yul\":4819:4885   */\n      tag_89\n      jump\t// in\n    tag_161:\n        /* \"#utility.yul\":4810:4885   */\n      swap1\n      pop\n        /* \"#utility.yul\":4908:4914   */\n      dup3\n        /* \"#utility.yul\":4901:4906   */\n      dup2\n        /* \"#utility.yul\":4894:4915   */\n      mstore\n        /* \"#utility.yul\":4946:4950   */\n      0x20\n        /* \"#utility.yul\":4939:4944   */\n      dup2\n        /* \"#utility.yul\":4935:4951   */\n      add\n        /* \"#utility.yul\":4984:4987   */\n      dup5\n        /* \"#utility.yul\":4975:4981   */\n      dup5\n        /* \"#utility.yul\":4970:4973   */\n      dup5\n        /* \"#utility.yul\":4966:4982   */\n      add\n        /* \"#utility.yul\":4963:4988   */\n      gt\n        /* \"#utility.yul\":4960:5072   */\n      iszero\n      tag_163\n      jumpi\n        /* \"#utility.yul\":4991:5070   */\n      tag_164\n      tag_86\n      jump\t// in\n    tag_164:\n        /* \"#utility.yul\":4960:5072   */\n    tag_163:\n        /* \"#utility.yul\":5081:5135   */\n      tag_165\n        /* \"#utility.yul\":5128:5134   */\n      dup5\n        /* \"#utility.yul\":5123:5126   */\n      dup3\n        /* \"#utility.yul\":5118:5121   */\n      dup6\n        /* \"#utility.yul\":5081:5135   */\n      tag_91\n      jump\t// in\n    tag_165:\n        /* \"#utility.yul\":4800:5141   */\n      pop\n        /* \"#utility.yul\":4716:5141   */\n      swap4\n      swap3\n      pop\n      pop\n      pop\n      jump\t// out\n        /* \"#utility.yul\":5161:5501   */\n    tag_93:\n        /* \"#utility.yul\":5217:5222   */\n      0x00\n        /* \"#utility.yul\":5266:5269   */\n      dup3\n        /* \"#utility.yul\":5259:5263   */\n      0x1f\n        /* \"#utility.yul\":5251:5257   */\n      dup4\n        /* \"#utility.yul\":5247:5264   */\n      add\n        /* \"#utility.yul\":5243:5270   */\n      slt\n        /* \"#utility.yul\":5233:5355   */\n      tag_167\n      jumpi\n        /* \"#utility.yul\":5274:5353   */\n      tag_168\n      tag_85\n      jump\t// in\n    tag_168:\n        /* \"#utility.yul\":5233:5355   */\n    tag_167:\n        /* \"#utility.yul\":5391:5397   */\n      dup2\n        /* \"#utility.yul\":5378:5398   */\n      calldataload\n        /* \"#utility.yul\":5416:5495   */\n      tag_169\n        /* \"#utility.yul\":5491:5494   */\n      dup5\n        /* \"#utility.yul\":5483:5489   */\n      dup3\n        /* \"#utility.yul\":5476:5480   */\n      0x20\n        /* \"#utility.yul\":5468:5474   */\n      dup7\n        /* \"#utility.yul\":5464:5481   */\n      add\n        /* \"#utility.yul\":5416:5495   */\n      tag_92\n      jump\t// in\n    tag_169:\n        /* \"#utility.yul\":5407:5495   */\n      swap2\n      pop\n        /* \"#utility.yul\":5223:5501   */\n      pop\n        /* \"#utility.yul\":5161:5501   */\n      swap3\n      swap2\n      pop\n      pop\n      jump\t// out\n        /* \"#utility.yul\":5507:6486   */\n    tag_15:\n        /* \"#utility.yul\":5604:5610   */\n      0x00\n        /* \"#utility.yul\":5612:5618   */\n      dup1\n        /* \"#utility.yul\":5620:5626   */\n      0x00\n        /* \"#utility.yul\":5669:5671   */\n      0x60\n        /* \"#utility.yul\":5657:5666   */\n      dup5\n        /* \"#utility.yul\":5648:5655   */\n      dup7\n        /* \"#utility.yul\":5644:5667   */\n      sub\n        /* \"#utility.yul\":5640:5672   */\n      slt\n        /* \"#utility.yul\":5637:5756   */\n      iszero\n      tag_171\n      jumpi\n        /* \"#utility.yul\":5675:5754   */\n      tag_172\n      tag_73\n      jump\t// in\n    tag_172:\n        /* \"#utility.yul\":5637:5756   */\n    tag_171:\n        /* \"#utility.yul\":5795:5796   */\n      0x00\n        /* \"#utility.yul\":5820:5873   */\n      tag_173\n        /* \"#utility.yul\":5865:5872   */\n      dup7\n        /* \"#utility.yul\":5856:5862   */\n      dup3\n        /* \"#utility.yul\":5845:5854   */\n      dup8\n        /* \"#utility.yul\":5841:5863   */\n      add\n        /* \"#utility.yul\":5820:5873   */\n      tag_77\n      jump\t// in\n    tag_173:\n        /* \"#utility.yul\":5810:5873   */\n      swap4\n      pop\n        /* \"#utility.yul\":5766:5883   */\n      pop\n        /* \"#utility.yul\":5950:5952   */\n      0x20\n        /* \"#utility.yul\":5939:5948   */\n      dup5\n        /* \"#utility.yul\":5935:5953   */\n      add\n        /* \"#utility.yul\":5922:5954   */\n      calldataload\n        /* \"#utility.yul\":5981:5999   */\n      0xffffffffffffffff\n        /* \"#utility.yul\":5973:5979   */\n      dup2\n        /* \"#utility.yul\":5970:6000   */\n      gt\n        /* \"#utility.yul\":5967:6084   */\n      iszero\n      tag_174\n      jumpi\n        /* \"#utility.yul\":6003:6082   */\n      tag_175\n      tag_74\n      jump\t// in\n    tag_175:\n        /* \"#utility.yul\":5967:6084   */\n    tag_174:\n        /* \"#utility.yul\":6108:6171   */\n      tag_176\n        /* \"#utility.yul\":6163:6170   */\n      dup7\n        /* \"#utility.yul\":6154:6160   */\n      dup3\n        /* \"#utility.yul\":6143:6152   */\n      dup8\n        /* \"#utility.yul\":6139:6161   */\n      add\n        /* \"#utility.yul\":6108:6171   */\n      tag_93\n      jump\t// in\n    tag_176:\n        /* \"#utility.yul\":6098:6171   */\n      swap3\n      pop\n        /* \"#utility.yul\":5893:6181   */\n      pop\n        /* \"#utility.yul\":6248:6250   */\n      0x40\n        /* \"#utility.yul\":6237:6246   */\n      dup5\n        /* \"#utility.yul\":6233:6251   */\n      add\n        /* \"#utility.yul\":6220:6252   */\n      calldataload\n        /* \"#utility.yul\":6279:6297   */\n      0xffffffffffffffff\n        /* \"#utility.yul\":6271:6277   */\n      dup2\n        /* \"#utility.yul\":6268:6298   */\n      gt\n        /* \"#utility.yul\":6265:6382   */\n      iszero\n      tag_177\n      jumpi\n        /* \"#utility.yul\":6301:6380   */\n      tag_178\n      tag_74\n      jump\t// in\n    tag_178:\n        /* \"#utility.yul\":6265:6382   */\n    tag_177:\n        /* \"#utility.yul\":6406:6469   */\n      tag_179\n        /* \"#utility.yul\":6461:6468   */\n      dup7\n        /* \"#utility.yul\":6452:6458   */\n      dup3\n        /* \"#utility.yul\":6441:6450   */\n      dup8\n        /* \"#utility.yul\":6437:6459   */\n      add\n        /* \"#utility.yul\":6406:6469   */\n      tag_93\n      jump\t// in\n    tag_179:\n        /* \"#utility.yul\":6396:6469   */\n      swap2\n      pop\n        /* \"#utility.yul\":6191:6479   */\n      pop\n        /* \"#utility.yul\":5507:6486   */\n      swap3\n      pop\n      swap3\n      pop\n      swap3\n      jump\t// out\n        /* \"#utility.yul\":6492:6672   */\n    tag_32:\n        /* \"#utility.yul\":6540:6617   */\n      0x4e487b7100000000000000000000000000000000000000000000000000000000\n        /* \"#utility.yul\":6537:6538   */\n      0x00\n        /* \"#utility.yul\":6530:6618   */\n      mstore\n        /* \"#utility.yul\":6637:6641   */\n      0x32\n        /* \"#utility.yul\":6634:6635   */\n      0x04\n        /* \"#utility.yul\":6627:6642   */\n      mstore\n        /* \"#utility.yul\":6661:6665   */\n      0x24\n        /* \"#utility.yul\":6658:6659   */\n      0x00\n        /* \"#utility.yul\":6651:6666   */\n      revert\n        /* \"#utility.yul\":6678:6858   */\n    tag_94:\n        /* \"#utility.yul\":6726:6803   */\n      0x4e487b7100000000000000000000000000000000000000000000000000000000\n        /* \"#utility.yul\":6723:6724   */\n      0x00\n        /* \"#utility.yul\":6716:6804   */\n      mstore\n        /* \"#utility.yul\":6823:6827   */\n      0x22\n        /* \"#utility.yul\":6820:6821   */\n      0x04\n        /* \"#utility.yul\":6813:6828   */\n      mstore\n        /* \"#utility.yul\":6847:6851   */\n      0x24\n        /* \"#utility.yul\":6844:6845   */\n      0x00\n        /* \"#utility.yul\":6837:6852   */\n      revert\n        /* \"#utility.yul\":6864:7184   */\n    tag_39:\n        /* \"#utility.yul\":6908:6914   */\n      0x00\n        /* \"#utility.yul\":6945:6946   */\n      0x02\n        /* \"#utility.yul\":6939:6943   */\n      dup3\n        /* \"#utility.yul\":6935:6947   */\n      div\n        /* \"#utility.yul\":6925:6947   */\n      swap1\n      pop\n        /* \"#utility.yul\":6992:6993   */\n      0x01\n        /* \"#utility.yul\":6986:6990   */\n      dup3\n        /* \"#utility.yul\":6982:6994   */\n      and\n        /* \"#utility.yul\":7013:7031   */\n      dup1\n        /* \"#utility.yul\":7003:7084   */\n      tag_183\n      jumpi\n        /* \"#utility.yul\":7069:7073   */\n      0x7f\n        /* \"#utility.yul\":7061:7067   */\n      dup3\n        /* \"#utility.yul\":7057:7074   */\n      and\n        /* \"#utility.yul\":7047:7074   */\n      swap2\n      pop\n        /* \"#utility.yul\":7003:7084   */\n    tag_183:\n        /* \"#utility.yul\":7131:7133   */\n      0x20\n        /* \"#utility.yul\":7123:7129   */\n      dup3\n        /* \"#utility.yul\":7120:7134   */\n      lt\n        /* \"#utility.yul\":7100:7118   */\n      dup2\n        /* \"#utility.yul\":7097:7135   */\n      sub\n        /* \"#utility.yul\":7094:7178   */\n      tag_184\n      jumpi\n        /* \"#utility.yul\":7150:7168   */\n      tag_185\n      tag_94\n      jump\t// in\n    tag_185:\n        /* \"#utility.yul\":7094:7178   */\n    tag_184:\n        /* \"#utility.yul\":6915:7184   */\n      pop\n        /* \"#utility.yul\":6864:7184   */\n      swap2\n      swap1\n      pop\n      jump\t// out\n        /* \"#utility.yul\":7190:7370   */\n    tag_95:\n        /* \"#utility.yul\":7238:7315   */\n      0x4e487b7100000000000000000000000000000000000000000000000000000000\n        /* \"#utility.yul\":7235:7236   */\n      0x00\n        /* \"#utility.yul\":7228:7316   */\n      mstore\n        /* \"#utility.yul\":7335:7339   */\n      0x11\n        /* \"#utility.yul\":7332:7333   */\n      0x04\n        /* \"#utility.yul\":7325:7340   */\n      mstore\n        /* \"#utility.yul\":7359:7363   */\n      0x24\n        /* \"#utility.yul\":7356:7357   */\n      0x00\n        /* \"#utility.yul\":7349:7364   */\n      revert\n        /* \"#utility.yul\":7376:7609   */\n    tag_50:\n        /* \"#utility.yul\":7415:7418   */\n      0x00\n        /* \"#utility.yul\":7438:7462   */\n      tag_188\n        /* \"#utility.yul\":7456:7461   */\n      dup3\n        /* \"#utility.yul\":7438:7462   */\n      tag_75\n      jump\t// in\n    tag_188:\n        /* \"#utility.yul\":7429:7462   */\n      swap2\n      pop\n        /* \"#utility.yul\":7484:7550   */\n      0xffffffffffffffffffffffffffffffffffffffffffffffffffffffffffffffff\n        /* \"#utility.yul\":7477:7482   */\n      dup3\n        /* \"#utility.yul\":7474:7551   */\n      sub\n        /* \"#utility.yul\":7471:7574   */\n      tag_189\n      jumpi\n        /* \"#utility.yul\":7554:7572   */\n      tag_190\n      tag_95\n      jump\t// in\n    tag_190:\n        /* \"#utility.yul\":7471:7574   */\n    tag_189:\n        /* \"#utility.yul\":7601:7602   */\n      0x01\n        /* \"#utility.yul\":7594:7599   */\n      dup3\n        /* \"#utility.yul\":7590:7603   */\n      add\n        /* \"#utility.yul\":7583:7603   */\n      swap1\n      pop\n        /* \"#utility.yul\":7376:7609   */\n      swap2\n      swap1\n      pop\n      jump\t// out\n        /* \"#utility.yul\":7615:7756   */\n    tag_96:\n        /* \"#utility.yul\":7664:7668   */\n      0x00\n        /* \"#utility.yul\":7687:7690   */\n      dup2\n        /* \"#utility.yul\":7679:7690   */\n      swap1\n      pop\n        /* \"#utility.yul\":7710:7713   */\n      dup2\n        /* \"#utility.yul\":7707:7708   */\n      0x00\n        /* \"#utility.yul\":7700:7714   */\n      mstore\n        /* \"#utility.yul\":7744:7748   */\n      0x20\n        /* \"#utility.yul\":7741:7742   */\n      0x00\n        /* \"#utility.yul\":7731:7749   */\n      keccak256\n        /* \"#utility.yul\":7723:7749   */\n      swap1\n      pop\n        /* \"#utility.yul\":7615:7756   */\n      swap2\n      swap1\n      pop\n      jump\t// out\n        /* \"#utility.yul\":7762:7855   */\n    tag_97:\n        /* \"#utility.yul\":7799:7805   */\n      0x00\n        /* \"#utility.yul\":7846:7848   */\n      0x20\n        /* \"#utility.yul\":7841:7843   */\n      0x1f\n        /* \"#utility.yul\":7834:7839   */\n      dup4\n        /* \"#utility.yul\":7830:7844   */\n      add\n        /* \"#utility.yul\":7826:7849   */\n      div\n        /* \"#utility.yul\":7816:7849   */\n      swap1\n      pop\n        /* \"#utility.yul\":7762:7855   */\n      swap2\n      swap1\n      pop\n      jump\t// out\n        /* \"#utility.yul\":7861:7968   */\n    tag_98:\n        /* \"#utility.yul\":7905:7913   */\n      0x00\n        /* \"#utility.yul\":7955:7960   */\n      dup3\n        /* \"#utility.yul\":7949:7953   */\n      dup3\n        /* \"#utility.yul\":7945:7961   */\n      shl\n        /* \"#utility.yul\":7924:7961   */\n      swap1\n      pop\n        /* \"#utility.yul\":7861:7968   */\n      swap3\n      swap2\n      pop\n      pop\n      jump\t// out\n        /* \"#utility.yul\":7974:8367   */\n    tag_99:\n        /* \"#utility.yul\":8043:8049   */\n      0x00\n        /* \"#utility.yul\":8093:8094   */\n      0x08\n        /* \"#utility.yul\":8081:8091   */\n      dup4\n        /* \"#utility.yul\":8077:8095   */\n      mul\n        /* \"#utility.yul\":8116:8213   */\n      tag_195\n        /* \"#utility.yul\":8146:8212   */\n      0xffffffffffffffffffffffffffffffffffffffffffffffffffffffffffffffff\n        /* \"#utility.yul\":8135:8144   */\n      dup3\n        /* \"#utility.yul\":8116:8213   */\n      tag_98\n      jump\t// in\n    tag_195:\n        /* \"#utility.yul\":8234:8273   */\n      tag_196\n        /* \"#utility.yul\":8264:8272   */\n      dup7\n        /* \"#utility.yul\":8253:8262   */\n      dup4\n        /* \"#utility.yul\":8234:8273   */\n      tag_98\n      jump\t// in\n    tag_196:\n        /* \"#utility.yul\":8222:8273   */\n      swap6\n      pop\n        /* \"#utility.yul\":8306:8310   */\n      dup1\n        /* \"#utility.yul\":8302:8311   */\n      not\n        /* \"#utility.yul\":8295:8300   */\n      dup5\n        /* \"#utility.yul\":8291:8312   */\n      and\n        /* \"#utility.yul\":8282:8312   */\n      swap4\n      pop\n        /* \"#utility.yul\":8355:8359   */\n      dup1\n        /* \"#utility.yul\":8345:8353   */\n      dup7\n        /* \"#utility.yul\":8341:8360   */\n      and\n        /* \"#utility.yul\":8334:8339   */\n      dup5\n        /* \"#utility.yul\":8331:8361   */\n      or\n        /* \"#utility.yul\":8321:8361   */\n      swap3\n      pop\n        /* \"#utility.yul\":8050:8367   */\n      pop\n      pop\n        /* \"#utility.yul\":7974:8367   */\n      swap4\n      swap3\n      pop\n      pop\n      pop\n      jump\t// out\n        /* \"#utility.yul\":8373:8433   */\n    tag_100:\n        /* \"#utility.yul\":8401:8404   */\n      0x00\n        /* \"#utility.yul\":8422:8427   */\n      dup2\n        /* \"#utility.yul\":8415:8427   */\n      swap1\n      pop\n        /* \"#utility.yul\":8373:8433   */\n      swap2\n      swap1\n      pop\n      jump\t// out\n        /* \"#utility.yul\":8439:8581   */\n    tag_101:\n        /* \"#utility.yul\":8489:8498   */\n      0x00\n        /* \"#utility.yul\":8522:8575   */\n      tag_199\n        /* \"#utility.yul\":8540:8574   */\n      tag_200\n        /* \"#utility.yul\":8549:8573   */\n      tag_201\n        /* \"#utility.yul\":8567:8572   */\n      dup5\n        /* \"#utility.yul\":8549:8573   */\n      tag_75\n      jump\t// in\n    tag_201:\n        /* \"#utility.yul\":8540:8574   */\n      tag_100\n      jump\t// in\n    tag_200:\n        /* \"#utility.yul\":8522:8575   */\n      tag_75\n      jump\t// in\n    tag_199:\n        /* \"#utility.yul\":8509:8575   */\n      swap1\n      pop\n        /* \"#utility.yul\":8439:8581   */\n      swap2\n      swap1\n      pop\n      jump\t// out\n        /* \"#utility.yul\":8587:8662   */\n    tag_102:\n        /* \"#utility.yul\":8630:8633   */\n      0x00\n        /* \"#utility.yul\":8651:8656   */\n      dup2\n        /* \"#utility.yul\":8644:8656   */\n      swap1\n      pop\n        /* \"#utility.yul\":8587:8662   */\n      swap2\n      swap1\n      pop\n      jump\t// out\n        /* \"#utility.yul\":8668:8937   */\n    tag_103:\n        /* \"#utility.yul\":8778:8817   */\n      tag_204\n        /* \"#utility.yul\":8809:8816   */\n      dup4\n        /* \"#utility.yul\":8778:8817   */\n      tag_101\n      jump\t// in\n    tag_204:\n        /* \"#utility.yul\":8839:8930   */\n      tag_205\n        /* \"#utility.yul\":8888:8929   */\n      tag_206\n        /* \"#utility.yul\":8912:8928   */\n      dup3\n        /* \"#utility.yul\":8888:8929   */\n      tag_102\n      jump\t// in\n    tag_206:\n        /* \"#utility.yul\":8880:8886   */\n      dup5\n        /* \"#utility.yul\":8873:8877   */\n      dup5\n        /* \"#utility.yul\":8867:8878   */\n      sload\n        /* \"#utility.yul\":8839:8930   */\n      tag_99\n      jump\t// in\n    tag_205:\n        /* \"#utility.yul\":8833:8837   */\n      dup3\n        /* \"#utility.yul\":8826:8931   */\n      sstore\n        /* \"#utility.yul\":8744:8937   */\n      pop\n        /* \"#utility.yul\":8668:8937   */\n      pop\n      pop\n      pop\n      jump\t// out\n        /* \"#utility.yul\":8943:9016   */\n    tag_104:\n        /* \"#utility.yul\":8988:8991   */\n      0x00\n        /* \"#utility.yul\":8943:9016   */\n      swap1\n      jump\t// out\n        /* \"#utility.yul\":9022:9211   */\n    tag_105:\n        /* \"#utility.yul\":9099:9131   */\n      tag_209\n      tag_104\n      jump\t// in\n    tag_209:\n        /* \"#utility.yul\":9140:9205   */\n      tag_210\n        /* \"#utility.yul\":9198:9204   */\n      dup2\n        /* \"#utility.yul\":9190:9196   */\n      dup5\n        /* \"#utility.yul\":9184:9188   */\n      dup5\n        /* \"#utility.yul\":9140:9205   */\n      tag_103\n      jump\t// in\n    tag_210:\n        /* \"#utility.yul\":9075:9211   */\n      pop\n        /* \"#utility.yul\":9022:9211   */\n      pop\n      pop\n      jump\t// out\n        /* \"#utility.yul\":9217:9403   */\n    tag_106:\n        /* \"#utility.yul\":9277:9397   */\n    tag_212:\n        /* \"#utility.yul\":9294:9297   */\n      dup2\n        /* \"#utility.yul\":9287:9292   */\n      dup2\n        /* \"#utility.yul\":9284:9298   */\n      lt\n        /* \"#utility.yul\":9277:9397   */\n      iszero\n      tag_214\n      jumpi\n        /* \"#utility.yul\":9348:9387   */\n      tag_215\n        /* \"#utility.yul\":9385:9386   */\n      0x00\n        /* \"#utility.yul\":9378:9383   */\n      dup3\n        /* \"#utility.yul\":9348:9387   */\n      tag_105\n      jump\t// in\n    tag_215:\n        /* \"#utility.yul\":9321:9322   */\n      0x01\n        /* \"#utility.yul\":9314:9319   */\n      dup2\n        /* \"#utility.yul\":9310:9323   */\n      add\n        /* \"#utility.yul\":9301:9323   */\n      swap1\n      pop\n        /* \"#utility.yul\":9277:9397   */\n      jump(tag_212)\n    tag_214:\n        /* \"#utility.yul\":9217:9403   */\n      pop\n      pop\n      jump\t// out\n        /* \"#utility.yul\":9409:9952   */\n    tag_107:\n        /* \"#utility.yul\":9510:9512   */\n      0x1f\n        /* \"#utility.yul\":9505:9508   */\n      dup3\n        /* \"#utility.yul\":9502:9513   */\n      gt\n        /* \"#utility.yul\":9499:9945   */\n      iszero\n      tag_217\n      jumpi\n        /* \"#utility.yul\":9544:9582   */\n      tag_218\n        /* \"#utility.yul\":9576:9581   */\n      dup2\n        /* \"#utility.yul\":9544:9582   */\n      tag_96\n      jump\t// in\n    tag_218:\n        /* \"#utility.yul\":9628:9657   */\n      tag_219\n        /* \"#utility.yul\":9646:9656   */\n      dup5\n        /* \"#utility.yul\":9628:9657   */\n      tag_97\n      jump\t// in\n    tag_219:\n        /* \"#utility.yul\":9618:9626   */\n      dup2\n        /* \"#utility.yul\":9614:9658   */\n      add\n        /* \"#utility.yul\":9811:9813   */\n      0x20\n        /* \"#utility.yul\":9799:9809   */\n      dup6\n        /* \"#utility.yul\":9796:9814   */\n      lt\n        /* \"#utility.yul\":9793:9842   */\n      iszero\n      tag_220\n      jumpi\n        /* \"#utility.yul\":9832:9840   */\n      dup2\n        /* \"#utility.yul\":9817:9840   */\n      swap1\n      pop\n        /* \"#utility.yul\":9793:9842   */\n    tag_220:\n        /* \"#utility.yul\":9855:9935   */\n      tag_221\n        /* \"#utility.yul\":9911:9933   */\n      tag_222\n        /* \"#utility.yul\":9929:9932   */\n      dup6\n        /* \"#utility.yul\":9911:9933   */\n      tag_97\n      jump\t// in\n    tag_222:\n        /* \"#utility.yul\":9901:9909   */\n      dup4\n        /* \"#utility.yul\":9897:9934   */\n      add\n        /* \"#utility.yul\":9884:9895   */\n      dup3\n        /* \"#utility.yul\":9855:9935   */\n      tag_106\n      jump\t// in\n    tag_221:\n        /* \"#utility.yul\":9514:9945   */\n      pop\n      pop\n        /* \"#utility.yul\":9499:9945   */\n    tag_217:\n        /* \"#utility.yul\":9409:9952   */\n      pop\n      pop\n      pop\n      jump\t// out\n        /* \"#utility.yul\":9958:10075   */\n    tag_108:\n        /* \"#utility.yul\":10012:10020   */\n      0x00\n        /* \"#utility.yul\":10062:10067   */\n      dup3\n        /* \"#utility.yul\":10056:10060   */\n      dup3\n        /* \"#utility.yul\":10052:10068   */\n      shr\n        /* \"#utility.yul\":10031:10068   */\n      swap1\n      pop\n        /* \"#utility.yul\":9958:10075   */\n      swap3\n      swap2\n      pop\n      pop\n      jump\t// out\n        /* \"#utility.yul\":10081:10250   */\n    tag_109:\n        /* \"#utility.yul\":10125:10131   */\n      0x00\n        /* \"#utility.yul\":10158:10209   */\n      tag_225\n        /* \"#utility.yul\":10206:10207   */\n      0x00\n        /* \"#utility.yul\":10202:10208   */\n      not\n        /* \"#utility.yul\":10194:10199   */\n      dup5\n        /* \"#utility.yul\":10191:10192   */\n      0x08\n        /* \"#utility.yul\":10187:10200   */\n      mul\n        /* \"#utility.yul\":10158:10209   */\n      tag_108\n      jump\t// in\n    tag_225:\n        /* \"#utility.yul\":10154:10210   */\n      not\n        /* \"#utility.yul\":10239:10243   */\n      dup1\n        /* \"#utility.yul\":10233:10237   */\n      dup4\n        /* \"#utility.yul\":10229:10244   */\n      and\n        /* \"#utility.yul\":10219:10244   */\n      swap2\n      pop\n        /* \"#utility.yul\":10132:10250   */\n      pop\n        /* \"#utility.yul\":10081:10250   */\n      swap3\n      swap2\n      pop\n      pop\n      jump\t// out\n        /* \"#utility.yul\":10255:10550   */\n    tag_110:\n        /* \"#utility.yul\":10331:10335   */\n      0x00\n        /* \"#utility.yul\":10477:10506   */\n      tag_227\n        /* \"#utility.yul\":10502:10505   */\n      dup4\n        /* \"#utility.yul\":10496:10500   */\n      dup4\n        /* \"#utility.yul\":10477:10506   */\n      tag_109\n      jump\t// in\n    tag_227:\n        /* \"#utility.yul\":10469:10506   */\n      swap2\n      pop\n        /* \"#utility.yul\":10539:10542   */\n      dup3\n        /* \"#utility.yul\":10536:10537   */\n      0x02\n        /* \"#utility.yul\":10532:10543   */\n      mul\n        /* \"#utility.yul\":10526:10530   */\n      dup3\n        /* \"#utility.yul\":10523:10544   */\n      or\n        /* \"#utility.yul\":10515:10544   */\n      swap1\n      pop\n        /* \"#utility.yul\":10255:10550   */\n      swap3\n      swap2\n      pop\n      pop\n      jump\t// out\n        /* \"#utility.yul\":10555:11950   */\n    tag_54:\n        /* \"#utility.yul\":10672:10709   */\n      tag_229\n        /* \"#utility.yul\":10705:10708   */\n      dup3\n        /* \"#utility.yul\":10672:10709   */\n      tag_79\n      jump\t// in\n    tag_229:\n        /* \"#utility.yul\":10774:10792   */\n      0xffffffffffffffff\n        /* \"#utility.yul\":10766:10772   */\n      dup2\n        /* \"#utility.yul\":10763:10793   */\n      gt\n        /* \"#utility.yul\":10760:10816   */\n      iszero\n      tag_230\n      jumpi\n        /* \"#utility.yul\":10796:10814   */\n      tag_231\n      tag_87\n      jump\t// in\n    tag_231:\n        /* \"#utility.yul\":10760:10816   */\n    tag_230:\n        /* \"#utility.yul\":10840:10878   */\n      tag_232\n        /* \"#utility.yul\":10872:10876   */\n      dup3\n        /* \"#utility.yul\":10866:10877   */\n      sload\n        /* \"#utility.yul\":10840:10878   */\n      tag_39\n      jump\t// in\n    tag_232:\n        /* \"#utility.yul\":10925:10992   */\n      tag_233\n        /* \"#utility.yul\":10985:10991   */\n      dup3\n        /* \"#utility.yul\":10977:10983   */\n      dup3\n        /* \"#utility.yul\":10971:10975   */\n      dup6\n        /* \"#utility.yul\":10925:10992   */\n      tag_107\n      jump\t// in\n    tag_233:\n        /* \"#utility.yul\":11019:11020   */\n      0x00\n        /* \"#utility.yul\":11043:11047   */\n      0x20\n        /* \"#utility.yul\":11030:11047   */\n      swap1\n      pop\n        /* \"#utility.yul\":11075:11077   */\n      0x1f\n        /* \"#utility.yul\":11067:11073   */\n      dup4\n        /* \"#utility.yul\":11064:11078   */\n      gt\n        /* \"#utility.yul\":11092:11093   */\n      0x01\n        /* \"#utility.yul\":11087:11705   */\n      dup2\n      eq\n      tag_235\n      jumpi\n        /* \"#utility.yul\":11749:11750   */\n      0x00\n        /* \"#utility.yul\":11766:11772   */\n      dup5\n        /* \"#utility.yul\":11763:11840   */\n      iszero\n      tag_236\n      jumpi\n        /* \"#utility.yul\":11815:11824   */\n      dup3\n        /* \"#utility.yul\":11810:11813   */\n      dup8\n        /* \"#utility.yul\":11806:11825   */\n      add\n        /* \"#utility.yul\":11800:11826   */\n      mload\n        /* \"#utility.yul\":11791:11826   */\n      swap1\n      pop\n        /* \"#utility.yul\":11763:11840   */\n    tag_236:\n        /* \"#utility.yul\":11866:11933   */\n      tag_237\n        /* \"#utility.yul\":11926:11932   */\n      dup6\n        /* \"#utility.yul\":11919:11924   */\n      dup3\n        /* \"#utility.yul\":11866:11933   */\n      tag_110\n      jump\t// in\n    tag_237:\n        /* \"#utility.yul\":11860:11864   */\n      dup7\n        /* \"#utility.yul\":11853:11934   */\n      sstore\n        /* \"#utility.yul\":11722:11944   */\n      pop\n        /* \"#utility.yul\":11057:11944   */\n      jump(tag_234)\n        /* \"#utility.yul\":11087:11705   */\n    tag_235:\n        /* \"#utility.yul\":11139:11143   */\n      0x1f\n        /* \"#utility.yul\":11135:11144   */\n      not\n        /* \"#utility.yul\":11127:11133   */\n      dup5\n        /* \"#utility.yul\":11123:11145   */\n      and\n        /* \"#utility.yul\":11173:11210   */\n      tag_238\n        /* \"#utility.yul\":11205:11209   */\n      dup7\n        /* \"#utility.yul\":11173:11210   */\n      tag_96\n      jump\t// in\n    tag_238:\n        /* \"#utility.yul\":11232:11233   */\n      0x00\n        /* \"#utility.yul\":11246:11454   */\n    tag_239:\n        /* \"#utility.yul\":11260:11267   */\n      dup3\n        /* \"#utility.yul\":11257:11258   */\n      dup2\n        /* \"#utility.yul\":11254:11268   */\n      lt\n        /* \"#utility.yul\":11246:11454   */\n      iszero\n      tag_241\n      jumpi\n        /* \"#utility.yul\":11339:11348   */\n      dup5\n        /* \"#utility.yul\":11334:11337   */\n      dup10\n        /* \"#utility.yul\":11330:11349   */\n      add\n        /* \"#utility.yul\":11324:11350   */\n      mload\n        /* \"#utility.yul\":11316:11322   */\n      dup3\n        /* \"#utility.yul\":11309:11351   */\n      sstore\n        /* \"#utility.yul\":11390:11391   */\n      0x01\n        /* \"#utility.yul\":11382:11388   */\n      dup3\n        /* \"#utility.yul\":11378:11392   */\n      add\n        /* \"#utility.yul\":11368:11392   */\n      swap2\n      pop\n        /* \"#utility.yul\":11437:11439   */\n      0x20\n        /* \"#utility.yul\":11426:11435   */\n      dup6\n        /* \"#utility.yul\":11422:11440   */\n      add\n        /* \"#utility.yul\":11409:11440   */\n      swap5\n      pop\n        /* \"#utility.yul\":11283:11287   */\n      0x20\n        /* \"#utility.yul\":11280:11281   */\n      dup2\n        /* \"#utility.yul\":11276:11288   */\n      add\n        /* \"#utility.yul\":11271:11288   */\n      swap1\n      pop\n        /* \"#utility.yul\":11246:11454   */\n      jump(tag_239)\n    tag_241:\n        /* \"#utility.yul\":11482:11488   */\n      dup7\n        /* \"#utility.yul\":11473:11480   */\n      dup4\n        /* \"#utility.yul\":11470:11489   */\n      lt\n        /* \"#utility.yul\":11467:11646   */\n      iszero\n      tag_242\n      jumpi\n        /* \"#utility.yul\":11540:11549   */\n      dup5\n        /* \"#utility.yul\":11535:11538   */\n      dup10\n        /* \"#utility.yul\":11531:11550   */\n      add\n        /* \"#utility.yul\":11525:11551   */\n      mload\n        /* \"#utility.yul\":11583:11631   */\n      tag_243\n        /* \"#utility.yul\":11625:11629   */\n      0x1f\n        /* \"#utility.yul\":11617:11623   */\n      dup10\n        /* \"#utility.yul\":11613:11630   */\n      and\n        /* \"#utility.yul\":11602:11611   */\n      dup3\n        /* \"#utility.yul\":11583:11631   */\n      tag_109\n      jump\t// in\n    tag_243:\n        /* \"#utility.yul\":11575:11581   */\n      dup4\n        /* \"#utility.yul\":11568:11632   */\n      sstore\n        /* \"#utility.yul\":11490:11646   */\n      pop\n        /* \"#utility.yul\":11467:11646   */\n    tag_242:\n        /* \"#utility.yul\":11692:11693   */\n      0x01\n        /* \"#utility.yul\":11688:11689   */\n      0x02\n        /* \"#utility.yul\":11680:11686   */\n      dup9\n        /* \"#utility.yul\":11676:11690   */\n      mul\n        /* \"#utility.yul\":11672:11694   */\n      add\n        /* \"#utility.yul\":11666:11670   */\n      dup9\n        /* \"#utility.yul\":11659:11695   */\n      sstore\n        /* \"#utility.yul\":11094:11705   */\n      pop\n      pop\n      pop\n        /* \"#utility.yul\":11057:11944   */\n    tag_234:\n      pop\n        /* \"#utility.yul\":10647:11950   */\n      pop\n      pop\n      pop\n        /* \"#utility.yul\":10555:11950   */\n      pop\n      pop\n      jump\t// out\n\n    auxdata: 0xa26469706673582212203b0a5dba272468b281287fa4d5a3fad2e826158d98500a61d5880d894a3c981064736f6c63430008120033\n}\n",
				"bytecode": {
					"linkReferences": {},
					"object": "608060405234801561001057600080fd5b50610c28806100206000396000f3fe608060405234801561001057600080fd5b506004361061004c5760003560e01c806303e9e609146100515780634546143e14610081578063a19417d51461009d578063a35a941e146100cd575b600080fd5b61006b60048036038101906100669190610569565b6100e9565b604051610078919061068c565b60405180910390f35b61009b600480360381019061009691906107e3565b6102b6565b005b6100b760048036038101906100b29190610569565b610321565b6040516100c4919061068c565b60405180910390f35b6100e760048036038101906100e291906107e3565b61047b565b005b6100f16104fe565b60005b6001805490508110156102a35782600182815481106101165761011561086e565b5b9060005260206000209060030201600001540361029057600181815481106101415761014061086e565b5b906000526020600020906003020160405180606001604052908160008201548152602001600182018054610174906108cc565b80601f01602080910402602001604051908101604052809291908181526020018280546101a0906108cc565b80156101ed5780601f106101c2576101008083540402835291602001916101ed565b820191906000526020600020905b8154815290600101906020018083116101d057829003601f168201915b50505050508152602001600282018054610206906108cc565b80601f0160208091040260200160405190810160405280929190818152602001828054610232906108cc565b801561027f5780601f106102545761010080835404028352916020019161027f565b820191906000526020600020905b81548152906001019060200180831161026257829003601f168201915b5050505050815250509150506102b1565b808061029b9061092c565b9150506100f4565b506102ac6104fe565b809150505b919050565b6040518060600160405280848152602001838152602001828152506000808581526020019081526020016000206000820151816000015560208201518160010190816103029190610b20565b5060408201518160020190816103189190610b20565b50905050505050565b6103296104fe565b60008083815260200190815260200160002060405180606001604052908160008201548152602001600182018054610360906108cc565b80601f016020809104026020016040519081016040528092919081815260200182805461038c906108cc565b80156103d95780601f106103ae576101008083540402835291602001916103d9565b820191906000526020600020905b8154815290600101906020018083116103bc57829003601f168201915b505050505081526020016002820180546103f2906108cc565b80601f016020809104026020016040519081016040528092919081815260200182805461041e906108cc565b801561046b5780601f106104405761010080835404028352916020019161046b565b820191906000526020600020905b81548152906001019060200180831161044e57829003601f168201915b5050505050815250509050919050565b600160405180606001604052808581526020018481526020018381525090806001815401808255809150506001900390600052602060002090600302016000909190919091506000820151816000015560208201518160010190816104e09190610b20565b5060408201518160020190816104f69190610b20565b505050505050565b60405180606001604052806000815260200160608152602001606081525090565b6000604051905090565b600080fd5b600080fd5b6000819050919050565b61054681610533565b811461055157600080fd5b50565b6000813590506105638161053d565b92915050565b60006020828403121561057f5761057e610529565b5b600061058d84828501610554565b91505092915050565b61059f81610533565b82525050565b600081519050919050565b600082825260208201905092915050565b60005b838110156105df5780820151818401526020810190506105c4565b60008484015250505050565b6000601f19601f8301169050919050565b6000610607826105a5565b61061181856105b0565b93506106218185602086016105c1565b61062a816105eb565b840191505092915050565b600060608301600083015161064d6000860182610596565b506020830151848203602086015261066582826105fc565b9150506040830151848203604086015261067f82826105fc565b9150508091505092915050565b600060208201905081810360008301526106a68184610635565b905092915050565b600080fd5b600080fd5b7f4e487b7100000000000000000000000000000000000000000000000000000000600052604160045260246000fd5b6106f0826105eb565b810181811067ffffffffffffffff8211171561070f5761070e6106b8565b5b80604052505050565b600061072261051f565b905061072e82826106e7565b919050565b600067ffffffffffffffff82111561074e5761074d6106b8565b5b610757826105eb565b9050602081019050919050565b82818337600083830152505050565b600061078661078184610733565b610718565b9050828152602081018484840111156107a2576107a16106b3565b5b6107ad848285610764565b509392505050565b600082601f8301126107ca576107c96106ae565b5b81356107da848260208601610773565b91505092915050565b6000806000606084860312156107fc576107fb610529565b5b600061080a86828701610554565b935050602084013567ffffffffffffffff81111561082b5761082a61052e565b5b610837868287016107b5565b925050604084013567ffffffffffffffff8111156108585761085761052e565b5b610864868287016107b5565b9150509250925092565b7f4e487b7100000000000000000000000000000000000000000000000000000000600052603260045260246000fd5b7f4e487b7100000000000000000000000000000000000000000000000000000000600052602260045260246000fd5b600060028204905060018216806108e457607f821691505b6020821081036108f7576108f661089d565b5b50919050565b7f4e487b7100000000000000000000000000000000000000000000000000000000600052601160045260246000fd5b600061093782610533565b91507fffffffffffffffffffffffffffffffffffffffffffffffffffffffffffffffff8203610969576109686108fd565b5b600182019050919050565b60008190508160005260206000209050919050565b60006020601f8301049050919050565b600082821b905092915050565b6000600883026109d67fffffffffffffffffffffffffffffffffffffffffffffffffffffffffffffffff82610999565b6109e08683610999565b95508019841693508086168417925050509392505050565b6000819050919050565b6000610a1d610a18610a1384610533565b6109f8565b610533565b9050919050565b6000819050919050565b610a3783610a02565b610a4b610a4382610a24565b8484546109a6565b825550505050565b600090565b610a60610a53565b610a6b818484610a2e565b505050565b5b81811015610a8f57610a84600082610a58565b600181019050610a71565b5050565b601f821115610ad457610aa581610974565b610aae84610989565b81016020851015610abd578190505b610ad1610ac985610989565b830182610a70565b50505b505050565b600082821c905092915050565b6000610af760001984600802610ad9565b1980831691505092915050565b6000610b108383610ae6565b9150826002028217905092915050565b610b29826105a5565b67ffffffffffffffff811115610b4257610b416106b8565b5b610b4c82546108cc565b610b57828285610a93565b600060209050601f831160018114610b8a5760008415610b78578287015190505b610b828582610b04565b865550610bea565b601f198416610b9886610974565b60005b82811015610bc057848901518255600182019150602085019450602081019050610b9b565b86831015610bdd5784890151610bd9601f891682610ae6565b8355505b6001600288020188555050505b50505050505056fea26469706673582212203b0a5dba272468b281287fa4d5a3fad2e826158d98500a61d5880d894a3c981064736f6c63430008120033",
					"opcodes": "PUSH1 0x80 PUSH1 0x40 MSTORE CALLVALUE DUP1 ISZERO PUSH2 0x10 JUMPI PUSH1 0x0 DUP1 REVERT JUMPDEST POP PUSH2 0xC28 DUP1 PUSH2 0x20 PUSH1 0x0 CODECOPY PUSH1 0x0 RETURN INVALID PUSH1 0x80 PUSH1 0x40 MSTORE CALLVALUE DUP1 ISZERO PUSH2 0x10 JUMPI PUSH1 0x0 DUP1 REVERT JUMPDEST POP PUSH1 0x4 CALLDATASIZE LT PUSH2 0x4C JUMPI PUSH1 0x0 CALLDATALOAD PUSH1 0xE0 SHR DUP1 PUSH4 0x3E9E609 EQ PUSH2 0x51 JUMPI DUP1 PUSH4 0x4546143E EQ PUSH2 0x81 JUMPI DUP1 PUSH4 0xA19417D5 EQ PUSH2 0x9D JUMPI DUP1 PUSH4 0xA35A941E EQ PUSH2 0xCD JUMPI JUMPDEST PUSH1 0x0 DUP1 REVERT JUMPDEST PUSH2 0x6B PUSH1 0x4 DUP1 CALLDATASIZE SUB DUP2 ADD SWAP1 PUSH2 0x66 SWAP2 SWAP1 PUSH2 0x569 JUMP JUMPDEST PUSH2 0xE9 JUMP JUMPDEST PUSH1 0x40 MLOAD PUSH2 0x78 SWAP2 SWAP1 PUSH2 0x68C JUMP JUMPDEST PUSH1 0x40 MLOAD DUP1 SWAP2 SUB SWAP1 RETURN JUMPDEST PUSH2 0x9B PUSH1 0x4 DUP1 CALLDATASIZE SUB DUP2 ADD SWAP1 PUSH2 0x96 SWAP2 SWAP1 PUSH2 0x7E3 JUMP JUMPDEST PUSH2 0x2B6 JUMP JUMPDEST STOP JUMPDEST PUSH2 0xB7 PUSH1 0x4 DUP1 CALLDATASIZE SUB DUP2 ADD SWAP1 PUSH2 0xB2 SWAP2 SWAP1 PUSH2 0x569 JUMP JUMPDEST PUSH2 0x321 JUMP JUMPDEST PUSH1 0x40 MLOAD PUSH2 0xC4 SWAP2 SWAP1 PUSH2 0x68C JUMP JUMPDEST PUSH1 0x40 MLOAD DUP1 SWAP2 SUB SWAP1 RETURN JUMPDEST PUSH2 0xE7 PUSH1 0x4 DUP1 CALLDATASIZE SUB DUP2 ADD SWAP1 PUSH2 0xE2 SWAP2 SWAP1 PUSH2 0x7E3 JUMP JUMPDEST PUSH2 0x47B JUMP JUMPDEST STOP JUMPDEST PUSH2 0xF1 PUSH2 0x4FE JUMP JUMPDEST PUSH1 0x0 JUMPDEST PUSH1 0x1 DUP1 SLOAD SWAP1 POP DUP2 LT ISZERO PUSH2 0x2A3 JUMPI DUP3 PUSH1 0x1 DUP3 DUP2 SLOAD DUP2 LT PUSH2 0x116 JUMPI PUSH2 0x115 PUSH2 0x86E JUMP JUMPDEST JUMPDEST SWAP1 PUSH1 0x0 MSTORE PUSH1 0x20 PUSH1 0x0 KECCAK256 SWAP1 PUSH1 0x3 MUL ADD PUSH1 0x0 ADD SLOAD SUB PUSH2 0x290 JUMPI PUSH1 0x1 DUP2 DUP2 SLOAD DUP2 LT PUSH2 0x141 JUMPI PUSH2 0x140 PUSH2 0x86E JUMP JUMPDEST JUMPDEST SWAP1 PUSH1 0x0 MSTORE PUSH1 0x20 PUSH1 0x0 KECCAK256 SWAP1 PUSH1 0x3 MUL ADD PUSH1 0x40 MLOAD DUP1 PUSH1 0x60 ADD PUSH1 0x40 MSTORE SWAP1 DUP2 PUSH1 0x0 DUP3 ADD SLOAD DUP2 MSTORE PUSH1 0x20 ADD PUSH1 0x1 DUP3 ADD DUP1 SLOAD PUSH2 0x174 SWAP1 PUSH2 0x8CC JUMP JUMPDEST DUP1 PUSH1 0x1F ADD PUSH1 0x20 DUP1 SWAP2 DIV MUL PUSH1 0x20 ADD PUSH1 0x40 MLOAD SWAP1 DUP2 ADD PUSH1 0x40 MSTORE DUP1 SWAP3 SWAP2 SWAP1 DUP2 DUP2 MSTORE PUSH1 0x20 ADD DUP3 DUP1 SLOAD PUSH2 0x1A0 SWAP1 PUSH2 0x8CC JUMP JUMPDEST DUP1 ISZERO PUSH2 0x1ED JUMPI DUP1 PUSH1 0x1F LT PUSH2 0x1C2 JUMPI PUSH2 0x100 DUP1 DUP4 SLOAD DIV MUL DUP4 MSTORE SWAP2 PUSH1 0x20 ADD SWAP2 PUSH2 0x1ED JUMP JUMPDEST DUP3 ADD SWAP2 SWAP1 PUSH1 0x0 MSTORE PUSH1 0x20 PUSH1 0x0 KECCAK256 SWAP1 JUMPDEST DUP2 SLOAD DUP2 MSTORE SWAP1 PUSH1 0x1 ADD SWAP1 PUSH1 0x20 ADD DUP1 DUP4 GT PUSH2 0x1D0 JUMPI DUP3 SWAP1 SUB PUSH1 0x1F AND DUP3 ADD SWAP2 JUMPDEST POP POP POP POP POP DUP2 MSTORE PUSH1 0x20 ADD PUSH1 0x2 DUP3 ADD DUP1 SLOAD PUSH2 0x206 SWAP1 PUSH2 0x8CC JUMP JUMPDEST DUP1 PUSH1 0x1F ADD PUSH1 0x20 DUP1 SWAP2 DIV MUL PUSH1 0x20 ADD PUSH1 0x40 MLOAD SWAP1 DUP2 ADD PUSH1 0x40 MSTORE DUP1 SWAP3 SWAP2 SWAP1 DUP2 DUP2 MSTORE PUSH1 0x20 ADD DUP3 DUP1 SLOAD PUSH2 0x232 SWAP1 PUSH2 0x8CC JUMP JUMPDEST DUP1 ISZERO PUSH2 0x27F JUMPI DUP1 PUSH1 0x1F LT PUSH2 0x254 JUMPI PUSH2 0x100 DUP1 DUP4 SLOAD DIV MUL DUP4 MSTORE SWAP2 PUSH1 0x20 ADD SWAP2 PUSH2 0x27F JUMP JUMPDEST DUP3 ADD SWAP2 SWAP1 PUSH1 0x0 MSTORE PUSH1 0x20 PUSH1 0x0 KECCAK256 SWAP1 JUMPDEST DUP2 SLOAD DUP2 MSTORE SWAP1 PUSH1 0x1 ADD SWAP1 PUSH1 0x20 ADD DUP1 DUP4 GT PUSH2 0x262 JUMPI DUP3 SWAP1 SUB PUSH1 0x1F AND DUP3 ADD SWAP2 JUMPDEST POP POP POP POP POP DUP2 MSTORE POP POP SWAP2 POP POP PUSH2 0x2B1 JUMP JUMPDEST DUP1 DUP1 PUSH2 0x29B SWAP1 PUSH2 0x92C JUMP JUMPDEST SWAP2 POP POP PUSH2 0xF4 JUMP JUMPDEST POP PUSH2 0x2AC PUSH2 0x4FE JUMP JUMPDEST DUP1 SWAP2 POP POP JUMPDEST SWAP2 SWAP1 POP JUMP JUMPDEST PUSH1 0x40 MLOAD DUP1 PUSH1 0x60 ADD PUSH1 0x40 MSTORE DUP1 DUP5 DUP2 MSTORE PUSH1 0x20 ADD DUP4 DUP2 MSTORE PUSH1 0x20 ADD DUP3 DUP2 MSTORE POP PUSH1 0x0 DUP1 DUP6 DUP2 MSTORE PUSH1 0x20 ADD SWAP1 DUP2 MSTORE PUSH1 0x20 ADD PUSH1 0x0 KECCAK256 PUSH1 0x0 DUP3 ADD MLOAD DUP2 PUSH1 0x0 ADD SSTORE PUSH1 0x20 DUP3 ADD MLOAD DUP2 PUSH1 0x1 ADD SWAP1 DUP2 PUSH2 0x302 SWAP2 SWAP1 PUSH2 0xB20 JUMP JUMPDEST POP PUSH1 0x40 DUP3 ADD MLOAD DUP2 PUSH1 0x2 ADD SWAP1 DUP2 PUSH2 0x318 SWAP2 SWAP1 PUSH2 0xB20 JUMP JUMPDEST POP SWAP1 POP POP POP POP POP JUMP JUMPDEST PUSH2 0x329 PUSH2 0x4FE JUMP JUMPDEST PUSH1 0x0 DUP1 DUP4 DUP2 MSTORE PUSH1 0x20 ADD SWAP1 DUP2 MSTORE PUSH1 0x20 ADD PUSH1 0x0 KECCAK256 PUSH1 0x40 MLOAD DUP1 PUSH1 0x60 ADD PUSH1 0x40 MSTORE SWAP1 DUP2 PUSH1 0x0 DUP3 ADD SLOAD DUP2 MSTORE PUSH1 0x20 ADD PUSH1 0x1 DUP3 ADD DUP1 SLOAD PUSH2 0x360 SWAP1 PUSH2 0x8CC JUMP JUMPDEST DUP1 PUSH1 0x1F ADD PUSH1 0x20 DUP1 SWAP2 DIV MUL PUSH1 0x20 ADD PUSH1 0x40 MLOAD SWAP1 DUP2 ADD PUSH1 0x40 MSTORE DUP1 SWAP3 SWAP2 SWAP1 DUP2 DUP2 MSTORE PUSH1 0x20 ADD DUP3 DUP1 SLOAD PUSH2 0x38C SWAP1 PUSH2 0x8CC JUMP JUMPDEST DUP1 ISZERO PUSH2 0x3D9 JUMPI DUP1 PUSH1 0x1F LT PUSH2 0x3AE JUMPI PUSH2 0x100 DUP1 DUP4 SLOAD DIV MUL DUP4 MSTORE SWAP2 PUSH1 0x20 ADD SWAP2 PUSH2 0x3D9 JUMP JUMPDEST DUP3 ADD SWAP2 SWAP1 PUSH1 0x0 MSTORE PUSH1 0x20 PUSH1 0x0 KECCAK256 SWAP1 JUMPDEST DUP2 SLOAD DUP2 MSTORE SWAP1 PUSH1 0x1 ADD SWAP1 PUSH1 0x20 ADD DUP1 DUP4 GT PUSH2 0x3BC JUMPI DUP3 SWAP1 SUB PUSH1 0x1F AND DUP3 ADD SWAP2 JUMPDEST POP POP POP POP POP DUP2 MSTORE PUSH1 0x20 ADD PUSH1 0x2 DUP3 ADD DUP1 SLOAD PUSH2 0x3F2 SWAP1 PUSH2 0x8CC JUMP JUMPDEST DUP1 PUSH1 0x1F ADD PUSH1 0x20 DUP1 SWAP2 DIV MUL PUSH1 0x20 ADD PUSH1 0x40 MLOAD SWAP1 DUP2 ADD PUSH1 0x40 MSTORE DUP1 SWAP3 SWAP2 SWAP1 DUP2 DUP2 MSTORE PUSH1 0x20 ADD DUP3 DUP1 SLOAD PUSH2 0x41E SWAP1 PUSH2 0x8CC JUMP JUMPDEST DUP1 ISZERO PUSH2 0x46B JUMPI DUP1 PUSH1 0x1F LT PUSH2 0x440 JUMPI PUSH2 0x100 DUP1 DUP4 SLOAD DIV MUL DUP4 MSTORE SWAP2 PUSH1 0x20 ADD SWAP2 PUSH2 0x46B JUMP JUMPDEST DUP3 ADD SWAP2 SWAP1 PUSH1 0x0 MSTORE PUSH1 0x20 PUSH1 0x0 KECCAK256 SWAP1 JUMPDEST DUP2 SLOAD DUP2 MSTORE SWAP1 PUSH1 0x1 ADD SWAP1 PUSH1 0x20 ADD DUP1 DUP4 GT PUSH2 0x44E JUMPI DUP3 SWAP1 SUB PUSH1 0x1F AND DUP3 ADD SWAP2 JUMPDEST POP POP POP POP POP DUP2 MSTORE POP POP SWAP1 POP SWAP2 SWAP1 POP JUMP JUMPDEST PUSH1 0x1 PUSH1 0x40 MLOAD DUP1 PUSH1 0x60 ADD PUSH1 0x40 MSTORE DUP1 DUP6 DUP2 MSTORE PUSH1 0x20 ADD DUP5 DUP2 MSTORE PUSH1 0x20 ADD DUP4 DUP2 MSTORE POP SWAP1 DUP1 PUSH1 0x1 DUP2 SLOAD ADD DUP1 DUP3 SSTORE DUP1 SWAP2 POP POP PUSH1 0x1 SWAP1 SUB SWAP1 PUSH1 0x0 MSTORE PUSH1 0x20 PUSH1 0x0 KECCAK256 SWAP1 PUSH1 0x3 MUL ADD PUSH1 0x0 SWAP1 SWAP2 SWAP1 SWAP2 SWAP1 SWAP2 POP PUSH1 0x0 DUP3 ADD MLOAD DUP2 PUSH1 0x0 ADD SSTORE PUSH1 0x20 DUP3 ADD MLOAD DUP2 PUSH1 0x1 ADD SWAP1 DUP2 PUSH2 0x4E0 SWAP2 SWAP1 PUSH2 0xB20 JUMP JUMPDEST POP PUSH1 0x40 DUP3 ADD MLOAD DUP2 PUSH1 0x2 ADD SWAP1 DUP2 PUSH2 0x4F6 SWAP2 SWAP1 PUSH2 0xB20 JUMP JUMPDEST POP POP POP POP POP POP JUMP JUMPDEST PUSH1 0x40 MLOAD DUP1 PUSH1 0x60 ADD PUSH1 0x40 MSTORE DUP1 PUSH1 0x0 DUP2 MSTORE PUSH1 0x20 ADD PUSH1 0x60 DUP2 MSTORE PUSH1 0x20 ADD PUSH1 0x60 DUP2 MSTORE POP SWAP1 JUMP JUMPDEST PUSH1 0x0 PUSH1 0x40 MLOAD SWAP1 POP SWAP1 JUMP JUMPDEST PUSH1 0x0 DUP1 REVERT JUMPDEST PUSH1 0x0 DUP1 REVERT JUMPDEST PUSH1 0x0 DUP2 SWAP1 POP SWAP2 SWAP1 POP JUMP JUMPDEST PUSH2 0x546 DUP2 PUSH2 0x533 JUMP JUMPDEST DUP2 EQ PUSH2 0x551 JUMPI PUSH1 0x0 DUP1 REVERT JUMPDEST POP JUMP JUMPDEST PUSH1 0x0 DUP2 CALLDATALOAD SWAP1 POP PUSH2 0x563 DUP2 PUSH2 0x53D JUMP JUMPDEST SWAP3 SWAP2 POP POP JUMP JUMPDEST PUSH1 0x0 PUSH1 0x20 DUP3 DUP5 SUB SLT ISZERO PUSH2 0x57F JUMPI PUSH2 0x57E PUSH2 0x529 JUMP JUMPDEST JUMPDEST PUSH1 0x0 PUSH2 0x58D DUP5 DUP3 DUP6 ADD PUSH2 0x554 JUMP JUMPDEST SWAP2 POP POP SWAP3 SWAP2 POP POP JUMP JUMPDEST PUSH2 0x59F DUP2 PUSH2 0x533 JUMP JUMPDEST DUP3 MSTORE POP POP JUMP JUMPDEST PUSH1 0x0 DUP2 MLOAD SWAP1 POP SWAP2 SWAP1 POP JUMP JUMPDEST PUSH1 0x0 DUP3 DUP3 MSTORE PUSH1 0x20 DUP3 ADD SWAP1 POP SWAP3 SWAP2 POP POP JUMP JUMPDEST PUSH1 0x0 JUMPDEST DUP4 DUP2 LT ISZERO PUSH2 0x5DF JUMPI DUP1 DUP3 ADD MLOAD DUP2 DUP5 ADD MSTORE PUSH1 0x20 DUP2 ADD SWAP1 POP PUSH2 0x5C4 JUMP JUMPDEST PUSH1 0x0 DUP5 DUP5 ADD MSTORE POP POP POP POP JUMP JUMPDEST PUSH1 0x0 PUSH1 0x1F NOT PUSH1 0x1F DUP4 ADD AND SWAP1 POP SWAP2 SWAP1 POP JUMP JUMPDEST PUSH1 0x0 PUSH2 0x607 DUP3 PUSH2 0x5A5 JUMP JUMPDEST PUSH2 0x611 DUP2 DUP6 PUSH2 0x5B0 JUMP JUMPDEST SWAP4 POP PUSH2 0x621 DUP2 DUP6 PUSH1 0x20 DUP7 ADD PUSH2 0x5C1 JUMP JUMPDEST PUSH2 0x62A DUP2 PUSH2 0x5EB JUMP JUMPDEST DUP5 ADD SWAP2 POP POP SWAP3 SWAP2 POP POP JUMP JUMPDEST PUSH1 0x0 PUSH1 0x60 DUP4 ADD PUSH1 0x0 DUP4 ADD MLOAD PUSH2 0x64D PUSH1 0x0 DUP7 ADD DUP3 PUSH2 0x596 JUMP JUMPDEST POP PUSH1 0x20 DUP4 ADD MLOAD DUP5 DUP3 SUB PUSH1 0x20 DUP7 ADD MSTORE PUSH2 0x665 DUP3 DUP3 PUSH2 0x5FC JUMP JUMPDEST SWAP2 POP POP PUSH1 0x40 DUP4 ADD MLOAD DUP5 DUP3 SUB PUSH1 0x40 DUP7 ADD MSTORE PUSH2 0x67F DUP3 DUP3 PUSH2 0x5FC JUMP JUMPDEST SWAP2 POP POP DUP1 SWAP2 POP POP SWAP3 SWAP2 POP POP JUMP JUMPDEST PUSH1 0x0 PUSH1 0x20 DUP3 ADD SWAP1 POP DUP2 DUP2 SUB PUSH1 0x0 DUP4 ADD MSTORE PUSH2 0x6A6 DUP2 DUP5 PUSH2 0x635 JUMP JUMPDEST SWAP1 POP SWAP3 SWAP2 POP POP JUMP JUMPDEST PUSH1 0x0 DUP1 REVERT JUMPDEST PUSH1 0x0 DUP1 REVERT JUMPDEST PUSH32 0x4E487B7100000000000000000000000000000000000000000000000000000000 PUSH1 0x0 MSTORE PUSH1 0x41 PUSH1 0x4 MSTORE PUSH1 0x24 PUSH1 0x0 REVERT JUMPDEST PUSH2 0x6F0 DUP3 PUSH2 0x5EB JUMP JUMPDEST DUP2 ADD DUP2 DUP2 LT PUSH8 0xFFFFFFFFFFFFFFFF DUP3 GT OR ISZERO PUSH2 0x70F JUMPI PUSH2 0x70E PUSH2 0x6B8 JUMP JUMPDEST JUMPDEST DUP1 PUSH1 0x40 MSTORE POP POP POP JUMP JUMPDEST PUSH1 0x0 PUSH2 0x722 PUSH2 0x51F JUMP JUMPDEST SWAP1 POP PUSH2 0x72E DUP3 DUP3 PUSH2 0x6E7 JUMP JUMPDEST SWAP2 SWAP1 POP JUMP JUMPDEST PUSH1 0x0 PUSH8 0xFFFFFFFFFFFFFFFF DUP3 GT ISZERO PUSH2 0x74E JUMPI PUSH2 0x74D PUSH2 0x6B8 JUMP JUMPDEST JUMPDEST PUSH2 0x757 DUP3 PUSH2 0x5EB JUMP JUMPDEST SWAP1 POP PUSH1 0x20 DUP2 ADD SWAP1 POP SWAP2 SWAP1 POP JUMP JUMPDEST DUP3 DUP2 DUP4 CALLDATACOPY PUSH1 0x0 DUP4 DUP4 ADD MSTORE POP POP POP JUMP JUMPDEST PUSH1 0x0 PUSH2 0x786 PUSH2 0x781 DUP5 PUSH2 0x733 JUMP JUMPDEST PUSH2 0x718 JUMP JUMPDEST SWAP1 POP DUP3 DUP2 MSTORE PUSH1 0x20 DUP2 ADD DUP5 DUP5 DUP5 ADD GT ISZERO PUSH2 0x7A2 JUMPI PUSH2 0x7A1 PUSH2 0x6B3 JUMP JUMPDEST JUMPDEST PUSH2 0x7AD DUP5 DUP3 DUP6 PUSH2 0x764 JUMP JUMPDEST POP SWAP4 SWAP3 POP POP POP JUMP JUMPDEST PUSH1 0x0 DUP3 PUSH1 0x1F DUP4 ADD SLT PUSH2 0x7CA JUMPI PUSH2 0x7C9 PUSH2 0x6AE JUMP JUMPDEST JUMPDEST DUP2 CALLDATALOAD PUSH2 0x7DA DUP5 DUP3 PUSH1 0x20 DUP7 ADD PUSH2 0x773 JUMP JUMPDEST SWAP2 POP POP SWAP3 SWAP2 POP POP JUMP JUMPDEST PUSH1 0x0 DUP1 PUSH1 0x0 PUSH1 0x60 DUP5 DUP7 SUB SLT ISZERO PUSH2 0x7FC JUMPI PUSH2 0x7FB PUSH2 0x529 JUMP JUMPDEST JUMPDEST PUSH1 0x0 PUSH2 0x80A DUP7 DUP3 DUP8 ADD PUSH2 0x554 JUMP JUMPDEST SWAP4 POP POP PUSH1 0x20 DUP5 ADD CALLDATALOAD PUSH8 0xFFFFFFFFFFFFFFFF DUP2 GT ISZERO PUSH2 0x82B JUMPI PUSH2 0x82A PUSH2 0x52E JUMP JUMPDEST JUMPDEST PUSH2 0x837 DUP7 DUP3 DUP8 ADD PUSH2 0x7B5 JUMP JUMPDEST SWAP3 POP POP PUSH1 0x40 DUP5 ADD CALLDATALOAD PUSH8 0xFFFFFFFFFFFFFFFF DUP2 GT ISZERO PUSH2 0x858 JUMPI PUSH2 0x857 PUSH2 0x52E JUMP JUMPDEST JUMPDEST PUSH2 0x864 DUP7 DUP3 DUP8 ADD PUSH2 0x7B5 JUMP JUMPDEST SWAP2 POP POP SWAP3 POP SWAP3 POP SWAP3 JUMP JUMPDEST PUSH32 0x4E487B7100000000000000000000000000000000000000000000000000000000 PUSH1 0x0 MSTORE PUSH1 0x32 PUSH1 0x4 MSTORE PUSH1 0x24 PUSH1 0x0 REVERT JUMPDEST PUSH32 0x4E487B7100000000000000000000000000000000000000000000000000000000 PUSH1 0x0 MSTORE PUSH1 0x22 PUSH1 0x4 MSTORE PUSH1 0x24 PUSH1 0x0 REVERT JUMPDEST PUSH1 0x0 PUSH1 0x2 DUP3 DIV SWAP1 POP PUSH1 0x1 DUP3 AND DUP1 PUSH2 0x8E4 JUMPI PUSH1 0x7F DUP3 AND SWAP2 POP JUMPDEST PUSH1 0x20 DUP3 LT DUP2 SUB PUSH2 0x8F7 JUMPI PUSH2 0x8F6 PUSH2 0x89D JUMP JUMPDEST JUMPDEST POP SWAP2 SWAP1 POP JUMP JUMPDEST PUSH32 0x4E487B7100000000000000000000000000000000000000000000000000000000 PUSH1 0x0 MSTORE PUSH1 0x11 PUSH1 0x4 MSTORE PUSH1 0x24 PUSH1 0x0 REVERT JUMPDEST PUSH1 0x0 PUSH2 0x937 DUP3 PUSH2 0x533 JUMP JUMPDEST SWAP2 POP PUSH32 0xFFFFFFFFFFFFFFFFFFFFFFFFFFFFFFFFFFFFFFFFFFFFFFFFFFFFFFFFFFFFFFFF DUP3 SUB PUSH2 0x969 JUMPI PUSH2 0x968 PUSH2 0x8FD JUMP JUMPDEST JUMPDEST PUSH1 0x1 DUP3 ADD SWAP1 POP SWAP2 SWAP1 POP JUMP JUMPDEST PUSH1 0x0 DUP2 SWAP1 POP DUP2 PUSH1 0x0 MSTORE PUSH1 0x20 PUSH1 0x0 KECCAK256 SWAP1 POP SWAP2 SWAP1 POP JUMP JUMPDEST PUSH1 0x0 PUSH1 0x20 PUSH1 0x1F DUP4 ADD DIV SWAP1 POP SWAP2 SWAP1 POP JUMP JUMPDEST PUSH1 0x0 DUP3 DUP3 SHL SWAP1 POP SWAP3 SWAP2 POP POP JUMP JUMPDEST PUSH1 0x0 PUSH1 0x8 DUP4 MUL PUSH2 0x9D6 PUSH32 0xFFFFFFFFFFFFFFFFFFFFFFFFFFFFFFFFFFFFFFFFFFFFFFFFFFFFFFFFFFFFFFFF DUP3 PUSH2 0x999 JUMP JUMPDEST PUSH2 0x9E0 DUP7 DUP4 PUSH2 0x999 JUMP JUMPDEST SWAP6 POP DUP1 NOT DUP5 AND SWAP4 POP DUP1 DUP7 AND DUP5 OR SWAP3 POP POP POP SWAP4 SWAP3 POP POP POP JUMP JUMPDEST PUSH1 0x0 DUP2 SWAP1 POP SWAP2 SWAP1 POP JUMP JUMPDEST PUSH1 0x0 PUSH2 0xA1D PUSH2 0xA18 PUSH2 0xA13 DUP5 PUSH2 0x533 JUMP JUMPDEST PUSH2 0x9F8 JUMP JUMPDEST PUSH2 0x533 JUMP JUMPDEST SWAP1 POP SWAP2 SWAP1 POP JUMP JUMPDEST PUSH1 0x0 DUP2 SWAP1 POP SWAP2 SWAP1 POP JUMP JUMPDEST PUSH2 0xA37 DUP4 PUSH2 0xA02 JUMP JUMPDEST PUSH2 0xA4B PUSH2 0xA43 DUP3 PUSH2 0xA24 JUMP JUMPDEST DUP5 DUP5 SLOAD PUSH2 0x9A6 JUMP JUMPDEST DUP3 SSTORE POP POP POP POP JUMP JUMPDEST PUSH1 0x0 SWAP1 JUMP JUMPDEST PUSH2 0xA60 PUSH2 0xA53 JUMP JUMPDEST PUSH2 0xA6B DUP2 DUP5 DUP5 PUSH2 0xA2E JUMP JUMPDEST POP POP POP JUMP JUMPDEST JUMPDEST DUP2 DUP2 LT ISZERO PUSH2 0xA8F JUMPI PUSH2 0xA84 PUSH1 0x0 DUP3 PUSH2 0xA58 JUMP JUMPDEST PUSH1 0x1 DUP2 ADD SWAP1 POP PUSH2 0xA71 JUMP JUMPDEST POP POP JUMP JUMPDEST PUSH1 0x1F DUP3 GT ISZERO PUSH2 0xAD4 JUMPI PUSH2 0xAA5 DUP2 PUSH2 0x974 JUMP JUMPDEST PUSH2 0xAAE DUP5 PUSH2 0x989 JUMP JUMPDEST DUP2 ADD PUSH1 0x20 DUP6 LT ISZERO PUSH2 0xABD JUMPI DUP2 SWAP1 POP JUMPDEST PUSH2 0xAD1 PUSH2 0xAC9 DUP6 PUSH2 0x989 JUMP JUMPDEST DUP4 ADD DUP3 PUSH2 0xA70 JUMP JUMPDEST POP POP JUMPDEST POP POP POP JUMP JUMPDEST PUSH1 0x0 DUP3 DUP3 SHR SWAP1 POP SWAP3 SWAP2 POP POP JUMP JUMPDEST PUSH1 0x0 PUSH2 0xAF7 PUSH1 0x0 NOT DUP5 PUSH1 0x8 MUL PUSH2 0xAD9 JUMP JUMPDEST NOT DUP1 DUP4 AND SWAP2 POP POP SWAP3 SWAP2 POP POP JUMP JUMPDEST PUSH1 0x0 PUSH2 0xB10 DUP4 DUP4 PUSH2 0xAE6 JUMP JUMPDEST SWAP2 POP DUP3 PUSH1 0x2 MUL DUP3 OR SWAP1 POP SWAP3 SWAP2 POP POP JUMP JUMPDEST PUSH2 0xB29 DUP3 PUSH2 0x5A5 JUMP JUMPDEST PUSH8 0xFFFFFFFFFFFFFFFF DUP2 GT ISZERO PUSH2 0xB42 JUMPI PUSH2 0xB41 PUSH2 0x6B8 JUMP JUMPDEST JUMPDEST PUSH2 0xB4C DUP3 SLOAD PUSH2 0x8CC JUMP JUMPDEST PUSH2 0xB57 DUP3 DUP3 DUP6 PUSH2 0xA93 JUMP JUMPDEST PUSH1 0x0 PUSH1 0x20 SWAP1 POP PUSH1 0x1F DUP4 GT PUSH1 0x1 DUP2 EQ PUSH2 0xB8A JUMPI PUSH1 0x0 DUP5 ISZERO PUSH2 0xB78 JUMPI DUP3 DUP8 ADD MLOAD SWAP1 POP JUMPDEST PUSH2 0xB82 DUP6 DUP3 PUSH2 0xB04 JUMP JUMPDEST DUP7 SSTORE POP PUSH2 0xBEA JUMP JUMPDEST PUSH1 0x1F NOT DUP5 AND PUSH2 0xB98 DUP7 PUSH2 0x974 JUMP JUMPDEST PUSH1 0x0 JUMPDEST DUP3 DUP2 LT ISZERO PUSH2 0xBC0 JUMPI DUP5 DUP10 ADD MLOAD DUP3 SSTORE PUSH1 0x1 DUP3 ADD SWAP2 POP PUSH1 0x20 DUP6 ADD SWAP5 POP PUSH1 0x20 DUP2 ADD SWAP1 POP PUSH2 0xB9B JUMP JUMPDEST DUP7 DUP4 LT ISZERO PUSH2 0xBDD JUMPI DUP5 DUP10 ADD MLOAD PUSH2 0xBD9 PUSH1 0x1F DUP10 AND DUP3 PUSH2 0xAE6 JUMP JUMPDEST DUP4 SSTORE POP JUMPDEST PUSH1 0x1 PUSH1 0x2 DUP9 MUL ADD DUP9 SSTORE POP POP POP JUMPDEST POP POP POP POP POP POP JUMP INVALID LOG2 PUSH5 0x6970667358 0x22 SLT KECCAK256 EXTCODESIZE EXP 0x5D 0xBA 0x27 0x24 PUSH9 0xB281287FA4D5A3FAD2 0xE8 0x26 ISZERO DUP14 SWAP9 POP EXP PUSH2 0xD588 0xD DUP10 0x4A EXTCODECOPY SWAP9 LT PUSH5 0x736F6C6343 STOP ADDMOD SLT STOP CALLER "
				},
				"gasEstimates": {
					"creation": {
						"codeDepositCost": "622400",
						"executionCost": "657",
						"totalCost": "623057"
					},
					"external": {
						"getMappingRecord(uint256)": "infinite",
						"getRecord(uint256)": "infinite",
						"setMappingRecord(uint256,string,string)": "infinite",
						"setRecord(uint256,string,string)": "infinite"
					}
				},
				"methodIdentifiers": {
					"getMappingRecord(uint256)": "a19417d5",
					"getRecord(uint256)": "03e9e609",
					"setMappingRecord(uint256,string,string)": "4546143e",
					"setRecord(uint256,string,string)": "a35a941e"
				}
			},
			"storageLayout": {
				"storage": [
					{
						"astId": 13,
						"contract": "Fall-2023/17_MappingStruct.sol:StudentMapping",
						"label": "mappingRecords",
						"offset": 0,
						"slot": "0",
						"type": "t_mapping(t_uint256,t_struct(Student)8_storage)"
					},
					{
						"astId": 17,
						"contract": "Fall-2023/17_MappingStruct.sol:StudentMapping",
						"label": "records",
						"offset": 0,
						"slot": "1",
						"type": "t_array(t_struct(Student)8_storage)dyn_storage"
					}
				],
				"types": {
					"t_array(t_struct(Student)8_storage)dyn_storage": {
						"base": "t_struct(Student)8_storage",
						"encoding": "dynamic_array",
						"label": "struct Student[]",
						"numberOfBytes": "32"
					},
					"t_mapping(t_uint256,t_struct(Student)8_storage)": {
						"encoding": "mapping",
						"key": "t_uint256",
						"label": "mapping(uint256 => struct Student)",
						"numberOfBytes": "32",
						"value": "t_struct(Student)8_storage"
					},
					"t_string_storage": {
						"encoding": "bytes",
						"label": "string",
						"numberOfBytes": "32"
					},
					"t_struct(Student)8_storage": {
						"encoding": "inplace",
						"label": "struct Student",
						"members": [
							{
								"astId": 3,
								"contract": "Fall-2023/17_MappingStruct.sol:StudentMapping",
								"label": "roll_no",
								"offset": 0,
								"slot": "0",
								"type": "t_uint256"
							},
							{
								"astId": 5,
								"contract": "Fall-2023/17_MappingStruct.sol:StudentMapping",
								"label": "name",
								"offset": 0,
								"slot": "1",
								"type": "t_string_storage"
							},
							{
								"astId": 7,
								"contract": "Fall-2023/17_MappingStruct.sol:StudentMapping",
								"label": "program",
								"offset": 0,
								"slot": "2",
								"type": "t_string_storage"
							}
						],
						"numberOfBytes": "96"
					},
					"t_uint256": {
						"encoding": "inplace",
						"label": "uint256",
						"numberOfBytes": "32"
					}
				}
			},
			"userdoc": {
				"kind": "user",
				"methods": {},
				"version": 1
			}
		}
	}
}