{
	"data": {
		"bytecode": {
			"linkReferences": {},
			"object": "608060405234801561001057600080fd5b506103be806100206000396000f3fe608060405234801561001057600080fd5b50600436106100365760003560e01c806398b8bbaa1461003b578063a16bbcc51461006b575b600080fd5b610055600480360381019061005091906101f8565b61009b565b60405161006291906102c8565b60405180910390f35b610085600480360381019061008091906101f8565b61013a565b60405161009291906102c8565b60405180910390f35b6060818311156100cc57826040516020016100b69190610362565b6040516020818303038152906040529050610134565b828211156100fb57816040516020016100e59190610362565b6040516020818303038152906040529050610134565b6040518060400160405280600d81526020017f457175616c204e756d626572730000000000000000000000000000000000000081525090505b92915050565b606081831461017e576040518060400160405280600981526020017f4e6f7420457175616c00000000000000000000000000000000000000000000008152506101b5565b6040518060400160405280600581526020017f457175616c0000000000000000000000000000000000000000000000000000008152505b905092915050565b600080fd5b6000819050919050565b6101d5816101c2565b81146101e057600080fd5b50565b6000813590506101f2816101cc565b92915050565b6000806040838503121561020f5761020e6101bd565b5b600061021d858286016101e3565b925050602061022e858286016101e3565b9150509250929050565b600081519050919050565b600082825260208201905092915050565b60005b83811015610272578082015181840152602081019050610257565b60008484015250505050565b6000601f19601f8301169050919050565b600061029a82610238565b6102a48185610243565b93506102b4818560208601610254565b6102bd8161027e565b840191505092915050565b600060208201905081810360008301526102e2818461028f565b905092915050565b6000819050919050565b610305610300826101c2565b6102ea565b82525050565b600081905092915050565b7f2069732067726561746572000000000000000000000000000000000000000000600082015250565b600061034c600b8361030b565b915061035782610316565b600b82019050919050565b600061036e82846102f4565b60208201915061037d8261033f565b91508190509291505056fea264697066735822122056b418edf7b62f1a15d0bb18dcedcdc301d2fca8a8ea4f57cb33142ef54b0e8e64736f6c63430008120033",
			"opcodes": "PUSH1 0x80 PUSH1 0x40 MSTORE CALLVALUE DUP1 ISZERO PUSH2 0x10 JUMPI PUSH1 0x0 DUP1 REVERT JUMPDEST POP PUSH2 0x3BE DUP1 PUSH2 0x20 PUSH1 0x0 CODECOPY PUSH1 0x0 RETURN INVALID PUSH1 0x80 PUSH1 0x40 MSTORE CALLVALUE DUP1 ISZERO PUSH2 0x10 JUMPI PUSH1 0x0 DUP1 REVERT JUMPDEST POP PUSH1 0x4 CALLDATASIZE LT PUSH2 0x36 JUMPI PUSH1 0x0 CALLDATALOAD PUSH1 0xE0 SHR DUP1 PUSH4 0x98B8BBAA EQ PUSH2 0x3B JUMPI DUP1 PUSH4 0xA16BBCC5 EQ PUSH2 0x6B JUMPI JUMPDEST PUSH1 0x0 DUP1 REVERT JUMPDEST PUSH2 0x55 PUSH1 0x4 DUP1 CALLDATASIZE SUB DUP2 ADD SWAP1 PUSH2 0x50 SWAP2 SWAP1 PUSH2 0x1F8 JUMP JUMPDEST PUSH2 0x9B JUMP JUMPDEST PUSH1 0x40 MLOAD PUSH2 0x62 SWAP2 SWAP1 PUSH2 0x2C8 JUMP JUMPDEST PUSH1 0x40 MLOAD DUP1 SWAP2 SUB SWAP1 RETURN JUMPDEST PUSH2 0x85 PUSH1 0x4 DUP1 CALLDATASIZE SUB DUP2 ADD SWAP1 PUSH2 0x80 SWAP2 SWAP1 PUSH2 0x1F8 JUMP JUMPDEST PUSH2 0x13A JUMP JUMPDEST PUSH1 0x40 MLOAD PUSH2 0x92 SWAP2 SWAP1 PUSH2 0x2C8 JUMP JUMPDEST PUSH1 0x40 MLOAD DUP1 SWAP2 SUB SWAP1 RETURN JUMPDEST PUSH1 0x60 DUP2 DUP4 GT ISZERO PUSH2 0xCC JUMPI DUP3 PUSH1 0x40 MLOAD PUSH1 0x20 ADD PUSH2 0xB6 SWAP2 SWAP1 PUSH2 0x362 JUMP JUMPDEST PUSH1 0x40 MLOAD PUSH1 0x20 DUP2 DUP4 SUB SUB DUP2 MSTORE SWAP1 PUSH1 0x40 MSTORE SWAP1 POP PUSH2 0x134 JUMP JUMPDEST DUP3 DUP3 GT ISZERO PUSH2 0xFB JUMPI DUP2 PUSH1 0x40 MLOAD PUSH1 0x20 ADD PUSH2 0xE5 SWAP2 SWAP1 PUSH2 0x362 JUMP JUMPDEST PUSH1 0x40 MLOAD PUSH1 0x20 DUP2 DUP4 SUB SUB DUP2 MSTORE SWAP1 PUSH1 0x40 MSTORE SWAP1 POP PUSH2 0x134 JUMP JUMPDEST PUSH1 0x40 MLOAD DUP1 PUSH1 0x40 ADD PUSH1 0x40 MSTORE DUP1 PUSH1 0xD DUP2 MSTORE PUSH1 0x20 ADD PUSH32 0x457175616C204E756D6265727300000000000000000000000000000000000000 DUP2 MSTORE POP SWAP1 POP JUMPDEST SWAP3 SWAP2 POP POP JUMP JUMPDEST PUSH1 0x60 DUP2 DUP4 EQ PUSH2 0x17E JUMPI PUSH1 0x40 MLOAD DUP1 PUSH1 0x40 ADD PUSH1 0x40 MSTORE DUP1 PUSH1 0x9 DUP2 MSTORE PUSH1 0x20 ADD PUSH32 0x4E6F7420457175616C0000000000000000000000000000000000000000000000 DUP2 MSTORE POP PUSH2 0x1B5 JUMP JUMPDEST PUSH1 0x40 MLOAD DUP1 PUSH1 0x40 ADD PUSH1 0x40 MSTORE DUP1 PUSH1 0x5 DUP2 MSTORE PUSH1 0x20 ADD PUSH32 0x457175616C000000000000000000000000000000000000000000000000000000 DUP2 MSTORE POP JUMPDEST SWAP1 POP SWAP3 SWAP2 POP POP JUMP JUMPDEST PUSH1 0x0 DUP1 REVERT JUMPDEST PUSH1 0x0 DUP2 SWAP1 POP SWAP2 SWAP1 POP JUMP JUMPDEST PUSH2 0x1D5 DUP2 PUSH2 0x1C2 JUMP JUMPDEST DUP2 EQ PUSH2 0x1E0 JUMPI PUSH1 0x0 DUP1 REVERT JUMPDEST POP JUMP JUMPDEST PUSH1 0x0 DUP2 CALLDATALOAD SWAP1 POP PUSH2 0x1F2 DUP2 PUSH2 0x1CC JUMP JUMPDEST SWAP3 SWAP2 POP POP JUMP JUMPDEST PUSH1 0x0 DUP1 PUSH1 0x40 DUP4 DUP6 SUB SLT ISZERO PUSH2 0x20F JUMPI PUSH2 0x20E PUSH2 0x1BD JUMP JUMPDEST JUMPDEST PUSH1 0x0 PUSH2 0x21D DUP6 DUP3 DUP7 ADD PUSH2 0x1E3 JUMP JUMPDEST SWAP3 POP POP PUSH1 0x20 PUSH2 0x22E DUP6 DUP3 DUP7 ADD PUSH2 0x1E3 JUMP JUMPDEST SWAP2 POP POP SWAP3 POP SWAP3 SWAP1 POP JUMP JUMPDEST PUSH1 0x0 DUP2 MLOAD SWAP1 POP SWAP2 SWAP1 POP JUMP JUMPDEST PUSH1 0x0 DUP3 DUP3 MSTORE PUSH1 0x20 DUP3 ADD SWAP1 POP SWAP3 SWAP2 POP POP JUMP JUMPDEST PUSH1 0x0 JUMPDEST DUP4 DUP2 LT ISZERO PUSH2 0x272 JUMPI DUP1 DUP3 ADD MLOAD DUP2 DUP5 ADD MSTORE PUSH1 0x20 DUP2 ADD SWAP1 POP PUSH2 0x257 JUMP JUMPDEST PUSH1 0x0 DUP5 DUP5 ADD MSTORE POP POP POP POP JUMP JUMPDEST PUSH1 0x0 PUSH1 0x1F NOT PUSH1 0x1F DUP4 ADD AND SWAP1 POP SWAP2 SWAP1 POP JUMP JUMPDEST PUSH1 0x0 PUSH2 0x29A DUP3 PUSH2 0x238 JUMP JUMPDEST PUSH2 0x2A4 DUP2 DUP6 PUSH2 0x243 JUMP JUMPDEST SWAP4 POP PUSH2 0x2B4 DUP2 DUP6 PUSH1 0x20 DUP7 ADD PUSH2 0x254 JUMP JUMPDEST PUSH2 0x2BD DUP2 PUSH2 0x27E JUMP JUMPDEST DUP5 ADD SWAP2 POP POP SWAP3 SWAP2 POP POP JUMP JUMPDEST PUSH1 0x0 PUSH1 0x20 DUP3 ADD SWAP1 POP DUP2 DUP2 SUB PUSH1 0x0 DUP4 ADD MSTORE PUSH2 0x2E2 DUP2 DUP5 PUSH2 0x28F JUMP JUMPDEST SWAP1 POP SWAP3 SWAP2 POP POP JUMP JUMPDEST PUSH1 0x0 DUP2 SWAP1 POP SWAP2 SWAP1 POP JUMP JUMPDEST PUSH2 0x305 PUSH2 0x300 DUP3 PUSH2 0x1C2 JUMP JUMPDEST PUSH2 0x2EA JUMP JUMPDEST DUP3 MSTORE POP POP JUMP JUMPDEST PUSH1 0x0 DUP2 SWAP1 POP SWAP3 SWAP2 POP POP JUMP JUMPDEST PUSH32 0x2069732067726561746572000000000000000000000000000000000000000000 PUSH1 0x0 DUP3 ADD MSTORE POP JUMP JUMPDEST PUSH1 0x0 PUSH2 0x34C PUSH1 0xB DUP4 PUSH2 0x30B JUMP JUMPDEST SWAP2 POP PUSH2 0x357 DUP3 PUSH2 0x316 JUMP JUMPDEST PUSH1 0xB DUP3 ADD SWAP1 POP SWAP2 SWAP1 POP JUMP JUMPDEST PUSH1 0x0 PUSH2 0x36E DUP3 DUP5 PUSH2 0x2F4 JUMP JUMPDEST PUSH1 0x20 DUP3 ADD SWAP2 POP PUSH2 0x37D DUP3 PUSH2 0x33F JUMP JUMPDEST SWAP2 POP DUP2 SWAP1 POP SWAP3 SWAP2 POP POP JUMP INVALID LOG2 PUSH5 0x6970667358 0x22 SLT KECCAK256 JUMP 0xB4 XOR 0xED 0xF7 0xB6 0x2F BYTE ISZERO 0xD0 0xBB XOR 0xDC 0xED 0xCD 0xC3 ADD 0xD2 0xFC 0xA8 0xA8 0xEA 0x4F JUMPI 0xCB CALLER EQ 0x2E CREATE2 0x4B 0xE DUP15 PUSH5 0x736F6C6343 STOP ADDMOD SLT STOP CALLER "
		},
		"gasEstimates": {
			"creation": {
				"codeDepositCost": "191600",
				"executionCost": "232",
				"totalCost": "191832"
			},
			"external": {
				"returnEqualTernary(uint256,uint256)": "infinite",
				"returnGreater(uint256,uint256)": "infinite"
			}
		},
		"methodIdentifiers": {
			"returnEqualTernary(uint256,uint256)": "a16bbcc5",
			"returnGreater(uint256,uint256)": "98b8bbaa"
		}
	},
	"abi": [
		{
			"inputs": [
				{
					"internalType": "uint256",
					"name": "num1",
					"type": "uint256"
				},
				{
					"internalType": "uint256",
					"name": "num2",
					"type": "uint256"
				}
			],
			"name": "returnEqualTernary",
			"outputs": [
				{
					"internalType": "string",
					"name": "",
					"type": "string"
				}
			],
			"stateMutability": "pure",
			"type": "function"
		},
		{
			"inputs": [
				{
					"internalType": "uint256",
					"name": "num1",
					"type": "uint256"
				},
				{
					"internalType": "uint256",
					"name": "num2",
					"type": "uint256"
				}
			],
			"name": "returnGreater",
			"outputs": [
				{
					"internalType": "string",
					"name": "",
					"type": "string"
				}
			],
			"stateMutability": "pure",
			"type": "function"
		}
	]
}