{
	"data": {
		"bytecode": {
			"linkReferences": {},
			"object": "608060405234801561001057600080fd5b50600560008190555060066001819055506101d3806100306000396000f3fe608060405234801561001057600080fd5b506004361061004c5760003560e01c8063209652551461005157806395cacbe01461006f5780639c3dfaf61461008d578063c82fdf36146100a9575b600080fd5b6100596100c7565b6040516100669190610111565b60405180910390f35b6100776100da565b6040516100849190610111565b60405180910390f35b6100a760048036038101906100a2919061015d565b6100e0565b005b6100b16100f2565b6040516100be9190610111565b60405180910390f35b6000806001546000541890508091505090565b60015481565b81600081905550806001819055505050565b60005481565b6000819050919050565b61010b816100f8565b82525050565b60006020820190506101266000830184610102565b92915050565b600080fd5b61013a816100f8565b811461014557600080fd5b50565b60008135905061015781610131565b92915050565b600080604083850312156101745761017361012c565b5b600061018285828601610148565b925050602061019385828601610148565b915050925092905056fea2646970667358221220b5fe73f3fd304e00a6bcf2fd603e143713063e8d595a1c8c112bff6e9a8ee3d164736f6c63430008120033",
			"opcodes": "PUSH1 0x80 PUSH1 0x40 MSTORE CALLVALUE DUP1 ISZERO PUSH2 0x10 JUMPI PUSH1 0x0 DUP1 REVERT JUMPDEST POP PUSH1 0x5 PUSH1 0x0 DUP2 SWAP1 SSTORE POP PUSH1 0x6 PUSH1 0x1 DUP2 SWAP1 SSTORE POP PUSH2 0x1D3 DUP1 PUSH2 0x30 PUSH1 0x0 CODECOPY PUSH1 0x0 RETURN INVALID PUSH1 0x80 PUSH1 0x40 MSTORE CALLVALUE DUP1 ISZERO PUSH2 0x10 JUMPI PUSH1 0x0 DUP1 REVERT JUMPDEST POP PUSH1 0x4 CALLDATASIZE LT PUSH2 0x4C JUMPI PUSH1 0x0 CALLDATALOAD PUSH1 0xE0 SHR DUP1 PUSH4 0x20965255 EQ PUSH2 0x51 JUMPI DUP1 PUSH4 0x95CACBE0 EQ PUSH2 0x6F JUMPI DUP1 PUSH4 0x9C3DFAF6 EQ PUSH2 0x8D JUMPI DUP1 PUSH4 0xC82FDF36 EQ PUSH2 0xA9 JUMPI JUMPDEST PUSH1 0x0 DUP1 REVERT JUMPDEST PUSH2 0x59 PUSH2 0xC7 JUMP JUMPDEST PUSH1 0x40 MLOAD PUSH2 0x66 SWAP2 SWAP1 PUSH2 0x111 JUMP JUMPDEST PUSH1 0x40 MLOAD DUP1 SWAP2 SUB SWAP1 RETURN JUMPDEST PUSH2 0x77 PUSH2 0xDA JUMP JUMPDEST PUSH1 0x40 MLOAD PUSH2 0x84 SWAP2 SWAP1 PUSH2 0x111 JUMP JUMPDEST PUSH1 0x40 MLOAD DUP1 SWAP2 SUB SWAP1 RETURN JUMPDEST PUSH2 0xA7 PUSH1 0x4 DUP1 CALLDATASIZE SUB DUP2 ADD SWAP1 PUSH2 0xA2 SWAP2 SWAP1 PUSH2 0x15D JUMP JUMPDEST PUSH2 0xE0 JUMP JUMPDEST STOP JUMPDEST PUSH2 0xB1 PUSH2 0xF2 JUMP JUMPDEST PUSH1 0x40 MLOAD PUSH2 0xBE SWAP2 SWAP1 PUSH2 0x111 JUMP JUMPDEST PUSH1 0x40 MLOAD DUP1 SWAP2 SUB SWAP1 RETURN JUMPDEST PUSH1 0x0 DUP1 PUSH1 0x1 SLOAD PUSH1 0x0 SLOAD XOR SWAP1 POP DUP1 SWAP2 POP POP SWAP1 JUMP JUMPDEST PUSH1 0x1 SLOAD DUP2 JUMP JUMPDEST DUP2 PUSH1 0x0 DUP2 SWAP1 SSTORE POP DUP1 PUSH1 0x1 DUP2 SWAP1 SSTORE POP POP POP JUMP JUMPDEST PUSH1 0x0 SLOAD DUP2 JUMP JUMPDEST PUSH1 0x0 DUP2 SWAP1 POP SWAP2 SWAP1 POP JUMP JUMPDEST PUSH2 0x10B DUP2 PUSH2 0xF8 JUMP JUMPDEST DUP3 MSTORE POP POP JUMP JUMPDEST PUSH1 0x0 PUSH1 0x20 DUP3 ADD SWAP1 POP PUSH2 0x126 PUSH1 0x0 DUP4 ADD DUP5 PUSH2 0x102 JUMP JUMPDEST SWAP3 SWAP2 POP POP JUMP JUMPDEST PUSH1 0x0 DUP1 REVERT JUMPDEST PUSH2 0x13A DUP2 PUSH2 0xF8 JUMP JUMPDEST DUP2 EQ PUSH2 0x145 JUMPI PUSH1 0x0 DUP1 REVERT JUMPDEST POP JUMP JUMPDEST PUSH1 0x0 DUP2 CALLDATALOAD SWAP1 POP PUSH2 0x157 DUP2 PUSH2 0x131 JUMP JUMPDEST SWAP3 SWAP2 POP POP JUMP JUMPDEST PUSH1 0x0 DUP1 PUSH1 0x40 DUP4 DUP6 SUB SLT ISZERO PUSH2 0x174 JUMPI PUSH2 0x173 PUSH2 0x12C JUMP JUMPDEST JUMPDEST PUSH1 0x0 PUSH2 0x182 DUP6 DUP3 DUP7 ADD PUSH2 0x148 JUMP JUMPDEST SWAP3 POP POP PUSH1 0x20 PUSH2 0x193 DUP6 DUP3 DUP7 ADD PUSH2 0x148 JUMP JUMPDEST SWAP2 POP POP SWAP3 POP SWAP3 SWAP1 POP JUMP INVALID LOG2 PUSH5 0x6970667358 0x22 SLT KECCAK256 0xB5 INVALID PUSH20 0xF3FD304E00A6BCF2FD603E143713063E8D595A1C DUP13 GT 0x2B SELFDESTRUCT PUSH15 0x9A8EE3D164736F6C63430008120033 "
		},
		"gasEstimates": {
			"creation": {
				"codeDepositCost": "93400",
				"executionCost": "44369",
				"totalCost": "137769"
			},
			"external": {
				"getValue()": "4534",
				"setValues(uint256,uint256)": "infinite",
				"val1()": "2473",
				"val2()": "2429"
			}
		},
		"methodIdentifiers": {
			"getValue()": "20965255",
			"setValues(uint256,uint256)": "9c3dfaf6",
			"val1()": "c82fdf36",
			"val2()": "95cacbe0"
		}
	},
	"abi": [
		{
			"inputs": [],
			"stateMutability": "nonpayable",
			"type": "constructor"
		},
		{
			"inputs": [],
			"name": "getValue",
			"outputs": [
				{
					"internalType": "uint256",
					"name": "",
					"type": "uint256"
				}
			],
			"stateMutability": "view",
			"type": "function"
		},
		{
			"inputs": [
				{
					"internalType": "uint256",
					"name": "_v1",
					"type": "uint256"
				},
				{
					"internalType": "uint256",
					"name": "_v2",
					"type": "uint256"
				}
			],
			"name": "setValues",
			"outputs": [],
			"stateMutability": "nonpayable",
			"type": "function"
		},
		{
			"inputs": [],
			"name": "val1",
			"outputs": [
				{
					"internalType": "uint256",
					"name": "",
					"type": "uint256"
				}
			],
			"stateMutability": "view",
			"type": "function"
		},
		{
			"inputs": [],
			"name": "val2",
			"outputs": [
				{
					"internalType": "uint256",
					"name": "",
					"type": "uint256"
				}
			],
			"stateMutability": "view",
			"type": "function"
		}
	]
}