{
	"data": {
		"bytecode": {
			"linkReferences": {},
			"object": "608060405234801561001057600080fd5b506101b4806100206000396000f3fe608060405234801561001057600080fd5b50600436106100415760003560e01c806320965255146100465780639942ec6f14610064578063c27fc30514610082575b600080fd5b61004e6100a0565b60405161005b9190610100565b60405180910390f35b61006c6100cc565b6040516100799190610100565b60405180910390f35b61008a6100d5565b6040516100979190610100565b60405180910390f35b6000806100ab6100d5565b905060006100b76100de565b905080826100c5919061014a565b9250505090565b60006002905090565b60006001905090565b60006003905090565b6000819050919050565b6100fa816100e7565b82525050565b600060208201905061011560008301846100f1565b92915050565b7f4e487b7100000000000000000000000000000000000000000000000000000000600052601160045260246000fd5b6000610155826100e7565b9150610160836100e7565b92508282019050808211156101785761017761011b565b5b9291505056fea2646970667358221220d0b3d891250cdcdf7a79df10b556cd34966b1a4844489220c4d5aa0479fff9fe64736f6c63430008120033",
			"opcodes": "PUSH1 0x80 PUSH1 0x40 MSTORE CALLVALUE DUP1 ISZERO PUSH2 0x10 JUMPI PUSH1 0x0 DUP1 REVERT JUMPDEST POP PUSH2 0x1B4 DUP1 PUSH2 0x20 PUSH1 0x0 CODECOPY PUSH1 0x0 RETURN INVALID PUSH1 0x80 PUSH1 0x40 MSTORE CALLVALUE DUP1 ISZERO PUSH2 0x10 JUMPI PUSH1 0x0 DUP1 REVERT JUMPDEST POP PUSH1 0x4 CALLDATASIZE LT PUSH2 0x41 JUMPI PUSH1 0x0 CALLDATALOAD PUSH1 0xE0 SHR DUP1 PUSH4 0x20965255 EQ PUSH2 0x46 JUMPI DUP1 PUSH4 0x9942EC6F EQ PUSH2 0x64 JUMPI DUP1 PUSH4 0xC27FC305 EQ PUSH2 0x82 JUMPI JUMPDEST PUSH1 0x0 DUP1 REVERT JUMPDEST PUSH2 0x4E PUSH2 0xA0 JUMP JUMPDEST PUSH1 0x40 MLOAD PUSH2 0x5B SWAP2 SWAP1 PUSH2 0x100 JUMP JUMPDEST PUSH1 0x40 MLOAD DUP1 SWAP2 SUB SWAP1 RETURN JUMPDEST PUSH2 0x6C PUSH2 0xCC JUMP JUMPDEST PUSH1 0x40 MLOAD PUSH2 0x79 SWAP2 SWAP1 PUSH2 0x100 JUMP JUMPDEST PUSH1 0x40 MLOAD DUP1 SWAP2 SUB SWAP1 RETURN JUMPDEST PUSH2 0x8A PUSH2 0xD5 JUMP JUMPDEST PUSH1 0x40 MLOAD PUSH2 0x97 SWAP2 SWAP1 PUSH2 0x100 JUMP JUMPDEST PUSH1 0x40 MLOAD DUP1 SWAP2 SUB SWAP1 RETURN JUMPDEST PUSH1 0x0 DUP1 PUSH2 0xAB PUSH2 0xD5 JUMP JUMPDEST SWAP1 POP PUSH1 0x0 PUSH2 0xB7 PUSH2 0xDE JUMP JUMPDEST SWAP1 POP DUP1 DUP3 PUSH2 0xC5 SWAP2 SWAP1 PUSH2 0x14A JUMP JUMPDEST SWAP3 POP POP POP SWAP1 JUMP JUMPDEST PUSH1 0x0 PUSH1 0x2 SWAP1 POP SWAP1 JUMP JUMPDEST PUSH1 0x0 PUSH1 0x1 SWAP1 POP SWAP1 JUMP JUMPDEST PUSH1 0x0 PUSH1 0x3 SWAP1 POP SWAP1 JUMP JUMPDEST PUSH1 0x0 DUP2 SWAP1 POP SWAP2 SWAP1 POP JUMP JUMPDEST PUSH2 0xFA DUP2 PUSH2 0xE7 JUMP JUMPDEST DUP3 MSTORE POP POP JUMP JUMPDEST PUSH1 0x0 PUSH1 0x20 DUP3 ADD SWAP1 POP PUSH2 0x115 PUSH1 0x0 DUP4 ADD DUP5 PUSH2 0xF1 JUMP JUMPDEST SWAP3 SWAP2 POP POP JUMP JUMPDEST PUSH32 0x4E487B7100000000000000000000000000000000000000000000000000000000 PUSH1 0x0 MSTORE PUSH1 0x11 PUSH1 0x4 MSTORE PUSH1 0x24 PUSH1 0x0 REVERT JUMPDEST PUSH1 0x0 PUSH2 0x155 DUP3 PUSH2 0xE7 JUMP JUMPDEST SWAP2 POP PUSH2 0x160 DUP4 PUSH2 0xE7 JUMP JUMPDEST SWAP3 POP DUP3 DUP3 ADD SWAP1 POP DUP1 DUP3 GT ISZERO PUSH2 0x178 JUMPI PUSH2 0x177 PUSH2 0x11B JUMP JUMPDEST JUMPDEST SWAP3 SWAP2 POP POP JUMP INVALID LOG2 PUSH5 0x6970667358 0x22 SLT KECCAK256 0xD0 0xB3 0xD8 SWAP2 0x25 0xC 0xDC 0xDF PUSH27 0x79DF10B556CD34966B1A4844489220C4D5AA0479FFF9FE64736F6C PUSH4 0x43000812 STOP CALLER "
		},
		"gasEstimates": {
			"creation": {
				"codeDepositCost": "87200",
				"executionCost": "135",
				"totalCost": "87335"
			},
			"external": {
				"f1()": "359",
				"f2()": "337",
				"getValue()": "infinite"
			}
		},
		"methodIdentifiers": {
			"f1()": "c27fc305",
			"f2()": "9942ec6f",
			"getValue()": "20965255"
		}
	},
	"abi": [
		{
			"inputs": [],
			"name": "f1",
			"outputs": [
				{
					"internalType": "uint256",
					"name": "",
					"type": "uint256"
				}
			],
			"stateMutability": "pure",
			"type": "function"
		},
		{
			"inputs": [],
			"name": "f2",
			"outputs": [
				{
					"internalType": "uint256",
					"name": "",
					"type": "uint256"
				}
			],
			"stateMutability": "pure",
			"type": "function"
		},
		{
			"inputs": [],
			"name": "getValue",
			"outputs": [
				{
					"internalType": "uint256",
					"name": "",
					"type": "uint256"
				}
			],
			"stateMutability": "pure",
			"type": "function"
		}
	]
}