{
	"data": {
		"bytecode": {
			"linkReferences": {},
			"object": "608060405234801561000f575f80fd5b506108158061001d5f395ff3fe60806040526004361061003e575f3560e01c80635a19818d146100425780639869faa71461005e578063ce172b1c1461007a578063d8be34e914610096575b5f80fd5b61005c6004803603810190610057919061032b565b6100c0565b005b6100786004803603810190610073919061032b565b610107565b005b610094600480360381019061008f919061032b565b610182565b005b3480156100a1575f80fd5b506100aa610242565b6040516100b791906103e0565b60405180910390f35b8073ffffffffffffffffffffffffffffffffffffffff166108fc3490811502906040515f60405180830381858888f19350505050158015610103573d5f803e3d5ffd5b5050565b5f8173ffffffffffffffffffffffffffffffffffffffff166108fc3490811502906040515f60405180830381858888f1935050505090508061017e576040517f08c379a00000000000000000000000000000000000000000000000000000000081526004016101759061045a565b60405180910390fd5b5050565b5f808273ffffffffffffffffffffffffffffffffffffffff165f346040516101a9906104cc565b5f60405180830381858888f193505050503d805f81146101e4576040519150601f19603f3d011682016040523d82523d5f602084013e6101e9565b606091505b50915091508161022e576040517f08c379a00000000000000000000000000000000000000000000000000000000081526004016102259061045a565b60405180910390fd5b805f908161023c9190610710565b50505050565b5f805461024e9061053a565b80601f016020809104026020016040519081016040528092919081815260200182805461027a9061053a565b80156102c55780601f1061029c576101008083540402835291602001916102c5565b820191905f5260205f20905b8154815290600101906020018083116102a857829003601f168201915b505050505081565b5f80fd5b5f73ffffffffffffffffffffffffffffffffffffffff82169050919050565b5f6102fa826102d1565b9050919050565b61030a816102f0565b8114610314575f80fd5b50565b5f8135905061032581610301565b92915050565b5f602082840312156103405761033f6102cd565b5b5f61034d84828501610317565b91505092915050565b5f81519050919050565b5f82825260208201905092915050565b5f5b8381101561038d578082015181840152602081019050610372565b5f8484015250505050565b5f601f19601f8301169050919050565b5f6103b282610356565b6103bc8185610360565b93506103cc818560208601610370565b6103d581610398565b840191505092915050565b5f6020820190508181035f8301526103f881846103a8565b905092915050565b5f82825260208201905092915050565b7f4661696c75726521204574686572206e6f742073656e740000000000000000005f82015250565b5f610444601783610400565b915061044f82610410565b602082019050919050565b5f6020820190508181035f83015261047181610438565b9050919050565b5f81905092915050565b7f66756e635f7369676e61747572652875696e74323536206172677329000000005f82015250565b5f6104b6601c83610478565b91506104c182610482565b601c82019050919050565b5f6104d6826104aa565b9150819050919050565b7f4e487b71000000000000000000000000000000000000000000000000000000005f52604160045260245ffd5b7f4e487b71000000000000000000000000000000000000000000000000000000005f52602260045260245ffd5b5f600282049050600182168061055157607f821691505b6020821081036105645761056361050d565b5b50919050565b5f819050815f5260205f209050919050565b5f6020601f8301049050919050565b5f82821b905092915050565b5f600883026105c67fffffffffffffffffffffffffffffffffffffffffffffffffffffffffffffffff8261058b565b6105d0868361058b565b95508019841693508086168417925050509392505050565b5f819050919050565b5f819050919050565b5f61061461060f61060a846105e8565b6105f1565b6105e8565b9050919050565b5f819050919050565b61062d836105fa565b6106416106398261061b565b848454610597565b825550505050565b5f90565b610655610649565b610660818484610624565b505050565b5b81811015610683576106785f8261064d565b600181019050610666565b5050565b601f8211156106c8576106998161056a565b6106a28461057c565b810160208510156106b1578190505b6106c56106bd8561057c565b830182610665565b50505b505050565b5f82821c905092915050565b5f6106e85f19846008026106cd565b1980831691505092915050565b5f61070083836106d9565b9150826002028217905092915050565b61071982610356565b67ffffffffffffffff811115610732576107316104e0565b5b61073c825461053a565b610747828285610687565b5f60209050601f831160018114610778575f8415610766578287015190505b61077085826106f5565b8655506107d7565b601f1984166107868661056a565b5f5b828110156107ad57848901518255600182019150602085019450602081019050610788565b868310156107ca57848901516107c6601f8916826106d9565b8355505b6001600288020188555050505b50505050505056fea26469706673582212209007425db9af77cbedf30ad54ad6eb01de599af82e5bc599d82b69ec2e72354c64736f6c63430008160033",
			"opcodes": "PUSH1 0x80 PUSH1 0x40 MSTORE CALLVALUE DUP1 ISZERO PUSH2 0xF JUMPI PUSH0 DUP1 REVERT JUMPDEST POP PUSH2 0x815 DUP1 PUSH2 0x1D PUSH0 CODECOPY PUSH0 RETURN INVALID PUSH1 0x80 PUSH1 0x40 MSTORE PUSH1 0x4 CALLDATASIZE LT PUSH2 0x3E JUMPI PUSH0 CALLDATALOAD PUSH1 0xE0 SHR DUP1 PUSH4 0x5A19818D EQ PUSH2 0x42 JUMPI DUP1 PUSH4 0x9869FAA7 EQ PUSH2 0x5E JUMPI DUP1 PUSH4 0xCE172B1C EQ PUSH2 0x7A JUMPI DUP1 PUSH4 0xD8BE34E9 EQ PUSH2 0x96 JUMPI JUMPDEST PUSH0 DUP1 REVERT JUMPDEST PUSH2 0x5C PUSH1 0x4 DUP1 CALLDATASIZE SUB DUP2 ADD SWAP1 PUSH2 0x57 SWAP2 SWAP1 PUSH2 0x32B JUMP JUMPDEST PUSH2 0xC0 JUMP JUMPDEST STOP JUMPDEST PUSH2 0x78 PUSH1 0x4 DUP1 CALLDATASIZE SUB DUP2 ADD SWAP1 PUSH2 0x73 SWAP2 SWAP1 PUSH2 0x32B JUMP JUMPDEST PUSH2 0x107 JUMP JUMPDEST STOP JUMPDEST PUSH2 0x94 PUSH1 0x4 DUP1 CALLDATASIZE SUB DUP2 ADD SWAP1 PUSH2 0x8F SWAP2 SWAP1 PUSH2 0x32B JUMP JUMPDEST PUSH2 0x182 JUMP JUMPDEST STOP JUMPDEST CALLVALUE DUP1 ISZERO PUSH2 0xA1 JUMPI PUSH0 DUP1 REVERT JUMPDEST POP PUSH2 0xAA PUSH2 0x242 JUMP JUMPDEST PUSH1 0x40 MLOAD PUSH2 0xB7 SWAP2 SWAP1 PUSH2 0x3E0 JUMP JUMPDEST PUSH1 0x40 MLOAD DUP1 SWAP2 SUB SWAP1 RETURN JUMPDEST DUP1 PUSH20 0xFFFFFFFFFFFFFFFFFFFFFFFFFFFFFFFFFFFFFFFF AND PUSH2 0x8FC CALLVALUE SWAP1 DUP2 ISZERO MUL SWAP1 PUSH1 0x40 MLOAD PUSH0 PUSH1 0x40 MLOAD DUP1 DUP4 SUB DUP2 DUP6 DUP9 DUP9 CALL SWAP4 POP POP POP POP ISZERO DUP1 ISZERO PUSH2 0x103 JUMPI RETURNDATASIZE PUSH0 DUP1 RETURNDATACOPY RETURNDATASIZE PUSH0 REVERT JUMPDEST POP POP JUMP JUMPDEST PUSH0 DUP2 PUSH20 0xFFFFFFFFFFFFFFFFFFFFFFFFFFFFFFFFFFFFFFFF AND PUSH2 0x8FC CALLVALUE SWAP1 DUP2 ISZERO MUL SWAP1 PUSH1 0x40 MLOAD PUSH0 PUSH1 0x40 MLOAD DUP1 DUP4 SUB DUP2 DUP6 DUP9 DUP9 CALL SWAP4 POP POP POP POP SWAP1 POP DUP1 PUSH2 0x17E JUMPI PUSH1 0x40 MLOAD PUSH32 0x8C379A000000000000000000000000000000000000000000000000000000000 DUP2 MSTORE PUSH1 0x4 ADD PUSH2 0x175 SWAP1 PUSH2 0x45A JUMP JUMPDEST PUSH1 0x40 MLOAD DUP1 SWAP2 SUB SWAP1 REVERT JUMPDEST POP POP JUMP JUMPDEST PUSH0 DUP1 DUP3 PUSH20 0xFFFFFFFFFFFFFFFFFFFFFFFFFFFFFFFFFFFFFFFF AND PUSH0 CALLVALUE PUSH1 0x40 MLOAD PUSH2 0x1A9 SWAP1 PUSH2 0x4CC JUMP JUMPDEST PUSH0 PUSH1 0x40 MLOAD DUP1 DUP4 SUB DUP2 DUP6 DUP9 DUP9 CALL SWAP4 POP POP POP POP RETURNDATASIZE DUP1 PUSH0 DUP2 EQ PUSH2 0x1E4 JUMPI PUSH1 0x40 MLOAD SWAP2 POP PUSH1 0x1F NOT PUSH1 0x3F RETURNDATASIZE ADD AND DUP3 ADD PUSH1 0x40 MSTORE RETURNDATASIZE DUP3 MSTORE RETURNDATASIZE PUSH0 PUSH1 0x20 DUP5 ADD RETURNDATACOPY PUSH2 0x1E9 JUMP JUMPDEST PUSH1 0x60 SWAP2 POP JUMPDEST POP SWAP2 POP SWAP2 POP DUP2 PUSH2 0x22E JUMPI PUSH1 0x40 MLOAD PUSH32 0x8C379A000000000000000000000000000000000000000000000000000000000 DUP2 MSTORE PUSH1 0x4 ADD PUSH2 0x225 SWAP1 PUSH2 0x45A JUMP JUMPDEST PUSH1 0x40 MLOAD DUP1 SWAP2 SUB SWAP1 REVERT JUMPDEST DUP1 PUSH0 SWAP1 DUP2 PUSH2 0x23C SWAP2 SWAP1 PUSH2 0x710 JUMP JUMPDEST POP POP POP POP JUMP JUMPDEST PUSH0 DUP1 SLOAD PUSH2 0x24E SWAP1 PUSH2 0x53A JUMP JUMPDEST DUP1 PUSH1 0x1F ADD PUSH1 0x20 DUP1 SWAP2 DIV MUL PUSH1 0x20 ADD PUSH1 0x40 MLOAD SWAP1 DUP2 ADD PUSH1 0x40 MSTORE DUP1 SWAP3 SWAP2 SWAP1 DUP2 DUP2 MSTORE PUSH1 0x20 ADD DUP3 DUP1 SLOAD PUSH2 0x27A SWAP1 PUSH2 0x53A JUMP JUMPDEST DUP1 ISZERO PUSH2 0x2C5 JUMPI DUP1 PUSH1 0x1F LT PUSH2 0x29C JUMPI PUSH2 0x100 DUP1 DUP4 SLOAD DIV MUL DUP4 MSTORE SWAP2 PUSH1 0x20 ADD SWAP2 PUSH2 0x2C5 JUMP JUMPDEST DUP3 ADD SWAP2 SWAP1 PUSH0 MSTORE PUSH1 0x20 PUSH0 KECCAK256 SWAP1 JUMPDEST DUP2 SLOAD DUP2 MSTORE SWAP1 PUSH1 0x1 ADD SWAP1 PUSH1 0x20 ADD DUP1 DUP4 GT PUSH2 0x2A8 JUMPI DUP3 SWAP1 SUB PUSH1 0x1F AND DUP3 ADD SWAP2 JUMPDEST POP POP POP POP POP DUP2 JUMP JUMPDEST PUSH0 DUP1 REVERT JUMPDEST PUSH0 PUSH20 0xFFFFFFFFFFFFFFFFFFFFFFFFFFFFFFFFFFFFFFFF DUP3 AND SWAP1 POP SWAP2 SWAP1 POP JUMP JUMPDEST PUSH0 PUSH2 0x2FA DUP3 PUSH2 0x2D1 JUMP JUMPDEST SWAP1 POP SWAP2 SWAP1 POP JUMP JUMPDEST PUSH2 0x30A DUP2 PUSH2 0x2F0 JUMP JUMPDEST DUP2 EQ PUSH2 0x314 JUMPI PUSH0 DUP1 REVERT JUMPDEST POP JUMP JUMPDEST PUSH0 DUP2 CALLDATALOAD SWAP1 POP PUSH2 0x325 DUP2 PUSH2 0x301 JUMP JUMPDEST SWAP3 SWAP2 POP POP JUMP JUMPDEST PUSH0 PUSH1 0x20 DUP3 DUP5 SUB SLT ISZERO PUSH2 0x340 JUMPI PUSH2 0x33F PUSH2 0x2CD JUMP JUMPDEST JUMPDEST PUSH0 PUSH2 0x34D DUP5 DUP3 DUP6 ADD PUSH2 0x317 JUMP JUMPDEST SWAP2 POP POP SWAP3 SWAP2 POP POP JUMP JUMPDEST PUSH0 DUP2 MLOAD SWAP1 POP SWAP2 SWAP1 POP JUMP JUMPDEST PUSH0 DUP3 DUP3 MSTORE PUSH1 0x20 DUP3 ADD SWAP1 POP SWAP3 SWAP2 POP POP JUMP JUMPDEST PUSH0 JUMPDEST DUP4 DUP2 LT ISZERO PUSH2 0x38D JUMPI DUP1 DUP3 ADD MLOAD DUP2 DUP5 ADD MSTORE PUSH1 0x20 DUP2 ADD SWAP1 POP PUSH2 0x372 JUMP JUMPDEST PUSH0 DUP5 DUP5 ADD MSTORE POP POP POP POP JUMP JUMPDEST PUSH0 PUSH1 0x1F NOT PUSH1 0x1F DUP4 ADD AND SWAP1 POP SWAP2 SWAP1 POP JUMP JUMPDEST PUSH0 PUSH2 0x3B2 DUP3 PUSH2 0x356 JUMP JUMPDEST PUSH2 0x3BC DUP2 DUP6 PUSH2 0x360 JUMP JUMPDEST SWAP4 POP PUSH2 0x3CC DUP2 DUP6 PUSH1 0x20 DUP7 ADD PUSH2 0x370 JUMP JUMPDEST PUSH2 0x3D5 DUP2 PUSH2 0x398 JUMP JUMPDEST DUP5 ADD SWAP2 POP POP SWAP3 SWAP2 POP POP JUMP JUMPDEST PUSH0 PUSH1 0x20 DUP3 ADD SWAP1 POP DUP2 DUP2 SUB PUSH0 DUP4 ADD MSTORE PUSH2 0x3F8 DUP2 DUP5 PUSH2 0x3A8 JUMP JUMPDEST SWAP1 POP SWAP3 SWAP2 POP POP JUMP JUMPDEST PUSH0 DUP3 DUP3 MSTORE PUSH1 0x20 DUP3 ADD SWAP1 POP SWAP3 SWAP2 POP POP JUMP JUMPDEST PUSH32 0x4661696C75726521204574686572206E6F742073656E74000000000000000000 PUSH0 DUP3 ADD MSTORE POP JUMP JUMPDEST PUSH0 PUSH2 0x444 PUSH1 0x17 DUP4 PUSH2 0x400 JUMP JUMPDEST SWAP2 POP PUSH2 0x44F DUP3 PUSH2 0x410 JUMP JUMPDEST PUSH1 0x20 DUP3 ADD SWAP1 POP SWAP2 SWAP1 POP JUMP JUMPDEST PUSH0 PUSH1 0x20 DUP3 ADD SWAP1 POP DUP2 DUP2 SUB PUSH0 DUP4 ADD MSTORE PUSH2 0x471 DUP2 PUSH2 0x438 JUMP JUMPDEST SWAP1 POP SWAP2 SWAP1 POP JUMP JUMPDEST PUSH0 DUP2 SWAP1 POP SWAP3 SWAP2 POP POP JUMP JUMPDEST PUSH32 0x66756E635F7369676E61747572652875696E7432353620617267732900000000 PUSH0 DUP3 ADD MSTORE POP JUMP JUMPDEST PUSH0 PUSH2 0x4B6 PUSH1 0x1C DUP4 PUSH2 0x478 JUMP JUMPDEST SWAP2 POP PUSH2 0x4C1 DUP3 PUSH2 0x482 JUMP JUMPDEST PUSH1 0x1C DUP3 ADD SWAP1 POP SWAP2 SWAP1 POP JUMP JUMPDEST PUSH0 PUSH2 0x4D6 DUP3 PUSH2 0x4AA JUMP JUMPDEST SWAP2 POP DUP2 SWAP1 POP SWAP2 SWAP1 POP JUMP JUMPDEST PUSH32 0x4E487B7100000000000000000000000000000000000000000000000000000000 PUSH0 MSTORE PUSH1 0x41 PUSH1 0x4 MSTORE PUSH1 0x24 PUSH0 REVERT JUMPDEST PUSH32 0x4E487B7100000000000000000000000000000000000000000000000000000000 PUSH0 MSTORE PUSH1 0x22 PUSH1 0x4 MSTORE PUSH1 0x24 PUSH0 REVERT JUMPDEST PUSH0 PUSH1 0x2 DUP3 DIV SWAP1 POP PUSH1 0x1 DUP3 AND DUP1 PUSH2 0x551 JUMPI PUSH1 0x7F DUP3 AND SWAP2 POP JUMPDEST PUSH1 0x20 DUP3 LT DUP2 SUB PUSH2 0x564 JUMPI PUSH2 0x563 PUSH2 0x50D JUMP JUMPDEST JUMPDEST POP SWAP2 SWAP1 POP JUMP JUMPDEST PUSH0 DUP2 SWAP1 POP DUP2 PUSH0 MSTORE PUSH1 0x20 PUSH0 KECCAK256 SWAP1 POP SWAP2 SWAP1 POP JUMP JUMPDEST PUSH0 PUSH1 0x20 PUSH1 0x1F DUP4 ADD DIV SWAP1 POP SWAP2 SWAP1 POP JUMP JUMPDEST PUSH0 DUP3 DUP3 SHL SWAP1 POP SWAP3 SWAP2 POP POP JUMP JUMPDEST PUSH0 PUSH1 0x8 DUP4 MUL PUSH2 0x5C6 PUSH32 0xFFFFFFFFFFFFFFFFFFFFFFFFFFFFFFFFFFFFFFFFFFFFFFFFFFFFFFFFFFFFFFFF DUP3 PUSH2 0x58B JUMP JUMPDEST PUSH2 0x5D0 DUP7 DUP4 PUSH2 0x58B JUMP JUMPDEST SWAP6 POP DUP1 NOT DUP5 AND SWAP4 POP DUP1 DUP7 AND DUP5 OR SWAP3 POP POP POP SWAP4 SWAP3 POP POP POP JUMP JUMPDEST PUSH0 DUP2 SWAP1 POP SWAP2 SWAP1 POP JUMP JUMPDEST PUSH0 DUP2 SWAP1 POP SWAP2 SWAP1 POP JUMP JUMPDEST PUSH0 PUSH2 0x614 PUSH2 0x60F PUSH2 0x60A DUP5 PUSH2 0x5E8 JUMP JUMPDEST PUSH2 0x5F1 JUMP JUMPDEST PUSH2 0x5E8 JUMP JUMPDEST SWAP1 POP SWAP2 SWAP1 POP JUMP JUMPDEST PUSH0 DUP2 SWAP1 POP SWAP2 SWAP1 POP JUMP JUMPDEST PUSH2 0x62D DUP4 PUSH2 0x5FA JUMP JUMPDEST PUSH2 0x641 PUSH2 0x639 DUP3 PUSH2 0x61B JUMP JUMPDEST DUP5 DUP5 SLOAD PUSH2 0x597 JUMP JUMPDEST DUP3 SSTORE POP POP POP POP JUMP JUMPDEST PUSH0 SWAP1 JUMP JUMPDEST PUSH2 0x655 PUSH2 0x649 JUMP JUMPDEST PUSH2 0x660 DUP2 DUP5 DUP5 PUSH2 0x624 JUMP JUMPDEST POP POP POP JUMP JUMPDEST JUMPDEST DUP2 DUP2 LT ISZERO PUSH2 0x683 JUMPI PUSH2 0x678 PUSH0 DUP3 PUSH2 0x64D JUMP JUMPDEST PUSH1 0x1 DUP2 ADD SWAP1 POP PUSH2 0x666 JUMP JUMPDEST POP POP JUMP JUMPDEST PUSH1 0x1F DUP3 GT ISZERO PUSH2 0x6C8 JUMPI PUSH2 0x699 DUP2 PUSH2 0x56A JUMP JUMPDEST PUSH2 0x6A2 DUP5 PUSH2 0x57C JUMP JUMPDEST DUP2 ADD PUSH1 0x20 DUP6 LT ISZERO PUSH2 0x6B1 JUMPI DUP2 SWAP1 POP JUMPDEST PUSH2 0x6C5 PUSH2 0x6BD DUP6 PUSH2 0x57C JUMP JUMPDEST DUP4 ADD DUP3 PUSH2 0x665 JUMP JUMPDEST POP POP JUMPDEST POP POP POP JUMP JUMPDEST PUSH0 DUP3 DUP3 SHR SWAP1 POP SWAP3 SWAP2 POP POP JUMP JUMPDEST PUSH0 PUSH2 0x6E8 PUSH0 NOT DUP5 PUSH1 0x8 MUL PUSH2 0x6CD JUMP JUMPDEST NOT DUP1 DUP4 AND SWAP2 POP POP SWAP3 SWAP2 POP POP JUMP JUMPDEST PUSH0 PUSH2 0x700 DUP4 DUP4 PUSH2 0x6D9 JUMP JUMPDEST SWAP2 POP DUP3 PUSH1 0x2 MUL DUP3 OR SWAP1 POP SWAP3 SWAP2 POP POP JUMP JUMPDEST PUSH2 0x719 DUP3 PUSH2 0x356 JUMP JUMPDEST PUSH8 0xFFFFFFFFFFFFFFFF DUP2 GT ISZERO PUSH2 0x732 JUMPI PUSH2 0x731 PUSH2 0x4E0 JUMP JUMPDEST JUMPDEST PUSH2 0x73C DUP3 SLOAD PUSH2 0x53A JUMP JUMPDEST PUSH2 0x747 DUP3 DUP3 DUP6 PUSH2 0x687 JUMP JUMPDEST PUSH0 PUSH1 0x20 SWAP1 POP PUSH1 0x1F DUP4 GT PUSH1 0x1 DUP2 EQ PUSH2 0x778 JUMPI PUSH0 DUP5 ISZERO PUSH2 0x766 JUMPI DUP3 DUP8 ADD MLOAD SWAP1 POP JUMPDEST PUSH2 0x770 DUP6 DUP3 PUSH2 0x6F5 JUMP JUMPDEST DUP7 SSTORE POP PUSH2 0x7D7 JUMP JUMPDEST PUSH1 0x1F NOT DUP5 AND PUSH2 0x786 DUP7 PUSH2 0x56A JUMP JUMPDEST PUSH0 JUMPDEST DUP3 DUP2 LT ISZERO PUSH2 0x7AD JUMPI DUP5 DUP10 ADD MLOAD DUP3 SSTORE PUSH1 0x1 DUP3 ADD SWAP2 POP PUSH1 0x20 DUP6 ADD SWAP5 POP PUSH1 0x20 DUP2 ADD SWAP1 POP PUSH2 0x788 JUMP JUMPDEST DUP7 DUP4 LT ISZERO PUSH2 0x7CA JUMPI DUP5 DUP10 ADD MLOAD PUSH2 0x7C6 PUSH1 0x1F DUP10 AND DUP3 PUSH2 0x6D9 JUMP JUMPDEST DUP4 SSTORE POP JUMPDEST PUSH1 0x1 PUSH1 0x2 DUP9 MUL ADD DUP9 SSTORE POP POP POP JUMPDEST POP POP POP POP POP POP JUMP INVALID LOG2 PUSH5 0x6970667358 0x22 SLT KECCAK256 SWAP1 SMOD TIMESTAMP 0x5D 0xB9 0xAF PUSH24 0xCBEDF30AD54AD6EB01DE599AF82E5BC599D82B69EC2E7235 0x4C PUSH5 0x736F6C6343 STOP ADDMOD AND STOP CALLER "
		},
		"gasEstimates": {
			"creation": {
				"codeDepositCost": "413800",
				"executionCost": "447",
				"totalCost": "414247"
			},
			"external": {
				"dataVal()": "infinite",
				"depositUsingCall(address)": "infinite",
				"depositUsingSend(address)": "infinite",
				"depositUsingTransfer(address)": "infinite"
			}
		},
		"methodIdentifiers": {
			"dataVal()": "d8be34e9",
			"depositUsingCall(address)": "ce172b1c",
			"depositUsingSend(address)": "9869faa7",
			"depositUsingTransfer(address)": "5a19818d"
		}
	},
	"abi": [
		{
			"inputs": [],
			"name": "dataVal",
			"outputs": [
				{
					"internalType": "bytes",
					"name": "",
					"type": "bytes"
				}
			],
			"stateMutability": "view",
			"type": "function"
		},
		{
			"inputs": [
				{
					"internalType": "address payable",
					"name": "_to",
					"type": "address"
				}
			],
			"name": "depositUsingCall",
			"outputs": [],
			"stateMutability": "payable",
			"type": "function"
		},
		{
			"inputs": [
				{
					"internalType": "address payable",
					"name": "_to",
					"type": "address"
				}
			],
			"name": "depositUsingSend",
			"outputs": [],
			"stateMutability": "payable",
			"type": "function"
		},
		{
			"inputs": [
				{
					"internalType": "address payable",
					"name": "_to",
					"type": "address"
				}
			],
			"name": "depositUsingTransfer",
			"outputs": [],
			"stateMutability": "payable",
			"type": "function"
		}
	]
}