{
	"Fall-2023/19_GlobalVaribles.sol": {
		"GlobalVariables": {
			"abi": [
				{
					"inputs": [],
					"name": "getValues",
					"outputs": [
						{
							"internalType": "uint256",
							"name": "",
							"type": "uint256"
						},
						{
							"internalType": "uint256",
							"name": "",
							"type": "uint256"
						},
						{
							"internalType": "address",
							"name": "",
							"type": "address"
						}
					],
					"stateMutability": "view",
					"type": "function"
				},
				{
					"inputs": [],
					"name": "getVariables",
					"outputs": [
						{
							"internalType": "uint256",
							"name": "blockNumber",
							"type": "uint256"
						},
						{
							"internalType": "uint256",
							"name": "timeStamp",
							"type": "uint256"
						},
						{
							"internalType": "address",
							"name": "senderAddress",
							"type": "address"
						}
					],
					"stateMutability": "view",
					"type": "function"
				}
			],
			"devdoc": {
				"kind": "dev",
				"methods": {},
				"version": 1
			},
			"evm": {
				"assembly": "    /* \"Fall-2023/19_GlobalVaribles.sol\":218:615  contract GlobalVariables... */\n  mstore(0x40, 0x80)\n  callvalue\n  dup1\n  iszero\n  tag_1\n  jumpi\n  0x00\n  dup1\n  revert\ntag_1:\n  pop\n  dataSize(sub_0)\n  dup1\n  dataOffset(sub_0)\n  0x00\n  codecopy\n  0x00\n  return\nstop\n\nsub_0: assembly {\n        /* \"Fall-2023/19_GlobalVaribles.sol\":218:615  contract GlobalVariables... */\n      mstore(0x40, 0x80)\n      callvalue\n      dup1\n      iszero\n      tag_1\n      jumpi\n      0x00\n      dup1\n      revert\n    tag_1:\n      pop\n      jumpi(tag_2, lt(calldatasize, 0x04))\n      shr(0xe0, calldataload(0x00))\n      dup1\n      0x19eb4a90\n      eq\n      tag_3\n      jumpi\n      dup1\n      0x94aef022\n      eq\n      tag_4\n      jumpi\n    tag_2:\n      0x00\n      dup1\n      revert\n        /* \"Fall-2023/19_GlobalVaribles.sol\":253:383  function getValues() public view returns(uint, uint, address){... */\n    tag_3:\n      tag_5\n      tag_6\n      jump\t// in\n    tag_5:\n      mload(0x40)\n      tag_7\n      swap4\n      swap3\n      swap2\n      swap1\n      tag_8\n      jump\t// in\n    tag_7:\n      mload(0x40)\n      dup1\n      swap2\n      sub\n      swap1\n      return\n        /* \"Fall-2023/19_GlobalVaribles.sol\":440:610  function getVariables() public view returns(uint blockNumber, uint timeStamp, address senderAddress){ ... */\n    tag_4:\n      tag_9\n      tag_10\n      jump\t// in\n    tag_9:\n      mload(0x40)\n      tag_11\n      swap4\n      swap3\n      swap2\n      swap1\n      tag_8\n      jump\t// in\n    tag_11:\n      mload(0x40)\n      dup1\n      swap2\n      sub\n      swap1\n      return\n        /* \"Fall-2023/19_GlobalVaribles.sol\":253:383  function getValues() public view returns(uint, uint, address){... */\n    tag_6:\n        /* \"Fall-2023/19_GlobalVaribles.sol\":294:298  uint */\n      0x00\n        /* \"Fall-2023/19_GlobalVaribles.sol\":300:304  uint */\n      dup1\n        /* \"Fall-2023/19_GlobalVaribles.sol\":306:313  address */\n      0x00\n        /* \"Fall-2023/19_GlobalVaribles.sol\":333:345  block.number */\n      number\n        /* \"Fall-2023/19_GlobalVaribles.sol\":347:362  block.timestamp */\n      timestamp\n        /* \"Fall-2023/19_GlobalVaribles.sol\":364:374  msg.sender */\n      caller\n        /* \"Fall-2023/19_GlobalVaribles.sol\":325:375  return (block.number, block.timestamp, msg.sender) */\n      swap3\n      pop\n      swap3\n      pop\n      swap3\n      pop\n        /* \"Fall-2023/19_GlobalVaribles.sol\":253:383  function getValues() public view returns(uint, uint, address){... */\n      swap1\n      swap2\n      swap3\n      jump\t// out\n        /* \"Fall-2023/19_GlobalVaribles.sol\":440:610  function getVariables() public view returns(uint blockNumber, uint timeStamp, address senderAddress){ ... */\n    tag_10:\n        /* \"Fall-2023/19_GlobalVaribles.sol\":484:500  uint blockNumber */\n      0x00\n        /* \"Fall-2023/19_GlobalVaribles.sol\":502:516  uint timeStamp */\n      dup1\n        /* \"Fall-2023/19_GlobalVaribles.sol\":518:539  address senderAddress */\n      0x00\n        /* \"Fall-2023/19_GlobalVaribles.sol\":560:572  block.number */\n      number\n        /* \"Fall-2023/19_GlobalVaribles.sol\":574:589  block.timestamp */\n      timestamp\n        /* \"Fall-2023/19_GlobalVaribles.sol\":591:601  msg.sender */\n      caller\n        /* \"Fall-2023/19_GlobalVaribles.sol\":552:602  return (block.number, block.timestamp, msg.sender) */\n      swap3\n      pop\n      swap3\n      pop\n      swap3\n      pop\n        /* \"Fall-2023/19_GlobalVaribles.sol\":440:610  function getVariables() public view returns(uint blockNumber, uint timeStamp, address senderAddress){ ... */\n      swap1\n      swap2\n      swap3\n      jump\t// out\n        /* \"#utility.yul\":7:84   */\n    tag_14:\n        /* \"#utility.yul\":44:51   */\n      0x00\n        /* \"#utility.yul\":73:78   */\n      dup2\n        /* \"#utility.yul\":62:78   */\n      swap1\n      pop\n        /* \"#utility.yul\":7:84   */\n      swap2\n      swap1\n      pop\n      jump\t// out\n        /* \"#utility.yul\":90:208   */\n    tag_15:\n        /* \"#utility.yul\":177:201   */\n      tag_22\n        /* \"#utility.yul\":195:200   */\n      dup2\n        /* \"#utility.yul\":177:201   */\n      tag_14\n      jump\t// in\n    tag_22:\n        /* \"#utility.yul\":172:175   */\n      dup3\n        /* \"#utility.yul\":165:202   */\n      mstore\n        /* \"#utility.yul\":90:208   */\n      pop\n      pop\n      jump\t// out\n        /* \"#utility.yul\":214:340   */\n    tag_16:\n        /* \"#utility.yul\":251:258   */\n      0x00\n        /* \"#utility.yul\":291:333   */\n      0xffffffffffffffffffffffffffffffffffffffff\n        /* \"#utility.yul\":284:289   */\n      dup3\n        /* \"#utility.yul\":280:334   */\n      and\n        /* \"#utility.yul\":269:334   */\n      swap1\n      pop\n        /* \"#utility.yul\":214:340   */\n      swap2\n      swap1\n      pop\n      jump\t// out\n        /* \"#utility.yul\":346:442   */\n    tag_17:\n        /* \"#utility.yul\":383:390   */\n      0x00\n        /* \"#utility.yul\":412:436   */\n      tag_25\n        /* \"#utility.yul\":430:435   */\n      dup3\n        /* \"#utility.yul\":412:436   */\n      tag_16\n      jump\t// in\n    tag_25:\n        /* \"#utility.yul\":401:436   */\n      swap1\n      pop\n        /* \"#utility.yul\":346:442   */\n      swap2\n      swap1\n      pop\n      jump\t// out\n        /* \"#utility.yul\":448:566   */\n    tag_18:\n        /* \"#utility.yul\":535:559   */\n      tag_27\n        /* \"#utility.yul\":553:558   */\n      dup2\n        /* \"#utility.yul\":535:559   */\n      tag_17\n      jump\t// in\n    tag_27:\n        /* \"#utility.yul\":530:533   */\n      dup3\n        /* \"#utility.yul\":523:560   */\n      mstore\n        /* \"#utility.yul\":448:566   */\n      pop\n      pop\n      jump\t// out\n        /* \"#utility.yul\":572:1014   */\n    tag_8:\n        /* \"#utility.yul\":721:725   */\n      0x00\n        /* \"#utility.yul\":759:761   */\n      0x60\n        /* \"#utility.yul\":748:757   */\n      dup3\n        /* \"#utility.yul\":744:762   */\n      add\n        /* \"#utility.yul\":736:762   */\n      swap1\n      pop\n        /* \"#utility.yul\":772:843   */\n      tag_29\n        /* \"#utility.yul\":840:841   */\n      0x00\n        /* \"#utility.yul\":829:838   */\n      dup4\n        /* \"#utility.yul\":825:842   */\n      add\n        /* \"#utility.yul\":816:822   */\n      dup7\n        /* \"#utility.yul\":772:843   */\n      tag_15\n      jump\t// in\n    tag_29:\n        /* \"#utility.yul\":853:925   */\n      tag_30\n        /* \"#utility.yul\":921:923   */\n      0x20\n        /* \"#utility.yul\":910:919   */\n      dup4\n        /* \"#utility.yul\":906:924   */\n      add\n        /* \"#utility.yul\":897:903   */\n      dup6\n        /* \"#utility.yul\":853:925   */\n      tag_15\n      jump\t// in\n    tag_30:\n        /* \"#utility.yul\":935:1007   */\n      tag_31\n        /* \"#utility.yul\":1003:1005   */\n      0x40\n        /* \"#utility.yul\":992:1001   */\n      dup4\n        /* \"#utility.yul\":988:1006   */\n      add\n        /* \"#utility.yul\":979:985   */\n      dup5\n        /* \"#utility.yul\":935:1007   */\n      tag_18\n      jump\t// in\n    tag_31:\n        /* \"#utility.yul\":572:1014   */\n      swap5\n      swap4\n      pop\n      pop\n      pop\n      pop\n      jump\t// out\n\n    auxdata: 0xa2646970667358221220dc6a94548d311f281fc93271fb18039a4e94b468bfe97aed357a1145b0ae005f64736f6c63430008120033\n}\n",
				"bytecode": {
					"linkReferences": {},
					"object": "608060405234801561001057600080fd5b50610168806100206000396000f3fe608060405234801561001057600080fd5b50600436106100365760003560e01c806319eb4a901461003b57806394aef0221461005b575b600080fd5b61004361007b565b604051610052939291906100fb565b60405180910390f35b61006361008e565b604051610072939291906100fb565b60405180910390f35b6000806000434233925092509250909192565b6000806000434233925092509250909192565b6000819050919050565b6100b4816100a1565b82525050565b600073ffffffffffffffffffffffffffffffffffffffff82169050919050565b60006100e5826100ba565b9050919050565b6100f5816100da565b82525050565b600060608201905061011060008301866100ab565b61011d60208301856100ab565b61012a60408301846100ec565b94935050505056fea2646970667358221220dc6a94548d311f281fc93271fb18039a4e94b468bfe97aed357a1145b0ae005f64736f6c63430008120033",
					"opcodes": "PUSH1 0x80 PUSH1 0x40 MSTORE CALLVALUE DUP1 ISZERO PUSH2 0x10 JUMPI PUSH1 0x0 DUP1 REVERT JUMPDEST POP PUSH2 0x168 DUP1 PUSH2 0x20 PUSH1 0x0 CODECOPY PUSH1 0x0 RETURN INVALID PUSH1 0x80 PUSH1 0x40 MSTORE CALLVALUE DUP1 ISZERO PUSH2 0x10 JUMPI PUSH1 0x0 DUP1 REVERT JUMPDEST POP PUSH1 0x4 CALLDATASIZE LT PUSH2 0x36 JUMPI PUSH1 0x0 CALLDATALOAD PUSH1 0xE0 SHR DUP1 PUSH4 0x19EB4A90 EQ PUSH2 0x3B JUMPI DUP1 PUSH4 0x94AEF022 EQ PUSH2 0x5B JUMPI JUMPDEST PUSH1 0x0 DUP1 REVERT JUMPDEST PUSH2 0x43 PUSH2 0x7B JUMP JUMPDEST PUSH1 0x40 MLOAD PUSH2 0x52 SWAP4 SWAP3 SWAP2 SWAP1 PUSH2 0xFB JUMP JUMPDEST PUSH1 0x40 MLOAD DUP1 SWAP2 SUB SWAP1 RETURN JUMPDEST PUSH2 0x63 PUSH2 0x8E JUMP JUMPDEST PUSH1 0x40 MLOAD PUSH2 0x72 SWAP4 SWAP3 SWAP2 SWAP1 PUSH2 0xFB JUMP JUMPDEST PUSH1 0x40 MLOAD DUP1 SWAP2 SUB SWAP1 RETURN JUMPDEST PUSH1 0x0 DUP1 PUSH1 0x0 NUMBER TIMESTAMP CALLER SWAP3 POP SWAP3 POP SWAP3 POP SWAP1 SWAP2 SWAP3 JUMP JUMPDEST PUSH1 0x0 DUP1 PUSH1 0x0 NUMBER TIMESTAMP CALLER SWAP3 POP SWAP3 POP SWAP3 POP SWAP1 SWAP2 SWAP3 JUMP JUMPDEST PUSH1 0x0 DUP2 SWAP1 POP SWAP2 SWAP1 POP JUMP JUMPDEST PUSH2 0xB4 DUP2 PUSH2 0xA1 JUMP JUMPDEST DUP3 MSTORE POP POP JUMP JUMPDEST PUSH1 0x0 PUSH20 0xFFFFFFFFFFFFFFFFFFFFFFFFFFFFFFFFFFFFFFFF DUP3 AND SWAP1 POP SWAP2 SWAP1 POP JUMP JUMPDEST PUSH1 0x0 PUSH2 0xE5 DUP3 PUSH2 0xBA JUMP JUMPDEST SWAP1 POP SWAP2 SWAP1 POP JUMP JUMPDEST PUSH2 0xF5 DUP2 PUSH2 0xDA JUMP JUMPDEST DUP3 MSTORE POP POP JUMP JUMPDEST PUSH1 0x0 PUSH1 0x60 DUP3 ADD SWAP1 POP PUSH2 0x110 PUSH1 0x0 DUP4 ADD DUP7 PUSH2 0xAB JUMP JUMPDEST PUSH2 0x11D PUSH1 0x20 DUP4 ADD DUP6 PUSH2 0xAB JUMP JUMPDEST PUSH2 0x12A PUSH1 0x40 DUP4 ADD DUP5 PUSH2 0xEC JUMP JUMPDEST SWAP5 SWAP4 POP POP POP POP JUMP INVALID LOG2 PUSH5 0x6970667358 0x22 SLT KECCAK256 0xDC PUSH11 0x94548D311F281FC93271FB XOR SUB SWAP11 0x4E SWAP5 0xB4 PUSH9 0xBFE97AED357A1145B0 0xAE STOP 0x5F PUSH5 0x736F6C6343 STOP ADDMOD SLT STOP CALLER "
				},
				"gasEstimates": {
					"creation": {
						"codeDepositCost": "72000",
						"executionCost": "123",
						"totalCost": "72123"
					},
					"external": {
						"getValues()": "infinite",
						"getVariables()": "infinite"
					}
				},
				"methodIdentifiers": {
					"getValues()": "19eb4a90",
					"getVariables()": "94aef022"
				}
			},
			"storageLayout": {
				"storage": [],
				"types": null
			},
			"userdoc": {
				"kind": "user",
				"methods": {},
				"version": 1
			}
		}
	}
}