{
	"Fall-2023/08_DynamicArray.sol": {
		"DynamicArray": {
			"abi": [
				{
					"inputs": [],
					"name": "getLength",
					"outputs": [
						{
							"internalType": "uint256",
							"name": "",
							"type": "uint256"
						}
					],
					"stateMutability": "view",
					"type": "function"
				},
				{
					"inputs": [
						{
							"internalType": "uint256",
							"name": "index",
							"type": "uint256"
						}
					],
					"name": "getValueAt",
					"outputs": [
						{
							"internalType": "uint256",
							"name": "",
							"type": "uint256"
						}
					],
					"stateMutability": "view",
					"type": "function"
				},
				{
					"inputs": [],
					"name": "getValues",
					"outputs": [
						{
							"internalType": "uint256[]",
							"name": "",
							"type": "uint256[]"
						}
					],
					"stateMutability": "view",
					"type": "function"
				},
				{
					"inputs": [],
					"name": "removeValue",
					"outputs": [],
					"stateMutability": "nonpayable",
					"type": "function"
				},
				{
					"inputs": [
						{
							"internalType": "uint256",
							"name": "value",
							"type": "uint256"
						}
					],
					"name": "setValue",
					"outputs": [],
					"stateMutability": "nonpayable",
					"type": "function"
				},
				{
					"inputs": [
						{
							"internalType": "uint256",
							"name": "index",
							"type": "uint256"
						},
						{
							"internalType": "uint256",
							"name": "value",
							"type": "uint256"
						}
					],
					"name": "setValueAt",
					"outputs": [],
					"stateMutability": "nonpayable",
					"type": "function"
				}
			],
			"devdoc": {
				"kind": "dev",
				"methods": {},
				"version": 1
			},
			"evm": {
				"assembly": "    /* \"Fall-2023/08_DynamicArray.sol\":92:898  contract DynamicArray... */\n  mstore(0x40, 0x80)\n  callvalue\n  dup1\n  iszero\n  tag_1\n  jumpi\n  0x00\n  dup1\n  revert\ntag_1:\n  pop\n  dataSize(sub_0)\n  dup1\n  dataOffset(sub_0)\n  0x00\n  codecopy\n  0x00\n  return\nstop\n\nsub_0: assembly {\n        /* \"Fall-2023/08_DynamicArray.sol\":92:898  contract DynamicArray... */\n      mstore(0x40, 0x80)\n      callvalue\n      dup1\n      iszero\n      tag_1\n      jumpi\n      0x00\n      dup1\n      revert\n    tag_1:\n      pop\n      jumpi(tag_2, lt(calldatasize, 0x04))\n      shr(0xe0, calldataload(0x00))\n      dup1\n      0x19eb4a90\n      eq\n      tag_3\n      jumpi\n      dup1\n      0x2f5739dd\n      eq\n      tag_4\n      jumpi\n      dup1\n      0x55241077\n      eq\n      tag_5\n      jumpi\n      dup1\n      0x927bc47b\n      eq\n      tag_6\n      jumpi\n      dup1\n      0xbc6b888b\n      eq\n      tag_7\n      jumpi\n      dup1\n      0xbe1c766b\n      eq\n      tag_8\n      jumpi\n    tag_2:\n      0x00\n      dup1\n      revert\n        /* \"Fall-2023/08_DynamicArray.sol\":802:893  function getValues() public view returns(uint[] memory) ... */\n    tag_3:\n      tag_9\n      tag_10\n      jump\t// in\n    tag_9:\n      mload(0x40)\n      tag_11\n      swap2\n      swap1\n      tag_12\n      jump\t// in\n    tag_11:\n      mload(0x40)\n      dup1\n      swap2\n      sub\n      swap1\n      return\n        /* \"Fall-2023/08_DynamicArray.sol\":432:704  function removeValue() public {... */\n    tag_4:\n      tag_13\n      tag_14\n      jump\t// in\n    tag_13:\n      stop\n        /* \"Fall-2023/08_DynamicArray.sol\":147:218  function setValue(uint value) public {... */\n    tag_5:\n      tag_15\n      0x04\n      dup1\n      calldatasize\n      sub\n      dup2\n      add\n      swap1\n      tag_16\n      swap2\n      swap1\n      tag_17\n      jump\t// in\n    tag_16:\n      tag_18\n      jump\t// in\n    tag_15:\n      stop\n        /* \"Fall-2023/08_DynamicArray.sol\":333:420  function setValueAt(uint index, uint value) public{... */\n    tag_6:\n      tag_19\n      0x04\n      dup1\n      calldatasize\n      sub\n      dup2\n      add\n      swap1\n      tag_20\n      swap2\n      swap1\n      tag_21\n      jump\t// in\n    tag_20:\n      tag_22\n      jump\t// in\n    tag_19:\n      stop\n        /* \"Fall-2023/08_DynamicArray.sol\":226:325  function getValueAt(uint index) public view returns(uint)... */\n    tag_7:\n      tag_23\n      0x04\n      dup1\n      calldatasize\n      sub\n      dup2\n      add\n      swap1\n      tag_24\n      swap2\n      swap1\n      tag_17\n      jump\t// in\n    tag_24:\n      tag_25\n      jump\t// in\n    tag_23:\n      mload(0x40)\n      tag_26\n      swap2\n      swap1\n      tag_27\n      jump\t// in\n    tag_26:\n      mload(0x40)\n      dup1\n      swap2\n      sub\n      swap1\n      return\n        /* \"Fall-2023/08_DynamicArray.sol\":712:794  function getLength() public view returns(uint){... */\n    tag_8:\n      tag_28\n      tag_29\n      jump\t// in\n    tag_28:\n      mload(0x40)\n      tag_30\n      swap2\n      swap1\n      tag_27\n      jump\t// in\n    tag_30:\n      mload(0x40)\n      dup1\n      swap2\n      sub\n      swap1\n      return\n        /* \"Fall-2023/08_DynamicArray.sol\":802:893  function getValues() public view returns(uint[] memory) ... */\n    tag_10:\n        /* \"Fall-2023/08_DynamicArray.sol\":843:856  uint[] memory */\n      0x60\n        /* \"Fall-2023/08_DynamicArray.sol\":882:885  arr */\n      0x00\n        /* \"Fall-2023/08_DynamicArray.sol\":875:885  return arr */\n      dup1\n      sload\n      dup1\n      0x20\n      mul\n      0x20\n      add\n      mload(0x40)\n      swap1\n      dup2\n      add\n      0x40\n      mstore\n      dup1\n      swap3\n      swap2\n      swap1\n      dup2\n      dup2\n      mstore\n      0x20\n      add\n      dup3\n      dup1\n      sload\n      dup1\n      iszero\n      tag_32\n      jumpi\n      0x20\n      mul\n      dup3\n      add\n      swap2\n      swap1\n      0x00\n      mstore\n      keccak256(0x00, 0x20)\n      swap1\n    tag_33:\n      dup2\n      sload\n      dup2\n      mstore\n      0x20\n      add\n      swap1\n      0x01\n      add\n      swap1\n      dup1\n      dup4\n      gt\n      tag_33\n      jumpi\n    tag_32:\n      pop\n      pop\n      pop\n      pop\n      pop\n      swap1\n      pop\n        /* \"Fall-2023/08_DynamicArray.sol\":802:893  function getValues() public view returns(uint[] memory) ... */\n      swap1\n      jump\t// out\n        /* \"Fall-2023/08_DynamicArray.sol\":432:704  function removeValue() public {... */\n    tag_14:\n        /* \"Fall-2023/08_DynamicArray.sol\":473:476  arr */\n      0x00\n        /* \"Fall-2023/08_DynamicArray.sol\":473:482  arr.pop() */\n      dup1\n      sload\n      dup1\n      tag_35\n      jumpi\n      tag_36\n      tag_37\n      jump\t// in\n    tag_36:\n    tag_35:\n      0x01\n      swap1\n      sub\n      dup2\n      dup2\n      swap1\n      0x00\n      mstore\n      keccak256(0x00, 0x20)\n      add\n      0x00\n      swap1\n      sstore\n      swap1\n      sstore\n        /* \"Fall-2023/08_DynamicArray.sol\":432:704  function removeValue() public {... */\n      jump\t// out\n        /* \"Fall-2023/08_DynamicArray.sol\":147:218  function setValue(uint value) public {... */\n    tag_18:\n        /* \"Fall-2023/08_DynamicArray.sol\":195:198  arr */\n      0x00\n        /* \"Fall-2023/08_DynamicArray.sol\":204:209  value */\n      dup2\n        /* \"Fall-2023/08_DynamicArray.sol\":195:210  arr.push(value) */\n      swap1\n      dup1\n      0x01\n      dup2\n      sload\n      add\n      dup1\n      dup3\n      sstore\n      dup1\n      swap2\n      pop\n      pop\n      0x01\n      swap1\n      sub\n      swap1\n      0x00\n      mstore\n      keccak256(0x00, 0x20)\n      add\n      0x00\n      swap1\n      swap2\n      swap1\n      swap2\n      swap1\n      swap2\n      pop\n      sstore\n        /* \"Fall-2023/08_DynamicArray.sol\":147:218  function setValue(uint value) public {... */\n      pop\n      jump\t// out\n        /* \"Fall-2023/08_DynamicArray.sol\":333:420  function setValueAt(uint index, uint value) public{... */\n    tag_22:\n        /* \"Fall-2023/08_DynamicArray.sol\":407:412  value */\n      dup1\n        /* \"Fall-2023/08_DynamicArray.sol\":394:397  arr */\n      0x00\n        /* \"Fall-2023/08_DynamicArray.sol\":398:403  index */\n      dup4\n        /* \"Fall-2023/08_DynamicArray.sol\":394:404  arr[index] */\n      dup2\n      sload\n      dup2\n      lt\n      tag_42\n      jumpi\n      tag_43\n      tag_44\n      jump\t// in\n    tag_43:\n    tag_42:\n      swap1\n      0x00\n      mstore\n      keccak256(0x00, 0x20)\n      add\n        /* \"Fall-2023/08_DynamicArray.sol\":394:412  arr[index] = value */\n      dup2\n      swap1\n      sstore\n      pop\n        /* \"Fall-2023/08_DynamicArray.sol\":333:420  function setValueAt(uint index, uint value) public{... */\n      pop\n      pop\n      jump\t// out\n        /* \"Fall-2023/08_DynamicArray.sol\":226:325  function getValueAt(uint index) public view returns(uint)... */\n    tag_25:\n        /* \"Fall-2023/08_DynamicArray.sol\":278:282  uint */\n      0x00\n        /* \"Fall-2023/08_DynamicArray.sol\":307:310  arr */\n      dup1\n        /* \"Fall-2023/08_DynamicArray.sol\":311:316  index */\n      dup3\n        /* \"Fall-2023/08_DynamicArray.sol\":307:317  arr[index] */\n      dup2\n      sload\n      dup2\n      lt\n      tag_47\n      jumpi\n      tag_48\n      tag_44\n      jump\t// in\n    tag_48:\n    tag_47:\n      swap1\n      0x00\n      mstore\n      keccak256(0x00, 0x20)\n      add\n      sload\n        /* \"Fall-2023/08_DynamicArray.sol\":300:317  return arr[index] */\n      swap1\n      pop\n        /* \"Fall-2023/08_DynamicArray.sol\":226:325  function getValueAt(uint index) public view returns(uint)... */\n      swap2\n      swap1\n      pop\n      jump\t// out\n        /* \"Fall-2023/08_DynamicArray.sol\":712:794  function getLength() public view returns(uint){... */\n    tag_29:\n        /* \"Fall-2023/08_DynamicArray.sol\":753:757  uint */\n      0x00\n        /* \"Fall-2023/08_DynamicArray.sol\":776:779  arr */\n      dup1\n        /* \"Fall-2023/08_DynamicArray.sol\":776:786  arr.length */\n      dup1\n      sload\n      swap1\n      pop\n        /* \"Fall-2023/08_DynamicArray.sol\":769:786  return arr.length */\n      swap1\n      pop\n        /* \"Fall-2023/08_DynamicArray.sol\":712:794  function getLength() public view returns(uint){... */\n      swap1\n      jump\t// out\n        /* \"#utility.yul\":7:121   */\n    tag_51:\n        /* \"#utility.yul\":74:80   */\n      0x00\n        /* \"#utility.yul\":108:113   */\n      dup2\n        /* \"#utility.yul\":102:114   */\n      mload\n        /* \"#utility.yul\":92:114   */\n      swap1\n      pop\n        /* \"#utility.yul\":7:121   */\n      swap2\n      swap1\n      pop\n      jump\t// out\n        /* \"#utility.yul\":127:311   */\n    tag_52:\n        /* \"#utility.yul\":226:237   */\n      0x00\n        /* \"#utility.yul\":260:266   */\n      dup3\n        /* \"#utility.yul\":255:258   */\n      dup3\n        /* \"#utility.yul\":248:267   */\n      mstore\n        /* \"#utility.yul\":300:304   */\n      0x20\n        /* \"#utility.yul\":295:298   */\n      dup3\n        /* \"#utility.yul\":291:305   */\n      add\n        /* \"#utility.yul\":276:305   */\n      swap1\n      pop\n        /* \"#utility.yul\":127:311   */\n      swap3\n      swap2\n      pop\n      pop\n      jump\t// out\n        /* \"#utility.yul\":317:449   */\n    tag_53:\n        /* \"#utility.yul\":384:388   */\n      0x00\n        /* \"#utility.yul\":407:410   */\n      dup2\n        /* \"#utility.yul\":399:410   */\n      swap1\n      pop\n        /* \"#utility.yul\":437:441   */\n      0x20\n        /* \"#utility.yul\":432:435   */\n      dup3\n        /* \"#utility.yul\":428:442   */\n      add\n        /* \"#utility.yul\":420:442   */\n      swap1\n      pop\n        /* \"#utility.yul\":317:449   */\n      swap2\n      swap1\n      pop\n      jump\t// out\n        /* \"#utility.yul\":455:532   */\n    tag_54:\n        /* \"#utility.yul\":492:499   */\n      0x00\n        /* \"#utility.yul\":521:526   */\n      dup2\n        /* \"#utility.yul\":510:526   */\n      swap1\n      pop\n        /* \"#utility.yul\":455:532   */\n      swap2\n      swap1\n      pop\n      jump\t// out\n        /* \"#utility.yul\":538:646   */\n    tag_55:\n        /* \"#utility.yul\":615:639   */\n      tag_71\n        /* \"#utility.yul\":633:638   */\n      dup2\n        /* \"#utility.yul\":615:639   */\n      tag_54\n      jump\t// in\n    tag_71:\n        /* \"#utility.yul\":610:613   */\n      dup3\n        /* \"#utility.yul\":603:640   */\n      mstore\n        /* \"#utility.yul\":538:646   */\n      pop\n      pop\n      jump\t// out\n        /* \"#utility.yul\":652:831   */\n    tag_56:\n        /* \"#utility.yul\":721:731   */\n      0x00\n        /* \"#utility.yul\":742:788   */\n      tag_73\n        /* \"#utility.yul\":784:787   */\n      dup4\n        /* \"#utility.yul\":776:782   */\n      dup4\n        /* \"#utility.yul\":742:788   */\n      tag_55\n      jump\t// in\n    tag_73:\n        /* \"#utility.yul\":820:824   */\n      0x20\n        /* \"#utility.yul\":815:818   */\n      dup4\n        /* \"#utility.yul\":811:825   */\n      add\n        /* \"#utility.yul\":797:825   */\n      swap1\n      pop\n        /* \"#utility.yul\":652:831   */\n      swap3\n      swap2\n      pop\n      pop\n      jump\t// out\n        /* \"#utility.yul\":837:950   */\n    tag_57:\n        /* \"#utility.yul\":907:911   */\n      0x00\n        /* \"#utility.yul\":939:943   */\n      0x20\n        /* \"#utility.yul\":934:937   */\n      dup3\n        /* \"#utility.yul\":930:944   */\n      add\n        /* \"#utility.yul\":922:944   */\n      swap1\n      pop\n        /* \"#utility.yul\":837:950   */\n      swap2\n      swap1\n      pop\n      jump\t// out\n        /* \"#utility.yul\":986:1718   */\n    tag_58:\n        /* \"#utility.yul\":1105:1108   */\n      0x00\n        /* \"#utility.yul\":1134:1188   */\n      tag_76\n        /* \"#utility.yul\":1182:1187   */\n      dup3\n        /* \"#utility.yul\":1134:1188   */\n      tag_51\n      jump\t// in\n    tag_76:\n        /* \"#utility.yul\":1204:1290   */\n      tag_77\n        /* \"#utility.yul\":1283:1289   */\n      dup2\n        /* \"#utility.yul\":1278:1281   */\n      dup6\n        /* \"#utility.yul\":1204:1290   */\n      tag_52\n      jump\t// in\n    tag_77:\n        /* \"#utility.yul\":1197:1290   */\n      swap4\n      pop\n        /* \"#utility.yul\":1314:1370   */\n      tag_78\n        /* \"#utility.yul\":1364:1369   */\n      dup4\n        /* \"#utility.yul\":1314:1370   */\n      tag_53\n      jump\t// in\n    tag_78:\n        /* \"#utility.yul\":1393:1400   */\n      dup1\n        /* \"#utility.yul\":1424:1425   */\n      0x00\n        /* \"#utility.yul\":1409:1693   */\n    tag_79:\n        /* \"#utility.yul\":1434:1440   */\n      dup4\n        /* \"#utility.yul\":1431:1432   */\n      dup2\n        /* \"#utility.yul\":1428:1441   */\n      lt\n        /* \"#utility.yul\":1409:1693   */\n      iszero\n      tag_81\n      jumpi\n        /* \"#utility.yul\":1510:1516   */\n      dup2\n        /* \"#utility.yul\":1504:1517   */\n      mload\n        /* \"#utility.yul\":1537:1600   */\n      tag_82\n        /* \"#utility.yul\":1596:1599   */\n      dup9\n        /* \"#utility.yul\":1581:1594   */\n      dup3\n        /* \"#utility.yul\":1537:1600   */\n      tag_56\n      jump\t// in\n    tag_82:\n        /* \"#utility.yul\":1530:1600   */\n      swap8\n      pop\n        /* \"#utility.yul\":1623:1683   */\n      tag_83\n        /* \"#utility.yul\":1676:1682   */\n      dup4\n        /* \"#utility.yul\":1623:1683   */\n      tag_57\n      jump\t// in\n    tag_83:\n        /* \"#utility.yul\":1613:1683   */\n      swap3\n      pop\n        /* \"#utility.yul\":1469:1693   */\n      pop\n        /* \"#utility.yul\":1456:1457   */\n      0x01\n        /* \"#utility.yul\":1453:1454   */\n      dup2\n        /* \"#utility.yul\":1449:1458   */\n      add\n        /* \"#utility.yul\":1444:1458   */\n      swap1\n      pop\n        /* \"#utility.yul\":1409:1693   */\n      jump(tag_79)\n    tag_81:\n        /* \"#utility.yul\":1413:1427   */\n      pop\n        /* \"#utility.yul\":1709:1712   */\n      dup6\n        /* \"#utility.yul\":1702:1712   */\n      swap4\n      pop\n        /* \"#utility.yul\":1110:1718   */\n      pop\n      pop\n      pop\n        /* \"#utility.yul\":986:1718   */\n      swap3\n      swap2\n      pop\n      pop\n      jump\t// out\n        /* \"#utility.yul\":1724:2097   */\n    tag_12:\n        /* \"#utility.yul\":1867:1871   */\n      0x00\n        /* \"#utility.yul\":1905:1907   */\n      0x20\n        /* \"#utility.yul\":1894:1903   */\n      dup3\n        /* \"#utility.yul\":1890:1908   */\n      add\n        /* \"#utility.yul\":1882:1908   */\n      swap1\n      pop\n        /* \"#utility.yul\":1954:1963   */\n      dup2\n        /* \"#utility.yul\":1948:1952   */\n      dup2\n        /* \"#utility.yul\":1944:1964   */\n      sub\n        /* \"#utility.yul\":1940:1941   */\n      0x00\n        /* \"#utility.yul\":1929:1938   */\n      dup4\n        /* \"#utility.yul\":1925:1942   */\n      add\n        /* \"#utility.yul\":1918:1965   */\n      mstore\n        /* \"#utility.yul\":1982:2090   */\n      tag_85\n        /* \"#utility.yul\":2085:2089   */\n      dup2\n        /* \"#utility.yul\":2076:2082   */\n      dup5\n        /* \"#utility.yul\":1982:2090   */\n      tag_58\n      jump\t// in\n    tag_85:\n        /* \"#utility.yul\":1974:2090   */\n      swap1\n      pop\n        /* \"#utility.yul\":1724:2097   */\n      swap3\n      swap2\n      pop\n      pop\n      jump\t// out\n        /* \"#utility.yul\":2184:2301   */\n    tag_60:\n        /* \"#utility.yul\":2293:2294   */\n      0x00\n        /* \"#utility.yul\":2290:2291   */\n      dup1\n        /* \"#utility.yul\":2283:2295   */\n      revert\n        /* \"#utility.yul\":2430:2552   */\n    tag_62:\n        /* \"#utility.yul\":2503:2527   */\n      tag_90\n        /* \"#utility.yul\":2521:2526   */\n      dup2\n        /* \"#utility.yul\":2503:2527   */\n      tag_54\n      jump\t// in\n    tag_90:\n        /* \"#utility.yul\":2496:2501   */\n      dup2\n        /* \"#utility.yul\":2493:2528   */\n      eq\n        /* \"#utility.yul\":2483:2546   */\n      tag_91\n      jumpi\n        /* \"#utility.yul\":2542:2543   */\n      0x00\n        /* \"#utility.yul\":2539:2540   */\n      dup1\n        /* \"#utility.yul\":2532:2544   */\n      revert\n        /* \"#utility.yul\":2483:2546   */\n    tag_91:\n        /* \"#utility.yul\":2430:2552   */\n      pop\n      jump\t// out\n        /* \"#utility.yul\":2558:2697   */\n    tag_63:\n        /* \"#utility.yul\":2604:2609   */\n      0x00\n        /* \"#utility.yul\":2642:2648   */\n      dup2\n        /* \"#utility.yul\":2629:2649   */\n      calldataload\n        /* \"#utility.yul\":2620:2649   */\n      swap1\n      pop\n        /* \"#utility.yul\":2658:2691   */\n      tag_93\n        /* \"#utility.yul\":2685:2690   */\n      dup2\n        /* \"#utility.yul\":2658:2691   */\n      tag_62\n      jump\t// in\n    tag_93:\n        /* \"#utility.yul\":2558:2697   */\n      swap3\n      swap2\n      pop\n      pop\n      jump\t// out\n        /* \"#utility.yul\":2703:3032   */\n    tag_17:\n        /* \"#utility.yul\":2762:2768   */\n      0x00\n        /* \"#utility.yul\":2811:2813   */\n      0x20\n        /* \"#utility.yul\":2799:2808   */\n      dup3\n        /* \"#utility.yul\":2790:2797   */\n      dup5\n        /* \"#utility.yul\":2786:2809   */\n      sub\n        /* \"#utility.yul\":2782:2814   */\n      slt\n        /* \"#utility.yul\":2779:2898   */\n      iszero\n      tag_95\n      jumpi\n        /* \"#utility.yul\":2817:2896   */\n      tag_96\n      tag_60\n      jump\t// in\n    tag_96:\n        /* \"#utility.yul\":2779:2898   */\n    tag_95:\n        /* \"#utility.yul\":2937:2938   */\n      0x00\n        /* \"#utility.yul\":2962:3015   */\n      tag_97\n        /* \"#utility.yul\":3007:3014   */\n      dup5\n        /* \"#utility.yul\":2998:3004   */\n      dup3\n        /* \"#utility.yul\":2987:2996   */\n      dup6\n        /* \"#utility.yul\":2983:3005   */\n      add\n        /* \"#utility.yul\":2962:3015   */\n      tag_63\n      jump\t// in\n    tag_97:\n        /* \"#utility.yul\":2952:3015   */\n      swap2\n      pop\n        /* \"#utility.yul\":2908:3025   */\n      pop\n        /* \"#utility.yul\":2703:3032   */\n      swap3\n      swap2\n      pop\n      pop\n      jump\t// out\n        /* \"#utility.yul\":3038:3512   */\n    tag_21:\n        /* \"#utility.yul\":3106:3112   */\n      0x00\n        /* \"#utility.yul\":3114:3120   */\n      dup1\n        /* \"#utility.yul\":3163:3165   */\n      0x40\n        /* \"#utility.yul\":3151:3160   */\n      dup4\n        /* \"#utility.yul\":3142:3149   */\n      dup6\n        /* \"#utility.yul\":3138:3161   */\n      sub\n        /* \"#utility.yul\":3134:3166   */\n      slt\n        /* \"#utility.yul\":3131:3250   */\n      iszero\n      tag_99\n      jumpi\n        /* \"#utility.yul\":3169:3248   */\n      tag_100\n      tag_60\n      jump\t// in\n    tag_100:\n        /* \"#utility.yul\":3131:3250   */\n    tag_99:\n        /* \"#utility.yul\":3289:3290   */\n      0x00\n        /* \"#utility.yul\":3314:3367   */\n      tag_101\n        /* \"#utility.yul\":3359:3366   */\n      dup6\n        /* \"#utility.yul\":3350:3356   */\n      dup3\n        /* \"#utility.yul\":3339:3348   */\n      dup7\n        /* \"#utility.yul\":3335:3357   */\n      add\n        /* \"#utility.yul\":3314:3367   */\n      tag_63\n      jump\t// in\n    tag_101:\n        /* \"#utility.yul\":3304:3367   */\n      swap3\n      pop\n        /* \"#utility.yul\":3260:3377   */\n      pop\n        /* \"#utility.yul\":3416:3418   */\n      0x20\n        /* \"#utility.yul\":3442:3495   */\n      tag_102\n        /* \"#utility.yul\":3487:3494   */\n      dup6\n        /* \"#utility.yul\":3478:3484   */\n      dup3\n        /* \"#utility.yul\":3467:3476   */\n      dup7\n        /* \"#utility.yul\":3463:3485   */\n      add\n        /* \"#utility.yul\":3442:3495   */\n      tag_63\n      jump\t// in\n    tag_102:\n        /* \"#utility.yul\":3432:3495   */\n      swap2\n      pop\n        /* \"#utility.yul\":3387:3505   */\n      pop\n        /* \"#utility.yul\":3038:3512   */\n      swap3\n      pop\n      swap3\n      swap1\n      pop\n      jump\t// out\n        /* \"#utility.yul\":3518:3636   */\n    tag_64:\n        /* \"#utility.yul\":3605:3629   */\n      tag_104\n        /* \"#utility.yul\":3623:3628   */\n      dup2\n        /* \"#utility.yul\":3605:3629   */\n      tag_54\n      jump\t// in\n    tag_104:\n        /* \"#utility.yul\":3600:3603   */\n      dup3\n        /* \"#utility.yul\":3593:3630   */\n      mstore\n        /* \"#utility.yul\":3518:3636   */\n      pop\n      pop\n      jump\t// out\n        /* \"#utility.yul\":3642:3864   */\n    tag_27:\n        /* \"#utility.yul\":3735:3739   */\n      0x00\n        /* \"#utility.yul\":3773:3775   */\n      0x20\n        /* \"#utility.yul\":3762:3771   */\n      dup3\n        /* \"#utility.yul\":3758:3776   */\n      add\n        /* \"#utility.yul\":3750:3776   */\n      swap1\n      pop\n        /* \"#utility.yul\":3786:3857   */\n      tag_106\n        /* \"#utility.yul\":3854:3855   */\n      0x00\n        /* \"#utility.yul\":3843:3852   */\n      dup4\n        /* \"#utility.yul\":3839:3856   */\n      add\n        /* \"#utility.yul\":3830:3836   */\n      dup5\n        /* \"#utility.yul\":3786:3857   */\n      tag_64\n      jump\t// in\n    tag_106:\n        /* \"#utility.yul\":3642:3864   */\n      swap3\n      swap2\n      pop\n      pop\n      jump\t// out\n        /* \"#utility.yul\":3870:4050   */\n    tag_37:\n        /* \"#utility.yul\":3918:3995   */\n      0x4e487b7100000000000000000000000000000000000000000000000000000000\n        /* \"#utility.yul\":3915:3916   */\n      0x00\n        /* \"#utility.yul\":3908:3996   */\n      mstore\n        /* \"#utility.yul\":4015:4019   */\n      0x31\n        /* \"#utility.yul\":4012:4013   */\n      0x04\n        /* \"#utility.yul\":4005:4020   */\n      mstore\n        /* \"#utility.yul\":4039:4043   */\n      0x24\n        /* \"#utility.yul\":4036:4037   */\n      0x00\n        /* \"#utility.yul\":4029:4044   */\n      revert\n        /* \"#utility.yul\":4056:4236   */\n    tag_44:\n        /* \"#utility.yul\":4104:4181   */\n      0x4e487b7100000000000000000000000000000000000000000000000000000000\n        /* \"#utility.yul\":4101:4102   */\n      0x00\n        /* \"#utility.yul\":4094:4182   */\n      mstore\n        /* \"#utility.yul\":4201:4205   */\n      0x32\n        /* \"#utility.yul\":4198:4199   */\n      0x04\n        /* \"#utility.yul\":4191:4206   */\n      mstore\n        /* \"#utility.yul\":4225:4229   */\n      0x24\n        /* \"#utility.yul\":4222:4223   */\n      0x00\n        /* \"#utility.yul\":4215:4230   */\n      revert\n\n    auxdata: 0xa264697066735822122094595f66309b59afe74abc696016dd56afc67a412656325694641a6a98afe71264736f6c63430008120033\n}\n",
				"bytecode": {
					"linkReferences": {},
					"object": "608060405234801561001057600080fd5b50610463806100206000396000f3fe608060405234801561001057600080fd5b50600436106100625760003560e01c806319eb4a90146100675780632f5739dd14610085578063552410771461008f578063927bc47b146100ab578063bc6b888b146100c7578063be1c766b146100f7575b600080fd5b61006f610115565b60405161007c91906102e5565b60405180910390f35b61008d61016d565b005b6100a960048036038101906100a49190610338565b610197565b005b6100c560048036038101906100c09190610365565b6101c3565b005b6100e160048036038101906100dc9190610338565b6101ea565b6040516100ee91906103b4565b60405180910390f35b6100ff610211565b60405161010c91906103b4565b60405180910390f35b6060600080548060200260200160405190810160405280929190818152602001828054801561016357602002820191906000526020600020905b81548152602001906001019080831161014f575b5050505050905090565b600080548061017f5761017e6103cf565b5b60019003818190600052602060002001600090559055565b600081908060018154018082558091505060019003906000526020600020016000909190919091505550565b80600083815481106101d8576101d76103fe565b5b90600052602060002001819055505050565b60008082815481106101ff576101fe6103fe565b5b90600052602060002001549050919050565b60008080549050905090565b600081519050919050565b600082825260208201905092915050565b6000819050602082019050919050565b6000819050919050565b61025c81610249565b82525050565b600061026e8383610253565b60208301905092915050565b6000602082019050919050565b60006102928261021d565b61029c8185610228565b93506102a783610239565b8060005b838110156102d85781516102bf8882610262565b97506102ca8361027a565b9250506001810190506102ab565b5085935050505092915050565b600060208201905081810360008301526102ff8184610287565b905092915050565b600080fd5b61031581610249565b811461032057600080fd5b50565b6000813590506103328161030c565b92915050565b60006020828403121561034e5761034d610307565b5b600061035c84828501610323565b91505092915050565b6000806040838503121561037c5761037b610307565b5b600061038a85828601610323565b925050602061039b85828601610323565b9150509250929050565b6103ae81610249565b82525050565b60006020820190506103c960008301846103a5565b92915050565b7f4e487b7100000000000000000000000000000000000000000000000000000000600052603160045260246000fd5b7f4e487b7100000000000000000000000000000000000000000000000000000000600052603260045260246000fdfea264697066735822122094595f66309b59afe74abc696016dd56afc67a412656325694641a6a98afe71264736f6c63430008120033",
					"opcodes": "PUSH1 0x80 PUSH1 0x40 MSTORE CALLVALUE DUP1 ISZERO PUSH2 0x10 JUMPI PUSH1 0x0 DUP1 REVERT JUMPDEST POP PUSH2 0x463 DUP1 PUSH2 0x20 PUSH1 0x0 CODECOPY PUSH1 0x0 RETURN INVALID PUSH1 0x80 PUSH1 0x40 MSTORE CALLVALUE DUP1 ISZERO PUSH2 0x10 JUMPI PUSH1 0x0 DUP1 REVERT JUMPDEST POP PUSH1 0x4 CALLDATASIZE LT PUSH2 0x62 JUMPI PUSH1 0x0 CALLDATALOAD PUSH1 0xE0 SHR DUP1 PUSH4 0x19EB4A90 EQ PUSH2 0x67 JUMPI DUP1 PUSH4 0x2F5739DD EQ PUSH2 0x85 JUMPI DUP1 PUSH4 0x55241077 EQ PUSH2 0x8F JUMPI DUP1 PUSH4 0x927BC47B EQ PUSH2 0xAB JUMPI DUP1 PUSH4 0xBC6B888B EQ PUSH2 0xC7 JUMPI DUP1 PUSH4 0xBE1C766B EQ PUSH2 0xF7 JUMPI JUMPDEST PUSH1 0x0 DUP1 REVERT JUMPDEST PUSH2 0x6F PUSH2 0x115 JUMP JUMPDEST PUSH1 0x40 MLOAD PUSH2 0x7C SWAP2 SWAP1 PUSH2 0x2E5 JUMP JUMPDEST PUSH1 0x40 MLOAD DUP1 SWAP2 SUB SWAP1 RETURN JUMPDEST PUSH2 0x8D PUSH2 0x16D JUMP JUMPDEST STOP JUMPDEST PUSH2 0xA9 PUSH1 0x4 DUP1 CALLDATASIZE SUB DUP2 ADD SWAP1 PUSH2 0xA4 SWAP2 SWAP1 PUSH2 0x338 JUMP JUMPDEST PUSH2 0x197 JUMP JUMPDEST STOP JUMPDEST PUSH2 0xC5 PUSH1 0x4 DUP1 CALLDATASIZE SUB DUP2 ADD SWAP1 PUSH2 0xC0 SWAP2 SWAP1 PUSH2 0x365 JUMP JUMPDEST PUSH2 0x1C3 JUMP JUMPDEST STOP JUMPDEST PUSH2 0xE1 PUSH1 0x4 DUP1 CALLDATASIZE SUB DUP2 ADD SWAP1 PUSH2 0xDC SWAP2 SWAP1 PUSH2 0x338 JUMP JUMPDEST PUSH2 0x1EA JUMP JUMPDEST PUSH1 0x40 MLOAD PUSH2 0xEE SWAP2 SWAP1 PUSH2 0x3B4 JUMP JUMPDEST PUSH1 0x40 MLOAD DUP1 SWAP2 SUB SWAP1 RETURN JUMPDEST PUSH2 0xFF PUSH2 0x211 JUMP JUMPDEST PUSH1 0x40 MLOAD PUSH2 0x10C SWAP2 SWAP1 PUSH2 0x3B4 JUMP JUMPDEST PUSH1 0x40 MLOAD DUP1 SWAP2 SUB SWAP1 RETURN JUMPDEST PUSH1 0x60 PUSH1 0x0 DUP1 SLOAD DUP1 PUSH1 0x20 MUL PUSH1 0x20 ADD PUSH1 0x40 MLOAD SWAP1 DUP2 ADD PUSH1 0x40 MSTORE DUP1 SWAP3 SWAP2 SWAP1 DUP2 DUP2 MSTORE PUSH1 0x20 ADD DUP3 DUP1 SLOAD DUP1 ISZERO PUSH2 0x163 JUMPI PUSH1 0x20 MUL DUP3 ADD SWAP2 SWAP1 PUSH1 0x0 MSTORE PUSH1 0x20 PUSH1 0x0 KECCAK256 SWAP1 JUMPDEST DUP2 SLOAD DUP2 MSTORE PUSH1 0x20 ADD SWAP1 PUSH1 0x1 ADD SWAP1 DUP1 DUP4 GT PUSH2 0x14F JUMPI JUMPDEST POP POP POP POP POP SWAP1 POP SWAP1 JUMP JUMPDEST PUSH1 0x0 DUP1 SLOAD DUP1 PUSH2 0x17F JUMPI PUSH2 0x17E PUSH2 0x3CF JUMP JUMPDEST JUMPDEST PUSH1 0x1 SWAP1 SUB DUP2 DUP2 SWAP1 PUSH1 0x0 MSTORE PUSH1 0x20 PUSH1 0x0 KECCAK256 ADD PUSH1 0x0 SWAP1 SSTORE SWAP1 SSTORE JUMP JUMPDEST PUSH1 0x0 DUP2 SWAP1 DUP1 PUSH1 0x1 DUP2 SLOAD ADD DUP1 DUP3 SSTORE DUP1 SWAP2 POP POP PUSH1 0x1 SWAP1 SUB SWAP1 PUSH1 0x0 MSTORE PUSH1 0x20 PUSH1 0x0 KECCAK256 ADD PUSH1 0x0 SWAP1 SWAP2 SWAP1 SWAP2 SWAP1 SWAP2 POP SSTORE POP JUMP JUMPDEST DUP1 PUSH1 0x0 DUP4 DUP2 SLOAD DUP2 LT PUSH2 0x1D8 JUMPI PUSH2 0x1D7 PUSH2 0x3FE JUMP JUMPDEST JUMPDEST SWAP1 PUSH1 0x0 MSTORE PUSH1 0x20 PUSH1 0x0 KECCAK256 ADD DUP2 SWAP1 SSTORE POP POP POP JUMP JUMPDEST PUSH1 0x0 DUP1 DUP3 DUP2 SLOAD DUP2 LT PUSH2 0x1FF JUMPI PUSH2 0x1FE PUSH2 0x3FE JUMP JUMPDEST JUMPDEST SWAP1 PUSH1 0x0 MSTORE PUSH1 0x20 PUSH1 0x0 KECCAK256 ADD SLOAD SWAP1 POP SWAP2 SWAP1 POP JUMP JUMPDEST PUSH1 0x0 DUP1 DUP1 SLOAD SWAP1 POP SWAP1 POP SWAP1 JUMP JUMPDEST PUSH1 0x0 DUP2 MLOAD SWAP1 POP SWAP2 SWAP1 POP JUMP JUMPDEST PUSH1 0x0 DUP3 DUP3 MSTORE PUSH1 0x20 DUP3 ADD SWAP1 POP SWAP3 SWAP2 POP POP JUMP JUMPDEST PUSH1 0x0 DUP2 SWAP1 POP PUSH1 0x20 DUP3 ADD SWAP1 POP SWAP2 SWAP1 POP JUMP JUMPDEST PUSH1 0x0 DUP2 SWAP1 POP SWAP2 SWAP1 POP JUMP JUMPDEST PUSH2 0x25C DUP2 PUSH2 0x249 JUMP JUMPDEST DUP3 MSTORE POP POP JUMP JUMPDEST PUSH1 0x0 PUSH2 0x26E DUP4 DUP4 PUSH2 0x253 JUMP JUMPDEST PUSH1 0x20 DUP4 ADD SWAP1 POP SWAP3 SWAP2 POP POP JUMP JUMPDEST PUSH1 0x0 PUSH1 0x20 DUP3 ADD SWAP1 POP SWAP2 SWAP1 POP JUMP JUMPDEST PUSH1 0x0 PUSH2 0x292 DUP3 PUSH2 0x21D JUMP JUMPDEST PUSH2 0x29C DUP2 DUP6 PUSH2 0x228 JUMP JUMPDEST SWAP4 POP PUSH2 0x2A7 DUP4 PUSH2 0x239 JUMP JUMPDEST DUP1 PUSH1 0x0 JUMPDEST DUP4 DUP2 LT ISZERO PUSH2 0x2D8 JUMPI DUP2 MLOAD PUSH2 0x2BF DUP9 DUP3 PUSH2 0x262 JUMP JUMPDEST SWAP8 POP PUSH2 0x2CA DUP4 PUSH2 0x27A JUMP JUMPDEST SWAP3 POP POP PUSH1 0x1 DUP2 ADD SWAP1 POP PUSH2 0x2AB JUMP JUMPDEST POP DUP6 SWAP4 POP POP POP POP SWAP3 SWAP2 POP POP JUMP JUMPDEST PUSH1 0x0 PUSH1 0x20 DUP3 ADD SWAP1 POP DUP2 DUP2 SUB PUSH1 0x0 DUP4 ADD MSTORE PUSH2 0x2FF DUP2 DUP5 PUSH2 0x287 JUMP JUMPDEST SWAP1 POP SWAP3 SWAP2 POP POP JUMP JUMPDEST PUSH1 0x0 DUP1 REVERT JUMPDEST PUSH2 0x315 DUP2 PUSH2 0x249 JUMP JUMPDEST DUP2 EQ PUSH2 0x320 JUMPI PUSH1 0x0 DUP1 REVERT JUMPDEST POP JUMP JUMPDEST PUSH1 0x0 DUP2 CALLDATALOAD SWAP1 POP PUSH2 0x332 DUP2 PUSH2 0x30C JUMP JUMPDEST SWAP3 SWAP2 POP POP JUMP JUMPDEST PUSH1 0x0 PUSH1 0x20 DUP3 DUP5 SUB SLT ISZERO PUSH2 0x34E JUMPI PUSH2 0x34D PUSH2 0x307 JUMP JUMPDEST JUMPDEST PUSH1 0x0 PUSH2 0x35C DUP5 DUP3 DUP6 ADD PUSH2 0x323 JUMP JUMPDEST SWAP2 POP POP SWAP3 SWAP2 POP POP JUMP JUMPDEST PUSH1 0x0 DUP1 PUSH1 0x40 DUP4 DUP6 SUB SLT ISZERO PUSH2 0x37C JUMPI PUSH2 0x37B PUSH2 0x307 JUMP JUMPDEST JUMPDEST PUSH1 0x0 PUSH2 0x38A DUP6 DUP3 DUP7 ADD PUSH2 0x323 JUMP JUMPDEST SWAP3 POP POP PUSH1 0x20 PUSH2 0x39B DUP6 DUP3 DUP7 ADD PUSH2 0x323 JUMP JUMPDEST SWAP2 POP POP SWAP3 POP SWAP3 SWAP1 POP JUMP JUMPDEST PUSH2 0x3AE DUP2 PUSH2 0x249 JUMP JUMPDEST DUP3 MSTORE POP POP JUMP JUMPDEST PUSH1 0x0 PUSH1 0x20 DUP3 ADD SWAP1 POP PUSH2 0x3C9 PUSH1 0x0 DUP4 ADD DUP5 PUSH2 0x3A5 JUMP JUMPDEST SWAP3 SWAP2 POP POP JUMP JUMPDEST PUSH32 0x4E487B7100000000000000000000000000000000000000000000000000000000 PUSH1 0x0 MSTORE PUSH1 0x31 PUSH1 0x4 MSTORE PUSH1 0x24 PUSH1 0x0 REVERT JUMPDEST PUSH32 0x4E487B7100000000000000000000000000000000000000000000000000000000 PUSH1 0x0 MSTORE PUSH1 0x32 PUSH1 0x4 MSTORE PUSH1 0x24 PUSH1 0x0 REVERT INVALID LOG2 PUSH5 0x6970667358 0x22 SLT KECCAK256 SWAP5 MSIZE 0x5F PUSH7 0x309B59AFE74ABC PUSH10 0x6016DD56AFC67A412656 ORIGIN JUMP SWAP5 PUSH5 0x1A6A98AFE7 SLT PUSH5 0x736F6C6343 STOP ADDMOD SLT STOP CALLER "
				},
				"gasEstimates": {
					"creation": {
						"codeDepositCost": "224600",
						"executionCost": "269",
						"totalCost": "224869"
					},
					"external": {
						"getLength()": "2533",
						"getValueAt(uint256)": "infinite",
						"getValues()": "infinite",
						"removeValue()": "29445",
						"setValue(uint256)": "46851",
						"setValueAt(uint256,uint256)": "infinite"
					}
				},
				"methodIdentifiers": {
					"getLength()": "be1c766b",
					"getValueAt(uint256)": "bc6b888b",
					"getValues()": "19eb4a90",
					"removeValue()": "2f5739dd",
					"setValue(uint256)": "55241077",
					"setValueAt(uint256,uint256)": "927bc47b"
				}
			},
			"storageLayout": {
				"storage": [
					{
						"astId": 4,
						"contract": "Fall-2023/08_DynamicArray.sol:DynamicArray",
						"label": "arr",
						"offset": 0,
						"slot": "0",
						"type": "t_array(t_uint256)dyn_storage"
					}
				],
				"types": {
					"t_array(t_uint256)dyn_storage": {
						"base": "t_uint256",
						"encoding": "dynamic_array",
						"label": "uint256[]",
						"numberOfBytes": "32"
					},
					"t_uint256": {
						"encoding": "inplace",
						"label": "uint256",
						"numberOfBytes": "32"
					}
				}
			},
			"userdoc": {
				"kind": "user",
				"methods": {},
				"version": 1
			}
		}
	}
}