{
	"Fall-2023/16_Mapping.sol": {
		"Contact": {
			"abi": [
				{
					"inputs": [
						{
							"internalType": "string",
							"name": "nameKey",
							"type": "string"
						}
					],
					"name": "getContact",
					"outputs": [
						{
							"internalType": "string",
							"name": "",
							"type": "string"
						}
					],
					"stateMutability": "view",
					"type": "function"
				},
				{
					"inputs": [
						{
							"internalType": "string",
							"name": "nameKey",
							"type": "string"
						}
					],
					"name": "removeContact",
					"outputs": [],
					"stateMutability": "nonpayable",
					"type": "function"
				},
				{
					"inputs": [
						{
							"internalType": "string",
							"name": "nameKey",
							"type": "string"
						},
						{
							"internalType": "string",
							"name": "contact",
							"type": "string"
						}
					],
					"name": "setContact",
					"outputs": [],
					"stateMutability": "nonpayable",
					"type": "function"
				}
			],
			"devdoc": {
				"kind": "dev",
				"methods": {},
				"version": 1
			},
			"evm": {
				"assembly": "    /* \"Fall-2023/16_Mapping.sol\":92:680  contract Contact... */\n  mstore(0x40, 0x80)\n  callvalue\n  dup1\n  iszero\n  tag_1\n  jumpi\n  0x00\n  dup1\n  revert\ntag_1:\n  pop\n  dataSize(sub_0)\n  dup1\n  dataOffset(sub_0)\n  0x00\n  codecopy\n  0x00\n  return\nstop\n\nsub_0: assembly {\n        /* \"Fall-2023/16_Mapping.sol\":92:680  contract Contact... */\n      mstore(0x40, 0x80)\n      callvalue\n      dup1\n      iszero\n      tag_1\n      jumpi\n      0x00\n      dup1\n      revert\n    tag_1:\n      pop\n      jumpi(tag_2, lt(calldatasize, 0x04))\n      shr(0xe0, calldataload(0x00))\n      dup1\n      0x6e6b5733\n      eq\n      tag_3\n      jumpi\n      dup1\n      0xefa902f0\n      eq\n      tag_4\n      jumpi\n      dup1\n      0xf5ae4167\n      eq\n      tag_5\n      jumpi\n    tag_2:\n      0x00\n      dup1\n      revert\n        /* \"Fall-2023/16_Mapping.sol\":414:677  function removeContact(string memory nameKey) public {... */\n    tag_3:\n      tag_6\n      0x04\n      dup1\n      calldatasize\n      sub\n      dup2\n      add\n      swap1\n      tag_7\n      swap2\n      swap1\n      tag_8\n      jump\t// in\n    tag_7:\n      tag_9\n      jump\t// in\n    tag_6:\n      stop\n        /* \"Fall-2023/16_Mapping.sol\":286:406  function getContact(string memory nameKey) public view returns(string memory){... */\n    tag_4:\n      tag_10\n      0x04\n      dup1\n      calldatasize\n      sub\n      dup2\n      add\n      swap1\n      tag_11\n      swap2\n      swap1\n      tag_8\n      jump\t// in\n    tag_11:\n      tag_12\n      jump\t// in\n    tag_10:\n      mload(0x40)\n      tag_13\n      swap2\n      swap1\n      tag_14\n      jump\t// in\n    tag_13:\n      mload(0x40)\n      dup1\n      swap2\n      sub\n      swap1\n      return\n        /* \"Fall-2023/16_Mapping.sol\":159:278  function setContact(string memory nameKey, string memory contact) public {... */\n    tag_5:\n      tag_15\n      0x04\n      dup1\n      calldatasize\n      sub\n      dup2\n      add\n      swap1\n      tag_16\n      swap2\n      swap1\n      tag_17\n      jump\t// in\n    tag_16:\n      tag_18\n      jump\t// in\n    tag_15:\n      stop\n        /* \"Fall-2023/16_Mapping.sol\":414:677  function removeContact(string memory nameKey) public {... */\n    tag_9:\n        /* \"Fall-2023/16_Mapping.sol\":485:493  contacts */\n      0x00\n        /* \"Fall-2023/16_Mapping.sol\":494:501  nameKey */\n      dup2\n        /* \"Fall-2023/16_Mapping.sol\":485:502  contacts[nameKey] */\n      mload(0x40)\n      tag_20\n      swap2\n      swap1\n      tag_21\n      jump\t// in\n    tag_20:\n      swap1\n      dup2\n      mstore\n      0x20\n      add\n      mload(0x40)\n      dup1\n      swap2\n      sub\n      swap1\n      keccak256\n      0x00\n        /* \"Fall-2023/16_Mapping.sol\":478:502  delete contacts[nameKey] */\n      tag_22\n      swap2\n      swap1\n      tag_23\n      jump\t// in\n    tag_22:\n        /* \"Fall-2023/16_Mapping.sol\":414:677  function removeContact(string memory nameKey) public {... */\n      pop\n      jump\t// out\n        /* \"Fall-2023/16_Mapping.sol\":286:406  function getContact(string memory nameKey) public view returns(string memory){... */\n    tag_12:\n        /* \"Fall-2023/16_Mapping.sol\":349:362  string memory */\n      0x60\n        /* \"Fall-2023/16_Mapping.sol\":381:389  contacts */\n      0x00\n        /* \"Fall-2023/16_Mapping.sol\":390:397  nameKey */\n      dup3\n        /* \"Fall-2023/16_Mapping.sol\":381:398  contacts[nameKey] */\n      mload(0x40)\n      tag_25\n      swap2\n      swap1\n      tag_21\n      jump\t// in\n    tag_25:\n      swap1\n      dup2\n      mstore\n      0x20\n      add\n      mload(0x40)\n      dup1\n      swap2\n      sub\n      swap1\n      keccak256\n        /* \"Fall-2023/16_Mapping.sol\":374:398  return contacts[nameKey] */\n      dup1\n      sload\n      tag_26\n      swap1\n      tag_27\n      jump\t// in\n    tag_26:\n      dup1\n      0x1f\n      add\n      0x20\n      dup1\n      swap2\n      div\n      mul\n      0x20\n      add\n      mload(0x40)\n      swap1\n      dup2\n      add\n      0x40\n      mstore\n      dup1\n      swap3\n      swap2\n      swap1\n      dup2\n      dup2\n      mstore\n      0x20\n      add\n      dup3\n      dup1\n      sload\n      tag_28\n      swap1\n      tag_27\n      jump\t// in\n    tag_28:\n      dup1\n      iszero\n      tag_29\n      jumpi\n      dup1\n      0x1f\n      lt\n      tag_30\n      jumpi\n      0x0100\n      dup1\n      dup4\n      sload\n      div\n      mul\n      dup4\n      mstore\n      swap2\n      0x20\n      add\n      swap2\n      jump(tag_29)\n    tag_30:\n      dup3\n      add\n      swap2\n      swap1\n      0x00\n      mstore\n      keccak256(0x00, 0x20)\n      swap1\n    tag_31:\n      dup2\n      sload\n      dup2\n      mstore\n      swap1\n      0x01\n      add\n      swap1\n      0x20\n      add\n      dup1\n      dup4\n      gt\n      tag_31\n      jumpi\n      dup3\n      swap1\n      sub\n      0x1f\n      and\n      dup3\n      add\n      swap2\n    tag_29:\n      pop\n      pop\n      pop\n      pop\n      pop\n      swap1\n      pop\n        /* \"Fall-2023/16_Mapping.sol\":286:406  function getContact(string memory nameKey) public view returns(string memory){... */\n      swap2\n      swap1\n      pop\n      jump\t// out\n        /* \"Fall-2023/16_Mapping.sol\":159:278  function setContact(string memory nameKey, string memory contact) public {... */\n    tag_18:\n        /* \"Fall-2023/16_Mapping.sol\":263:270  contact */\n      dup1\n        /* \"Fall-2023/16_Mapping.sol\":243:251  contacts */\n      0x00\n        /* \"Fall-2023/16_Mapping.sol\":252:259  nameKey */\n      dup4\n        /* \"Fall-2023/16_Mapping.sol\":243:260  contacts[nameKey] */\n      mload(0x40)\n      tag_33\n      swap2\n      swap1\n      tag_21\n      jump\t// in\n    tag_33:\n      swap1\n      dup2\n      mstore\n      0x20\n      add\n      mload(0x40)\n      dup1\n      swap2\n      sub\n      swap1\n      keccak256\n        /* \"Fall-2023/16_Mapping.sol\":243:270  contacts[nameKey] = contact */\n      swap1\n      dup2\n      tag_34\n      swap2\n      swap1\n      tag_35\n      jump\t// in\n    tag_34:\n      pop\n        /* \"Fall-2023/16_Mapping.sol\":159:278  function setContact(string memory nameKey, string memory contact) public {... */\n      pop\n      pop\n      jump\t// out\n    tag_23:\n      pop\n      dup1\n      sload\n      tag_36\n      swap1\n      tag_27\n      jump\t// in\n    tag_36:\n      0x00\n      dup3\n      sstore\n      dup1\n      0x1f\n      lt\n      tag_38\n      jumpi\n      pop\n      jump(tag_37)\n    tag_38:\n      0x1f\n      add\n      0x20\n      swap1\n      div\n      swap1\n      0x00\n      mstore\n      keccak256(0x00, 0x20)\n      swap1\n      dup2\n      add\n      swap1\n      tag_39\n      swap2\n      swap1\n      tag_40\n      jump\t// in\n    tag_39:\n    tag_37:\n      pop\n      jump\t// out\n    tag_40:\n    tag_41:\n      dup1\n      dup3\n      gt\n      iszero\n      tag_42\n      jumpi\n      0x00\n      dup2\n      0x00\n      swap1\n      sstore\n      pop\n      0x01\n      add\n      jump(tag_41)\n    tag_42:\n      pop\n      swap1\n      jump\t// out\n        /* \"#utility.yul\":7:82   */\n    tag_43:\n        /* \"#utility.yul\":40:46   */\n      0x00\n        /* \"#utility.yul\":73:75   */\n      0x40\n        /* \"#utility.yul\":67:76   */\n      mload\n        /* \"#utility.yul\":57:76   */\n      swap1\n      pop\n        /* \"#utility.yul\":7:82   */\n      swap1\n      jump\t// out\n        /* \"#utility.yul\":88:205   */\n    tag_44:\n        /* \"#utility.yul\":197:198   */\n      0x00\n        /* \"#utility.yul\":194:195   */\n      dup1\n        /* \"#utility.yul\":187:199   */\n      revert\n        /* \"#utility.yul\":211:328   */\n    tag_45:\n        /* \"#utility.yul\":320:321   */\n      0x00\n        /* \"#utility.yul\":317:318   */\n      dup1\n        /* \"#utility.yul\":310:322   */\n      revert\n        /* \"#utility.yul\":334:451   */\n    tag_46:\n        /* \"#utility.yul\":443:444   */\n      0x00\n        /* \"#utility.yul\":440:441   */\n      dup1\n        /* \"#utility.yul\":433:445   */\n      revert\n        /* \"#utility.yul\":457:574   */\n    tag_47:\n        /* \"#utility.yul\":566:567   */\n      0x00\n        /* \"#utility.yul\":563:564   */\n      dup1\n        /* \"#utility.yul\":556:568   */\n      revert\n        /* \"#utility.yul\":580:682   */\n    tag_48:\n        /* \"#utility.yul\":621:627   */\n      0x00\n        /* \"#utility.yul\":672:674   */\n      0x1f\n        /* \"#utility.yul\":668:675   */\n      not\n        /* \"#utility.yul\":663:665   */\n      0x1f\n        /* \"#utility.yul\":656:661   */\n      dup4\n        /* \"#utility.yul\":652:666   */\n      add\n        /* \"#utility.yul\":648:676   */\n      and\n        /* \"#utility.yul\":638:676   */\n      swap1\n      pop\n        /* \"#utility.yul\":580:682   */\n      swap2\n      swap1\n      pop\n      jump\t// out\n        /* \"#utility.yul\":688:868   */\n    tag_49:\n        /* \"#utility.yul\":736:813   */\n      0x4e487b7100000000000000000000000000000000000000000000000000000000\n        /* \"#utility.yul\":733:734   */\n      0x00\n        /* \"#utility.yul\":726:814   */\n      mstore\n        /* \"#utility.yul\":833:837   */\n      0x41\n        /* \"#utility.yul\":830:831   */\n      0x04\n        /* \"#utility.yul\":823:838   */\n      mstore\n        /* \"#utility.yul\":857:861   */\n      0x24\n        /* \"#utility.yul\":854:855   */\n      0x00\n        /* \"#utility.yul\":847:862   */\n      revert\n        /* \"#utility.yul\":874:1155   */\n    tag_50:\n        /* \"#utility.yul\":957:984   */\n      tag_88\n        /* \"#utility.yul\":979:983   */\n      dup3\n        /* \"#utility.yul\":957:984   */\n      tag_48\n      jump\t// in\n    tag_88:\n        /* \"#utility.yul\":949:955   */\n      dup2\n        /* \"#utility.yul\":945:985   */\n      add\n        /* \"#utility.yul\":1087:1093   */\n      dup2\n        /* \"#utility.yul\":1075:1085   */\n      dup2\n        /* \"#utility.yul\":1072:1094   */\n      lt\n        /* \"#utility.yul\":1051:1069   */\n      0xffffffffffffffff\n        /* \"#utility.yul\":1039:1049   */\n      dup3\n        /* \"#utility.yul\":1036:1070   */\n      gt\n        /* \"#utility.yul\":1033:1095   */\n      or\n        /* \"#utility.yul\":1030:1118   */\n      iszero\n      tag_89\n      jumpi\n        /* \"#utility.yul\":1098:1116   */\n      tag_90\n      tag_49\n      jump\t// in\n    tag_90:\n        /* \"#utility.yul\":1030:1118   */\n    tag_89:\n        /* \"#utility.yul\":1138:1148   */\n      dup1\n        /* \"#utility.yul\":1134:1136   */\n      0x40\n        /* \"#utility.yul\":1127:1149   */\n      mstore\n        /* \"#utility.yul\":917:1155   */\n      pop\n        /* \"#utility.yul\":874:1155   */\n      pop\n      pop\n      jump\t// out\n        /* \"#utility.yul\":1161:1290   */\n    tag_51:\n        /* \"#utility.yul\":1195:1201   */\n      0x00\n        /* \"#utility.yul\":1222:1242   */\n      tag_92\n      tag_43\n      jump\t// in\n    tag_92:\n        /* \"#utility.yul\":1212:1242   */\n      swap1\n      pop\n        /* \"#utility.yul\":1251:1284   */\n      tag_93\n        /* \"#utility.yul\":1279:1283   */\n      dup3\n        /* \"#utility.yul\":1271:1277   */\n      dup3\n        /* \"#utility.yul\":1251:1284   */\n      tag_50\n      jump\t// in\n    tag_93:\n        /* \"#utility.yul\":1161:1290   */\n      swap2\n      swap1\n      pop\n      jump\t// out\n        /* \"#utility.yul\":1296:1604   */\n    tag_52:\n        /* \"#utility.yul\":1358:1362   */\n      0x00\n        /* \"#utility.yul\":1448:1466   */\n      0xffffffffffffffff\n        /* \"#utility.yul\":1440:1446   */\n      dup3\n        /* \"#utility.yul\":1437:1467   */\n      gt\n        /* \"#utility.yul\":1434:1490   */\n      iszero\n      tag_95\n      jumpi\n        /* \"#utility.yul\":1470:1488   */\n      tag_96\n      tag_49\n      jump\t// in\n    tag_96:\n        /* \"#utility.yul\":1434:1490   */\n    tag_95:\n        /* \"#utility.yul\":1508:1537   */\n      tag_97\n        /* \"#utility.yul\":1530:1536   */\n      dup3\n        /* \"#utility.yul\":1508:1537   */\n      tag_48\n      jump\t// in\n    tag_97:\n        /* \"#utility.yul\":1500:1537   */\n      swap1\n      pop\n        /* \"#utility.yul\":1592:1596   */\n      0x20\n        /* \"#utility.yul\":1586:1590   */\n      dup2\n        /* \"#utility.yul\":1582:1597   */\n      add\n        /* \"#utility.yul\":1574:1597   */\n      swap1\n      pop\n        /* \"#utility.yul\":1296:1604   */\n      swap2\n      swap1\n      pop\n      jump\t// out\n        /* \"#utility.yul\":1610:1756   */\n    tag_53:\n        /* \"#utility.yul\":1707:1713   */\n      dup3\n        /* \"#utility.yul\":1702:1705   */\n      dup2\n        /* \"#utility.yul\":1697:1700   */\n      dup4\n        /* \"#utility.yul\":1684:1714   */\n      calldatacopy\n        /* \"#utility.yul\":1748:1749   */\n      0x00\n        /* \"#utility.yul\":1739:1745   */\n      dup4\n        /* \"#utility.yul\":1734:1737   */\n      dup4\n        /* \"#utility.yul\":1730:1746   */\n      add\n        /* \"#utility.yul\":1723:1750   */\n      mstore\n        /* \"#utility.yul\":1610:1756   */\n      pop\n      pop\n      pop\n      jump\t// out\n        /* \"#utility.yul\":1762:2187   */\n    tag_54:\n        /* \"#utility.yul\":1840:1845   */\n      0x00\n        /* \"#utility.yul\":1865:1931   */\n      tag_100\n        /* \"#utility.yul\":1881:1930   */\n      tag_101\n        /* \"#utility.yul\":1923:1929   */\n      dup5\n        /* \"#utility.yul\":1881:1930   */\n      tag_52\n      jump\t// in\n    tag_101:\n        /* \"#utility.yul\":1865:1931   */\n      tag_51\n      jump\t// in\n    tag_100:\n        /* \"#utility.yul\":1856:1931   */\n      swap1\n      pop\n        /* \"#utility.yul\":1954:1960   */\n      dup3\n        /* \"#utility.yul\":1947:1952   */\n      dup2\n        /* \"#utility.yul\":1940:1961   */\n      mstore\n        /* \"#utility.yul\":1992:1996   */\n      0x20\n        /* \"#utility.yul\":1985:1990   */\n      dup2\n        /* \"#utility.yul\":1981:1997   */\n      add\n        /* \"#utility.yul\":2030:2033   */\n      dup5\n        /* \"#utility.yul\":2021:2027   */\n      dup5\n        /* \"#utility.yul\":2016:2019   */\n      dup5\n        /* \"#utility.yul\":2012:2028   */\n      add\n        /* \"#utility.yul\":2009:2034   */\n      gt\n        /* \"#utility.yul\":2006:2118   */\n      iszero\n      tag_102\n      jumpi\n        /* \"#utility.yul\":2037:2116   */\n      tag_103\n      tag_47\n      jump\t// in\n    tag_103:\n        /* \"#utility.yul\":2006:2118   */\n    tag_102:\n        /* \"#utility.yul\":2127:2181   */\n      tag_104\n        /* \"#utility.yul\":2174:2180   */\n      dup5\n        /* \"#utility.yul\":2169:2172   */\n      dup3\n        /* \"#utility.yul\":2164:2167   */\n      dup6\n        /* \"#utility.yul\":2127:2181   */\n      tag_53\n      jump\t// in\n    tag_104:\n        /* \"#utility.yul\":1846:2187   */\n      pop\n        /* \"#utility.yul\":1762:2187   */\n      swap4\n      swap3\n      pop\n      pop\n      pop\n      jump\t// out\n        /* \"#utility.yul\":2207:2547   */\n    tag_55:\n        /* \"#utility.yul\":2263:2268   */\n      0x00\n        /* \"#utility.yul\":2312:2315   */\n      dup3\n        /* \"#utility.yul\":2305:2309   */\n      0x1f\n        /* \"#utility.yul\":2297:2303   */\n      dup4\n        /* \"#utility.yul\":2293:2310   */\n      add\n        /* \"#utility.yul\":2289:2316   */\n      slt\n        /* \"#utility.yul\":2279:2401   */\n      tag_106\n      jumpi\n        /* \"#utility.yul\":2320:2399   */\n      tag_107\n      tag_46\n      jump\t// in\n    tag_107:\n        /* \"#utility.yul\":2279:2401   */\n    tag_106:\n        /* \"#utility.yul\":2437:2443   */\n      dup2\n        /* \"#utility.yul\":2424:2444   */\n      calldataload\n        /* \"#utility.yul\":2462:2541   */\n      tag_108\n        /* \"#utility.yul\":2537:2540   */\n      dup5\n        /* \"#utility.yul\":2529:2535   */\n      dup3\n        /* \"#utility.yul\":2522:2526   */\n      0x20\n        /* \"#utility.yul\":2514:2520   */\n      dup7\n        /* \"#utility.yul\":2510:2527   */\n      add\n        /* \"#utility.yul\":2462:2541   */\n      tag_54\n      jump\t// in\n    tag_108:\n        /* \"#utility.yul\":2453:2541   */\n      swap2\n      pop\n        /* \"#utility.yul\":2269:2547   */\n      pop\n        /* \"#utility.yul\":2207:2547   */\n      swap3\n      swap2\n      pop\n      pop\n      jump\t// out\n        /* \"#utility.yul\":2553:3062   */\n    tag_8:\n        /* \"#utility.yul\":2622:2628   */\n      0x00\n        /* \"#utility.yul\":2671:2673   */\n      0x20\n        /* \"#utility.yul\":2659:2668   */\n      dup3\n        /* \"#utility.yul\":2650:2657   */\n      dup5\n        /* \"#utility.yul\":2646:2669   */\n      sub\n        /* \"#utility.yul\":2642:2674   */\n      slt\n        /* \"#utility.yul\":2639:2758   */\n      iszero\n      tag_110\n      jumpi\n        /* \"#utility.yul\":2677:2756   */\n      tag_111\n      tag_44\n      jump\t// in\n    tag_111:\n        /* \"#utility.yul\":2639:2758   */\n    tag_110:\n        /* \"#utility.yul\":2825:2826   */\n      0x00\n        /* \"#utility.yul\":2814:2823   */\n      dup3\n        /* \"#utility.yul\":2810:2827   */\n      add\n        /* \"#utility.yul\":2797:2828   */\n      calldataload\n        /* \"#utility.yul\":2855:2873   */\n      0xffffffffffffffff\n        /* \"#utility.yul\":2847:2853   */\n      dup2\n        /* \"#utility.yul\":2844:2874   */\n      gt\n        /* \"#utility.yul\":2841:2958   */\n      iszero\n      tag_112\n      jumpi\n        /* \"#utility.yul\":2877:2956   */\n      tag_113\n      tag_45\n      jump\t// in\n    tag_113:\n        /* \"#utility.yul\":2841:2958   */\n    tag_112:\n        /* \"#utility.yul\":2982:3045   */\n      tag_114\n        /* \"#utility.yul\":3037:3044   */\n      dup5\n        /* \"#utility.yul\":3028:3034   */\n      dup3\n        /* \"#utility.yul\":3017:3026   */\n      dup6\n        /* \"#utility.yul\":3013:3035   */\n      add\n        /* \"#utility.yul\":2982:3045   */\n      tag_55\n      jump\t// in\n    tag_114:\n        /* \"#utility.yul\":2972:3045   */\n      swap2\n      pop\n        /* \"#utility.yul\":2768:3055   */\n      pop\n        /* \"#utility.yul\":2553:3062   */\n      swap3\n      swap2\n      pop\n      pop\n      jump\t// out\n        /* \"#utility.yul\":3068:3167   */\n    tag_56:\n        /* \"#utility.yul\":3120:3126   */\n      0x00\n        /* \"#utility.yul\":3154:3159   */\n      dup2\n        /* \"#utility.yul\":3148:3160   */\n      mload\n        /* \"#utility.yul\":3138:3160   */\n      swap1\n      pop\n        /* \"#utility.yul\":3068:3167   */\n      swap2\n      swap1\n      pop\n      jump\t// out\n        /* \"#utility.yul\":3173:3342   */\n    tag_57:\n        /* \"#utility.yul\":3257:3268   */\n      0x00\n        /* \"#utility.yul\":3291:3297   */\n      dup3\n        /* \"#utility.yul\":3286:3289   */\n      dup3\n        /* \"#utility.yul\":3279:3298   */\n      mstore\n        /* \"#utility.yul\":3331:3335   */\n      0x20\n        /* \"#utility.yul\":3326:3329   */\n      dup3\n        /* \"#utility.yul\":3322:3336   */\n      add\n        /* \"#utility.yul\":3307:3336   */\n      swap1\n      pop\n        /* \"#utility.yul\":3173:3342   */\n      swap3\n      swap2\n      pop\n      pop\n      jump\t// out\n        /* \"#utility.yul\":3348:3594   */\n    tag_58:\n        /* \"#utility.yul\":3429:3430   */\n      0x00\n        /* \"#utility.yul\":3439:3552   */\n    tag_118:\n        /* \"#utility.yul\":3453:3459   */\n      dup4\n        /* \"#utility.yul\":3450:3451   */\n      dup2\n        /* \"#utility.yul\":3447:3460   */\n      lt\n        /* \"#utility.yul\":3439:3552   */\n      iszero\n      tag_120\n      jumpi\n        /* \"#utility.yul\":3538:3539   */\n      dup1\n        /* \"#utility.yul\":3533:3536   */\n      dup3\n        /* \"#utility.yul\":3529:3540   */\n      add\n        /* \"#utility.yul\":3523:3541   */\n      mload\n        /* \"#utility.yul\":3519:3520   */\n      dup2\n        /* \"#utility.yul\":3514:3517   */\n      dup5\n        /* \"#utility.yul\":3510:3521   */\n      add\n        /* \"#utility.yul\":3503:3542   */\n      mstore\n        /* \"#utility.yul\":3475:3477   */\n      0x20\n        /* \"#utility.yul\":3472:3473   */\n      dup2\n        /* \"#utility.yul\":3468:3478   */\n      add\n        /* \"#utility.yul\":3463:3478   */\n      swap1\n      pop\n        /* \"#utility.yul\":3439:3552   */\n      jump(tag_118)\n    tag_120:\n        /* \"#utility.yul\":3586:3587   */\n      0x00\n        /* \"#utility.yul\":3577:3583   */\n      dup5\n        /* \"#utility.yul\":3572:3575   */\n      dup5\n        /* \"#utility.yul\":3568:3584   */\n      add\n        /* \"#utility.yul\":3561:3588   */\n      mstore\n        /* \"#utility.yul\":3410:3594   */\n      pop\n        /* \"#utility.yul\":3348:3594   */\n      pop\n      pop\n      pop\n      jump\t// out\n        /* \"#utility.yul\":3600:3977   */\n    tag_59:\n        /* \"#utility.yul\":3688:3691   */\n      0x00\n        /* \"#utility.yul\":3716:3755   */\n      tag_122\n        /* \"#utility.yul\":3749:3754   */\n      dup3\n        /* \"#utility.yul\":3716:3755   */\n      tag_56\n      jump\t// in\n    tag_122:\n        /* \"#utility.yul\":3771:3842   */\n      tag_123\n        /* \"#utility.yul\":3835:3841   */\n      dup2\n        /* \"#utility.yul\":3830:3833   */\n      dup6\n        /* \"#utility.yul\":3771:3842   */\n      tag_57\n      jump\t// in\n    tag_123:\n        /* \"#utility.yul\":3764:3842   */\n      swap4\n      pop\n        /* \"#utility.yul\":3851:3916   */\n      tag_124\n        /* \"#utility.yul\":3909:3915   */\n      dup2\n        /* \"#utility.yul\":3904:3907   */\n      dup6\n        /* \"#utility.yul\":3897:3901   */\n      0x20\n        /* \"#utility.yul\":3890:3895   */\n      dup7\n        /* \"#utility.yul\":3886:3902   */\n      add\n        /* \"#utility.yul\":3851:3916   */\n      tag_58\n      jump\t// in\n    tag_124:\n        /* \"#utility.yul\":3941:3970   */\n      tag_125\n        /* \"#utility.yul\":3963:3969   */\n      dup2\n        /* \"#utility.yul\":3941:3970   */\n      tag_48\n      jump\t// in\n    tag_125:\n        /* \"#utility.yul\":3936:3939   */\n      dup5\n        /* \"#utility.yul\":3932:3971   */\n      add\n        /* \"#utility.yul\":3925:3971   */\n      swap2\n      pop\n        /* \"#utility.yul\":3692:3977   */\n      pop\n        /* \"#utility.yul\":3600:3977   */\n      swap3\n      swap2\n      pop\n      pop\n      jump\t// out\n        /* \"#utility.yul\":3983:4296   */\n    tag_14:\n        /* \"#utility.yul\":4096:4100   */\n      0x00\n        /* \"#utility.yul\":4134:4136   */\n      0x20\n        /* \"#utility.yul\":4123:4132   */\n      dup3\n        /* \"#utility.yul\":4119:4137   */\n      add\n        /* \"#utility.yul\":4111:4137   */\n      swap1\n      pop\n        /* \"#utility.yul\":4183:4192   */\n      dup2\n        /* \"#utility.yul\":4177:4181   */\n      dup2\n        /* \"#utility.yul\":4173:4193   */\n      sub\n        /* \"#utility.yul\":4169:4170   */\n      0x00\n        /* \"#utility.yul\":4158:4167   */\n      dup4\n        /* \"#utility.yul\":4154:4171   */\n      add\n        /* \"#utility.yul\":4147:4194   */\n      mstore\n        /* \"#utility.yul\":4211:4289   */\n      tag_127\n        /* \"#utility.yul\":4284:4288   */\n      dup2\n        /* \"#utility.yul\":4275:4281   */\n      dup5\n        /* \"#utility.yul\":4211:4289   */\n      tag_59\n      jump\t// in\n    tag_127:\n        /* \"#utility.yul\":4203:4289   */\n      swap1\n      pop\n        /* \"#utility.yul\":3983:4296   */\n      swap3\n      swap2\n      pop\n      pop\n      jump\t// out\n        /* \"#utility.yul\":4302:5136   */\n    tag_17:\n        /* \"#utility.yul\":4390:4396   */\n      0x00\n        /* \"#utility.yul\":4398:4404   */\n      dup1\n        /* \"#utility.yul\":4447:4449   */\n      0x40\n        /* \"#utility.yul\":4435:4444   */\n      dup4\n        /* \"#utility.yul\":4426:4433   */\n      dup6\n        /* \"#utility.yul\":4422:4445   */\n      sub\n        /* \"#utility.yul\":4418:4450   */\n      slt\n        /* \"#utility.yul\":4415:4534   */\n      iszero\n      tag_129\n      jumpi\n        /* \"#utility.yul\":4453:4532   */\n      tag_130\n      tag_44\n      jump\t// in\n    tag_130:\n        /* \"#utility.yul\":4415:4534   */\n    tag_129:\n        /* \"#utility.yul\":4601:4602   */\n      0x00\n        /* \"#utility.yul\":4590:4599   */\n      dup4\n        /* \"#utility.yul\":4586:4603   */\n      add\n        /* \"#utility.yul\":4573:4604   */\n      calldataload\n        /* \"#utility.yul\":4631:4649   */\n      0xffffffffffffffff\n        /* \"#utility.yul\":4623:4629   */\n      dup2\n        /* \"#utility.yul\":4620:4650   */\n      gt\n        /* \"#utility.yul\":4617:4734   */\n      iszero\n      tag_131\n      jumpi\n        /* \"#utility.yul\":4653:4732   */\n      tag_132\n      tag_45\n      jump\t// in\n    tag_132:\n        /* \"#utility.yul\":4617:4734   */\n    tag_131:\n        /* \"#utility.yul\":4758:4821   */\n      tag_133\n        /* \"#utility.yul\":4813:4820   */\n      dup6\n        /* \"#utility.yul\":4804:4810   */\n      dup3\n        /* \"#utility.yul\":4793:4802   */\n      dup7\n        /* \"#utility.yul\":4789:4811   */\n      add\n        /* \"#utility.yul\":4758:4821   */\n      tag_55\n      jump\t// in\n    tag_133:\n        /* \"#utility.yul\":4748:4821   */\n      swap3\n      pop\n        /* \"#utility.yul\":4544:4831   */\n      pop\n        /* \"#utility.yul\":4898:4900   */\n      0x20\n        /* \"#utility.yul\":4887:4896   */\n      dup4\n        /* \"#utility.yul\":4883:4901   */\n      add\n        /* \"#utility.yul\":4870:4902   */\n      calldataload\n        /* \"#utility.yul\":4929:4947   */\n      0xffffffffffffffff\n        /* \"#utility.yul\":4921:4927   */\n      dup2\n        /* \"#utility.yul\":4918:4948   */\n      gt\n        /* \"#utility.yul\":4915:5032   */\n      iszero\n      tag_134\n      jumpi\n        /* \"#utility.yul\":4951:5030   */\n      tag_135\n      tag_45\n      jump\t// in\n    tag_135:\n        /* \"#utility.yul\":4915:5032   */\n    tag_134:\n        /* \"#utility.yul\":5056:5119   */\n      tag_136\n        /* \"#utility.yul\":5111:5118   */\n      dup6\n        /* \"#utility.yul\":5102:5108   */\n      dup3\n        /* \"#utility.yul\":5091:5100   */\n      dup7\n        /* \"#utility.yul\":5087:5109   */\n      add\n        /* \"#utility.yul\":5056:5119   */\n      tag_55\n      jump\t// in\n    tag_136:\n        /* \"#utility.yul\":5046:5119   */\n      swap2\n      pop\n        /* \"#utility.yul\":4841:5129   */\n      pop\n        /* \"#utility.yul\":4302:5136   */\n      swap3\n      pop\n      swap3\n      swap1\n      pop\n      jump\t// out\n        /* \"#utility.yul\":5142:5290   */\n    tag_60:\n        /* \"#utility.yul\":5244:5255   */\n      0x00\n        /* \"#utility.yul\":5281:5284   */\n      dup2\n        /* \"#utility.yul\":5266:5284   */\n      swap1\n      pop\n        /* \"#utility.yul\":5142:5290   */\n      swap3\n      swap2\n      pop\n      pop\n      jump\t// out\n        /* \"#utility.yul\":5296:5686   */\n    tag_61:\n        /* \"#utility.yul\":5402:5405   */\n      0x00\n        /* \"#utility.yul\":5430:5469   */\n      tag_139\n        /* \"#utility.yul\":5463:5468   */\n      dup3\n        /* \"#utility.yul\":5430:5469   */\n      tag_56\n      jump\t// in\n    tag_139:\n        /* \"#utility.yul\":5485:5574   */\n      tag_140\n        /* \"#utility.yul\":5567:5573   */\n      dup2\n        /* \"#utility.yul\":5562:5565   */\n      dup6\n        /* \"#utility.yul\":5485:5574   */\n      tag_60\n      jump\t// in\n    tag_140:\n        /* \"#utility.yul\":5478:5574   */\n      swap4\n      pop\n        /* \"#utility.yul\":5583:5648   */\n      tag_141\n        /* \"#utility.yul\":5641:5647   */\n      dup2\n        /* \"#utility.yul\":5636:5639   */\n      dup6\n        /* \"#utility.yul\":5629:5633   */\n      0x20\n        /* \"#utility.yul\":5622:5627   */\n      dup7\n        /* \"#utility.yul\":5618:5634   */\n      add\n        /* \"#utility.yul\":5583:5648   */\n      tag_58\n      jump\t// in\n    tag_141:\n        /* \"#utility.yul\":5673:5679   */\n      dup1\n        /* \"#utility.yul\":5668:5671   */\n      dup5\n        /* \"#utility.yul\":5664:5680   */\n      add\n        /* \"#utility.yul\":5657:5680   */\n      swap2\n      pop\n        /* \"#utility.yul\":5406:5686   */\n      pop\n        /* \"#utility.yul\":5296:5686   */\n      swap3\n      swap2\n      pop\n      pop\n      jump\t// out\n        /* \"#utility.yul\":5692:5967   */\n    tag_21:\n        /* \"#utility.yul\":5824:5827   */\n      0x00\n        /* \"#utility.yul\":5846:5941   */\n      tag_143\n        /* \"#utility.yul\":5937:5940   */\n      dup3\n        /* \"#utility.yul\":5928:5934   */\n      dup5\n        /* \"#utility.yul\":5846:5941   */\n      tag_61\n      jump\t// in\n    tag_143:\n        /* \"#utility.yul\":5839:5941   */\n      swap2\n      pop\n        /* \"#utility.yul\":5958:5961   */\n      dup2\n        /* \"#utility.yul\":5951:5961   */\n      swap1\n      pop\n        /* \"#utility.yul\":5692:5967   */\n      swap3\n      swap2\n      pop\n      pop\n      jump\t// out\n        /* \"#utility.yul\":5973:6153   */\n    tag_62:\n        /* \"#utility.yul\":6021:6098   */\n      0x4e487b7100000000000000000000000000000000000000000000000000000000\n        /* \"#utility.yul\":6018:6019   */\n      0x00\n        /* \"#utility.yul\":6011:6099   */\n      mstore\n        /* \"#utility.yul\":6118:6122   */\n      0x22\n        /* \"#utility.yul\":6115:6116   */\n      0x04\n        /* \"#utility.yul\":6108:6123   */\n      mstore\n        /* \"#utility.yul\":6142:6146   */\n      0x24\n        /* \"#utility.yul\":6139:6140   */\n      0x00\n        /* \"#utility.yul\":6132:6147   */\n      revert\n        /* \"#utility.yul\":6159:6479   */\n    tag_27:\n        /* \"#utility.yul\":6203:6209   */\n      0x00\n        /* \"#utility.yul\":6240:6241   */\n      0x02\n        /* \"#utility.yul\":6234:6238   */\n      dup3\n        /* \"#utility.yul\":6230:6242   */\n      div\n        /* \"#utility.yul\":6220:6242   */\n      swap1\n      pop\n        /* \"#utility.yul\":6287:6288   */\n      0x01\n        /* \"#utility.yul\":6281:6285   */\n      dup3\n        /* \"#utility.yul\":6277:6289   */\n      and\n        /* \"#utility.yul\":6308:6326   */\n      dup1\n        /* \"#utility.yul\":6298:6379   */\n      tag_146\n      jumpi\n        /* \"#utility.yul\":6364:6368   */\n      0x7f\n        /* \"#utility.yul\":6356:6362   */\n      dup3\n        /* \"#utility.yul\":6352:6369   */\n      and\n        /* \"#utility.yul\":6342:6369   */\n      swap2\n      pop\n        /* \"#utility.yul\":6298:6379   */\n    tag_146:\n        /* \"#utility.yul\":6426:6428   */\n      0x20\n        /* \"#utility.yul\":6418:6424   */\n      dup3\n        /* \"#utility.yul\":6415:6429   */\n      lt\n        /* \"#utility.yul\":6395:6413   */\n      dup2\n        /* \"#utility.yul\":6392:6430   */\n      sub\n        /* \"#utility.yul\":6389:6473   */\n      tag_147\n      jumpi\n        /* \"#utility.yul\":6445:6463   */\n      tag_148\n      tag_62\n      jump\t// in\n    tag_148:\n        /* \"#utility.yul\":6389:6473   */\n    tag_147:\n        /* \"#utility.yul\":6210:6479   */\n      pop\n        /* \"#utility.yul\":6159:6479   */\n      swap2\n      swap1\n      pop\n      jump\t// out\n        /* \"#utility.yul\":6485:6626   */\n    tag_63:\n        /* \"#utility.yul\":6534:6538   */\n      0x00\n        /* \"#utility.yul\":6557:6560   */\n      dup2\n        /* \"#utility.yul\":6549:6560   */\n      swap1\n      pop\n        /* \"#utility.yul\":6580:6583   */\n      dup2\n        /* \"#utility.yul\":6577:6578   */\n      0x00\n        /* \"#utility.yul\":6570:6584   */\n      mstore\n        /* \"#utility.yul\":6614:6618   */\n      0x20\n        /* \"#utility.yul\":6611:6612   */\n      0x00\n        /* \"#utility.yul\":6601:6619   */\n      keccak256\n        /* \"#utility.yul\":6593:6619   */\n      swap1\n      pop\n        /* \"#utility.yul\":6485:6626   */\n      swap2\n      swap1\n      pop\n      jump\t// out\n        /* \"#utility.yul\":6632:6725   */\n    tag_64:\n        /* \"#utility.yul\":6669:6675   */\n      0x00\n        /* \"#utility.yul\":6716:6718   */\n      0x20\n        /* \"#utility.yul\":6711:6713   */\n      0x1f\n        /* \"#utility.yul\":6704:6709   */\n      dup4\n        /* \"#utility.yul\":6700:6714   */\n      add\n        /* \"#utility.yul\":6696:6719   */\n      div\n        /* \"#utility.yul\":6686:6719   */\n      swap1\n      pop\n        /* \"#utility.yul\":6632:6725   */\n      swap2\n      swap1\n      pop\n      jump\t// out\n        /* \"#utility.yul\":6731:6838   */\n    tag_65:\n        /* \"#utility.yul\":6775:6783   */\n      0x00\n        /* \"#utility.yul\":6825:6830   */\n      dup3\n        /* \"#utility.yul\":6819:6823   */\n      dup3\n        /* \"#utility.yul\":6815:6831   */\n      shl\n        /* \"#utility.yul\":6794:6831   */\n      swap1\n      pop\n        /* \"#utility.yul\":6731:6838   */\n      swap3\n      swap2\n      pop\n      pop\n      jump\t// out\n        /* \"#utility.yul\":6844:7237   */\n    tag_66:\n        /* \"#utility.yul\":6913:6919   */\n      0x00\n        /* \"#utility.yul\":6963:6964   */\n      0x08\n        /* \"#utility.yul\":6951:6961   */\n      dup4\n        /* \"#utility.yul\":6947:6965   */\n      mul\n        /* \"#utility.yul\":6986:7083   */\n      tag_153\n        /* \"#utility.yul\":7016:7082   */\n      0xffffffffffffffffffffffffffffffffffffffffffffffffffffffffffffffff\n        /* \"#utility.yul\":7005:7014   */\n      dup3\n        /* \"#utility.yul\":6986:7083   */\n      tag_65\n      jump\t// in\n    tag_153:\n        /* \"#utility.yul\":7104:7143   */\n      tag_154\n        /* \"#utility.yul\":7134:7142   */\n      dup7\n        /* \"#utility.yul\":7123:7132   */\n      dup4\n        /* \"#utility.yul\":7104:7143   */\n      tag_65\n      jump\t// in\n    tag_154:\n        /* \"#utility.yul\":7092:7143   */\n      swap6\n      pop\n        /* \"#utility.yul\":7176:7180   */\n      dup1\n        /* \"#utility.yul\":7172:7181   */\n      not\n        /* \"#utility.yul\":7165:7170   */\n      dup5\n        /* \"#utility.yul\":7161:7182   */\n      and\n        /* \"#utility.yul\":7152:7182   */\n      swap4\n      pop\n        /* \"#utility.yul\":7225:7229   */\n      dup1\n        /* \"#utility.yul\":7215:7223   */\n      dup7\n        /* \"#utility.yul\":7211:7230   */\n      and\n        /* \"#utility.yul\":7204:7209   */\n      dup5\n        /* \"#utility.yul\":7201:7231   */\n      or\n        /* \"#utility.yul\":7191:7231   */\n      swap3\n      pop\n        /* \"#utility.yul\":6920:7237   */\n      pop\n      pop\n        /* \"#utility.yul\":6844:7237   */\n      swap4\n      swap3\n      pop\n      pop\n      pop\n      jump\t// out\n        /* \"#utility.yul\":7243:7320   */\n    tag_67:\n        /* \"#utility.yul\":7280:7287   */\n      0x00\n        /* \"#utility.yul\":7309:7314   */\n      dup2\n        /* \"#utility.yul\":7298:7314   */\n      swap1\n      pop\n        /* \"#utility.yul\":7243:7320   */\n      swap2\n      swap1\n      pop\n      jump\t// out\n        /* \"#utility.yul\":7326:7386   */\n    tag_68:\n        /* \"#utility.yul\":7354:7357   */\n      0x00\n        /* \"#utility.yul\":7375:7380   */\n      dup2\n        /* \"#utility.yul\":7368:7380   */\n      swap1\n      pop\n        /* \"#utility.yul\":7326:7386   */\n      swap2\n      swap1\n      pop\n      jump\t// out\n        /* \"#utility.yul\":7392:7534   */\n    tag_69:\n        /* \"#utility.yul\":7442:7451   */\n      0x00\n        /* \"#utility.yul\":7475:7528   */\n      tag_158\n        /* \"#utility.yul\":7493:7527   */\n      tag_159\n        /* \"#utility.yul\":7502:7526   */\n      tag_160\n        /* \"#utility.yul\":7520:7525   */\n      dup5\n        /* \"#utility.yul\":7502:7526   */\n      tag_67\n      jump\t// in\n    tag_160:\n        /* \"#utility.yul\":7493:7527   */\n      tag_68\n      jump\t// in\n    tag_159:\n        /* \"#utility.yul\":7475:7528   */\n      tag_67\n      jump\t// in\n    tag_158:\n        /* \"#utility.yul\":7462:7528   */\n      swap1\n      pop\n        /* \"#utility.yul\":7392:7534   */\n      swap2\n      swap1\n      pop\n      jump\t// out\n        /* \"#utility.yul\":7540:7615   */\n    tag_70:\n        /* \"#utility.yul\":7583:7586   */\n      0x00\n        /* \"#utility.yul\":7604:7609   */\n      dup2\n        /* \"#utility.yul\":7597:7609   */\n      swap1\n      pop\n        /* \"#utility.yul\":7540:7615   */\n      swap2\n      swap1\n      pop\n      jump\t// out\n        /* \"#utility.yul\":7621:7890   */\n    tag_71:\n        /* \"#utility.yul\":7731:7770   */\n      tag_163\n        /* \"#utility.yul\":7762:7769   */\n      dup4\n        /* \"#utility.yul\":7731:7770   */\n      tag_69\n      jump\t// in\n    tag_163:\n        /* \"#utility.yul\":7792:7883   */\n      tag_164\n        /* \"#utility.yul\":7841:7882   */\n      tag_165\n        /* \"#utility.yul\":7865:7881   */\n      dup3\n        /* \"#utility.yul\":7841:7882   */\n      tag_70\n      jump\t// in\n    tag_165:\n        /* \"#utility.yul\":7833:7839   */\n      dup5\n        /* \"#utility.yul\":7826:7830   */\n      dup5\n        /* \"#utility.yul\":7820:7831   */\n      sload\n        /* \"#utility.yul\":7792:7883   */\n      tag_66\n      jump\t// in\n    tag_164:\n        /* \"#utility.yul\":7786:7790   */\n      dup3\n        /* \"#utility.yul\":7779:7884   */\n      sstore\n        /* \"#utility.yul\":7697:7890   */\n      pop\n        /* \"#utility.yul\":7621:7890   */\n      pop\n      pop\n      pop\n      jump\t// out\n        /* \"#utility.yul\":7896:7969   */\n    tag_72:\n        /* \"#utility.yul\":7941:7944   */\n      0x00\n        /* \"#utility.yul\":7896:7969   */\n      swap1\n      jump\t// out\n        /* \"#utility.yul\":7975:8164   */\n    tag_73:\n        /* \"#utility.yul\":8052:8084   */\n      tag_168\n      tag_72\n      jump\t// in\n    tag_168:\n        /* \"#utility.yul\":8093:8158   */\n      tag_169\n        /* \"#utility.yul\":8151:8157   */\n      dup2\n        /* \"#utility.yul\":8143:8149   */\n      dup5\n        /* \"#utility.yul\":8137:8141   */\n      dup5\n        /* \"#utility.yul\":8093:8158   */\n      tag_71\n      jump\t// in\n    tag_169:\n        /* \"#utility.yul\":8028:8164   */\n      pop\n        /* \"#utility.yul\":7975:8164   */\n      pop\n      pop\n      jump\t// out\n        /* \"#utility.yul\":8170:8356   */\n    tag_74:\n        /* \"#utility.yul\":8230:8350   */\n    tag_171:\n        /* \"#utility.yul\":8247:8250   */\n      dup2\n        /* \"#utility.yul\":8240:8245   */\n      dup2\n        /* \"#utility.yul\":8237:8251   */\n      lt\n        /* \"#utility.yul\":8230:8350   */\n      iszero\n      tag_173\n      jumpi\n        /* \"#utility.yul\":8301:8340   */\n      tag_174\n        /* \"#utility.yul\":8338:8339   */\n      0x00\n        /* \"#utility.yul\":8331:8336   */\n      dup3\n        /* \"#utility.yul\":8301:8340   */\n      tag_73\n      jump\t// in\n    tag_174:\n        /* \"#utility.yul\":8274:8275   */\n      0x01\n        /* \"#utility.yul\":8267:8272   */\n      dup2\n        /* \"#utility.yul\":8263:8276   */\n      add\n        /* \"#utility.yul\":8254:8276   */\n      swap1\n      pop\n        /* \"#utility.yul\":8230:8350   */\n      jump(tag_171)\n    tag_173:\n        /* \"#utility.yul\":8170:8356   */\n      pop\n      pop\n      jump\t// out\n        /* \"#utility.yul\":8362:8905   */\n    tag_75:\n        /* \"#utility.yul\":8463:8465   */\n      0x1f\n        /* \"#utility.yul\":8458:8461   */\n      dup3\n        /* \"#utility.yul\":8455:8466   */\n      gt\n        /* \"#utility.yul\":8452:8898   */\n      iszero\n      tag_176\n      jumpi\n        /* \"#utility.yul\":8497:8535   */\n      tag_177\n        /* \"#utility.yul\":8529:8534   */\n      dup2\n        /* \"#utility.yul\":8497:8535   */\n      tag_63\n      jump\t// in\n    tag_177:\n        /* \"#utility.yul\":8581:8610   */\n      tag_178\n        /* \"#utility.yul\":8599:8609   */\n      dup5\n        /* \"#utility.yul\":8581:8610   */\n      tag_64\n      jump\t// in\n    tag_178:\n        /* \"#utility.yul\":8571:8579   */\n      dup2\n        /* \"#utility.yul\":8567:8611   */\n      add\n        /* \"#utility.yul\":8764:8766   */\n      0x20\n        /* \"#utility.yul\":8752:8762   */\n      dup6\n        /* \"#utility.yul\":8749:8767   */\n      lt\n        /* \"#utility.yul\":8746:8795   */\n      iszero\n      tag_179\n      jumpi\n        /* \"#utility.yul\":8785:8793   */\n      dup2\n        /* \"#utility.yul\":8770:8793   */\n      swap1\n      pop\n        /* \"#utility.yul\":8746:8795   */\n    tag_179:\n        /* \"#utility.yul\":8808:8888   */\n      tag_180\n        /* \"#utility.yul\":8864:8886   */\n      tag_181\n        /* \"#utility.yul\":8882:8885   */\n      dup6\n        /* \"#utility.yul\":8864:8886   */\n      tag_64\n      jump\t// in\n    tag_181:\n        /* \"#utility.yul\":8854:8862   */\n      dup4\n        /* \"#utility.yul\":8850:8887   */\n      add\n        /* \"#utility.yul\":8837:8848   */\n      dup3\n        /* \"#utility.yul\":8808:8888   */\n      tag_74\n      jump\t// in\n    tag_180:\n        /* \"#utility.yul\":8467:8898   */\n      pop\n      pop\n        /* \"#utility.yul\":8452:8898   */\n    tag_176:\n        /* \"#utility.yul\":8362:8905   */\n      pop\n      pop\n      pop\n      jump\t// out\n        /* \"#utility.yul\":8911:9028   */\n    tag_76:\n        /* \"#utility.yul\":8965:8973   */\n      0x00\n        /* \"#utility.yul\":9015:9020   */\n      dup3\n        /* \"#utility.yul\":9009:9013   */\n      dup3\n        /* \"#utility.yul\":9005:9021   */\n      shr\n        /* \"#utility.yul\":8984:9021   */\n      swap1\n      pop\n        /* \"#utility.yul\":8911:9028   */\n      swap3\n      swap2\n      pop\n      pop\n      jump\t// out\n        /* \"#utility.yul\":9034:9203   */\n    tag_77:\n        /* \"#utility.yul\":9078:9084   */\n      0x00\n        /* \"#utility.yul\":9111:9162   */\n      tag_184\n        /* \"#utility.yul\":9159:9160   */\n      0x00\n        /* \"#utility.yul\":9155:9161   */\n      not\n        /* \"#utility.yul\":9147:9152   */\n      dup5\n        /* \"#utility.yul\":9144:9145   */\n      0x08\n        /* \"#utility.yul\":9140:9153   */\n      mul\n        /* \"#utility.yul\":9111:9162   */\n      tag_76\n      jump\t// in\n    tag_184:\n        /* \"#utility.yul\":9107:9163   */\n      not\n        /* \"#utility.yul\":9192:9196   */\n      dup1\n        /* \"#utility.yul\":9186:9190   */\n      dup4\n        /* \"#utility.yul\":9182:9197   */\n      and\n        /* \"#utility.yul\":9172:9197   */\n      swap2\n      pop\n        /* \"#utility.yul\":9085:9203   */\n      pop\n        /* \"#utility.yul\":9034:9203   */\n      swap3\n      swap2\n      pop\n      pop\n      jump\t// out\n        /* \"#utility.yul\":9208:9503   */\n    tag_78:\n        /* \"#utility.yul\":9284:9288   */\n      0x00\n        /* \"#utility.yul\":9430:9459   */\n      tag_186\n        /* \"#utility.yul\":9455:9458   */\n      dup4\n        /* \"#utility.yul\":9449:9453   */\n      dup4\n        /* \"#utility.yul\":9430:9459   */\n      tag_77\n      jump\t// in\n    tag_186:\n        /* \"#utility.yul\":9422:9459   */\n      swap2\n      pop\n        /* \"#utility.yul\":9492:9495   */\n      dup3\n        /* \"#utility.yul\":9489:9490   */\n      0x02\n        /* \"#utility.yul\":9485:9496   */\n      mul\n        /* \"#utility.yul\":9479:9483   */\n      dup3\n        /* \"#utility.yul\":9476:9497   */\n      or\n        /* \"#utility.yul\":9468:9497   */\n      swap1\n      pop\n        /* \"#utility.yul\":9208:9503   */\n      swap3\n      swap2\n      pop\n      pop\n      jump\t// out\n        /* \"#utility.yul\":9508:10903   */\n    tag_35:\n        /* \"#utility.yul\":9625:9662   */\n      tag_188\n        /* \"#utility.yul\":9658:9661   */\n      dup3\n        /* \"#utility.yul\":9625:9662   */\n      tag_56\n      jump\t// in\n    tag_188:\n        /* \"#utility.yul\":9727:9745   */\n      0xffffffffffffffff\n        /* \"#utility.yul\":9719:9725   */\n      dup2\n        /* \"#utility.yul\":9716:9746   */\n      gt\n        /* \"#utility.yul\":9713:9769   */\n      iszero\n      tag_189\n      jumpi\n        /* \"#utility.yul\":9749:9767   */\n      tag_190\n      tag_49\n      jump\t// in\n    tag_190:\n        /* \"#utility.yul\":9713:9769   */\n    tag_189:\n        /* \"#utility.yul\":9793:9831   */\n      tag_191\n        /* \"#utility.yul\":9825:9829   */\n      dup3\n        /* \"#utility.yul\":9819:9830   */\n      sload\n        /* \"#utility.yul\":9793:9831   */\n      tag_27\n      jump\t// in\n    tag_191:\n        /* \"#utility.yul\":9878:9945   */\n      tag_192\n        /* \"#utility.yul\":9938:9944   */\n      dup3\n        /* \"#utility.yul\":9930:9936   */\n      dup3\n        /* \"#utility.yul\":9924:9928   */\n      dup6\n        /* \"#utility.yul\":9878:9945   */\n      tag_75\n      jump\t// in\n    tag_192:\n        /* \"#utility.yul\":9972:9973   */\n      0x00\n        /* \"#utility.yul\":9996:10000   */\n      0x20\n        /* \"#utility.yul\":9983:10000   */\n      swap1\n      pop\n        /* \"#utility.yul\":10028:10030   */\n      0x1f\n        /* \"#utility.yul\":10020:10026   */\n      dup4\n        /* \"#utility.yul\":10017:10031   */\n      gt\n        /* \"#utility.yul\":10045:10046   */\n      0x01\n        /* \"#utility.yul\":10040:10658   */\n      dup2\n      eq\n      tag_194\n      jumpi\n        /* \"#utility.yul\":10702:10703   */\n      0x00\n        /* \"#utility.yul\":10719:10725   */\n      dup5\n        /* \"#utility.yul\":10716:10793   */\n      iszero\n      tag_195\n      jumpi\n        /* \"#utility.yul\":10768:10777   */\n      dup3\n        /* \"#utility.yul\":10763:10766   */\n      dup8\n        /* \"#utility.yul\":10759:10778   */\n      add\n        /* \"#utility.yul\":10753:10779   */\n      mload\n        /* \"#utility.yul\":10744:10779   */\n      swap1\n      pop\n        /* \"#utility.yul\":10716:10793   */\n    tag_195:\n        /* \"#utility.yul\":10819:10886   */\n      tag_196\n        /* \"#utility.yul\":10879:10885   */\n      dup6\n        /* \"#utility.yul\":10872:10877   */\n      dup3\n        /* \"#utility.yul\":10819:10886   */\n      tag_78\n      jump\t// in\n    tag_196:\n        /* \"#utility.yul\":10813:10817   */\n      dup7\n        /* \"#utility.yul\":10806:10887   */\n      sstore\n        /* \"#utility.yul\":10675:10897   */\n      pop\n        /* \"#utility.yul\":10010:10897   */\n      jump(tag_193)\n        /* \"#utility.yul\":10040:10658   */\n    tag_194:\n        /* \"#utility.yul\":10092:10096   */\n      0x1f\n        /* \"#utility.yul\":10088:10097   */\n      not\n        /* \"#utility.yul\":10080:10086   */\n      dup5\n        /* \"#utility.yul\":10076:10098   */\n      and\n        /* \"#utility.yul\":10126:10163   */\n      tag_197\n        /* \"#utility.yul\":10158:10162   */\n      dup7\n        /* \"#utility.yul\":10126:10163   */\n      tag_63\n      jump\t// in\n    tag_197:\n        /* \"#utility.yul\":10185:10186   */\n      0x00\n        /* \"#utility.yul\":10199:10407   */\n    tag_198:\n        /* \"#utility.yul\":10213:10220   */\n      dup3\n        /* \"#utility.yul\":10210:10211   */\n      dup2\n        /* \"#utility.yul\":10207:10221   */\n      lt\n        /* \"#utility.yul\":10199:10407   */\n      iszero\n      tag_200\n      jumpi\n        /* \"#utility.yul\":10292:10301   */\n      dup5\n        /* \"#utility.yul\":10287:10290   */\n      dup10\n        /* \"#utility.yul\":10283:10302   */\n      add\n        /* \"#utility.yul\":10277:10303   */\n      mload\n        /* \"#utility.yul\":10269:10275   */\n      dup3\n        /* \"#utility.yul\":10262:10304   */\n      sstore\n        /* \"#utility.yul\":10343:10344   */\n      0x01\n        /* \"#utility.yul\":10335:10341   */\n      dup3\n        /* \"#utility.yul\":10331:10345   */\n      add\n        /* \"#utility.yul\":10321:10345   */\n      swap2\n      pop\n        /* \"#utility.yul\":10390:10392   */\n      0x20\n        /* \"#utility.yul\":10379:10388   */\n      dup6\n        /* \"#utility.yul\":10375:10393   */\n      add\n        /* \"#utility.yul\":10362:10393   */\n      swap5\n      pop\n        /* \"#utility.yul\":10236:10240   */\n      0x20\n        /* \"#utility.yul\":10233:10234   */\n      dup2\n        /* \"#utility.yul\":10229:10241   */\n      add\n        /* \"#utility.yul\":10224:10241   */\n      swap1\n      pop\n        /* \"#utility.yul\":10199:10407   */\n      jump(tag_198)\n    tag_200:\n        /* \"#utility.yul\":10435:10441   */\n      dup7\n        /* \"#utility.yul\":10426:10433   */\n      dup4\n        /* \"#utility.yul\":10423:10442   */\n      lt\n        /* \"#utility.yul\":10420:10599   */\n      iszero\n      tag_201\n      jumpi\n        /* \"#utility.yul\":10493:10502   */\n      dup5\n        /* \"#utility.yul\":10488:10491   */\n      dup10\n        /* \"#utility.yul\":10484:10503   */\n      add\n        /* \"#utility.yul\":10478:10504   */\n      mload\n        /* \"#utility.yul\":10536:10584   */\n      tag_202\n        /* \"#utility.yul\":10578:10582   */\n      0x1f\n        /* \"#utility.yul\":10570:10576   */\n      dup10\n        /* \"#utility.yul\":10566:10583   */\n      and\n        /* \"#utility.yul\":10555:10564   */\n      dup3\n        /* \"#utility.yul\":10536:10584   */\n      tag_77\n      jump\t// in\n    tag_202:\n        /* \"#utility.yul\":10528:10534   */\n      dup4\n        /* \"#utility.yul\":10521:10585   */\n      sstore\n        /* \"#utility.yul\":10443:10599   */\n      pop\n        /* \"#utility.yul\":10420:10599   */\n    tag_201:\n        /* \"#utility.yul\":10645:10646   */\n      0x01\n        /* \"#utility.yul\":10641:10642   */\n      0x02\n        /* \"#utility.yul\":10633:10639   */\n      dup9\n        /* \"#utility.yul\":10629:10643   */\n      mul\n        /* \"#utility.yul\":10625:10647   */\n      add\n        /* \"#utility.yul\":10619:10623   */\n      dup9\n        /* \"#utility.yul\":10612:10648   */\n      sstore\n        /* \"#utility.yul\":10047:10658   */\n      pop\n      pop\n      pop\n        /* \"#utility.yul\":10010:10897   */\n    tag_193:\n      pop\n        /* \"#utility.yul\":9600:10903   */\n      pop\n      pop\n      pop\n        /* \"#utility.yul\":9508:10903   */\n      pop\n      pop\n      jump\t// out\n\n    auxdata: 0xa26469706673582212204649d284e27842810d19f623eee308914e0daee0b8b2d82a874aa837c30a3d1664736f6c63430008120033\n}\n",
				"bytecode": {
					"linkReferences": {},
					"object": "608060405234801561001057600080fd5b50610845806100206000396000f3fe608060405234801561001057600080fd5b50600436106100415760003560e01c80636e6b573314610046578063efa902f014610062578063f5ae416714610092575b600080fd5b610060600480360381019061005b9190610372565b6100ae565b005b61007c60048036038101906100779190610372565b6100db565b604051610089919061043a565b60405180910390f35b6100ac60048036038101906100a7919061045c565b61018b565b005b6000816040516100be9190610510565b908152602001604051809103902060006100d891906101bb565b50565b60606000826040516100ed9190610510565b9081526020016040518091039020805461010690610556565b80601f016020809104026020016040519081016040528092919081815260200182805461013290610556565b801561017f5780601f106101545761010080835404028352916020019161017f565b820191906000526020600020905b81548152906001019060200180831161016257829003601f168201915b50505050509050919050565b8060008360405161019c9190610510565b908152602001604051809103902090816101b6919061073d565b505050565b5080546101c790610556565b6000825580601f106101d957506101f8565b601f0160209004906000526020600020908101906101f791906101fb565b5b50565b5b808211156102145760008160009055506001016101fc565b5090565b6000604051905090565b600080fd5b600080fd5b600080fd5b600080fd5b6000601f19601f8301169050919050565b7f4e487b7100000000000000000000000000000000000000000000000000000000600052604160045260246000fd5b61027f82610236565b810181811067ffffffffffffffff8211171561029e5761029d610247565b5b80604052505050565b60006102b1610218565b90506102bd8282610276565b919050565b600067ffffffffffffffff8211156102dd576102dc610247565b5b6102e682610236565b9050602081019050919050565b82818337600083830152505050565b6000610315610310846102c2565b6102a7565b90508281526020810184848401111561033157610330610231565b5b61033c8482856102f3565b509392505050565b600082601f8301126103595761035861022c565b5b8135610369848260208601610302565b91505092915050565b60006020828403121561038857610387610222565b5b600082013567ffffffffffffffff8111156103a6576103a5610227565b5b6103b284828501610344565b91505092915050565b600081519050919050565b600082825260208201905092915050565b60005b838110156103f55780820151818401526020810190506103da565b60008484015250505050565b600061040c826103bb565b61041681856103c6565b93506104268185602086016103d7565b61042f81610236565b840191505092915050565b600060208201905081810360008301526104548184610401565b905092915050565b6000806040838503121561047357610472610222565b5b600083013567ffffffffffffffff81111561049157610490610227565b5b61049d85828601610344565b925050602083013567ffffffffffffffff8111156104be576104bd610227565b5b6104ca85828601610344565b9150509250929050565b600081905092915050565b60006104ea826103bb565b6104f481856104d4565b93506105048185602086016103d7565b80840191505092915050565b600061051c82846104df565b915081905092915050565b7f4e487b7100000000000000000000000000000000000000000000000000000000600052602260045260246000fd5b6000600282049050600182168061056e57607f821691505b60208210810361058157610580610527565b5b50919050565b60008190508160005260206000209050919050565b60006020601f8301049050919050565b600082821b905092915050565b6000600883026105e97fffffffffffffffffffffffffffffffffffffffffffffffffffffffffffffffff826105ac565b6105f386836105ac565b95508019841693508086168417925050509392505050565b6000819050919050565b6000819050919050565b600061063a6106356106308461060b565b610615565b61060b565b9050919050565b6000819050919050565b6106548361061f565b61066861066082610641565b8484546105b9565b825550505050565b600090565b61067d610670565b61068881848461064b565b505050565b5b818110156106ac576106a1600082610675565b60018101905061068e565b5050565b601f8211156106f1576106c281610587565b6106cb8461059c565b810160208510156106da578190505b6106ee6106e68561059c565b83018261068d565b50505b505050565b600082821c905092915050565b6000610714600019846008026106f6565b1980831691505092915050565b600061072d8383610703565b9150826002028217905092915050565b610746826103bb565b67ffffffffffffffff81111561075f5761075e610247565b5b6107698254610556565b6107748282856106b0565b600060209050601f8311600181146107a75760008415610795578287015190505b61079f8582610721565b865550610807565b601f1984166107b586610587565b60005b828110156107dd578489015182556001820191506020850194506020810190506107b8565b868310156107fa57848901516107f6601f891682610703565b8355505b6001600288020188555050505b50505050505056fea26469706673582212204649d284e27842810d19f623eee308914e0daee0b8b2d82a874aa837c30a3d1664736f6c63430008120033",
					"opcodes": "PUSH1 0x80 PUSH1 0x40 MSTORE CALLVALUE DUP1 ISZERO PUSH2 0x10 JUMPI PUSH1 0x0 DUP1 REVERT JUMPDEST POP PUSH2 0x845 DUP1 PUSH2 0x20 PUSH1 0x0 CODECOPY PUSH1 0x0 RETURN INVALID PUSH1 0x80 PUSH1 0x40 MSTORE CALLVALUE DUP1 ISZERO PUSH2 0x10 JUMPI PUSH1 0x0 DUP1 REVERT JUMPDEST POP PUSH1 0x4 CALLDATASIZE LT PUSH2 0x41 JUMPI PUSH1 0x0 CALLDATALOAD PUSH1 0xE0 SHR DUP1 PUSH4 0x6E6B5733 EQ PUSH2 0x46 JUMPI DUP1 PUSH4 0xEFA902F0 EQ PUSH2 0x62 JUMPI DUP1 PUSH4 0xF5AE4167 EQ PUSH2 0x92 JUMPI JUMPDEST PUSH1 0x0 DUP1 REVERT JUMPDEST PUSH2 0x60 PUSH1 0x4 DUP1 CALLDATASIZE SUB DUP2 ADD SWAP1 PUSH2 0x5B SWAP2 SWAP1 PUSH2 0x372 JUMP JUMPDEST PUSH2 0xAE JUMP JUMPDEST STOP JUMPDEST PUSH2 0x7C PUSH1 0x4 DUP1 CALLDATASIZE SUB DUP2 ADD SWAP1 PUSH2 0x77 SWAP2 SWAP1 PUSH2 0x372 JUMP JUMPDEST PUSH2 0xDB JUMP JUMPDEST PUSH1 0x40 MLOAD PUSH2 0x89 SWAP2 SWAP1 PUSH2 0x43A JUMP JUMPDEST PUSH1 0x40 MLOAD DUP1 SWAP2 SUB SWAP1 RETURN JUMPDEST PUSH2 0xAC PUSH1 0x4 DUP1 CALLDATASIZE SUB DUP2 ADD SWAP1 PUSH2 0xA7 SWAP2 SWAP1 PUSH2 0x45C JUMP JUMPDEST PUSH2 0x18B JUMP JUMPDEST STOP JUMPDEST PUSH1 0x0 DUP2 PUSH1 0x40 MLOAD PUSH2 0xBE SWAP2 SWAP1 PUSH2 0x510 JUMP JUMPDEST SWAP1 DUP2 MSTORE PUSH1 0x20 ADD PUSH1 0x40 MLOAD DUP1 SWAP2 SUB SWAP1 KECCAK256 PUSH1 0x0 PUSH2 0xD8 SWAP2 SWAP1 PUSH2 0x1BB JUMP JUMPDEST POP JUMP JUMPDEST PUSH1 0x60 PUSH1 0x0 DUP3 PUSH1 0x40 MLOAD PUSH2 0xED SWAP2 SWAP1 PUSH2 0x510 JUMP JUMPDEST SWAP1 DUP2 MSTORE PUSH1 0x20 ADD PUSH1 0x40 MLOAD DUP1 SWAP2 SUB SWAP1 KECCAK256 DUP1 SLOAD PUSH2 0x106 SWAP1 PUSH2 0x556 JUMP JUMPDEST DUP1 PUSH1 0x1F ADD PUSH1 0x20 DUP1 SWAP2 DIV MUL PUSH1 0x20 ADD PUSH1 0x40 MLOAD SWAP1 DUP2 ADD PUSH1 0x40 MSTORE DUP1 SWAP3 SWAP2 SWAP1 DUP2 DUP2 MSTORE PUSH1 0x20 ADD DUP3 DUP1 SLOAD PUSH2 0x132 SWAP1 PUSH2 0x556 JUMP JUMPDEST DUP1 ISZERO PUSH2 0x17F JUMPI DUP1 PUSH1 0x1F LT PUSH2 0x154 JUMPI PUSH2 0x100 DUP1 DUP4 SLOAD DIV MUL DUP4 MSTORE SWAP2 PUSH1 0x20 ADD SWAP2 PUSH2 0x17F JUMP JUMPDEST DUP3 ADD SWAP2 SWAP1 PUSH1 0x0 MSTORE PUSH1 0x20 PUSH1 0x0 KECCAK256 SWAP1 JUMPDEST DUP2 SLOAD DUP2 MSTORE SWAP1 PUSH1 0x1 ADD SWAP1 PUSH1 0x20 ADD DUP1 DUP4 GT PUSH2 0x162 JUMPI DUP3 SWAP1 SUB PUSH1 0x1F AND DUP3 ADD SWAP2 JUMPDEST POP POP POP POP POP SWAP1 POP SWAP2 SWAP1 POP JUMP JUMPDEST DUP1 PUSH1 0x0 DUP4 PUSH1 0x40 MLOAD PUSH2 0x19C SWAP2 SWAP1 PUSH2 0x510 JUMP JUMPDEST SWAP1 DUP2 MSTORE PUSH1 0x20 ADD PUSH1 0x40 MLOAD DUP1 SWAP2 SUB SWAP1 KECCAK256 SWAP1 DUP2 PUSH2 0x1B6 SWAP2 SWAP1 PUSH2 0x73D JUMP JUMPDEST POP POP POP JUMP JUMPDEST POP DUP1 SLOAD PUSH2 0x1C7 SWAP1 PUSH2 0x556 JUMP JUMPDEST PUSH1 0x0 DUP3 SSTORE DUP1 PUSH1 0x1F LT PUSH2 0x1D9 JUMPI POP PUSH2 0x1F8 JUMP JUMPDEST PUSH1 0x1F ADD PUSH1 0x20 SWAP1 DIV SWAP1 PUSH1 0x0 MSTORE PUSH1 0x20 PUSH1 0x0 KECCAK256 SWAP1 DUP2 ADD SWAP1 PUSH2 0x1F7 SWAP2 SWAP1 PUSH2 0x1FB JUMP JUMPDEST JUMPDEST POP JUMP JUMPDEST JUMPDEST DUP1 DUP3 GT ISZERO PUSH2 0x214 JUMPI PUSH1 0x0 DUP2 PUSH1 0x0 SWAP1 SSTORE POP PUSH1 0x1 ADD PUSH2 0x1FC JUMP JUMPDEST POP SWAP1 JUMP JUMPDEST PUSH1 0x0 PUSH1 0x40 MLOAD SWAP1 POP SWAP1 JUMP JUMPDEST PUSH1 0x0 DUP1 REVERT JUMPDEST PUSH1 0x0 DUP1 REVERT JUMPDEST PUSH1 0x0 DUP1 REVERT JUMPDEST PUSH1 0x0 DUP1 REVERT JUMPDEST PUSH1 0x0 PUSH1 0x1F NOT PUSH1 0x1F DUP4 ADD AND SWAP1 POP SWAP2 SWAP1 POP JUMP JUMPDEST PUSH32 0x4E487B7100000000000000000000000000000000000000000000000000000000 PUSH1 0x0 MSTORE PUSH1 0x41 PUSH1 0x4 MSTORE PUSH1 0x24 PUSH1 0x0 REVERT JUMPDEST PUSH2 0x27F DUP3 PUSH2 0x236 JUMP JUMPDEST DUP2 ADD DUP2 DUP2 LT PUSH8 0xFFFFFFFFFFFFFFFF DUP3 GT OR ISZERO PUSH2 0x29E JUMPI PUSH2 0x29D PUSH2 0x247 JUMP JUMPDEST JUMPDEST DUP1 PUSH1 0x40 MSTORE POP POP POP JUMP JUMPDEST PUSH1 0x0 PUSH2 0x2B1 PUSH2 0x218 JUMP JUMPDEST SWAP1 POP PUSH2 0x2BD DUP3 DUP3 PUSH2 0x276 JUMP JUMPDEST SWAP2 SWAP1 POP JUMP JUMPDEST PUSH1 0x0 PUSH8 0xFFFFFFFFFFFFFFFF DUP3 GT ISZERO PUSH2 0x2DD JUMPI PUSH2 0x2DC PUSH2 0x247 JUMP JUMPDEST JUMPDEST PUSH2 0x2E6 DUP3 PUSH2 0x236 JUMP JUMPDEST SWAP1 POP PUSH1 0x20 DUP2 ADD SWAP1 POP SWAP2 SWAP1 POP JUMP JUMPDEST DUP3 DUP2 DUP4 CALLDATACOPY PUSH1 0x0 DUP4 DUP4 ADD MSTORE POP POP POP JUMP JUMPDEST PUSH1 0x0 PUSH2 0x315 PUSH2 0x310 DUP5 PUSH2 0x2C2 JUMP JUMPDEST PUSH2 0x2A7 JUMP JUMPDEST SWAP1 POP DUP3 DUP2 MSTORE PUSH1 0x20 DUP2 ADD DUP5 DUP5 DUP5 ADD GT ISZERO PUSH2 0x331 JUMPI PUSH2 0x330 PUSH2 0x231 JUMP JUMPDEST JUMPDEST PUSH2 0x33C DUP5 DUP3 DUP6 PUSH2 0x2F3 JUMP JUMPDEST POP SWAP4 SWAP3 POP POP POP JUMP JUMPDEST PUSH1 0x0 DUP3 PUSH1 0x1F DUP4 ADD SLT PUSH2 0x359 JUMPI PUSH2 0x358 PUSH2 0x22C JUMP JUMPDEST JUMPDEST DUP2 CALLDATALOAD PUSH2 0x369 DUP5 DUP3 PUSH1 0x20 DUP7 ADD PUSH2 0x302 JUMP JUMPDEST SWAP2 POP POP SWAP3 SWAP2 POP POP JUMP JUMPDEST PUSH1 0x0 PUSH1 0x20 DUP3 DUP5 SUB SLT ISZERO PUSH2 0x388 JUMPI PUSH2 0x387 PUSH2 0x222 JUMP JUMPDEST JUMPDEST PUSH1 0x0 DUP3 ADD CALLDATALOAD PUSH8 0xFFFFFFFFFFFFFFFF DUP2 GT ISZERO PUSH2 0x3A6 JUMPI PUSH2 0x3A5 PUSH2 0x227 JUMP JUMPDEST JUMPDEST PUSH2 0x3B2 DUP5 DUP3 DUP6 ADD PUSH2 0x344 JUMP JUMPDEST SWAP2 POP POP SWAP3 SWAP2 POP POP JUMP JUMPDEST PUSH1 0x0 DUP2 MLOAD SWAP1 POP SWAP2 SWAP1 POP JUMP JUMPDEST PUSH1 0x0 DUP3 DUP3 MSTORE PUSH1 0x20 DUP3 ADD SWAP1 POP SWAP3 SWAP2 POP POP JUMP JUMPDEST PUSH1 0x0 JUMPDEST DUP4 DUP2 LT ISZERO PUSH2 0x3F5 JUMPI DUP1 DUP3 ADD MLOAD DUP2 DUP5 ADD MSTORE PUSH1 0x20 DUP2 ADD SWAP1 POP PUSH2 0x3DA JUMP JUMPDEST PUSH1 0x0 DUP5 DUP5 ADD MSTORE POP POP POP POP JUMP JUMPDEST PUSH1 0x0 PUSH2 0x40C DUP3 PUSH2 0x3BB JUMP JUMPDEST PUSH2 0x416 DUP2 DUP6 PUSH2 0x3C6 JUMP JUMPDEST SWAP4 POP PUSH2 0x426 DUP2 DUP6 PUSH1 0x20 DUP7 ADD PUSH2 0x3D7 JUMP JUMPDEST PUSH2 0x42F DUP2 PUSH2 0x236 JUMP JUMPDEST DUP5 ADD SWAP2 POP POP SWAP3 SWAP2 POP POP JUMP JUMPDEST PUSH1 0x0 PUSH1 0x20 DUP3 ADD SWAP1 POP DUP2 DUP2 SUB PUSH1 0x0 DUP4 ADD MSTORE PUSH2 0x454 DUP2 DUP5 PUSH2 0x401 JUMP JUMPDEST SWAP1 POP SWAP3 SWAP2 POP POP JUMP JUMPDEST PUSH1 0x0 DUP1 PUSH1 0x40 DUP4 DUP6 SUB SLT ISZERO PUSH2 0x473 JUMPI PUSH2 0x472 PUSH2 0x222 JUMP JUMPDEST JUMPDEST PUSH1 0x0 DUP4 ADD CALLDATALOAD PUSH8 0xFFFFFFFFFFFFFFFF DUP2 GT ISZERO PUSH2 0x491 JUMPI PUSH2 0x490 PUSH2 0x227 JUMP JUMPDEST JUMPDEST PUSH2 0x49D DUP6 DUP3 DUP7 ADD PUSH2 0x344 JUMP JUMPDEST SWAP3 POP POP PUSH1 0x20 DUP4 ADD CALLDATALOAD PUSH8 0xFFFFFFFFFFFFFFFF DUP2 GT ISZERO PUSH2 0x4BE JUMPI PUSH2 0x4BD PUSH2 0x227 JUMP JUMPDEST JUMPDEST PUSH2 0x4CA DUP6 DUP3 DUP7 ADD PUSH2 0x344 JUMP JUMPDEST SWAP2 POP POP SWAP3 POP SWAP3 SWAP1 POP JUMP JUMPDEST PUSH1 0x0 DUP2 SWAP1 POP SWAP3 SWAP2 POP POP JUMP JUMPDEST PUSH1 0x0 PUSH2 0x4EA DUP3 PUSH2 0x3BB JUMP JUMPDEST PUSH2 0x4F4 DUP2 DUP6 PUSH2 0x4D4 JUMP JUMPDEST SWAP4 POP PUSH2 0x504 DUP2 DUP6 PUSH1 0x20 DUP7 ADD PUSH2 0x3D7 JUMP JUMPDEST DUP1 DUP5 ADD SWAP2 POP POP SWAP3 SWAP2 POP POP JUMP JUMPDEST PUSH1 0x0 PUSH2 0x51C DUP3 DUP5 PUSH2 0x4DF JUMP JUMPDEST SWAP2 POP DUP2 SWAP1 POP SWAP3 SWAP2 POP POP JUMP JUMPDEST PUSH32 0x4E487B7100000000000000000000000000000000000000000000000000000000 PUSH1 0x0 MSTORE PUSH1 0x22 PUSH1 0x4 MSTORE PUSH1 0x24 PUSH1 0x0 REVERT JUMPDEST PUSH1 0x0 PUSH1 0x2 DUP3 DIV SWAP1 POP PUSH1 0x1 DUP3 AND DUP1 PUSH2 0x56E JUMPI PUSH1 0x7F DUP3 AND SWAP2 POP JUMPDEST PUSH1 0x20 DUP3 LT DUP2 SUB PUSH2 0x581 JUMPI PUSH2 0x580 PUSH2 0x527 JUMP JUMPDEST JUMPDEST POP SWAP2 SWAP1 POP JUMP JUMPDEST PUSH1 0x0 DUP2 SWAP1 POP DUP2 PUSH1 0x0 MSTORE PUSH1 0x20 PUSH1 0x0 KECCAK256 SWAP1 POP SWAP2 SWAP1 POP JUMP JUMPDEST PUSH1 0x0 PUSH1 0x20 PUSH1 0x1F DUP4 ADD DIV SWAP1 POP SWAP2 SWAP1 POP JUMP JUMPDEST PUSH1 0x0 DUP3 DUP3 SHL SWAP1 POP SWAP3 SWAP2 POP POP JUMP JUMPDEST PUSH1 0x0 PUSH1 0x8 DUP4 MUL PUSH2 0x5E9 PUSH32 0xFFFFFFFFFFFFFFFFFFFFFFFFFFFFFFFFFFFFFFFFFFFFFFFFFFFFFFFFFFFFFFFF DUP3 PUSH2 0x5AC JUMP JUMPDEST PUSH2 0x5F3 DUP7 DUP4 PUSH2 0x5AC JUMP JUMPDEST SWAP6 POP DUP1 NOT DUP5 AND SWAP4 POP DUP1 DUP7 AND DUP5 OR SWAP3 POP POP POP SWAP4 SWAP3 POP POP POP JUMP JUMPDEST PUSH1 0x0 DUP2 SWAP1 POP SWAP2 SWAP1 POP JUMP JUMPDEST PUSH1 0x0 DUP2 SWAP1 POP SWAP2 SWAP1 POP JUMP JUMPDEST PUSH1 0x0 PUSH2 0x63A PUSH2 0x635 PUSH2 0x630 DUP5 PUSH2 0x60B JUMP JUMPDEST PUSH2 0x615 JUMP JUMPDEST PUSH2 0x60B JUMP JUMPDEST SWAP1 POP SWAP2 SWAP1 POP JUMP JUMPDEST PUSH1 0x0 DUP2 SWAP1 POP SWAP2 SWAP1 POP JUMP JUMPDEST PUSH2 0x654 DUP4 PUSH2 0x61F JUMP JUMPDEST PUSH2 0x668 PUSH2 0x660 DUP3 PUSH2 0x641 JUMP JUMPDEST DUP5 DUP5 SLOAD PUSH2 0x5B9 JUMP JUMPDEST DUP3 SSTORE POP POP POP POP JUMP JUMPDEST PUSH1 0x0 SWAP1 JUMP JUMPDEST PUSH2 0x67D PUSH2 0x670 JUMP JUMPDEST PUSH2 0x688 DUP2 DUP5 DUP5 PUSH2 0x64B JUMP JUMPDEST POP POP POP JUMP JUMPDEST JUMPDEST DUP2 DUP2 LT ISZERO PUSH2 0x6AC JUMPI PUSH2 0x6A1 PUSH1 0x0 DUP3 PUSH2 0x675 JUMP JUMPDEST PUSH1 0x1 DUP2 ADD SWAP1 POP PUSH2 0x68E JUMP JUMPDEST POP POP JUMP JUMPDEST PUSH1 0x1F DUP3 GT ISZERO PUSH2 0x6F1 JUMPI PUSH2 0x6C2 DUP2 PUSH2 0x587 JUMP JUMPDEST PUSH2 0x6CB DUP5 PUSH2 0x59C JUMP JUMPDEST DUP2 ADD PUSH1 0x20 DUP6 LT ISZERO PUSH2 0x6DA JUMPI DUP2 SWAP1 POP JUMPDEST PUSH2 0x6EE PUSH2 0x6E6 DUP6 PUSH2 0x59C JUMP JUMPDEST DUP4 ADD DUP3 PUSH2 0x68D JUMP JUMPDEST POP POP JUMPDEST POP POP POP JUMP JUMPDEST PUSH1 0x0 DUP3 DUP3 SHR SWAP1 POP SWAP3 SWAP2 POP POP JUMP JUMPDEST PUSH1 0x0 PUSH2 0x714 PUSH1 0x0 NOT DUP5 PUSH1 0x8 MUL PUSH2 0x6F6 JUMP JUMPDEST NOT DUP1 DUP4 AND SWAP2 POP POP SWAP3 SWAP2 POP POP JUMP JUMPDEST PUSH1 0x0 PUSH2 0x72D DUP4 DUP4 PUSH2 0x703 JUMP JUMPDEST SWAP2 POP DUP3 PUSH1 0x2 MUL DUP3 OR SWAP1 POP SWAP3 SWAP2 POP POP JUMP JUMPDEST PUSH2 0x746 DUP3 PUSH2 0x3BB JUMP JUMPDEST PUSH8 0xFFFFFFFFFFFFFFFF DUP2 GT ISZERO PUSH2 0x75F JUMPI PUSH2 0x75E PUSH2 0x247 JUMP JUMPDEST JUMPDEST PUSH2 0x769 DUP3 SLOAD PUSH2 0x556 JUMP JUMPDEST PUSH2 0x774 DUP3 DUP3 DUP6 PUSH2 0x6B0 JUMP JUMPDEST PUSH1 0x0 PUSH1 0x20 SWAP1 POP PUSH1 0x1F DUP4 GT PUSH1 0x1 DUP2 EQ PUSH2 0x7A7 JUMPI PUSH1 0x0 DUP5 ISZERO PUSH2 0x795 JUMPI DUP3 DUP8 ADD MLOAD SWAP1 POP JUMPDEST PUSH2 0x79F DUP6 DUP3 PUSH2 0x721 JUMP JUMPDEST DUP7 SSTORE POP PUSH2 0x807 JUMP JUMPDEST PUSH1 0x1F NOT DUP5 AND PUSH2 0x7B5 DUP7 PUSH2 0x587 JUMP JUMPDEST PUSH1 0x0 JUMPDEST DUP3 DUP2 LT ISZERO PUSH2 0x7DD JUMPI DUP5 DUP10 ADD MLOAD DUP3 SSTORE PUSH1 0x1 DUP3 ADD SWAP2 POP PUSH1 0x20 DUP6 ADD SWAP5 POP PUSH1 0x20 DUP2 ADD SWAP1 POP PUSH2 0x7B8 JUMP JUMPDEST DUP7 DUP4 LT ISZERO PUSH2 0x7FA JUMPI DUP5 DUP10 ADD MLOAD PUSH2 0x7F6 PUSH1 0x1F DUP10 AND DUP3 PUSH2 0x703 JUMP JUMPDEST DUP4 SSTORE POP JUMPDEST PUSH1 0x1 PUSH1 0x2 DUP9 MUL ADD DUP9 SSTORE POP POP POP JUMPDEST POP POP POP POP POP POP JUMP INVALID LOG2 PUSH5 0x6970667358 0x22 SLT KECCAK256 CHAINID 0x49 0xD2 DUP5 0xE2 PUSH25 0x42810D19F623EEE308914E0DAEE0B8B2D82A874AA837C30A3D AND PUSH5 0x736F6C6343 STOP ADDMOD SLT STOP CALLER "
				},
				"gasEstimates": {
					"creation": {
						"codeDepositCost": "423400",
						"executionCost": "461",
						"totalCost": "423861"
					},
					"external": {
						"getContact(string)": "infinite",
						"removeContact(string)": "infinite",
						"setContact(string,string)": "infinite"
					}
				},
				"methodIdentifiers": {
					"getContact(string)": "efa902f0",
					"removeContact(string)": "6e6b5733",
					"setContact(string,string)": "f5ae4167"
				}
			},
			"storageLayout": {
				"storage": [
					{
						"astId": 5,
						"contract": "Fall-2023/16_Mapping.sol:Contact",
						"label": "contacts",
						"offset": 0,
						"slot": "0",
						"type": "t_mapping(t_string_memory_ptr,t_string_storage)"
					}
				],
				"types": {
					"t_mapping(t_string_memory_ptr,t_string_storage)": {
						"encoding": "mapping",
						"key": "t_string_memory_ptr",
						"label": "mapping(string => string)",
						"numberOfBytes": "32",
						"value": "t_string_storage"
					},
					"t_string_memory_ptr": {
						"encoding": "bytes",
						"label": "string",
						"numberOfBytes": "32"
					},
					"t_string_storage": {
						"encoding": "bytes",
						"label": "string",
						"numberOfBytes": "32"
					}
				}
			},
			"userdoc": {
				"kind": "user",
				"methods": {},
				"version": 1
			}
		}
	}
}