{
	"Fall-2023/Copy_08_DynamicArray.sol": {
		"DynamicArray": {
			"abi": [
				{
					"inputs": [],
					"name": "getLength",
					"outputs": [
						{
							"internalType": "uint256",
							"name": "",
							"type": "uint256"
						}
					],
					"stateMutability": "view",
					"type": "function"
				},
				{
					"inputs": [
						{
							"internalType": "uint256",
							"name": "index",
							"type": "uint256"
						}
					],
					"name": "getValue",
					"outputs": [
						{
							"internalType": "uint256",
							"name": "",
							"type": "uint256"
						}
					],
					"stateMutability": "view",
					"type": "function"
				},
				{
					"inputs": [],
					"name": "removeValue",
					"outputs": [],
					"stateMutability": "nonpayable",
					"type": "function"
				},
				{
					"inputs": [
						{
							"internalType": "uint256",
							"name": "value",
							"type": "uint256"
						}
					],
					"name": "setValue",
					"outputs": [],
					"stateMutability": "nonpayable",
					"type": "function"
				}
			],
			"devdoc": {
				"kind": "dev",
				"methods": {},
				"version": 1
			},
			"evm": {
				"assembly": "    /* \"Fall-2023/Copy_08_DynamicArray.sol\":92:684  contract DynamicArray... */\n  mstore(0x40, 0x80)\n  callvalue\n  dup1\n  iszero\n  tag_1\n  jumpi\n  0x00\n  dup1\n  revert\ntag_1:\n  pop\n  dataSize(sub_0)\n  dup1\n  dataOffset(sub_0)\n  0x00\n  codecopy\n  0x00\n  return\nstop\n\nsub_0: assembly {\n        /* \"Fall-2023/Copy_08_DynamicArray.sol\":92:684  contract DynamicArray... */\n      mstore(0x40, 0x80)\n      callvalue\n      dup1\n      iszero\n      tag_1\n      jumpi\n      0x00\n      dup1\n      revert\n    tag_1:\n      pop\n      jumpi(tag_2, lt(calldatasize, 0x04))\n      shr(0xe0, calldataload(0x00))\n      dup1\n      0x0ff4c916\n      eq\n      tag_3\n      jumpi\n      dup1\n      0x2f5739dd\n      eq\n      tag_4\n      jumpi\n      dup1\n      0x55241077\n      eq\n      tag_5\n      jumpi\n      dup1\n      0xbe1c766b\n      eq\n      tag_6\n      jumpi\n    tag_2:\n      0x00\n      dup1\n      revert\n        /* \"Fall-2023/Copy_08_DynamicArray.sol\":220:311  function getValue(uint index) public view returns(uint){... */\n    tag_3:\n      tag_7\n      0x04\n      dup1\n      calldatasize\n      sub\n      dup2\n      add\n      swap1\n      tag_8\n      swap2\n      swap1\n      tag_9\n      jump\t// in\n    tag_8:\n      tag_10\n      jump\t// in\n    tag_7:\n      mload(0x40)\n      tag_11\n      swap2\n      swap1\n      tag_12\n      jump\t// in\n    tag_11:\n      mload(0x40)\n      dup1\n      swap2\n      sub\n      swap1\n      return\n        /* \"Fall-2023/Copy_08_DynamicArray.sol\":319:591  function removeValue() public {... */\n    tag_4:\n      tag_13\n      tag_14\n      jump\t// in\n    tag_13:\n      stop\n        /* \"Fall-2023/Copy_08_DynamicArray.sol\":141:212  function setValue(uint value) public {... */\n    tag_5:\n      tag_15\n      0x04\n      dup1\n      calldatasize\n      sub\n      dup2\n      add\n      swap1\n      tag_16\n      swap2\n      swap1\n      tag_9\n      jump\t// in\n    tag_16:\n      tag_17\n      jump\t// in\n    tag_15:\n      stop\n        /* \"Fall-2023/Copy_08_DynamicArray.sol\":599:681  function getLength() public view returns(uint){... */\n    tag_6:\n      tag_18\n      tag_19\n      jump\t// in\n    tag_18:\n      mload(0x40)\n      tag_20\n      swap2\n      swap1\n      tag_12\n      jump\t// in\n    tag_20:\n      mload(0x40)\n      dup1\n      swap2\n      sub\n      swap1\n      return\n        /* \"Fall-2023/Copy_08_DynamicArray.sol\":220:311  function getValue(uint index) public view returns(uint){... */\n    tag_10:\n        /* \"Fall-2023/Copy_08_DynamicArray.sol\":270:274  uint */\n      0x00\n        /* \"Fall-2023/Copy_08_DynamicArray.sol\":293:296  arr */\n      dup1\n        /* \"Fall-2023/Copy_08_DynamicArray.sol\":297:302  index */\n      dup3\n        /* \"Fall-2023/Copy_08_DynamicArray.sol\":293:303  arr[index] */\n      dup2\n      sload\n      dup2\n      lt\n      tag_22\n      jumpi\n      tag_23\n      tag_24\n      jump\t// in\n    tag_23:\n    tag_22:\n      swap1\n      0x00\n      mstore\n      keccak256(0x00, 0x20)\n      add\n      sload\n        /* \"Fall-2023/Copy_08_DynamicArray.sol\":286:303  return arr[index] */\n      swap1\n      pop\n        /* \"Fall-2023/Copy_08_DynamicArray.sol\":220:311  function getValue(uint index) public view returns(uint){... */\n      swap2\n      swap1\n      pop\n      jump\t// out\n        /* \"Fall-2023/Copy_08_DynamicArray.sol\":319:591  function removeValue() public {... */\n    tag_14:\n        /* \"Fall-2023/Copy_08_DynamicArray.sol\":360:363  arr */\n      0x00\n        /* \"Fall-2023/Copy_08_DynamicArray.sol\":360:369  arr.pop() */\n      dup1\n      sload\n      dup1\n      tag_27\n      jumpi\n      tag_28\n      tag_29\n      jump\t// in\n    tag_28:\n    tag_27:\n      0x01\n      swap1\n      sub\n      dup2\n      dup2\n      swap1\n      0x00\n      mstore\n      keccak256(0x00, 0x20)\n      add\n      0x00\n      swap1\n      sstore\n      swap1\n      sstore\n        /* \"Fall-2023/Copy_08_DynamicArray.sol\":319:591  function removeValue() public {... */\n      jump\t// out\n        /* \"Fall-2023/Copy_08_DynamicArray.sol\":141:212  function setValue(uint value) public {... */\n    tag_17:\n        /* \"Fall-2023/Copy_08_DynamicArray.sol\":189:192  arr */\n      0x00\n        /* \"Fall-2023/Copy_08_DynamicArray.sol\":198:203  value */\n      dup2\n        /* \"Fall-2023/Copy_08_DynamicArray.sol\":189:204  arr.push(value) */\n      swap1\n      dup1\n      0x01\n      dup2\n      sload\n      add\n      dup1\n      dup3\n      sstore\n      dup1\n      swap2\n      pop\n      pop\n      0x01\n      swap1\n      sub\n      swap1\n      0x00\n      mstore\n      keccak256(0x00, 0x20)\n      add\n      0x00\n      swap1\n      swap2\n      swap1\n      swap2\n      swap1\n      swap2\n      pop\n      sstore\n        /* \"Fall-2023/Copy_08_DynamicArray.sol\":141:212  function setValue(uint value) public {... */\n      pop\n      jump\t// out\n        /* \"Fall-2023/Copy_08_DynamicArray.sol\":599:681  function getLength() public view returns(uint){... */\n    tag_19:\n        /* \"Fall-2023/Copy_08_DynamicArray.sol\":640:644  uint */\n      0x00\n        /* \"Fall-2023/Copy_08_DynamicArray.sol\":663:666  arr */\n      dup1\n        /* \"Fall-2023/Copy_08_DynamicArray.sol\":663:673  arr.length */\n      dup1\n      sload\n      swap1\n      pop\n        /* \"Fall-2023/Copy_08_DynamicArray.sol\":656:673  return arr.length */\n      swap1\n      pop\n        /* \"Fall-2023/Copy_08_DynamicArray.sol\":599:681  function getLength() public view returns(uint){... */\n      swap1\n      jump\t// out\n        /* \"#utility.yul\":88:205   */\n    tag_35:\n        /* \"#utility.yul\":197:198   */\n      0x00\n        /* \"#utility.yul\":194:195   */\n      dup1\n        /* \"#utility.yul\":187:199   */\n      revert\n        /* \"#utility.yul\":334:411   */\n    tag_37:\n        /* \"#utility.yul\":371:378   */\n      0x00\n        /* \"#utility.yul\":400:405   */\n      dup2\n        /* \"#utility.yul\":389:405   */\n      swap1\n      pop\n        /* \"#utility.yul\":334:411   */\n      swap2\n      swap1\n      pop\n      jump\t// out\n        /* \"#utility.yul\":417:539   */\n    tag_38:\n        /* \"#utility.yul\":490:514   */\n      tag_47\n        /* \"#utility.yul\":508:513   */\n      dup2\n        /* \"#utility.yul\":490:514   */\n      tag_37\n      jump\t// in\n    tag_47:\n        /* \"#utility.yul\":483:488   */\n      dup2\n        /* \"#utility.yul\":480:515   */\n      eq\n        /* \"#utility.yul\":470:533   */\n      tag_48\n      jumpi\n        /* \"#utility.yul\":529:530   */\n      0x00\n        /* \"#utility.yul\":526:527   */\n      dup1\n        /* \"#utility.yul\":519:531   */\n      revert\n        /* \"#utility.yul\":470:533   */\n    tag_48:\n        /* \"#utility.yul\":417:539   */\n      pop\n      jump\t// out\n        /* \"#utility.yul\":545:684   */\n    tag_39:\n        /* \"#utility.yul\":591:596   */\n      0x00\n        /* \"#utility.yul\":629:635   */\n      dup2\n        /* \"#utility.yul\":616:636   */\n      calldataload\n        /* \"#utility.yul\":607:636   */\n      swap1\n      pop\n        /* \"#utility.yul\":645:678   */\n      tag_50\n        /* \"#utility.yul\":672:677   */\n      dup2\n        /* \"#utility.yul\":645:678   */\n      tag_38\n      jump\t// in\n    tag_50:\n        /* \"#utility.yul\":545:684   */\n      swap3\n      swap2\n      pop\n      pop\n      jump\t// out\n        /* \"#utility.yul\":690:1019   */\n    tag_9:\n        /* \"#utility.yul\":749:755   */\n      0x00\n        /* \"#utility.yul\":798:800   */\n      0x20\n        /* \"#utility.yul\":786:795   */\n      dup3\n        /* \"#utility.yul\":777:784   */\n      dup5\n        /* \"#utility.yul\":773:796   */\n      sub\n        /* \"#utility.yul\":769:801   */\n      slt\n        /* \"#utility.yul\":766:885   */\n      iszero\n      tag_52\n      jumpi\n        /* \"#utility.yul\":804:883   */\n      tag_53\n      tag_35\n      jump\t// in\n    tag_53:\n        /* \"#utility.yul\":766:885   */\n    tag_52:\n        /* \"#utility.yul\":924:925   */\n      0x00\n        /* \"#utility.yul\":949:1002   */\n      tag_54\n        /* \"#utility.yul\":994:1001   */\n      dup5\n        /* \"#utility.yul\":985:991   */\n      dup3\n        /* \"#utility.yul\":974:983   */\n      dup6\n        /* \"#utility.yul\":970:992   */\n      add\n        /* \"#utility.yul\":949:1002   */\n      tag_39\n      jump\t// in\n    tag_54:\n        /* \"#utility.yul\":939:1002   */\n      swap2\n      pop\n        /* \"#utility.yul\":895:1012   */\n      pop\n        /* \"#utility.yul\":690:1019   */\n      swap3\n      swap2\n      pop\n      pop\n      jump\t// out\n        /* \"#utility.yul\":1025:1143   */\n    tag_40:\n        /* \"#utility.yul\":1112:1136   */\n      tag_56\n        /* \"#utility.yul\":1130:1135   */\n      dup2\n        /* \"#utility.yul\":1112:1136   */\n      tag_37\n      jump\t// in\n    tag_56:\n        /* \"#utility.yul\":1107:1110   */\n      dup3\n        /* \"#utility.yul\":1100:1137   */\n      mstore\n        /* \"#utility.yul\":1025:1143   */\n      pop\n      pop\n      jump\t// out\n        /* \"#utility.yul\":1149:1371   */\n    tag_12:\n        /* \"#utility.yul\":1242:1246   */\n      0x00\n        /* \"#utility.yul\":1280:1282   */\n      0x20\n        /* \"#utility.yul\":1269:1278   */\n      dup3\n        /* \"#utility.yul\":1265:1283   */\n      add\n        /* \"#utility.yul\":1257:1283   */\n      swap1\n      pop\n        /* \"#utility.yul\":1293:1364   */\n      tag_58\n        /* \"#utility.yul\":1361:1362   */\n      0x00\n        /* \"#utility.yul\":1350:1359   */\n      dup4\n        /* \"#utility.yul\":1346:1363   */\n      add\n        /* \"#utility.yul\":1337:1343   */\n      dup5\n        /* \"#utility.yul\":1293:1364   */\n      tag_40\n      jump\t// in\n    tag_58:\n        /* \"#utility.yul\":1149:1371   */\n      swap3\n      swap2\n      pop\n      pop\n      jump\t// out\n        /* \"#utility.yul\":1377:1557   */\n    tag_24:\n        /* \"#utility.yul\":1425:1502   */\n      0x4e487b7100000000000000000000000000000000000000000000000000000000\n        /* \"#utility.yul\":1422:1423   */\n      0x00\n        /* \"#utility.yul\":1415:1503   */\n      mstore\n        /* \"#utility.yul\":1522:1526   */\n      0x32\n        /* \"#utility.yul\":1519:1520   */\n      0x04\n        /* \"#utility.yul\":1512:1527   */\n      mstore\n        /* \"#utility.yul\":1546:1550   */\n      0x24\n        /* \"#utility.yul\":1543:1544   */\n      0x00\n        /* \"#utility.yul\":1536:1551   */\n      revert\n        /* \"#utility.yul\":1563:1743   */\n    tag_29:\n        /* \"#utility.yul\":1611:1688   */\n      0x4e487b7100000000000000000000000000000000000000000000000000000000\n        /* \"#utility.yul\":1608:1609   */\n      0x00\n        /* \"#utility.yul\":1601:1689   */\n      mstore\n        /* \"#utility.yul\":1708:1712   */\n      0x31\n        /* \"#utility.yul\":1705:1706   */\n      0x04\n        /* \"#utility.yul\":1698:1713   */\n      mstore\n        /* \"#utility.yul\":1732:1736   */\n      0x24\n        /* \"#utility.yul\":1729:1730   */\n      0x00\n        /* \"#utility.yul\":1722:1737   */\n      revert\n\n    auxdata: 0xa2646970667358221220cc1b973e1db71951b3a931273b3731f1d697edd1d511887bcdcf98704ba93cf964736f6c63430008160033\n}\n",
				"bytecode": {
					"linkReferences": {},
					"object": "608060405234801561000f575f80fd5b506102598061001d5f395ff3fe608060405234801561000f575f80fd5b506004361061004a575f3560e01c80630ff4c9161461004e5780632f5739dd1461007e5780635524107714610088578063be1c766b146100a4575b5f80fd5b61006860048036038101906100639190610176565b6100c2565b60405161007591906101b0565b60405180910390f35b6100866100e6565b005b6100a2600480360381019061009d9190610176565b61010c565b005b6100ac610134565b6040516100b991906101b0565b60405180910390f35b5f8082815481106100d6576100d56101c9565b5b905f5260205f2001549050919050565b5f8054806100f7576100f66101f6565b5b600190038181905f5260205f20015f90559055565b5f81908060018154018082558091505060019003905f5260205f20015f909190919091505550565b5f8080549050905090565b5f80fd5b5f819050919050565b61015581610143565b811461015f575f80fd5b50565b5f813590506101708161014c565b92915050565b5f6020828403121561018b5761018a61013f565b5b5f61019884828501610162565b91505092915050565b6101aa81610143565b82525050565b5f6020820190506101c35f8301846101a1565b92915050565b7f4e487b71000000000000000000000000000000000000000000000000000000005f52603260045260245ffd5b7f4e487b71000000000000000000000000000000000000000000000000000000005f52603160045260245ffdfea2646970667358221220cc1b973e1db71951b3a931273b3731f1d697edd1d511887bcdcf98704ba93cf964736f6c63430008160033",
					"opcodes": "PUSH1 0x80 PUSH1 0x40 MSTORE CALLVALUE DUP1 ISZERO PUSH2 0xF JUMPI PUSH0 DUP1 REVERT JUMPDEST POP PUSH2 0x259 DUP1 PUSH2 0x1D PUSH0 CODECOPY PUSH0 RETURN INVALID PUSH1 0x80 PUSH1 0x40 MSTORE CALLVALUE DUP1 ISZERO PUSH2 0xF JUMPI PUSH0 DUP1 REVERT JUMPDEST POP PUSH1 0x4 CALLDATASIZE LT PUSH2 0x4A JUMPI PUSH0 CALLDATALOAD PUSH1 0xE0 SHR DUP1 PUSH4 0xFF4C916 EQ PUSH2 0x4E JUMPI DUP1 PUSH4 0x2F5739DD EQ PUSH2 0x7E JUMPI DUP1 PUSH4 0x55241077 EQ PUSH2 0x88 JUMPI DUP1 PUSH4 0xBE1C766B EQ PUSH2 0xA4 JUMPI JUMPDEST PUSH0 DUP1 REVERT JUMPDEST PUSH2 0x68 PUSH1 0x4 DUP1 CALLDATASIZE SUB DUP2 ADD SWAP1 PUSH2 0x63 SWAP2 SWAP1 PUSH2 0x176 JUMP JUMPDEST PUSH2 0xC2 JUMP JUMPDEST PUSH1 0x40 MLOAD PUSH2 0x75 SWAP2 SWAP1 PUSH2 0x1B0 JUMP JUMPDEST PUSH1 0x40 MLOAD DUP1 SWAP2 SUB SWAP1 RETURN JUMPDEST PUSH2 0x86 PUSH2 0xE6 JUMP JUMPDEST STOP JUMPDEST PUSH2 0xA2 PUSH1 0x4 DUP1 CALLDATASIZE SUB DUP2 ADD SWAP1 PUSH2 0x9D SWAP2 SWAP1 PUSH2 0x176 JUMP JUMPDEST PUSH2 0x10C JUMP JUMPDEST STOP JUMPDEST PUSH2 0xAC PUSH2 0x134 JUMP JUMPDEST PUSH1 0x40 MLOAD PUSH2 0xB9 SWAP2 SWAP1 PUSH2 0x1B0 JUMP JUMPDEST PUSH1 0x40 MLOAD DUP1 SWAP2 SUB SWAP1 RETURN JUMPDEST PUSH0 DUP1 DUP3 DUP2 SLOAD DUP2 LT PUSH2 0xD6 JUMPI PUSH2 0xD5 PUSH2 0x1C9 JUMP JUMPDEST JUMPDEST SWAP1 PUSH0 MSTORE PUSH1 0x20 PUSH0 KECCAK256 ADD SLOAD SWAP1 POP SWAP2 SWAP1 POP JUMP JUMPDEST PUSH0 DUP1 SLOAD DUP1 PUSH2 0xF7 JUMPI PUSH2 0xF6 PUSH2 0x1F6 JUMP JUMPDEST JUMPDEST PUSH1 0x1 SWAP1 SUB DUP2 DUP2 SWAP1 PUSH0 MSTORE PUSH1 0x20 PUSH0 KECCAK256 ADD PUSH0 SWAP1 SSTORE SWAP1 SSTORE JUMP JUMPDEST PUSH0 DUP2 SWAP1 DUP1 PUSH1 0x1 DUP2 SLOAD ADD DUP1 DUP3 SSTORE DUP1 SWAP2 POP POP PUSH1 0x1 SWAP1 SUB SWAP1 PUSH0 MSTORE PUSH1 0x20 PUSH0 KECCAK256 ADD PUSH0 SWAP1 SWAP2 SWAP1 SWAP2 SWAP1 SWAP2 POP SSTORE POP JUMP JUMPDEST PUSH0 DUP1 DUP1 SLOAD SWAP1 POP SWAP1 POP SWAP1 JUMP JUMPDEST PUSH0 DUP1 REVERT JUMPDEST PUSH0 DUP2 SWAP1 POP SWAP2 SWAP1 POP JUMP JUMPDEST PUSH2 0x155 DUP2 PUSH2 0x143 JUMP JUMPDEST DUP2 EQ PUSH2 0x15F JUMPI PUSH0 DUP1 REVERT JUMPDEST POP JUMP JUMPDEST PUSH0 DUP2 CALLDATALOAD SWAP1 POP PUSH2 0x170 DUP2 PUSH2 0x14C JUMP JUMPDEST SWAP3 SWAP2 POP POP JUMP JUMPDEST PUSH0 PUSH1 0x20 DUP3 DUP5 SUB SLT ISZERO PUSH2 0x18B JUMPI PUSH2 0x18A PUSH2 0x13F JUMP JUMPDEST JUMPDEST PUSH0 PUSH2 0x198 DUP5 DUP3 DUP6 ADD PUSH2 0x162 JUMP JUMPDEST SWAP2 POP POP SWAP3 SWAP2 POP POP JUMP JUMPDEST PUSH2 0x1AA DUP2 PUSH2 0x143 JUMP JUMPDEST DUP3 MSTORE POP POP JUMP JUMPDEST PUSH0 PUSH1 0x20 DUP3 ADD SWAP1 POP PUSH2 0x1C3 PUSH0 DUP4 ADD DUP5 PUSH2 0x1A1 JUMP JUMPDEST SWAP3 SWAP2 POP POP JUMP JUMPDEST PUSH32 0x4E487B7100000000000000000000000000000000000000000000000000000000 PUSH0 MSTORE PUSH1 0x32 PUSH1 0x4 MSTORE PUSH1 0x24 PUSH0 REVERT JUMPDEST PUSH32 0x4E487B7100000000000000000000000000000000000000000000000000000000 PUSH0 MSTORE PUSH1 0x31 PUSH1 0x4 MSTORE PUSH1 0x24 PUSH0 REVERT INVALID LOG2 PUSH5 0x6970667358 0x22 SLT KECCAK256 0xCC SHL SWAP8 RETURNDATACOPY SAR 0xB7 NOT MLOAD 0xB3 0xA9 BALANCE 0x27 EXTCODESIZE CALLDATACOPY BALANCE CALL 0xD6 SWAP8 0xED 0xD1 0xD5 GT DUP9 PUSH28 0xCDCF98704BA93CF964736F6C63430008160033000000000000000000 "
				},
				"gasEstimates": {
					"creation": {
						"codeDepositCost": "120200",
						"executionCost": "163",
						"totalCost": "120363"
					},
					"external": {
						"getLength()": "2484",
						"getValue(uint256)": "infinite",
						"removeValue()": "29440",
						"setValue(uint256)": "46842"
					}
				},
				"methodIdentifiers": {
					"getLength()": "be1c766b",
					"getValue(uint256)": "0ff4c916",
					"removeValue()": "2f5739dd",
					"setValue(uint256)": "55241077"
				}
			},
			"storageLayout": {
				"storage": [
					{
						"astId": 4,
						"contract": "Fall-2023/Copy_08_DynamicArray.sol:DynamicArray",
						"label": "arr",
						"offset": 0,
						"slot": "0",
						"type": "t_array(t_uint256)dyn_storage"
					}
				],
				"types": {
					"t_array(t_uint256)dyn_storage": {
						"base": "t_uint256",
						"encoding": "dynamic_array",
						"label": "uint256[]",
						"numberOfBytes": "32"
					},
					"t_uint256": {
						"encoding": "inplace",
						"label": "uint256",
						"numberOfBytes": "32"
					}
				}
			},
			"userdoc": {
				"kind": "user",
				"methods": {},
				"version": 1
			}
		}
	}
}