{
	"data": {
		"bytecode": {
			"linkReferences": {},
			"object": "608060405234801561001057600080fd5b506102ff806100206000396000f3fe608060405234801561001057600080fd5b50600436106100365760003560e01c806319eb4a901461003b578063800509d514610059575b600080fd5b610043610063565b60405161005091906101c6565b60405180910390f35b6100616100ae565b005b61006b6100ef565b60006005806020026040519081016040528092919082600580156100a4576020028201915b815481526020019060010190808311610090575b5050505050905090565b60005b80816100bd9190610210565b600082600581106100d1576100d0610252565b5b018190555080806100e190610281565b915050600581106100b15750565b6040518060a00160405280600590602082028036833780820191505090505090565b600060059050919050565b600081905092915050565b6000819050919050565b6000819050919050565b61014481610131565b82525050565b6000610156838361013b565b60208301905092915050565b6000602082019050919050565b61017881610111565b610182818461011c565b925061018d82610127565b8060005b838110156101be5781516101a5878261014a565b96506101b083610162565b925050600181019050610191565b505050505050565b600060a0820190506101db600083018461016f565b92915050565b7f4e487b7100000000000000000000000000000000000000000000000000000000600052601160045260246000fd5b600061021b82610131565b915061022683610131565b925082820261023481610131565b9150828204841483151761024b5761024a6101e1565b5b5092915050565b7f4e487b7100000000000000000000000000000000000000000000000000000000600052603260045260246000fd5b600061028c82610131565b91507fffffffffffffffffffffffffffffffffffffffffffffffffffffffffffffffff82036102be576102bd6101e1565b5b60018201905091905056fea2646970667358221220119b833e49cd5a8dc68d44288ce83f475e0ac268c58615adce72864a5848dc1364736f6c63430008120033",
			"opcodes": "PUSH1 0x80 PUSH1 0x40 MSTORE CALLVALUE DUP1 ISZERO PUSH2 0x10 JUMPI PUSH1 0x0 DUP1 REVERT JUMPDEST POP PUSH2 0x2FF DUP1 PUSH2 0x20 PUSH1 0x0 CODECOPY PUSH1 0x0 RETURN INVALID PUSH1 0x80 PUSH1 0x40 MSTORE CALLVALUE DUP1 ISZERO PUSH2 0x10 JUMPI PUSH1 0x0 DUP1 REVERT JUMPDEST POP PUSH1 0x4 CALLDATASIZE LT PUSH2 0x36 JUMPI PUSH1 0x0 CALLDATALOAD PUSH1 0xE0 SHR DUP1 PUSH4 0x19EB4A90 EQ PUSH2 0x3B JUMPI DUP1 PUSH4 0x800509D5 EQ PUSH2 0x59 JUMPI JUMPDEST PUSH1 0x0 DUP1 REVERT JUMPDEST PUSH2 0x43 PUSH2 0x63 JUMP JUMPDEST PUSH1 0x40 MLOAD PUSH2 0x50 SWAP2 SWAP1 PUSH2 0x1C6 JUMP JUMPDEST PUSH1 0x40 MLOAD DUP1 SWAP2 SUB SWAP1 RETURN JUMPDEST PUSH2 0x61 PUSH2 0xAE JUMP JUMPDEST STOP JUMPDEST PUSH2 0x6B PUSH2 0xEF JUMP JUMPDEST PUSH1 0x0 PUSH1 0x5 DUP1 PUSH1 0x20 MUL PUSH1 0x40 MLOAD SWAP1 DUP2 ADD PUSH1 0x40 MSTORE DUP1 SWAP3 SWAP2 SWAP1 DUP3 PUSH1 0x5 DUP1 ISZERO PUSH2 0xA4 JUMPI PUSH1 0x20 MUL DUP3 ADD SWAP2 JUMPDEST DUP2 SLOAD DUP2 MSTORE PUSH1 0x20 ADD SWAP1 PUSH1 0x1 ADD SWAP1 DUP1 DUP4 GT PUSH2 0x90 JUMPI JUMPDEST POP POP POP POP POP SWAP1 POP SWAP1 JUMP JUMPDEST PUSH1 0x0 JUMPDEST DUP1 DUP2 PUSH2 0xBD SWAP2 SWAP1 PUSH2 0x210 JUMP JUMPDEST PUSH1 0x0 DUP3 PUSH1 0x5 DUP2 LT PUSH2 0xD1 JUMPI PUSH2 0xD0 PUSH2 0x252 JUMP JUMPDEST JUMPDEST ADD DUP2 SWAP1 SSTORE POP DUP1 DUP1 PUSH2 0xE1 SWAP1 PUSH2 0x281 JUMP JUMPDEST SWAP2 POP POP PUSH1 0x5 DUP2 LT PUSH2 0xB1 JUMPI POP JUMP JUMPDEST PUSH1 0x40 MLOAD DUP1 PUSH1 0xA0 ADD PUSH1 0x40 MSTORE DUP1 PUSH1 0x5 SWAP1 PUSH1 0x20 DUP3 MUL DUP1 CALLDATASIZE DUP4 CALLDATACOPY DUP1 DUP3 ADD SWAP2 POP POP SWAP1 POP POP SWAP1 JUMP JUMPDEST PUSH1 0x0 PUSH1 0x5 SWAP1 POP SWAP2 SWAP1 POP JUMP JUMPDEST PUSH1 0x0 DUP2 SWAP1 POP SWAP3 SWAP2 POP POP JUMP JUMPDEST PUSH1 0x0 DUP2 SWAP1 POP SWAP2 SWAP1 POP JUMP JUMPDEST PUSH1 0x0 DUP2 SWAP1 POP SWAP2 SWAP1 POP JUMP JUMPDEST PUSH2 0x144 DUP2 PUSH2 0x131 JUMP JUMPDEST DUP3 MSTORE POP POP JUMP JUMPDEST PUSH1 0x0 PUSH2 0x156 DUP4 DUP4 PUSH2 0x13B JUMP JUMPDEST PUSH1 0x20 DUP4 ADD SWAP1 POP SWAP3 SWAP2 POP POP JUMP JUMPDEST PUSH1 0x0 PUSH1 0x20 DUP3 ADD SWAP1 POP SWAP2 SWAP1 POP JUMP JUMPDEST PUSH2 0x178 DUP2 PUSH2 0x111 JUMP JUMPDEST PUSH2 0x182 DUP2 DUP5 PUSH2 0x11C JUMP JUMPDEST SWAP3 POP PUSH2 0x18D DUP3 PUSH2 0x127 JUMP JUMPDEST DUP1 PUSH1 0x0 JUMPDEST DUP4 DUP2 LT ISZERO PUSH2 0x1BE JUMPI DUP2 MLOAD PUSH2 0x1A5 DUP8 DUP3 PUSH2 0x14A JUMP JUMPDEST SWAP7 POP PUSH2 0x1B0 DUP4 PUSH2 0x162 JUMP JUMPDEST SWAP3 POP POP PUSH1 0x1 DUP2 ADD SWAP1 POP PUSH2 0x191 JUMP JUMPDEST POP POP POP POP POP POP JUMP JUMPDEST PUSH1 0x0 PUSH1 0xA0 DUP3 ADD SWAP1 POP PUSH2 0x1DB PUSH1 0x0 DUP4 ADD DUP5 PUSH2 0x16F JUMP JUMPDEST SWAP3 SWAP2 POP POP JUMP JUMPDEST PUSH32 0x4E487B7100000000000000000000000000000000000000000000000000000000 PUSH1 0x0 MSTORE PUSH1 0x11 PUSH1 0x4 MSTORE PUSH1 0x24 PUSH1 0x0 REVERT JUMPDEST PUSH1 0x0 PUSH2 0x21B DUP3 PUSH2 0x131 JUMP JUMPDEST SWAP2 POP PUSH2 0x226 DUP4 PUSH2 0x131 JUMP JUMPDEST SWAP3 POP DUP3 DUP3 MUL PUSH2 0x234 DUP2 PUSH2 0x131 JUMP JUMPDEST SWAP2 POP DUP3 DUP3 DIV DUP5 EQ DUP4 ISZERO OR PUSH2 0x24B JUMPI PUSH2 0x24A PUSH2 0x1E1 JUMP JUMPDEST JUMPDEST POP SWAP3 SWAP2 POP POP JUMP JUMPDEST PUSH32 0x4E487B7100000000000000000000000000000000000000000000000000000000 PUSH1 0x0 MSTORE PUSH1 0x32 PUSH1 0x4 MSTORE PUSH1 0x24 PUSH1 0x0 REVERT JUMPDEST PUSH1 0x0 PUSH2 0x28C DUP3 PUSH2 0x131 JUMP JUMPDEST SWAP2 POP PUSH32 0xFFFFFFFFFFFFFFFFFFFFFFFFFFFFFFFFFFFFFFFFFFFFFFFFFFFFFFFFFFFFFFFF DUP3 SUB PUSH2 0x2BE JUMPI PUSH2 0x2BD PUSH2 0x1E1 JUMP JUMPDEST JUMPDEST PUSH1 0x1 DUP3 ADD SWAP1 POP SWAP2 SWAP1 POP JUMP INVALID LOG2 PUSH5 0x6970667358 0x22 SLT KECCAK256 GT SWAP12 DUP4 RETURNDATACOPY 0x49 0xCD GAS DUP14 0xC6 DUP14 PREVRANDAO 0x28 DUP13 0xE8 EXTCODEHASH SELFBALANCE 0x5E EXP 0xC2 PUSH9 0xC58615ADCE72864A58 BASEFEE 0xDC SGT PUSH5 0x736F6C6343 STOP ADDMOD SLT STOP CALLER "
		},
		"gasEstimates": {
			"creation": {
				"codeDepositCost": "153400",
				"executionCost": "196",
				"totalCost": "153596"
			},
			"external": {
				"getValues()": "infinite",
				"setValues()": "infinite"
			}
		},
		"methodIdentifiers": {
			"getValues()": "19eb4a90",
			"setValues()": "800509d5"
		}
	},
	"abi": [
		{
			"inputs": [],
			"name": "getValues",
			"outputs": [
				{
					"internalType": "uint256[5]",
					"name": "",
					"type": "uint256[5]"
				}
			],
			"stateMutability": "view",
			"type": "function"
		},
		{
			"inputs": [],
			"name": "setValues",
			"outputs": [],
			"stateMutability": "nonpayable",
			"type": "function"
		}
	]
}