{
	"data": {
		"bytecode": {
			"linkReferences": {},
			"object": "608060405260016000806101000a81548160ff0219169083600681111561002957610028610040565b5b021790555034801561003a57600080fd5b5061006f565b7f4e487b7100000000000000000000000000000000000000000000000000000000600052602160045260246000fd5b61060d8061007e6000396000f3fe608060405234801561001057600080fd5b50600436106100415760003560e01c806314ba5c09146100465780632f00bfcb1461006457806355cbb0c014610080575b600080fd5b61004e61009e565b60405161005b91906104b3565b60405180910390f35b61007e600480360381019061007991906104f8565b6100b4565b005b6100886100e0565b60405161009591906105b5565b60405180910390f35b60008060009054906101000a900460ff16905090565b806000806101000a81548160ff021916908360068111156100d8576100d761043c565b5b021790555050565b606060006040518060200160405280600081525090506000600681111561010a5761010961043c565b5b60008054906101000a900460ff16600681111561012a5761012961043c565b5b03610170576040518060400160405280600681526020017f4d6f6e6461790000000000000000000000000000000000000000000000000000815250905080915050610439565b600160068111156101845761018361043c565b5b60008054906101000a900460ff1660068111156101a4576101a361043c565b5b036101e6576040518060400160405280600781526020017f54756573646179000000000000000000000000000000000000000000000000008152509050610434565b600260068111156101fa576101f961043c565b5b60008054906101000a900460ff16600681111561021a5761021961043c565b5b0361025c576040518060400160405280600981526020017f5765646e657364617900000000000000000000000000000000000000000000008152509050610433565b600360068111156102705761026f61043c565b5b60008054906101000a900460ff1660068111156102905761028f61043c565b5b036102d2576040518060400160405280600881526020017f54687572736461790000000000000000000000000000000000000000000000008152509050610432565b600460068111156102e6576102e561043c565b5b60008054906101000a900460ff1660068111156103065761030561043c565b5b03610348576040518060400160405280600681526020017f46726964617900000000000000000000000000000000000000000000000000008152509050610431565b6005600681111561035c5761035b61043c565b5b60008054906101000a900460ff16600681111561037c5761037b61043c565b5b036103be576040518060400160405280600881526020017f53617475726461790000000000000000000000000000000000000000000000008152509050610430565b6006808111156103d1576103d061043c565b5b60008054906101000a900460ff1660068111156103f1576103f061043c565b5b0361042f576040518060400160405280600681526020017f53756e646179000000000000000000000000000000000000000000000000000081525090505b5b5b5b5b5b809150505b90565b7f4e487b7100000000000000000000000000000000000000000000000000000000600052602160045260246000fd5b6007811061047c5761047b61043c565b5b50565b600081905061048d8261046b565b919050565b600061049d8261047f565b9050919050565b6104ad81610492565b82525050565b60006020820190506104c860008301846104a4565b92915050565b600080fd5b600781106104e057600080fd5b50565b6000813590506104f2816104d3565b92915050565b60006020828403121561050e5761050d6104ce565b5b600061051c848285016104e3565b91505092915050565b600081519050919050565b600082825260208201905092915050565b60005b8381101561055f578082015181840152602081019050610544565b60008484015250505050565b6000601f19601f8301169050919050565b600061058782610525565b6105918185610530565b93506105a1818560208601610541565b6105aa8161056b565b840191505092915050565b600060208201905081810360008301526105cf818461057c565b90509291505056fea2646970667358221220392240aa8330d045582fb10225970630d8f1f4d5ecfd6000b696af37ba8e629c64736f6c63430008120033",
			"opcodes": "PUSH1 0x80 PUSH1 0x40 MSTORE PUSH1 0x1 PUSH1 0x0 DUP1 PUSH2 0x100 EXP DUP2 SLOAD DUP2 PUSH1 0xFF MUL NOT AND SWAP1 DUP4 PUSH1 0x6 DUP2 GT ISZERO PUSH2 0x29 JUMPI PUSH2 0x28 PUSH2 0x40 JUMP JUMPDEST JUMPDEST MUL OR SWAP1 SSTORE POP CALLVALUE DUP1 ISZERO PUSH2 0x3A JUMPI PUSH1 0x0 DUP1 REVERT JUMPDEST POP PUSH2 0x6F JUMP JUMPDEST PUSH32 0x4E487B7100000000000000000000000000000000000000000000000000000000 PUSH1 0x0 MSTORE PUSH1 0x21 PUSH1 0x4 MSTORE PUSH1 0x24 PUSH1 0x0 REVERT JUMPDEST PUSH2 0x60D DUP1 PUSH2 0x7E PUSH1 0x0 CODECOPY PUSH1 0x0 RETURN INVALID PUSH1 0x80 PUSH1 0x40 MSTORE CALLVALUE DUP1 ISZERO PUSH2 0x10 JUMPI PUSH1 0x0 DUP1 REVERT JUMPDEST POP PUSH1 0x4 CALLDATASIZE LT PUSH2 0x41 JUMPI PUSH1 0x0 CALLDATALOAD PUSH1 0xE0 SHR DUP1 PUSH4 0x14BA5C09 EQ PUSH2 0x46 JUMPI DUP1 PUSH4 0x2F00BFCB EQ PUSH2 0x64 JUMPI DUP1 PUSH4 0x55CBB0C0 EQ PUSH2 0x80 JUMPI JUMPDEST PUSH1 0x0 DUP1 REVERT JUMPDEST PUSH2 0x4E PUSH2 0x9E JUMP JUMPDEST PUSH1 0x40 MLOAD PUSH2 0x5B SWAP2 SWAP1 PUSH2 0x4B3 JUMP JUMPDEST PUSH1 0x40 MLOAD DUP1 SWAP2 SUB SWAP1 RETURN JUMPDEST PUSH2 0x7E PUSH1 0x4 DUP1 CALLDATASIZE SUB DUP2 ADD SWAP1 PUSH2 0x79 SWAP2 SWAP1 PUSH2 0x4F8 JUMP JUMPDEST PUSH2 0xB4 JUMP JUMPDEST STOP JUMPDEST PUSH2 0x88 PUSH2 0xE0 JUMP JUMPDEST PUSH1 0x40 MLOAD PUSH2 0x95 SWAP2 SWAP1 PUSH2 0x5B5 JUMP JUMPDEST PUSH1 0x40 MLOAD DUP1 SWAP2 SUB SWAP1 RETURN JUMPDEST PUSH1 0x0 DUP1 PUSH1 0x0 SWAP1 SLOAD SWAP1 PUSH2 0x100 EXP SWAP1 DIV PUSH1 0xFF AND SWAP1 POP SWAP1 JUMP JUMPDEST DUP1 PUSH1 0x0 DUP1 PUSH2 0x100 EXP DUP2 SLOAD DUP2 PUSH1 0xFF MUL NOT AND SWAP1 DUP4 PUSH1 0x6 DUP2 GT ISZERO PUSH2 0xD8 JUMPI PUSH2 0xD7 PUSH2 0x43C JUMP JUMPDEST JUMPDEST MUL OR SWAP1 SSTORE POP POP JUMP JUMPDEST PUSH1 0x60 PUSH1 0x0 PUSH1 0x40 MLOAD DUP1 PUSH1 0x20 ADD PUSH1 0x40 MSTORE DUP1 PUSH1 0x0 DUP2 MSTORE POP SWAP1 POP PUSH1 0x0 PUSH1 0x6 DUP2 GT ISZERO PUSH2 0x10A JUMPI PUSH2 0x109 PUSH2 0x43C JUMP JUMPDEST JUMPDEST PUSH1 0x0 DUP1 SLOAD SWAP1 PUSH2 0x100 EXP SWAP1 DIV PUSH1 0xFF AND PUSH1 0x6 DUP2 GT ISZERO PUSH2 0x12A JUMPI PUSH2 0x129 PUSH2 0x43C JUMP JUMPDEST JUMPDEST SUB PUSH2 0x170 JUMPI PUSH1 0x40 MLOAD DUP1 PUSH1 0x40 ADD PUSH1 0x40 MSTORE DUP1 PUSH1 0x6 DUP2 MSTORE PUSH1 0x20 ADD PUSH32 0x4D6F6E6461790000000000000000000000000000000000000000000000000000 DUP2 MSTORE POP SWAP1 POP DUP1 SWAP2 POP POP PUSH2 0x439 JUMP JUMPDEST PUSH1 0x1 PUSH1 0x6 DUP2 GT ISZERO PUSH2 0x184 JUMPI PUSH2 0x183 PUSH2 0x43C JUMP JUMPDEST JUMPDEST PUSH1 0x0 DUP1 SLOAD SWAP1 PUSH2 0x100 EXP SWAP1 DIV PUSH1 0xFF AND PUSH1 0x6 DUP2 GT ISZERO PUSH2 0x1A4 JUMPI PUSH2 0x1A3 PUSH2 0x43C JUMP JUMPDEST JUMPDEST SUB PUSH2 0x1E6 JUMPI PUSH1 0x40 MLOAD DUP1 PUSH1 0x40 ADD PUSH1 0x40 MSTORE DUP1 PUSH1 0x7 DUP2 MSTORE PUSH1 0x20 ADD PUSH32 0x5475657364617900000000000000000000000000000000000000000000000000 DUP2 MSTORE POP SWAP1 POP PUSH2 0x434 JUMP JUMPDEST PUSH1 0x2 PUSH1 0x6 DUP2 GT ISZERO PUSH2 0x1FA JUMPI PUSH2 0x1F9 PUSH2 0x43C JUMP JUMPDEST JUMPDEST PUSH1 0x0 DUP1 SLOAD SWAP1 PUSH2 0x100 EXP SWAP1 DIV PUSH1 0xFF AND PUSH1 0x6 DUP2 GT ISZERO PUSH2 0x21A JUMPI PUSH2 0x219 PUSH2 0x43C JUMP JUMPDEST JUMPDEST SUB PUSH2 0x25C JUMPI PUSH1 0x40 MLOAD DUP1 PUSH1 0x40 ADD PUSH1 0x40 MSTORE DUP1 PUSH1 0x9 DUP2 MSTORE PUSH1 0x20 ADD PUSH32 0x5765646E65736461790000000000000000000000000000000000000000000000 DUP2 MSTORE POP SWAP1 POP PUSH2 0x433 JUMP JUMPDEST PUSH1 0x3 PUSH1 0x6 DUP2 GT ISZERO PUSH2 0x270 JUMPI PUSH2 0x26F PUSH2 0x43C JUMP JUMPDEST JUMPDEST PUSH1 0x0 DUP1 SLOAD SWAP1 PUSH2 0x100 EXP SWAP1 DIV PUSH1 0xFF AND PUSH1 0x6 DUP2 GT ISZERO PUSH2 0x290 JUMPI PUSH2 0x28F PUSH2 0x43C JUMP JUMPDEST JUMPDEST SUB PUSH2 0x2D2 JUMPI PUSH1 0x40 MLOAD DUP1 PUSH1 0x40 ADD PUSH1 0x40 MSTORE DUP1 PUSH1 0x8 DUP2 MSTORE PUSH1 0x20 ADD PUSH32 0x5468757273646179000000000000000000000000000000000000000000000000 DUP2 MSTORE POP SWAP1 POP PUSH2 0x432 JUMP JUMPDEST PUSH1 0x4 PUSH1 0x6 DUP2 GT ISZERO PUSH2 0x2E6 JUMPI PUSH2 0x2E5 PUSH2 0x43C JUMP JUMPDEST JUMPDEST PUSH1 0x0 DUP1 SLOAD SWAP1 PUSH2 0x100 EXP SWAP1 DIV PUSH1 0xFF AND PUSH1 0x6 DUP2 GT ISZERO PUSH2 0x306 JUMPI PUSH2 0x305 PUSH2 0x43C JUMP JUMPDEST JUMPDEST SUB PUSH2 0x348 JUMPI PUSH1 0x40 MLOAD DUP1 PUSH1 0x40 ADD PUSH1 0x40 MSTORE DUP1 PUSH1 0x6 DUP2 MSTORE PUSH1 0x20 ADD PUSH32 0x4672696461790000000000000000000000000000000000000000000000000000 DUP2 MSTORE POP SWAP1 POP PUSH2 0x431 JUMP JUMPDEST PUSH1 0x5 PUSH1 0x6 DUP2 GT ISZERO PUSH2 0x35C JUMPI PUSH2 0x35B PUSH2 0x43C JUMP JUMPDEST JUMPDEST PUSH1 0x0 DUP1 SLOAD SWAP1 PUSH2 0x100 EXP SWAP1 DIV PUSH1 0xFF AND PUSH1 0x6 DUP2 GT ISZERO PUSH2 0x37C JUMPI PUSH2 0x37B PUSH2 0x43C JUMP JUMPDEST JUMPDEST SUB PUSH2 0x3BE JUMPI PUSH1 0x40 MLOAD DUP1 PUSH1 0x40 ADD PUSH1 0x40 MSTORE DUP1 PUSH1 0x8 DUP2 MSTORE PUSH1 0x20 ADD PUSH32 0x5361747572646179000000000000000000000000000000000000000000000000 DUP2 MSTORE POP SWAP1 POP PUSH2 0x430 JUMP JUMPDEST PUSH1 0x6 DUP1 DUP2 GT ISZERO PUSH2 0x3D1 JUMPI PUSH2 0x3D0 PUSH2 0x43C JUMP JUMPDEST JUMPDEST PUSH1 0x0 DUP1 SLOAD SWAP1 PUSH2 0x100 EXP SWAP1 DIV PUSH1 0xFF AND PUSH1 0x6 DUP2 GT ISZERO PUSH2 0x3F1 JUMPI PUSH2 0x3F0 PUSH2 0x43C JUMP JUMPDEST JUMPDEST SUB PUSH2 0x42F JUMPI PUSH1 0x40 MLOAD DUP1 PUSH1 0x40 ADD PUSH1 0x40 MSTORE DUP1 PUSH1 0x6 DUP2 MSTORE PUSH1 0x20 ADD PUSH32 0x53756E6461790000000000000000000000000000000000000000000000000000 DUP2 MSTORE POP SWAP1 POP JUMPDEST JUMPDEST JUMPDEST JUMPDEST JUMPDEST JUMPDEST DUP1 SWAP2 POP POP JUMPDEST SWAP1 JUMP JUMPDEST PUSH32 0x4E487B7100000000000000000000000000000000000000000000000000000000 PUSH1 0x0 MSTORE PUSH1 0x21 PUSH1 0x4 MSTORE PUSH1 0x24 PUSH1 0x0 REVERT JUMPDEST PUSH1 0x7 DUP2 LT PUSH2 0x47C JUMPI PUSH2 0x47B PUSH2 0x43C JUMP JUMPDEST JUMPDEST POP JUMP JUMPDEST PUSH1 0x0 DUP2 SWAP1 POP PUSH2 0x48D DUP3 PUSH2 0x46B JUMP JUMPDEST SWAP2 SWAP1 POP JUMP JUMPDEST PUSH1 0x0 PUSH2 0x49D DUP3 PUSH2 0x47F JUMP JUMPDEST SWAP1 POP SWAP2 SWAP1 POP JUMP JUMPDEST PUSH2 0x4AD DUP2 PUSH2 0x492 JUMP JUMPDEST DUP3 MSTORE POP POP JUMP JUMPDEST PUSH1 0x0 PUSH1 0x20 DUP3 ADD SWAP1 POP PUSH2 0x4C8 PUSH1 0x0 DUP4 ADD DUP5 PUSH2 0x4A4 JUMP JUMPDEST SWAP3 SWAP2 POP POP JUMP JUMPDEST PUSH1 0x0 DUP1 REVERT JUMPDEST PUSH1 0x7 DUP2 LT PUSH2 0x4E0 JUMPI PUSH1 0x0 DUP1 REVERT JUMPDEST POP JUMP JUMPDEST PUSH1 0x0 DUP2 CALLDATALOAD SWAP1 POP PUSH2 0x4F2 DUP2 PUSH2 0x4D3 JUMP JUMPDEST SWAP3 SWAP2 POP POP JUMP JUMPDEST PUSH1 0x0 PUSH1 0x20 DUP3 DUP5 SUB SLT ISZERO PUSH2 0x50E JUMPI PUSH2 0x50D PUSH2 0x4CE JUMP JUMPDEST JUMPDEST PUSH1 0x0 PUSH2 0x51C DUP5 DUP3 DUP6 ADD PUSH2 0x4E3 JUMP JUMPDEST SWAP2 POP POP SWAP3 SWAP2 POP POP JUMP JUMPDEST PUSH1 0x0 DUP2 MLOAD SWAP1 POP SWAP2 SWAP1 POP JUMP JUMPDEST PUSH1 0x0 DUP3 DUP3 MSTORE PUSH1 0x20 DUP3 ADD SWAP1 POP SWAP3 SWAP2 POP POP JUMP JUMPDEST PUSH1 0x0 JUMPDEST DUP4 DUP2 LT ISZERO PUSH2 0x55F JUMPI DUP1 DUP3 ADD MLOAD DUP2 DUP5 ADD MSTORE PUSH1 0x20 DUP2 ADD SWAP1 POP PUSH2 0x544 JUMP JUMPDEST PUSH1 0x0 DUP5 DUP5 ADD MSTORE POP POP POP POP JUMP JUMPDEST PUSH1 0x0 PUSH1 0x1F NOT PUSH1 0x1F DUP4 ADD AND SWAP1 POP SWAP2 SWAP1 POP JUMP JUMPDEST PUSH1 0x0 PUSH2 0x587 DUP3 PUSH2 0x525 JUMP JUMPDEST PUSH2 0x591 DUP2 DUP6 PUSH2 0x530 JUMP JUMPDEST SWAP4 POP PUSH2 0x5A1 DUP2 DUP6 PUSH1 0x20 DUP7 ADD PUSH2 0x541 JUMP JUMPDEST PUSH2 0x5AA DUP2 PUSH2 0x56B JUMP JUMPDEST DUP5 ADD SWAP2 POP POP SWAP3 SWAP2 POP POP JUMP JUMPDEST PUSH1 0x0 PUSH1 0x20 DUP3 ADD SWAP1 POP DUP2 DUP2 SUB PUSH1 0x0 DUP4 ADD MSTORE PUSH2 0x5CF DUP2 DUP5 PUSH2 0x57C JUMP JUMPDEST SWAP1 POP SWAP3 SWAP2 POP POP JUMP INVALID LOG2 PUSH5 0x6970667358 0x22 SLT KECCAK256 CODECOPY 0x22 BLOCKHASH 0xAA DUP4 ADDRESS 0xD0 GASLIMIT PC 0x2F 0xB1 MUL 0x25 SWAP8 MOD ADDRESS 0xD8 CALL DELEGATECALL 0xD5 0xEC REVERT PUSH1 0x0 0xB6 SWAP7 0xAF CALLDATACOPY 0xBA DUP15 PUSH3 0x9C6473 PUSH16 0x6C634300081200330000000000000000 "
		},
		"gasEstimates": {
			"creation": {
				"codeDepositCost": "309800",
				"executionCost": "24648",
				"totalCost": "334448"
			},
			"external": {
				"getDay()": "2546",
				"getDayName()": "infinite",
				"setDay(uint8)": "24650"
			}
		},
		"methodIdentifiers": {
			"getDay()": "14ba5c09",
			"getDayName()": "55cbb0c0",
			"setDay(uint8)": "2f00bfcb"
		}
	},
	"abi": [
		{
			"inputs": [],
			"name": "getDay",
			"outputs": [
				{
					"internalType": "enum Day",
					"name": "",
					"type": "uint8"
				}
			],
			"stateMutability": "view",
			"type": "function"
		},
		{
			"inputs": [],
			"name": "getDayName",
			"outputs": [
				{
					"internalType": "string",
					"name": "",
					"type": "string"
				}
			],
			"stateMutability": "view",
			"type": "function"
		},
		{
			"inputs": [
				{
					"internalType": "enum Day",
					"name": "_day",
					"type": "uint8"
				}
			],
			"name": "setDay",
			"outputs": [],
			"stateMutability": "nonpayable",
			"type": "function"
		}
	]
}